:100000000C9474000C94A0000C94A0000C94A0001C
:100010000C94A0000C94A0000C94A0000C94A000E0
:100020000C94A0000C94A0000C94A0000C94A000D0
:100030000C94A0000C94A0000C94A0000C94A000C0
:100040000C94A0000C94A0000C94A0000C94A000B0
:100050000C94A0000C94A0000C94A0000C943A08FE
:100060000C94A0000C94A0000C94A0000C94A00090
:100070000C94A0000C94A0000C94A0000C94A00080
:100080000C94A0000C94A0000C94A0000C94A00070
:100090000C94A0000C94A0000C94A0000C94A00060
:1000A0000C94A0000C94A0000C94A0000C94A00050
:1000B0000C94A0000C94A0000C94A0000C94A00040
:1000C0000C94A0000C94A0000C94A0000C94A00030
:1000D0000C94A0000C94A0000C94A0000C94A00020
:1000E0000C94A000A300930911241FBECFEFD1E20E
:1000F000DEBFCDBF00E00CBF13E0A0E0B2E0ECE358
:10010000F7E300E00BBF02C007900D92A233B107E6
:10011000D9F713E0A2E3B3E001C01D92AC34B107FC
:10012000E1F710E0C8EED0E004C02297FE010E9483
:10013000081AC43ED107C9F70E94AE000C949C1B5C
:100140000C94000008950F9382E393E060E040E098
:1001500020E000E00E9487090F9108950E9419098C
:1001600080E090E00895EF92FF920F931F937B0140
:100170008C0120E030E040E05FE40E945F048823CF
:100180008CF0C801B70120E030E040E05FE40E945D
:100190002B020E9478059B01AC012050304040406A
:1001A000504806C0C801B7010E9478059B01AC0108
:1001B000B901CA011F910F91FF90EF900895A0E03F
:1001C000B0E0E5EEF0E00C94CF19DC012B01FA0170
:1001D0009C91923008F439C1EB018881823008F497
:1001E00033C1943069F4843009F02FC111969C9189
:1001F00011978981981709F428C1AFE0B2E025C1B1
:10020000843009F421C18230A9F4923009F01DC173
:100210009A01AD0188E0EA010990AE01E901099275
:100220009E018150C1F7E201898111969C91892339
:10023000818308C1923009F407C112962D903C9039
:100240001397EB018A819B811496AD90BD90CD9060
:10025000DC901797EC80FD800E811F819101281B97
:10026000390BB90137FF04C066277727621B730B70
:10027000603271050CF061C0121613066CF537017F
:100280004801062E04C096948794779467940A9444
:10029000D2F721E030E040E050E004C0220F331FED
:1002A000441F551F6A95D2F72150304040405040BE
:1002B0002E213F21402351232115310541055105B0
:1002C00021F021E030E040E050E079018A01E628A9
:1002D000F728082919293CC0232BD1F1260E371EF7
:1002E00035014601062E04C096948794779467944E
:1002F0000A94D2F721E030E040E050E004C0220F41
:10030000331F441F551F6A95D2F72150304040409B
:1003100050402A213B214C215D2121153105410509
:10032000510521F021E030E040E050E059016A0140
:10033000A628B728C828D9280BC0821593052CF009
:100340001C01AA24BB24650103C0EE24FF248701FD
:1003500011969C91D20111968C91981709F445C081
:10036000992339F0A80197012A193B094C095D0925
:1003700006C0A60195012E193F09400B510B57FDF0
:1003800008C01182338222822483358346835783B7
:100390001DC081E081833382228288279927DC0176
:1003A000821B930BA40BB50B84839583A683B78321
:1003B0000DC0220F331F441F551F248335834683EE
:1003C000578382819381019793838283248135812E
:1003D00046815781DA01C9010197A109B1098F5FEF
:1003E0009F4FAF4FBF4328F30BC0918333822282CC
:1003F000EA0CFB1C0C1D1D1DE482F582068317838D
:1004000083E08083248135814681578157FF1AC05C
:10041000C901AA2797FDA095BA2F81709070A0708E
:10042000B0705695479537952795822B932BA42B23
:10043000B52B84839583A683B783828193810196AC
:1004400093838283DF0101C0D201CD01CDB7DEB736
:10045000E2E10C94EB19A0E2B0E0E1E3F2E00C94ED
:10046000DB1969837A838B839C832D833E834F833F
:100470005887E9E0EE2EF12CEC0EFD1ECE01019620
:10048000B7010E9469078E010F5E1F4FCE010596CE
:10049000B8010E9469078A8991E089278A8BC70180
:1004A000B801AE01475E5F4F0E94DF000E949406D4
:1004B000A096E6E00C94F719A0E2B0E0E2E6F2E0E4
:1004C0000C94DB1969837A838B839C832D833E8311
:1004D0004F835887F9E0EF2EF12CEC0EFD1ECE0174
:1004E0000196B7010E9469078E010F5E1F4FCE0172
:1004F0000596B8010E946907C701B801AE01475EC1
:100500005F4F0E94DF000E949406A096E6E00C94E4
:10051000F719A0E2B0E0EFE8F2E00C94CF1969839C
:100520007A838B839C832D833E834F835887CE01B0
:100530000196BE01675F7F4F0E946907CE01059655
:10054000BE016F5E7F4F0E9469079985923088F0E7
:1005500089898230C8F0943019F4823051F404C093
:10056000843029F4923081F48FE092E0C6C092305A
:1005700049F420E09A858A89981321E02A87CE01E0
:100580000996BBC0823049F420E09A858A89981385
:1005900021E02A8BCE014196B0C02D843E844F8449
:1005A00058886D887E888F88988CEE24FF24870178
:1005B000AA24BB24650140E050E060E070E0E0E088
:1005C000F0E0C10181709070892BE9F0E60CF71C16
:1005D000081D191D9A01AB012A0D3B1D4C1D5D1D07
:1005E00080E090E0A0E0B0E0E614F704080519050B
:1005F00020F481E090E0A0E0B0E0BA01A901480F4A
:10060000591F6A1F7B1FAA0CBB1CCC1CDD1C97FE4C
:1006100008C081E090E0A0E0B0E0A82AB92ACA2A88
:10062000DB2A3196E032F10549F0660C771C881C14
:10063000991C5694479437942794C3CFFA85EA8936
:100640002B893C898B859C85280F391F2E5F3F4F56
:1006500017C0CA0181709070892B61F016950795BB
:10066000F794E79480E090E0A0E0B0E8E82AF92A67
:100670000A2B1B2B76956795579547952F5F3F4F14
:1006800077FDE7CF0CC0440F551F661F771F17FD7E
:100690004160EE0CFF1C001F111F21503040403004
:1006A00090E0590790E0690790E4790760F32B8F99
:1006B0003C8FDB01CA018F779070A070B0708034DE
:1006C0009105A105B10561F447FD0AC0E114F104EB
:1006D0000105110529F0405C5F4F6F4F7F4F407857
:1006E0001A8EFE1711F081E08A8F4D8F5E8F6F8F0B
:1006F00078A383E0898FCE0149960E949406A09644
:10070000E2E10C94EB19A8E1B0E0E9E8F3E00C9425
:10071000D71969837A838B839C832D833E834F8390
:100720005887B9E0EB2EF12CEC0EFD1ECE010196A0
:10073000B7010E9469078E010F5E1F4FCE0105961B
:10074000B8010E9469072985223008F47EC03989E2
:10075000323010F4B8017CC08A859A8989278A874B
:10076000243011F0223031F4231709F06EC06FE00D
:1007700072E06EC0343039F41D861E861F86188ADA
:100780001C861B8604C0323021F484E08987B701BF
:100790005FC02B853C858B899C89281B390B3C8746
:1007A0002B87ED84FE840F851889AD88BE88CF889D
:1007B000D88CEA14FB040C051D0540F4EE0CFF1C5C
:1007C000001F111F215030403C872B8720E030E074
:1007D00040E050E080E090E0A0E0B0E460E070E055
:1007E000EA14FB040C051D0540F0282B392B4A2B7D
:1007F0005B2BEA18FB080C091D09B695A795979580
:100800008795EE0CFF1C001F111F6F5F7F4F6F312C
:10081000710531F7DA01C9018F779070A070B0705F
:1008200080349105A105B10561F427FD0AC0E114EA
:10083000F1040105110529F0205C3F4F4F4F5F4F38
:1008400020782D873E874F87588BBE01675F7F4F8B
:10085000CB010E9494066896EAE00C94F319A8E193
:10086000B0E0E5E3F4E00C94DB1969837A838B83D1
:100870009C832D833E834F83588789E0E82EF12C9B
:10088000EC0EFD1ECE010196B7010E9469078E0194
:100890000F5E1F4FCE010596B8010E94690789853A
:1008A000823040F08989823028F0C701B8010E9467
:1008B000E10701C08FEF6896E6E00C94F719A8E114
:1008C000B0E0E5E6F4E00C94DB1969837A838B836E
:1008D0009C832D833E834F83588789E0E82EF12C3B
:1008E000EC0EFD1ECE010196B7010E9469078E0134
:1008F0000F5E1F4FCE010596B8010E9469078985DA
:10090000823040F08989823028F0C701B8010E9406
:10091000E10701C08FEF6896E6E00C94F719A8E1B3
:10092000B0E0E5E9F4E00C94DB1969837A838B830A
:100930009C832D833E834F83588789E0E82EF12CDA
:10094000EC0EFD1ECE010196B7010E9469078E01D3
:100950000F5E1F4FCE010596B8010E946907898579
:10096000823040F08989823028F0C701B8010E94A6
:10097000E10701C081E06896E6E00C94F719A8E170
:10098000B0E0E5ECF4E00C94DB1969837A838B83A7
:100990009C832D833E834F83588789E0E82EF12C7A
:1009A000EC0EFD1ECE010196B7010E9469078E0173
:1009B0000F5E1F4FCE010596B8010E946907898519
:1009C000823040F08989823028F0C701B8010E9446
:1009D000E10701C081E06896E6E00C94F719A8E110
:1009E000B0E0E5EFF4E00C94DF1969837A838B8340
:1009F0009C832D833E834F835887CE010196BE0191
:100A0000675F7F4F0E946907CE010596BE016F5E4A
:100A10007F4F0E9469078985823028F020E030E00E
:100A20008989823010F421E030E0822F6896E2E07C
:100A30000C94FB19A8E0B0E0E0E2F5E00C94D819C2
:100A40009B01AC0183E08983DA01C9018827B7FDE6
:100A500083959927AA27BB27B82E21153105410573
:100A6000510519F482E089833AC08823A9F0203027
:100A700080E0380780E0480780E8580729F460E004
:100A800070E080E09FEC30C0EE24FF248701E21A82
:100A9000F30A040B150B02C079018A018EE1C82EFE
:100AA000D12CDC82CB82ED82FE820F831887C801B5
:100AB000B7010E94450601971816190684F4082EFE
:100AC00004C0EE0CFF1C001F111F0A94D2F7ED8228
:100AD000FE820F831887C81AD90ADC82CB82BA82B9
:100AE000CE0101960E9494062896E9E00C94F41930
:100AF000ACE0B0E0EEE7F5E00C94DF1969837A83AF
:100B00008B839C83CE010196BE016B5F7F4F0E9459
:100B100069078D81823061F1823050F1843021F497
:100B20008E81882351F12EC02F81388537FD20C05A
:100B30006E812F3131051CF06623F9F023C08EE160
:100B400090E0821B930B29853A854B855C8504C018
:100B500056954795379527958A95D2F76623B1F034
:100B600050954095309521953F4F4F4F5F4F0EC0A8
:100B700020E030E040E050E009C02FEF3FEF4FEFC2
:100B80005FE704C020E030E040E050E8B901CA016E
:100B90002C96E2E00C94FB19A8E0B0E0E2EDF5E061
:100BA0000C94D7197B018C016115710581059105A4
:100BB00019F482E0898360C083E089838EE1C82EC6
:100BC000D12CDC82CB82ED82FE820F831887C80194
:100BD000B7010E944506FC013197F7FF3BC0222771
:100BE00033272E1B3F0B57016801022E04C0D694F9
:100BF000C794B794A7940A94D2F740E050E060E01D
:100C000070E081E090E0A0E0B0E004C0880F991FA0
:100C1000AA1FBB1F2A95D2F70197A109B1098E21FE
:100C20009F21A023B1230097A105B10521F041E048
:100C300050E060E070E04A295B296C297D294D83F2
:100C40005E836F8378878EE190E08E1B9F0B9C8381
:100C50008B8312C0309781F00E2E04C0EE0CFF1C67
:100C6000001F111F0A94D2F7ED82FE820F831887AE
:100C7000CE1ADF0ADC82CB821A82CE0101960E9454
:100C800094062896EAE00C94F319EF92FF920F93E2
:100C90001F937B018C0180E0E81680E0F80681E07C
:100CA000080780E0180788F48FEFE816F1040105C3
:100CB000110531F028F088E090E0A0E0B0E017C026
:100CC00080E090E0A0E0B0E012C080E0E81680E0B4
:100CD000F80680E0080781E0180728F088E190E036
:100CE000A0E0B0E004C080E190E0A0E0B0E020E24D
:100CF00030E040E050E0281B390B4A0B5B0B04C08E
:100D000016950795F794E7948A95D2F7F701E95E6F
:100D1000FD4F8081281B310941095109C9011F91EB
:100D20000F91FF90EF900895DF92EF92FF920F9353
:100D30001F93FC01E480F58006811781D1808081BA
:100D4000823048F480E090E0A0E1B0E0E82AF92A9F
:100D50000A2B1B2BA5C0843009F49FC0823021F4DC
:100D6000EE24FF24870105C0E114F10401051105FB
:100D700019F4E0E0F0E096C0628173819FEF623881
:100D800079070CF05BC022E83FEF261B370B2A31B6
:100D900031052CF020E030E040E050E02AC0B801FE
:100DA000A701022E04C076956795579547950A943A
:100DB000D2F781E090E0A0E0B0E004C0880F991F76
:100DC000AA1FBB1F2A95D2F70197A109B1098E214D
:100DD0009F21A023B1230097A105B10521F081E057
:100DE00090E0A0E0B0E09A01AB01282B392B4A2B10
:100DF0005B2BDA01C9018F779070A070B0708034DE
:100E00009105A105B10539F427FF09C0205C3F4FCA
:100E10004F4F5F4F04C0215C3F4F4F4F5F4FE0E0AB
:100E2000F0E02030A0E03A07A0E04A07A0E45A072B
:100E300010F0E1E0F0E079018A0127C06038710527
:100E400064F5FB01E158FF4FD801C7018F7790701F
:100E5000A070B07080349105A105B10539F4E7FEAA
:100E60000DC080E490E0A0E0B0E004C08FE390E02B
:100E7000A0E0B0E0E80EF91E0A1F1B1F17FF05C017
:100E800016950795F794E794319687E016950795A0
:100E9000F794E7948A95D1F705C0EE24FF248701E3
:100EA000EFEFF0E06E2F679566276795902F9F779D
:100EB000D794DD24D7948E2F8695492F462B582F13
:100EC0005D29B701CA011F910F91FF90EF90DF904C
:100ED0000895FC01DB01408151812281622F6F77EF
:100EE00070E0221F2227221F9381892F880F822BD7
:100EF000282F30E0991F9927991F11969C931197DD
:100F000021153105A9F5411551056105710511F44A
:100F100082E037C082E89FEF13969C938E931297DE
:100F20009A01AB0167E0220F331F441F551F6A95DA
:100F3000D1F783E08C930DC0220F331F441F551F40
:100F400012968D919C911397019713969C938E9373
:100F50001297203080E0380780E0480780E4580787
:100F600058F314962D933D934D935C9317970895E2
:100F70002F3F310579F4411551056105710519F4CB
:100F800084E08C93089564FF03C081E08C9312C0C9
:100F90001C9210C02F57304013963C932E931297FB
:100FA00083E08C9387E0440F551F661F771F8A9557
:100FB000D1F7706414964D935D936D937C9317975E
:100FC00008951F93DC01FB019C91923008F447C007
:100FD0008081823008F443C0943051F411961C9102
:100FE000843099F58181682F70E0611B71093FC0E1
:100FF000843021F0923031F48230B9F1818188233C
:1010000089F12DC011961C9111978230F1F08181E8
:101010001817D9F412962D913C91139782819381E0
:101020008217930794F028173907BCF014968D9116
:101030009D910D90BC91A02D2481358146815781D1
:10104000281739074A075B0718F4112341F00AC033
:1010500082179307A407B50740F4112319F061E044
:1010600070E005C06FEF7FEF02C060E070E0CB0181
:101070001F9108951F920F920FB60F9211242F9374
:101080003F938F939F93AF93BF9380913C03909135
:101090003D03A0913E03B0913F0330914003019680
:1010A000A11DB11D232F2D5F2D3720F02D57019647
:1010B000A11DB11D2093400380933C0390933D03F9
:1010C000A0933E03B0933F0380913803909139037E
:1010D000A0913A03B0913B030196A11DB11D8093ED
:1010E000380390933903A0933A03B0933B03BF9125
:1010F000AF919F918F913F912F910F900FBE0F90C5
:101100001F9018958FB7F89420913C0330913D03C0
:1011100040913E0350913F038FBFB901CA0108952A
:101120009FB7F894209138033091390340913A03E6
:1011300050913B0386B5A89B06C08F3F21F02F5FDF
:101140003F4F4F4F5F4F9FBF542F432F322F2227C8
:10115000280F311D411D511D82E0220F331F441FF6
:10116000551F8A95D1F7B901CA0108959B01AC01B9
:101170007FB7F8948091380390913903A0913A0396
:10118000B0913B0366B5A89B05C06F3F19F001966F
:10119000A11DB11D7FBFBA2FA92F982F8827860FB9
:1011A000911DA11DB11D62E0880F991FAA1FBB1FD1
:1011B0006A95D1F7BC012DC0FFB7F8948091380330
:1011C00090913903A0913A03B0913B03E6B5A89BF7
:1011D00005C0EF3F19F00196A11DB11DFFBFBA2F49
:1011E000A92F982F88278E0F911DA11DB11DE2E018
:1011F000880F991FAA1FBB1FEA95D1F7861B970B73
:10120000885E9340C8F221503040404050406851C1
:101210007C4F211531054105510571F6089501975F
:1012200039F0880F991F880F991F02970197F1F7DE
:101230000895789484B5826084BD84B5816084BD4E
:1012400085B5826085BD85B5816085BDEEE6F0E03F
:10125000808181608083E1E8F0E01082808182609B
:101260008083808181608083E0E8F0E0808181601C
:101270008083E1EBF0E0808184608083E0EBF0E04C
:10128000808181608083E1E9F0E0808182608083F9
:10129000808181608083E0E9F0E0808181608083EB
:1012A000E1EAF0E0808182608083808181608083D8
:1012B000E0EAF0E0808181608083E1E2F1E080811A
:1012C00082608083808181608083E0E2F1E08081C0
:1012D00081608083EAE7F0E08081846080838081A0
:1012E0008260808380818160808380818068808348
:1012F0001092C10008950F93FC0181E293E0918365
:10130000808362834383248305830F9108950F9321
:10131000FC0181E293E09183808362834383248391
:1013200005830F91089581E293E0909342038093A7
:10133000410310924303109244031092450310920C
:10134000460308958F929F92AF92BF92CF92DF9201
:10135000EF92FF920F931F93CF93DF934C016B019A
:101360007C01AA24BB24C0E0D0E0C601F701628161
:101370004AE050E00E940B0C8C01C6016EE20E9414
:10138000C10A080F191FA00EB11E21960894E11C76
:10139000F11CC330D10549F7C601F40165814AE06B
:1013A00050E00E940B0C9501280F391FC901DF91F5
:1013B000CF911F910F91FF90EF90DF90CF90BF9052
:1013C000AF909F908F9008959C012E5F3F4FCB016F
:1013D000B90144E050E00E944B1A9C0180E0232BAD
:1013E00009F481E00895DF93CF9300D00F92CDB739
:1013F000DEB7FC0142835383648375830F900F90A3
:101400000F900F90CF91DF9108959C01FB01808197
:101410009181A281B381F90182839383A483B583EF
:10142000C90108959C01FB0181E293E0D9018D93EC
:101430009C9380819181A281B381F90182839383FE
:10144000A483B58308959C01FB0181E293E0D90157
:101450008D939C9380819181A281B381F9018283D4
:101460009383A483B5830895DF93CF9300D00F9225
:10147000CDB7DEB7FC0181E293E0918380834283A4
:101480005383648375830F900F900F900F90CF91CB
:10149000DF910895DF93CF9300D00F92CDB7DEB7E1
:1014A000FC0181E293E091838083428353836483D0
:1014B00075830F900F900F900F90CF91DF9108954B
:1014C000FC0181E293E09183808312821382148273
:1014D00015820895FC0181E293E09183808312825A
:1014E0001382148215820895CF92DF92EF92FF92B9
:1014F0000F931F93CF93DF937C016B018A01C0E0B0
:10150000D0E00FC0D6016D916D01D701ED91FC9136
:101510000190F081E02DC7011995C80FD91F015026
:1015200010400115110571F7CE01DF91CF911F9188
:101530000F91FF90EF90DF90CF900895EF92FF9280
:101540000F931F93CF93DF937C018B01C0E0D0E01A
:10155000F8010F5F1F4F6491662359F0D701ED9199
:10156000FC910190F081E02DC7011995C80FD91F9A
:10157000EFCFCE01DF91CF911F910F91FF90EF90B0
:101580000895DC01ED91FC910190F081E02D199519
:1015900008959C01DB01ED91FC910190F081E02D1B
:1015A000CB01B90119950895EF92FF920F931F9304
:1015B0008C01DC01ED91FC910190F081E02D6DE05A
:1015C00019957C01D801ED91FC910190F081E02DFD
:1015D000C8016AE019959C012E0D3F1DC9011F919C
:1015E0000F91FF90EF900895EF92FF920F931F934A
:1015F0007C010E949E0A8C01C7010E94D40A9C01B2
:10160000200F311FC9011F910F91FF90EF90089596
:10161000EF92FF920F931F937C01DC01ED91FC91FF
:101620000190F081E02D19958C01C7010E94D40A28
:10163000080F191FC8011F910F91FF90EF90089597
:10164000EF92FF920F931F937C01DB01ED91FC91D0
:101650000190F081E02DCB01B70119958C01C701F4
:101660000E94D40A080F191FC8011F910F91FF9003
:10167000EF900895CF93DF93EC016115710519F494
:1016800020E030E00FC0DB010D900020E9F711975A
:10169000A61BB70BE881F9810280F381E02DAD0133
:1016A00019959C01C901DF91CF9108954F925F92E6
:1016B0007F928F929F92AF92BF92CF92DF92EF92E2
:1016C000FF920F931F93DF93CF93CDB7DEB7A19710
:1016D0000FB6F894DEBF0FBECDBF2C01742ECB0128
:1016E000223008F42AE019A231E2C32ED12CCC0E0C
:1016F000DD1E822E9924AA24BB24672D752FA501F7
:1017000094010E94AD1979018A01C801B701A501B0
:1017100094010E948E19472D461B0894C108D108D8
:101720004A3014F4405D01C0495CF6014083E11485
:10173000F1040105110521F07E2C5F2DC801DDCFDC
:10174000C201B6010E943A0BA1960FB6F894DEBF13
:101750000FBECDBFCF91DF911F910F91FF90EF9002
:10176000DF90CF90BF90AF909F908F907F905F90D1
:101770004F900895DC012115310541F4ED91FC9164
:101780000190F081E02D642F199508950E94560B69
:101790000895EF92FF920F931F937C010E94BA0B62
:1017A0008C01C7010E94D40A9C01200F311FC9017E
:1017B0001F910F91FF90EF900895EF92FF920F937A
:1017C0001F939A017B0100E010E0B801A7010E947D
:1017D000BA0B1F910F91FF90EF900895CF92DF9277
:1017E000EF92FF920F931F936C017B019A0100E02F
:1017F00010E0B801A7010E94BA0B8C01C6010E943B
:10180000D40A080F191FC8011F910F91FF90EF9084
:10181000DF90CF900895EF92FF920F931F939A015C
:10182000E62EFF2400E010E0B801A7010E94BA0BE9
:101830001F910F91FF90EF900895CF92DF92EF925A
:10184000FF920F931F936C01E62E9A01FF2400E094
:1018500010E0B801A7010E94BA0B8C01C6010E94DA
:10186000D40A080F191FC8011F910F91FF90EF9024
:10187000DF90CF900895CF92DF92EF92FF920F9377
:101880001F93CF93DF93EC016A017B012115310592
:1018900041F4E881F9810190F081E02D642F1995E0
:1018A0001FC02A303105D1F477FF17C0E881F981D4
:1018B0000190F081E02D6DE219958C0144275527A8
:1018C000BA014C195D096E097F09CE012AE00E9418
:1018D000560B9801280F391F04C02AE00E94560BAE
:1018E0009C01C901DF91CF911F910F91FF90EF9063
:1018F000DF90CF900895EF92FF920F931F937C019A
:101900000E943B0C8C01C7010E94D40A9C01200F4D
:10191000311FC9011F910F91FF90EF900895EF9231
:10192000FF920F931F937B019A010027F7FC00950C
:10193000102FB801A7010E943B0C1F910F91FF903F
:10194000EF900895CF92DF92EF92FF920F931F9343
:101950006C017B019A010027F7FC0095102FB8015C
:10196000A7010E943B0C8C01C6010E94D40A080FFB
:10197000191FC8011F910F91FF90EF90DF90CF903A
:1019800008950E943A0B08957F928F929F92AF9292
:10199000BF92CF92DF92EF92FF920F931F93CF935C
:1019A000DF934C017A018B01722ECB01BA01A801A1
:1019B00097010E94EF04882321F0C40160E072E0E7
:1019C00021C0C0E0D0E057016801E894D7F8C60113
:1019D000B5012FEF3FEF4FE75FE70E94EF04882349
:1019E00051F4C601B5012FEF3FEF4FE75FE70E94CB
:1019F000BF04181614F0C1E0D0E0219739F0C401FB
:101A000064E072E00E943A0BEC0193C0C801B70198
:101A10002FEF3FEF4FE75FE40E942F04181654F0BA
:101A2000C801B7012FEF3FEF4FE75FEC0E948F0433
:101A3000882324F4C40168E072E0E4CFC801B70150
:101A400020E030E040E050E00E948F0487FD03C0BA
:101A5000C0E0D0E00EC0D401ED91FC910190F08186
:101A6000E02DC4016DE21995EC0117FB109517F9F3
:101A7000109520E030E040E05FE3DD240BC0CA01B8
:101A8000B90120E030E040E251E40E9483039B0171
:101A9000AC01D394D71498F3C801B7010E945C023B
:101AA0005B016C010E94B3007B018C01C401B80191
:101AB000A7012AE030E00E94BA0BC80FD91F772097
:101AC00039F0C4016CE072E00E943A0BC80FD91FD4
:101AD000C801B7010E94CC059B01AC01C601B5014C
:101AE0000E942B0224C020E030E040E251E40E943A
:101AF00089027B018C010E9478055B016C01CC247A
:101B0000B7FCC094DC2CC401B601A5012AE030E08A
:101B10000E943B0CC80FD91FC601B5010E941A05CF
:101B20009B01AC01C801B7010E942B027A94772077
:101B3000D1F6CE01DF91CF911F910F91FF90EF90E1
:101B4000DF90CF90BF90AF909F908F907F9008953F
:101B50000E94C40C0895EF92FF920F931F937C0193
:101B60000E94C40C8C01C7010E94D40A080F191FDF
:101B7000C8011F910F91FF90EF900895EF92FF928F
:101B80000F931F937C010E943A0B8C01C7010E94A6
:101B9000D40A080F191FC8011F910F91FF90EF90F1
:101BA0000895AF92BF92CF92DF92EF92FF920F9380
:101BB0001F93CF93DF935C016B01EE24FF24C0E001
:101BC000D0E010C0D501ED91FC9100811181C601DA
:101BD000BE010E944B0E682FC501F8011995E80E51
:101BE000F91E2196F60184819581C817D90750F313
:101BF000C701DF91CF911F910F91FF90EF90DF9080
:101C0000CF90BF90AF900895EF92FF920F931F93E4
:101C10007C010E94D10D8C01C7010E94D40A9C0155
:101C2000200F311FC9011F910F91FF90EF90089570
:101C3000FC01848195816817790748F40190F0814F
:101C4000E02D309721F0E60FF71F8081089580E0A6
:101C50000895FC01848195816817790730F401901B
:101C6000F081E02DE60FF71F40830895FC019B01F2
:101C7000848195816817790728F4608171816115E5
:101C8000710529F41092470367E473E002C0620F04
:101C9000731FCB010895FC01848195816817790732
:101CA00048F40190F081E02D309721F0E60FF71F06
:101CB0008081089580E00895FC010190F081E02D7D
:101CC000309729F40895861709F44083319680816E
:101CD0008823C9F70895FC0180819181009729F438
:101CE00020E030E040E050E004C00E940C1A9B016C
:101CF000AC01B901CA010895CF92DF92EF92FF9231
:101D00000F931F93CF93DF936C01DC01ED90FC9058
:101D10001197E114F10409F441C01496CD91DC91BE
:101D200015972097D9F1870102C00F5F1F4FF80167
:101D30008081992787FD90950E94331A892BA9F7F6
:101D40002197CE0DDF1D01C021978881992787FD3E
:101D500090950E94331A892B19F0C017D107A0F76C
:101D6000FE013196E01BF10BD6011596FC93EE9324
:101D700014972D913C912017310728F4C901B8011F
:101D8000AF010E94581AD601ED91FC91119714965B
:101D90008D919C911597E80FF91F1082DF91CF91DB
:101DA0001F910F91FF90EF90DF90CF900895CF9308
:101DB000DF93FC01C081D181209739F409C09927B4
:101DC00087FD90950E94431A899388818823B9F7EB
:101DD000DF91CF910895CF93DF93FC01C081D18132
:101DE000209739F409C0992787FD90950E943B1AE6
:101DF000899388818823B9F7DF91CF910895EF9275
:101E0000FF920F931F93CF93DF93FC01DB018617A3
:101E1000970739F12481358114968D919C911597FE
:101E20002817390701F5232BE1F0E080F180CD91EF
:101E3000DC9113C0992787FD90950E943B1A8C0175
:101E40008881992787FD90950E943B1A08171907EA
:101E500051F40894E11CF11C2196F701808188233C
:101E600049F781E001C080E0DF91CF911F910F9190
:101E7000FF90EF900895AF92BF92CF92DF92EF92D2
:101E8000FF920F931F93CF93DF93FC015B017A01C5
:101E9000DB0114962D913C9115972115310559F1CF
:101EA00084819581009739F18217930720F14817B3
:101EB000590720F07C010894E108F10800811181A4
:101EC000C801CFEFDFEF6801CE0CDF1C10C0F501B9
:101ED000608171810E94B61A9C01009771F0801B8D
:101EE000910BE816F90608F0EC01C9010196C81635
:101EF000D90668F702C0CFEFDFEFCE01DF91CF91B7
:101F00001F910F91FF90EF90DF90CF90BF90AF9017
:101F10000895FC01DB014481558114968D919C91BB
:101F20001597481B590BCF010E943B0F0895CF9383
:101F3000DF93FC01DB01848195814817590760F428
:101F4000C081D1816D917C91CE01840F951F0E943B
:101F5000B61A9C01009719F42FEF3FEF02C02C1B1B
:101F60003D0BC901DF91CF91089540E050E00E9400
:101F7000970F0895DF92EF92FF920F931F93CF93E5
:101F8000DF93EC018C819D8148175907C8F47A01D1
:101F90000894E11CF11CE881F981EE0DFF1DD08051
:101FA000108208811981772767FD7095C8010E940A
:101FB000AB1A9C010E0D1F1DF801D082009719F479
:101FC000EFEFFFEF05C088819981F901E81BF90B5C
:101FD000CF01DF91CF911F910F91FF90EF90DF9094
:101FE0000895FC0144815581415050400E94BA0F30
:101FF0000895CF93DF93FC01848195814817590799
:1020000068F4C081D181772767FD7095CE01840F78
:10201000951F0E94731A9C01009719F42FEF3FEF50
:1020200002C02C1B3D0BC901DF91CF91089540E008
:1020300050E00E94F90F08950F931F93CF93DF9301
:10204000FC018B0141155105F9F061157105E1F0B5
:10205000848195812817390718F0FB01108214C07C
:1020600041505040EC01C21BD30B4C175D0708F4E4
:10207000EA0160817181620F731FC801AE010E9485
:102080009C1AC00FD11F1882DF91CF911F910F9121
:102090000895FC01DB012481358114964D915C91FA
:1020A000159724173507A8F080819181009789F052
:1020B0006D917C916115710561F0241B350B820FC8
:1020C000931F0E947E1A9C0180E0232B19F481E06B
:1020D000089580E00895DC01FB0114968D919C9198
:1020E0001597892B31F461157105A9F090E0808175
:1020F00008C00D90BC91A02D6115710529F490E0E8
:102100008C91882349F407C0CD010E947E1A9C015E
:1021100090E0232B09F491E0892F0895CF93DF936A
:102120009C01FB01EC01A881B981109729F0608125
:10213000718161157105D1F4C081D181209759F069
:1021400084819581892B39F0888190E0222733277B
:10215000281B390B12C0109771F0F9018481958109
:10216000892B49F08C91282F30E007C0CD010E94C7
:102170007E1A9C0102C020E030E0C901DF91CF91BE
:1021800008950E948E10892F8095881F8827881FA8
:1021900008950E948E1020E0181619060CF021E018
:1021A000822F08950E948E1020E0181619060CF454
:1021B00021E0822F08950E948E10892F881F882782
:1021C000881F0895FC01DB012481358114968D91CF
:1021D0009C9115972817390711F020E007C0CF010F
:1021E0000E948E1020E0892B09F421E0822F0895AF
:1021F000FC01DB0114962D913C911597848195810A
:10220000821B930B84179507A0F080819181009722
:1022100081F06D917C916115710559F0840F951FC6
:10222000A9010E948E1A9C0180E0232B19F481E001
:10223000089580E00895FC01DB0124813581149626
:102240008D919C9115972817390710F480E0089517
:10225000CF0140E050E00E94F81008950F931F93C3
:10226000CF93DF93EC018B016F5F7F4F8881998162
:102270000E94AD18009711F480E005C0998388830F
:102280001B830A8381E0DF91CF911F910F91089505
:102290002F923F924F925F926F927F928F929F9276
:1022A000AF92BF92CF92DF92EF92FF920F931F9364
:1022B000CF93DF935C012B014A01DC0114960D9151
:1022C0001C9115970115110509F4D4C0FB01C480B8
:1022D000D580C114D10409F4CDC0DA0114966D90F3
:1022E0007C9015976C187D08FC01E080F1806114EA
:1022F000710491F01BC0D4016C9111967C911197DF
:1023000014964D915C9115978C2F0E94581AF401E8
:10231000E480F580EC0EFD1ED2016D917C91C70129
:102320000E94B61AEC01009731F7A4C077FE02C0F4
:1023300067012EC0FB0120803180E8013CC08E0186
:102340000E191F09C601B701A8010E94581A0C0DE9
:102350001D1DD4016C9111967C91119714964D918D
:102360005C911597C8010E94581AF401C480D58069
:10237000C00ED11ED2011496ED90FC901597EC0E74
:10238000FD1EF50184819581860D971D95838483BB
:10239000D2016D917C91C7010E94B61AEC010097A1
:1023A00071F6C601B7010E94871A64C07B01EC0C6C
:1023B000FD1CC60DD71DC701B1010E94B61ABC0194
:1023C0000097A1F7C017D10709F454C0F501828125
:1023D00093818C179D0708F044C0C501BE010E947F
:1023E0002E118823F1F546C0C501B201A9010E9452
:1023F0003B0FEC0197FD3EC0D5016D917C9111978B
:10240000F201848195818C0F9D1F680F791F1496AE
:102410004D915C911597481B590BCB01860D971D6B
:102420000E94611AD50114968D919C911597860D85
:10243000971D15969C938E931497ED91FC9111978F
:10244000E80FF91F10822D913C912C0F3D1FF401D4
:102450006081718144815581C9010E94581A9E0191
:1024600005C0D50114962D913C911597215030400F
:1024700037FFBACFDF91CF911F910F91FF90EF906F
:10248000DF90CF90BF90AF909F908F907F906F9094
:102490005F904F903F902F900895CF93DF93EC0182
:1024A00088819981892B29F08A819B8186179707DA
:1024B00060F4CE010E942E11882341F08C819D8111
:1024C000892B19F4E881F981108281E0DF91CF91A5
:1024D0000895EF92FF920F931F93CF93DF93EC0138
:1024E0007B016C817D81E114F104C1F0411551053E
:1024F00099F08A01060F171FB8010E944D12882318
:1025000069F0888199812C813D81820F931FB701E9
:102510000E94871A1D830C8381E001C080E0DF9157
:10252000CF911F910F91FF90EF900895EF92FF923E
:102530000F931F93DF93CF93CDB7DEB72B970FB6D3
:10254000F894DEBF0FBECDBF7C01CB01BA018E0176
:102550000F5F1F4FA8012AE030E00E943A1BF801EC
:1025600001900020E9F73197E01BF10BC701B8019A
:10257000AF010E9469122B960FB6F894DEBF0FBE12
:10258000CDBFCF91DF911F910F91FF90EF900895F4
:10259000EF92FF920F931F93DF93CF93CDB7DEB7E8
:1025A0002C970FB6F894DEBF0FBECDBF7C01CB01D8
:1025B000BA018E010F5F1F4FA8012AE030E00E9490
:1025C000F11AF80101900020E9F73197E01BF10BB7
:1025D000C701B801AF010E9469122C960FB6F8949A
:1025E000DEBF0FBECDBFCF91DF911F910F91FF9046
:1025F000EF900895EF92FF920F931F93DF93CF9385
:1026000000D000D0CDB7DEB77C01CB018E010F5FCB
:102610001F4FB8014AE050E00E945F1BF801019093
:102620000020E9F73197E01BF10BC701B801AF01BA
:102630000E94691226960FB6F894DEBF0FBECDBF7A
:10264000CF91DF911F910F91FF90EF900895EF923E
:10265000FF920F931F93DF93CF93CDB7DEB72797EA
:102660000FB6F894DEBF0FBECDBF7C01CB018E014B
:102670000F5F1F4FB8014AE050E00E94D01AF801E6
:1026800001900020E9F73197E01BF10BC701B80179
:10269000AF010E94691227960FB6F894DEBF0FBEF5
:1026A000CDBFCF91DF911F910F91FF90EF900895D3
:1026B000EF92FF920F931F93DF93CF9300D00F926F
:1026C000CDB7DEB77C01862F90E08E010F5F1F4FE4
:1026D000B8014AE050E00E94D01AF80101900020B1
:1026E000E9F73197E01BF10BC701B801AF010E9478
:1026F00069120F900F900F900F90CF91DF911F9163
:102700000F91FF90EF900895DF93CF930F920F9268
:10271000CDB7DEB769831A82BE016F5F7F4F41E09C
:1027200050E00E9469120F900F90CF91DF910895B1
:102730006115710511F480E00895DB010D90002012
:10274000E9F71197A61BB70BAD010E946912089516
:10275000FB0160817181448155810E946912089555
:10276000CF93DF93EC0188819981009711F00E944B
:102770001518198218821D821C821B821A82DF9111
:10278000CF9108950F931F93182F092F0E9496122F
:10279000882321F4812F902F0E94B013812F902F36
:1027A0001F910F9108950F931F93182F092F0E94C7
:1027B000C812882321F4812F902F0E94B013812FFB
:1027C000902F1F910F9108950F931F93182F092F8A
:1027D0000E94FA12882321F4812F902F0E94B013B7
:1027E000812F902F1F910F9108950F931F93182FF2
:1027F000092F0E942713882321F4812F902F0E94F4
:10280000B013812F902F1F910F9108950F931F9355
:10281000182F092F0E945813882321F4812F902FFD
:102820000E94B013812F902F1F910F9108950F9345
:102830001F93182F092F0E948413882321F4812FBE
:10284000902F0E94B013812F902F1F910F91089508
:102850000F931F93182F092F6115710561F0DB018C
:102860000D900020E9F71197A61BB70BAD010E9450
:102870006912882321F4812F902F0E94B013812F99
:10288000902F1F910F9108950F931F93182F092FC9
:10289000FB0160817181448155810E946912882306
:1028A00021F4812F902F0E94B013812F902F1F9120
:1028B0000F910895EF92FF920F931F93CF93DF93A1
:1028C000EC017B018A01BA010E944D12882321F498
:1028D000CE010E94B01307C01D830C8388819981AB
:1028E000B7010E94871ACE01DF91CF911F910F91FE
:1028F000FF90EF900895CF93DF93EC011982188237
:102900001B821A821D821C821E826115710551F084
:10291000DB010D900020E9F71197A61BB70BAD0165
:102920000E945A14DF91CF910895CF93DF93EC0169
:10293000198218821B821A821D821C821E826115D6
:10294000710551F0DB010D900020E9F71197A61BEE
:10295000B70BAD010E945A14DF91CF9108950F93E8
:102960001F93182F092F6115710559F0DB010D9088
:102970000020E9F71197A61BB70BAD010E945A146E
:1029800002C00E94B013812F902F1F910F910895C4
:10299000EF92FF920F931F93DF93CF93CDB7DEB7E4
:1029A000A1970FB6F894DEBF0FBECDBF8C01FC011E
:1029B0001182108213821282158214821682CB0138
:1029C000BA017E010894E11CF11CA70130E00E94CD
:1029D0003A1BC801B7010E94AF14A1960FB6F89434
:1029E000DEBF0FBECDBFCF91DF911F910F91FF9042
:1029F000EF900895EF92FF920F931F93DF93CF9381
:102A0000CDB7DEB7A1970FB6F894DEBF0FBECDBF2E
:102A10008C01FC01118210821382128215821482B1
:102A20001682CB01BA017E010894E11CF11CA701BA
:102A300030E00E943A1BC801B7010E94AF14A19672
:102A40000FB6F894DEBF0FBECDBFCF91DF911F91BF
:102A50000F91FF90EF900895EF92FF920F931F93C5
:102A6000DF93CF93CDB7DEB7A2970FB6F894DEBF52
:102A70000FBECDBF8C01FC01118210821382128225
:102A8000158214821682CB01BA017E010894E11CE2
:102A9000F11CA70130E00E94F11AC801B7010E94A1
:102AA000AF14A2960FB6F894DEBF0FBECDBFCF9184
:102AB000DF911F910F91FF90EF900895EF92FF9299
:102AC0000F931F93DF93CF93CDB7DEB7A2970FB6C7
:102AD000F894DEBF0FBECDBF8C01FC0111821082C5
:102AE00013821282158214821682CB01BA017E01F2
:102AF0000894E11CF11CA70130E00E94F11AC80102
:102B0000B7010E94AF14A2960FB6F894DEBF0FBEB5
:102B1000CDBFCF91DF911F910F91FF90EF9008955E
:102B2000EF92FF920F931F93DF93CF93CDB7DEB752
:102B300061970FB6F894DEBF0FBECDBF8C01CB01FD
:102B4000F801118210821382128215821482168279
:102B50007E010894E11CF11CB70150E00E945F1B4C
:102B6000C801B7010E94AF1461960FB6F894DEBF9A
:102B70000FBECDBFCF91DF911F910F91FF90EF90CE
:102B80000895EF92FF920F931F93DF93CF93CDB7EA
:102B9000DEB761970FB6F894DEBF0FBECDBF8C01D4
:102BA000CB01F801118210821382128215821482E5
:102BB00016827E010894E11CF11CB70150E00E94CE
:102BC0005F1BC801B7010E94AF1461960FB6F8945D
:102BD000DEBF0FBECDBFCF91DF911F910F91FF9050
:102BE000EF900895EF92FF920F931F93DF93CF938F
:102BF000CDB7DEB762970FB6F894DEBF0FBECDBF7C
:102C00008C01CB01F801118210821382128215828D
:102C1000148216827E010894E11CF11CB70150E079
:102C20000E94D01AC801B7010E94AF1462960FB675
:102C3000F894DEBF0FBECDBFCF91DF911F910F91F2
:102C4000FF90EF900895EF92FF920F931F93DF9301
:102C5000CF93CDB7DEB762970FB6F894DEBF0FBE45
:102C6000CDBF8C01CB01F801118210821382128238
:102C70001582148216827E010894E11CF11CB701B2
:102C800050E00E94D01AC801B7010E94AF146296AA
:102C90000FB6F894DEBF0FBECDBFCF91DF911F916D
:102CA0000F91FF90EF900895EF92FF920F931F9373
:102CB000DF93CF93CDB7DEB729970FB6F894DEBF79
:102CC0000FBECDBF8C01862FF801118210821382B6
:102CD000128215821482168290E07E010894E11C13
:102CE000F11CB70150E00E945F1BC801B7010E94B0
:102CF000AF1429960FB6F894DEBF0FBECDBFCF91AB
:102D0000DF911F910F91FF90EF900895EF92FF9246
:102D10000F931F93DF93CF93CDB7DEB729970FB6ED
:102D2000F894DEBF0FBECDBF8C01862FF801118253
:102D300010821382128215821482168290E07E0124
:102D40000894E11CF11CB70150E00E945F1BC80110
:102D5000B7010E94AF1429960FB6F894DEBF0FBEDC
:102D6000CDBFCF91DF911F910F91FF90EF9008950C
:102D7000DF93CF930F920F92CDB7DEB7FC01118294
:102D800010821382128215821482168269831A823B
:102D9000BE016F5F7F4F0E94AF140F900F90CF91D5
:102DA000DF910895DF93CF930F920F92CDB7DEB7E7
:102DB000FC01118210821382128215821482168203
:102DC00069831A82BE016F5F7F4F0E94AF140F901C
:102DD0000F90CF91DF910895BF92CF92DF92EF9243
:102DE000FF920F931F93CF93DF93082FB92E6B01A0
:102DF0007A01E9012417350710F4EA017901802FDF
:102E00009B2D6EE072E00E947B14D60114968D918A
:102E10009C9115978E159F05D0F08C179D0708F48F
:102E2000EC01D601ED91FC911197EC0FFD1F108183
:102E300010826D917C916E0D7F1D802F9B2D0E94C5
:102E4000AF14D601ED91FC91EC0FFD1F1083802F84
:102E50009B2DDF91CF911F910F91FF90EF90DF900D
:102E6000CF90BF9008950F931F938C01FB01248195
:102E700035810E94EC16C8011F910F910895CF93E0
:102E8000DF93EC01FB018617970761F06081718188
:102E90006115710529F0448155810E945A1402C0C0
:102EA0000E94B013CE01DF91CF910895FC011182F1
:102EB0001082138212821582148216820E943F179A
:102EC0000895FC01118210821382128215821482ED
:102ED00016820E943F170895FC01808191810E9413
:102EE00015180895FC01808191810E94151808959C
:102EF0000F931F93CF93DF93BC018230910510F4A1
:102F000062E070E0E0914A03F0914B0340E050E052
:102F1000A0E0B0E024C08081918186179707D0F0AF
:102F20008617970771F482819381109729F0139681
:102F30009C938E9312972CC090934B0380934A03DB
:102F400027C04115510519F08417950718F48D0114
:102F5000AC01EF01DF01828193819C01F90130977F
:102F6000D1F641155105F9F0CA01861B970B843043
:102F7000910580F48A819B810115110521F0F801EA
:102F80009383828304C090934B0380934A03FE0192
:102F9000329645C0FE01E80FF91F619371930297C5
:102FA000998388833CC08091480390914903892B81
:102FB00041F48091190390911A03909349038093EF
:102FC000480340911B0350911C034115510541F4E6
:102FD0004DB75EB78091170390911803481B590BAA
:102FE000209148033091490324173507B0F4CA01F2
:102FF000821B930B8617970780F0AB014E5F5F4FE4
:103000008417950750F0420F531F50934903409384
:103010004803F9016193719302C0E0E0F0E0CF0151
:10302000DF91CF911F910F910895CF93DF939C0172
:10303000009709F48FC0EC0122971B821A826091DD
:103040004A0370914B036115710581F48881998160
:10305000820F931F209148033091490328173907A5
:1030600039F5D0934903C093480374C0DB0140E0B5
:1030700050E0AC17BD0708F1BB83AA83FE01219184
:103080003191E20FF31FAE17BF0779F48D919C9138
:103090001197280F391F2E5F3F4F398328831296CF
:1030A0008D919C9113979B838A834115510571F4EF
:1030B000D0934B03C0934A034DC012968D919C91BF
:1030C0001397AD01009711F0DC01D3CFDA0113960D
:1030D000DC93CE931297FA0121913191E20FF31F05
:1030E000CE17DF0769F488819981280F391F2E5F79
:1030F0003F4FFA01318320838A819B8193838283AE
:10310000E0E0F0E0DB0112968D919C91139700971F
:1031100019F0BC01FD01F6CFAB014E5F5F4FDB0143
:103120008D919C91840F951F209148033091490304
:103130002817390779F4309729F410924B0310922D
:103140004A0302C0138212824250504050934903F6
:1031500040934803DF91CF9108956F927F928F92B1
:103160009F92AF92BF92CF92DF92EF92FF920F9316
:103170001F93CF93DF938C01009729F4CB010E941A
:1031800078178C01BBC08EEFE82E8FEFF82EE00E83
:10319000F11E4801860E971E8E149F0408F4ACC0E1
:1031A000D7014D915C91119746175707B8F04530FC
:1031B000510508F4A3C0CA0104978617970708F4BD
:1031C0009DC042505040461B570BF4014193519310
:1031D0006D937C93CF010E94151890C05B01A41AD7
:1031E000B50A3801640E751EA0914A03B0914B03D5
:1031F000E0E0F0E0CC24DD2447C0A615B705A9F532
:10320000CD91DC911197CE0102968A159B0568F14C
:10321000CE018A199B09029612962C911297139649
:103220003C91059758F0F40122833383CA19DB09D6
:10323000D183C083D7016D937C9309C04E5F5F4FEC
:103240004C0F5D1FF70151834083C901FC01C1147C
:10325000D10431F0D6011396FC93EE9312974EC031
:10326000F0934B03E0934A0349C08D919C911197D1
:10327000E817F90708F4FC016D0112968C9112977A
:1032800013969C919C01D901109709F0B6CF8091BB
:1032900048039091490386159705E9F4E617F70767
:1032A000D0F420911B0330911C032115310541F40A
:1032B0002DB73EB78091170390911803281B390B47
:1032C00082169306C8F49092490380924803F7014E
:1032D0007183608313C0CB010E947817EC010097C3
:1032E00059F0D7014D915C91B8010E94581AC8015C
:1032F0000E9415188E0102C000E010E0C801DF91A5
:10330000CF911F910F91FF90EF90DF90CF90BF90E2
:10331000AF909F908F907F906F900895629FD001A3
:10332000739FF001829FE00DF11D649FE00DF11D80
:10333000929FF00D839FF00D749FF00D659FF00D2F
:103340009927729FB00DE11DF91F639FB00DE11D1C
:10335000F91FBD01CF0111240895A1E21A2EAA1B65
:10336000BB1BFD010DC0AA1FBB1FEE1FFF1FA21735
:10337000B307E407F50720F0A21BB30BE40BF50B32
:10338000661F771F881F991F1A9469F760957095BB
:10339000809590959B01AC01BD01CF0108952F92BE
:1033A0003F924F925F926F927F928F929F92AF92D5
:1033B000BF92CF92DF92EF92FF920F931F93CF9322
:1033C000DF93CDB7DEB7CA1BDB0B0FB6F894DEBFB9
:1033D0000FBECDBF19942A88398848885F846E84CF
:1033E0007D848C849B84AA84B984C884DF80EE8029
:1033F000FD800C811B81AA81B981CE0FD11D0FB632
:10340000F894DEBF0FBECDBFED010895EE0FFF1F94
:103410000590F491E02D19941F93FC0199278827BA
:10342000BC01E89411911032E9F3193010F01E300C
:10343000C8F31B3251F01D3249F4689406C00E9453
:10344000251B610F711D811D911D119110531A30A3
:10345000B0F33EF490958095709561957F4F8F4FB6
:103460009F4F1F910895911140C1803219F08950EA
:103470008550D0F708959111089581548A5108F428
:10348000805E855A08959111089581568A5108F4F5
:10349000805285580895FB01DC0104C08D91019094
:1034A000801921F441505040C8F7881B990B0895AA
:1034B000FB01DC0102C001900D9241505040D8F751
:1034C00008956817790768F4FB01DC01E40FF51F24
:1034D000A40FB51F02C002900E9241505040D8F781
:1034E00008950C94581AFC018191861721F08823C5
:1034F000D9F7992708953197CF010895FB01DC0191
:103500008D91019080190110D9F3990B0895FB0159
:10351000DC0101900D920020E1F70895FB01DC0130
:103520004150504030F08D910190801919F40020E5
:10353000B9F7881B990B0895FB01DC0141505040FD
:1035400048F001900D920020C9F701C01D92415032
:103550005040E0F70895FC0181E090E001900616EC
:1035600009F4CF010020D1F701970895FB01519193
:103570005523A9F0BF01DC014D9145174111E1F739
:1035800059F4CD010190002049F04D9140154111B1
:10359000C9F3FB014111EFCF81E090E0019708955D
:1035A000FB019F01E8944230C4F04532B4F44A3044
:1035B00029F497FB1EF4909581959F4F642F7727F0
:1035C0000E94881B805D8A330CF0895D8193CB015A
:1035D0000097A1F716F45DE251931082C9010C9493
:1035E000781BFA01CF93FF93EF93223044F12532F9
:1035F00034F5C22FE894CA3049F497FB3EF4909515
:103600008095709561957F4F8F4F9F4F2C2F33275B
:1036100044275527FF93EF930E94AD19EF91FF9137
:10362000605D6A330CF0695D6193B901CA01605055
:1036300070408040904051F716F4CDE2C193108263
:103640008F919F91CF910C94781B592F482F372F32
:10365000262F660F771F881F991F660F771F881FF9
:10366000991F620F731F841F951F660F771F881F96
:10367000991F0895FA01CF93FF93EF932230CCF076
:103680002532BCF4C22F2C2F332744275527FF9314
:10369000EF930E94AD19EF91FF91605D6A330CF0DA
:1036A000695D6193B901CA016050704080409040EB
:1036B00051F710828F919F91CF910C94781BFB0151
:1036C0009F01423074F0453264F4642F77270E94E2
:1036D000881B805D8A330CF0895D8193CB01009754
:1036E000A1F71082C9010C94781B992788270895A7
:1036F000DC01FC01672F71917723E1F7329704C059
:103700007C916D9370836291AE17BF07C8F30895E3
:10371000AA1BBB1B51E107C0AA1FBB1FA617B707F7
:1037200010F0A61BB70B881F991F5A95A9F7809513
:0C3730009095BC01CD010895F894FFCFE6
:10373C006E616E00696E66006F7666002E0000008A
:10374C000000000000000000010202030303030458
:10375C000404040404040405050505050505050514
:10376C0005050505050505060606060606060606F4
:10377C0006060606060606060606060606060606DD
:10378C0006060606060606070707070707070707C4
:10379C0007070707070707070707070707070707AD
:1037AC00070707070707070707070707070707079D
:1037BC00070707070707070707070707070707078D
:1037CC000707070707070708080808080808080874
:1037DC00080808080808080808080808080808085D
:1037EC00080808080808080808080808080808084D
:1037FC00080808080808080808080808080808083D
:10380C00080808080808080808080808080808082C
:10381C00080808080808080808080808080808081C
:10382C00080808080808080808080808080808080C
:10383C0008080808080808080808080808080808FC
:10384C000808080808080880004C03000000000065
:10385C0000A20900000000A20000000000A20074F9
:02386C000A0050
:00000001FF
