:100000000C9406010C94F8110C9429120C945A12B9
:100010000C948B120C94BC120C94ED120C941E13C5
:100020000C944F130C9433010C9433010C94330152
:100030000C9433010C9433010C9433010C94330170
:100040000C9433010C9433010C9433010C94330160
:100050000C9433010C9433010C9433010C948013F1
:100060000C9433010C94EF160C9437180C94330154
:100070000C9433010C9433010C9433010C94330130
:100080000C9433010C9433010C9433010C94330120
:100090000C942F170C9476180C9433010C941402C2
:1000A0000C9433010C9433010C9433010C94330100
:1000B0000C9433010C9433010C9433010C943301F0
:1000C0000C9433010C9433010C9433010C946F178E
:1000D0000C94B5180C9433010C94AF170C94F418CD
:1000E0000C94330100002100240027002A002D0079
:1000F0003000330001010000040107010A01000083
:100100002200250028002B002E00310034000201BF
:100110000000050108010B0100002000230026005B
:1001200029002C002F00320000010000030106010D
:10013000090105050505070508080808020202026D
:100140000A0A080804040404010101010101010173
:100150000303030303030303040707070C0C0C0C3E
:100160000C0C0C0C02020202060606060606060627
:100170000B0B0B0B0B0B0B0B0102102020080810B4
:100180002040102040800201020108040201010207
:1001900004081020408080402010080402018004E0
:1001A000020180402010080402010804020101023B
:1001B0000408102040800102040810204080000044
:1001C000090A02080B0C0D070603040100000000D9
:1001D000000000000000000000000000000000001F
:1001E0000000000000000000000011100F000000DF
:1001F00000000000000000000000000000000000FF
:100200000000000066044405E01B2E1D11241FBEE3
:10021000CFEFD1E2DEBFCDBF00E00CBF13E0A0E026
:10022000B2E0E0EBFBE500E00BBF02C007900D92EF
:10023000A03AB107D9F71BBE19E0A0EAB3E001C0AC
:100240001D92A535B107E1F712E0CCE0D2E004C081
:100250002297FE010E94A32DC430D107C9F70E9446
:1002600059080C94D62D0C940000880F8093BA0086
:100270000895382F413210F040E042C08091A00331
:100280008823E1F791E09093A0032093A2038FEFDE
:1002900080930D041092C80341504093C9034F5FEF
:1002A0009093A1038091A103330F832B8093A1032B
:1002B0008091A303813041F41092A3038091A103A4
:1002C0008093BB0085EC01C085EE8093BC008091DB
:1002D000A0038130E1F38091C803841710F44091AA
:1002E000C80320E030E00AC0FB01E20FF31FD90190
:1002F000A855BC4F8C9180832F5F3F4F2417A0F3EC
:10030000842F08950F931F93582F122F413210F00E
:1003100081E04AC08091A0038823E1F782E08093C6
:10032000A0030093A2038FEF80930D041092C803E3
:100330004093C903A8EAB3E0FB0102C081918D9309
:100340008E2F861B8417D0F31092A1038091A103F6
:10035000550F852B8093A1038091A303813041F435
:100360001092A3038091A1038093BB0085EC01C090
:1003700085EE8093BC00112321F08091A003823090
:10038000E1F380910D048F3F11F480E00DC0809166
:100390000D04803211F482E007C080910D04803397
:1003A00011F084E001C083E01F910F910895482F60
:1003B000613210F081E008958091A003843011F043
:1003C00082E008956093EB03AAECB3E0842F9C01D4
:1003D000F90102C081918D938E2F841B8617D0F373
:1003E00080E008959093A7038093A60308959093C7
:1003F000A5038093A4030895882311F085EC01C020
:1004000085E88093BC00089585ED8093BC008091C1
:10041000BC0084FDFCCF1092A003089585EC80936E
:10042000BC001092A00308951F920F920FB60F9276
:100430000BB60F9211242F933F934F935F936F93BB
:100440007F938F939F93AF93BF93EF93FF9380918D
:10045000B90090E0887F90708036910509F4F2C071
:1004600081369105CCF58832910509F47BC089323B
:100470009105B4F48031910509F46FC08131910583
:100480003CF4009709F447C1089709F04FC165C0D3
:100490008831910509F466C0809709F047C182C090
:1004A0008034910509F4A4C08134910544F480336B
:1004B000910509F482C0C89709F038C189C0803518
:1004C000910509F489C08835910509F496C08834EE
:1004D000910509F02BC1AEC08839910509F413C10B
:1004E00089399105ECF48837910509F4ABC0893757
:1004F00091054CF48836910509F4A4C08037910524
:1005000009F014C19FC08838910509F4FCC08039F6
:10051000910509F49DC08038910509F007C198C084
:10052000803B910509F4C6C0813B91054CF4803AAB
:10053000910509F49FC0883A910509F0F7C0BAC047
:10054000803C910509F4E3C0883C910509F4DFC0C3
:10055000883B910509F0EAC0C2C08091A103809355
:10056000BB00CFC09091C8038091C903981768F46D
:100570009091C803E92FF0E0E855FC4F808180930B
:10058000BB009F5F9093C803BCC08091A2038823E7
:1005900009F44BC085ED8093BC008091BC0084FDC4
:1005A000FCCFC2C080E280930D0485ED8093BC0037
:1005B0008091BC0084FDFCCFB7C080E380930D0424
:1005C00085ED8093BC008091BC0084FDFCCFACC065
:1005D00088E380930D049BC08091C8039091BB0079
:1005E000E82FF0E0E855FC4F90838F5F8093C803BD
:1005F0009091C8038091C90382C08091C8039091F3
:10060000BB00E82FF0E0E855FC4F90838F5F8093AC
:10061000C8038091A203882341F085ED8093BC003C
:100620008091BC0084FDFCCF7FC081E08093A30358
:1006300084EA6EC085ED8093BC008091BC0084FD8F
:10064000FCCF72C083E08093A00310920C0459C0C9
:1006500080910C04803208F056C080910C04909177
:10066000BB00E82FF0E0E451FC4F90838F5F809354
:100670000C0447C080910C04803230F4E0910C04EB
:10068000F0E0E451FC4F108285ED8093BC00809136
:10069000BC0084FDFCCF1092A00360910C04E0919B
:1006A000A603F091A7038CEE93E070E019951092E9
:1006B0000C042DC084E08093A0031092EA031092F2
:1006C000EB03E091A403F091A50319958091EB034E
:1006D000882329F481E08093EB031092CA03909160
:1006E000EA03E92FF0E0E653FC4F80818093BB00E2
:1006F0009F5F9093EA039091EA038091EB03981730
:1007000010F485EC01C085E88093BC000FC085EC37
:100710008093BC0009C010920D0485ED8093BC004D
:100720008091BC0084FDFCCF1092A003FF91EF915B
:10073000BF91AF919F918F917F916F915F914F91F9
:100740003F912F910F900BBE0F900FBE0F901F90F7
:1007500018951092A00381E08093A2031092A30346
:1007600084E161E00E948B1685E161E00E948B16B6
:10077000E9EBF0E080818E7F808380818D7F8083B4
:1007800088E48093B80085E48093BC000895FC0160
:100790001382128288EE93E0A0E0B0E08483958318
:1007A000A683B78384E092E0918380830895FC015F
:1007B0001382128288EE93E0A0E0B0E084839583F8
:1007C000A683B78384E092E091838083089581E0DB
:1007D0008093530460933004109251041092520499
:1007E000089581E080935304609330041092510483
:1007F00010925204089520912F0430E080912E042D
:10080000281B3109C901089540912E0480912F04BD
:10081000481718F02FEF3FEF0AC0E42FF0E0E25F37
:10082000FB4F8081282F30E04F5F40932E04C90199
:100830000895E0912E0480912F04E81718F0EFEF4F
:10084000FFEF06C0F0E0E25FFB4F8081E82FF0E0B1
:10085000CF0108950895AC012091560430915704BA
:1008600021153105E1F090912E0480912F04981705
:10087000B0F090E008C0FA01EA0FFB1F8081A25F90
:10088000BB4F8C939F5FA92FB0E0A617B7079CF3CF
:1008900010922E0460932F04CB01F901199508954D
:1008A000E0915404F0915504309729F010925104CE
:1008B000109252041995089570935704609356044A
:1008C00008957093550460935404089510925B0446
:1008D00010925A0488EE93E0A0E0B0E080935C04AC
:1008E00090935D04A0935E04B0935F0484E092E073
:1008F00090935904809358040895CF92DF92EF9219
:10090000FF920F931F93CF93DF937C016B018A01BA
:10091000809153048823A1F0C0E0D0E00DC0D7013E
:10092000ED91FC91D601AC0FBD1F0190F081E02D3F
:10093000C7016C9119952196C017D10780F304C0A7
:10094000CB01642F0E94D701C801DF91CF911F9185
:100950000F91FF90EF90DF90CF900895DF93CF93AA
:100960000F92CDB7DEB7FC016983809153048823D1
:10097000C9F080915204803238F081E090E0938396
:10098000828320E030E015C080915104E82FF0E030
:10099000EF5CFB4F998190838F5F8093510480932C
:1009A000520405C0CE01019661E00E94D70121E00A
:1009B00030E0C9010F90CF91DF9108950F93062F7A
:1009C0008091300461E374E04091520421E00E9480
:1009D00082011092510410925204109253040F910C
:1009E000089561E00E94DE040895413208F040E27B
:1009F000862F6EE074E00E94390110922E048093DD
:100A00002F0408950E94F504089521E00E94F50442
:100A1000089521E00E94F504089510922E0410928A
:100A20002F0410925104109252040E94A9030895B9
:100A30000F931F938C01862F0E94350180E594E06F
:100A40000E94F7018BE294E00E94F201C8010E942B
:100A50000D051F910F9108950E941805089508959E
:100A60008091730490917404019690937404809320
:100A70007304089580917504909176040196909383
:100A800076048093750408950F9383E896E060E000
:100A900040E020E000E00E94221D0F910895EF92B7
:100AA000FF920F931F93DF93CF9300D000D0CDB769
:100AB000DEB78C017B0188E594E0B8010E94F10368
:100AC00088E594E062E30E94AE0488E594E00E9429
:100AD000F10488E594E0B8010E94F10388E594E010
:100AE000B80146E050E00E9405058E010F5F1F4FE0
:100AF00007C088E594E00E940404F80181938F0107
:100B000088E594E00E94FB03892B99F788E594E03F
:100B10000E94F1049A8180E0298130E0822B932B9E
:100B2000F701918380839C8180E02B8130E0822BD0
:100B3000932B938382839E8180E02D8130E0822BF2
:100B4000932B9583848326960FB6F894DEBF0FBE51
:100B5000CDBFCF91DF911F910F91FF90EF9008953E
:100B6000FF920F931F939C01F62E08E514E0C80135
:100B7000B9010E94F103C8016DE20E94AE04C801F0
:100B80006F2D0E94AE04C8010E94F1041F910F91C5
:100B9000FF90089582EC98E040E855E260E070E054
:100BA0000E94BB1988E594E00E940D0584E061E095
:100BB0000E94D81585E061E00E94D81586E061E0CA
:100BC0000E94D81587E061E00E94D8158DE061E0B1
:100BD0000E94D81586E160E00E94D81587E160E0A8
:100BE0000E94D81588E160E00E94D81589E160E094
:100BF0000E94D8158AE160E00E94D8158BE160E080
:100C00000E94D81583E060E375E042E050E00E9466
:100C1000501182E06AE375E042E050E00E9450111A
:100C200083E590E060E00E94B00583E590E060E13C
:100C30000E94B00583E590E068E00E94B00583E57E
:100C400090E06DE776E00E944F0508958AE10E94EA
:100C5000BE16892BC1F48BE10E94BE16892B99F434
:100C6000089585E060E00E948B1684E06FEF70E0ED
:100C70000E94F81487E060E00E948B1686E060E036
:100C800070E00E94F8148AE10E94BE16892B99F048
:100C9000E8CF85E061E00E948B1684E06FEF70E0A2
:100CA0000E94F81487E061E00E948B1686E061EEF6
:100CB00070E00E94F8148AE10E94BE16892B49F365
:100CC000E2CFCF92DF92EF92FF920F931F93CF93D9
:100CD000DF9327C087E061E00E948B1686E06FEF0C
:100CE00070E00E94F81486E10E94BE16892BC9F0BC
:100CF00087E10E94BE16892BA1F088E10E94BE16F2
:100D0000892B79F089E10E94BE16892B51F085E08C
:100D100060E00E948B1684E06FEF70E00E94F81490
:100D2000D9CF85E30E94BE16892BA1F210926504EB
:100D3000109264041092670410926604CEE3D2E02D
:100D400086E1F82EC0906404D09065040881198172
:100D50008F2D0E94BE1620E030E0892B11F421E097
:100D600030E0209FC001219F900D309F900D1124F5
:100D70008C0D9D1D9093650480936404C09066045F
:100D8000D0906704088519858F2D0E94BE1620E03B
:100D900030E0892B11F421E030E0209FC001219F39
:100DA000900D309F900D11248C0D9D1D9093670424
:100DB000809366042296F3942AE1F21619F686E1EE
:100DC0000E94BE16892B29F089E10E94BE16892B4C
:100DD00061F480E090E0A0E0B0E080936C04909338
:100DE0006D04A0936E04B0936F042091640430915D
:100DF0006504409166045091670442175307A4F5B7
:100E000080917004882371F01092700480E090E06B
:100E1000A0E0B0E080936C0490936D04A0936E0406
:100E2000B0936F04E0906C04F0906D0400916E0438
:100E300010916F04B901882777FD8095982F0E9443
:100E4000CF0CA80197010E94110A0E942D0D7093EA
:100E5000650460936404C801B7012DEC3CEC4CECD4
:100E60005DE30E94110A37C024173507E4F580912D
:100E70007004882379F481E08093700480E090E02E
:100E8000A0E0B0E080936C0490936D04A0936E0496
:100E9000B0936F04E0906C04F0906D0400916E04C8
:100EA00010916F04BA01882777FD8095982F0E94D2
:100EB000CF0CA80197010E94E0090E942D0D7093AC
:100EC000670460936604C801B7012DEC3CEC4CEC60
:100ED0005DE30E94E00960936C0470936D0480935D
:100EE0006E0490936F04E0906C04F0906D04009198
:100EF0006E0410916F04C801B70120E030E046ECA9
:100F000052E40E94E40B18162CF480E090E0A6EC6A
:100F1000B2E40EC0C801B70120E030E046EC52EC6C
:100F20000E94440C882364F480E090E0A6ECB2ECCC
:100F300080936C0490936D04A0936E04B0936F043F
:100F40008091640490916504853691051CF084E6D7
:100F500090E005C08C599F4F34F48CE99FEF90933B
:100F600065048093640480916604909167048536DB
:100F700091051CF084E690E005C08C599F4F34F435
:100F80008CE99FEF909367048093660482EC98E06D
:100F900060E272E00E945C206091640470916504DC
:100FA00082EC98E04AE050E00E943D2082EC98E01C
:100FB00069E272E00E945C206091660470916704AF
:100FC00082EC98E04AE050E00E943D2082EC98E0FC
:100FD00062E372E00E945C2040916C0450916D04C9
:100FE00060916E0470916F0482EC98E022E030E032
:100FF0000E94462180916404909165041816190698
:101000005CF485E061E00E948B166091640470914D
:10101000650465567F4F0EC0892B71F085E060E056
:101020000E948B166BE970E08091640490916504D6
:10103000681B790B84E007C085E061E00E948B1695
:1010400084E06BE970E00E94F8148091660490914E
:101050006704181619065CF487E061E00E948B169D
:10106000609166047091670465567F4F0EC0892BAE
:1010700071F087E060E00E948B166BE970E0809170
:10108000660490916704681B790B86E007C087E0CF
:1010900061E00E948B1686E06BE970E00E94F81414
:1010A000DF91CF911F910F91FF90EF90DF90CF9044
:1010B00008950E945F140E94CA0582EC98E061E0E6
:1010C00070E04AE050E00E942A200E946106FDCFB5
:1010D000EF92FF920F931F937B018C0120E030E091
:1010E00040E05FE40E94140C88238CF0C801B70133
:1010F00020E030E040E05FE40E94E0090E942D0D16
:101100009B01AC01205030404040504806C0C8010F
:10111000B7010E942D0D9B01AC01B901CA011F91BD
:101120000F91FF90EF900895A0E0B0E0EAE9F8E0B9
:101130000C946A2DDC012B01FA019C91923008F489
:1011400039C1EB018881823008F433C1943069F4ED
:10115000843009F02FC111969C91119789819817BD
:1011600009F428C1ADE5B2E025C1843009F421C1FC
:101170008230A9F4923009F01DC19A01AD0188E0D6
:10118000EA010990AE01E90109929E018150C1F77F
:10119000E201898111969C918923818308C1923053
:1011A00009F407C112962D903C901397EB018A81A8
:1011B0009B811496AD90BD90CD90DC901797EC80FC
:1011C000FD800E811F819101281B390BB90137FF6A
:1011D00004C066277727621B730B603271050CF021
:1011E00061C0121613066CF537014801062E04C0C3
:1011F00096948794779467940A94D2F721E030E02C
:1012000040E050E004C0220F331F441F551F6A9571
:10121000D2F721503040404050402E213F21402302
:101220005123211531054105510521F021E030E020
:1012300040E050E079018A01E628F72808291929B9
:101240003CC0232BD1F1260E371E35014601062E58
:1012500004C096948794779467940A94D2F721E017
:1012600030E040E050E004C0220F331F441F551F00
:101270006A95D2F721503040404050402A213B210E
:101280004C215D21211531054105510521F021E059
:1012900030E040E050E059016A01A628B728C8288C
:1012A000D9280BC0821593052CF01C01AA24BB245D
:1012B000650103C0EE24FF24870111969C91D201A1
:1012C00011968C91981709F445C0992339F0A8011B
:1012D00097012A193B094C095D0906C0A601950131
:1012E0002E193F09400B510B57FD08C01182338264
:1012F000228224833583468357831DC081E0818306
:101300003382228288279927DC01821B930BA40B4E
:10131000B50B84839583A683B7830DC0220F331F3B
:10132000441F551F248335834683578382819381CD
:101330000197938382832481358146815781DA0125
:10134000C9010197A109B1098F5F9F4FAF4FBF43FB
:1013500028F30BC0918333822282EA0CFB1C0C1D04
:101360001D1DE482F5820683178383E08083248138
:1013700035814681578157FF1AC0C901AA2797FDB9
:10138000A095BA2F81709070A070B0705695479557
:1013900037952795822B932BA42BB52B848395838C
:1013A000A683B78382819381019693838283DF0131
:1013B00001C0D201CD01CDB7DEB7E2E10C94862D9C
:1013C000A0E2B0E0E6EEF9E00C94762D69837A8332
:1013D0008B839C832D833E834F835887E9E0EE2ED9
:1013E000F12CEC0EFD1ECE010196B7010E941E0FDE
:1013F0008E010F5E1F4FCE010596B8010E941E0F91
:101400008A8991E089278A8BC701B801AE01475EBE
:101410005F4F0E9494080E94490EA096E6E00C944B
:10142000922DA0E2B0E0E7E1FAE00C94762D69831A
:101430007A838B839C832D833E834F835887F9E087
:10144000EF2EF12CEC0EFD1ECE010196B7010E948D
:101450001E0F8E010F5E1F4FCE010596B8010E9430
:101460001E0FC701B801AE01475E5F4F0E9494088E
:101470000E94490EA096E6E00C94922DA0E2B0E006
:10148000E4E4FAE00C946A2D69837A838B839C836D
:101490002D833E834F835887CE010196BE01675F3F
:1014A0007F4F0E941E0FCE010596BE016F5E7F4FDB
:1014B0000E941E0F9985923088F089898230C8F089
:1014C000943019F4823051F404C0843029F49230FD
:1014D00081F48DE592E0C6C0923049F420E09A850F
:1014E0008A89981321E02A87CE010996BBC08230F1
:1014F00049F420E09A858A89981321E02A8BCE014D
:101500004196B0C02D843E844F8458886D887E8873
:101510008F88988CEE24FF248701AA24BB246501C0
:1015200040E050E060E070E0E0E0F0E0C101817098
:101530009070892BE9F0E60CF71C081D191D9A0123
:10154000AB012A0D3B1D4C1D5D1D80E090E0A0E02D
:10155000B0E0E614F7040805190520F481E090E0F6
:10156000A0E0B0E0BA01A901480F591F6A1F7B1F14
:10157000AA0CBB1CCC1CDD1C97FE08C081E090E0CF
:10158000A0E0B0E0A82AB92ACA2ADB2A3196E032C4
:10159000F10549F0660C771C881C991C56944794F9
:1015A00037942794C3CFFA85EA892B893C898B85A8
:1015B0009C85280F391F2E5F3F4F17C0CA018170CD
:1015C0009070892B61F016950795F794E79480E069
:1015D00090E0A0E0B0E8E82AF92A0A2B1B2B7695C8
:1015E0006795579547952F5F3F4F77FDE7CF0CC025
:1015F000440F551F661F771F17FD4160EE0CFF1C3F
:10160000001F111F21503040403090E0590790E0FA
:10161000690790E4790760F32B8F3C8FDB01CA01E7
:101620008F779070A070B07080349105A105B105DE
:1016300061F447FD0AC0E114F1040105110529F028
:10164000405C5F4F6F4F7F4F40781A8EFE1711F04E
:1016500081E08A8F4D8F5E8F6F8F78A383E0898FB3
:10166000CE0149960E94490EA096E2E10C94862D87
:10167000A8E1B0E0EEE3FBE00C94722D69837A837D
:101680008B839C832D833E834F835887B9E0EB2E59
:10169000F12CEC0EFD1ECE010196B7010E941E0F2B
:1016A0008E010F5E1F4FCE010596B8010E941E0FDE
:1016B0002985223008F47EC03989323010F4B8010F
:1016C0007CC08A859A8989278A87243011F0223044
:1016D00031F4231709F06EC06DE572E06EC034304E
:1016E00039F41D861E861F86188A1C861B8604C038
:1016F000323021F484E08987B7015FC02B853C85B7
:101700008B899C89281B390B3C872B87ED84FE84B1
:101710000F851889AD88BE88CF88D88CEA14FB0461
:101720000C051D0540F4EE0CFF1C001F111F21507D
:1017300030403C872B8720E030E040E050E080E004
:1017400090E0A0E0B0E460E070E0EA14FB040C0577
:101750001D0540F0282B392B4A2B5B2BEA18FB0880
:101760000C091D09B695A79597958795EE0CFF1C5A
:10177000001F111F6F5F7F4F6F31710531F7DA0165
:10178000C9018F779070A070B07080349105A10569
:10179000B10561F427FD0AC0E114F104010511054A
:1017A00029F0205C3F4F4F4F5F4F20782D873E87B9
:1017B0004F87588BBE01675F7F4FCB010E94490E58
:1017C0006896EAE00C948E2DA8E1B0E0EAEEFBE02A
:1017D0000C94762D69837A838B839C832D833E833F
:1017E0004F83588789E0E82EF12CEC0EFD1ECE01C8
:1017F0000196B7010E941E0F8E010F5E1F4FCE0192
:101800000596B8010E941E0F8985823040F08989B3
:10181000823028F0C701B8010E94960F01C08FEFF7
:101820006896E6E00C94922DA8E1B0E0EAE1FCE0D5
:101830000C94762D69837A838B839C832D833E83DE
:101840004F83588789E0E82EF12CEC0EFD1ECE0167
:101850000196B7010E941E0F8E010F5E1F4FCE0131
:101860000596B8010E941E0F8985823040F0898953
:10187000823028F0C701B8010E94960F01C08FEF97
:101880006896E6E00C94922DA8E1B0E0EAE4FCE072
:101890000C94762D69837A838B839C832D833E837E
:1018A0004F83588789E0E82EF12CEC0EFD1ECE0107
:1018B0000196B7010E941E0F8E010F5E1F4FCE01D1
:1018C0000596B8010E941E0F8985823040F08989F3
:1018D000823028F0C701B8010E94960F01C081E054
:1018E0006896E6E00C94922DA8E1B0E0EAE7FCE00F
:1018F0000C94762D69837A838B839C832D833E831E
:101900004F83588789E0E82EF12CEC0EFD1ECE01A6
:101910000196B7010E941E0F8E010F5E1F4FCE0170
:101920000596B8010E941E0F8985823040F0898992
:10193000823028F0C701B8010E94960F01C081E0F3
:101940006896E6E00C94922DA8E1B0E0EAEAFCE0AB
:101950000C947A2D69837A838B839C832D833E83B9
:101960004F835887CE010196BE01675F7F4F0E946B
:101970001E0FCE010596BE016F5E7F4F0E941E0FA7
:101980008985823028F020E030E08989823010F4A7
:1019900021E030E0822F6896E2E00C94962DA8E0DA
:1019A000B0E0E5EDFCE00C94732D9B01AC0183E00D
:1019B0008983DA01C9018827B7FD83959927AA276A
:1019C000BB27B82E211531054105510519F482E0D8
:1019D00089833AC08823A9F0203080E0380780E06E
:1019E000480780E8580729F460E070E080E09FEC49
:1019F00030C0EE24FF248701E21AF30A040B150B12
:101A000002C079018A018EE1C82ED12CDC82CB8202
:101A1000ED82FE820F831887C801B7010E94FA0D7C
:101A200001971816190684F4082E04C0EE0CFF1C4A
:101A3000001F111F0A94D2F7ED82FE820F831887D0
:101A4000C81AD90ADC82CB82BA82CE0101960E94E2
:101A5000490E2896E9E00C948F2DACE0B0E0E3E36A
:101A6000FDE00C947A2D69837A838B839C83CE016D
:101A70000196BE016B5F7F4F0E941E0F8D818230E9
:101A800061F1823050F1843021F48E81882351F14C
:101A90002EC02F81388537FD20C06E812F31310552
:101AA0001CF06623F9F023C08EE190E0821B930BBB
:101AB00029853A854B855C8504C0569547953795B1
:101AC00027958A95D2F76623B1F0509540953095C9
:101AD00021953F4F4F4F5F4F0EC020E030E040E078
:101AE00050E009C02FEF3FEF4FEF5FE704C020E069
:101AF00030E040E050E8B901CA012C96E2E00C94D5
:101B0000962DA8E0B0E0E7E8FDE00C94722D7B0193
:101B10008C01611571058105910519F482E08983B5
:101B200060C083E089838EE1C82ED12CDC82CB8219
:101B3000ED82FE820F831887C801B7010E94FA0D5B
:101B4000FC013197F7FF3BC0222733272E1B3F0BA9
:101B500057016801022E04C0D694C794B794A79485
:101B60000A94D2F740E050E060E070E081E090E05D
:101B7000A0E0B0E004C0880F991FAA1FBB1F2A95E0
:101B8000D2F70197A109B1098E219F21A023B1238A
:101B90000097A105B10521F041E050E060E070E060
:101BA0004A295B296C297D294D835E836F83788761
:101BB0008EE190E08E1B9F0B9C838B8312C030972D
:101BC00081F00E2E04C0EE0CFF1C001F111F0A94A2
:101BD000D2F7ED82FE820F831887CE1ADF0ADC82ED
:101BE000CB821A82CE0101960E94490E2896EAE025
:101BF0000C948E2DEF92FF920F931F937B018C011B
:101C000080E0E81680E0F80681E0080780E0180729
:101C100088F48FEFE816F1040105110531F028F082
:101C200088E090E0A0E0B0E017C080E090E0A0E0A5
:101C3000B0E012C080E0E81680E0F80680E0080717
:101C400081E0180728F088E190E0A0E0B0E004C04F
:101C500080E190E0A0E0B0E020E230E040E050E041
:101C6000281B390B4A0B5B0B04C016950795F7949C
:101C7000E7948A95D2F7F701EB59FD4F8081281B35
:101C8000310941095109C9011F910F91FF90EF904E
:101C90000895DF92EF92FF920F931F93FC01E4806F
:101CA000F58006811781D1808081823048F480E000
:101CB00090E0A0E1B0E0E82AF92A0A2B1B2BA5C08E
:101CC000843009F49FC0823021F4EE24FF24870180
:101CD00005C0E114F1040105110519F4E0E0F0E09C
:101CE00096C0628173819FEF623879070CF05BC008
:101CF00022E83FEF261B370B2A3131052CF020E07C
:101D000030E040E050E02AC0B801A701022E04C034
:101D100076956795579547950A94D2F781E090E0BC
:101D2000A0E0B0E004C0880F991FAA1FBB1F2A952E
:101D3000D2F70197A109B1098E219F21A023B123D8
:101D40000097A105B10521F081E090E0A0E0B0E0AE
:101D50009A01AB01282B392B4A2B5B2BDA01C901E5
:101D60008F779070A070B07080349105A105B10597
:101D700039F427FF09C0205C3F4F4F4F5F4F04C02D
:101D8000215C3F4F4F4F5F4FE0E0F0E02030A0E09C
:101D90003A07A0E04A07A0E45A0710F0E1E0F0E0BB
:101DA00079018A0127C06038710564F5FB01E158AB
:101DB000FF4FD801C7018F779070A070B07080344A
:101DC0009105A105B10539F4E7FE0DC080E490E06E
:101DD000A0E0B0E004C08FE390E0A0E0B0E0E80E47
:101DE000F91E0A1F1B1F17FF05C016950795F794CC
:101DF000E794319687E016950795F794E7948A95CE
:101E0000D1F705C0EE24FF248701EFEFF0E06E2F3D
:101E1000679566276795902F9F77D794DD24D79491
:101E20008E2F8695492F462B582F5D29B701CA0161
:101E30001F910F91FF90EF90DF900895FC01DB015F
:101E4000408151812281622F6F7770E0221F22270B
:101E5000221F9381892F880F822B282F30E0991F12
:101E60009927991F11969C93119721153105A9F572
:101E7000411551056105710511F482E037C082E812
:101E80009FEF13969C938E9312979A01AB0167E094
:101E9000220F331F441F551F6A95D1F783E08C939F
:101EA0000DC0220F331F441F551F12968D919C9118
:101EB0001397019713969C938E931297203080E08E
:101EC000380780E0480780E4580758F314962D93AC
:101ED0003D934D935C93179708952F3F310579F407
:101EE000411551056105710519F484E08C9308953D
:101EF00064FF03C081E08C9312C01C9210C02F5766
:101F0000304013963C932E93129783E08C9387E096
:101F1000440F551F661F771F8A95D1F7706414967A
:101F20004D935D936D937C93179708951F93DC01F8
:101F3000FB019C91923008F447C08081823008F404
:101F400043C0943051F411961C91843099F58181ED
:101F5000682F70E0611B71093FC0843021F092301E
:101F600031F48230B9F18181882389F12DC0119635
:101F70001C9111978230F1F081811817D9F41296D3
:101F80002D913C911397828193818217930794F04E
:101F900028173907BCF014968D919D910D90BC9136
:101FA000A02D2481358146815781281739074A079A
:101FB0005B0718F4112341F00AC082179307A407A6
:101FC000B50740F4112319F061E070E005C06FEF30
:101FD0007FEF02C060E070E0CB011F9108951F9376
:101FE000FC0199278827BC01E89411911032E9F38C
:101FF000193010F01E30C8F31B3251F01D3249F475
:10200000689406C00E94F010610F711D811D911D22
:10201000119110531A30B0F33EF49095809570955D
:1020200061957F4F8F4F9F4F1F910895FB01DC01FA
:1020300004C08D910190801921F441505040C8F79F
:10204000881B990B0895FB01DC0102C001900D92E1
:1020500041505040D8F708956817790768F4FB019C
:10206000DC01E40FF51FA40FB51F02C002900E9211
:1020700041505040D8F708950C942310FC018191F1
:10208000861721F08823D9F7992708953197CF0132
:102090000895FB01DC018D91019080190110D9F3A5
:1020A000990B0895FB01DC0101900D920020E1F7EE
:1020B0000895FB01DC014150504030F08D910190BA
:1020C000801919F40020B9F7881B990B0895FB01BA
:1020D000DC014150504048F001900D920020C9F7BA
:1020E00001C01D9241505040E0F70895FC0181E08D
:1020F00090E00190061609F4CF010020D1F7019776
:102100000895FB0151915523A9F0BF01DC014D91C8
:1021100045174111E1F759F4CD010190002049F034
:102120004D9140154111C9F3FB014111EFCF81E001
:1021300090E001970895FB019F01E8944230C4F0BC
:102140004532B4F44A3029F497FB1EF490958195FA
:102150009F4F642F77270E94C22D805D8A330CF039
:10216000895D8193CB010097A1F716F45DE251934D
:102170001082C9010C944011FA01CF93FF93EF93A1
:10218000223044F1253234F5C22FE894CA3049F4A4
:1021900097FB3EF490958095709561957F4F8F4F9A
:1021A0009F4F2C2F332744275527FF93EF930E94EF
:1021B000482DEF91FF91605D6A330CF0695D61938A
:1021C000B901CA01605070408040904051F716F448
:1021D000CDE2C19310828F919F91CF910C944011C9
:1021E000592F482F372F262F660F771F881F991FCB
:1021F000660F771F881F991F620F731F841F951F1B
:10220000660F771F881F991F0895FA01CF93FF93D8
:10221000EF932230CCF02532BCF4C22F2C2F332781
:1022200044275527FF93EF930E94482DEF91FF918C
:10223000605D6A330CF0695D6193B901CA01605059
:1022400070408040904051F710828F919F91CF91C4
:102250000C944011FB019F01423074F0453264F44C
:10226000642F77270E94C22D805D8A330CF0895D30
:102270008193CB010097A1F71082C9010C94401102
:10228000DC01FC01672F71917723E1F7329704C0DD
:102290007C916D9370836291AE17BF07C8F3089568
:1022A000883008F078C0E82FF0E0EE0FFF1FE75706
:1022B000F94F718360838330D9F0843030F48130FA
:1022C00009F444C0823060F439C0853051F1853062
:1022D000D8F0863009F446C0873009F05CC04FC0A2
:1022E000809169008C7F842B80936900E89A08951F
:1022F00080916900440F551F440F551F837F842B25
:1023000080936900E99A08958091690074E0440F10
:10231000551F7A95E1F78F7C842B80936900EA9AA8
:1023200008958091690066E0440F551F6A95E1F7B2
:102330008F73842B80936900EB9A089580916A00D3
:102340008C7F842B80936A00EC9A089580916A00B8
:10235000440F551F440F551F837F842B80936A00C1
:10236000ED9A089580916A0024E0440F551F2A9544
:10237000E1F78F7C842B80936A00EE9A0895809118
:102380006A0096E0440F551F9A95E1F78F73842BEE
:1023900080936A00EF9A0895883048F5833091F071
:1023A000843028F48130B1F0823050F411C085308F
:1023B00069F0853048F0863079F0873081F40EC0BE
:1023C000E8980DC0E9980BC0EA9809C0EB9807C0DF
:1023D000EC9805C0ED9803C0EE9801C0EF98E82F87
:1023E000F0E0EE0FFF1FE757F94F118210820895BA
:1023F0001F920F920FB60F920BB60F9211242F93CC
:102400003F934F935F936F937F938F939F93AF937C
:10241000BF93EF93FF9380918D0690918E06892B49
:1024200029F0E0918D06F0918E061995FF91EF91BC
:10243000BF91AF919F918F917F916F915F914F91DC
:102440003F912F910F900BBE0F900FBE0F901F90DA
:1024500018951F920F920FB60F920BB60F92112480
:102460002F933F934F935F936F937F938F939F939C
:10247000AF93BF93EF93FF9380918F069091900657
:10248000892B29F0E0918F06F09190061995FF9124
:10249000EF91BF91AF919F918F917F916F915F91DC
:1024A0004F913F912F910F900BBE0F900FBE0F9049
:1024B0001F9018951F920F920FB60F920BB60F92A6
:1024C00011242F933F934F935F936F937F938F9339
:1024D0009F93AF93BF93EF93FF9380919106909159
:1024E0009206892B29F0E0919106F09192061995B8
:1024F000FF91EF91BF91AF919F918F917F916F91DC
:102500005F914F913F912F910F900BBE0F900FBE97
:102510000F901F9018951F920F920FB60F920BB647
:102520000F9211242F933F934F935F936F937F9359
:102530008F939F93AF93BF93EF93FF9380919306F5
:1025400090919406892B29F0E0919306F0919406DE
:102550001995FF91EF91BF91AF919F918F917F91CD
:102560006F915F914F913F912F910F900BBE0F9004
:102570000FBE0F901F9018951F920F920FB60F92DB
:102580000BB60F9211242F933F934F935F936F934A
:102590007F938F939F93AF93BF93EF93FF9380911C
:1025A000890690918A06892B29F0E0918906F0919D
:1025B0008A061995FF91EF91BF91AF919F918F91ED
:1025C0007F916F915F914F913F912F910F900BBE33
:1025D0000F900FBE0F901F9018951F920F920FB67D
:1025E0000F920BB60F9211242F933F934F935F934B
:1025F0006F937F938F939F93AF93BF93EF93FF93CB
:1026000080918B0690918C06892B29F0E0918B06A6
:10261000F0918C061995FF91EF91BF91AF919F9129
:102620008F917F916F915F914F913F912F910F907B
:102630000BBE0F900FBE0F901F9018951F920F9218
:102640000FB60F920BB60F9211242F933F934F9317
:102650005F936F937F938F939F93AF93BF93EF930A
:10266000FF938091950690919606892B29F0E09131
:102670009506F09196061995FF91EF91BF91AF9154
:102680009F918F917F916F915F914F913F912F918A
:102690000F900BBE0F900FBE0F901F9018951F92BA
:1026A0000F920FB60F920BB60F9211242F933F93F8
:1026B0004F935F936F937F938F939F93AF93BF934A
:1026C000EF93FF938091970690919806892B29F0BC
:1026D000E0919706F09198061995FF91EF91BF91BF
:1026E000AF919F918F917F916F915F914F913F91AA
:1026F0002F910F900BBE0F900FBE0F901F9018954B
:102700001F920F920FB60F9211242F933F938F9326
:102710009F93AF93BF9380919D0690919E06A09149
:102720009F06B091A0063091A1060196A11DB11D92
:10273000232F2D5F2D3720F02D570196A11DB11DA0
:102740002093A10680939D0690939E06A0939F06DA
:10275000B093A0068091990690919A06A0919B064D
:10276000B0919C060196A11DB11D8093990690938E
:102770009A06A0939B06B0939C06BF91AF919F9140
:102780008F913F912F910F900FBE0F901F90189532
:102790008FB7F89420919D0630919E0640919F0638
:1027A0005091A0068FBFB901CA0108959FB7F89450
:1027B0002091990630919A0640919B0650919C0673
:1027C00086B5A89B06C08F3F21F02F5F3F4F4F4F2C
:1027D0005F4F9FBF542F432F322F2227280F311DC9
:1027E000411D511D82E0220F331F441F551F8A9542
:1027F000D1F7B901CA0108959B01AC017FB7F894E4
:102800008091990690919A06A0919B06B0919C06A2
:1028100066B5A89B05C06F3F19F00196A11DB11DBB
:102820007FBFBA2FA92F982F8827860F911DA11D32
:10283000B11D62E0880F991FAA1FBB1F6A95D1F7CF
:10284000BC012DC0FFB7F8948091990690919A062B
:10285000A0919B06B0919C06E6B5A89B05C0EF3FF2
:1028600019F00196A11DB11DFFBFBA2FA92F982FF6
:1028700088278E0F911DA11DB11DE2E0880F991FC1
:10288000AA1FBB1FEA95D1F7861B970B885E934062
:10289000C8F2215030404040504068517C4F2115D3
:1028A00031054105510571F60895019739F0880FFA
:1028B000991F880F991F02970197F1F7089578944F
:1028C00084B5826084BD84B5816084BD85B5826035
:1028D00085BD85B5816085BDEEE6F0E080818160D3
:1028E0008083E1E8F0E010828081826080838081D3
:1028F00081608083E0E8F0E0808181608083E1EBAB
:10290000F0E0808184608083E0EBF0E08081816092
:102910008083E1E9F0E08081826080838081816052
:102920008083E0E9F0E0808181608083E1EAF0E08B
:10293000808182608083808181608083E0EAF0E032
:10294000808181608083E1E2F1E080818260808328
:10295000808181608083E0E2F1E08081816080831A
:10296000EAE7F0E0808184608083808182608083F8
:102970008081816080838081806880831092C10023
:102980000895809365030895382F863308F03653F1
:1029900020917B00832F86958695869590E08170A7
:1029A000907043E0880F991F4A95E1F7277F282B05
:1029B00020937B003770809165038295880F880F84
:1029C000807C832B80937C0080917A00806480934C
:1029D0007A0080917A0086FDFCCF209178004091AA
:1029E0007900942F80E030E0282B392BC90108951D
:1029F0001F93CF93DF93182FEB0161E00E94D8154E
:102A0000209709F4CAC0CF3FD10509F4C9C0E12F0E
:102A1000F0E0E254FE4F8491893009F466C08A30B8
:102A2000B0F48430F1F1853040F4823059F18330D4
:102A300070F5813009F0AEC020C0873009F443C082
:102A4000883008F048C0863009F0A4C034C08D300A
:102A500009F478C08E3038F48B3009F45AC08C30C9
:102A600008F066C04CC0803109F480C0813109F49F
:102A700087C08F3009F08EC06FC084B5806884BD78
:102A8000C7BD92C084B5806284BDC8BD8DC0809131
:102A90008000806880938000D0938900C093880074
:102AA00083C080918000806280938000D0938B00EF
:102AB000C0938A0079C08091B00080688093B00094
:102AC000C093B30071C08091B00080628093B00069
:102AD000C093B40069C0809190008068809390009A
:102AE000D0939900C09398005FC08091900080625D
:102AF00080939000D0939B00C0939A0055C0809122
:102B00009000886080939000D0939D00C0939C00BB
:102B10004BC08091A00080688093A0008091A000AD
:102B20008F7B8093A000D093A900C093A8003CC0E5
:102B30008091A00080628093A000D093AB00C093EE
:102B4000AA0032C08091A00088608093A000D0933A
:102B5000AD00C093AC0028C08091200180688093B4
:102B60002001D0932901C09328011EC0809120012B
:102B7000806280932001D0932B01C0932A0114C05E
:102B800080912001886080932001D0932D01C09313
:102B90002C010AC0C038D1051CF4812F60E002C0AE
:102BA000812F61E00E948B16DF91CF911F910895D4
:102BB000CF93DF93482F50E0CA0188589E4FFC0105
:102BC00034914E5C5E4FFA018491882369F190E064
:102BD000880F991FFC01EC51FF4FA591B491FC01A6
:102BE000E250FF4FC591D491662351F42FB7F8946A
:102BF0008C91932F909589238C93888189230BC086
:102C0000623061F42FB7F8948C91932F90958923BB
:102C10008C938881832B88832FBF06C09FB7F8943D
:102C20008C91832B8C939FBFDF91CF910895893036
:102C300009F449C08A30A0F4843051F1853040F461
:102C4000823079F1833000F5813009F063C026C00D
:102C5000873079F1883098F5863009F05BC025C05F
:102C60008D3009F442C08E3028F48B30B1F18C30B5
:102C7000C0F52DC0803109F442C0813109F445C04E
:102C80008F3009F047C037C0809180008F7703C034
:102C9000809180008F7D80938000089584B58F7728
:102CA00002C084B58F7D84BD08958091B0008F7778
:102CB00003C08091B0008F7D8093B0000895809113
:102CC00090008F7707C0809190008F7D03C0809126
:102CD0009000877F8093900008958091A0008F7767
:102CE00007C08091A0008F7D03C08091A000877FE6
:102CF0008093A0000895809120018F7703C0809178
:102D000020018F7D80932001089580912001877F8D
:102D1000809320010895FF920F931F93F62E482F62
:102D200050E0CA0182549E4FFC012491CA01885888
:102D30009E4FFC0114914E5C5E4FFA0104910023FA
:102D4000C9F0222319F0822F0E941716E02FF0E01D
:102D5000EE0FFF1FE250FF4FA591B4919FB7F8947B
:102D6000FF2021F48C911095812302C08C91812B3E
:102D70008C939FBF1F910F91FF9008950F931F9306
:102D8000482F50E0CA0182549E4FFC012491CA0191
:102D900088589E4FFC0104914E5C5E4FFA011491DD
:102DA000112319F420E030E015C0222319F0822FFE
:102DB0000E941716812F90E0880F991F885E9E4F02
:102DC000FC01A591B4918C9120E030E0802311F0BA
:102DD00021E030E0C9011F910F91089508951F92DD
:102DE0000F920FB60F920BB60F9211242F933F93B1
:102DF0004F938F939F93EF93FF938091C00082FD39
:102E00001DC04091C6002091E2063091E3062F5F7D
:102E10003F4F2F7330708091E4069091E50628179C
:102E2000390771F0E091E206F091E306EE55F94FB3
:102E300040833093E3062093E20602C08091C600EF
:102E4000FF91EF919F918F914F913F912F910F9013
:102E50000BBE0F900FBE0F901F90189508951F92F4
:102E60000F920FB60F920BB60F9211242F933F9330
:102E70004F938F939F93EF93FF938091C80082FDB0
:102E80001DC04091CE0020916A0730916B072F5FE3
:102E90003F4F2F73307080916C0790916D0728170A
:102EA000390771F0E0916A07F0916B07E65DF84F22
:102EB000408330936B0720936A0702C08091CE0055
:102EC000FF91EF919F918F914F913F912F910F9093
:102ED0000BBE0F900FBE0F901F90189508951F9274
:102EE0000F920FB60F920BB60F9211242F933F93B0
:102EF0004F938F939F93EF93FF938091D00082FD28
:102F00001DC04091D6002091F2073091F3072F5F4A
:102F10003F4F2F7330708091F4079091F507281779
:102F2000390771F0E091F207F091F307EE54F84F92
:102F300040833093F3072093F20702C08091D600BC
:102F4000FF91EF919F918F914F913F912F910F9012
:102F50000BBE0F900FBE0F901F90189508951F92F3
:102F60000F920FB60F920BB60F9211242F933F932F
:102F70004F938F939F93EF93FF938091300182FD46
:102F80001DC04091360120917A0830917B082F5F57
:102F90003F4F2F73307080917C0890917D082817E7
:102FA000390771F0E0917A08F0917B08E65CF74F01
:102FB000408330937B0820937A0802C080913601C9
:102FC000FF91EF919F918F914F913F912F910F9092
:102FD0000BBE0F900FBE0F901F901895E091CE087A
:102FE000F091CF08E05CFF4F819191912081318178
:102FF000821B930B8F739070892B11F00E94EE1639
:10300000E091F008F091F108E05CFF4F819191911F
:1030100020813181821B930B8F739070892B11F06B
:103020000E942E17E0911209F0911309E05CFF4F06
:103030008191919120813181821B930B8F739070CC
:10304000892B11F00E946E17E0913409F091350937
:10305000E05CFF4F8191919120813181821B930B24
:103060008F739070892B11F00E94AE1708951F92F4
:103070000F920FB60F920BB60F9211242F933F931E
:103080008F939F93EF93FF9320912607309127070B
:1030900080912807909129072817390731F48091EA
:1030A000C1008F7D8093C10014C0E0912807F0918A
:1030B0002907EA51F94F208180912807909129072B
:1030C00001968F739070909329078093280720931F
:1030D000C600FF91EF919F918F913F912F910F909B
:1030E0000BBE0F900FBE0F901F9018951F920F925E
:1030F0000FB60F920BB60F9211242F933F938F931D
:103100009F93EF93FF932091AE073091AF0780918B
:10311000B0079091B1072817390731F48091C900A1
:103120008F7D8093C90014C0E091B007F091B10782
:10313000E259F84F20818091B0079091B107019634
:103140008F7390709093B1078093B0072093CE0057
:10315000FF91EF919F918F913F912F910F900BBE17
:103160000F900FBE0F901F9018951F920F920FB6E1
:103170000F920BB60F9211242F933F938F939F932F
:10318000EF93FF93209136083091370880913808EB
:10319000909139082817390731F48091D1008F7D3B
:1031A0008093D10014C0E0913808F0913908EA50BA
:1031B000F84F2081809138089091390801968F73DB
:1031C000907090933908809338082093D600FF912F
:1031D000EF919F918F913F912F910F900BBE0F9088
:1031E0000FBE0F901F9018951F920F920FB60F925F
:1031F0000BB60F9211242F933F938F939F93EF93CE
:10320000FF932091BE083091BF088091C008909133
:10321000C1082817390731F4809131018F7D8093DF
:10322000310114C0E091C008F091C108E258F74F95
:1032300020818091C0089091C10801968F73907091
:103240009093C1088093C00820933601FF91EF91BD
:103250009F918F913F912F910F900BBE0F900FBEBA
:103260000F901F9018958F929F92AF92BF92CF921E
:10327000DF92EF92FF920F931F93DF93CF93CDB71F
:10328000DEB7FC011382128288EE93E0A0E0B0E08A
:1032900084839583A683B78380E793E091838083BB
:1032A0007587648757874687318B208B138B028BFA
:1032B000F58AE48AD78AC68AB18EA08E938E828ED2
:1032C0008889848F8989858F8A89868F8B89878F62
:1032D0008C8980A3CF91DF911F910F91FF90EF9088
:1032E000DF90CF90BF90AF909F908F9008958F9276
:1032F0009F92AF92BF92CF92DF92EF92FF920F9385
:103300001F93DF93CF93CDB7DEB7FC0113821282F8
:1033100088EE93E0A0E0B0E084839583A683B78332
:1033200080E793E09183808375876487578746871A
:10333000318B208B138B028BF58AE48AD78AC68A5D
:10334000B18EA08E938E828E8889848F8989858F95
:103350008A89868F8B89878F8C8980A3CF91DF9113
:103360001F910F91FF90EF90DF90CF90BF90AF90A3
:103370009F908F900895AF92BF92DF92EF92FF924D
:103380000F931F93CF93DF93EC017A018B01DD2420
:10339000403081EE580780E0680780E0780711F040
:1033A000DD24D39491E0A92EB12CEC89FD89DD2098
:1033B00069F0C50108A002C0880F991F0A94E2F7BE
:1033C000808360E079E08DE390E005C0108260E8E2
:1033D00074E88EE190E0A80197010E94482D2150E9
:1033E000304040405040569547953795279580E1AD
:1033F0002030380720F0DD2011F0DD24D6CFE88919
:10340000F9893083EA89FB89208319A2EE89FF8933
:10341000408121E030E0C9010C8C02C0880F991F67
:103420000A94E2F7482B4083EE89FF894081C90165
:103430000D8C02C0880F991F0A94E2F7482B408335
:10344000EE89FF894081C9010E8C02C0880F991F47
:103450000A94E2F7482B4083EE89FF8980810F8C24
:1034600002C0220F331F0A94E2F7209528232083FD
:10347000DF91CF911F910F91FF90EF90DF90BF9060
:10348000AF900895AF92BF92CF92DF92EF92FF92EA
:103490000F931F93CF93DF93EC017A018B01C22E20
:1034A000DD24403081EE580780E0680780E078072F
:1034B00011F0DD24D39471E0A72EB12CEC89FD89A5
:1034C000DD2069F0C50108A002C0880F991F0A9489
:1034D000E2F7808360E079E08DE390E005C0108240
:1034E00060E874E88EE190E0A80197010E94482D01
:1034F000215030404040504056954795379527958C
:1035000080E12030380720F0DD2011F0DD24D6CF17
:10351000E889F9893083EA89FB892083E88DF98D70
:10352000C082EE89FF89408121E030E0C9010C8C26
:1035300002C0880F991F0A94E2F7482B4083EE8956
:10354000FF894081C9010D8C02C0880F991F0A9420
:10355000E2F7482B4083EE89FF894081C9010E8C38
:1035600002C0880F991F0A94E2F7482B4083EE8926
:10357000FF8980810F8C02C0220F331F0A94E2F76B
:10358000209528232083DF91CF911F910F91FF90E9
:10359000EF90DF90CF90BF90AF900895CF93DF93DF
:1035A000DC011E968D919C911F97EC01C05CDF4F52
:1035B000FC01EE5BFF4F28813981808191812817C2
:1035C0003907C9F75696ED91FC915797408121E054
:1035D00030E0C9015C960C905C9702C0880F991F7F
:1035E0000A94E2F78095842380835696ED91FC91AE
:1035F00057974081C9015D960C905D9702C0880F76
:10360000991F0A94E2F78095842380835696ED9162
:10361000FC9157974081C9015E960C905E9702C05D
:10362000880F991F0A94E2F7809584238083569629
:10363000ED91FC91579780815F960C905F9702C047
:10364000220F331F0A94E2F72095282320831C962B
:10365000ED91FC911D97EE5BFF4F808191819293DC
:103660008293DF91CF910895DC011C96ED91FC913E
:103670001D97E05CFF4F2191319180819181281B42
:10368000390B2F733070C9010895DC011C96ED9140
:10369000FC911D97E05CFF4F20813181E054F040A8
:1036A000DF01AE5BBF4F8D919C91119728173907B1
:1036B00019F42FEF3FEF07C08D919C91E80FF91F90
:1036C0008081282F30E0C9010895DC011C96ED911E
:1036D000FC911D97E05CFF4F20813181E054F04068
:1036E000DF01AE5BBF4F8D919C9111972817390771
:1036F00019F42FEF3FEF10C08D919C911197E80FB7
:10370000F91F20818D919C91119701968F73907074
:1037100011969C938E9330E0C9010895DC01919637
:103720008C919197882339F05496ED91FC9155979F
:10373000808186FFF9CF91961C920895CF93DF93F5
:10374000EC01EE85FF85E05CFF4F20813181E05484
:10375000F0402F5F3F4F2F733070DF01AE5BBF4FE4
:103760008D919C91119728173907D1F3E05CFF4F99
:1037700080819181E054F040E80FF91F6083EE856D
:10378000FF85E05CFF4F31832083EE89FF89208134
:1037900081E090E00F8C02C0880F991F0A94E2F735
:1037A000282B208381E089A3EC89FD8980818064B6
:1037B000808381E090E0DF91CF91089581E00895CA
:1037C0001F931092C5081092C40828EE33E040E021
:1037D00050E02093C6083093C7084093C808509320
:1037E000C90860E773E07093C3086093C20882EA77
:1037F00096E09093CF088093CE0886EE96E0909363
:10380000D1088093D00885EC90E09093D308809302
:10381000D20884EC90E09093D5088093D40880EC93
:1038200090E09093D7088093D60881EC90E0909335
:10383000D9088093D80882EC90E09093DB088093BD
:10384000DA0886EC90E09093DD088093DC0814E0C1
:103850001093DE08B3E0B093DF08A7E0A093E00880
:10386000F5E0F093E108E1E0E093E2081092E70868
:103870001092E6082093E8083093E9084093EA089C
:103880005093EB087093E5086093E4088AE297E0B0
:103890009093F1088093F0088EE697E09093F308F8
:1038A0008093F2088DEC90E09093F5088093F408F3
:1038B0008CEC90E09093F7088093F60888EC90E009
:1038C0009093F9088093F80889EC90E09093FB08B6
:1038D0008093FA088AEC90E09093FD088093FC08AE
:1038E0008EEC90E09093FF088093FE0810930009FF
:1038F000B0930109A0930209F0930309E09304092E
:10390000109209091092080920930A0930930B09B3
:1039100040930C0950930D097093070960930609B1
:1039200082EB97E0909313098093120986EF97E05A
:10393000909315098093140985ED90E090931709F1
:103940008093160984ED90E09093190980931809EB
:1039500080ED90E090931B0980931A0981ED90E02F
:1039600090931D0980931C0982ED90E090931F09AC
:1039700080931E0986ED90E09093210980932009A1
:1039800010932209B0932309A0932409F0932509E9
:10399000E093260910922B0910922A0920932C09F2
:1039A00030932D0940932E0950932F0970932909C4
:1039B000609328098AE398E090933509809334094D
:1039C0008EE798E0909337098093360985E391E07C
:1039D000909339098093380984E391E090933B09EF
:1039E00080933A0980E391E090933D0980933C09EC
:1039F00081E391E090933F0980933E0982E391E057
:103A0000909341098093400986E391E090934309A4
:103A10008093420910934409B0934509A093460945
:103A2000F0934709E09348091F9108950F93FC0113
:103A300080E993E0918380836283438324830583B9
:103A40000F9108950F93FC0180E993E091838083A7
:103A500062834383248305830F91089580E993E073
:103A600090934B0980934A0910924C0910924D098A
:103A700010924E0910924F0908958F929F92AF9223
:103A8000BF92CF92DF92EF92FF920F931F93CF934B
:103A9000DF934C016B017C01AA24BB24C0E0D0E081
:103AA000C601F70162814AE050E00E94A61F8C0126
:103AB000C6016EE20E945C1E080F191FA00EB11E07
:103AC00021960894E11CF11CC330D10549F7C601C9
:103AD000F40165814AE050E00E94A61F9501280F7D
:103AE000391FC901DF91CF911F910F91FF90EF9086
:103AF000DF90CF90BF90AF909F908F9008959C01E2
:103B00002E5F3F4FCB01B90144E050E00E941610F8
:103B10009C0180E0232B09F481E00895DF93CF938B
:103B200000D00F92CDB7DEB7FC014283538364838C
:103B300075830F900F900F900F90CF91DF910895A4
:103B40009C01FB0180819181A281B381F901828373
:103B50009383A483B583C90108959C01FB0180E987
:103B600093E0D9018D939C9380819181A281B3814F
:103B7000F90182839383A483B58308959C01FB019B
:103B800080E993E0D9018D939C9380819181A281FA
:103B9000B381F90182839383A483B5830895DF936E
:103BA000CF9300D00F92CDB7DEB7FC0180E993E050
:103BB0009183808342835383648375830F900F9036
:103BC0000F900F90CF91DF910895DF93CF9300D0A6
:103BD0000F92CDB7DEB7FC0180E993E0918380833B
:103BE00042835383648375830F900F900F900F90DF
:103BF000CF91DF910895FC0180E993E09183808368
:103C000012821382148215820895FC0180E993E0E8
:103C10009183808312821382148215820895CF9239
:103C2000DF92EF92FF920F931F93CF93DF937C016C
:103C30006B018A01C0E0D0E00FC0D6016D916D012B
:103C4000D701ED91FC910190F081E02DC70119950C
:103C5000C80FD91F015010400115110571F7CE0191
:103C6000DF91CF911F910F91FF90EF90DF90CF9058
:103C70000895EF92FF920F931F93CF93DF937C01F0
:103C80008B01C0E0D0E0F8010F5F1F4F6491662305
:103C900059F0D701ED91FC910190F081E02DC70121
:103CA0001995C80FD91FEFCFCE01DF91CF911F918A
:103CB0000F91FF90EF900895DC01ED91FC91019040
:103CC000F081E02D199508959C01DB01ED91FC91A7
:103CD0000190F081E02DCB01B90119950895EF9283
:103CE000FF920F931F938C01DC01ED91FC910190E9
:103CF000F081E02D6DE019957C01D801ED91FC91EA
:103D00000190F081E02DC8016AE019959C012E0D0B
:103D10003F1DC9011F910F91FF90EF900895EF9201
:103D2000FF920F931F937C010E94391E8C01C701E3
:103D30000E946F1E9C01200F311FC9011F910F911E
:103D4000FF90EF900895EF92FF920F931F937C01E5
:103D5000DC01ED91FC910190F081E02D19958C0131
:103D6000C7010E946F1E080F191FC8011F910F91F4
:103D7000FF90EF900895EF92FF920F931F937C01B5
:103D8000DB01ED91FC910190F081E02DCB01B701B9
:103D900019958C01C7010E946F1E080F191FC801D9
:103DA0001F910F91FF90EF900895CF93DF93EC0157
:103DB0006115710519F420E030E00FC0DB010D90B2
:103DC0000020E9F71197A61BB70BE881F981028063
:103DD000F381E02DAD0119959C01C901DF91CF91CF
:103DE00008954F925F927F928F929F92AF92BF926F
:103DF000CF92DF92EF92FF920F931F93DF93CF93B7
:103E0000CDB7DEB7A1970FB6F894DEBF0FBECDBF1A
:103E10002C01742ECB01223008F42AE019A231E2E1
:103E2000C32ED12CCC0EDD1E822E9924AA24BB24B5
:103E3000672D752FA50194010E94482D79018A01F3
:103E4000C801B701A50194010E94292D472D461BE9
:103E50000894C108D1084A3014F4405D01C0495C9F
:103E6000F6014083E114F1040105110521F07E2CD7
:103E70005F2DC801DDCFC201B6010E94D51EA196FB
:103E80000FB6F894DEBF0FBECDBFCF91DF911F916B
:103E90000F91FF90EF90DF90CF90BF90AF909F90E9
:103EA0008F907F905F904F900895DC012115310530
:103EB00041F4ED91FC910190F081E02D642F199572
:103EC00008950E94F11E0895EF92FF920F931F93A1
:103ED0007C010E94551F8C01C7010E946F1E9C012E
:103EE000200F311FC9011F910F91FF90EF9008958E
:103EF000EF92FF920F931F939A017B0100E010E075
:103F0000B801A7010E94551F1F910F91FF90EF90DC
:103F10000895CF92DF92EF92FF920F931F936C015F
:103F20007B019A0100E010E0B801A7010E94551F33
:103F30008C01C6010E946F1E080F191FC8011F9136
:103F40000F91FF90EF90DF90CF900895EF92FF9246
:103F50000F931F939A01E62EFF2400E010E0B801B2
:103F6000A7010E94551F1F910F91FF90EF90089598
:103F7000CF92DF92EF92FF920F931F936C01E62E88
:103F80009A01FF2400E010E0B801A7010E94551F2C
:103F90008C01C6010E946F1E080F191FC8011F91D6
:103FA0000F91FF90EF90DF90CF900895CF92DF9226
:103FB000EF92FF920F931F93CF93DF93EC016A016F
:103FC0007B012115310541F4E881F9810190F081EF
:103FD000E02D642F19951FC02A303105D1F477FFE9
:103FE00017C0E881F9810190F081E02D6DE219950B
:103FF0008C0144275527BA014C195D096E097F09C8
:10400000CE012AE00E94F11E9801280F391F04C03A
:104010002AE00E94F11E9C01C901DF91CF911F91FE
:104020000F91FF90EF90DF90CF900895EF92FF9265
:104030000F931F937C010E94D61F8C01C7010E9421
:104040006F1E9C01200F311FC9011F910F91FF901E
:10405000EF900895EF92FF920F931F937B019A01C7
:104060000027F7FC0095102FB801A7010E94D61F6A
:104070001F910F91FF90EF900895CF92DF92EF92F2
:10408000FF920F931F936C017B019A010027F7FCAD
:104090000095102FB801A7010E94D61F8C01C60100
:1040A0000E946F1E080F191FC8011F910F91FF90EA
:1040B000EF90DF90CF9008950E94D51E08957F92D3
:1040C0008F929F92AF92BF92CF92DF92EF92FF9228
:1040D0000F931F93CF93DF934C017A018B01722EC4
:1040E000CB01BA01A80197010E94A40C882321F0FA
:1040F000C4016EE472E021C0C0E0D0E05701680165
:10410000E894D7F8C601B5012FEF3FEF4FE75FE71F
:104110000E94A40C882351F4C601B5012FEF3FEF94
:104120004FE75FE70E94740C181614F0C1E0D0E06E
:10413000219739F0C40162E572E00E94D51EEC01BE
:1041400093C0C801B7012FEF3FEF4FE75FE40E9434
:10415000E40B181654F0C801B7012FEF3FEF4FE7FB
:104160005FEC0E94440C882324F4C40166E572E0ED
:10417000E4CFC801B70120E030E040E050E00E9409
:10418000440C87FD03C0C0E0D0E00EC0D401ED9127
:10419000FC910190F081E02DC4016DE21995EC01D4
:1041A00017FB109517F9109520E030E040E05FE331
:1041B000DD240BC0CA01B90120E030E040E251E447
:1041C0000E94380B9B01AC01D394D71498F3C8011B
:1041D000B7010E94110A5B016C010E9468087B0113
:1041E0008C01C401B801A7012AE030E00E94551FEC
:1041F000C80FD91F772039F0C4016AE572E00E9428
:10420000D51EC80FD91FC801B7010E94810D9B019F
:10421000AC01C601B5010E94E00924C020E030E0F5
:1042200040E251E40E943E0A7B018C010E942D0D68
:104230005B016C01CC24B7FCC094DC2CC401B6013A
:10424000A5012AE030E00E94D61FC80FD91FC60181
:10425000B5010E94CF0C9B01AC01C801B7010E94BF
:10426000E0097A947720D1F6CE01DF91CF911F91AA
:104270000F91FF90EF90DF90CF90BF90AF909F9005
:104280008F907F9008950E945F200895EF92FF9293
:104290000F931F937C010E945F208C01C7010E9435
:1042A0006F1E080F191FC8011F910F91FF90EF900B
:1042B0000895EF92FF920F931F937C010E94D51EE9
:1042C0008C01C7010E946F1E080F191FC8011F91A2
:1042D0000F91FF90EF900895AF92BF92CF92DF922F
:1042E000EF92FF920F931F93CF93DF935C016B01CB
:1042F000EE24FF24C0E0D0E010C0D501ED91FC9188
:1043000000811181C601BE010E94E621682FC5010E
:10431000F8011995E80EF91E2196F6018481958120
:10432000C817D90750F3C701DF91CF911F910F91A3
:10433000FF90EF90DF90CF90BF90AF900895EF92F5
:10434000FF920F931F937C010E946C218C01C70187
:104350000E946F1E9C01200F311FC9011F910F91F8
:10436000FF90EF900895FC0184819581681779078B
:1043700048F40190F081E02D309721F0E60FF71F0F
:104380008081089580E00895FC01848195816817FB
:10439000790730F40190F081E02DE60FF71F40839C
:1043A0000895FC019B01848195816817790728F4A1
:1043B000608171816115710529F41092500960E5E1
:1043C00079E002C0620F731FCB010895FC01848164
:1043D00095816817790748F40190F081E02D3097B6
:1043E00021F0E60FF71F8081089580E00895FC0119
:1043F0000190F081E02D309729F40895861709F493
:104400004083319680818823C9F70895FC0180811B
:104410009181009729F420E030E040E050E004C0B2
:104420000E94EF0F9B01AC01B901CA010895CF9220
:10443000DF92EF92FF920F931F93CF93DF936C0164
:10444000DC01ED90FC901197E114F10409F441C0F6
:104450001496CD91DC9115972097D9F1870102C070
:104460000F5F1F4FF8018081992787FD90950E946B
:10447000A72D892BA9F72197CE0DDF1D01C021970C
:104480008881992787FD90950E94A72D892B19F087
:10449000C017D107A0F7FE013196E01BF10BD60142
:1044A0001596FC93EE9314972D913C9120173107AC
:1044B00028F4C901B801AF010E942310D601ED9183
:1044C000FC91119714968D919C911597E80FF91F07
:1044D0001082DF91CF911F910F91FF90EF90DF90AD
:1044E000CF900895CF93DF93FC01C081D1812097B5
:1044F00039F409C0992787FD90950E94B72D8993BB
:1045000088818823B9F7DF91CF910895CF93DF9306
:10451000FC01C081D181209739F409C0992787FD1A
:1045200090950E94AF2D899388818823B9F7DF91F8
:10453000CF910895EF92FF920F931F93CF93DF9344
:10454000FC01DB018617970739F124813581149628
:104550008D919C9115972817390701F5232BE1F0D0
:10456000E080F180CD91DC9113C0992787FD909573
:104570000E94AF2D8C018881992787FD90950E941C
:10458000AF2D0817190751F40894E11CF11C21966E
:10459000F7018081882349F781E001C080E0DF9145
:1045A000CF911F910F91FF90EF900895AF92BF921E
:1045B000CF92DF92EF92FF920F931F93CF93DF93EF
:1045C000FC015B017A01DB0114962D913C9115975A
:1045D0002115310559F184819581009739F18217B0
:1045E000930720F14817590720F07C010894E1084F
:1045F000F10800811181C801CFEFDFEF6801CE0C17
:10460000DF1C10C0F501608171810E9481109C0146
:10461000009771F0801B910BE816F90608F0EC0189
:10462000C9010196C816D90668F702C0CFEFDFEFBF
:10463000CE01DF91CF911F910F91FF90EF90DF900E
:10464000CF90BF90AF900895FC01DB01448155816C
:1046500014968D919C911597481B590BCF010E9480
:10466000D6220895CF93DF93FC01DB0184819581ED
:104670004817590760F4C081D1816D917C91CE01BA
:10468000840F951F0E9481109C01009719F42FEF51
:104690003FEF02C02C1B3D0BC901DF91CF91089564
:1046A00040E050E00E9432230895DF92EF92FF92A3
:1046B0000F931F93CF93DF93EC018C819D8148175B
:1046C0005907C8F47A010894E11CF11CE881F981CA
:1046D000EE0DFF1DD080108208811981772767FDBC
:1046E0007095C8010E9476109C010E0D1F1DF801E7
:1046F000D082009719F4EFEFFFEF05C08881998110
:10470000F901E81BF90BCF01DF91CF911F910F91B8
:10471000FF90EF90DF900895FC0144815581415056
:1047200050400E9455230895CF93DF93FC0184816C
:1047300095814817590768F4C081D181772767FDB3
:104740007095CE01840F951F0E943E109C0100972A
:1047500019F42FEF3FEF02C02C1B3D0BC901DF9175
:10476000CF91089540E050E00E94942308950F9364
:104770001F93CF93DF93FC018B0141155105F9F095
:1047800061157105E1F0848195812817390718F0CA
:10479000FB01108214C041505040EC01C21BD30BEE
:1047A0004C175D0708F4EA0160817181620F731F85
:1047B000C801AE010E946710C00FD11F1882DF919F
:1047C000CF911F910F910895FC01DB012481358168
:1047D00014964D915C91159724173507A8F08081A8
:1047E0009181009789F06D917C916115710561F05F
:1047F000241B350B820F931F0E9449109C0180E0FF
:10480000232B19F481E0089580E00895DC01FB0179
:1048100014968D919C911597892B31F46115710532
:10482000A9F090E0808108C00D90BC91A02D611589
:10483000710529F490E08C91882349F407C0CD01DB
:104840000E9449109C0190E0232B09F491E0892FEC
:104850000895CF93DF939C01FB01EC01A881B981FE
:10486000109729F06081718161157105D1F4C081C3
:10487000D181209759F084819581892B39F08881E5
:1048800090E022273327281B390B12C0109771F0B4
:10489000F90184819581892B49F08C91282F30E092
:1048A00007C0CD010E9449109C0102C020E030E009
:1048B000C901DF91CF9108950E942924892F809505
:1048C000881F8827881F08950E94292420E0181631
:1048D00019060CF021E0822F08950E94292420E07F
:1048E000181619060CF421E0822F08950E9429243D
:1048F000892F881F8827881F0895FC01DB012481E8
:10490000358114968D919C9115972817390711F0D0
:1049100020E007C0CF010E94292420E0892B09F460
:1049200021E0822F0895FC01DB0114962D913C912A
:10493000159784819581821B930B84179507A0F0AE
:1049400080819181009781F06D917C916115710555
:1049500059F0840F951FA9010E9459109C0180E015
:10496000232B19F481E0089580E00895FC01DB0118
:104970002481358114968D919C91159728173907BC
:1049800010F480E00895CF0140E050E00E949324AD
:1049900008950F931F93CF93DF93EC018B016F5F0B
:1049A0007F4F888199810E94482C009711F480E004
:1049B00005C0998388831B830A8381E0DF91CF91AF
:1049C0001F910F9108952F923F924F925F926F9295
:1049D0007F928F929F92AF92BF92CF92DF92EF928F
:1049E000FF920F931F93CF93DF935C012B014A013A
:1049F000DC0114960D911C9115970115110509F410
:104A0000D4C0FB01C480D580C114D10409F4CDC049
:104A1000DA0114966D907C9015976C187D08FC0156
:104A2000E080F1806114710491F01BC0D4016C919D
:104A300011967C91119714964D915C9115978C2F3E
:104A40000E942310F401E480F580EC0EFD1ED201DB
:104A50006D917C91C7010E948110EC01009731F7A4
:104A6000A4C077FE02C067012EC0FB012080318008
:104A7000E8013CC08E010E191F09C601B701A8014B
:104A80000E9423100C0D1D1DD4016C9111967C9178
:104A9000119714964D915C911597C8010E942310AF
:104AA000F401C480D580C00ED11ED2011496ED90C1
:104AB000FC901597EC0EFD1EF50184819581860D05
:104AC000971D95838483D2016D917C91C7010E94CB
:104AD0008110EC01009771F6C601B7010E945210D7
:104AE00064C07B01EC0CFD1CC60DD71DC701B101D4
:104AF0000E948110BC010097A1F7C017D10709F4EB
:104B000054C0F501828193818C179D0708F044C041
:104B1000C501BE010E94C9248823F1F546C0C50124
:104B2000B201A9010E94D622EC0197FD3EC0D50139
:104B30006D917C911197F201848195818C0F9D1F5D
:104B4000680F791F14964D915C911597481B590B6E
:104B5000CB01860D971D0E942C10D50114968D91C6
:104B60009C911597860D971D15969C938E9314977F
:104B7000ED91FC911197E80FF91F10822D913C9156
:104B80002C0F3D1FF4016081718144815581C90161
:104B90000E9423109E0105C0D50114962D913C91D1
:104BA00015972150304037FFBACFDF91CF911F9139
:104BB0000F91FF90EF90DF90CF90BF90AF909F90BC
:104BC0008F907F906F905F904F903F902F900895BF
:104BD000CF93DF93EC0188819981892B29F08A8119
:104BE0009B818617970760F4CE010E94C924882311
:104BF00041F08C819D81892B19F4E881F981108223
:104C000081E0DF91CF910895EF92FF920F931F9370
:104C1000CF93DF93EC017B016C817D81E114F10482
:104C2000C1F04115510599F08A01060F171FB8010F
:104C30000E94E825882369F0888199812C813D8133
:104C4000820F931FB7010E9452101D830C8381E0D5
:104C500001C080E0DF91CF911F910F91FF90EF9005
:104C60000895EF92FF920F931F93DF93CF93CDB7E9
:104C7000DEB72B970FB6F894DEBF0FBECDBF7C0119
:104C8000CB01BA018E010F5F1F4FA8012AE030E06F
:104C90000E940511F80101900020E9F73197E01B0F
:104CA000F10BC701B801AF010E9404262B960FB685
:104CB000F894DEBF0FBECDBFCF91DF911F910F9152
:104CC000FF90EF900895EF92FF920F931F93DF9361
:104CD000CF93CDB7DEB72C970FB6F894DEBF0FBEDB
:104CE000CDBF7C01CB01BA018E010F5F1F4FA80120
:104CF0002AE030E00E94BC10F80101900020E9F7A2
:104D00003197E01BF10BC701B801AF010E940426E7
:104D10002C960FB6F894DEBF0FBECDBFCF91DF91BA
:104D20001F910F91FF90EF900895EF92FF920F93D4
:104D30001F93DF93CF9300D000D0CDB7DEB77C01B7
:104D4000CB018E010F5F1F4FB8014AE050E00E9477
:104D50002A11F80101900020E9F73197E01BF10BCF
:104D6000C701B801AF010E94042626960FB6F89439
:104D7000DEBF0FBECDBFCF91DF911F910F91FF908E
:104D8000EF900895EF92FF920F931F93DF93CF93CD
:104D9000CDB7DEB727970FB6F894DEBF0FBECDBFF5
:104DA0007C01CB018E010F5F1F4FB8014AE050E03C
:104DB0000E949B10F80101900020E9F73197E01B59
:104DC000F10BC701B801AF010E94042627960FB668
:104DD000F894DEBF0FBECDBFCF91DF911F910F9131
:104DE000FF90EF900895EF92FF920F931F93DF9340
:104DF000CF9300D00F92CDB7DEB77C01862F90E025
:104E00008E010F5F1F4FB8014AE050E00E949B10D7
:104E1000F80101900020E9F73197E01BF10BC70181
:104E2000B801AF010E9404260F900F900F900F90D1
:104E3000CF91DF911F910F91FF90EF900895DF9335
:104E4000CF930F920F92CDB7DEB769831A82BE015E
:104E50006F5F7F4F41E050E00E9404260F900F905B
:104E6000CF91DF9108956115710511F480E00895E7
:104E7000DB010D900020E9F71197A61BB70BAD01E0
:104E80000E9404260895FB0160817181448155814F
:104E90000E9404260895CF93DF93EC0188819981C5
:104EA000009711F00E94B02B198218821D821C827B
:104EB0001B821A82DF91CF9108950F931F93182FB1
:104EC000092F0E943126882321F4812F902F0E94E0
:104ED0004B27812F902F1F910F9108950F931F93B0
:104EE000182F092F0E946326882321F4812F902FE9
:104EF0000E944B27812F902F1F910F9108950F93A0
:104F00001F93182F092F0E949526882321F4812FA3
:104F1000902F0E944B27812F902F1F910F91089562
:104F20000F931F93182F092F0E94C226882321F464
:104F3000812F902F0E944B27812F902F1F910F912F
:104F400008950F931F93182F092F0E94F32688238B
:104F500021F4812F902F0E944B27812F902F1F919A
:104F60000F9108950F931F93182F092F0E941F2749
:104F7000882321F4812F902F0E944B27812F902F7F
:104F80001F910F9108950F931F93182F092F6115EB
:104F9000710561F0DB010D900020E9F71197A61B68
:104FA000B70BAD010E940426882321F4812F902F96
:104FB0000E944B27812F902F1F910F9108950F93DF
:104FC0001F93182F092FFB01608171814481558146
:104FD0000E940426882321F4812F902F0E944B27C2
:104FE000812F902F1F910F910895EF92FF920F93B1
:104FF0001F93CF93DF93EC017B018A01BA010E94DA
:10500000E825882321F4CE010E944B2707C01D8389
:105010000C8388819981B7010E945210CE01DF91E3
:10502000CF911F910F91FF90EF900895CF93DF9351
:10503000EC01198218821B821A821D821C821E8238
:105040006115710551F0DB010D900020E9F7119712
:10505000A61BB70BAD010E94F527DF91CF910895F4
:10506000CF93DF93EC01198218821B821A821D8272
:105070001C821E826115710551F0DB010D9000202C
:10508000E9F71197A61BB70BAD010E94F527DF9139
:10509000CF9108950F931F93182F092F6115710554
:1050A00059F0DB010D900020E9F71197A61BB70B13
:1050B000AD010E94F52702C00E944B27812F902F3F
:1050C0001F910F910895EF92FF920F931F93DF931B
:1050D000CF93CDB7DEB7A1970FB6F894DEBF0FBE62
:1050E000CDBF8C01FC0111821082138212821582C5
:1050F00014821682CB01BA017E010894E11CF11CD6
:10510000A70130E00E940511C801B7010E944A289A
:10511000A1960FB6F894DEBF0FBECDBFCF91DF9141
:105120001F910F91FF90EF900895EF92FF920F93D0
:105130001F93DF93CF93CDB7DEB7A1970FB6F89447
:10514000DEBF0FBECDBF8C01FC0111821082138225
:105150001282158214821682CB01BA017E01089454
:10516000E11CF11CA70130E00E940511C801B70144
:105170000E944A28A1960FB6F894DEBF0FBECDBF9D
:10518000CF91DF911F910F91FF90EF900895EF92D3
:10519000FF920F931F93DF93CF93CDB7DEB7A29704
:1051A0000FB6F894DEBF0FBECDBF8C01FC0111829B
:1051B000108213821282158214821682CB01BA01E8
:1051C0007E010894E11CF11CA70130E00E94BC1094
:1051D000C801B7010E944A28A2960FB6F894DEBF14
:1051E0000FBECDBFCF91DF911F910F91FF90EF9038
:1051F0000895EF92FF920F931F93DF93CF93CDB754
:10520000DEB7A2970FB6F894DEBF0FBECDBF8C01FC
:10521000FC0111821082138212821582148216827E
:10522000CB01BA017E010894E11CF11CA70130E01A
:105230000E94BC10C801B7010E944A28A2960FB66E
:10524000F894DEBF0FBECDBFCF91DF911F910F91BC
:10525000FF90EF900895EF92FF920F931F93DF93CB
:10526000CF93CDB7DEB761970FB6F894DEBF0FBE10
:10527000CDBF8C01CB01F801118210821382128202
:105280001582148216827E010894E11CF11CB7017C
:1052900050E00E942A11C801B7010E944A28619675
:1052A0000FB6F894DEBF0FBECDBFCF91DF911F9137
:1052B0000F91FF90EF900895EF92FF920F931F933D
:1052C000DF93CF93CDB7DEB761970FB6F894DEBF0B
:1052D0000FBECDBF8C01CB01F80111821082138269
:1052E00012821582148216827E010894E11CF11C40
:1052F000B70150E00E942A11C801B7010E944A2854
:1053000061960FB6F894DEBF0FBECDBFCF91DF918F
:105310001F910F91FF90EF900895EF92FF920F93DE
:105320001F93DF93CF93CDB7DEB762970FB6F89494
:10533000DEBF0FBECDBF8C01CB01F8011182108200
:10534000138212821582148216827E010894E11C57
:10535000F11CB70150E00E949B10C801B7010E94E8
:105360004A2862960FB6F894DEBF0FBECDBFCF912C
:10537000DF911F910F91FF90EF900895EF92FF92B0
:105380000F931F93DF93CF93CDB7DEB762970FB61E
:10539000F894DEBF0FBECDBF8C01CB01F8011182A6
:1053A0001082138212821582148216827E01089462
:1053B000E11CF11CB70150E00E949B10C801B7012D
:1053C0000E944A2862960FB6F894DEBF0FBECDBF8A
:1053D000CF91DF911F910F91FF90EF900895EF9281
:1053E000FF920F931F93DF93CF93CDB7DEB729972B
:1053F0000FB6F894DEBF0FBECDBF8C01862FF8012B
:10540000118210821382128215821482168290E019
:105410007E010894E11CF11CB70150E00E942A11A2
:10542000C801B7010E944A2829960FB6F894DEBF3A
:105430000FBECDBFCF91DF911F910F91FF90EF90E5
:105440000895EF92FF920F931F93DF93CF93CDB701
:10545000DEB729970FB6F894DEBF0FBECDBF8C0123
:10546000862FF80111821082138212821582148213
:10547000168290E07E010894E11CF11CB70150E017
:105480000E942A11C801B7010E944A2829960FB626
:10549000F894DEBF0FBECDBFCF91DF911F910F916A
:1054A000FF90EF900895DF93CF930F920F92CDB7B7
:1054B000DEB7FC01118210821382128215821482DF
:1054C000168269831A82BE016F5F7F4F0E944A284D
:1054D0000F900F90CF91DF910895DF93CF930F92AC
:1054E0000F92CDB7DEB7FC011182108213821282B7
:1054F00015821482168269831A82BE016F5F7F4F04
:105500000E944A280F900F90CF91DF910895BF928B
:10551000CF92DF92EF92FF920F931F93CF93DF937F
:10552000082FB92E6B017A01E9012417350710F411
:10553000EA017901802F9B2D6CE572E00E9416280C
:10554000D60114968D919C9115978E159F05D0F0DC
:105550008C179D0708F4EC01D601ED91FC91119791
:10556000EC0FFD1F108110826D917C916E0D7F1DDF
:10557000802F9B2D0E944A28D601ED91FC91EC0FC3
:10558000FD1F1083802F9B2DDF91CF911F910F91D5
:10559000FF90EF90DF90CF90BF9008950F931F93EF
:1055A0008C01FB01248135810E94872AC8011F914B
:1055B0000F910895CF93DF93EC01FB0186179707B6
:1055C00061F0608171816115710529F04481558117
:1055D0000E94F52702C00E944B27CE01DF91CF9198
:1055E0000895FC01118210821382128215821482A6
:1055F00016820E94DA2A0895FC0111821082138219
:1056000012821582148216820E94DA2A0895FC0101
:10561000808191810E94B02B0895FC01808191814D
:105620000E94B02B08950F931F93CF93DF93BC017B
:105630008230910510F462E070E0E0915309F0913E
:10564000540940E050E0A0E0B0E024C080819181A6
:1056500086179707D0F08617970771F48281938198
:10566000109729F013969C938E9312972CC09093C9
:1056700054098093530927C04115510519F0841727
:10568000950718F48D01AC01EF01DF018281938150
:105690009C01F9013097D1F641155105F9F0CA0185
:1056A000861B970B8430910580F48A819B810115BC
:1056B000110521F0F8019383828304C0909354096B
:1056C00080935309FE01329645C0FE01E80FF91F91
:1056D000619371930297998388833CC080915109AB
:1056E00090915209892B41F480916803909169034C
:1056F000909352098093510940916A0350916B0332
:105700004115510541F44DB75EB780916603909104
:105710006703481B590B20915109309152092417F6
:105720003507B0F4CA01821B930B8617970780F0E8
:10573000AB014E5F5F4F8417950750F0420F531F28
:105740005093520940935109F9016193719302C03A
:10575000E0E0F0E0CF01DF91CF911F910F9108952C
:10576000CF93DF939C01009709F48FC0EC0122973F
:105770001B821A8260915309709154096115710559
:1057800081F488819981820F931F20915109309172
:1057900052092817390739F5D0935209C093510996
:1057A00074C0DB0140E050E0AC17BD0708F1BB83DB
:1057B000AA83FE0121913191E20FF31FAE17BF07BB
:1057C00079F48D919C911197280F391F2E5F3F4FCF
:1057D0003983288312968D919C9113979B838A839A
:1057E0004115510571F4D0935409C09353094DC02C
:1057F00012968D919C911397AD01009711F0DC01E9
:10580000D3CFDA011396DC93CE931297FA0121914C
:105810003191E20FF31FCE17DF0769F48881998178
:10582000280F391F2E5F3F4FFA01318320838A8171
:105830009B8193838283E0E0F0E0DB0112968D91FF
:105840009C911397009719F0BC01FD01F6CFAB01B5
:105850004E5F5F4FDB018D919C91840F951F2091CE
:105860005109309152092817390779F4309729F4F2
:10587000109254091092530902C0138212824250AE
:1058800050405093520940935109DF91CF910895B0
:105890006F927F928F929F92AF92BF92CF92DF9240
:1058A000EF92FF920F931F93CF93DF938C0100979A
:1058B00029F4CB010E94132B8C01BBC08EEFE82E84
:1058C0008FEFF82EE00EF11E4801860E971E8E1403
:1058D0009F0408F4ACC0D7014D915C911197461715
:1058E0005707B8F04530510508F4A3C0CA01049722
:1058F0008617970708F49DC042505040461B570B2F
:10590000F401419351936D937C93CF010E94B02B8E
:1059100090C05B01A41AB50A3801640E751EA091EF
:105920005309B0915409E0E0F0E0CC24DD2447C0F5
:10593000A615B705A9F5CD91DC911197CE01029678
:105940008A159B0568F1CE018A199B090296129669
:105950002C91129713963C91059758F0F4012283ED
:105960003383CA19DB09D183C083D7016D937C933C
:1059700009C04E5F5F4F4C0F5D1FF701518340839D
:10598000C901FC01C114D10431F0D6011396FC9376
:10599000EE9312974EC0F0935409E093530949C017
:1059A0008D919C911197E817F90708F4FC016D019E
:1059B00012968C91129713969C919C01D901109785
:1059C00009F0B6CF8091510990915209861597053B
:1059D000E9F4E617F707D0F420916A0330916B03DE
:1059E0002115310541F42DB73EB7809166039091A2
:1059F0006703281B390B82169306C8F4909252094C
:105A000080925109F7017183608313C0CB010E941A
:105A1000132BEC01009759F0D7014D915C91B8011F
:105A20000E942310C8010E94B02B8E0102C000E02A
:105A300010E0C801DF91CF911F910F91FF90EF907F
:105A4000DF90CF90BF90AF909F908F907F906F909E
:105A50000895629FD001739FF001829FE00DF11DB8
:105A6000649FE00DF11D929FF00D839FF00D749FD8
:105A7000F00D659FF00D9927729FB00DE11DF91F84
:105A8000639FB00DE11DF91FBD01CF0111240895E1
:105A9000A1E21A2EAA1BBB1BFD010DC0AA1FBB1F32
:105AA000EE1FFF1FA217B307E407F50720F0A21BA4
:105AB000B30BE40BF50B661F771F881F991F1A9411
:105AC00069F760957095809590959B01AC01BD013B
:105AD000CF0108952F923F924F925F926F927F92E3
