:100000000C9406010C94D3100C9404110C9435112B
:100010000C9466110C9497110C94C8110C94F9115E
:100020000C942A120C9432010C9432010C9432017B
:100030000C9432010C9432010C9432010C94320174
:100040000C9432010C9432010C9432010C94320164
:100050000C9432010C9432010C9432010C945B121A
:100060000C9432010C94CA150C9412170C943201A2
:100070000C9432010C9432010C9432010C94320134
:100080000C9432010C9432010C9432010C94320124
:100090000C940A160C9451170C9432010C94130210
:1000A0000C9432010C9432010C9432010C94320104
:1000B0000C9432010C9432010C9432010C943201F4
:1000C0000C9432010C9432010C9432010C944A16B7
:1000D0000C9490170C9432010C948A160C94CF1740
:1000E0000C94320100002100240027002A002D007A
:1000F0003000330001010000040107010A01000083
:100100002200250028002B002E00310034000201BF
:100110000000050108010B0100002000230026005B
:1001200029002C002F00320000010000030106010D
:10013000090105050505070508080808020202026D
:100140000A0A080804040404010101010101010173
:100150000303030303030303040707070C0C0C0C3E
:100160000C0C0C0C02020202060606060606060627
:100170000B0B0B0B0B0B0B0B0102102020080810B4
:100180002040102040800201020108040201010207
:1001900004081020408080402010080402018004E0
:1001A000020180402010080402010804020101023B
:1001B0000408102040800102040810204080000044
:1001C000090A02080B0C0D070603040100000000D9
:1001D000000000000000000000000000000000001F
:1001E0000000000000000000000011100F000000DF
:1001F00000000000000000000000000000000000FF
:100200000000000065044305BB1A091C11241FBE31
:10021000CFEFD1E2DEBFCDBF00E00CBF13E0A0E026
:10022000B2E0E6EDF1E600E00BBF02C007900D92F0
:10023000A43BB107D9F717E0A4EBB3E001C01D92CE
:10024000A536B107E1F712E0CCE0D2E004C0229776
:10025000FE010E947E2CC430D107C9F70E941F0600
:100260000C94E9300C940000880F8093BA00089534
:10027000382F413210F040E042C08091B40388230F
:10028000E1F791E09093B4032093B6038FEF80934E
:1002900021041092DC0341504093DD034F5F9093A3
:1002A000B5038091B503330F832B8093B503809101
:1002B000B703813041F41092B7038091B503809366
:1002C000BB0085EC01C085EE8093BC008091B40337
:1002D0008130E1F38091DC03841710F44091DC035A
:1002E00020E030E00AC0FB01E20FF31FD901A45463
:1002F000BC4F8C9180832F5F3F4F2417A0F3842F36
:1003000008950F931F93582F122F413210F081E060
:100310004AC08091B4038823E1F782E08093B4035C
:100320000093B6038FEF809321041092DC03409377
:10033000DD03ACEBB3E0FB0102C081918D938E2F06
:10034000861B8417D0F31092B5038091B503550F27
:10035000852B8093B5038091B703813041F41092CF
:10036000B7038091B5038093BB0085EC01C085EE97
:100370008093BC00112321F08091B4038230E1F31B
:10038000809121048F3F11F480E00DC08091210401
:10039000803211F482E007C080912104803311F093
:1003A00084E001C083E01F910F910895482F6132CE
:1003B00010F081E008958091B403843011F082E060
:1003C00008956093FF03AEEDB3E0842F9C01F90123
:1003D00002C081918D938E2F841B8617D0F380E00D
:1003E00008959093BB038093BA0308959093B90343
:1003F0008093B8030895882311F085EC01C085E847
:100400008093BC00089585ED8093BC008091BC0072
:1004100084FDFCCF1092B403089585EC8093BC005A
:100420001092B40308951F920F920FB60F920BB65D
:100430000F9211242F933F934F935F936F937F936A
:100440008F939F93AF93BF93EF93FF938091B900E6
:1004500090E0887F90708036910509F4F2C0813673
:100460009105CCF58832910509F47BC0893291055C
:10047000B4F48031910509F46FC0813191053CF4E9
:10048000009709F447C1089709F04FC165C088314A
:10049000910509F466C0809709F047C182C0803495
:1004A000910509F4A4C08134910544F48033910589
:1004B00009F482C0C89709F038C189C08035910518
:1004C00009F489C08835910509F496C088349105EE
:1004D00009F02BC1AEC08839910509F413C18939DF
:1004E0009105ECF48837910509F4ABC08937910583
:1004F0004CF48836910509F4A4C08037910509F0C1
:1005000014C19FC08838910509F4FCC08039910559
:1005100009F49DC08038910509F007C198C0803B5F
:10052000910509F4C6C0813B91054CF4803A9105D0
:1005300009F49FC0883A910509F0F7C0BAC0803C21
:10054000910509F4E3C0883C910509F4DFC0883BBC
:10055000910509F0EAC0C2C08091B5038093BB0049
:10056000CFC09091DC038091DD03981768F49091DF
:10057000DC03E92FF0E0E454FC4F80818093BB0062
:100580009F5F9093DC03BCC08091B603882309F47D
:100590004BC085ED8093BC008091BC0084FDFCCFF6
:1005A000C2C080E28093210485ED8093BC008091DD
:1005B000BC0084FDFCCFB7C080E38093210485EDAF
:1005C0008093BC008091BC0084FDFCCFACC088E36C
:1005D000809321049BC08091DC039091BB00E82FA5
:1005E000F0E0E454FC4F90838F5F8093DC039091A4
:1005F000DC038091DD0382C08091DC039091BB001D
:10060000E82FF0E0E454FC4F90838F5F8093DC038D
:100610008091B603882341F085ED8093BC008091E2
:10062000BC0084FDFCCF7FC081E08093B70384EAE7
:100630006EC085ED8093BC008091BC0084FDFCCF32
:1006400072C083E08093B4031092200459C080915B
:100650002004803208F056C0809120049091BB00A5
:10066000E82FF0E0E050FC4F90838F5F80932004F0
:1006700047C080912004803230F4E0912004F0E003
:10068000E050FC4F108285ED8093BC008091BC004F
:1006900084FDFCCF1092B40360912004E091BA0372
:1006A000F091BB0380E094E070E019951092200473
:1006B0002DC084E08093B4031092FE031092FF03D8
:1006C000E091B803F091B90319958091FF03882355
:1006D00029F481E08093FF031092DE039091FE03E2
:1006E000E92FF0E0E252FC4F80818093BB009F5FD6
:1006F0009093FE039091FE038091FF03981710F4EE
:1007000085EC01C085E88093BC000FC085EC809328
:10071000BC0009C01092210485ED8093BC0080913B
:10072000BC0084FDFCCF1092B403FF91EF91BF9108
:10073000AF919F918F917F916F915F914F913F9179
:100740002F910F900BBE0F900FBE0F901F9018951A
:100750001092B40381E08093B6031092B70384E152
:1007600061E00E94661585E161E00E946615E9EB93
:10077000F0E080818E7F808380818D7F808388E41C
:100780008093B80085E48093BC000895FC01138237
:10079000128288EE93E0A0E0B0E084839583A68384
:1007A000B78384E092E0918380830895FC011382F3
:1007B000128288EE93E0A0E0B0E084839583A68364
:1007C000B78384E092E091838083089581E08093F1
:1007D00067046093440410926504109266040895BF
:1007E00081E0809367046093440410926504109242
:1007F000660408952091430430E080914204281B50
:100800003109C90108954091420480914304481779
:1008100018F02FEF3FEF0AC0E42FF0E0EE5DFB4F42
:100820008081282F30E04F5F40934204C901089532
:10083000E091420480914304E81718F0EFEFFFEFD6
:1008400006C0F0E0EE5DFB4F8081E82FF0E0CF01C5
:1008500008950895AC0120916A0430916B0421152C
:100860003105E1F090914204809143049817B0F073
:1008700090E008C0FA01EA0FFB1F8081AE5DBB4F1C
:100880008C939F5FA92FB0E0A617B7079CF3109237
:10089000420460934304CB01F90119950895E09156
:1008A0006804F0916904309729F010926504109261
:1008B00066041995089570936B0460936A04089513
:1008C0007093690460936804089510926F04109205
:1008D0006E0488EE93E0A0E0B0E080937004909303
:1008E0007104A0937204B093730484E092E0909337
:1008F0006D0480936C040895CF92DF92EF92FF9283
:100900000F931F93CF93DF937C016B018A0180913A
:1009100067048823A1F0C0E0D0E00DC0D701ED91BD
:10092000FC91D601AC0FBD1F0190F081E02DC701F5
:100930006C9119952196C017D10780F304C0CB01A3
:10094000642F0E94D601C801DF91CF911F910F91B2
:10095000FF90EF90DF90CF900895DF93CF930F92A9
:10096000CDB7DEB7FC016983809167048823C9F0A5
:1009700080916604803238F081E090E09383828336
:1009800020E030E015C080916504E82FF0E0EB5BDB
:10099000FB4F998190838F5F8093650480936604F9
:1009A00005C0CE01019661E00E94D60121E030E051
:1009B000C9010F90CF91DF9108950F93062F809179
:1009C000440465E474E04091660421E00E948101E2
:1009D0001092650410926604109267040F910895B6
:1009E00061E00E94DD040895413208F040E2862F64
:1009F00062E274E00E943801109242048093430442
:100A000008950E94F404089521E00E94F4040895DA
:100A100021E00E94F40408951092420410924304CD
:100A200010926504109266040E94A80308950F9323
:100A30001F938C01862F0E9434018FE494E00E9462
:100A4000F6018AE294E00E94F101C8010E940C05BF
:100A50001F910F9108950E941705089508958091A0
:100A6000870490918804019690938804809387046A
:100A700008958091890490918A04019690938A0444
:100A80008093890408950F9383E994E060E040E047
:100A900020E000E00E94FD1B0F910895EF92FF926D
:100AA0000F931F93DF93CF9300D000D0CDB7DEB765
:100AB0008C017B018CE694E0B8010E94F0038CE687
:100AC00094E062E30E94AD048CE694E00E94F0049E
:100AD0008CE694E0B8010E94F0038CE694E0B80143
:100AE00046E050E00E9404058E010F5F1F4F07C0D3
:100AF0008CE694E00E940304F80181938F018CE658
:100B000094E00E94FA03892B99F78CE694E00E9406
:100B1000F004998180E02A8130E0822B932BF70149
:100B2000918380832B8130E0922F8827822B932B17
:100B3000938382839C8180E02D8130E0822B932BF4
:100B40009583848326960FB6F894DEBF0FBECDBF83
:100B5000CF91DF911F910F91FF90EF900895FF9239
:100B60000F931F939C01F62E0CE614E0C801B90107
:100B70000E94F003C8016DE20E94AD04C8016F2D10
:100B80000E94AD04C8010E94F0041F910F91FF90D4
:100B9000089582ED96E040E855E260E070E00E9442
:100BA00096188CE694E00E940C0584E061E00E94B7
:100BB000B31485E061E00E94B31486E061E00E9416
:100BC000B31487E061E00E94B3148DE061E00E94FD
:100BD000B31486E160E00E94B31487E160E00E94F4
:100BE000B31488E160E00E94B31489E160E00E94E0
:100BF000B3148AE160E00E94B3148BE160E00E94CC
:100C0000B31483E06FE275E042E050E00E942B10E5
:100C100082E069E375E042E050E00E942B1083E53A
:100C200090E060E00E94AF0583E590E060E10E9403
:100C3000AF0583E590E068E00E94AF050895CF938B
:100C4000DF930E943A130E94C90582ED96E061E0AD
:100C500070E04AE050E00E94051FC0E2D2E083E568
:100C600090E06DE874E00E944E058DB79EB70A973C
:100C70000FB6F8949EBF0FBE8DBFEDB7FEB731968D
:100C800080918B0490918C04ADB7BEB712969C9363
:100C90008E931197D383C28380918D0490918E049B
:100CA0009583848380918F049091900497838683A9
:100CB0008091910490919204918780870E94EB2DFE
:100CC0008DB79EB70A960FB6F8949EBF0FBE8DBF24
:100CD00060918B0470918C0482ED96E00E94371F26
:100CE000BECF8AE10E949915892BC1F48BE10E9445
:100CF0009915892B99F4089585E060E00E946615A6
:100D000084E06FEF70E00E94D31387E060E00E9400
:100D1000661586E060E070E00E94D3138AE10E94CD
:100D20009915892B99F0E8CF85E061E00E9466155E
:100D300084E06FEF70E00E94D31387E061E00E94CF
:100D4000661586E061EE70E00E94D3138AE10E948E
:100D50009915892B49F3E2CFCF92DF92EF92FF9260
:100D60000F931F93CF93DF9327C087E061E00E942A
:100D7000661586E06FEF70E00E94D31386E10E9453
:100D80009915892BC9F087E10E949915892BA1F04B
:100D900088E10E949915892B79F089E10E949915C3
:100DA000892B51F085E060E00E94661584E06FEFCA
:100DB00070E00E94D313D9CF83E30E949915892B49
:100DC000A1F2109279041092780410927B04109290
:100DD0007A04C1E5D2E096E1F92EC0907804D09073
:100DE0007904088119818F2D0E94991520E030E047
:100DF000892B11F421E030E0209FC001219F900D4C
:100E0000309F900D11248C0D9D1D9093790480933B
:100E10007804C0907A04D0907B04088519858F2DC2
:100E20000E94991520E030E0892B11F421E030E098
:100E3000209FC001219F900D309F900D11248C0D9B
:100E40009D1D90937B0480937A042296F3942AE16B
:100E5000F21619F686E10E949915892B29F089E18D
:100E60000E949915892B61F480E090E0A0E0B0E049
:100E70008093800490938104A0938204B0938304B0
:100E8000209178043091790440917A0450917B0448
:100E900042175307A4F580918404882371F01092BF
:100EA000840480E090E0A0E0B0E080938004909320
:100EB0008104A0938204B0938304E0908004F090B6
:100EC00081040091820410918304B901882777FD81
:100ED0008095982F0E940B0DA80197010E944D0A42
:100EE0000E94690D7093790460937804C801B7017A
:100EF0002DEC3CEC4CEC5DE30E944D0A37C024170E
:100F00003507E4F580918404882379F481E08093A7
:100F1000840480E090E0A0E0B0E0809380049093AF
:100F20008104A0938204B0938304E0908004F09045
:100F300081040091820410918304BA01882777FD0F
:100F40008095982F0E940B0DA80197010E941C0A02
:100F50000E94690D70937B0460937A04C801B70105
:100F60002DEC3CEC4CEC5DE30E941C0A6093800489
:100F7000709381048093820490938304E0908004B2
:100F8000F09081040091820410918304C801B7019C
:100F900020E030E046EC52E40E94200C18162CF4BD
:100FA00080E090E0A6ECB2E40EC0C801B70120E0FA
:100FB00030E046EC52EC0E94800C882364F480E020
:100FC00090E0A6ECB2EC8093800490938104A0930F
:100FD0008204B093830480917804909179048536DB
:100FE00091051CF084E690E005C08C599F4F34F4C5
:100FF0008CE99FEF909379048093780480917A0430
:1010000090917B04853691051CF084E690E005C044
:101010008C599F4F34F48CE99FEF90937B0480931D
:101020007A0482ED96E063E372E00E94371F6091DC
:1010300078047091790482ED96E04AE050E00E94D5
:10104000181F82ED96E06CE372E00E94371F6091FA
:101050007A0470917B0482ED96E04AE050E00E94B1
:10106000181F82ED96E065E472E00E94371F409100
:10107000800450918104609182047091830482ED18
:1010800096E022E030E00E94212080917804909147
:101090007904181619065CF485E061E00E94661573
:1010A000609178047091790465567F4F0EC0892B4A
:1010B00071F085E060E00E9466156BE970E0809158
:1010C000780490917904681B790B84E007C085E06F
:1010D00061E00E94661584E06BE970E00E94D31322
:1010E00080917A0490917B04181619065CF487E0CD
:1010F00061E00E94661560917A0470917B046556E8
:101100007F4F0EC0892B71F087E060E00E9466156A
:101110006BE970E080917A0490917B04681B790BF5
:1011200086E007C087E061E00E94661586E06BE913
:1011300070E00E94D313DF91CF911F910F91FF9028
:10114000EF90DF90CF900895EF92FF920F931F934F
:101150007B018C0120E030E040E05FE40E94500C15
:1011600088238CF0C801B70120E030E040E05FE464
:101170000E941C0A0E94690D9B01AC012050304066
:101180004040504806C0C801B7010E94690D9B014C
:10119000AC01B901CA011F910F91FF90EF90089522
:1011A000A0E0B0E0E6EDF8E00C94452CDC012B016A
:1011B000FA019C91923008F439C1EB0188818230A8
:1011C00008F433C1943069F4843009F02FC11196CA
:1011D0009C9111978981981709F428C1A0E7B2E082
:1011E00025C1843009F421C18230A9F4923009F07C
:1011F0001DC19A01AD0188E0EA010990AE01E90143
:1012000009929E018150C1F7E201898111969C915A
:101210008923818308C1923009F407C112962D9069
:101220003C901397EB018A819B811496AD90BD9001
:10123000CD90DC901797EC80FD800E811F8191018D
:10124000281B390BB90137FF04C066277727621BBB
:10125000730B603271050CF061C0121613066CF549
:1012600037014801062E04C09694879477946794BA
:101270000A94D2F721E030E040E050E004C0220FB1
:10128000331F441F551F6A95D2F72150304040400C
:1012900050402E213F214023512321153105410586
:1012A000510521F021E030E040E050E079018A0171
:1012B000E628F728082919293CC0232BD1F1260E4E
:1012C000371E35014601062E04C096948794779404
:1012D00067940A94D2F721E030E040E050E004C087
:1012E000220F331F441F551F6A95D2F721503040FB
:1012F000404050402A213B214C215D2121153105E0
:101300004105510521F021E030E040E050E0590175
:101310006A01A628B728C828D9280BC082159305CA
:101320002CF01C01AA24BB24650103C0EE24FF2479
:10133000870111969C91D20111968C91981709F40E
:1013400045C0992339F0A80197012A193B094C0996
:101350005D0906C0A60195012E193F09400B510BEE
:1013600057FD08C01182338222822483358346834D
:1013700057831DC081E08183338222828827992789
:10138000DC01821B930BA40BB50B84839583A6838E
:10139000B7830DC0220F331F441F551F248335838D
:1013A000468357838281938101979383828324812B
:1013B000358146815781DA01C9010197A109B10937
:1013C0008F5F9F4FAF4FBF4328F30BC09183338292
:1013D0002282EA0CFB1C0C1D1D1DE482F582068393
:1013E000178383E08083248135814681578157FFAD
:1013F0001AC0C901AA2797FDA095BA2F81709070D5
:10140000A070B0705695479537952795822B932BF2
:10141000A42BB52B84839583A683B7838281938184
:10142000019693838283DF0101C0D201CD01CDB744
:10143000DEB7E2E10C94612CA0E2B0E0E2E2FAE077
:101440000C94512C69837A838B839C832D833E83F8
:101450004F835887E9E0EE2EF12CEC0EFD1ECE01F5
:101460000196B7010E945A0F8E010F5E1F4FCE01E9
:101470000596B8010E945A0F8A8991E089278A8BC4
:10148000C701B801AE01475E5F4F0E94D0080E94BD
:10149000850EA096E6E00C946D2CA0E2B0E0E3E5AA
:1014A000FAE00C94512C69837A838B839C832D837F
:1014B0003E834F835887F9E0EF2EF12CEC0EFD1E92
:1014C000CE010196B7010E945A0F8E010F5E1F4F89
:1014D000CE010596B8010E945A0FC701B801AE01AE
:1014E000475E5F4F0E94D0080E94850EA096E6E0FE
:1014F0000C946D2CA0E2B0E0E0E8FAE00C94452CEE
:1015000069837A838B839C832D833E834F835887A3
:10151000CE010196BE01675F7F4F0E945A0FCE0138
:101520000596BE016F5E7F4F0E945A0F99859230DB
:1015300088F089898230C8F0943019F4823051F4EF
:1015400004C0843029F4923081F480E792E0C6C070
:10155000923049F420E09A858A89981321E02A87FD
:10156000CE010996BBC0823049F420E09A858A8971
:10157000981321E02A8BCE014196B0C02D843E8481
:101580004F8458886D887E888F88988CEE24FF243D
:101590008701AA24BB24650140E050E060E070E0D0
:1015A000E0E0F0E0C10181709070892BE9F0E60C79
:1015B000F71C081D191D9A01AB012A0D3B1D4C1D7E
:1015C0005D1D80E090E0A0E0B0E0E614F7040805BF
:1015D000190520F481E090E0A0E0B0E0BA01A90193
:1015E000480F591F6A1F7B1FAA0CBB1CCC1CDD1C9B
:1015F00097FE08C081E090E0A0E0B0E0A82AB92AF8
:10160000CA2ADB2A3196E032F10549F0660C771CD4
:10161000881C991C5694479437942794C3CFFA8515
:10162000EA892B893C898B859C85280F391F2E5F81
:101630003F4F17C0CA0181709070892B61F01695D9
:101640000795F794E79480E090E0A0E0B0E8E82AFE
:10165000F92A0A2B1B2B76956795579547952F5F8F
:101660003F4F77FDE7CF0CC0440F551F661F771F14
:1016700017FD4160EE0CFF1C001F111F2150304070
:10168000403090E0590790E0690790E4790760F3F3
:101690002B8F3C8FDB01CA018F779070A070B070E8
:1016A00080349105A105B10561F447FD0AC0E1143C
:1016B000F1040105110529F0405C5F4F6F4F7F4F2A
:1016C00040781A8EFE1711F081E08A8F4D8F5E8F61
:1016D0006F8F78A383E0898FCE0149960E94850E93
:1016E000A096E2E10C94612CA8E1B0E0EAE7FBE00F
:1016F0000C944D2C69837A838B839C832D833E834A
:101700004F835887B9E0EB2EF12CEC0EFD1ECE0175
:101710000196B7010E945A0F8E010F5E1F4FCE0136
:101720000596B8010E945A0F2985223008F47EC020
:101730003989323010F4B8017CC08A859A898927AA
:101740008A87243011F0223031F4231709F06EC05B
:1017500060E772E06EC0343039F41D861E861F8645
:10176000188A1C861B8604C0323021F484E08987E5
:10177000B7015FC02B853C858B899C89281B390B61
:101780003C872B87ED84FE840F851889AD88BE8841
:10179000CF88D88CEA14FB040C051D0540F4EE0C30
:1017A000FF1C001F111F215030403C872B8720E079
:1017B00030E040E050E080E090E0A0E0B0E460E0A5
:1017C00070E0EA14FB040C051D0540F0282B392BB2
:1017D0004A2B5B2BEA18FB080C091D09B695A79547
:1017E00097958795EE0CFF1C001F111F6F5F7F4FB1
:1017F0006F31710531F7DA01C9018F779070A070F0
:10180000B07080349105A105B10561F427FD0AC0CF
:10181000E114F1040105110529F0205C3F4F4F4F01
:101820005F4F20782D873E874F87588BBE01675FBB
:101830007F4FCB010E94850E6896EAE00C94692CDC
:10184000A8E1B0E0E6E2FCE00C94512C69837A83D5
:101850008B839C832D833E834F83588789E0E82EBA
:10186000F12CEC0EFD1ECE010196B7010E945A0F1D
:101870008E010F5E1F4FCE010596B8010E945A0FD0
:101880008985823040F08989823028F0C701B8010B
:101890000E94D20F01C08FEF6896E6E00C946D2C89
:1018A000A8E1B0E0E6E5FCE00C94512C69837A8372
:1018B0008B839C832D833E834F83588789E0E82E5A
:1018C000F12CEC0EFD1ECE010196B7010E945A0FBD
:1018D0008E010F5E1F4FCE010596B8010E945A0F70
:1018E0008985823040F08989823028F0C701B801AB
:1018F0000E94D20F01C08FEF6896E6E00C946D2C29
:10190000A8E1B0E0E6E8FCE00C94512C69837A830E
:101910008B839C832D833E834F83588789E0E82EF9
:10192000F12CEC0EFD1ECE010196B7010E945A0F5C
:101930008E010F5E1F4FCE010596B8010E945A0F0F
:101940008985823040F08989823028F0C701B8014A
:101950000E94D20F01C081E06896E6E00C946D2CE5
:10196000A8E1B0E0E6EBFCE00C94512C69837A83AB
:101970008B839C832D833E834F83588789E0E82E99
:10198000F12CEC0EFD1ECE010196B7010E945A0FFC
:101990008E010F5E1F4FCE010596B8010E945A0FAF
:1019A0008985823040F08989823028F0C701B801EA
:1019B0000E94D20F01C081E06896E6E00C946D2C85
:1019C000A8E1B0E0E6EEFCE00C94552C69837A8344
:1019D0008B839C832D833E834F835887CE01019652
:1019E000BE01675F7F4F0E945A0FCE010596BE0170
:1019F0006F5E7F4F0E945A0F8985823028F020E069
:101A000030E08989823010F421E030E0822F68963E
:101A1000E2E00C94712CA8E0B0E0E1E1FDE00C9470
:101A20004E2C9B01AC0183E08983DA01C901882730
:101A3000B7FD83959927AA27BB27B82E2115310515
:101A40004105510519F482E089833AC08823A9F041
:101A5000203080E0380780E0480780E8580729F404
:101A600060E070E080E09FEC30C0EE24FF2487014E
:101A7000E21AF30A040B150B02C079018A018EE108
:101A8000C82ED12CDC82CB82ED82FE820F83188798
:101A9000C801B7010E94360E01971816190684F482
:101AA000082E04C0EE0CFF1C001F111F0A94D2F771
:101AB000ED82FE820F831887C81AD90ADC82CB8296
:101AC000BA82CE0101960E94850E2896E9E00C9418
:101AD0006A2CACE0B0E0EFE6FDE00C94552C698395
:101AE0007A838B839C83CE010196BE016B5F7F4F0F
:101AF0000E945A0F8D81823061F1823050F1843022
:101B000021F48E81882351F12EC02F81388537FD35
:101B100020C06E812F3131051CF06623F9F023C0FF
:101B20008EE190E0821B930B29853A854B855C857D
:101B300004C056954795379527958A95D2F7662321
:101B4000B1F050954095309521953F4F4F4F5F4FE5
:101B50000EC020E030E040E050E009C02FEF3FEF42
:101B60004FEF5FE704C020E030E040E050E8B9010B
:101B7000CA012C96E2E00C94712CA8E0B0E0E3ECF2
:101B8000FDE00C944D2C7B018C01611571058105E4
:101B9000910519F482E0898360C083E089838EE136
:101BA000C82ED12CDC82CB82ED82FE820F83188777
:101BB000C801B7010E94360EFC013197F7FF3BC008
:101BC000222733272E1B3F0B57016801022E04C02A
:101BD000D694C794B794A7940A94D2F740E050E003
:101BE00060E070E081E090E0A0E0B0E004C0880F29
:101BF000991FAA1FBB1F2A95D2F70197A109B10906
:101C00008E219F21A023B1230097A105B10521F0CA
:101C100041E050E060E070E04A295B296C297D29B1
:101C20004D835E836F8378878EE190E08E1B9F0BE0
:101C30009C838B8312C0309781F00E2E04C0EE0C73
:101C4000FF1C001F111F0A94D2F7ED82FE820F8342
:101C50001887CE1ADF0ADC82CB821A82CE01019667
:101C60000E94850E2896EAE00C94692CEF92FF9270
:101C70000F931F937B018C0180E0E81680E0F8064B
:101C800081E0080780E0180788F48FEFE816F10478
:101C90000105110531F028F088E090E0A0E0B0E007
:101CA00017C080E090E0A0E0B0E012C080E0E8164D
:101CB00080E0F80680E0080781E0180728F088E156
:101CC00090E0A0E0B0E004C080E190E0A0E0B0E0EF
:101CD00020E230E040E050E0281B390B4A0B5B0B60
:101CE00004C016950795F794E7948A95D2F7F70103
:101CF000E858FD4F8081281B310941095109C9016C
:101D00001F910F91FF90EF900895DF92EF92FF9255
:101D10000F931F93FC01E480F58006811781D18029
:101D20008081823048F480E090E0A0E1B0E0E82AD1
:101D3000F92A0A2B1B2BA5C0843009F49FC08230DE
:101D400021F4EE24FF24870105C0E114F10401050C
:101D5000110519F4E0E0F0E096C0628173819FEF15
:101D6000623879070CF05BC022E83FEF261B370B87
:101D70002A3131052CF020E030E040E050E02AC06C
:101D8000B801A701022E04C076956795579547952F
:101D90000A94D2F781E090E0A0E0B0E004C0880FA0
:101DA000991FAA1FBB1F2A95D2F70197A109B10954
:101DB0008E219F21A023B1230097A105B10521F019
:101DC00081E090E0A0E0B0E09A01AB01282B392B34
:101DD0004A2B5B2BDA01C9018F779070A070B0702D
:101DE00080349105A105B10539F427FF09C0205CB5
:101DF0003F4F4F4F5F4F04C0215C3F4F4F4F5F4FEE
:101E0000E0E0F0E02030A0E03A07A0E04A07A0E4DC
:101E10005A0710F0E1E0F0E079018A0127C060384C
:101E2000710564F5FB01E158FF4FD801C7018F77B9
:101E30009070A070B07080349105A105B10539F49F
:101E4000E7FE0DC080E490E0A0E0B0E004C08FE3C6
:101E500090E0A0E0B0E0E80EF91E0A1F1B1F17FF7C
:101E600005C016950795F794E794319687E0169587
:101E70000795F794E7948A95D1F705C0EE24FF24DF
:101E80008701EFEFF0E06E2F679566276795902F3B
:101E90009F77D794DD24D7948E2F8695492F462B94
:101EA000582F5D29B701CA011F910F91FF90EF9044
:101EB000DF900895FC01DB01408151812281622F76
:101EC0006F7770E0221F2227221F9381892F880FAE
:101ED000822B282F30E0991F9927991F11969C93E8
:101EE000119721153105A9F54115510561057105B8
:101EF00011F482E037C082E89FEF13969C938E9393
:101F000012979A01AB0167E0220F331F441F551F40
:101F10006A95D1F783E08C930DC0220F331F441FC5
:101F2000551F12968D919C911397019713969C9330
:101F30008E931297203080E0380780E0480780E4D5
:101F4000580758F314962D933D934D935C93179730
:101F500008952F3F310579F441155105610571054B
:101F600019F484E08C93089564FF03C081E08C939E
:101F700012C01C9210C02F57304013963C932E93E2
:101F8000129783E08C9387E0440F551F661F771FDD
:101F90008A95D1F7706414964D935D936D937C93FD
:101FA000179708951F93DC01FB019C91923008F470
:101FB00047C08081823008F443C0943051F41196B8
:101FC0001C91843099F58181682F70E0611B710943
:101FD0003FC0843021F0923031F48230B9F18181F8
:101FE000882389F12DC011961C9111978230F1F050
:101FF00081811817D9F412962D913C911397828103
:1020000093818217930794F028173907BCF0149630
:102010008D919D910D90BC91A02D2481358146819B
:102020005781281739074A075B0718F4112341F035
:102030000AC082179307A407B50740F4112319F0CB
:1020400061E070E005C06FEF7FEF02C060E070E01C
:10205000CB011F910895883008F078C0E82FF0E098
:10206000EE0FFF1FE756FB4F718360838330D9F07B
:10207000843030F4813009F444C0823060F439C0D7
:10208000853051F18530D8F0863009F446C087306C
:1020900009F05CC04FC0809169008C7F842B8093D5
:1020A0006900E89A089580916900440F551F440F14
:1020B000551F837F842B80936900E99A089580914E
:1020C000690074E0440F551F7A95E1F78F7C842BEB
:1020D00080936900EA9A08958091690066E0440F50
:1020E000551F6A95E1F78F73842B80936900EB9AF3
:1020F000089580916A008C7F842B80936A00EC9A0B
:10210000089580916A00440F551F440F551F837F27
:10211000842B80936A00ED9A089580916A0024E0F0
:10212000440F551F2A95E1F78F7C842B80936A001A
:10213000EE9A089580916A0096E0440F551F9A9593
:10214000E1F78F73842B80936A00EF9A08958830AB
:1021500048F5833091F0843028F48130B1F082303A
:1021600050F411C0853069F0853048F0863079F040
:10217000873081F40EC0E8980DC0E9980BC0EA984A
:1021800009C0EB9807C0EC9805C0ED9803C0EE9825
:1021900001C0EF98E82FF0E0EE0FFF1FE756FB4F6E
:1021A0001182108208951F920F920FB60F920BB6F4
:1021B0000F9211242F933F934F935F936F937F93CD
:1021C0008F939F93AF93BF93EF93FF9380919D0461
:1021D00090919E04892B29F0E0919D04F0919E043A
:1021E0001995FF91EF91BF91AF919F918F917F9141
:1021F0006F915F914F913F912F910F900BBE0F9078
:102200000FBE0F901F9018951F920F920FB60F924E
:102210000BB60F9211242F933F934F935F936F93BD
:102220007F938F939F93AF93BF93EF93FF9380918F
:102230009F049091A004892B29F0E0919F04F091D4
:10224000A0041995FF91EF91BF91AF919F918F914C
:102250007F916F915F914F913F912F910F900BBEA6
:102260000F900FBE0F901F9018951F920F920FB6F0
:102270000F920BB60F9211242F933F934F935F93BE
:102280006F937F938F939F93AF93BF93EF93FF933E
:102290008091A1049091A204892B29F0E091A104DE
:1022A000F091A2041995FF91EF91BF91AF919F9189
:1022B0008F917F916F915F914F913F912F910F90EF
:1022C0000BBE0F900FBE0F901F9018951F920F928C
:1022D0000FB60F920BB60F9211242F933F934F938B
:1022E0005F936F937F938F939F93AF93BF93EF937E
:1022F000FF938091A3049091A404892B29F0E0918D
:10230000A304F091A4041995FF91EF91BF91AF91AF
:102310009F918F917F916F915F914F913F912F91FD
:102320000F900BBE0F900FBE0F901F9018951F922D
:102330000F920FB60F920BB60F9211242F933F936B
:102340004F935F936F937F938F939F93AF93BF93BD
:10235000EF93FF938091990490919A04892B29F02F
:10236000E0919904F0919A041995FF91EF91BF9132
:10237000AF919F918F917F916F915F914F913F911D
:102380002F910F900BBE0F900FBE0F901F901895BE
:102390001F920F920FB60F920BB60F9211242F932C
:1023A0003F934F935F936F937F938F939F93AF93DD
:1023B000BF93EF93FF9380919B0490919C04892B92
:1023C00029F0E0919B04F0919C041995FF91EF9105
:1023D000BF91AF919F918F917F916F915F914F913D
:1023E0003F912F910F900BBE0F900FBE0F901F903B
:1023F00018951F920F920FB60F920BB60F921124E1
:102400002F933F934F935F936F937F938F939F93FC
:10241000AF93BF93EF93FF938091A5049091A6048F
:10242000892B29F0E091A504F091A6041995FF915C
:10243000EF91BF91AF919F918F917F916F915F913C
:102440004F913F912F910F900BBE0F900FBE0F90A9
:102450001F9018951F920F920FB60F920BB60F9206
:1024600011242F933F934F935F936F937F938F9399
:102470009F93AF93BF93EF93FF938091A7049091A5
:10248000A804892B29F0E091A704F091A8041995DC
:10249000FF91EF91BF91AF919F918F917F916F913C
:1024A0005F914F913F912F910F900BBE0F900FBEF8
:1024B0000F901F9018951F920F920FB60F92112434
:1024C0002F933F938F939F93AF93BF938091AD04CE
:1024D0009091AE04A091AF04B091B0043091B104DA
:1024E0000196A11DB11D232F2D5F2D3720F02D57F3
:1024F0000196A11DB11D2093B1048093AD0490936A
:10250000AE04A093AF04B093B0048091A90490915D
:10251000AA04A091AB04B091AC040196A11DB11D19
:102520008093A9049093AA04A093AB04B093AC0445
:10253000BF91AF919F918F913F912F910F900FBEBF
:102540000F901F9018958FB7F8942091AD0430919B
:10255000AE044091AF045091B0048FBFB901CA01DD
:1025600008959FB7F8942091A9043091AA0440914E
:10257000AB045091AC0486B5A89B06C08F3F21F0F8
:102580002F5F3F4F4F4F5F4F9FBF542F432F322F2F
:102590002227280F311D411D511D82E0220F331FBC
:1025A000441F551F8A95D1F7B901CA0108959B01AF
:1025B000AC017FB7F8948091A9049091AA04A091EE
:1025C000AB04B091AC0466B5A89B05C06F3F19F091
:1025D0000196A11DB11D7FBFBA2FA92F982F882763
:1025E000860F911DA11DB11D62E0880F991FAA1FC2
:1025F000BB1F6A95D1F7BC012DC0FFB7F89480913D
:10260000A9049091AA04A091AB04B091AC04E6B5E2
:10261000A89B05C0EF3F19F00196A11DB11DFFBF9A
:10262000BA2FA92F982F88278E0F911DA11DB11D9C
:10263000E2E0880F991FAA1FBB1FEA95D1F7861BFE
:10264000970B885E9340C8F2215030404040504084
:1026500068517C4F211531054105510571F60895EA
:10266000019739F0880F991F880F991F02970197DA
:10267000F1F70895789484B5826084BD84B5816053
:1026800084BD85B5826085BD85B5816085BDEEE67A
:10269000F0E0808181608083E1E8F0E01082808159
:1026A00082608083808181608083E0E8F0E08081C7
:1026B00081608083E1EBF0E0808184608083E0EBE7
:1026C000F0E0808181608083E1E9F0E080818260D8
:1026D0008083808181608083E0E9F0E08081816097
:1026E0008083E1EAF0E08081826080838081816084
:1026F0008083E0EAF0E0808181608083E1E2F1E0C4
:10270000808182608083808181608083E0E2F1E06B
:10271000808181608083EAE7F0E08081846080834B
:1027200080818260808380818160808380818068F5
:1027300080831092C1000895809378030895382F04
:10274000863308F0365320917B00832F869586953B
:10275000869590E08170907043E0880F991F4A95AC
:10276000E1F7277F282B20937B0037708091780337
:102770008295880F880F807C832B80937C008091CA
:102780007A00806480937A0080917A0086FDFCCF85
:102790002091780040917900942F80E030E0282B40
:1027A000392BC90108951F93CF93DF93182FEB01A5
:1027B00061E00E94B314209709F4CAC0CF3FD1054D
:1027C00009F4C9C0E12FF0E0E254FE4F8491893052
:1027D00009F466C08A30B0F48430F1F1853040F4F9
:1027E000823059F1833070F5813009F0AEC020C0DD
:1027F000873009F443C0883008F048C0863009F0BB
:10280000A4C034C08D3009F478C08E3038F48B30D9
:1028100009F45AC08C3008F066C04CC0803109F40D
:1028200080C0813109F487C08F3009F08EC06FC03D
:1028300084B5806884BDC7BD92C084B5806284BD04
:10284000C8BD8DC080918000806880938000D09347
:102850008900C093880083C080918000806280934B
:102860008000D0938B00C0938A0079C08091B00023
:1028700080688093B000C093B30071C08091B000B5
:1028800080628093B000C093B40069C080919000D2
:10289000806880939000D0939900C09398005FC0A7
:1028A00080919000806280939000D0939B00C093B1
:1028B0009A0055C080919000886080939000D093DA
:1028C0009D00C0939C004BC08091A00080688093C5
:1028D000A0008091A0008F7B8093A000D093A900DE
:1028E000C093A8003CC08091A00080628093A000AB
:1028F000D093AB00C093AA0032C08091A000886042
:102900008093A000D093AD00C093AC0028C080910C
:102910002001806880932001D0932901C093280171
:102920001EC080912001806280932001D0932B01F2
:10293000C0932A0114C080912001886080932001F7
:10294000D0932D01C0932C010AC0C038D1051CF4CE
:10295000812F60E002C0812F61E00E946615DF9147
:10296000CF911F910895CF93DF93482F50E0CA0174
:1029700088589E4FFC0134914E5C5E4FFA01849161
:10298000882369F190E0880F991FFC01EC51FF4FFB
:10299000A591B491FC01E250FF4FC591D4916623FB
:1029A00051F42FB7F8948C91932F909589238C93A1
:1029B000888189230BC0623061F42FB7F8948C9121
:1029C000932F909589238C938881832B88832FBFA5
:1029D00006C09FB7F8948C91832B8C939FBFDF9197
:1029E000CF910895893009F449C08A30A0F4843029
:1029F00051F1853040F4823079F1833000F5813037
:102A000009F063C026C0873079F1883098F58630A8
:102A100009F05BC025C08D3009F442C08E3028F427
:102A20008B30B1F18C30C0F52DC0803109F442C03B
:102A3000813109F445C08F3009F047C037C080911B
:102A400080008F7703C0809180008F7D809380000D
:102A5000089584B58F7702C084B58F7D84BD0895B5
:102A60008091B0008F7703C08091B0008F7D8093FC
:102A7000B0000895809190008F7707C080919000FA
:102A80008F7D03C080919000877F80939000089590
:102A90008091A0008F7707C08091A0008F7D03C038
:102AA0008091A000877F8093A000089580912001ED
:102AB0008F7703C0809120018F7D8093200108953E
:102AC00080912001877F809320010895FF920F93CA
:102AD0001F93F62E482F50E0CA0182549E4FFC01EE
:102AE0002491CA0188589E4FFC0114914E5C5E4FA0
:102AF000FA0104910023C9F0222319F0822F0E94C9
:102B0000F214E02FF0E0EE0FFF1FE250FF4FA5910F
:102B1000B4919FB7F894FF2021F48C9110958123F4
:102B200002C08C91812B8C939FBF1F910F91FF90BE
:102B300008950F931F93482F50E0CA0182549E4F6F
:102B4000FC012491CA0188589E4FFC0104914E5CFF
:102B50005E4FFA011491112319F420E030E015C002
:102B6000222319F0822F0E94F214812F90E0880F07
:102B7000991F885E9E4FFC01A591B4918C9120E035
:102B800030E0802311F021E030E0C9011F910F9166
:102B9000089508951F920F920FB60F920BB60F92E1
:102BA00011242F933F934F938F939F93EF93FF9312
:102BB0008091C00082FD1DC04091C6002091F204AA
:102BC0003091F3042F5F3F4F2F7330708091F404E6
:102BD0009091F5042817390771F0E091F204F09113
:102BE000F304EE54FB4F40833093F3042093F2043C
:102BF00002C08091C600FF91EF919F918F914F91FC
:102C00003F912F910F900BBE0F900FBE0F901F9012
:102C1000189508951F920F920FB60F920BB60F9250
:102C200011242F933F934F938F939F93EF93FF9391
:102C30008091C80082FD1DC04091CE0020917A0590
:102C400030917B052F5F3F4F2F73307080917C0553
:102C500090917D052817390771F0E0917A05F09180
:102C60007B05E65CFA4F408330937B0520937A0521
:102C700002C08091CE00FF91EF919F918F914F9173
:102C80003F912F910F900BBE0F900FBE0F901F9092
:102C9000189508951F920F920FB60F920BB60F92D0
:102CA00011242F933F934F938F939F93EF93FF9311
:102CB0008091D00082FD1DC04091D6002091020677
:102CC000309103062F5F3F4F2F73307080910406C1
:102CD000909105062817390771F0E0910206F091EE
:102CE0000306EE53FA4F4083309303062093020607
:102CF00002C08091D600FF91EF919F918F914F91EB
:102D00003F912F910F900BBE0F900FBE0F901F9011
:102D1000189508951F920F920FB60F920BB60F924F
:102D200011242F933F934F938F939F93EF93FF9390
:102D30008091300182FD1DC04091360120918A06AC
:102D400030918B062F5F3F4F2F73307080918C0630
:102D500090918D062817390771F0E0918A06F0915D
:102D60008B06E65BF94F408330938B0620938A06EF
:102D700002C080913601FF91EF919F918F914F9109
:102D80003F912F910F900BBE0F900FBE0F901F9091
:102D90001895E091DE06F091DF06E05CFF4F81912F
:102DA000919120813181821B930B8F739070892BBD
:102DB00011F00E94C915E0910007F0910107E05C55
:102DC000FF4F8191919120813181821B930B8F73F1
:102DD0009070892B11F00E940916E0912207F09162
:102DE0002307E05CFF4F8191919120813181821B0B
:102DF000930B8F739070892B11F00E944916E0910C
:102E00004407F0914507E05CFF4F8191919120814B
:102E10003181821B930B8F739070892B11F00E946C
:102E2000891608951F920F920FB60F920BB60F924C
:102E300011242F933F938F939F93EF93FF932091B0
:102E4000360530913705809138059091390528175E
:102E5000390731F48091C1008F7D8093C10014C087
:102E6000E0913805F0913905EA50FB4F20818091BF
:102E700038059091390501968F73907090933905BC
:102E8000809338052093C600FF91EF919F918F9119
:102E90003F912F910F900BBE0F900FBE0F901F9080
:102EA00018951F920F920FB60F920BB60F92112426
:102EB0002F933F938F939F93EF93FF932091BE05A2
:102EC0003091BF058091C0059091C1052817390741
:102ED00031F48091C9008F7D8093C90014C0E091C6
:102EE000C005F091C105E258FA4F20818091C005DC
:102EF0009091C10501968F7390709093C105809356
:102F0000C0052093CE00FF91EF919F918F913F914B
:102F10002F910F900BBE0F900FBE0F901F90189522
:102F20001F920F920FB60F920BB60F9211242F9390
:102F30003F938F939F93EF93FF9320914606309199
:102F4000470680914806909149062817390731F4C1
:102F50008091D1008F7D8093D10014C0E09148060C
:102F6000F0914906EA5FF94F2081809148069091DF
:102F7000490601968F739070909349068093480696
:102F80002093D600FF91EF919F918F913F912F91C8
:102F90000F900BBE0F900FBE0F901F9018951F92B1
:102FA0000F920FB60F920BB60F9211242F933F93EF
:102FB0008F939F93EF93FF932091CE063091CF068E
:102FC0008091D0069091D1062817390731F480916D
:102FD00031018F7D8093310114C0E091D006F091D2
:102FE000D106E257F94F20818091D0069091D10609
:102FF00001968F7390709093D1068093D0062093A2
:103000003601FF91EF919F918F913F912F910F90FA
:103010000BBE0F900FBE0F901F9018958F929F922E
:10302000AF92BF92CF92DF92EF92FF920F931F93D6
:10303000DF93CF93CDB7DEB7FC011382128288EE07
:1030400093E0A0E0B0E084839583A683B78383E810
:1030500093E0918380837587648757874687318B98
:10306000208B138B028BF58AE48AD78AC68AB18EAD
:10307000A08E938E828E8889848F8989858F8A8994
:10308000868F8B89878F8C8980A3CF91DF911F9149
:103090000F91FF90EF90DF90CF90BF90AF909F90F7
:1030A0008F9008958F929F92AF92BF92CF92DF92AE
:1030B000EF92FF920F931F93DF93CF93CDB7DEB7BD
:1030C000FC011382128288EE93E0A0E0B0E08483DA
:1030D0009583A683B78383E893E091838083758784
:1030E000648757874687318B208B138B028BF58A39
:1030F000E48AD78AC68AB18EA08E938E828E888902
:10310000848F8989858F8A89868F8B89878F8C891F
:1031100080A3CF91DF911F910F91FF90EF90DF90EF
:10312000CF90BF90AF909F908F900895AF92BF9235
:10313000DF92EF92FF920F931F93CF93DF93EC01F7
:103140007A018B01DD24403081EE580780E068076A
:1031500080E0780711F0DD24D39491E0A92EB12C02
:10316000EC89FD89DD2069F0C50108A002C0880F47
:10317000991F0A94E2F7808360E079E08DE390E0A4
:1031800005C0108260E874E88EE190E0A801970124
:103190000E94232C21503040404050405695479586
:1031A0003795279580E12030380720F0DD2011F099
:1031B000DD24D6CFE889F9893083EA89FB89208329
:1031C00019A2EE89FF89408121E030E0C9010C8C11
:1031D00002C0880F991F0A94E2F7482B4083EE89BA
:1031E000FF894081C9010D8C02C0880F991F0A9484
:1031F000E2F7482B4083EE89FF894081C9010E8C9C
:1032000002C0880F991F0A94E2F7482B4083EE8989
:10321000FF8980810F8C02C0220F331F0A94E2F7CE
:10322000209528232083DF91CF911F910F91FF904C
:10323000EF90DF90BF90AF900895AF92BF92CF9282
:10324000DF92EF92FF920F931F93CF93DF93EC01E6
:103250007A018B01C22EDD24403081EE580780E0D8
:10326000680780E0780711F0DD24D39471E0A72E81
:10327000B12CEC89FD89DD2069F0C50108A002C0F0
:10328000880F991F0A94E2F7808360E079E08DE36C
:1032900090E005C0108260E874E88EE190E0A8013B
:1032A00097010E94232C21503040404050405695B9
:1032B00047953795279580E12030380720F0DD20AD
:1032C00011F0DD24D6CFE889F9893083EA89FB89BA
:1032D0002083E88DF98DC082EE89FF89408121E04D
:1032E00030E0C9010C8C02C0880F991F0A94E2F7E4
:1032F000482B4083EE89FF894081C9010D8C02C0B3
:10330000880F991F0A94E2F7482B4083EE89FF89C2
:103310004081C9010E8C02C0880F991F0A94E2F700
:10332000482B4083EE89FF8980810F8C02C0220FD9
:10333000331F0A94E2F7209528232083DF91CF9151
:103340001F910F91FF90EF90DF90CF90BF90AF90C3
:103350000895CF93DF93DC011E968D919C911F976A
:10336000EC01C05CDF4FFC01EE5BFF4F288139812F
:103370008081918128173907C9F75696ED91FC9104
:103380005797408121E030E0C9015C960C905C9732
:1033900002C0880F991F0A94E2F7809584238083E6
:1033A0005696ED91FC9157974081C9015D960C901E
:1033B0005D9702C0880F991F0A94E2F780958423D5
:1033C00080835696ED91FC9157974081C9015E9696
:1033D0000C905E9702C0880F991F0A94E2F78095BF
:1033E000842380835696ED91FC91579780815F9658
:1033F0000C905F9702C0220F331F0A94E2F72095CA
:10340000282320831C96ED91FC911D97EE5BFF4FC6
:103410008081918192938293DF91CF910895DC0115
:103420001C96ED91FC911D97E05CFF4F219131912D
:1034300080819181281B390B2F733070C901089549
:10344000DC011C96ED91FC911D97E05CFF4F208103
:103450003181E054F040DF01AE5BBF4F8D919C9114
:1034600011972817390719F42FEF3FEF07C08D91F7
:103470009C91E80FF91F8081282F30E0C901089541
:10348000DC011C96ED91FC911D97E05CFF4F2081C3
:103490003181E054F040DF01AE5BBF4F8D919C91D4
:1034A00011972817390719F42FEF3FEF10C08D91AE
:1034B0009C911197E80FF91F20818D919C91119794
:1034C00001968F73907011969C938E9330E0C90192
:1034D0000895DC0191968C919197882339F0549648
:1034E000ED91FC915597808186FFF9CF91961C92C2
:1034F0000895CF93DF93EC01EE85FF85E05CFF4FED
:1035000020813181E054F0402F5F3F4F2F733070A6
:10351000DF01AE5BBF4F8D919C9111972817390742
:10352000D1F3E05CFF4F80819181E054F040E80FDF
:10353000F91F6083EE85FF85E05CFF4F31832083B8
:10354000EE89FF89208181E090E00F8C02C0880F16
:10355000991F0A94E2F7282B208381E089A3EC8944
:10356000FD8980818064808381E090E0DF91CF914C
:10357000089581E008951F931092D5061092D40605
:1035800028EE33E040E050E02093D6063093D70693
:103590004093D8065093D90663E873E07093D3063E
:1035A0006093D20682EB94E09093DF068093DE0670
:1035B00086EF94E09093E1068093E00685EC90E03E
:1035C0009093E3068093E20684EC90E09093E50606
:1035D0008093E40680EC90E09093E7068093E60603
:1035E00081EC90E09093E9068093E80682EC90E00D
:1035F0009093EB068093EA0686EC90E09093ED06BC
:103600008093EC0614E01093EE06B3E0B093EF065F
:10361000A7E0A093F006F5E0F093F106E1E0E09377
:10362000F2061092F7061092F6062093F8063093F1
:10363000F9064093FA065093FB067093F5066093E3
:10364000F4068AE395E090930107809300078EE7E4
:1036500095E090930307809302078DEC90E09093A0
:103660000507809304078CEC90E090930707809304
:10367000060788EC90E0909309078093080789EC8F
:1036800090E090930B0780930A078AEC90E0909368
:103690000D0780930C078EEC90E090930F078093BA
:1036A0000E0710931007B0931107A0931207F09321
:1036B0001307E0931407109219071092180720932C
:1036C0001A0730931B0740931C0750931D077093F4
:1036D00017076093160782EC95E090932307809379
:1036E000220786E096E0909325078093240785EDD6
:1036F00090E0909327078093260784ED90E09093C5
:1037000029078093280780ED90E090932B07809302
:103710002A0781ED90E090932D0780932C0782ED8E
:1037200090E090932F0780932E0786ED90E0909382
:1037300031078093300710933207B0933307A0937B
:103740003407F0933507E093360710923B07109249
:103750003A0720933C0730933D0740933E07509330
:103760003F0770933907609338078AE496E0909397
:103770004507809344078EE896E09093470780932F
:10378000460785E391E0909349078093480784E3D7
:1037900091E090934B0780934A0780E391E09093E8
:1037A0004D0780934C0781E391E090934F078093FE
:1037B0004E0782E391E0909351078093500786E390
:1037C00091E0909353078093520710935407B0935E
:1037D0005507A0935607F0935707E09358071F919A
:1037E00008950F93FC0183EA93E0918380836283C1
:1037F0004383248305830F9108950F93FC0183EA8B
:1038000093E09183808362834383248305830F91B4
:10381000089583EA93E090935B0780935A07109290
:103820005C0710925D0710925E0710925F07089583
:103830008F929F92AF92BF92CF92DF92EF92FF92C0
:103840000F931F93CF93DF934C016B017C01AA244C
:10385000BB24C0E0D0E0C601F70162814AE050E03D
:103860000E94811E8C01C6016EE20E94371D080F66
:10387000191FA00EB11E21960894E11CF11CC33043
:10388000D10549F7C601F40165814AE050E00E9484
:10389000811E9501280F391FC901DF91CF911F911A
:1038A0000F91FF90EF90DF90CF90BF90AF909F90DF
:1038B0008F9008959C012E5F3F4FCB01B90144E0EA
:1038C00050E00E94C12C9C0180E0232B09F481E090
:1038D0000895DF93CF9300D00F92CDB7DEB7FC01F0
:1038E00042835383648375830F900F900F900F90E2
:1038F000CF91DF9108959C01FB0180819181A2818C
:10390000B381F90182839383A483B583C9010895A8
:103910009C01FB0183EA93E0D9018D939C93808104
:103920009181A281B381F90182839383A483B583BA
:1039300008959C01FB0183EA93E0D9018D939C9348
:1039400080819181A281B381F90182839383A483D1
:10395000B5830895DF93CF9300D00F92CDB7DEB734
:10396000FC0183EA93E091838083428353836483E1
:1039700075830F900F900F900F90CF91DF91089566
:10398000DF93CF9300D00F92CDB7DEB7FC0183EA6F
:1039900093E09183808342835383648375830F9084
:1039A0000F900F900F90CF91DF910895FC0183EA63
:1039B00093E091838083128213821482158208958A
:1039C000FC0183EA93E09183808312821382148244
:1039D00015820895CF92DF92EF92FF920F931F937B
:1039E000CF93DF937C016B018A01C0E0D0E00FC070
:1039F000D6016D916D01D701ED91FC910190F0819F
:103A0000E02DC7011995C80FD91F015010400115AD
:103A1000110571F7CE01DF91CF911F910F91FF90AA
:103A2000EF90DF90CF900895EF92FF920F931F9346
:103A3000CF93DF937C018B01C0E0D0E0F8010F5FF2
:103A40001F4F6491662359F0D701ED91FC910190CD
:103A5000F081E02DC7011995C80FD91FEFCFCE0116
:103A6000DF91CF911F910F91FF90EF900895DC01AE
:103A7000ED91FC910190F081E02D199508959C0144
:103A8000DB01ED91FC910190F081E02DCB01B901BA
:103A900019950895EF92FF920F931F938C01DC010B
:103AA000ED91FC910190F081E02D6DE019957C0184
:103AB000D801ED91FC910190F081E02DC8016AE000
:103AC00019959C012E0D3F1DC9011F910F91FF906B
:103AD000EF900895EF92FF920F931F937C010E9445
:103AE000141D8C01C7010E944A1D9C01200F311F2B
:103AF000C9011F910F91FF90EF900895EF92FF92EF
:103B00000F931F937C01DC01ED91FC910190F081FA
:103B1000E02D19958C01C7010E944A1D080F191F3D
:103B2000C8011F910F91FF90EF900895EF92FF92BF
:103B30000F931F937C01DB01ED91FC910190F081CB
:103B4000E02DCB01B70119958C01C7010E944A1DD8
:103B5000080F191FC8011F910F91FF90EF90089552
:103B6000CF93DF93EC016115710519F420E030E08B
:103B70000FC0DB010D900020E9F71197A61BB70BD2
:103B8000E881F9810280F381E02DAD0119959C0156
:103B9000C901DF91CF9108954F925F927F928F92EA
:103BA0009F92AF92BF92CF92DF92EF92FF920F93CC
:103BB0001F93DF93CF93CDB7DEB7A1970FB6F894DD
:103BC000DEBF0FBECDBF2C01742ECB01223008F416
:103BD0002AE019A231E2C32ED12CCC0EDD1E822E9A
:103BE0009924AA24BB24672D752FA50194010E9456
:103BF000232C79018A01C801B701A50194010E9413
:103C0000042C472D461B0894C108D1084A3014F4EF
:103C1000405D01C0495CF6014083E114F1040105F7
:103C2000110521F07E2C5F2DC801DDCFC201B60148
:103C30000E94B01DA1960FB6F894DEBF0FBECDBF97
:103C4000CF91DF911F910F91FF90EF90DF90CF9078
:103C5000BF90AF909F908F907F905F904F9008950E
:103C6000DC012115310541F4ED91FC910190F081C9
:103C7000E02D642F199508950E94CC1D0895EF92B0
:103C8000FF920F931F937C010E94301E8C01C7018D
:103C90000E944A1D9C01200F311FC9011F910F91E5
:103CA000FF90EF900895EF92FF920F931F939A0168
:103CB0007B0100E010E0B801A7010E94301E1F91B7
:103CC0000F91FF90EF900895CF92DF92EF92FF92C5
:103CD0000F931F936C017B019A0100E010E0B80183
:103CE000A7010E94301E8C01C6010E944A1D080FC8
:103CF000191FC8011F910F91FF90EF90DF90CF9097
:103D00000895EF92FF920F931F939A01E62EFF24DE
:103D100000E010E0B801A7010E94301E1F910F9132
:103D2000FF90EF900895CF92DF92EF92FF920F9362
:103D30001F936C01E62E9A01FF2400E010E0B80109
:103D4000A7010E94301E8C01C6010E944A1D080F67
:103D5000191FC8011F910F91FF90EF90DF90CF9036
:103D60000895CF92DF92EF92FF920F931F93CF931C
:103D7000DF93EC016A017B012115310541F4E881F3
:103D8000F9810190F081E02D642F19951FC02A3030
:103D90003105D1F477FF17C0E881F9810190F081F6
:103DA000E02D6DE219958C0144275527BA014C1975
:103DB0005D096E097F09CE012AE00E94CC1D9801A1
:103DC000280F391F04C02AE00E94CC1D9C01C901A4
:103DD000DF91CF911F910F91FF90EF90DF90CF90E7
:103DE0000895EF92FF920F931F937C010E94B11EE2
:103DF0008C01C7010E944A1D9C01200F311FC9017F
:103E00001F910F91FF90EF900895EF92FF920F9303
:103E10001F937B019A010027F7FC0095102FB80132
:103E2000A7010E94B11E1F910F91FF90EF9008957E
:103E3000CF92DF92EF92FF920F931F936C017B0161
:103E40009A010027F7FC0095102FB801A7010E94E6
:103E5000B11E8C01C6010E944A1D080F191FC8011E
:103E60001F910F91FF90EF90DF90CF9008950E94E7
:103E7000B01D08957F928F929F92AF92BF92CF9282
:103E8000DF92EF92FF920F931F93CF93DF934C013A
:103E90007A018B01722ECB01BA01A80197010E9411
:103EA000E00C882321F0C40161E672E021C0C0E08B
:103EB000D0E057016801E894D7F8C601B5012FEFAB
:103EC0003FEF4FE75FE70E94E00C882351F4C60103
:103ED000B5012FEF3FEF4FE75FE70E94B00C1816D8
:103EE00014F0C1E0D0E0219739F0C40165E672E03A
:103EF0000E94B01DEC0193C0C801B7012FEF3FEF46
:103F00004FE75FE40E94200C181654F0C801B70177
:103F10002FEF3FEF4FE75FEC0E94800C882324F4E3
:103F2000C40169E672E0E4CFC801B70120E030E0E7
:103F300040E050E00E94800C87FD03C0C0E0D0E06C
:103F40000EC0D401ED91FC910190F081E02DC401EF
:103F50006DE21995EC0117FB109517F9109520E00B
:103F600030E040E05FE3DD240BC0CA01B90120E08E
:103F700030E040E251E40E94740B9B01AC01D39409
:103F8000D71498F3C801B7010E944D0A5B016C0178
:103F90000E94A4087B018C01C401B801A7012AE09A
:103FA00030E00E94301EC80FD91F772039F0C401BD
:103FB0006DE672E00E94B01DC80FD91FC801B7019D
:103FC0000E94BD0D9B01AC01C601B5010E941C0AF7
:103FD00024C020E030E040E251E40E947A0A7B01F4
:103FE0008C010E94690D5B016C01CC24B7FCC0946C
:103FF000DC2CC401B601A5012AE030E00E94B11E0C
:10400000C80FD91FC601B5010E940B0D9B01AC0161
:10401000C801B7010E941C0A7A947720D1F6CE011C
:10402000DF91CF911F910F91FF90EF90DF90CF9094
:10403000BF90AF909F908F907F9008950E943A1FFD
:104040000895EF92FF920F931F937C010E943A1FF5
:104050008C01C7010E944A1D080F191FC8011F913A
:104060000F91FF90EF900895EF92FF920F931F939F
:104070007C010E94B01D8C01C7010E944A1D080FDF
:10408000191FC8011F910F91FF90EF900895AF92F3
:10409000BF92CF92DF92EF92FF920F931F93CF9335
:1040A000DF935C016B01EE24FF24C0E0D0E010C080
:1040B000D501ED91FC9100811181C601BE010E94E4
:1040C000C120682FC501F8011995E80EF91E219647
:1040D000F60184819581C817D90750F3C701DF9194
:1040E000CF911F910F91FF90EF90DF90CF90BF90F5
:1040F000AF900895EF92FF920F931F937C010E945F
:1041000047208C01C7010E944A1D9C01200F311FCE
:10411000C9011F910F91FF90EF900895FC018481D8
:1041200095816817790748F40190F081E02D309768
:1041300021F0E60FF71F8081089580E00895FC01CB
:10414000848195816817790730F40190F081E02D22
:10415000E60FF71F40830895FC019B018481958140
:104160006817790728F4608171816115710529F458
:104170001092600760E677E002C0620F731FCB0108
:104180000895FC01848195816817790748F40190AE
:10419000F081E02D309721F0E60FF71F8081089520
:1041A00080E00895FC010190F081E02D309729F422
:1041B0000895861709F44083319680818823C9F7D2
:1041C0000895FC0180819181009729F420E030E07E
:1041D00040E050E004C00E94822C9B01AC01B90178
:1041E000CA010895CF92DF92EF92FF920F931F932F
:1041F000CF93DF936C01DC01ED90FC901197E114FB
:10420000F10409F441C01496CD91DC9115972097E3
:10421000D9F1870102C00F5F1F4FF80180819927F4
:1042200087FD90950E94A92C892BA9F72197CE0D87
:10423000DF1D01C021978881992787FD90950E94F5
:10424000A92C892B19F0C017D107A0F7FE013196D0
:10425000E01BF10BD6011596FC93EE9314972D916C
:104260003C912017310728F4C901B801AF010E9421
:10427000CE2CD601ED91FC91119714968D919C91C5
:104280001597E80FF91F1082DF91CF911F910F91C1
:10429000FF90EF90DF90CF900895CF93DF93FC01D4
:1042A000C081D181209739F409C0992787FD909565
:1042B0000E94B92C899388818823B9F7DF91CF9127
:1042C0000895CF93DF93FC01C081D181209739F409
:1042D00009C0992787FD90950E94B12C8993888108
:1042E0008823B9F7DF91CF910895EF92FF920F9352
:1042F0001F93CF93DF93FC01DB018617970739F1FA
:104300002481358114968D919C9115972817390732
:1043100001F5232BE1F0E080F180CD91DC9113C019
:10432000992787FD90950E94B12C8C01888199274F
:1043300087FD90950E94B12C0817190751F4089435
:10434000E11CF11C2196F7018081882349F781E067
:1043500001C080E0DF91CF911F910F91FF90EF900E
:104360000895AF92BF92CF92DF92EF92FF920F9398
:104370001F93CF93DF93FC015B017A01DB0114965D
:104380002D913C9115972115310559F18481958125
:10439000009739F18217930720F14817590720F049
:1043A0007C010894E108F10800811181C801CFEF78
:1043B000DFEF6801CE0CDF1C10C0F5016081718158
:1043C0000E942C2D9C01009771F0801B910BE81628
:1043D000F90608F0EC01C9010196C816D90668F77C
:1043E00002C0CFEFDFEFCE01DF91CF911F910F9190
:1043F000FF90EF90DF90CF90BF90AF900895FC01B9
:10440000DB014481558114968D919C911597481B31
:10441000590BCF010E94B1210895CF93DF93FC0186
:10442000DB01848195814817590760F4C081D181EF
:104430006D917C91CE01840F951F0E942C2D9C01C3
:10444000009719F42FEF3FEF02C02C1B3D0BC90161
:10445000DF91CF91089540E050E00E940D22089531
:10446000DF92EF92FF920F931F93CF93DF93EC01B4
:104470008C819D8148175907C8F47A010894E11C82
:10448000F11CE881F981EE0DFF1DD08010820881BA
:104490001981772767FD7095C8010E94212D9C0125
:1044A0000E0D1F1DF801D082009719F4EFEFFFEFFA
:1044B00005C088819981F901E81BF90BCF01DF91D3
:1044C000CF911F910F91FF90EF90DF900895FC0125
:1044D00044815581415050400E9430220895CF932D
:1044E000DF93FC01848195814817590768F4C081E6
:1044F000D181772767FD7095CE01840F951F0E94AB
:10450000E92C9C01009719F42FEF3FEF02C02C1B00
:104510003D0BC901DF91CF91089540E050E00E942A
:104520006F2208950F931F93CF93DF93FC018B01AC
:1045300041155105F9F061157105E1F0848195810E
:104540002817390718F0FB01108214C04150504061
:10455000EC01C21BD30B4C175D0708F4EA01608124
:104560007181620F731FC801AE010E94122DC00F2E
:10457000D11F1882DF91CF911F910F910895FC01F7
:10458000DB012481358114964D915C911597241798
:104590003507A8F080819181009789F06D917C9119
:1045A0006115710561F0241B350B820F931F0E946A
:1045B000F42C9C0180E0232B19F481E0089580E025
:1045C0000895DC01FB0114968D919C911597892B20
:1045D00031F461157105A9F090E0808108C00D905B
:1045E000BC91A02D6115710529F490E08C91882370
:1045F00049F407C0CD010E94F42C9C0190E0232BCC
:1046000009F491E0892F0895CF93DF939C01FB017A
:10461000EC01A881B981109729F060817181611541
:104620007105D1F4C081D181209759F084819581A1
:10463000892B39F0888190E022273327281B390BFA
:1046400012C0109771F0F90184819581892B49F08E
:104650008C91282F30E007C0CD010E94F42C9C01E2
:1046600002C020E030E0C901DF91CF9108950E949F
:104670000423892F8095881F8827881F08950E940A
:10468000042320E0181619060CF021E0822F08956B
:104690000E94042320E0181619060CF421E0822F52
:1046A00008950E940423892F881F8827881F089552
:1046B000FC01DB012481358114968D919C91159725
:1046C0002817390711F020E007C0CF010E9404230A
:1046D00020E0892B09F421E0822F0895FC01DB0101
:1046E00014962D913C91159784819581821B930B93
:1046F00084179507A0F080819181009781F06D91DA
:104700007C916115710559F0840F951FA9010E94D4
:10471000042D9C0180E0232B19F481E0089580E0B2
:104720000895FC01DB012481358114968D919C91C3
:1047300015972817390710F480E00895CF0140E05D
:1047400050E00E946E2308950F931F93CF93DF9341
:10475000EC018B016F5F7F4F888199810E94232B31
:10476000009711F480E005C0998388831B830A8336
:1047700081E0DF91CF911F910F9108952F923F9289
:104780004F925F926F927F928F929F92AF92BF9261
:10479000CF92DF92EF92FF920F931F93CF93DF930D
:1047A0005C012B014A01DC0114960D911C911597B7
:1047B0000115110509F4D4C0FB01C480D580C114D2
:1047C000D10409F4CDC0DA0114966D907C90159750
:1047D0006C187D08FC01E080F1806114710491F097
:1047E0001BC0D4016C9111967C91119714964D9138
:1047F0005C9115978C2F0E94CE2CF401E480F580FB
:10480000EC0EFD1ED2016D917C91C7010E942C2DF2
:10481000EC01009731F7A4C077FE02C067012EC0FB
:10482000FB0120803180E8013CC08E010E191F0978
:10483000C601B701A8010E94CE2C0C0D1D1DD4018C
:104840006C9111967C91119714964D915C911597EE
:10485000C8010E94CE2CF401C480D580C00ED11EA8
:10486000D2011496ED90FC901597EC0EFD1EF5010B
:1048700084819581860D971D95838483D2016D91E6
:104880007C91C7010E942C2DEC01009771F6C601A6
:10489000B7010E94FD2C64C07B01EC0CFD1CC60D11
:1048A000D71DC701B1010E942C2DBC010097A1F7B3
:1048B000C017D10709F454C0F501828193818C1788
:1048C0009D0708F044C0C501BE010E94A4238823AF
:1048D000F1F546C0C501B201A9010E94B121EC0168
:1048E00097FD3EC0D5016D917C911197F2018481B5
:1048F00095818C0F9D1F680F791F14964D915C91C7
:104900001597481B590BCB01860D971D0E94D72C7C
:10491000D50114968D919C911597860D971D15962E
:104920009C938E931497ED91FC911197E80FF91FCA
:1049300010822D913C912C0F3D1FF40160817181FB
:1049400044815581C9010E94CE2C9E0105C0D5012C
:1049500014962D913C9115972150304037FFBACFD6
:10496000DF91CF911F910F91FF90EF90DF90CF904B
:10497000BF90AF909F908F907F906F905F904F907F
:104980003F902F900895CF93DF93EC018881998118
:10499000892B29F08A819B818617970760F4CE01C5
:1049A0000E94A423882341F08C819D81892B19F4D6
:1049B000E881F981108281E0DF91CF910895EF9233
:1049C000FF920F931F93CF93DF93EC017B016C81D8
:1049D0007D81E114F104C1F04115510599F08A017E
:1049E000060F171FB8010E94C324882369F088812D
:1049F00099812C813D81820F931FB7010E94FD2C6C
:104A00001D830C8381E001C080E0DF91CF911F9175
:104A10000F91FF90EF900895EF92FF920F931F93E5
:104A2000DF93CF93CDB7DEB72B970FB6F894DEBFE9
:104A30000FBECDBF7C01CB01BA018E010F5F1F4FAE
:104A4000A8012AE030E00E94B02DF801019000207A
:104A5000E9F73197E01BF10BC701B801AF010E94E4
:104A6000DF242B960FB6F894DEBF0FBECDBFCF91DB
:104A7000DF911F910F91FF90EF900895EF92FF92B9
:104A80000F931F93DF93CF93CDB7DEB72C970FB65D
:104A9000F894DEBF0FBECDBF7C01CB01BA018E0101
:104AA0000F5F1F4FA8012AE030E00E94672DF80138
:104AB00001900020E9F73197E01BF10BC701B80125
:104AC000AF010E94DF242C960FB6F894DEBF0FBE14
:104AD000CDBFCF91DF911F910F91FF90EF9008957F
:104AE000EF92FF920F931F93DF93CF9300D000D0EC
:104AF000CDB7DEB77C01CB018E010F5F1F4FB80130
:104B00004AE050E00E94D52DF80101900020E9F71D
:104B10003197E01BF10BC701B801AF010E94DF2400
:104B200026960FB6F894DEBF0FBECDBFCF91DF91B2
:104B30001F910F91FF90EF900895EF92FF920F93C6
:104B40001F93DF93CF93CDB7DEB727970FB6F894B7
:104B5000DEBF0FBECDBF7C01CB018E010F5F1F4FAB
:104B6000B8014AE050E00E94462DF8010190002073
:104B7000E9F73197E01BF10BC701B801AF010E94C3
:104B8000DF2427960FB6F894DEBF0FBECDBFCF91BE
:104B9000DF911F910F91FF90EF900895EF92FF9298
:104BA0000F931F93DF93CF9300D00F92CDB7DEB753
:104BB0007C01862F90E08E010F5F1F4FB8014AE005
:104BC00050E00E94462DF80101900020E9F731974E
:104BD000E01BF10BC701B801AF010E94DF240F9069
:104BE0000F900F900F90CF91DF911F910F91FF9039
:104BF000EF900895DF93CF930F920F92CDB7DEB76A
:104C000069831A82BE016F5F7F4F41E050E00E94CE
:104C1000DF240F900F90CF91DF91089561157105FA
:104C200011F480E00895DB010D900020E9F7119761
:104C3000A61BB70BAD010E94DF240895FB01608124
:104C40007181448155810E94DF240895CF93DF93C1
:104C5000EC0188819981009711F00E948B2A1982BA
:104C600018821D821C821B821A82DF91CF910895C7
:104C70000F931F93182F092F0E940C25882321F4CE
:104C8000812F902F0E942626812F902F1F910F9108
:104C900008950F931F93182F092F0E943E258823F4
:104CA00021F4812F902F0E942626812F902F1F9173
:104CB0000F9108950F931F93182F092F0E947025AD
:104CC000882321F4812F902F0E942626812F902F58
:104CD0001F910F9108950F931F93182F092F0E9472
:104CE0009D25882321F4812F902F0E942626812F35
:104CF000902F1F910F9108950F931F93182F092F35
:104D00000E94CE25882321F4812F902F0E942626F1
:104D1000812F902F1F910F9108950F931F93182F9C
:104D2000092F0E94FA25882321F4812F902F0E94B9
:104D30002626812F902F1F910F9108950F931F9377
:104D4000182F092F6115710561F0DB010D9000200E
:104D5000E9F71197A61BB70BAD010E94DF2488234A
:104D600021F4812F902F0E942626812F902F1F91B2
:104D70000F9108950F931F93182F092FFB01608146
:104D80007181448155810E94DF24882321F4812F81
:104D9000902F0E942626812F902F1F910F9108950A
:104DA000EF92FF920F931F93CF93DF93EC017B0160
:104DB0008A01BA010E94C324882321F4CE010E94F3
:104DC000262607C01D830C8388819981B7010E9424
:104DD000FD2CCE01DF91CF911F910F91FF90EF90AD
:104DE0000895CF93DF93EC01198218821B821A82F7
:104DF0001D821C821E826115710551F0DB010D9030
:104E00000020E9F71197A61BB70BAD010E94D02631
:104E1000DF91CF910895CF93DF93EC01198218822F
:104E20001B821A821D821C821E826115710551F03F
:104E3000DB010D900020E9F71197A61BB70BAD0120
:104E40000E94D026DF91CF9108950F931F93182FC2
:104E5000092F6115710559F0DB010D900020E9F76C
:104E60001197A61BB70BAD010E94D02602C00E946D
:104E70002626812F902F1F910F910895EF92FF9278
:104E80000F931F93DF93CF93CDB7DEB7A1970FB6E4
:104E9000F894DEBF0FBECDBF8C01FC0111821082E1
:104EA00013821282158214821682CB01BA017E010E
:104EB0000894E11CF11CA70130E00E94B02DC8014C
:104EC000B7010E942527A1960FB6F894DEBF0FBE4A
:104ED000CDBFCF91DF911F910F91FF90EF9008957B
:104EE000EF92FF920F931F93DF93CF93CDB7DEB76F
:104EF000A1970FB6F894DEBF0FBECDBF8C01FC01A9
:104F00001182108213821282158214821682CB01C2
:104F1000BA017E010894E11CF11CA70130E00E9457
:104F2000B02DC801B7010E942527A1960FB6F894AD
:104F3000DEBF0FBECDBFCF91DF911F910F91FF90CC
:104F4000EF900895EF92FF920F931F93DF93CF930B
:104F5000CDB7DEB7A2970FB6F894DEBF0FBECDBFB8
:104F60008C01FC011182108213821282158214823C
:104F70001682CB01BA017E010894E11CF11CA70145
:104F800030E00E94672DC801B7010E942527A29634
:104F90000FB6F894DEBF0FBECDBFCF91DF911F914A
:104FA0000F91FF90EF900895EF92FF920F931F9350
:104FB000DF93CF93CDB7DEB7A2970FB6F894DEBFDD
:104FC0000FBECDBF8C01FC011182108213821282B0
:104FD000158214821682CB01BA017E010894E11C6D
:104FE000F11CA70130E00E94672DC801B7010E94A3
:104FF0002527A2960FB6F894DEBF0FBECDBFCF9186
:10500000DF911F910F91FF90EF900895EF92FF9223
:105010000F931F93DF93CF93CDB7DEB761970FB692
:10502000F894DEBF0FBECDBF8C01CB01F801118219
:105030001082138212821582148216827E010894D5
:10504000E11CF11CB70150E00E94D52DC801B70149
:105050000E94252761960FB6F894DEBF0FBECDBF24
:10506000CF91DF911F910F91FF90EF900895EF92F4
:10507000FF920F931F93DF93CF93CDB7DEB7619766
:105080000FB6F894DEBF0FBECDBF8C01CB01F80187
:1050900011821082138212821582148216827E017E
:1050A0000894E11CF11CB70150E00E94D52DC80105
:1050B000B7010E94252761960FB6F894DEBF0FBE98
:1050C000CDBFCF91DF911F910F91FF90EF90089589
:1050D000EF92FF920F931F93DF93CF93CDB7DEB77D
:1050E00062970FB6F894DEBF0FBECDBF8C01CB0127
:1050F000F8011182108213821282158214821682A4
:105100007E010894E11CF11CB70150E00E94462D7D
:10511000C801B7010E94252762960FB6F894DEBF3A
:105120000FBECDBFCF91DF911F910F91FF90EF90F8
:105130000895EF92FF920F931F93DF93CF93CDB714
:10514000DEB762970FB6F894DEBF0FBECDBF8C01FD
:10515000CB01F8011182108213821282158214820F
:1051600016827E010894E11CF11CB70150E00E94F8
:10517000462DC801B7010E94252762960FB6F89404
:10518000DEBF0FBECDBFCF91DF911F910F91FF907A
:10519000EF900895EF92FF920F931F93DF93CF93B9
:1051A000CDB7DEB729970FB6F894DEBF0FBECDBFDF
:1051B0008C01862FF80111821082138212821582CF
:1051C0001482168290E07E010894E11CF11CB70164
:1051D00050E00E94D52DC801B7010E9425272996CD
:1051E0000FB6F894DEBF0FBECDBFCF91DF911F91F8
:1051F0000F91FF90EF900895EF92FF920F931F93FE
:10520000DF93CF93CDB7DEB729970FB6F894DEBF03
:105210000FBECDBF8C01862FF80111821082138240
:10522000128215821482168290E07E010894E11C9D
:10523000F11CB70150E00E94D52DC801B7010E94B2
:10524000252729960FB6F894DEBF0FBECDBFCF91AC
:10525000DF911F910F91FF90EF900895DF93CF930F
:105260000F920F92CDB7DEB7FC011182108213822C
:10527000128215821482168269831A82BE016F5FC0
:105280007F4F0E9425270F900F90CF91DF910895B7
:10529000DF93CF930F920F92CDB7DEB7FC0111824F
:1052A00010821382128215821482168269831A82F6
:1052B000BE016F5F7F4F0E9425270F900F90CF9107
:1052C000DF910895BF92CF92DF92EF92FF920F93FA
:1052D0001F93CF93DF93082FB92E6B017A01E90159
:1052E0002417350710F4EA017901802F9B2D6FE612
:1052F00072E00E94F126D60114968D919C9115972B
:105300008E159F05D0F08C179D0708F4EC01D6018F
:10531000ED91FC911197EC0FFD1F108110826D91A2
:105320007C916E0D7F1D802F9B2D0E942527D6011D
:10533000ED91FC91EC0FFD1F1083802F9B2DDF91D1
:10534000CF911F910F91FF90EF90DF90CF90BF9082
:1053500008950F931F938C01FB01248135810E94D6
:105360006229C8011F910F910895CF93DF93EC013B
:10537000FB018617970761F06081718161157105E6
:1053800029F0448155810E94D02602C00E94262621
:10539000CE01DF91CF910895FC011182108213821A
:1053A00012821582148216820E94B5290895FC018A
:1053B00011821082138212821582148216820E9438
:1053C000B5290895FC01808191810E948B2A08955E
:1053D000FC01808191810E948B2A08950F931F9375
:1053E000CF93DF93BC018230910510F462E070E04E
:1053F000E0916307F091640740E050E0A0E0B0E086
:1054000024C08081918186179707D0F0861797076F
:1054100071F482819381109729F013969C938E9357
:1054200012972CC0909364078093630727C041159F
:10543000510519F08417950718F48D01AC01EF019F
:10544000DF01828193819C01F9013097D1F64115EA
:105450005105F9F0CA01861B970B8430910580F441
:105460008A819B810115110521F0F80193838283C4
:1054700004C09093640780936307FE01329645C091
:10548000FE01E80FF91F6193719302979983888356
:105490003CC08091610790916207892B41F4809113
:1054A0007B0390917C039093620780936107409106
:1054B0007D0350917E034115510541F44DB75EB710
:1054C0008091790390917A03481B590B20916107D1
:1054D0003091620724173507B0F4CA01821B930B81
:1054E0008617970780F0AB014E5F5F4F84179507D3
:1054F00050F0420F531F5093620740936107F90128
:105500006193719302C0E0E0F0E0CF01DF91CF91B1
:105510001F910F910895CF93DF939C01009709F499
:105520008FC0EC0122971B821A82609163077091F1
:1055300064076115710581F488819981820F931F39
:1055400020916107309162072817390739F5D09308
:105550006207C093610774C0DB0140E050E0AC1704
:10556000BD0708F1BB83AA83FE0121913191E20FAF
:10557000F31FAE17BF0779F48D919C911197280FF7
:10558000391F2E5F3F4F3983288312968D919C914E
:1055900013979B838A834115510571F4D093640757
:1055A000C09363074DC012968D919C911397AD01E6
:1055B000009711F0DC01D3CFDA011396DC93CE9380
:1055C0001297FA0121913191E20FF31FCE17DF07F5
:1055D00069F488819981280F391F2E5F3F4FFA01A6
:1055E000318320838A819B8193838283E0E0F0E092
:1055F000DB0112968D919C911397009719F0BC01D5
:10560000FD01F6CFAB014E5F5F4FDB018D919C91A9
:10561000840F951F20916107309162072817390781
:1056200079F4309729F4109264071092630702C04E
:105630001382128242505040509362074093610798
:10564000DF91CF9108956F927F928F929F92AF9248
:10565000BF92CF92DF92EF92FF920F931F93CF935F
:10566000DF938C01009729F4CB010E94EE298C0175
:10567000BBC08EEFE82E8FEFF82EE00EF11E480132
:10568000860E971E8E149F0408F4ACC0D7014D916E
:105690005C91119746175707B8F04530510508F44B
:1056A000A3C0CA0104978617970708F49DC042500B
:1056B0005040461B570BF401419351936D937C93DB
:1056C000CF010E948B2A90C05B01A41AB50A380151
:1056D000640E751EA0916307B0916407E0E0F0E0EE
:1056E000CC24DD2447C0A615B705A9F5CD91DC91E2
:1056F0001197CE0102968A159B0568F1CE018A1991
:105700009B09029612962C91129713963C9105973D
:1057100058F0F40122833383CA19DB09D183C08393
:10572000D7016D937C9309C04E5F5F4F4C0F5D1F97
:10573000F70151834083C901FC01C114D10431F048
:10574000D6011396FC93EE9312974EC0F093640724
:10575000E093630749C08D919C911197E817F90771
:1057600008F4FC016D0112968C91129713969C918E
:105770009C01D901109709F0B6CF809161079091F3
:10578000620786159705E9F4E617F707D0F420912C
:105790007D0330917E032115310541F42DB73EB7CD
:1057A0008091790390917A03281B390B8216930616
:1057B000C8F49092620780926107F7017183608359
:1057C00013C0CB010E94EE29EC01009759F0D701DC
:1057D0004D915C91B8010E94CE2CC8010E948B2A89
:1057E0008E0102C000E010E0C801DF91CF911F914F
:1057F0000F91FF90EF90DF90CF90BF90AF909F9070
:105800008F907F906F900895629FD001739FF001F9
:10581000829FE00DF11D649FE00DF11D929FF00D40
:10582000839FF00D749FF00D659FF00D9927729F77
:10583000B00DE11DF91F639FB00DE11DF91FBD0102
:10584000CF0111240895A1E21A2EAA1BBB1BFD0152
:105850000DC0AA1FBB1FEE1FFF1FA217B307E4074F
:10586000F50720F0A21BB30BE40BF50B661F771FA7
:10587000881F991F1A9469F7609570958095909587
:105880009B01AC01BD01CF0108952F923F924F9231
:105890005F926F927F928F929F92AF92BF92CF92C0
:1058A000DF92EF92FF920F931F93CF93DF93CDB7C9
:1058B000DEB7CA1BDB0B0FB6F894DEBF0FBECDBF41
:1058C00019942A88398848885F846E847D848C8402
:1058D0009B84AA84B984C884DF80EE80FD800C811B
:1058E0001B81AA81B981CE0FD11D0FB6F894DEBFFE
:1058F0000FBECDBFED010895EE0FFF1F0590F4918F
:10590000E02D19941F93FC0199278827BC01E89486
:1059100011911032E9F3193010F01E30C8F31B3228
:1059200051F01D3249F4689406C00E949B2D610F0E
:10593000711D811D911D119110531A30B0F33EF469
:1059400090958095709561957F4F8F4F9F4F1F91D8
:105950000895911177C3803219F089508550D0F79E
:1059600008959111089581548A5108F4805E855AF2
:1059700008959111089581568A5108F480528558EE
:105980000895FB01DC0104C08D910190801921F480
:1059900041505040C8F7881B990B0895FB01DC016A
:1059A00002C001900D9241505040D8F708956817F9
:1059B000790768F4FB01DC01E40FF51FA40FB51FA4
:1059C00002C002900E9241505040D8F708950C94B6
:1059D000CE2CFC018191861721F08823D9F79927D5
:1059E00008953197CF010895FB01DC018D9101905D
:1059F00080190110D9F3990B0895FB01DC01019086
:105A00000D920020E1F70895FB01DC014150504068
:105A100030F08D910190801919F40020B9F7881B9E
:105A2000990B0895FB01DC014150504048F0019072
:105A30000D920020C9F701C01D9241505040E0F77F
:105A40000895FC0181E090E00190061609F4CF0171
:105A50000020D1F701970895FB0151915523A9F03A
:105A6000BF01DC014D9145174111E1F759F4CD011A
:105A70000190002049F04D9140154111C9F3FB01FF
:105A80004111EFCF81E090E001970895FB019F0164
:105A9000E8944230C4F04532B4F44A3029F497FB1C
:105AA0001EF4909581959F4F642F77270E94D530E3
:105AB000805D8A330CF0895D8193CB010097A1F75B
:105AC00016F45DE251931082C9010C943B30FA0147
:105AD000CF93FF93EF93223044F1253234F5C22F58
