:100000000C9406010C94D3110C9404120C94351228
:100010000C9466120C9497120C94C8120C94F9125A
:100020000C942A130C9433010C9433010C94330177
:100030000C9433010C9433010C9433010C94330170
:100040000C9433010C9433010C9433010C94330160
:100050000C9433010C9433010C9433010C945B1316
:100060000C9433010C9466170C94AE180C94330165
:100070000C9433010C9433010C9433010C94330130
:100080000C9433010C9433010C9433010C94330120
:100090000C94A6170C94ED180C9433010C941402D4
:1000A0000C9433010C9433010C9433010C94330100
:1000B0000C9433010C9433010C9433010C943301F0
:1000C0000C9433010C9433010C9433010C94E61717
:1000D0000C942C190C9433010C9426180C946B1965
:1000E0000C94330100002100240027002A002D0079
:1000F0003000330001010000040107010A01000083
:100100002200250028002B002E00310034000201BF
:100110000000050108010B0100002000230026005B
:1001200029002C002F00320000010000030106010D
:10013000090105050505070508080808020202026D
:100140000A0A080804040404010101010101010173
:100150000303030303030303040707070C0C0C0C3E
:100160000C0C0C0C02020202060606060606060627
:100170000B0B0B0B0B0B0B0B0102102020080810B4
:100180002040102040800201020108040201010207
:1001900004081020408080402010080402018004E0
:1001A000020180402010080402010804020101023B
:1001B0000408102040800102040810204080000044
:1001C000090A02080B0C0D070603040100000000D9
:1001D000000000000000000000000000000000001F
:1001E0000000000000000000000011100F000000DF
:1001F00000000000000000000000000000000000FF
:100200000000000066044405571CA51D11241FBEF4
:10021000CFEFD1E2DEBFCDBF00E00CBF13E0A0E026
:10022000B2E0EEE9FCE500E00BBF02C007900D92E2
:10023000A23BB107D9F71BBE19E0A2EBB3E001C0A6
:100240001D92A736B107E1F712E0CCE0D2E004C07E
:100250002297FE010E942E2EC430D107C9F70E94BA
:1002600036060C944D2E0C940000880F8093BA0033
:100270000895382F413210F040E042C08091B2031F
:100280008823E1F791E09093B2032093B4038FEFBA
:1002900080931F041092DA0341504093DB034F5FB9
:1002A0009093B3038091B303330F832B8093B303F5
:1002B0008091B503813041F41092B5038091B3036E
:1002C0008093BB0085EC01C085EE8093BC008091DB
:1002D000B2038130E1F38091DA03841710F4409186
:1002E000DA0320E030E00AC0FB01E20FF31FD9017E
:1002F000A654BC4F8C9180832F5F3F4F2417A0F3EF
:10030000842F08950F931F93582F122F413210F00E
:1003100081E04AC08091B2038823E1F782E08093B4
:10032000B2030093B4038FEF80931F041092DA039B
:100330004093DB03AAEBB3E0FB0102C081918D93F4
:100340008E2F861B8417D0F31092B3038091B303D2
:10035000550F852B8093B3038091B503813041F411
:100360001092B5038091B3038093BB0085EC01C06C
:1003700085EE8093BC00112321F08091B20382307E
:10038000E1F380911F048F3F11F480E00DC0809154
:100390001F04803211F482E007C080911F04803373
:1003A00011F084E001C083E01F910F910895482F60
:1003B000613210F081E008958091B203843011F031
:1003C00082E008956093FD03ACEDB3E0842F9C01BF
:1003D000F90102C081918D938E2F841B8617D0F373
:1003E00080E008959093B9038093B80308959093A3
:1003F000B7038093B6030895882311F085EC01C0FC
:1004000085E88093BC00089585ED8093BC008091C1
:10041000BC0084FDFCCF1092B203089585EC80935C
:10042000BC001092B20308951F920F920FB60F9264
:100430000BB60F9211242F933F934F935F936F93BB
:100440007F938F939F93AF93BF93EF93FF9380918D
:10045000B90090E0887F90708036910509F4F2C071
:1004600081369105CCF58832910509F47BC089323B
:100470009105B4F48031910509F46FC08131910583
:100480003CF4009709F447C1089709F04FC165C0D3
:100490008831910509F466C0809709F047C182C090
:1004A0008034910509F4A4C08134910544F480336B
:1004B000910509F482C0C89709F038C189C0803518
:1004C000910509F489C08835910509F496C08834EE
:1004D000910509F02BC1AEC08839910509F413C10B
:1004E00089399105ECF48837910509F4ABC0893757
:1004F00091054CF48836910509F4A4C08037910524
:1005000009F014C19FC08838910509F4FCC08039F6
:10051000910509F49DC08038910509F007C198C084
:10052000803B910509F4C6C0813B91054CF4803AAB
:10053000910509F49FC0883A910509F0F7C0BAC047
:10054000803C910509F4E3C0883C910509F4DFC0C3
:10055000883B910509F0EAC0C2C08091B303809343
:10056000BB00CFC09091DA038091DB03981768F449
:100570009091DA03E92FF0E0E654FC4F80818093FC
:10058000BB009F5F9093DA03BCC08091B4038823C3
:1005900009F44BC085ED8093BC008091BC0084FDC4
:1005A000FCCFC2C080E280931F0485ED8093BC0025
:1005B0008091BC0084FDFCCFB7C080E380931F0412
:1005C00085ED8093BC008091BC0084FDFCCFACC065
:1005D00088E380931F049BC08091DA039091BB0055
:1005E000E82FF0E0E654FC4F90838F5F8093DA03AE
:1005F0009091DA038091DB0382C08091DA039091BD
:10060000BB00E82FF0E0E654FC4F90838F5F8093AF
:10061000DA038091B403882341F085ED8093BC0018
:100620008091BC0084FDFCCF7FC081E08093B50346
:1006300084EA6EC085ED8093BC008091BC0084FD8F
:10064000FCCF72C083E08093B20310921E0459C0A5
:1006500080911E04803208F056C080911E04909153
:10066000BB00E82FF0E0E250FC4F90838F5F809357
:100670001E0447C080911E04803230F4E0911E04B5
:10068000F0E0E250FC4F108285ED8093BC00809139
:10069000BC0084FDFCCF1092B20360911E04E09177
:1006A000B803F091B9038EEF93E070E019951092C2
:1006B0001E042DC084E08093B2031092FC031092BC
:1006C000FD03E091B603F091B70319958091FD0306
:1006D000882329F481E08093FD031092DC0390913C
:1006E000FC03E92FF0E0E452FC4F80818093BB00D3
:1006F0009F5F9093FC039091FC038091FD039817FA
:1007000010F485EC01C085E88093BC000FC085EC37
:100710008093BC0009C010921F0485ED8093BC003B
:100720008091BC0084FDFCCF1092B203FF91EF9149
:10073000BF91AF919F918F917F916F915F914F91F9
:100740003F912F910F900BBE0F900FBE0F901F90F7
:1007500018951092B20381E08093B4031092B50310
:1007600084E161E00E94661685E161E00E94661600
:10077000E9EBF0E080818E7F808380818D7F8083B4
:1007800088E48093B80085E48093BC000895FC0160
:100790001382128288EE93E0A0E0B0E08483958318
:1007A000A683B78384E092E0918380830895FC015F
:1007B0001382128288EE93E0A0E0B0E084839583F8
:1007C000A683B78384E092E091838083089581E0DB
:1007D0008093650460934204109263041092640451
:1007E000089581E08093650460934204109263044D
:1007F0001092640408952091410430E080914004F7
:10080000281B3109C9010895409140048091410499
:10081000481718F02FEF3FEF0AC0E42FF0E0E05E3A
:10082000FB4F8081282F30E04F5F40934004C90187
:100830000895E091400480914104E81718F0EFEF2B
:10084000FFEF06C0F0E0E05EFB4F8081E82FF0E0B4
:10085000CF0108950895AC01209168043091690496
:1008600021153105E1F090914004809141049817E1
:10087000B0F090E008C0FA01EA0FFB1F8081A05E93
:10088000BB4F8C939F5FA92FB0E0A617B7079CF3CF
:100890001092400460934104CB01F9011995089529
:1008A000E0916604F0916704309729F01092630498
:1008B0001092640419950895709369046093680414
:1008C00008957093670460936604089510926D0410
:1008D00010926C0488EE93E0A0E0B0E080936E0488
:1008E00090936F04A0937004B093710484E092E03D
:1008F00090936B0480936A040895CF92DF92EF92F5
:10090000FF920F931F93CF93DF937C016B018A01BA
:10091000809165048823A1F0C0E0D0E00DC0D7012C
:10092000ED91FC91D601AC0FBD1F0190F081E02D3F
:10093000C7016C9119952196C017D10780F304C0A7
:10094000CB01642F0E94D701C801DF91CF911F9185
:100950000F91FF90EF90DF90CF900895DF93CF93AA
:100960000F92CDB7DEB7FC016983809165048823BF
:10097000C9F080916404803238F081E090E0938384
:10098000828320E030E015C080916304E82FF0E01E
:10099000ED5BFB4F998190838F5F8093630480931D
:1009A000640405C0CE01019661E00E94D70121E0F8
:1009B00030E0C9010F90CF91DF9108950F93062F7A
:1009C0008091420463E474E04091640421E00E9459
:1009D00082011092630410926404109265040F91D6
:1009E000089561E00E94DE040895413208F040E27B
:1009F000862F60E274E00E943901109240048093D7
:100A0000410408950E94F504089521E00E94F50430
:100A1000089521E00E94F504089510924004109278
:100A2000410410926304109264040E94A903089583
:100A30000F931F938C01862F0E94350180E594E06F
:100A40000E94F7018BE294E00E94F201C8010E942B
:100A50000D051F910F9108950E941805089508959E
:100A600080918504909186040196909386048093EA
:100A7000850408958091870490918804019690934D
:100A800088048093870408950F9385E996E060E0D9
:100A900040E020E000E00E94991D0F910895EF9240
:100AA000FF920F931F93DF93CF9300D000D0CDB769
:100AB000DEB78C017B018AE694E0B8010E94F10365
:100AC0008AE694E062E30E94AE048AE694E00E9423
:100AD000F1048AE694E0B8010E94F1038AE694E00A
:100AE000B80146E050E00E9405058E010F5F1F4FE0
:100AF00007C08AE694E00E940404F80181938F0104
:100B00008AE694E00E94FB03892B99F78AE694E039
:100B10000E94F1049A8180E0298130E0822B932B9E
:100B2000F701918380839C8180E02B8130E0822BD0
:100B3000932B938382839E8180E02D8130E0822BF2
:100B4000932B9583848326960FB6F894DEBF0FBE51
:100B5000CDBFCF91DF911F910F91FF90EF9008953E
:100B6000FF920F931F939C01F62E0AE614E0C80132
:100B7000B9010E94F103C8016DE20E94AE04C801F0
:100B80006F2D0E94AE04C8010E94F1041F910F91C5
:100B9000FF90089584ED98E040E855E260E070E051
:100BA0000E94321A8AE694E00E940D0584E061E01A
:100BB0000E94B31585E061E00E94B31586E061E014
:100BC0000E94B31587E061E00E94B31586E260E001
:100BD0000E94B31585E261E00E94B31588E260E0EF
:100BE0000E94B31587E261E00E94B3158DE061E0D9
:100BF0000E94B31586E160E00E94B31587E160E0D2
:100C00000E94B31588E160E00E94B31589E160E0BD
:100C10000E94B3158AE162E00E94B3158BE162E0A5
:100C20000E94B31583E060E375E042E050E00E946B
:100C30002B1182E06AE375E042E050E00E942B1144
:100C400083E590E060E00E94B00583E590E060E11C
:100C50000E94B00583E590E068E00E94B00583E55E
:100C600090E06FE876E00E944F0508950E943A14E4
:100C70000E94CA0584ED98E061E070E04AE050E02F
:100C80000E94A12084ED98E060E272E00E94D320EF
:100C90008AE10E949916BC0184ED98E04AE050E098
:100CA0000E94A12084ED98E069E272E00E94D320C6
:100CB0008BE10E949916BC0184ED98E04AE050E077
:100CC0000E94B42084ED98E00E94E61E64E670E085
:100CD00080E090E00E94D713D5CFFF920F931F932F
:100CE000CF93DF93182F062FEA01F22E60E00E94C7
:100CF0006616812F61E00E946616802F60E020E476
:100D000032E44FE050E00E94C91681E0888383EC12
:100D10006135780708F01882FF2029F4CB0162E3DF
:100D200070E00E94BF2DCB01DF91CF911F910F91F9
:100D3000FF9008958AE10E949916892BC1F48BE1F6
:100D40000E949916892B99F4089585E060E00E942D
:100D5000661684E06FEF70E00E94D31487E060E0D5
:100D60000E94661686E060E070E00E94D3148AE17B
:100D70000E949916892B99F0E8CF85E061E00E94E6
:100D8000661684E06FEF70E00E94D31487E061E0A4
:100D90000E94661686E061EE70E00E94D3148AE13C
:100DA0000E949916892B49F3E2CFCF92DF92FF92EE
:100DB0000F931F93CF93DF9385E30E949916892B9E
:100DC00091F485E060E00E94661684E06FEF70E0C9
:100DD0000E94D31487E061E00E94661686E06FEF00
:100DE00070E00E94D314109277041092760410924F
:100DF000790410927804C0E5D2E086E1F82EC09024
:100E00007604D0907704088119818F2D0E9499165D
:100E100020E030E0892B11F421E030E0209FC00178
:100E2000219F900D309F900D11248C0D9D1D90934E
:100E3000770480937604C0907804D0907904088574
:100E400019858F2D0E94991620E030E0892B11F42E
:100E500021E030E0209FA001219F500D309F500DD8
:100E600011244C0D5D1D5093790440937804229613
:100E7000F3942AE1F21619F68091760490917704A2
:100E8000853691051CF084E690E005C08C599F4F93
:100E900034F48CE99FEF9093770480937604453681
:100EA00051051CF084E690E005C04C595F4F34F4C6
:100EB0008CE99FEF909379048093780484ED98E017
:100EC00062E372E00E94D32060917604709177040F
:100ED00084ED98E04AE050E00E94B42084ED98E070
:100EE0006BE372E00E94D3206091780470917904E2
:100EF00084ED98E04AE050E00E94B42084ED98E050
:100F000064E472E00E94D32040917F0450918004F9
:100F1000609181047091820484ED98E022E030E0D9
:100F20000E94BD212091760430917704809178044D
:100F3000909179042817390789F485E061E00E94CF
:100F4000661684E06BE970E00E94D31487E061E0EC
:100F50000E94661686E06BE970E050C01216130618
:100F60005CF485E061E00E94661660917604709101
:100F7000770465567F4F0EC0232B71F085E060E04B
:100F80000E9466166BE970E0809176049091770478
:100F9000681B790B84E007C085E061E00E9466165B
:100FA00084E060E070E00E94D31480917804909116
:100FB0007904181619065CF487E061E00E94661651
:100FC000609178047091790465567F4F0EC0892B2B
:100FD00071F087E060E00E9466166BE970E0809136
:100FE000780490917904681B790B86E007C087E04C
:100FF00061E00E94661686E060E070E00E94D31413
:10100000DF91CF911F910F91FF90DF90CF900895C6
:10101000EF92FF920F931F938C0124EDE22E28E0B4
:10102000F22E612F772767FD7A95C7010E94151C64
:10103000C701602F0E94151CC7010E94E61E1F9168
:101040000F91FF90EF900895EF92FF920F931F93EF
:101050007B018C0120E030E040E05FE40E94D00B97
:1010600088238CF0C801B70120E030E040E05FE465
:101070000E949C090E94E90C9B01AC012050304069
:101080004040504806C0C801B7010E94E90C9B01CE
:10109000AC01B901CA011F910F91FF90EF90089523
:1010A000A0E0B0E0E6E5F8E00C94F52DDC012B01C2
:1010B000FA019C91923008F439C1EB0188818230A9
:1010C00008F433C1943069F4843009F02FC11196CB
:1010D0009C9111978981981709F428C1AFE6B2E075
:1010E00025C1843009F421C18230A9F4923009F07D
:1010F0001DC19A01AD0188E0EA010990AE01E90144
:1011000009929E018150C1F7E201898111969C915B
:101110008923818308C1923009F407C112962D906A
:101120003C901397EB018A819B811496AD90BD9002
:10113000CD90DC901797EC80FD800E811F8191018E
:10114000281B390BB90137FF04C066277727621BBC
:10115000730B603271050CF061C0121613066CF54A
:1011600037014801062E04C09694879477946794BB
:101170000A94D2F721E030E040E050E004C0220FB2
:10118000331F441F551F6A95D2F72150304040400D
:1011900050402E213F214023512321153105410587
:1011A000510521F021E030E040E050E079018A0172
:1011B000E628F728082919293CC0232BD1F1260E4F
:1011C000371E35014601062E04C096948794779405
:1011D00067940A94D2F721E030E040E050E004C088
:1011E000220F331F441F551F6A95D2F721503040FC
:1011F000404050402A213B214C215D2121153105E1
:101200004105510521F021E030E040E050E0590176
:101210006A01A628B728C828D9280BC082159305CB
:101220002CF01C01AA24BB24650103C0EE24FF247A
:10123000870111969C91D20111968C91981709F40F
:1012400045C0992339F0A80197012A193B094C0997
:101250005D0906C0A60195012E193F09400B510BEF
:1012600057FD08C01182338222822483358346834E
:1012700057831DC081E0818333822282882799278A
:10128000DC01821B930BA40BB50B84839583A6838F
:10129000B7830DC0220F331F441F551F248335838E
:1012A000468357838281938101979383828324812C
:1012B000358146815781DA01C9010197A109B10938
:1012C0008F5F9F4FAF4FBF4328F30BC09183338293
:1012D0002282EA0CFB1C0C1D1D1DE482F582068394
:1012E000178383E08083248135814681578157FFAE
:1012F0001AC0C901AA2797FDA095BA2F81709070D6
:10130000A070B0705695479537952795822B932BF3
:10131000A42BB52B84839583A683B7838281938185
:10132000019693838283DF0101C0D201CD01CDB745
:10133000DEB7E2E10C94112EA0E2B0E0E2EAF9E0BF
:101340000C94012E69837A838B839C832D833E8347
:101350004F835887E9E0EE2EF12CEC0EFD1ECE01F6
:101360000196B7010E94DA0E8E010F5E1F4FCE016B
:101370000596B8010E94DA0E8A8991E089278A8B46
:10138000C701B801AE01475E5F4F0E9450080E943E
:10139000050EA096E6E00C941D2EA0E2B0E0E3ED71
:1013A000F9E00C94012E69837A838B839C832D83CF
:1013B0003E834F835887F9E0EF2EF12CEC0EFD1E93
:1013C000CE010196B7010E94DA0E8E010F5E1F4F0B
:1013D000CE010596B8010E94DA0EC701B801AE0130
:1013E000475E5F4F0E9450080E94050EA096E6E0FF
:1013F0000C941D2EA0E2B0E0E0E0FAE00C94F52D94
:1014000069837A838B839C832D833E834F835887A4
:10141000CE010196BE01675F7F4F0E94DA0ECE01BA
:101420000596BE016F5E7F4F0E94DA0E998592305D
:1014300088F089898230C8F0943019F4823051F4F0
:1014400004C0843029F4923081F48FE692E0C6C063
:10145000923049F420E09A858A89981321E02A87FE
:10146000CE010996BBC0823049F420E09A858A8972
:10147000981321E02A8BCE014196B0C02D843E8482
:101480004F8458886D887E888F88988CEE24FF243E
:101490008701AA24BB24650140E050E060E070E0D1
:1014A000E0E0F0E0C10181709070892BE9F0E60C7A
:1014B000F71C081D191D9A01AB012A0D3B1D4C1D7F
:1014C0005D1D80E090E0A0E0B0E0E614F7040805C0
:1014D000190520F481E090E0A0E0B0E0BA01A90194
:1014E000480F591F6A1F7B1FAA0CBB1CCC1CDD1C9C
:1014F00097FE08C081E090E0A0E0B0E0A82AB92AF9
:10150000CA2ADB2A3196E032F10549F0660C771CD5
:10151000881C991C5694479437942794C3CFFA8516
:10152000EA892B893C898B859C85280F391F2E5F82
:101530003F4F17C0CA0181709070892B61F01695DA
:101540000795F794E79480E090E0A0E0B0E8E82AFF
:10155000F92A0A2B1B2B76956795579547952F5F90
:101560003F4F77FDE7CF0CC0440F551F661F771F15
:1015700017FD4160EE0CFF1C001F111F2150304071
:10158000403090E0590790E0690790E4790760F3F4
:101590002B8F3C8FDB01CA018F779070A070B070E9
:1015A00080349105A105B10561F447FD0AC0E1143D
:1015B000F1040105110529F0405C5F4F6F4F7F4F2B
:1015C00040781A8EFE1711F081E08A8F4D8F5E8F62
:1015D0006F8F78A383E0898FCE0149960E94050E14
:1015E000A096E2E10C94112EA8E1B0E0EAEFFAE057
:1015F0000C94FD2D69837A838B839C832D833E839A
:101600004F835887B9E0EB2EF12CEC0EFD1ECE0176
:101610000196B7010E94DA0E8E010F5E1F4FCE01B8
:101620000596B8010E94DA0E2985223008F47EC0A2
:101630003989323010F4B8017CC08A859A898927AB
:101640008A87243011F0223031F4231709F06EC05C
:101650006FE672E06EC0343039F41D861E861F8638
:10166000188A1C861B8604C0323021F484E08987E6
:10167000B7015FC02B853C858B899C89281B390B62
:101680003C872B87ED84FE840F851889AD88BE8842
:10169000CF88D88CEA14FB040C051D0540F4EE0C31
:1016A000FF1C001F111F215030403C872B8720E07A
:1016B00030E040E050E080E090E0A0E0B0E460E0A6
:1016C00070E0EA14FB040C051D0540F0282B392BB3
:1016D0004A2B5B2BEA18FB080C091D09B695A79548
:1016E00097958795EE0CFF1C001F111F6F5F7F4FB2
:1016F0006F31710531F7DA01C9018F779070A070F1
:10170000B07080349105A105B10561F427FD0AC0D0
:10171000E114F1040105110529F0205C3F4F4F4F02
:101720005F4F20782D873E874F87588BBE01675FBC
:101730007F4FCB010E94050E6896EAE00C94192EAB
:10174000A8E1B0E0E6EAFBE00C94012E69837A831D
:101750008B839C832D833E834F83588789E0E82EBB
:10176000F12CEC0EFD1ECE010196B7010E94DA0E9F
:101770008E010F5E1F4FCE010596B8010E94DA0E52
:101780008985823040F08989823028F0C701B8010C
:101790000E94520F01C08FEF6896E6E00C941D2E58
:1017A000A8E1B0E0E6EDFBE00C94012E69837A83BA
:1017B0008B839C832D833E834F83588789E0E82E5B
:1017C000F12CEC0EFD1ECE010196B7010E94DA0E3F
:1017D0008E010F5E1F4FCE010596B8010E94DA0EF2
:1017E0008985823040F08989823028F0C701B801AC
:1017F0000E94520F01C08FEF6896E6E00C941D2EF8
:10180000A8E1B0E0E6E0FCE00C94012E69837A8365
:101810008B839C832D833E834F83588789E0E82EFA
:10182000F12CEC0EFD1ECE010196B7010E94DA0EDE
:101830008E010F5E1F4FCE010596B8010E94DA0E91
:101840008985823040F08989823028F0C701B8014B
:101850000E94520F01C081E06896E6E00C941D2EB4
:10186000A8E1B0E0E6E3FCE00C94012E69837A8302
:101870008B839C832D833E834F83588789E0E82E9A
:10188000F12CEC0EFD1ECE010196B7010E94DA0E7E
:101890008E010F5E1F4FCE010596B8010E94DA0E31
:1018A0008985823040F08989823028F0C701B801EB
:1018B0000E94520F01C081E06896E6E00C941D2E54
:1018C000A8E1B0E0E6E6FCE00C94052E69837A839B
:1018D0008B839C832D833E834F835887CE01019653
:1018E000BE01675F7F4F0E94DA0ECE010596BE01F2
:1018F0006F5E7F4F0E94DA0E8985823028F020E0EB
:1019000030E08989823010F421E030E0822F68963F
:10191000E2E00C94212EA8E0B0E0E1E9FCE00C94B8
:10192000FE2D9B01AC0183E08983DA01C901882780
:10193000B7FD83959927AA27BB27B82E2115310516
:101940004105510519F482E089833AC08823A9F042
:10195000203080E0380780E0480780E8580729F405
:1019600060E070E080E09FEC30C0EE24FF2487014F
:10197000E21AF30A040B150B02C079018A018EE109
:10198000C82ED12CDC82CB82ED82FE820F83188799
:10199000C801B7010E94B60D01971816190684F404
:1019A000082E04C0EE0CFF1C001F111F0A94D2F772
:1019B000ED82FE820F831887C81AD90ADC82CB8297
:1019C000BA82CE0101960E94050E2896E9E00C9499
:1019D0001A2EACE0B0E0EFEEFCE00C94052E69832B
:1019E0007A838B839C83CE010196BE016B5F7F4F10
:1019F0000E94DA0E8D81823061F1823050F18430A4
:101A000021F48E81882351F12EC02F81388537FD36
:101A100020C06E812F3131051CF06623F9F023C000
:101A20008EE190E0821B930B29853A854B855C857E
:101A300004C056954795379527958A95D2F7662322
:101A4000B1F050954095309521953F4F4F4F5F4FE6
:101A50000EC020E030E040E050E009C02FEF3FEF43
:101A60004FEF5FE704C020E030E040E050E8B9010C
:101A7000CA012C96E2E00C94212EA8E0B0E0E3E449
:101A8000FDE00C94FD2D7B018C0161157105810534
:101A9000910519F482E0898360C083E089838EE137
:101AA000C82ED12CDC82CB82ED82FE820F83188778
:101AB000C801B7010E94B60DFC013197F7FF3BC08A
:101AC000222733272E1B3F0B57016801022E04C02B
:101AD000D694C794B794A7940A94D2F740E050E004
:101AE00060E070E081E090E0A0E0B0E004C0880F2A
:101AF000991FAA1FBB1F2A95D2F70197A109B10907
:101B00008E219F21A023B1230097A105B10521F0CB
:101B100041E050E060E070E04A295B296C297D29B2
:101B20004D835E836F8378878EE190E08E1B9F0BE1
:101B30009C838B8312C0309781F00E2E04C0EE0C74
:101B4000FF1C001F111F0A94D2F7ED82FE820F8343
:101B50001887CE1ADF0ADC82CB821A82CE01019668
:101B60000E94050E2896EAE00C94192EEF92FF923F
:101B70000F931F937B018C0180E0E81680E0F8064C
:101B800081E0080780E0180788F48FEFE816F10479
:101B90000105110531F028F088E090E0A0E0B0E008
:101BA00017C080E090E0A0E0B0E012C080E0E8164E
:101BB00080E0F80680E0080781E0180728F088E157
:101BC00090E0A0E0B0E004C080E190E0A0E0B0E0F0
:101BD00020E230E040E050E0281B390B4A0B5B0B61
:101BE00004C016950795F794E7948A95D2F7F70104
:101BF000E958FD4F8081281B310941095109C9016C
:101C00001F910F91FF90EF900895DF92EF92FF9256
:101C10000F931F93FC01E480F58006811781D1802A
:101C20008081823048F480E090E0A0E1B0E0E82AD2
:101C3000F92A0A2B1B2BA5C0843009F49FC08230DF
:101C400021F4EE24FF24870105C0E114F10401050D
:101C5000110519F4E0E0F0E096C0628173819FEF16
:101C6000623879070CF05BC022E83FEF261B370B88
:101C70002A3131052CF020E030E040E050E02AC06D
:101C8000B801A701022E04C0769567955795479530
:101C90000A94D2F781E090E0A0E0B0E004C0880FA1
:101CA000991FAA1FBB1F2A95D2F70197A109B10955
:101CB0008E219F21A023B1230097A105B10521F01A
:101CC00081E090E0A0E0B0E09A01AB01282B392B35
:101CD0004A2B5B2BDA01C9018F779070A070B0702E
:101CE00080349105A105B10539F427FF09C0205CB6
:101CF0003F4F4F4F5F4F04C0215C3F4F4F4F5F4FEF
:101D0000E0E0F0E02030A0E03A07A0E04A07A0E4DD
:101D10005A0710F0E1E0F0E079018A0127C060384D
:101D2000710564F5FB01E158FF4FD801C7018F77BA
:101D30009070A070B07080349105A105B10539F4A0
:101D4000E7FE0DC080E490E0A0E0B0E004C08FE3C7
:101D500090E0A0E0B0E0E80EF91E0A1F1B1F17FF7D
:101D600005C016950795F794E794319687E0169588
:101D70000795F794E7948A95D1F705C0EE24FF24E0
:101D80008701EFEFF0E06E2F679566276795902F3C
:101D90009F77D794DD24D7948E2F8695492F462B95
:101DA000582F5D29B701CA011F910F91FF90EF9045
:101DB000DF900895FC01DB01408151812281622F77
:101DC0006F7770E0221F2227221F9381892F880FAF
:101DD000822B282F30E0991F9927991F11969C93E9
:101DE000119721153105A9F54115510561057105B9
:101DF00011F482E037C082E89FEF13969C938E9394
:101E000012979A01AB0167E0220F331F441F551F41
:101E10006A95D1F783E08C930DC0220F331F441FC6
:101E2000551F12968D919C911397019713969C9331
:101E30008E931297203080E0380780E0480780E4D6
:101E4000580758F314962D933D934D935C93179731
:101E500008952F3F310579F441155105610571054C
:101E600019F484E08C93089564FF03C081E08C939F
:101E700012C01C9210C02F57304013963C932E93E3
:101E8000129783E08C9387E0440F551F661F771FDE
:101E90008A95D1F7706414964D935D936D937C93FE
:101EA000179708951F93DC01FB019C91923008F471
:101EB00047C08081823008F443C0943051F41196B9
:101EC0001C91843099F58181682F70E0611B710944
:101ED0003FC0843021F0923031F48230B9F18181F9
:101EE000882389F12DC011961C9111978230F1F051
:101EF00081811817D9F412962D913C911397828104
:101F000093818217930794F028173907BCF0149631
:101F10008D919D910D90BC91A02D2481358146819C
:101F20005781281739074A075B0718F4112341F036
:101F30000AC082179307A407B50740F4112319F0CC
:101F400061E070E005C06FEF7FEF02C060E070E01D
:101F5000CB011F9108951F93E82FF92F9927882708
:101F6000682F792FE89411911032E9F3193010F0AD
:101F70001E30C8F31B3249F01D3241F4689405C08D
:101F800005D1610F711D811D911D119110531A30E2
:101F9000B8F33EF490958095709561957F4F8F4F83
:101FA0009F4F1F910895E62FF72FA82FB92F04C038
:101FB0008D910190801921F441505040C8F7881B41
:101FC000990B0895E62FF72FA82FB92F02C0019083
:101FD0000D9241505040D8F708956817790778F46A
:101FE000E62FF72FA82FB92FE40FF51FA40FB51F69
:101FF00002C002900E9241505040D8F70895E2CFAF
:10200000E82FF92F8191861721F08823D9F7992796
:10201000089531978E2F9F2F0895E62FF72FA82F21
:10202000B92F8D91019080190110D9F3990B089562
:10203000E62FF72FA82FB92F01900D920020E1F77E
:102040000895E62FF72FA82FB92F4150504030F0B8
:102050008D910190801919F40020B9F7881B990B14
:102060000895E62FF72FA82FB92F4150504048F080
:1020700001900D920020C9F701C01D9241505040BF
:10208000E0F70895E82FF92F81E090E0019006161F
:1020900011F48E2F9F2F0020C9F701970895E62F86
:1020A000F72F51915523C9F06E2F7F2FA82FB92FED
:1020B0004D9145174111E1F769F48A2F9B2F01904B
:1020C000002051F04D9140154111C9F3E62FF72F33
:1020D0004111ECCF81E090E001970895E62FF72FB2
:1020E0002E2F3F2FE8944230C4F04532B4F44A30EA
:1020F00029F497FB1EF4909581959F4F642F7727C5
:102100003EDD805D8A330CF0895D8193862F972FA9
:102110000097A1F716F45DE251931082822F932F5E
:1021200088C0E42FF52FCF93FF93EF9322304CF12B
:1021300025323CF5C22FE894CA3049F497FB3EF4AF
:1021400090958095709561957F4F8F4F9F4F2C2F65
:10215000332744275527FF93EF9325DDEF91FF9118
:10216000605D6A330CF0695D6193622F732F842F79
:10217000952F605070408040904049F716F4CDE2B2
:10218000C19310828F919F91CF9153C0592F482FA7
:10219000372F262F660F771F881F991F660F771F0F
:1021A000881F991F620F731F841F951F660F771F6B
:1021B000881F991F0895E42FF52FCF93FF93EF9376
:1021C0002230D4F02532C4F4C22F2C2F33274427D9
:1021D0005527FF93EF93E7DCEF91FF91605D6A3342
:1021E0000CF0695D6193622F732F842F952F6050DF
:1021F00070408040904049F710828F919F91CF911D
:1022000018C0E62FF72F2E2F3F2F423074F04532A3
:1022100064F4642F7727B3DC805D8A330CF0895D2A
:102220008193862F972F0097A1F71082822F932FEB
:1022300000C0A82FB92FE82FF92F672F71917723AE
:10224000E1F7329704C07C916D9370836291AE1771
:10225000BF07C8F30895883008F078C0E82FF0E091
:10226000EE0FFF1FE556F94F718360838330D9F07D
:10227000843030F4813009F444C0823060F439C0D5
:10228000853051F18530D8F0863009F446C087306A
:1022900009F05CC04FC0809169008C7F842B8093D3
:1022A0006900E89A089580916900440F551F440F12
:1022B000551F837F842B80936900E99A089580914C
:1022C000690074E0440F551F7A95E1F78F7C842BE9
:1022D00080936900EA9A08958091690066E0440F4E
:1022E000551F6A95E1F78F73842B80936900EB9AF1
:1022F000089580916A008C7F842B80936A00EC9A09
:10230000089580916A00440F551F440F551F837F25
:10231000842B80936A00ED9A089580916A0024E0EE
:10232000440F551F2A95E1F78F7C842B80936A0018
:10233000EE9A089580916A0096E0440F551F9A9591
:10234000E1F78F73842B80936A00EF9A08958830A9
:1023500048F5833091F0843028F48130B1F0823038
:1023600050F411C0853069F0853048F0863079F03E
:10237000873081F40EC0E8980DC0E9980BC0EA9848
:1023800009C0EB9807C0EC9805C0ED9803C0EE9823
:1023900001C0EF98E82FF0E0EE0FFF1FE556F94F70
:1023A0001182108208951F920F920FB60F920BB6F2
:1023B0000F9211242F933F934F935F936F937F93CB
:1023C0008F939F93AF93BF93EF93FF9380919F065B
:1023D0009091A006892B29F0E0919F06F091A0062C
:1023E0001995FF91EF91BF91AF919F918F917F913F
:1023F0006F915F914F913F912F910F900BBE0F9076
:102400000FBE0F901F9018951F920F920FB60F924C
:102410000BB60F9211242F933F934F935F936F93BB
:102420007F938F939F93AF93BF93EF93FF9380918D
:10243000A1069091A206892B29F0E091A106F091C6
:10244000A2061995FF91EF91BF91AF919F918F9146
:102450007F916F915F914F913F912F910F900BBEA4
:102460000F900FBE0F901F9018951F920F920FB6EE
:102470000F920BB60F9211242F933F934F935F93BC
:102480006F937F938F939F93AF93BF93EF93FF933C
:102490008091A3069091A406892B29F0E091A306D0
:1024A000F091A4061995FF91EF91BF91AF919F9183
:1024B0008F917F916F915F914F913F912F910F90ED
:1024C0000BBE0F900FBE0F901F9018951F920F928A
:1024D0000FB60F920BB60F9211242F933F934F9389
:1024E0005F936F937F938F939F93AF93BF93EF937C
:1024F000FF938091A5069091A606892B29F0E09183
:10250000A506F091A6061995FF91EF91BF91AF91A5
:102510009F918F917F916F915F914F913F912F91FB
:102520000F900BBE0F900FBE0F901F9018951F922B
:102530000F920FB60F920BB60F9211242F933F9369
:102540004F935F936F937F938F939F93AF93BF93BB
:10255000EF93FF9380919B0690919C06892B29F025
:10256000E0919B06F0919C061995FF91EF91BF9128
:10257000AF919F918F917F916F915F914F913F911B
:102580002F910F900BBE0F900FBE0F901F901895BC
:102590001F920F920FB60F920BB60F9211242F932A
:1025A0003F934F935F936F937F938F939F93AF93DB
:1025B000BF93EF93FF9380919D0690919E06892B88
:1025C00029F0E0919D06F0919E061995FF91EF91FB
:1025D000BF91AF919F918F917F916F915F914F913B
:1025E0003F912F910F900BBE0F900FBE0F901F9039
:1025F00018951F920F920FB60F920BB60F921124DF
:102600002F933F934F935F936F937F938F939F93FA
:10261000AF93BF93EF93FF938091A7069091A80685
:10262000892B29F0E091A706F091A8061995FF9152
:10263000EF91BF91AF919F918F917F916F915F913A
:102640004F913F912F910F900BBE0F900FBE0F90A7
:102650001F9018951F920F920FB60F920BB60F9204
:1026600011242F933F934F935F936F937F938F9397
:102670009F93AF93BF93EF93FF938091A90690919F
:10268000AA06892B29F0E091A906F091AA061995CE
:10269000FF91EF91BF91AF919F918F917F916F913A
:1026A0005F914F913F912F910F900BBE0F900FBEF6
:1026B0000F901F9018951F920F920FB60F92112432
:1026C0002F933F938F939F93AF93BF938091AF06C8
:1026D0009091B006A091B106B091B2063091B306C8
:1026E0000196A11DB11D232F2D5F2D3720F02D57F1
:1026F0000196A11DB11D2093B3068093AF06909360
:10270000B006A093B106B093B2068091AB0690914B
:10271000AC06A091AD06B091AE060196A11DB11D0B
:102720008093AB069093AC06A093AD06B093AE0633
:10273000BF91AF919F918F913F912F910F900FBEBD
:102740000F901F9018958FB7F8942091AF06309195
:10275000B0064091B1065091B2068FBFB901CA01CF
:1027600008959FB7F8942091AB063091AC06409144
:10277000AD065091AE0686B5A89B06C08F3F21F0EE
:102780002F5F3F4F4F4F5F4F9FBF542F432F322F2D
:102790002227280F311D411D511D82E0220F331FBA
:1027A000441F551F8A95D1F7B901CA0108959B01AD
:1027B000AC017FB7F8948091AB069091AC06A091E4
:1027C000AD06B091AE0666B5A89B05C06F3F19F087
:1027D0000196A11DB11D7FBFBA2FA92F982F882761
:1027E000860F911DA11DB11D62E0880F991FAA1FC0
:1027F000BB1F6A95D1F7BC012DC0FFB7F89480913B
:10280000AB069091AC06A091AD06B091AE06E6B5D0
:10281000A89B05C0EF3F19F00196A11DB11DFFBF98
:10282000BA2FA92F982F88278E0F911DA11DB11D9A
:10283000E2E0880F991FAA1FBB1FEA95D1F7861BFC
:10284000970B885E9340C8F2215030404040504082
:1028500068517C4F211531054105510571F60895E8
:10286000019739F0880F991F880F991F02970197D8
:10287000F1F70895789484B5826084BD84B5816051
:1028800084BD85B5826085BD85B5816085BDEEE678
:10289000F0E0808181608083E1E8F0E01082808157
:1028A00082608083808181608083E0E8F0E08081C5
:1028B00081608083E1EBF0E0808184608083E0EBE5
:1028C000F0E0808181608083E1E9F0E080818260D6
:1028D0008083808181608083E0E9F0E08081816095
:1028E0008083E1EAF0E08081826080838081816082
:1028F0008083E0EAF0E0808181608083E1E2F1E0C2
:10290000808182608083808181608083E0E2F1E069
:10291000808181608083EAE7F0E080818460808349
:1029200080818260808380818160808380818068F3
:1029300080831092C1000895809377030895382F03
:10294000863308F0365320917B00832F8695869539
:10295000869590E08170907043E0880F991F4A95AA
:10296000E1F7277F282B20937B0037708091770336
:102970008295880F880F807C832B80937C008091C8
:102980007A00806480937A0080917A0086FDFCCF83
:102990002091780040917900942F80E030E0282B3E
:1029A000392BC90108951F93CF93DF93182FEB01A3
:1029B00061E00E94B315209709F4CAC0CF3FD1054A
:1029C00009F4C9C0E12FF0E0E254FE4F8491893050
:1029D00009F466C08A30B0F48430F1F1853040F4F7
:1029E000823059F1833070F5813009F0AEC020C0DB
:1029F000873009F443C0883008F048C0863009F0B9
:102A0000A4C034C08D3009F478C08E3038F48B30D7
:102A100009F45AC08C3008F066C04CC0803109F40B
:102A200080C0813109F487C08F3009F08EC06FC03B
:102A300084B5806884BDC7BD92C084B5806284BD02
:102A4000C8BD8DC080918000806880938000D09345
:102A50008900C093880083C0809180008062809349
:102A60008000D0938B00C0938A0079C08091B00021
:102A700080688093B000C093B30071C08091B000B3
:102A800080628093B000C093B40069C080919000D0
:102A9000806880939000D0939900C09398005FC0A5
:102AA00080919000806280939000D0939B00C093AF
:102AB0009A0055C080919000886080939000D093D8
:102AC0009D00C0939C004BC08091A00080688093C3
:102AD000A0008091A0008F7B8093A000D093A900DC
:102AE000C093A8003CC08091A00080628093A000A9
:102AF000D093AB00C093AA0032C08091A000886040
:102B00008093A000D093AD00C093AC0028C080910A
:102B10002001806880932001D0932901C09328016F
:102B20001EC080912001806280932001D0932B01F0
:102B3000C0932A0114C080912001886080932001F5
:102B4000D0932D01C0932C010AC0C038D1051CF4CC
:102B5000812F60E002C0812F61E00E946616DF9144
:102B6000CF911F910895CF93DF93482F50E0CA0172
:102B700088589E4FFC0134914E5C5E4FFA0184915F
:102B8000882369F190E0880F991FFC01EC51FF4FF9
:102B9000A591B491FC01E250FF4FC591D4916623F9
:102BA00051F42FB7F8948C91932F909589238C939F
:102BB000888189230BC0623061F42FB7F8948C911F
:102BC000932F909589238C938881832B88832FBFA3
:102BD00006C09FB7F8948C91832B8C939FBFDF9195
:102BE000CF910895893009F449C08A30A0F4843027
:102BF00051F1853040F4823079F1833000F5813035
:102C000009F063C026C0873079F1883098F58630A6
:102C100009F05BC025C08D3009F442C08E3028F425
:102C20008B30B1F18C30C0F52DC0803109F442C039
:102C3000813109F445C08F3009F047C037C0809119
:102C400080008F7703C0809180008F7D809380000B
:102C5000089584B58F7702C084B58F7D84BD0895B3
:102C60008091B0008F7703C08091B0008F7D8093FA
:102C7000B0000895809190008F7707C080919000F8
:102C80008F7D03C080919000877F8093900008958E
:102C90008091A0008F7707C08091A0008F7D03C036
:102CA0008091A000877F8093A000089580912001EB
:102CB0008F7703C0809120018F7D8093200108953C
:102CC00080912001877F809320010895FF920F93C8
:102CD0001F93F62E482F50E0CA0182549E4FFC01EC
:102CE0002491CA0188589E4FFC0114914E5C5E4F9E
:102CF000FA0104910023C9F0222319F0822F0E94C7
:102D0000F215E02FF0E0EE0FFF1FE250FF4FA5910C
:102D1000B4919FB7F894FF2021F48C9110958123F2
:102D200002C08C91812B8C939FBF1F910F91FF90BC
:102D300008950F931F93482F50E0CA0182549E4F6D
:102D4000FC012491CA0188589E4FFC0104914E5CFD
:102D50005E4FFA011491112319F420E030E015C000
:102D6000222319F0822F0E94F215812F90E0880F04
:102D7000991F885E9E4FFC01A591B4918C9120E033
:102D800030E0802311F021E030E0C9011F910F9164
:102D900008958F929F92AF92BF92CF92DF92EF925F
:102DA000FF920F931F93CF93DF93A82FB0E0CD0135
:102DB00088589E4FFC018490AE5CBE4FFD0184910B
:102DC000662311F4992401C0982C6FEFA62E6FEFA3
:102DD000B62E6FEFC62E6FE0D62EA222B322C422EB
:102DE000D522682F70E0660F771F685E7E4FEE2455
:102DF000FF248701FB01A591B4910BC0EA14FB04E9
:102E00000C051D0509F44EC00894E11CF11C011DC0
:102E1000111D8C918821891589F30CC0EA14FB04DB
:102E20000C051D0509F43EC00894E11CF11C011DB0
:102E3000111D03C0FB01A591B4918C9188218915C6
:102E400069F720E030E040E050E0FB01C591D4910B
:102E50000FC0DA01C9018E0D9F1DA01FB11F8A1579
:102E60009B05AC05BD05F1F02F5F3F4F4F4F5F4F06
:102E700088818821891569F3CA01B90125E130E00B
:102E800040E050E00E94A02D9B01AC01205F3F4F2D
:102E90004F4F5F4F84E056954795379527958A9514
:102EA000D1F704C020E030E040E050E0B901CA01B1
:102EB000DF91CF911F910F91FF90EF90DF90CF9016
:102EC000BF90AF909F908F90089508951F920F929A
:102ED0000FB60F920BB60F9211242F933F934F937F
:102EE0008F939F93EF93FF938091C00082FD1DC04D
:102EF0004091C6002091F4063091F5062F5F3F4FB8
:102F00002F7330708091F6069091F70628173907D5
:102F100071F0E091F406F091F506EC54F94F40831E
:102F20003093F5062093F40602C08091C600FF910D
:102F3000EF919F918F914F913F912F910F900BBEE9
:102F40000F900FBE0F901F90189508951F920F922B
:102F50000FB60F920BB60F9211242F933F934F93FE
:102F60008F939F93EF93FF938091C80082FD1DC0C4
:102F70004091CE0020917C0730917D072F5F3F4F1D
:102F80002F73307080917E0790917F072817390743
:102F900071F0E0917C07F0917D07E45CF84F40838D
:102FA00030937D0720937C0702C08091CE00FF9173
:102FB000EF919F918F914F913F912F910F900BBE69
:102FC0000F900FBE0F901F90189508951F920F92AB
:102FD0000FB60F920BB60F9211242F933F934F937E
:102FE0008F939F93EF93FF938091D00082FD1DC03C
:102FF0004091D60020910408309105082F5F3F4F83
:103000002F733070809106089091070828173907B0
:1030100071F0E0910408F0910508EC53F84F4083FB
:10302000309305082093040802C08091D600FF91D8
:10303000EF919F918F914F913F912F910F900BBEE8
:103040000F900FBE0F901F90189508951F920F922A
:103050000FB60F920BB60F9211242F933F934F93FD
:103060008F939F93EF93FF938091300182FD1DC05A
:103070004091360120918C0830918D082F5F3F4F91
:103080002F73307080918E0890918F082817390720
:1030900071F0E0918C08F0918D08E45BF74F40836C
:1030A00030938D0820938C0802C080913601FF91E7
:1030B000EF919F918F914F913F912F910F900BBE68
:1030C0000F900FBE0F901F901895E091E008F091BF
:1030D000E108E05CFF4F8191919120813181821B59
:1030E000930B8F739070892B11F00E946517E091FC
:1030F0000209F0910309E05CFF4F819191912081D9
:103100003181821B930B8F739070892B11F00E9479
:10311000A517E0912409F0912509E05CFF4F81910A
:10312000919120813181821B930B8F739070892B39
:1031300011F00E94E517E0914609F0914709E05C23
:10314000FF4F8191919120813181821B930B8F736D
:103150009070892B11F00E94251808951F920F92EC
:103160000FB60F920BB60F9211242F933F938F93AC
:103170009F93EF93FF932091380730913907809107
:103180003A0790913B072817390731F48091C10025
:103190008F7D8093C10014C0E0913A07F0913B0706
:1031A000E850F94F208180913A0790913B070196B2
:1031B0008F73907090933B0780933A072093C600DB
:1031C000FF91EF919F918F913F912F910F900BBEA7
:1031D0000F900FBE0F901F9018951F920F920FB671
:1031E0000F920BB60F9211242F933F938F939F93BF
:1031F000EF93FF932091C0073091C1078091C207E0
:103200009091C3072817390731F48091C9008F7D49
:103210008093C90014C0E091C207F091C307E05841
:10322000F84F20818091C2079091C30701968F7358
:1032300090709093C3078093C2072093CE00FF91B4
:10324000EF919F918F913F912F910F900BBE0F9017
:103250000FBE0F901F9018951F920F920FB60F92EE
:103260000BB60F9211242F933F938F939F93EF935D
:10327000FF93209148083091490880914A08909125
:103280004B082817390731F48091D1008F7D809346
:10329000D10014C0E0914A08F0914B08E85FF74F65
:1032A000208180914A0890914B0801968F7390700D
:1032B00090934B0880934A082093D600FF91EF919A
:1032C0009F918F913F912F910F900BBE0F900FBE4A
:1032D0000F901F9018951F920F920FB60F920BB67A
:1032E0000F9211242F933F938F939F93EF93FF930C
:1032F0002091D0083091D1088091D2089091D308C4
:103300002817390731F4809131018F7D8093310185
:1033100014C0E091D208F091D308E057F74F208114
:103320008091D2089091D30801968F7390709093FA
:10333000D3088093D20820933601FF91EF919F919B
:103340008F913F912F910F900BBE0F900FBE0F905A
:103350001F9018958F929F92AF92BF92CF92DF925B
:10336000EF92FF920F931F93DF93CF93CDB7DEB70A
:10337000FC011382128288EE93E0A0E0B0E0848327
:103380009583A683B78382E893E0918380837587D2
:10339000648757874687318B208B138B028BF58A86
:1033A000E48AD78AC68AB18EA08E938E828E88894F
:1033B000848F8989858F8A89868F8B89878F8C896D
:1033C00080A3CF91DF911F910F91FF90EF90DF903D
:1033D000CF90BF90AF909F908F9008958F929F92C3
:1033E000AF92BF92CF92DF92EF92FF920F931F9313
:1033F000DF93CF93CDB7DEB7FC011382128288EE44
:1034000093E0A0E0B0E084839583A683B78382E84D
:1034100093E0918380837587648757874687318BD4
:10342000208B138B028BF58AE48AD78AC68AB18EE9
:10343000A08E938E828E8889848F8989858F8A89D0
:10344000868F8B89878F8C8980A3CF91DF911F9185
:103450000F91FF90EF90DF90CF90BF90AF909F9033
:103460008F900895AF92BF92DF92EF92FF920F93E9
:103470001F93CF93DF93EC017A018B01DD24403061
:1034800081EE580780E0680780E0780711F0DD24BE
:10349000D39491E0A92EB12CEC89FD89DD2069F04F
:1034A000C50108A002C0880F991F0A94E2F7808323
:1034B00060E079E08DE390E005C0108260E874E898
:1034C0008EE190E0A80197010E94D32D2150304059
:1034D00040405040569547953795279580E12030DC
:1034E000380720F0DD2011F0DD24D6CFE889F989F6
:1034F0003083EA89FB89208319A2EE89FF89408104
:1035000021E030E0C9010C8C02C0880F991F0A9499
:10351000E2F7482B4083EE89FF894081C9010D8C79
:1035200002C0880F991F0A94E2F7482B4083EE8966
:10353000FF894081C9010E8C02C0880F991F0A942F
:10354000E2F7482B4083EE89FF8980810F8C02C00F
:10355000220F331F0A94E2F7209528232083DF915E
:10356000CF911F910F91FF90EF90DF90BF90AF90A0
:103570000895AF92BF92CF92DF92EF92FF920F9396
:103580001F93CF93DF93EC017A018B01C22EDD24D0
:10359000403081EE580780E0680780E0780711F03E
:1035A000DD24D39471E0A72EB12CEC89FD89DD20B8
:1035B00069F0C50108A002C0880F991F0A94E2F7BC
:1035C000808360E079E08DE390E005C0108260E8E0
:1035D00074E88EE190E0A80197010E94D32D21505C
:1035E000304040405040569547953795279580E1AB
:1035F0002030380720F0DD2011F0DD24D6CFE88917
:10360000F9893083EA89FB892083E88DF98DC082AE
:10361000EE89FF89408121E030E0C9010C8C02C0B5
:10362000880F991F0A94E2F7482B4083EE89FF899F
:103630004081C9010D8C02C0880F991F0A94E2F7DE
:10364000482B4083EE89FF894081C9010E8C02C05E
:10365000880F991F0A94E2F7482B4083EE89FF896F
:1036600080810F8C02C0220F331F0A94E2F720954D
:1036700028232083DF91CF911F910F91FF90EF902E
:10368000DF90CF90BF90AF900895CF93DF93DC0190
:103690001E968D919C911F97EC01C05CDF4FFC0141
:1036A000EE5BFF4F2881398180819181281739078E
:1036B000C9F75696ED91FC915797408121E030E093
:1036C000C9015C960C905C9702C0880F991F0A9400
:1036D000E2F78095842380835696ED91FC9157976D
:1036E0004081C9015D960C905D9702C0880F991FBB
:1036F0000A94E2F78095842380835696ED91FC919D
:1037000057974081C9015E960C905E9702C0880F62
:10371000991F0A94E2F78095842380835696ED9151
:10372000FC91579780815F960C905F9702C0220FA3
:10373000331F0A94E2F72095282320831C96ED91ED
:10374000FC911D97EE5BFF4F808191819293829354
:10375000DF91CF910895DC011C96ED91FC911D97AE
:10376000E05CFF4F2191319180819181281B390BC1
:103770002F733070C9010895DC011C96ED91FC9106
:103780001D97E05CFF4F20813181E054F040DF0164
:10379000AE5BBF4F8D919C9111972817390719F493
:1037A0002FEF3FEF07C08D919C91E80FF91F8081AB
:1037B000282F30E0C9010895DC011C96ED91FC91A1
:1037C0001D97E05CFF4F20813181E054F040DF0124
:1037D000AE5BBF4F8D919C9111972817390719F453
:1037E0002FEF3FEF10C08D919C911197E80FF91FBB
:1037F00020818D919C91119701968F7390701196F5
:103800009C938E9330E0C9010895DC0191968C91D0
:103810009197882339F05496ED91FC9155978081CA
:1038200086FFF9CF91961C920895CF93DF93EC0118
:10383000EE85FF85E05CFF4F20813181E054F04050
:103840002F5F3F4F2F733070DF01AE5BBF4F8D9105
:103850009C91119728173907D1F3E05CFF4F8081C5
:103860009181E054F040E80FF91F6083EE85FF85F9
:10387000E05CFF4F31832083EE89FF89208181E066
:1038800090E00F8C02C0880F991F0A94E2F7282B52
:10389000208381E089A3EC89FD8980818064808315
:1038A00081E090E0DF91CF91089581E008951F932A
:1038B0001092D7081092D60828EE33E040E050E08E
:1038C0002093D8083093D9084093DA085093DB0846
:1038D00062E873E07093D5086093D40884EB96E0B7
:1038E0009093E1088093E00888EF96E09093E308D6
:1038F0008093E20885EC90E09093E5088093E408DB
:1039000084EC90E09093E7088093E60880EC90E0E8
:103910009093E9088093E80881EC90E09093EB089D
:103920008093EA0882EC90E09093ED088093EC0895
:1039300086EC90E09093EF088093EE0814E01093EB
:10394000F008B3E0B093F108A7E0A093F208F5E027
:10395000F093F308E1E0E093F4081092F908109274
:10396000F8082093FA083093FB084093FC08509322
:10397000FD087093F7086093F6088CE397E0909346
:1039800003098093020980E897E0909305098093EA
:1039900004098DEC90E090930709809306098CEC64
:1039A00090E0909309098093080988EC90E0909347
:1039B0000B0980930A0989EC90E090930D0980939C
:1039C0000C098AEC90E090930F0980930E098EEC1D
:1039D00090E0909311098093100910931209B0930D
:1039E0001309A0931409F0931509E0931609109296
:1039F0001B0910921A0920931C0930931D0940934A
:103A00001E0950931F09709319096093180984ECDB
:103A100097E0909325098093240988E098E090939B
:103A200027098093260985ED90E0909329098093DA
:103A3000280984ED90E090932B0980932A0980ED6A
:103A400090E090932D0980932C0981ED90E0909364
:103A50002F0980932E0982ED90E090933109809395
:103A6000300986ED90E090933309809332091093EA
:103A70003409B0933509A0933609F0933709E093E0
:103A8000380910923D0910923C0920933E09309369
:103A90003F09409340095093410970933B0960935B
:103AA0003A098CE498E0909347098093460980E9AD
:103AB00098E0909349098093480985E391E09093B9
:103AC0004B0980934A0984E391E090934D098093D8
:103AD0004C0980E391E090934F0980934E0981E374
:103AE00091E0909351098093500982E391E0909383
:103AF00053098093520986E391E09093550980938E
:103B0000540910935609B0935709A0935809F0939C
:103B10005909E0935A091F9108950F93FC0182EA15
:103B200093E09183808362834383248305830F9191
:103B300008950F93FC0182EA93E09183808362836E
:103B40004383248305830F91089582EA93E0909341
:103B50005D0980935C0910925E0910925F091092D2
:103B600060091092610908958F929F92AF92BF925F
:103B7000CF92DF92EF92FF920F931F93CF93DF9339
:103B80004C016B017C01AA24BB24C0E0D0E0C6013B
:103B9000F70162814AE050E00E941D208C01C601BD
:103BA0006EE20E94D31E080F191FA00EB11E2196AF
:103BB0000894E11CF11CC330D10549F7C601F4019A
:103BC00065814AE050E00E941D209501280F391FB1
:103BD000C901DF91CF911F910F91FF90EF90DF907E
:103BE000CF90BF90AF909F908F9008959C012E5FD3
:103BF0003F4FCB01B90144E050E00E94D30F9C013C
:103C000080E0232B09F481E00895DF93CF9300D067
:103C10000F92CDB7DEB7FC01428353836483758373
:103C20000F900F900F900F90CF91DF9108959C010E
:103C3000FB0180819181A281B381F9018283938309
:103C4000A483B583C90108959C01FB0182EA93E036
:103C5000D9018D939C9380819181A281B381F901D7
:103C600082839383A483B58308959C01FB0182EA38
:103C700093E0D9018D939C9380819181A281B3813E
:103C8000F90182839383A483B5830895DF93CF934F
:103C900000D00F92CDB7DEB7FC0182EA93E09183AA
:103CA000808342835383648375830F900F900F90BA
:103CB0000F90CF91DF910895DF93CF9300D00F92B3
:103CC000CDB7DEB7FC0182EA93E091838083428323
:103CD0005383648375830F900F900F900F90CF9153
:103CE000DF910895FC0182EA93E091838083128240
:103CF0001382148215820895FC0182EA93E0918375
:103D0000808312821382148215820895CF92DF92EB
:103D1000EF92FF920F931F93CF93DF937C016B0180
:103D20008A01C0E0D0E00FC0D6016D916D01D701CE
:103D3000ED91FC910190F081E02DC7011995C80F1C
:103D4000D91F015010400115110571F7CE01DF9107
:103D5000CF911F910F91FF90EF90DF90CF9008953A
:103D6000EF92FF920F931F93CF93DF937C018B0110
:103D7000C0E0D0E0F8010F5F1F4F6491662359F057
:103D8000D701ED91FC910190F081E02DC7011995CB
:103D9000C80FD91FEFCFCE01DF91CF911F910F91A7
:103DA000FF90EF900895DC01ED91FC910190F0817E
:103DB000E02D199508959C01DB01ED91FC91019096
:103DC000F081E02DCB01B90119950895EF92FF9292
:103DD0000F931F938C01DC01ED91FC910190F08118
:103DE000E02D6DE019957C01D801ED91FC910190D9
:103DF000F081E02DC8016AE019959C012E0D3F1D50
:103E0000C9011F910F91FF90EF900895EF92FF92DB
:103E10000F931F937C010E94B01E8C01C7010E946A
:103E2000E61E9C01200F311FC9011F910F91FF90C9
:103E3000EF900895EF92FF920F931F937C01DC01A6
:103E4000ED91FC910190F081E02D19958C01C70155
:103E50000E94E61E080F191FC8011F910F91FF90C5
:103E6000EF900895EF92FF920F931F937C01DB0177
:103E7000ED91FC910190F081E02DCB01B7011995F6
:103E80008C01C7010E94E61E080F191FC8011F916F
:103E90000F91FF90EF900895CF93DF93EC016115A0
:103EA000710519F420E030E00FC0DB010D90002017
:103EB000E9F71197A61BB70BE881F9810280F3811E
:103EC000E02DAD0119959C01C901DF91CF910895B5
:103ED0004F925F927F928F929F92AF92BF92CF92BA
:103EE000DF92EF92FF920F931F93DF93CF93CDB7A3
:103EF000DEB7A1970FB6F894DEBF0FBECDBF2C0181
:103F0000742ECB01223008F42AE019A231E2C32E2C
:103F1000D12CCC0EDD1E822E9924AA24BB24672D21
:103F2000752FA50194010E94D32D79018A01C80142
:103F3000B701A50194010E94A02D472D461B0894AE
:103F4000C108D1084A3014F4405D01C0495CF60153
:103F50004083E114F1040105110521F07E2C5F2D51
:103F6000C801DDCFC201B6010E944C1FA1960FB659
:103F7000F894DEBF0FBECDBFCF91DF911F910F919F
:103F8000FF90EF90DF90CF90BF90AF909F908F9079
:103F90007F905F904F900895DC012115310541F429
:103FA000ED91FC910190F081E02D642F1995089519
:103FB0000E94681F0895EF92FF920F931F937C0158
:103FC0000E94CC1F8C01C7010E94E61E9C01200F9D
:103FD000311FC9011F910F91FF90EF900895EF924B
:103FE000FF920F931F939A017B0100E010E0B8014C
:103FF000A7010E94CC1F1F910F91FF90EF90089591
:10400000CF92DF92EF92FF920F931F936C017B018F
:104010009A0100E010E0B801A7010E94CC1F8C01BA
:10402000C6010E94E61E080F191FC8011F910F91BB
:10403000FF90EF90DF90CF900895EF92FF920F9353
:104040001F939A01E62EFF2400E010E0B801A701BB
:104050000E94CC1F1F910F91FF90EF900895CF9277
:10406000DF92EF92FF920F931F936C01E62E9A015D
:10407000FF2400E010E0B801A7010E94CC1F8C01D2
:10408000C6010E94E61E080F191FC8011F910F915B
:10409000FF90EF90DF90CF900895CF92DF92EF9254
:1040A000FF920F931F93CF93DF93EC016A017B0183
:1040B0002115310541F4E881F9810190F081E02D6D
:1040C000642F19951FC02A303105D1F477FF17C02E
:1040D000E881F9810190F081E02D6DE219958C0164
:1040E00044275527BA014C195D096E097F09CE0195
:1040F0002AE00E94681F9801280F391F04C02AE097
:104100000E94681F9C01C901DF91CF911F910F91FF
:10411000FF90EF90DF90CF900895EF92FF920F9372
:104120001F937C010E944D208C01C7010E94E61E56
:104130009C01200F311FC9011F910F91FF90EF903B
:104140000895EF92FF920F931F937B019A0100272E
:10415000F7FC0095102FB801A7010E944D201F9178
:104160000F91FF90EF900895CF92DF92EF92FF9220
:104170000F931F936C017B019A010027F7FC0095B8
:10418000102FB801A7010E944D208C01C6010E948A
:10419000E61E080F191FC8011F910F91FF90EF90A5
:1041A000DF90CF9008950E944C1F08957F928F92C8
:1041B0009F92AF92BF92CF92DF92EF92FF920F93B6
:1041C0001F93CF93DF934C017A018B01722ECB01A9
:1041D000BA01A80197010E94600C882321F0C40154
:1041E00060E672E021C0C0E0D0E057016801E894C9
:1041F000D7F8C601B5012FEF3FEF4FE75FE70E9409
:10420000600C882351F4C601B5012FEF3FEF4FE753
:104210005FE70E94300C181614F0C1E0D0E021973F
:1042200039F0C40164E672E00E944C1FEC0193C0B7
:10423000C801B7012FEF3FEF4FE75FE40E94A00BEB
:10424000181654F0C801B7012FEF3FEF4FE75FECAE
:104250000E94000C882324F4C40168E672E0E4CFD5
:10426000C801B70120E030E040E050E00E94000CBF
:1042700087FD03C0C0E0D0E00EC0D401ED91FC91F9
:104280000190F081E02DC4016DE21995EC0117FB5E
:10429000109517F9109520E030E040E05FE3DD2451
:1042A0000BC0CA01B90120E030E040E251E40E94B5
:1042B000F40A9B01AC01D394D71498F3C801B70159
:1042C0000E94CD095B016C010E9424087B018C01D6
:1042D000C401B801A7012AE030E00E94CC1FC80F3A
:1042E000D91F772039F0C4016CE672E00E944C1FA0
:1042F000C80FD91FC801B7010E943D0D9B01AC0139
:10430000C601B5010E949C0924C020E030E040E2D3
:1043100051E40E94FA097B018C010E94E90C5B01C7
:104320006C01CC24B7FCC094DC2CC401B601A501FF
:104330002AE030E00E944D20C80FD91FC601B50108
:104340000E948B0C9B01AC01C801B7010E949C0923
:104350007A947720D1F6CE01DF91CF911F910F9102
:10436000FF90EF90DF90CF90BF90AF909F908F9095
:104370007F9008950E94D6200895EF92FF920F93A8
:104380001F937C010E94D6208C01C7010E94E61E6B
:10439000080F191FC8011F910F91FF90EF9008950A
:1043A000EF92FF920F931F937C010E944C1F8C0190
:1043B000C7010E94E61E080F191FC8011F910F9127
:1043C000FF90EF900895AF92BF92CF92DF92EF925D
:1043D000FF920F931F93CF93DF935C016B01EE2449
:1043E000FF24C0E0D0E010C0D501ED91FC91008128
:1043F0001181C601BE010E945D22682FC501F8012E
:104400001995E80EF91E2196F60184819581C81749
:10441000D90750F3C701DF91CF911F910F91FF9002
:10442000EF90DF90CF90BF90AF900895EF92FF9202
:104430000F931F937C010E94E3218C01C7010E940E
:10444000E61E9C01200F311FC9011F910F91FF90A3
:10445000EF900895FC01848195816817790748F4ED
:104460000190F081E02D309721F0E60FF71F808159
:10447000089580E00895FC0184819581681779078B
:1044800030F40190F081E02DE60FF71F408308958E
:10449000FC019B01848195816817790728F460816C
:1044A00071816115710529F41092620962E679E063
:1044B00002C0620F731FCB010895FC0184819581B6
:1044C0006817790748F40190F081E02D309721F0CA
:1044D000E60FF71F8081089580E00895FC010190A8
:1044E000F081E02D309729F40895861709F4408370
:1044F000319680818823C9F70895FC0180819181DC
:10450000009729F420E030E040E050E004C00E9431
:10451000AB0F9B01AC01B901CA010895CF92DF92A4
:10452000EF92FF920F931F93CF93DF936C01DC0107
:10453000ED90FC901197E114F10409F441C0149638
:10454000CD91DC9115972097D9F1870102C00F5FBB
:104550001F4FF8018081992787FD90950E94322E88
:10456000892BA9F72197CE0DDF1D01C021978881E6
:10457000992787FD90950E94322E892B19F0C0173C
:10458000D107A0F7FE013196E01BF10BD60115967D
:10459000FC93EE9314972D913C912017310728F44A
:1045A000C901B801AF010E94E20FD601ED91FC9163
:1045B000119714968D919C911597E80FF91F108211
:1045C000DF91CF911F910F91FF90EF90DF90CF90EF
:1045D0000895CF93DF93FC01C081D181209739F4F6
:1045E00009C0992787FD90950E94422E8993888162
:1045F0008823B9F7DF91CF910895CF93DF93FC0122
:10460000C081D181209739F409C0992787FD909501
:104610000E943A2E899388818823B9F7DF91CF9140
:104620000895EF92FF920F931F93CF93DF93FC01B6
:10463000DB018617970739F12481358114968D9116
:104640009C9115972817390701F5232BE1F0E0809D
:10465000F180CD91DC9113C0992787FD90950E9440
:104660003A2E8C018881992787FD90950E943A2ED9
:104670000817190751F40894E11CF11C2196F70161
:104680008081882349F781E001C080E0DF91CF91EC
:104690001F910F91FF90EF900895AF92BF92CF922C
:1046A000DF92EF92FF920F931F93CF93DF93FC0162
:1046B0005B017A01DB0114962D913C911597211530
:1046C000310559F184819581009739F1821793075B
:1046D00020F14817590720F07C010894E108F108FF
:1046E00000811181C801CFEFDFEF6801CE0CDF1C24
:1046F00010C0F501608171810E944F109C010097EC
:1047000071F0801B910BE816F90608F0EC01C90165
:104710000196C816D90668F702C0CFEFDFEFCE01C9
:10472000DF91CF911F910F91FF90EF90DF90CF908D
:10473000BF90AF900895FC01DB0144815581149630
:104740008D919C911597481B590BCF010E944D23C9
:104750000895CF93DF93FC01DB0184819581481795
:10476000590760F4C081D1816D917C91CE01840F95
:10477000951F0E944F109C01009719F42FEF3FEFF7
:1047800002C02C1B3D0BC901DF91CF91089540E081
:1047900050E00E94A9230895DF92EF92FF920F93B9
:1047A0001F93CF93DF93EC018C819D8148175907AC
:1047B000C8F47A010894E11CF11CE881F981EE0D3E
:1047C000FF1DD080108208811981772767FD7095C1
:1047D000C8010E9442109C010E0D1F1DF801D082DD
:1047E000009719F4EFEFFFEF05C088819981F90177
:1047F000E81BF90BCF01DF91CF911F910F91FF9033
:10480000EF90DF900895FC01448155814150504064
:104810000E94CC230895CF93DF93FC01848195817E
:104820004817590768F4C081D181772767FD7095D3
:10483000CE01840F951F0E9400109C01009719F46F
:104840002FEF3FEF02C02C1B3D0BC901DF91CF9131
:10485000089540E050E00E940B2408950F931F93A9
:10486000CF93DF93FC018B0141155105F9F06115E0
:104870007105E1F0848195812817390718F0FB0153
:10488000108214C041505040EC01C21BD30B4C1796
:104890005D0708F4EA0160817181620F731FC8012E
:1048A000AE010E943110C00FD11F1882DF91CF914D
:1048B0001F910F910895FC01DB012481358114962D
:1048C0004D915C91159724173507A8F0808191814F
:1048D000009789F06D917C916115710561F0241B41
:1048E000350B820F931F0E940D109C0180E0232B3B
:1048F00019F481E0089580E00895DC01FB0114962D
:104900008D919C911597892B31F461157105A9F052
:1049100090E0808108C00D90BC91A02D61157105BB
:1049200029F490E08C91882349F407C0CD010E94BE
:104930000D109C0190E0232B09F491E0892F08953C
:10494000CF93DF939C01FB01EC01A881B981109703
:1049500029F06081718161157105D1F4C081D18127
:10496000209759F084819581892B39F0888190E0D6
:1049700022273327281B390B12C0109771F0F90139
:1049800084819581892B49F08C91282F30E007C0D4
:10499000CD010E940D109C0102C020E030E0C90151
:1049A000DF91CF9108950E94A024892F8095881FC0
:1049B0008827881F08950E94A02420E01816190651
:1049C0000CF021E0822F08950E94A02420E0181608
:1049D00019060CF421E0822F08950E94A024892F4B
:1049E000881F8827881F0895FC01DB0124813581F9
:1049F00014968D919C9115972817390711F020E096
:104A000007C0CF010E94A02420E0892B09F421E0F7
:104A1000822F0895FC01DB0114962D913C9115978E
:104A200084819581821B930B84179507A0F0808168
:104A30009181009781F06D917C916115710559F01C
:104A4000840F951FA9010E9421109C0180E0232B57
:104A500019F481E0089580E00895FC01DB012481D0
:104A6000358114968D919C9115972817390710F46C
:104A700080E00895CF0140E050E00E940A250895AB
:104A80000F931F93CF93DF93EC018B016F5F7F4FE9
:104A9000888199810E94BF2C009711F480E005C0A5
:104AA000998388831B830A8381E0DF91CF911F91D3
:104AB0000F9108952F923F924F925F926F927F9243
:104AC0008F929F92AF92BF92CF92DF92EF92FF921E
:104AD0000F931F93CF93DF935C012B014A01DC01FD
:104AE00014960D911C9115970115110509F4D4C068
:104AF000FB01C480D580C114D10409F4CDC0DA0112
:104B000014966D907C9015976C187D08FC01E080E0
:104B1000F1806114710491F01BC0D4016C91119665
:104B20007C91119714964D915C9115978C2F0E9452
:104B3000E20FF401E480F580EC0EFD1ED2016D91D0
:104B40007C91C7010E944F10EC01009731F7A4C07F
:104B500077FE02C067012EC0FB0120803180E80192
:104B60003CC08E010E191F09C601B701A8010E94A1
:104B7000E20F0C0D1D1DD4016C9111967C911197C3
:104B800014964D915C911597C8010E94E20FF401B3
:104B9000C480D580C00ED11ED2011496ED90FC9039
:104BA0001597EC0EFD1EF50184819581860D971DEC
:104BB00095838483D2016D917C91C7010E944F102F
:104BC000EC01009771F6C601B7010E94181064C08D
:104BD0007B01EC0CFD1CC60DD71DC701B1010E9465
:104BE0004F10BC010097A1F7C017D10709F454C0BA
:104BF000F501828193818C179D0708F044C0C5019F
:104C0000BE010E9440258823F1F546C0C501B201CE
:104C1000A9010E944D23EC0197FD3EC0D5016D9185
:104C20007C911197F201848195818C0F9D1F680FF3
:104C3000791F14964D915C911597481B590BCB0128
:104C4000860D971D0E94ED0FD50114968D919C91B4
:104C50001597860D971D15969C938E931497ED913D
:104C6000FC911197E80FF91F10822D913C912C0FA8
:104C70003D1FF4016081718144815581C9010E9409
:104C8000E20F9E0105C0D50114962D913C91159718
:104C90002150304037FFBACFDF91CF911F910F9154
:104CA000FF90EF90DF90CF90BF90AF909F908F904C
:104CB0007F906F905F904F903F902F900895CF938B
:104CC000DF93EC0188819981892B29F08A819B816E
:104CD0008617970760F4CE010E944025882341F093
:104CE0008C819D81892B19F4E881F981108281E002
:104CF000DF91CF910895EF92FF920F931F93CF937F
:104D0000DF93EC017B016C817D81E114F104C1F042
:104D10004115510599F08A01060F171FB8010E942D
:104D20005F26882369F0888199812C813D81820FDB
:104D3000931FB7010E9418101D830C8381E001C0EE
:104D400080E0DF91CF911F910F91FF90EF90089538
:104D5000EF92FF920F931F93DF93CF93CDB7DEB700
:104D60002B970FB6F894DEBF0FBECDBF7C01CB01F1
:104D7000BA018E010F5F1F4FA8012AE030E00E94A8
:104D8000DB10F80101900020E9F73197E01BF10BEF
:104D9000C701B801AF010E947B262B960FB6F8948D
:104DA000DEBF0FBECDBFCF91DF911F910F91FF905E
:104DB000EF900895EF92FF920F931F93DF93CF939D
:104DC000CDB7DEB72C970FB6F894DEBF0FBECDBFC0
:104DD0007C01CB01BA018E010F5F1F4FA8012AE0B1
:104DE00030E00E949110F80101900020E9F731971E
:104DF000E01BF10BC701B801AF010E947B262C9686
:104E00000FB6F894DEBF0FBECDBFCF91DF911F91DB
:104E10000F91FF90EF900895EF92FF920F931F93E1
:104E2000DF93CF9300D000D0CDB7DEB77C01CB01AC
:104E30008E010F5F1F4FB8014AE050E00E94011140
:104E4000F80101900020E9F73197E01BF10BC70151
:104E5000B801AF010E947B2626960FB6F894DEBFFC
:104E60000FBECDBFCF91DF911F910F91FF90EF90BB
:104E70000895EF92FF920F931F93DF93CF93CDB7D7
:104E8000DEB727970FB6F894DEBF0FBECDBF7C010B
:104E9000CB018E010F5F1F4FB8014AE050E00E9426
:104EA0006E10F80101900020E9F73197E01BF10B3B
:104EB000C701B801AF010E947B2627960FB6F89470
:104EC000DEBF0FBECDBFCF91DF911F910F91FF903D
:104ED000EF900895EF92FF920F931F93DF93CF937C
:104EE00000D00F92CDB7DEB77C01862F90E08E0107
:104EF0000F5F1F4FB8014AE050E00E946E10F801AA
:104F000001900020E9F73197E01BF10BC701B801D0
:104F1000AF010E947B260F900F900F900F90CF91C2
:104F2000DF911F910F91FF90EF900895DF93CF9342
:104F30000F920F92CDB7DEB769831A82BE016F5F01
:104F40007F4F41E050E00E947B260F900F90CF9161
:104F5000DF9108956115710511F480E00895DB017A
:104F60000D900020E9F71197A61BB70BAD010E9429
:104F70007B260895FB0160817181448155810E94E7
:104F80007B260895CF93DF93EC0188819981009768
:104F900011F00E94272C198218821D821C821B820C
:104FA0001A82DF91CF9108950F931F93182F092F25
:104FB0000E94A826882321F4812F902F0E94C227C7
:104FC000812F902F1F910F9108950F931F93182FEA
:104FD000092F0E94DA26882321F4812F902F0E9426
:104FE000C227812F902F1F910F9108950F931F9328
:104FF000182F092F0E940C27882321F4812F902F2E
:105000000E94C227812F902F1F910F9108950F9317
:105010001F93182F092F0E943927882321F4812FED
:10502000902F0E94C227812F902F1F910F910895DA
:105030000F931F93182F092F0E946A27882321F4AA
:10504000812F902F0E94C227812F902F1F910F91A7
:1050500008950F931F93182F092F0E9496278823D6
:1050600021F4812F902F0E94C227812F902F1F9112
:105070000F9108950F931F93182F092F6115710534
:1050800061F0DB010D900020E9F71197A61BB70B2B
:10509000AD010E947B26882321F4812F902F0E944E
:1050A000C227812F902F1F910F9108950F931F9367
:1050B000182F092FFB0160817181448155810E9465
:1050C0007B26882321F4812F902F0E94C227812FD5
:1050D000902F1F910F910895EF92FF920F931F93BE
:1050E000CF93DF93EC017B018A01BA010E945F2616
:1050F000882321F4CE010E94C22707C01D830C83A0
:1051000088819981B7010E941810CE01DF91CF915B
:105110001F910F91FF90EF900895CF93DF93EC01D3
:10512000198218821B821A821D821C821E826115BE
:10513000710551F0DB010D900020E9F71197A61BD6
:10514000B70BAD010E946C28DF91CF910895CF93EA
:10515000DF93EC01198218821B821A821D821C8245
:105160001E826115710551F0DB010D900020E9F7F9
:105170001197A61BB70BAD010E946C28DF91CF9150
:1051800008950F931F93182F092F6115710559F07A
:10519000DB010D900020E9F71197A61BB70BAD01BD
:1051A0000E946C2802C00E94C227812F902F1F915D
:1051B0000F910895EF92FF920F931F93DF93CF9378
:1051C000CDB7DEB7A1970FB6F894DEBF0FBECDBF47
:1051D0008C01FC01118210821382128215821482CA
:1051E0001682CB01BA017E010894E11CF11CA701D3
:1051F00030E00E94DB10C801B7010E94C128A196CF
:105200000FB6F894DEBF0FBECDBFCF91DF911F91D7
:105210000F91FF90EF900895EF92FF920F931F93DD
:10522000DF93CF93CDB7DEB7A1970FB6F894DEBF6B
:105230000FBECDBF8C01FC0111821082138212823D
:10524000158214821682CB01BA017E010894E11CFA
:10525000F11CA70130E00E94DB10C801B7010E94D9
:10526000C128A1960FB6F894DEBF0FBECDBFCF9177
:10527000DF911F910F91FF90EF900895EF92FF92B1
:105280000F931F93DF93CF93CDB7DEB7A2970FB6DF
:10529000F894DEBF0FBECDBF8C01FC0111821082DD
:1052A00013821282158214821682CB01BA017E010A
:1052B0000894E11CF11CA70130E00E949110C80184
:1052C000B7010E94C128A2960FB6F894DEBF0FBEA8
:1052D000CDBFCF91DF911F910F91FF90EF90089577
:1052E000EF92FF920F931F93DF93CF93CDB7DEB76B
:1052F000A2970FB6F894DEBF0FBECDBF8C01FC01A4
:105300001182108213821282158214821682CB01BE
:10531000BA017E010894E11CF11CA70130E00E9453
:105320009110C801B7010E94C128A2960FB6F89447
:10533000DEBF0FBECDBFCF91DF911F910F91FF90C8
:10534000EF900895EF92FF920F931F93DF93CF9307
:10535000CDB7DEB761970FB6F894DEBF0FBECDBFF5
:105360008C01CB01F8011182108213821282158206
:10537000148216827E010894E11CF11CB70150E0F2
:105380000E940111C801B7010E94C12861960FB6A1
:10539000F894DEBF0FBECDBFCF91DF911F910F916B
:1053A000FF90EF900895EF92FF920F931F93DF937A
:1053B000CF93CDB7DEB761970FB6F894DEBF0FBEBF
:1053C000CDBF8C01CB01F8011182108213821282B1
:1053D0001582148216827E010894E11CF11CB7012B
:1053E00050E00E940111C801B7010E94C1286196D6
:1053F0000FB6F894DEBF0FBECDBFCF91DF911F91E6
:105400000F91FF90EF900895EF92FF920F931F93EB
:10541000DF93CF93CDB7DEB762970FB6F894DEBFB8
:105420000FBECDBF8C01CB01F80111821082138217
:1054300012821582148216827E010894E11CF11CEE
:10544000B70150E00E946E10C801B7010E94C12848
:1054500062960FB6F894DEBF0FBECDBFCF91DF913D
:105460001F910F91FF90EF900895EF92FF920F938D
:105470001F93DF93CF93CDB7DEB762970FB6F89443
:10548000DEBF0FBECDBF8C01CB01F80111821082AF
:10549000138212821582148216827E010894E11C06
:1054A000F11CB70150E00E946E10C801B7010E94C4
:1054B000C12862960FB6F894DEBF0FBECDBFCF9164
:1054C000DF911F910F91FF90EF900895EF92FF925F
:1054D0000F931F93DF93CF93CDB7DEB729970FB606
:1054E000F894DEBF0FBECDBF8C01862FF80111826C
:1054F00010821382128215821482168290E07E013D
:105500000894E11CF11CB70150E00E940111C80190
:10551000B7010E94C12829960FB6F894DEBF0FBECE
:10552000CDBFCF91DF911F910F91FF90EF90089524
:10553000EF92FF920F931F93DF93CF93CDB7DEB718
:1055400029970FB6F894DEBF0FBECDBF8C01862F12
:10555000F80111821082138212821582148216823F
:1055600090E07E010894E11CF11CB70150E00E941C
:105570000111C801B7010E94C12829960FB6F894FD
:10558000DEBF0FBECDBFCF91DF911F910F91FF9076
:10559000EF900895DF93CF930F920F92CDB7DEB7C0
:1055A000FC011182108213821282158214821682EB
:1055B00069831A82BE016F5F7F4F0E94C1280F90DE
:1055C0000F90CF91DF910895DF93CF930F920F92B9
:1055D000CDB7DEB7FC0111821082138212821582D0
:1055E0001482168269831A82BE016F5F7F4F0E9408
:1055F000C1280F900F90CF91DF910895BF92CF9265
:10560000DF92EF92FF920F931F93CF93DF93082FB8
:10561000B92E6B017A01E9012417350710F4EA016C
:105620007901802F9B2D6EE672E00E948D28D601B5
:1056300014968D919C9115978E159F05D0F08C171F
:105640009D0708F4EC01D601ED91FC911197EC0F48
:10565000FD1F108110826D917C916E0D7F1D802F3A
:105660009B2D0E94C128D601ED91FC91EC0FFD1FEE
:105670001083802F9B2DDF91CF911F910F91FF9071
:10568000EF90DF90CF90BF9008950F931F938C0100
:10569000FB01248135810E94FE2AC8011F910F91D0
:1056A0000895CF93DF93EC01FB018617970761F014
:1056B000608171816115710529F0448155810E94D5
:1056C0006C2802C00E94C227CE01DF91CF910895BD
:1056D000FC011182108213821282158214821682BA
:1056E0000E94512B0895FC011182108213821282B4
:1056F0001582148216820E94512B0895FC0180812C
:1057000091810E94272C0895FC01808191810E9443
:10571000272C08950F931F93CF93DF93BC01823002
:10572000910510F462E070E0E0916509F09166097E
:1057300040E050E0A0E0B0E024C080819181861775
:105740009707D0F08617970771F48281938110979D
:1057500029F013969C938E9312972CC09093660910
:105760008093650927C04115510519F084179507E5
:1057700018F48D01AC01EF01DF01828193819C015E
:10578000F9013097D1F641155105F9F0CA01861B90
:10579000970B8430910580F48A819B810115110556
:1057A00021F0F8019383828304C09093660980936B
:1057B0006509FE01329645C0FE01E80FF91F6193AD
:1057C00071930297998388833CC08091630990917B
:1057D0006409892B41F480917A0390917B03909323
:1057E00064098093630940917C0350917D034115C6
:1057F000510541F44DB75EB78091780390917903DC
:10580000481B590B2091630930916409241735070F
:10581000B0F4CA01821B930B8617970780F0AB0187
:105820004E5F5F4F8417950750F0420F531F509300
:10583000640940936309F9016193719302C0E0E048
:10584000F0E0CF01DF91CF911F910F910895CF9399
:10585000DF939C01009709F48FC0EC0122971B8213
:105860001A8260916509709166096115710581F46C
:1058700088819981820F931F209163093091640977
:105880002817390739F5D0936409C093630974C0A8
:10589000DB0140E050E0AC17BD0708F1BB83AA83F1
:1058A000FE0121913191E20FF31FAE17BF0779F48A
:1058B0008D919C911197280F391F2E5F3F4F39838F
:1058C000288312968D919C9113979B838A8341150F
:1058D000510571F4D0936609C09365094DC01296C5
:1058E0008D919C911397AD01009711F0DC01D3CFFE
:1058F000DA011396DC93CE931297FA01219131913C
:10590000E20FF31FCE17DF0769F488819981280F12
:10591000391F2E5F3F4FFA01318320838A819B819B
:1059200093838283E0E0F0E0DB0112968D919C91FD
:105930001397009719F0BC01FD01F6CFAB014E5F44
:105940005F4FDB018D919C91840F951F209163091E
:10595000309164092817390779F4309729F41092A7
:1059600066091092650902C01382128242505040AB
:105970005093640940936309DF91CF9108956F922A
:105980007F928F929F92AF92BF92CF92DF92EF92CF
:10599000FF920F931F93CF93DF938C01009729F40D
:1059A000CB010E948A2B8C01BBC08EEFE82E8FEFBB
:1059B000F82EE00EF11E4801860E971E8E149F04ED
:1059C00008F4ACC0D7014D915C9111974617570769
:1059D000B8F04530510508F4A3C0CA0104978617F2
:1059E000970708F49DC042505040461B570BF401E6
:1059F000419351936D937C93CF010E94272C90C0CB
:105A00005B01A41AB50A3801640E751EA0916509E0
:105A1000B0916609E0E0F0E0CC24DD2447C0A61593
:105A2000B705A9F5CD91DC911197CE0102968A15A3
:105A30009B0568F1CE018A199B09029612962C915A
:105A4000129713963C91059758F0F4012283338303
:105A5000CA19DB09D183C083D7016D937C9309C038
:105A60004E5F5F4F4C0F5D1FF70151834083C901AB
:105A7000FC01C114D10431F0D6011396FC93EE93CE
:105A800012974EC0F0936609E093650949C08D9165
:105A90009C911197E817F90708F4FC016D01129623
:105AA0008C91129713969C919C01D901109709F043
:105AB000B6CF809163099091640986159705E9F442
:105AC000E617F707D0F420917C0330917D03211570
:105AD000310541F42DB73EB7809178039091790359
