:100000000C9406010C9499120C94CA120C94FB12D5
:100010000C942C130C945D130C948E130C94BF133E
:100020000C94F0130C9432010C9432010C943201B4
:100030000C9432010C9432010C9432010C94320174
:100040000C9432010C9432010C9432010C94320164
:100050000C9432010C9432010C9432010C94211452
:100060000C9432010C942C180C9474190C943201D9
:100070000C9432010C9432010C9432010C94320134
:100080000C9432010C9432010C9432010C94320124
:100090000C946C180C94B3190C9432010C94130248
:1000A0000C9432010C9432010C9432010C94320104
:1000B0000C9432010C9432010C9432010C943201F4
:1000C0000C9432010C9432010C9432010C94AC1853
:1000D0000C94F2190C9432010C94EC180C94311A13
:1000E0000C94320100002100240027002A002D007A
:1000F0003000330001010000040107010A01000083
:100100002200250028002B002E00310034000201BF
:100110000000050108010B0100002000230026005B
:1001200029002C002F00320000010000030106010D
:10013000090105050505070508080808020202026D
:100140000A0A080804040404010101010101010173
:100150000303030303030303040707070C0C0C0C3E
:100160000C0C0C0C02020202060606060606060627
:100170000B0B0B0B0B0B0B0B0102102020080810B4
:100180002040102040800201020108040201010207
:1001900004081020408080402010080402018004E0
:1001A000020180402010080402010804020101023B
:1001B0000408102040800102040810204080000044
:1001C000090A02080B0C0D070603040100000000D9
:1001D000000000000000000000000000000000001F
:1001E0000000000000000000000011100F000000DF
:1001F00000000000000000000000000000000000FF
:1002000000000000650443051D1D6B1E11241FBE68
:10021000CFEFD1E2DEBFCDBF00E00CBF13E0A0E026
:10022000B2E0ECEEF0E600E00BBF02C007900D92EA
:10023000A438B107D9F719E0A4E8B3E001C01D92D2
:10024000A333B107E1F712E0CCE0D2E004C022977B
:10025000FE010E94F42EC430D107C9F70E94EB07BB
:100260000C9474300C940000880F8093BA000895A9
:10027000382F413210F040E042C08091840388233F
:10028000E1F791E090938403209386038FEF8093AE
:10029000F1031092AC0341504093AD034F5F909334
:1002A000850380918503330F832B80938503809191
:1002B0008703813041F410928703809185038093F6
:1002C000BB0085EC01C085EE8093BC008091840367
:1002D0008130E1F38091AC03841710F44091AC03BA
:1002E00020E030E00AC0FB01E20FF31FD901A45760
:1002F000BC4F8C9180832F5F3F4F2417A0F3842F36
:1003000008950F931F93582F122F413210F081E060
:100310004AC0809184038823E1F782E080938403BC
:10032000009386038FEF8093F1031092AC03409308
:10033000AD03ACE8B3E0FB0102C081918D938E2F39
:10034000861B8417D0F31092850380918503550F87
:10035000852B8093850380918703813041F410922F
:100360008703809185038093BB0085EC01C085EEF7
:100370008093BC00112321F0809184038230E1F34B
:100380008091F1038F3F11F480E00DC08091F10363
:10039000803211F482E007C08091F103803311F0C4
:1003A00084E001C083E01F910F910895482F6132CE
:1003B00010F081E0089580918403843011F082E090
:1003C00008956093CF03AEEAB3E0842F9C01F90156
:1003D00002C081918D938E2F841B8617D0F380E00D
:1003E000089590938B0380938A03089590938903D3
:1003F000809388030895882311F085EC01C085E877
:100400008093BC00089585ED8093BC008091BC0072
:1004100084FDFCCF10928403089585EC8093BC008A
:100420001092840308951F920F920FB60F920BB68D
:100430000F9211242F933F934F935F936F937F936A
:100440008F939F93AF93BF93EF93FF938091B900E6
:1004500090E0887F90708036910509F4F2C0813673
:100460009105CCF58832910509F47BC0893291055C
:10047000B4F48031910509F46FC0813191053CF4E9
:10048000009709F447C1089709F04FC165C088314A
:10049000910509F466C0809709F047C182C0803495
:1004A000910509F4A4C08134910544F48033910589
:1004B00009F482C0C89709F038C189C08035910518
:1004C00009F489C08835910509F496C088349105EE
:1004D00009F02BC1AEC08839910509F413C18939DF
:1004E0009105ECF48837910509F4ABC08937910583
:1004F0004CF48836910509F4A4C08037910509F0C1
:1005000014C19FC08838910509F4FCC08039910559
:1005100009F49DC08038910509F007C198C0803B5F
:10052000910509F4C6C0813B91054CF4803A9105D0
:1005300009F49FC0883A910509F0F7C0BAC0803C21
:10054000910509F4E3C0883C910509F4DFC0883BBC
:10055000910509F0EAC0C2C0809185038093BB0079
:10056000CFC09091AC038091AD03981768F490913F
:10057000AC03E92FF0E0E457FC4F80818093BB008F
:100580009F5F9093AC03BCC080918603882309F4DD
:100590004BC085ED8093BC008091BC0084FDFCCFF6
:1005A000C2C080E28093F10385ED8093BC0080910E
:1005B000BC0084FDFCCFB7C080E38093F10385EDE0
:1005C0008093BC008091BC0084FDFCCFACC088E36C
:1005D0008093F1039BC08091AC039091BB00E82F06
:1005E000F0E0E457FC4F90838F5F8093AC039091D1
:1005F000AC038091AD0382C08091AC039091BB00AD
:10060000E82FF0E0E457FC4F90838F5F8093AC03BA
:1006100080918603882341F085ED8093BC00809112
:10062000BC0084FDFCCF7FC081E08093870384EA17
:100630006EC085ED8093BC008091BC0084FDFCCF32
:1006400072C083E0809384031092F00359C08091BC
:10065000F003803208F056C08091F0039091BB0007
:10066000E82FF0E0E053FC4F90838F5F8093F0031E
:1006700047C08091F003803230F4E091F003F0E065
:10068000E053FC4F108285ED8093BC008091BC004C
:1006900084FDFCCF109284036091F003E0918A0303
:1006A000F0918B0380ED93E070E019951092F003C8
:1006B0002DC084E0809384031092CE031092CF0368
:1006C000E0918803F091890319958091CF038823E5
:1006D00029F481E08093CF031092AE039091CE0372
:1006E000E92FF0E0E255FC4F80818093BB009F5FD3
:1006F0009093CE039091CE038091CF03981710F47E
:1007000085EC01C085E88093BC000FC085EC809328
:10071000BC0009C01092F10385ED8093BC0080916C
:10072000BC0084FDFCCF10928403FF91EF91BF9138
:10073000AF919F918F917F916F915F914F913F9179
:100740002F910F900BBE0F900FBE0F901F9018951A
:100750001092840381E0809386031092870384E1E2
:1007600061E00E942C1785E161E00E942C17E9EB03
:10077000F0E080818E7F808380818D7F808388E41C
:100780008093B80085E48093BC000895FC01138237
:10079000128288EE93E0A0E0B0E084839583A68384
:1007A000B78384E092E0918380830895FC011382F3
:1007B000128288EE93E0A0E0B0E084839583A68364
:1007C000B78384E092E091838083089581E08093F1
:1007D000370460931404109235041092360408957F
:1007E00081E08093370460931404109235041092D2
:1007F000360408952091130430E080911204281BE0
:100800003109C901089540911204809113044817D9
:1008100018F02FEF3FEF0AC0E42FF0E0EE50FC4F4E
:100820008081282F30E04F5F40931204C901089562
:10083000E091120480911304E81718F0EFEFFFEF36
:1008400006C0F0E0EE50FC4F8081E82FF0E0CF01D1
:1008500008950895AC0120913A0430913B0421158C
:100860003105E1F090911204809113049817B0F0D3
:1008700090E008C0FA01EA0FFB1F8081AE50BC4F28
:100880008C939F5FA92FB0E0A617B7079CF3109237
:10089000120460931304CB01F90119950895E091B6
:1008A0003804F0913904309729F0109235041092F1
:1008B00036041995089570933B0460933A040895A3
:1008C0007093390460933804089510923F04109295
:1008D0003E0488EE93E0A0E0B0E080934004909363
:1008E0004104A0934204B093430484E092E09093C7
:1008F0003D0480933C040895CF92DF92EF92FF92E3
:100900000F931F93CF93DF937C016B018A0180913A
:1009100037048823A1F0C0E0D0E00DC0D701ED91ED
:10092000FC91D601AC0FBD1F0190F081E02DC701F5
:100930006C9119952196C017D10780F304C0CB01A3
:10094000642F0E94D601C801DF91CF911F910F91B2
:10095000FF90EF90DF90CF900895DF93CF930F92A9
:10096000CDB7DEB7FC016983809137048823C9F0D5
:1009700080913604803238F081E090E09383828366
:1009800020E030E015C080913504E82FF0E0EB5E08
:10099000FB4F998190838F5F809335048093360459
:1009A00005C0CE01019661E00E94D60121E030E051
:1009B000C9010F90CF91DF9108950F93062F809179
:1009C000140465E174E04091360421E00E94810145
:1009D0001092350410923604109237040F91089546
:1009E00061E00E94DD040895413208F040E2862F64
:1009F00062EF73E00E943801109212048093130496
:100A000008950E94F404089521E00E94F4040895DA
:100A100021E00E94F404089510921204109213042D
:100A200010923504109236040E94A80308950F9383
:100A30001F938C01862F0E9434018FE494E00E9462
:100A4000F6018AE294E00E94F101C8010E940C05BF
:100A50001F910F9108950E941705089508958091A0
:100A60004C0490914D04019690934D0480934C0456
:100A7000089580914E0490914F04019690934F04F5
:100A800080934E0408950F9381E696E060E040E085
:100A900020E000E00E945F1E0F910895EF92FF9208
:100AA0000F931F93DF93CF9300D000D0CDB7DEB765
:100AB0008C017B018CE394E0B8010E94F0038CE38D
:100AC00094E062E30E94AD048CE394E00E94F004A1
:100AD0008CE394E0B8010E94F0038CE394E0B80149
:100AE00046E050E00E9404058E010F5F1F4F07C0D3
:100AF0008CE394E00E940304F80181938F018CE35E
:100B000094E00E94FA03892B99F78CE394E00E9409
:100B1000F0049A8180E0298130E0822B932BF70149
:100B2000918380839C8180E02B8130E0822B932B0A
:100B3000938382839E8180E02D8130E0822B932BF2
:100B40009583848326960FB6F894DEBF0FBECDBF83
:100B5000CF91DF911F910F91FF90EF900895FF9239
:100B60000F931F939C01F62E0CE314E0C801B9010A
:100B70000E94F003C8016DE20E94AD04C8016F2D10
:100B80000E94AD04C8010E94F0041F910F91FF90D4
:100B9000089580EA98E040E855E260E070E00E9445
:100BA000F81A8CE394E00E940C0584E061E00E9456
:100BB000791685E061E00E94791686E061E00E9486
:100BC000791687E061E00E94791686E260E00E9473
:100BD000791685E261E00E94791688E260E00E9461
:100BE000791687E261E00E9479168DE061E00E944B
:100BF000791686E160E00E94791687E160E00E9444
:100C0000791688E160E00E94791689E160E00E942F
:100C100079168AE162E00E9479168BE162E00E9417
:100C2000791685E06FE275E042E050E00E94F11134
:100C300084E069E375E042E050E00E94F11183E551
:100C400090E060E00E94AF0583E590E060E10E94E3
:100C5000AF0583E590E068E00E94AF0583E590E092
:100C600068E576E00E944E050895FF920F931F936A
:100C7000CF93DF93182F062FEA01F22E60E00E9437
:100C80002C17812F61E00E942C17802F60E020E458
:100C900032E44FE050E00E948F1781E0888383ECBC
:100CA0006135780708F01882FF2029F4CB0162E350
:100CB00070E00E94852ECB01DF91CF911F910F91A3
:100CC000FF9008958AE10E945F17892B19F08BE14C
:100CD0000E945F17089585E30E945F17892B21F119
:100CE00086E10E945F17892BF9F087E10E945F1768
:100CF000892BD1F088E10E945F17892BA9F089E147
:100D00000E945F17892B81F084E30E945F17892B73
:100D100059F08AE10E945F17892B31F08BE10E9424
:100D20005F1720E0892B09F421E0822F0895CF93EB
:100D3000DF93EC01009739F487E00E942C1786E0DE
:100D400060E070E007C087E00E942C17C556DF4FB7
:100D500086E0BE010E949915DF91CF910895CF934F
:100D6000DF93EC01009739F485E00E942C1784E0B2
:100D700060E070E007C085E00E942C17C556DF4F89
:100D800084E0BE010E949915DF91CF9108951F93D1
:100D9000CF93DF93EB01142F009771F08130910511
:100DA00029F4CB01642F0E94AF060AC0029741F4D8
:100DB000CB01642F0E94AF06CE01612F0E949706DF
:100DC000DF91CF911F910895CF92DF92EF92FF9222
:100DD0000F931F93CF93DF93EC01062F122F6627FB
:100DE00057FD6095762FCB01BA010E94D10E21E20A
:100DF00030EB4AE250E40E94400C0E942F0F6B013E
:100E0000112301F1E0904C04F0904D0411E0102703
:100E100080914C0490914D048E199F098C159D056D
:100E20006CF50E946B06882349F581E090E0BE01D5
:100E3000412F0E94C70680E090E0BE01402F0E9433
:100E4000C706E6CFE0904C04F0904D0411E0102767
:100E50000CC081E090E0BE01412F0E94C70680E0F7
:100E600090E0BE01402F0E94C70680914C049091F3
:100E70004D048E199F098C159D055CF3DF91CF9170
:100E80001F910F91FF90EF90DF90CF900895AF9258
:100E9000BF92CF92DF92EF92FF920F931F93CF9367
:100EA000DF935C016B01142F442737FD4095542FCD
:100EB000CA01B9010E94D10E20E030E048E451E4BB
:100EC0000E94400C0E942F0F7B010023B9F0C091BB
:100ED0004C04D0914D0480914C0490914D048C1B96
:100EE0009D0B8E159F05ECF40E946B068823C9F4B8
:100EF000C501B601412F0E94C706EDCFC0914C0439
:100F0000D0914D0405C0C501B601412F0E94C7060E
:100F100080914C0490914D048C1B9D0B8E159F0568
:100F200094F3DF91CF911F910F91FF90EF90DF909D
:100F3000CF90BF90AF9008958F929F92AF92BF9243
:100F4000CF92DF92EF92FF920F93CF93DF934C01FA
:100F50005B016A0179010023D9F0C0914C04D09162
:100F60004D0480914C0490914D048C1B9D0B8E156B
:100F70009F052CF50E946B06882309F540E0C114FB
:100F8000D10409F041E0C401B5010E94C706E9CFD0
:100F9000C0914C04D0914D0409C040E0C114D1046B
:100FA00009F041E0C401B5010E94C70680914C04DC
:100FB00090914D048C1B9D0B8E159F0574F3DF9152
:100FC000CF910F91FF90EF90DF90CF90BF90AF90B7
:100FD0009F908F9008950F930E9400150E94C9055D
:100FE00080EA98E061E070E04AE050E00E9467210A
:100FF00082E090E062E370E041E02AE030E000E06F
:101000000E94470789E79FEF60E00E94AF0689E7EB
:101010009FEF60E00E94970668EC70E080E090E04F
:101020000E949D1482E090E060E070E040E00E9449
:10103000C70680E090E00F910895CF92DF92FF9273
:101040000F931F93CF93DF9386E10E945F17892B45
:1010500079F087E10E945F17892B51F088E10E94A7
:101060005F17892B29F089E10E945F17892B31F4E2
:1010700082E090E090932102809320024091200230
:10108000509121024230510509F4B6C080914C04C0
:1010900090914D0420915F0630916006821B930B66
:1010A0004A970CF4A9C04130510509F052C082E0C2
:1010B00090E0909321028093200280914C049091C3
:1010C0004D049093600680935F060E946B068093A8
:1010D0005E0680914C0490914D0420915F06309102
:1010E0006006821B930B863991050CF0B5C1809187
:1010F0005E06882309F0B0C182E390E060E00E94C0
:10110000AF0682E390E061E00E949706DECF809117
:101110004C0490914D0420915F0630916006821B33
:10112000930B863991050CF067C080915E06882389
:1011300009F062C082E390E061E00E94AF0682E3C2
:1011400090E060E00E9497060E946B0680935E0626
:10115000DECF452B09F050C082E090E09093210251
:101160008093200280914C0490914D0490936006EE
:1011700080935F0680914C0490914D0420915F060E
:1011800030916006821B930B863991050CF06DC17E
:1011900080915E06882309F068C182E390E061E0F7
:1011A0000E94AF0682E390E060E00E9497060E94F2
:1011B0006B0680935E06DECF80914C0490914D04C7
:1011C00020915F0630916006821B930B8639910552
:1011D0009CF480915E06882379F482E390E060E0DD
:1011E0000E94AF0682E390E061E00E9497060E94B1
:1011F0006B0680935E06E0CF84E30E945F17892B25
:1012000021F585E30E945F17892B31F086E10E946A
:101210005F17892B09F032C185E060E00E942C172E
:1012200084E06BE970E00E94991587E061E00E941C
:101230002C1786E06FEF70E00E94991581E090E036
:1012400090932102809320021BC085E30E945F17C8
:10125000892BF9F485E061E00E942C1784E06FEFA0
:1012600070E00E94991587E060E00E942C1786E0EC
:101270006FEF70E00E9499151092210210922002E7
:1012800080914C0490914D049093600680935F068A
:10129000FDC0109249041092480410924B04109221
:1012A0004A04C2E2D2E086E1F82EC0904804D09011
:1012B0004904088119818F2D0E945F1720E030E0DA
:1012C000892B11F421E030E0209FC001219F900D77
:1012D000309F900D11248C0D9D1D90934904809397
:1012E0004804C0904A04D0904B04088519858F2D7E
:1012F0000E945F1720E030E0892B11F421E030E0FC
:10130000209FA001219F500D309F500D11244C0DA6
:101310005D1D50934B0440934A042296F3942AE1B6
:10132000F21619F68091480490914904853691058A
:101330001CF084E690E005C08C599F4F34F48CE992
:101340009FEF9093490480934804453651051CF063
:1013500084E690E005C04C595F4F34F48CE99FEF70
:1013600090934B0480934A048091480490914904DF
:1013700020914A0430914B048217930789F485E049
:1013800061E00E942C1784E06BE970E00E949915DF
:1013900087E061E00E942C1786E06BE970E059C09D
:1013A000181619065CF485E061E00E942C17609124
:1013B00048047091490465567F4F0EC0892B71F027
:1013C00085E060E00E942C176BE970E08091480492
:1013D00090914904681B790B84E00AC0632F661F53
:1013E0006627661F85E00E942C1784E06AE070E0A3
:1013F0000E94991580914A0490914B041816190681
:101400005CF487E061E00E942C1760914A047091BF
:101410004B0465567F4F0EC0892B71F087E060E06A
:101420000E942C176BE970E080914A0490914B0464
:10143000681B790B86E00DC060E0809148049091B4
:10144000490497FD61E087E00E942C1786E06AE07E
:1014500070E00E9499151AC080914C0490914D043F
:101460009093600680935F0652CE80914C049091D9
:101470004D049093600680935F069ECE85E060E009
:101480000E942C1784E06FEF70E0CDCEDF91CF91FA
:101490001F910F91FF90DF90CF900895EF92FF92F0
:1014A0000F931F938C0120EAE22E28E0F22E612F89
:1014B000772767FD7A95C7010E94DB1CC701602F63
:1014C0000E94DB1CC7010E94AC1F1F910F91FF906F
:1014D000EF900895EF92FF920F931F937B018C0181
:1014E00020E030E040E05FE40E94160E88238CF09C
:1014F000C801B70120E030E040E05FE40E94E20B69
:101500000E942F0F9B01AC012050304040405048BA
:1015100006C0C801B7010E942F0F9B01AC01B901A1
:10152000CA011F910F91FF90EF900895A0E0B0E0E5
:10153000ECE9FAE00C94BB2EDC012B01FA019C9142
:10154000923008F439C1EB018881823008F433C14C
:10155000943069F4843009F02FC111969C91119751
:101560008981981709F428C1A1E4B2E025C184302B
:1015700009F421C18230A9F4923009F01DC19A0109
:10158000AD0188E0EA010990AE01E90109929E01EE
:101590008150C1F7E201898111969C918923818351
:1015A00008C1923009F407C112962D903C90139710
:1015B000EB018A819B811496AD90BD90CD90DC901B
:1015C0001797EC80FD800E811F819101281B390B3C
:1015D000B90137FF04C066277727621B730B60329F
:1015E00071050CF061C0121613066CF53701480145
:1015F000062E04C096948794779467940A94D2F741
:1016000021E030E040E050E004C0220F331F441FCF
:10161000551F6A95D2F721503040404050402E214E
:101620003F2140235123211531054105510521F06A
:1016300021E030E040E050E079018A01E628F72817
:10164000082919293CC0232BD1F1260E371E35015C
:101650004601062E04C096948794779467940A9462
:10166000D2F721E030E040E050E004C0220F331F09
:10167000441F551F6A95D2F72150304040405040DA
:101680002A213B214C215D212115310541055105C0
:1016900021F021E030E040E050E059016A01A62845
:1016A000B728C828D9280BC0821593052CF01C0137
:1016B000AA24BB24650103C0EE24FF2487011196F0
:1016C0009C91D20111968C91981709F445C09923E9
:1016D00039F0A80197012A193B094C095D0906C098
:1016E000A60195012E193F09400B510B57FD08C06B
:1016F00011823382228224833583468357831DC01F
:1017000081E081833382228288279927DC01821B32
:10171000930BA40BB50B84839583A683B7830DC06D
:10172000220F331F441F551F24833583468357835D
:1017300082819381019793838283248135814681BD
:101740005781DA01C9010197A109B1098F5F9F4F44
:10175000AF4FBF4328F30BC0918333822282EA0C40
:10176000FB1C0C1D1D1DE482F5820683178383E09C
:101770008083248135814681578157FF1AC0C90172
:10178000AA2797FDA095BA2F81709070A070B070B5
:101790005695479537952795822B932BA42BB52BE0
:1017A00084839583A683B7838281938101969383F3
:1017B0008283DF0101C0D201CD01CDB7DEB7E2E106
:1017C0000C94D72EA0E2B0E0E8EEFBE00C94C72E1C
:1017D00069837A838B839C832D833E834F835887D1
:1017E000E9E0EE2EF12CEC0EFD1ECE010196B701C4
:1017F0000E9420118E010F5E1F4FCE010596B80189
:101800000E9420118A8991E089278A8BC701B8013B
:10181000AE01475E5F4F0E94960A0E944B10A09651
:10182000E6E00C94E32EA0E2B0E0E9E1FCE00C94E9
:10183000C72E69837A838B839C832D833E834F835A
:101840005887F9E0EF2EF12CEC0EFD1ECE0101962B
:10185000B7010E9420118E010F5E1F4FCE01059629
:10186000B8010E942011C701B801AE01475E5F4F69
:101870000E94960A0E944B10A096E6E00C94E32E7C
:10188000A0E2B0E0E6E4FCE00C94BB2E69837A832E
:101890008B839C832D833E834F835887CE01019693
:1018A000BE01675F7F4F0E942011CE010596BE01E9
:1018B0006F5E7F4F0E9420119985923088F0898950
:1018C0008230C8F0943019F4823051F404C084306E
:1018D00029F4923081F481E492E0C6C0923049F458
:1018E00020E09A858A89981321E02A87CE010996FB
:1018F000BBC0823049F420E09A858A89981321E0A0
:101900002A8BCE014196B0C02D843E844F845888E6
:101910006D887E888F88988CEE24FF248701AA2406
:10192000BB24650140E050E060E070E0E0E0F0E002
:10193000C10181709070892BE9F0E60CF71C081D3D
:10194000191D9A01AB012A0D3B1D4C1D5D1D80E048
:1019500090E0A0E0B0E0E614F7040805190520F4D3
:1019600081E090E0A0E0B0E0BA01A901480F591F62
:101970006A1F7B1FAA0CBB1CCC1CDD1C97FE08C079
:1019800081E090E0A0E0B0E0A82AB92ACA2ADB2AC8
:101990003196E032F10549F0660C771C881C991CE1
:1019A0005694479437942794C3CFFA85EA892B89B4
:1019B0003C898B859C85280F391F2E5F3F4F17C0B0
:1019C000CA0181709070892B61F016950795F79484
:1019D000E79480E090E0A0E0B0E8E82AF92A0A2B3A
:1019E0001B2B76956795579547952F5F3F4F77FD52
:1019F000E7CF0CC0440F551F661F771F17FD4160CE
:101A0000EE0CFF1C001F111F21503040403090E0B1
:101A1000590790E0690790E4790760F32B8F3C8FBA
:101A2000DB01CA018F779070A070B070803491058F
:101A3000A105B10561F447FD0AC0E114F1040105F7
:101A4000110529F0405C5F4F6F4F7F4F40781A8E31
:101A5000FE1711F081E08A8F4D8F5E8F6F8F78A314
:101A600083E0898FCE0149960E944B10A096E2E157
:101A70000C94D72EA8E1B0E0E0E4FDE00C94C32E76
:101A800069837A838B839C832D833E834F8358871E
:101A9000B9E0EB2EF12CEC0EFD1ECE010196B70144
:101AA0000E9420118E010F5E1F4FCE010596B801D6
:101AB0000E9420112985223008F47EC039893230F5
:101AC00010F4B8017CC08A859A8989278A872430D6
:101AD00011F0223031F4231709F06EC061E472E096
:101AE0006EC0343039F41D861E861F86188A1C8607
:101AF0001B8604C0323021F484E08987B7015FC0BF
:101B00002B853C858B899C89281B390B3C872B872F
:101B1000ED84FE840F851889AD88BE88CF88D88C67
:101B2000EA14FB040C051D0540F4EE0CFF1C001F1D
:101B3000111F215030403C872B8720E030E040E0EF
:101B400050E080E090E0A0E0B0E460E070E0EA14F3
:101B5000FB040C051D0540F0282B392B4A2B5B2B71
:101B6000EA18FB080C091D09B695A7959795879566
:101B7000EE0CFF1C001F111F6F5F7F4F6F3171054F
:101B800031F7DA01C9018F779070A070B07080349E
:101B90009105A105B10561F427FD0AC0E114F10426
:101BA0000105110529F0205C3F4F4F4F5F4F207812
:101BB0002D873E874F87588BBE01675F7F4FCB01D4
:101BC0000E944B106896EAE00C94DF2EA8E1B0E08A
:101BD000ECEEFDE00C94C72E69837A838B839C83A3
:101BE0002D833E834F83588789E0E82EF12CEC0E3D
:101BF000FD1ECE010196B7010E9420118E010F5EDD
:101C00001F4FCE010596B8010E94201189858230B0
:101C100040F08989823028F0C701B8010E949811EC
:101C200001C08FEF6896E6E00C94E32EA8E1B0E0E7
:101C3000ECE1FEE00C94C72E69837A838B839C834E
:101C40002D833E834F83588789E0E82EF12CEC0EDC
:101C5000FD1ECE010196B7010E9420118E010F5E7C
:101C60001F4FCE010596B8010E9420118985823050
:101C700040F08989823028F0C701B8010E9498118C
:101C800001C08FEF6896E6E00C94E32EA8E1B0E087
:101C9000ECE4FEE00C94C72E69837A838B839C83EB
:101CA0002D833E834F83588789E0E82EF12CEC0E7C
:101CB000FD1ECE010196B7010E9420118E010F5E1C
:101CC0001F4FCE010596B8010E94201189858230F0
:101CD00040F08989823028F0C701B8010E9498112C
:101CE00001C081E06896E6E00C94E32EA8E1B0E044
:101CF000ECE7FEE00C94C72E69837A838B839C8388
:101D00002D833E834F83588789E0E82EF12CEC0E1B
:101D1000FD1ECE010196B7010E9420118E010F5EBB
:101D20001F4FCE010596B8010E942011898582308F
:101D300040F08989823028F0C701B8010E949811CB
:101D400001C081E06896E6E00C94E32EA8E1B0E0E3
:101D5000ECEAFEE00C94CB2E69837A838B839C8320
:101D60002D833E834F835887CE010196BE01675F66
:101D70007F4F0E942011CE010596BE016F5E7F4FFE
:101D80000E9420118985823028F020E030E0898986
:101D9000823010F421E030E0822F6896E2E00C946B
:101DA000E72EA8E0B0E0E7EDFEE00C94C42E9B0126
:101DB000AC0183E08983DA01C9018827B7FD8395E7
:101DC0009927AA27BB27B82E2115310541055105B2
:101DD00019F482E089833AC08823A9F0203080E09A
:101DE000380780E0480780E8580729F460E070E091
:101DF00080E09FEC30C0EE24FF248701E21AF30A52
:101E0000040B150B02C079018A018EE1C82ED12C7A
:101E1000DC82CB82ED82FE820F831887C801B70176
:101E20000E94FC0F01971816190684F4082E04C0AE
:101E3000EE0CFF1C001F111F0A94D2F7ED82FE82E8
:101E40000F831887C81AD90ADC82CB82BA82CE01E6
:101E500001960E944B102896E9E00C94E02EACE02D
:101E6000B0E0E5E3FFE00C94CB2E69837A838B83AB
:101E70009C83CE010196BE016B5F7F4F0E942011B3
:101E80008D81823061F1823050F1843021F48E8175
:101E9000882351F12EC02F81388537FD20C06E81F7
:101EA0002F3131051CF06623F9F023C08EE190E05C
:101EB000821B930B29853A854B855C8504C056951A
:101EC0004795379527958A95D2F76623B1F05095B7
:101ED0004095309521953F4F4F4F5F4F0EC020E00A
:101EE00030E040E050E009C02FEF3FEF4FEF5FE7F9
:101EF00004C020E030E040E050E8B901CA012C966F
:101F0000E2E00C94E72EA8E0B0E0E9E8FFE00C94F2
:101F1000C32E7B018C01611571058105910519F4B2
:101F200082E0898360C083E089838EE1C82ED12C52
:101F3000DC82CB82ED82FE820F831887C801B70155
:101F40000E94FC0FFC013197F7FF3BC0222733278B
:101F50002E1B3F0B57016801022E04C0D694C79474
:101F6000B794A7940A94D2F740E050E060E070E0A4
:101F700081E090E0A0E0B0E004C0880F991FAA1FA4
:101F8000BB1F2A95D2F70197A109B1098E219F2184
:101F9000A023B1230097A105B10521F041E050E055
:101FA00060E070E04A295B296C297D294D835E83BE
:101FB0006F8378878EE190E08E1B9F0B9C838B83D1
:101FC00012C0309781F00E2E04C0EE0CFF1C001FD3
:101FD000111F0A94D2F7ED82FE820F831887CE1A62
:101FE000DF0ADC82CB821A82CE0101960E944B105E
:101FF0002896EAE00C94DF2EEF92FF920F931F9346
:102000007B018C0180E0E81680E0F80681E008079B
:1020100080E0180788F48FEFE816F1040105110538
:1020200031F028F088E090E0A0E0B0E017C080E058
:1020300090E0A0E0B0E012C080E0E81680E0F80692
:1020400080E0080781E0180728F088E190E0A0E030
:10205000B0E004C080E190E0A0E0B0E020E230E039
:1020600040E050E0281B390B4A0B5B0B04C016956F
:102070000795F794E7948A95D2F7F701E75BFD4F50
:102080008081281B310941095109C9011F910F9114
:10209000FF90EF900895DF92EF92FF920F931F93BE
:1020A000FC01E480F58006811781D1808081823037
:1020B00048F480E090E0A0E1B0E0E82AF92A0A2B99
:1020C0001B2BA5C0843009F49FC0823021F4EE247C
:1020D000FF24870105C0E114F1040105110519F47D
:1020E000E0E0F0E096C0628173819FEF623879078B
:1020F0000CF05BC022E83FEF261B370B2A3131057D
:102100002CF020E030E040E050E02AC0B801A70108
:10211000022E04C076956795579547950A94D2F795
:1021200081E090E0A0E0B0E004C0880F991FAA1FF2
:10213000BB1F2A95D2F70197A109B1098E219F21D2
:10214000A023B1230097A105B10521F081E090E023
:10215000A0E0B0E09A01AB01282B392B4A2B5B2B76
:10216000DA01C9018F779070A070B070803491054A
:10217000A105B10539F427FF09C0205C3F4F4F4F3F
:102180005F4F04C0215C3F4F4F4F5F4FE0E0F0E0F6
:102190002030A0E03A07A0E04A07A0E45A0710F078
:1021A000E1E0F0E079018A0127C06038710564F54B
:1021B000FB01E158FF4FD801C7018F779070A070E5
:1021C000B07080349105A105B10539F4E7FE0DC06A
:1021D00080E490E0A0E0B0E004C08FE390E0A0E0F5
:1021E000B0E0E80EF91E0A1F1B1F17FF05C0169569
:1021F0000795F794E794319687E016950795F7943D
:10220000E7948A95D1F705C0EE24FF248701EFEF0C
:10221000F0E06E2F679566276795902F9F77D7948C
:10222000DD24D7948E2F8695492F462B582F5D2974
:10223000B701CA011F910F91FF90EF90DF900895B1
:10224000FC01DB01408151812281622F6F7770E0B8
:10225000221F2227221F9381892F880F822B282F4C
:1022600030E0991F9927991F11969C93119721157A
:102270003105A9F5411551056105710511F482E09B
:1022800037C082E89FEF13969C938E9312979A0122
:10229000AB0167E0220F331F441F551F6A95D1F72A
:1022A00083E08C930DC0220F331F441F551F1296DD
:1022B0008D919C911397019713969C938E931297EF
:1022C000203080E0380780E0480780E4580758F362
:1022D00014962D933D934D935C93179708952F3F3C
:1022E000310579F4411551056105710519F484E052
:1022F0008C93089564FF03C081E08C9312C01C92FC
:1023000010C02F57304013963C932E93129783E0C2
:102310008C9387E0440F551F661F771F8A95D1F76E
:10232000706414964D935D936D937C931797089505
:102330001F93DC01FB019C91923008F447C080811F
:10234000823008F443C0943051F411961C918430CB
:1023500099F58181682F70E0611B71093FC084305D
:1023600021F0923031F48230B9F18181882389F1F2
:102370002DC011961C9111978230F1F081811817B0
:10238000D9F412962D913C911397828193818217F3
:10239000930794F028173907BCF014968D919D91FE
:1023A0000D90BC91A02D248135814681578128173D
:1023B00039074A075B0718F4112341F00AC0821756
:1023C0009307A407B50740F4112319F061E070E00A
:1023D00005C06FEF7FEF02C060E070E0CB011F919E
:1023E0000895883008F078C0E82FF0E0EE0FFF1F66
:1023F000E959F94F718360838330D9F0843030F428
:10240000813009F444C0823060F439C0853051F124
:102410008530D8F0863009F446C0873009F05CC0BA
:102420004FC0809169008C7F842B80936900E89A6B
:10243000089580916900440F551F440F551F837FF5
:10244000842B80936900E99A08958091690074E073
:10245000440F551F7A95E1F78F7C842B8093690098
:10246000EA9A08958091690066E0440F551F6A95C5
:10247000E1F78F73842B80936900EB9A0895809124
:102480006A008C7F842B80936A00EC9A0895809177
:102490006A00440F551F440F551F837F842B809380
:1024A0006A00ED9A089580916A0024E0440F551F58
:1024B0002A95E1F78F7C842B80936A00EE9A089529
:1024C00080916A0096E0440F551F9A95E1F78F734B
:1024D000842B80936A00EF9A0895883048F5833002
:1024E00091F0843028F48130B1F0823050F411C082
:1024F000853069F0853048F0863079F0873081F496
:102500000EC0E8980DC0E9980BC0EA9809C0EB9896
:1025100007C0EC9805C0ED9803C0EE9801C0EF9895
:10252000E82FF0E0EE0FFF1FE959F94F11821082FA
:1025300008951F920F920FB60F920BB60F921124AF
:102540002F933F934F935F936F937F938F939F93BB
:10255000AF93BF93EF93FF9380916B0690916C06BE
:10256000892B29F0E0916B06F0916C061995FF918B
:10257000EF91BF91AF919F918F917F916F915F91FB
:102580004F913F912F910F900BBE0F900FBE0F9068
:102590001F9018951F920F920FB60F920BB60F92C5
:1025A00011242F933F934F935F936F937F938F9358
:1025B0009F93AF93BF93EF93FF9380916D0690919C
:1025C0006E06892B29F0E0916D06F0916E06199543
:1025D000FF91EF91BF91AF919F918F917F916F91FB
:1025E0005F914F913F912F910F900BBE0F900FBEB7
:1025F0000F901F9018951F920F920FB60F920BB667
:102600000F9211242F933F934F935F936F937F9378
:102610008F939F93AF93BF93EF93FF9380916F0638
:1026200090917006892B29F0E0916F06F091700669
:102630001995FF91EF91BF91AF919F918F917F91EC
:102640006F915F914F913F912F910F900BBE0F9023
:102650000FBE0F901F9018951F920F920FB60F92FA
:102660000BB60F9211242F933F934F935F936F9369
:102670007F938F939F93AF93BF93EF93FF9380913B
:10268000710690917206892B29F0E0917106F09104
:1026900072061995FF91EF91BF91AF919F918F9124
:1026A0007F916F915F914F913F912F910F900BBE52
:1026B0000F900FBE0F901F9018951F920F920FB69C
:1026C0000F920BB60F9211242F933F934F935F936A
:1026D0006F937F938F939F93AF93BF93EF93FF93EA
:1026E0008091670690916806892B29F0E091670632
:1026F000F09168061995FF91EF91BF91AF919F916D
:102700008F917F916F915F914F913F912F910F909A
:102710000BBE0F900FBE0F901F9018951F920F9237
:102720000FB60F920BB60F9211242F933F934F9336
:102730005F936F937F938F939F93AF93BF93EF9329
:10274000FF938091690690916A06892B29F0E091A8
:102750006906F0916A061995FF91EF91BF91AF91CB
:102760009F918F917F916F915F914F913F912F91A9
:102770000F900BBE0F900FBE0F901F9018951F92D9
:102780000F920FB60F920BB60F9211242F933F9317
:102790004F935F936F937F938F939F93AF93BF9369
:1027A000EF93FF938091730690917406892B29F023
:1027B000E0917306F09174061995FF91EF91BF9126
:1027C000AF919F918F917F916F915F914F913F91C9
:1027D0002F910F900BBE0F900FBE0F901F9018956A
:1027E0001F920F920FB60F920BB60F9211242F93D8
:1027F0003F934F935F936F937F938F939F93AF9389
:10280000BF93EF93FF938091750690917606892B85
:1028100029F0E0917506F09176061995FF91EF91F8
:10282000BF91AF919F918F917F916F915F914F91E8
:102830003F912F910F900BBE0F900FBE0F901F90E6
:1028400018951F920F920FB60F9211242F933F935A
:102850008F939F93AF93BF9380917B0690917C065B
:10286000A0917D06B0917E0630917F060196A11D54
:10287000B11D232F2D5F2D3720F02D570196A11D5F
:10288000B11D20937F0680937B0690937C06A093D6
:102890007D06B0937E068091770690917806A09190
:1028A0007906B0917A060196A11DB11D8093770635
:1028B00090937806A0937906B0937A06BF91AF9172
:1028C0009F918F913F912F910F900FBE0F901F906E
:1028D00018958FB7F89420917B0630917C06409133
:1028E0007D0650917E068FBFB901CA0108959FB73A
:1028F000F8942091770630917806409179065091AE
:102900007A0686B5A89B06C08F3F21F02F5F3F4F08
:102910004F4F5F4F9FBF542F432F322F2227280F37
:10292000311D411D511D82E0220F331F441F551FD1
:102930008A95D1F7B901CA0108959B01AC017FB70F
:10294000F8948091770690917806A0917906B091DD
:102950007A0666B5A89B05C06F3F19F00196A11DC8
:10296000B11D7FBFBA2FA92F982F8827860F911DE1
:10297000A11DB11D62E0880F991FAA1FBB1F6A9598
:10298000D1F7BC012DC0FFB7F894809177069091E4
:102990007806A0917906B0917A06E6B5A89B05C0A5
:1029A000EF3F19F00196A11DB11DFFBFBA2FA92F4E
:1029B000982F88278E0F911DA11DB11DE2E0880F71
:1029C000991FAA1FBB1FEA95D1F7861B970B885E3C
:1029D0009340C8F2215030404040504068517C4FF5
:1029E000211531054105510571F60895019739F01A
:1029F000880F991F880F991F02970197F1F7089583
:102A0000789484B5826084BD84B5816084BD85B5C9
:102A1000826085BD85B5816085BDEEE6F0E0808190
:102A200081608083E1E8F0E01082808182608083B1
:102A3000808181608083E0E8F0E080818160808334
:102A4000E1EBF0E0808184608083E0EBF0E0808166
:102A500081608083E1E9F0E0808182608083808111
:102A600081608083E0E9F0E0808181608083E1EA39
:102A7000F0E0808182608083808181608083E0EAF1
:102A8000F0E0808181608083E1E2F1E0808182601A
:102A90008083808181608083E0E2F1E080818160D9
:102AA0008083EAE7F0E080818460808380818260B7
:102AB00080838081816080838081806880831092A0
:102AC000C1000895809349030895382F863308F094
:102AD000365320917B00832F86958695869590E0CE
:102AE0008170907043E0880F991F4A95E1F7277F26
:102AF000282B20937B003770809149038295880FA3
:102B0000880F807C832B80937C0080917A00806486
:102B100080937A0080917A0086FDFCCF2091780026
:102B200040917900942F80E030E0282B392BC901A7
:102B300008951F93CF93DF93182FEB0161E00E945C
:102B40007916209709F4CAC0CF3FD10509F4C9C04E
:102B5000E12FF0E0E254FE4F8491893009F466C021
:102B60008A30B0F48430F1F1853040F4823059F18C
:102B7000833070F5813009F0AEC020C0873009F491
:102B800043C0883008F048C0863009F0A4C034C083
:102B90008D3009F478C08E3038F48B3009F45AC087
:102BA0008C3008F066C04CC0803109F480C081319F
:102BB00009F487C08F3009F08EC06FC084B580687B
:102BC00084BDC7BD92C084B5806284BDC8BD8DC0C0
:102BD00080918000806880938000D0938900C093AA
:102BE000880083C080918000806280938000D093B1
:102BF0008B00C0938A0079C08091B0008068809378
:102C0000B000C093B30071C08091B0008062809327
:102C1000B000C093B40069C0809190008068809338
:102C20009000D0939900C09398005FC0809190006D
:102C3000806280939000D0939B00C0939A0055C00F
:102C400080919000886080939000D0939D00C09305
:102C50009C004BC08091A00080688093A000809170
:102C6000A0008F7B8093A000D093A900C093A80000
:102C70003CC08091A00080628093A000D093AB0004
:102C8000C093AA0032C08091A00088608093A00009
:102C9000D093AD00C093AC0028C080912001806823
:102CA00080932001D0932901C09328011EC08091F8
:102CB0002001806280932001D0932B01C0932A01D0
:102CC00014C080912001886080932001D0932D0151
:102CD000C0932C010AC0C038D1051CF4812F60E0DC
:102CE00002C0812F61E00E942C17DF91CF911F91CC
:102CF0000895CF93DF93482F50E0CA0188589E4F24
:102D0000FC0134914E5C5E4FFA018491882369F195
:102D100090E0880F991FFC01EC51FF4FA591B491F1
:102D2000FC01E250FF4FC591D491662351F42FB7B7
:102D3000F8948C91932F909589238C938881892383
:102D40000BC0623061F42FB7F8948C91932F90955B
:102D500089238C938881832B88832FBF06C09FB7DC
:102D6000F8948C91832B8C939FBFDF91CF91089522
:102D7000893009F449C08A30A0F4843051F185309B
:102D800040F4823079F1833000F5813009F063C07E
:102D900026C0873079F1883098F5863009F05BC01D
:102DA00025C08D3009F442C08E3028F48B30B1F14B
:102DB0008C30C0F52DC0803109F442C0813109F456
:102DC00045C08F3009F047C037C0809180008F77B1
:102DD00003C0809180008F7D80938000089584B52A
:102DE0008F7702C084B58F7D84BD08958091B00037
:102DF0008F7703C08091B0008F7D8093B0000895DD
:102E0000809190008F7707C0809190008F7D03C0E4
:102E100080919000877F8093900008958091A0001A
:102E20008F7707C08091A0008F7D03C08091A000A4
:102E3000877F8093A0000895809120018F7703C041
:102E4000809120018F7D8093200108958091200141
:102E5000877F809320010895FF920F931F93F62E92
:102E6000482F50E0CA0182549E4FFC012491CA01B0
:102E700088589E4FFC0114914E5C5E4FFA010491FC
:102E80000023C9F0222319F0822F0E94B816E02FE8
:102E9000F0E0EE0FFF1FE250FF4FA591B4919FB7F6
:102EA000F894FF2021F48C911095812302C08C911D
:102EB000812B8C939FBF1F910F91FF9008950F93CB
:102EC0001F93482F50E0CA0182549E4FFC01249169
:102ED000CA0188589E4FFC0104914E5C5E4FFA0176
:102EE0001491112319F420E030E015C0222319F0C9
:102EF000822F0E94B816812F90E0880F991F885E5C
:102F00009E4FFC01A591B4918C9120E030E080238C
:102F100011F021E030E0C9011F910F9108958F92C7
:102F20009F92AF92BF92CF92DF92EF92FF920F9358
:102F30001F93CF93DF93A82FB0E0CD0188589E4F09
:102F4000FC018490AE5CBE4FFD018491662311F4B8
:102F5000992401C0982C6FEFA62E6FEFB62E6FEF5D
:102F6000C62E6FE0D62EA222B322C422D522682F0D
:102F700070E0660F771F685E7E4FEE24FF248701A6
:102F8000FB01A591B4910BC0EA14FB040C051D05CF
:102F900009F44EC00894E11CF11C011D111D8C9117
:102FA0008821891589F30CC0EA14FB040C051D0562
:102FB00009F43EC00894E11CF11C011D111D03C061
:102FC000FB01A591B4918C918821891569F720E0C6
:102FD00030E040E050E0FB01C591D4910FC0DA0130
:102FE000C9018E0D9F1DA01FB11F8A159B05AC0541
:102FF000BD05F1F02F5F3F4F4F4F5F4F8881882114
:10300000891569F3CA01B90125E130E040E050E0DB
:103010000E94662E9B01AC01205F3F4F4F4F5F4FD8
:1030200084E056954795379527958A95D1F704C042
:1030300020E030E040E050E0B901CA01DF91CF91DB
:103040001F910F91FF90EF90DF90CF90BF90AF90C6
:103050009F908F90089508951F920F920FB60F9230
:103060000BB60F9211242F933F934F938F939F93FF
:10307000EF93FF938091C00082FD1DC04091C60078
:103080002091C0063091C1062F5F3F4F2F733070E3
:103090008091C2069091C3062817390771F0E0911C
:1030A000C006F091C106E058F94F40833093C10645
:1030B0002093C00602C08091C600FF91EF919F91BE
:1030C0008F914F913F912F910F900BBE0F900FBE9C
:1030D0000F901F90189508951F920F920FB60F92A0
:1030E0000BB60F9211242F933F934F938F939F937F
:1030F000EF93FF938091C80082FD1DC04091CE00E8
:1031000020914807309149072F5F3F4F2F73307050
:1031100080914A0790914B072817390771F0E09189
:103120004807F0914907E85FF84F4083309349071B
:103130002093480702C08091CE00FF91EF919F91AC
:103140008F914F913F912F910F900BBE0F900FBE1B
:103150000F901F90189508951F920F920FB60F921F
:103160000BB60F9211242F933F934F938F939F93FE
:10317000EF93FF938091D00082FD1DC04091D60057
:103180002091D0073091D1072F5F3F4F2F733070C0
:103190008091D2079091D3072817390771F0E091F9
:1031A000D007F091D107E057F84F40833093D10713
:1031B0002093D00702C08091D600FF91EF919F919C
:1031C0008F914F913F912F910F900BBE0F900FBE9B
:1031D0000F901F90189508951F920F920FB60F929F
:1031E0000BB60F9211242F933F934F938F939F937E
:1031F000EF93FF938091300182FD1DC04091360115
:1032000020915808309159082F5F3F4F2F7330702D
:1032100080915A0890915B082817390771F0E09166
:103220005808F0915908E85EF74F408330935908E9
:103230002093580802C080913601FF91EF919F9131
:103240008F914F913F912F910F900BBE0F900FBE1A
:103250000F901F901895E091AC08F091AD08E05CDC
:10326000FF4F8191919120813181821B930B8F734C
:103270009070892B11F00E942B18E091CE08F091EC
:10328000CF08E05CFF4F8191919120813181821BB9
:10329000930B8F739070892B11F00E946B18E09143
:1032A000F008F091F108E05CFF4F8191919120814D
:1032B0003181821B930B8F739070892B11F00E94C8
:1032C000AB18E0911209F0911309E05CFF4F819176
:1032D000919120813181821B930B8F739070892B88
:1032E00011F00E94EB1808951F920F920FB60F92E3
:1032F0000BB60F9211242F933F938F939F93EF93CD
:10330000FF93209104073091050780910607909163
:1033100007072817390731F48091C1008F7D80930A
:10332000C10014C0E0910607F0910707EC53F94F74
:103330002081809106079091070701968F73907006
:1033400090930707809306072093C600FF91EF91A3
:103350009F918F913F912F910F900BBE0F900FBEB9
:103360000F901F9018951F920F920FB60F920BB6E9
:103370000F9211242F933F938F939F93EF93FF937B
:1033800020918C0730918D0780918E0790918F0747
:103390002817390731F48091C9008F7D8093C900C7
:1033A00014C0E0918E07F0918F07E45BF84F208105
:1033B00080918E0790918F0701968F7390709093F4
:1033C0008F0780938E072093CE00FF91EF919F91FE
:1033D0008F913F912F910F900BBE0F900FBE0F90CA
:1033E0001F9018951F920F920FB60F920BB60F9267
:1033F00011242F933F938F939F93EF93FF932091EB
:103400001408309115088091160890911708281714
:10341000390731F48091D1008F7D8093D10014C0A1
:10342000E0911608F0911708EC52F84F2081809136
:1034300016089091170801968F7390709093170853
:10344000809316082093D600FF91EF919F918F9162
:103450003F912F910F900BBE0F900FBE0F901F90BA
:1034600018951F920F920FB60F920BB60F92112460
:103470002F933F938F939F93EF93FF9320919C08FB
:1034800030919D0880919E0890919F0828173907D8
:1034900031F4809131018F7D8093310114C0E0912E
:1034A0009E08F0919F08E45AF74F208180919E0872
:1034B00090919F0801968F73907090939F088093CE
:1034C0009E0820933601FF91EF919F918F913F913C
:1034D0002F910F900BBE0F900FBE0F901F9018955D
:1034E0008F929F92AF92BF92CF92DF92EF92FF9214
:1034F0000F931F93DF93CF93CDB7DEB7FC011382F9
:10350000128288EE93E0A0E0B0E084839583A683E6
:10351000B78384E593E091838083758764875787B9
:103520004687318B208B138B028BF58AE48AD78AEE
:10353000C68AB18EA08E938E828E8889848F898967
:10354000858F8A89868F8B89878F8C8980A3CF917D
:10355000DF911F910F91FF90EF90DF90CF90BF9080
:10356000AF909F908F9008958F929F92AF92BF924D
:10357000CF92DF92EF92FF920F931F93DF93CF933F
:10358000CDB7DEB7FC011382128288EE93E0A0E093
:10359000B0E084839583A683B78384E593E0918329
:1035A00080837587648757874687318B208B138B81
:1035B000028BF58AE48AD78AC68AB18EA08E938E52
:1035C000828E8889848F8989858F8A89868F8B8965
:1035D000878F8C8980A3CF91DF911F910F91FF90EE
:1035E000EF90DF90CF90BF90AF909F908F90089515
:1035F000AF92BF92DF92EF92FF920F931F93CF9300
:10360000DF93EC017A018B01DD24403081EE580715
:1036100080E0680780E0780711F0DD24D39491E022
:10362000A92EB12CEC89FD89DD2069F0C50108A027
:1036300002C0880F991F0A94E2F7808360E079E066
:103640008DE390E005C0108260E874E88EE190E0C0
:10365000A80197010E94992E2150304040405040CF
:10366000569547953795279580E12030380720F00B
:10367000DD2011F0DD24D6CFE889F9893083EA898D
:10368000FB89208319A2EE89FF89408121E030E087
:10369000C9010C8C02C0880F991F0A94E2F7482BCD
:1036A0004083EE89FF894081C9010D8C02C0880FDB
:1036B000991F0A94E2F7482B4083EE89FF894081E5
:1036C000C9010E8C02C0880F991F0A94E2F7482B9B
:1036D0004083EE89FF8980810F8C02C0220F331F47
:1036E0000A94E2F7209528232083DF91CF911F9140
:1036F0000F91FF90EF90DF90BF90AF900895AF9241
:10370000BF92CF92DF92EF92FF920F931F93CF93CE
:10371000DF93EC017A018B01C22EDD24403081EE73
:10372000580780E0680780E0780711F0DD24D39423
:1037300071E0A72EB12CEC89FD89DD2069F0C5016F
:1037400008A002C0880F991F0A94E2F7808360E006
:1037500079E08DE390E005C0108260E874E88EE1C6
:1037600090E0A80197010E94992E215030404040DE
:103770005040569547953795279580E1203038077A
:1037800020F0DD2011F0DD24D6CFE889F9893083DF
:10379000EA89FB892083E88DF98DC082EE89FF8953
:1037A000408121E030E0C9010C8C02C0880F991FD4
:1037B0000A94E2F7482B4083EE89FF894081C901D2
:1037C0000D8C02C0880F991F0A94E2F7482B4083A2
:1037D000EE89FF894081C9010E8C02C0880F991FB4
:1037E0000A94E2F7482B4083EE89FF8980810F8C91
:1037F00002C0220F331F0A94E2F72095282320836A
:10380000DF91CF911F910F91FF90EF90DF90CF90BC
:10381000BF90AF900895CF93DF93DC011E968D91FA
:103820009C911F97EC01C05CDF4FFC01EE5BFF4FEA
:10383000288139818081918128173907C9F75696E7
:10384000ED91FC915797408121E030E0C9015C96F1
:103850000C905C9702C0880F991F0A94E2F780953C
:10386000842380835696ED91FC9157974081C9013E
:103870005D960C905D9702C0880F991F0A94E2F73D
:103880008095842380835696ED91FC9157974081D3
:10389000C9015E960C905E9702C0880F991F0A942A
:1038A000E2F78095842380835696ED91FC9157979B
:1038B00080815F960C905F9702C0220F331F0A949D
:1038C000E2F72095282320831C96ED91FC911D970B
:1038D000EE5BFF4F8081918192938293DF91CF9134
:1038E0000895DC011C96ED91FC911D97E05CFF4F63
:1038F0002191319180819181281B390B2F73307078
:10390000C9010895DC011C96ED91FC911D97E05CC6
:10391000FF4F20813181E054F040DF01AE5BBF4FAB
:103920008D919C9111972817390719F42FEF3FEFCC
:1039300007C08D919C91E80FF91F8081282F30E0FE
:10394000C9010895DC011C96ED91FC911D97E05C86
:10395000FF4F20813181E054F040DF01AE5BBF4F6B
:103960008D919C9111972817390719F42FEF3FEF8C
:1039700010C08D919C911197E80FF91F20818D91B6
:103980009C91119701968F73907011969C938E93D2
:1039900030E0C9010895DC0191968C9191978823BC
:1039A00039F05496ED91FC915597808186FFF9CFBF
:1039B00091961C920895CF93DF93EC01EE85FF85DD
:1039C000E05CFF4F20813181E054F0402F5F3F4F9A
:1039D0002F733070DF01AE5BBF4F8D919C911197BB
:1039E00028173907D1F3E05CFF4F80819181E054C3
:1039F000F040E80FF91F6083EE85FF85E05CFF4F24
:103A000031832083EE89FF89208181E090E00F8C53
:103A100002C0880F991F0A94E2F7282B208381E0C7
:103A200089A3EC89FD8980818064808381E090E0B6
:103A3000DF91CF91089581E008951F931092A3081C
:103A40001092A20828EE33E040E050E02093A40852
:103A50003093A5084093A6085093A70864E573E047
:103A60007093A1086093A00880E896E09093AD0859
:103A70008093AC0884EC96E09093AF088093AE08F6
:103A800085EC90E09093B1088093B00884EC90E0CE
:103A90009093B3088093B20880EC90E09093B508BF
:103AA0008093B40881EC90E09093B7088093B608B7
:103AB00082EC90E09093B9088093B80886EC90E08F
:103AC0009093BB088093BA0814E01093BC08B3E04D
:103AD000B093BD08A7E0A093BE08F5E0F093BF083F
:103AE000E1E0E093C0081092C5081092C40820934A
:103AF000C6083093C7084093C8085093C90870930C
:103B0000C3086093C20888E097E09093CF08809341
:103B1000CE088CE497E09093D1088093D0088DEC88
:103B200090E09093D3088093D2088CEC90E090932F
:103B3000D5088093D40888EC90E09093D7088093C0
:103B4000D60889EC90E09093D9088093D8088AEC45
:103B500090E09093DB088093DA088EEC90E09093ED
:103B6000DD088093DC081093DE08B093DF08A09393
:103B7000E008F093E108E093E2081092E708109261
:103B8000E6082093E8083093E9084093EA08509348
:103B9000EB087093E5086093E40880E997E0909360
:103BA000F1088093F00884ED97E09093F3088093F8
:103BB000F20885ED90E09093F5088093F40884ED89
:103BC00090E09093F7088093F60880ED90E0909352
:103BD000F9088093F80881ED90E09093FB088093BA
:103BE000FA0882ED90E09093FD088093FC0886ED42
:103BF00090E09093FF088093FE0810930009B09323
:103C00000109A0930209F0930309E09304091092BB
:103C100009091092080920930A0930930B0940936F
:103C20000C0950930D09709307096093060988E108
:103C300098E090931309809312098CE598E0909393
:103C400015098093140985E391E0909317098093F7
:103C5000160984E391E0909319098093180980E391
:103C600091E090931B0980931A0981E391E090936E
:103C70001D0980931C0982E391E090931F098093B2
:103C80001E0986E391E09093210980932009109307
:103C90002209B0932309A0932409F0932509E09306
:103CA00026091F9108950F93FC0184E793E0918307
:103CB000808362834383248305830F9108950F9348
:103CC000FC0184E793E091838083628343832483B0
:103CD00005830F91089584E793E0909329098093D9
:103CE000280910922A0910922B0910922C0910927F
:103CF0002D0908958F929F92AF92BF92CF92DF923B
:103D0000EF92FF920F931F93CF93DF934C016B01C0
:103D10007C01AA24BB24C0E0D0E0C601F701628187
:103D20004AE050E00E94E3208C01C6016EE20E944E
:103D3000991F080F191FA00EB11E21960894E11CAF
:103D4000F11CC330D10549F7C601F40165814AE091
:103D500050E00E94E3209501280F391FC901DF912F
:103D6000CF911F910F91FF90EF90DF90CF90BF9078
:103D7000AF909F908F9008959C012E5F3F4FCB0195
:103D8000B90144E050E00E94372F9C0180E0232BD2
:103D900009F481E00895DF93CF9300D00F92CDB75F
:103DA000DEB7FC0142835383648375830F900F90C9
:103DB0000F900F90CF91DF9108959C01FB018081BE
:103DC0009181A281B381F90182839383A483B58316
:103DD000C90108959C01FB0184E793E0D9018D930B
:103DE0009C9380819181A281B381F9018283938325
:103DF000A483B58308959C01FB0184E793E0D90176
:103E00008D939C9380819181A281B381F9018283FA
:103E10009383A483B5830895DF93CF9300D00F924B
:103E2000CDB7DEB7FC0184E793E0918380834283C2
:103E30005383648375830F900F900F900F90CF91F1
:103E4000DF910895DF93CF9300D00F92CDB7DEB707
:103E5000FC0184E793E091838083428353836483EE
:103E600075830F900F900F900F90CF91DF91089571
:103E7000FC0184E793E09183808312821382148291
:103E800015820895FC0184E793E091838083128278
:103E90001382148215820895CF92DF92EF92FF92DF
:103EA0000F931F93CF93DF937C016B018A01C0E0D6
:103EB000D0E00FC0D6016D916D01D701ED91FC915D
:103EC0000190F081E02DC7011995C80FD91F01504D
:103ED00010400115110571F7CE01DF91CF911F91AF
:103EE0000F91FF90EF90DF90CF900895EF92FF92A7
:103EF0000F931F93CF93DF937C018B01C0E0D0E041
:103F0000F8010F5F1F4F6491662359F0D701ED91BF
:103F1000FC910190F081E02DC7011995C80FD91FC0
:103F2000EFCFCE01DF91CF911F910F91FF90EF90D6
:103F30000895DC01ED91FC910190F081E02D19953F
:103F400008959C01DB01ED91FC910190F081E02D41
:103F5000CB01B90119950895EF92FF920F931F932A
:103F60008C01DC01ED91FC910190F081E02D6DE080
:103F700019957C01D801ED91FC910190F081E02D23
:103F8000C8016AE019959C012E0D3F1DC9011F91C2
:103F90000F91FF90EF900895EF92FF920F931F9370
:103FA0007C010E94761F8C01C7010E94AC1F9C01FE
:103FB000200F311FC9011F910F91FF90EF900895BD
:103FC000EF92FF920F931F937C01DC01ED91FC9126
:103FD0000190F081E02D19958C01C7010E94AC1F62
:103FE000080F191FC8011F910F91FF90EF900895BE
:103FF000EF92FF920F931F937C01DB01ED91FC91F7
:104000000190F081E02DCB01B70119958C01C7011A
:104010000E94AC1F080F191FC8011F910F91FF903C
:10402000EF900895CF93DF93EC016115710519F4BA
:1040300020E030E00FC0DB010D900020E9F7119780
:10404000A61BB70BE881F9810280F381E02DAD0159
:1040500019959C01C901DF91CF9108954F925F920C
:104060007F928F929F92AF92BF92CF92DF92EF9208
:10407000FF920F931F93DF93CF93CDB7DEB7A19736
:104080000FB6F894DEBF0FBECDBF2C01742ECB014E
:10409000223008F42AE019A231E2C32ED12CCC0E32
:1040A000DD1E822E9924AA24BB24672D752FA5011D
:1040B00094010E94992E79018A01C801B701A501D6
:1040C00094010E94662E472D461B0894C108D10812
:1040D0004A3014F4405D01C0495CF6014083E114AC
:1040E000F1040105110521F07E2C5F2DC801DDCF03
:1040F000C201B6010E941220A1960FB6F894DEBF4D
:104100000FBECDBFCF91DF911F910F91FF90EF9028
:10411000DF90CF90BF90AF909F908F907F905F90F7
:104120004F900895DC012115310541F4ED91FC918A
:104130000190F081E02D642F199508950E942E20A2
:104140000895EF92FF920F931F937C010E9492209B
:104150008C01C7010E94AC1F9C01200F311FC901B7
:104160001F910F91FF90EF900895EF92FF920F93A0
:104170001F939A017B0100E010E0B801A7010E94A3
:1041800092201F910F91FF90EF900895CF92DF92B0
:10419000EF92FF920F931F936C017B019A0100E055
:1041A00010E0B801A7010E9492208C01C6010E9474
:1041B000AC1F080F191FC8011F910F91FF90EF90BE
:1041C000DF90CF900895EF92FF920F931F939A0183
:1041D000E62EFF2400E010E0B801A7010E94922023
:1041E0001F910F91FF90EF900895CF92DF92EF9281
:1041F000FF920F931F936C01E62E9A01FF2400E0BB
:1042000010E0B801A7010E9492208C01C6010E9413
:10421000AC1F080F191FC8011F910F91FF90EF905D
:10422000DF90CF900895CF92DF92EF92FF920F939D
:104230001F93CF93DF93EC016A017B0121153105B8
:1042400041F4E881F9810190F081E02D642F199506
:104250001FC02A303105D1F477FF17C0E881F981FA
:104260000190F081E02D6DE219958C0144275527CE
:10427000BA014C195D096E097F09CE012AE00E943E
:104280002E209801280F391F04C02AE00E942E20FA
:104290009C01C901DF91CF911F910F91FF90EF9089
:1042A000DF90CF900895EF92FF920F931F937C01C0
:1042B0000E9413218C01C7010E94AC1F9C01200F9A
:1042C000311FC9011F910F91FF90EF900895EF9258
:1042D000FF920F931F937B019A010027F7FC009533
:1042E000102FB801A7010E9413211F910F91FF9079
:1042F000EF900895CF92DF92EF92FF920F931F936A
:104300006C017B019A010027F7FC0095102FB80182
:10431000A7010E9413218C01C6010E94AC1F080F47
:10432000191FC8011F910F91FF90EF90DF90CF9060
:1043300008950E94122008957F928F929F92AF92CB
:10434000BF92CF92DF92EF92FF920F931F93CF9382
:10435000DF934C017A018B01722ECB01BA01A801C7
:1043600097010E94A60E882321F0C40162E372E047
:1043700021C0C0E0D0E057016801E894D7F8C60139
:10438000B5012FEF3FEF4FE75FE70E94A60E8823AE
:1043900051F4C601B5012FEF3FEF4FE75FE70E94F1
:1043A000760E181614F0C1E0D0E0219739F0C40160
:1043B00066E372E00E941220EC0193C0C801B701CD
:1043C0002FEF3FEF4FE75FE40E94E60D181654F021
:1043D000C801B7012FEF3FEF4FE75FEC0E94460E99
:1043E000882324F4C4016AE372E0E4CFC801B70172
:1043F00020E030E040E050E00E94460E87FD03C020
:10440000C0E0D0E00EC0D401ED91FC910190F081AC
:10441000E02DC4016DE21995EC0117FB109517F919
:10442000109520E030E040E05FE3DD240BC0CA01DE
:10443000B90120E030E040E251E40E943A0D9B01D6
:10444000AC01D394D71498F3C801B7010E94130CA0
:104450005B016C010E946A0A7B018C01C401B801F6
:10446000A7012AE030E00E949220C80FD91F7720D0
:1044700039F0C4016EE372E00E941220C80FD91F08
:10448000C801B7010E94830F9B01AC01C601B501B1
:104490000E94E20B24C020E030E040E251E40E94A0
:1044A000400C7B018C010E942F0F5B016C01CC241E
:1044B000B7FCC094DC2CC401B601A5012AE030E0B1
:1044C0000E941321C80FD91FC601B5010E94D10E49
:1044D0009B01AC01C801B7010E94E20B7A947720DE
:1044E000D1F6CE01DF91CF911F910F91FF90EF9008
:1044F000DF90CF90BF90AF909F908F907F90089566
:104500000E949C210895EF92FF920F931F937C01CC
:104510000E949C218C01C7010E94AC1F080F191F2B
:10452000C8011F910F91FF90EF900895EF92FF92B5
:104530000F931F937C010E9412208C01C7010E94DF
:10454000AC1F080F191FC8011F910F91FF90EF902A
:104550000895AF92BF92CF92DF92EF92FF920F93A6
:104560001F93CF93DF935C016B01EE24FF24C0E027
:10457000D0E010C0D501ED91FC9100811181C60100
:10458000BE010E942323682FC501F8011995E80E8A
:10459000F91E2196F60184819581C817D90750F339
:1045A000C701DF91CF911F910F91FF90EF90DF90A6
:1045B000CF90BF90AF900895EF92FF920F931F930B
:1045C0007C010E94A9228C01C7010E94AC1F9C01A2
:1045D000200F311FC9011F910F91FF90EF90089597
:1045E000FC01848195816817790748F40190F08176
:1045F000E02D309721F0E60FF71F8081089580E0CD
:104600000895FC01848195816817790730F4019041
:10461000F081E02DE60FF71F40830895FC019B0118
:10462000848195816817790728F46081718161150B
:10463000710529F410922E096EE279E002C0620F32
:10464000731FCB010895FC01848195816817790758
:1046500048F40190F081E02D309721F0E60FF71F2C
:104660008081089580E00895FC010190F081E02DA3
:10467000309729F40895861709F440833196808194
:104680008823C9F70895FC0180819181009729F45E
:1046900020E030E040E050E004C00E94F82E9B0192
:1046A000AC01B901CA010895CF92DF92EF92FF9257
:1046B0000F931F93CF93DF936C01DC01ED90FC907F
:1046C0001197E114F10409F441C01496CD91DC91E5
:1046D00015972097D9F1870102C00F5F1F4FF8018E
:1046E0008081992787FD90950E941F2F892BA9F71C
:1046F0002197CE0DDF1D01C021978881992787FD65
:1047000090950E941F2F892B19F0C017D107A0F791
:10471000FE013196E01BF10BD6011596FC93EE934A
:1047200014972D913C912017310728F4C901B80145
:10473000AF010E94442FD601ED91FC911197149680
:104740008D919C911597E80FF91F1082DF91CF9101
:104750001F910F91FF90EF90DF90CF900895CF932E
:10476000DF93FC01C081D181209739F409C09927DA
:1047700087FD90950E942F2F899388818823B9F710
:10478000DF91CF910895CF93DF93FC01C081D18158
:10479000209739F409C0992787FD90950E94272F0B
:1047A000899388818823B9F7DF91CF910895EF929B
:1047B000FF920F931F93CF93DF93FC01DB018617CA
:1047C000970739F12481358114968D919C91159725
:1047D0002817390701F5232BE1F0E080F180CD9116
:1047E000DC9113C0992787FD90950E94272F8C019B
:1047F0008881992787FD90950E94272F0817190710
:1048000051F40894E11CF11C2196F7018081882362
:1048100049F781E001C080E0DF91CF911F910F91B6
:10482000FF90EF900895AF92BF92CF92DF92EF92F8
:10483000FF920F931F93CF93DF93FC015B017A01EB
:10484000DB0114962D913C9115972115310559F1F5
:1048500084819581009739F18217930720F14817D9
:10486000590720F07C010894E108F10800811181CA
:10487000C801CFEFDFEF6801CE0CDF1C10C0F501DF
:10488000608171810E94A22F9C01009771F0801BB2
:10489000910BE816F90608F0EC01C9010196C8165B
:1048A000D90668F702C0CFEFDFEFCE01DF91CF91DD
:1048B0001F910F91FF90EF90DF90CF90BF90AF903E
:1048C0000895FC01DB014481558114968D919C91E2
:1048D0001597481B590BCF010E9413240895CF93BD
:1048E000DF93FC01DB01848195814817590760F44F
:1048F000C081D1816D917C91CE01840F951F0E9462
:10490000A22F9C01009719F42FEF3FEF02C02C1B40
:104910003D0BC901DF91CF91089540E050E00E9426
:104920006F240895DF92EF92FF920F931F93CF931E
:10493000DF93EC018C819D8148175907C8F47A01F7
:104940000894E11CF11CE881F981EE0DFF1DD08077
:10495000108208811981772767FD7095C8010E9430
:10496000972F9C010E0D1F1DF801D082009719F49E
:10497000EFEFFFEF05C088819981F901E81BF90B82
:10498000CF01DF91CF911F910F91FF90EF90DF90BA
:104990000895FC0144815581415050400E94922469
:1049A0000895CF93DF93FC018481958148175907BF
:1049B00068F4C081D181772767FD7095CE01840F9F
:1049C000951F0E945F2F9C01009719F42FEF3FEF76
:1049D00002C02C1B3D0BC901DF91CF91089540E02F
:1049E00050E00E94D12408950F931F93CF93DF933B
:1049F000FC018B0141155105F9F061157105E1F0DC
:104A0000848195812817390718F0FB01108214C0A2
:104A100041505040EC01C21BD30B4C175D0708F40A
:104A2000EA0160817181620F731FC801AE010E94AB
:104A3000882FC00FD11F1882DF91CF911F910F9146
:104A40000895FC01DB012481358114964D915C9120
:104A5000159724173507A8F080819181009789F078
:104A60006D917C916115710561F0241B350B820FEE
:104A7000931F0E946A2F9C0180E0232B19F481E090
:104A8000089580E00895DC01FB0114968D919C91BE
:104A90001597892B31F461157105A9F090E080819B
:104AA00008C00D90BC91A02D6115710529F490E00E
:104AB0008C91882349F407C0CD010E946A2F9C0184
:104AC00090E0232B09F491E0892F0895CF93DF9391
:104AD0009C01FB01EC01A881B981109729F060814C
:104AE000718161157105D1F4C081D181209759F090
:104AF00084819581892B39F0888190E022273327A2
:104B0000281B390B12C0109771F0F901848195812F
:104B1000892B49F08C91282F30E007C0CD010E94ED
:104B20006A2F9C0102C020E030E0C901DF91CF91E3
:104B300008950E946625892F8095881F8827881FE1
:104B400008950E94662520E0181619060CF021E051
:104B5000822F08950E94662520E0181619060CF48D
:104B600021E0822F08950E946625892F881F8827BB
:104B7000881F0895FC01DB012481358114968D91F5
:104B80009C9115972817390711F020E007C0CF0135
:104B90000E94662520E0892B09F421E0822F0895E8
:104BA000FC01DB0114962D913C9115978481958130
:104BB000821B930B84179507A0F080819181009749
:104BC00081F06D917C916115710559F0840F951FED
:104BD000A9010E947A2F9C0180E0232B19F481E027
:104BE000089580E00895FC01DB012481358114964D
:104BF0008D919C9115972817390710F480E008953E
:104C0000CF0140E050E00E94D02508950F931F93FC
:104C1000CF93DF93EC018B016F5F7F4F8881998188
:104C20000E94852D009711F480E005C09983888348
:104C30001B830A8381E0DF91CF911F910F9108952B
:104C40002F923F924F925F926F927F928F929F929C
:104C5000AF92BF92CF92DF92EF92FF920F931F938A
:104C6000CF93DF935C012B014A01DC0114960D9177
:104C70001C9115970115110509F4D4C0FB01C480DE
:104C8000D580C114D10409F4CDC0DA0114966D9019
:104C90007C9015976C187D08FC01E080F180611410
:104CA000710491F01BC0D4016C9111967C91119705
:104CB00014964D915C9115978C2F0E94442FF4010E
:104CC000E480F580EC0EFD1ED2016D917C91C70150
:104CD0000E94A22FEC01009731F7A4C077FE02C01A
:104CE00067012EC0FB0120803180E8013CC08E01AD
:104CF0000E191F09C601B701A8010E94442F0C0D0F
:104D00001D1DD4016C9111967C91119714964D91B3
:104D10005C911597C8010E94442FF401C480D5808E
:104D2000C00ED11ED2011496ED90FC901597EC0E9A
:104D3000FD1EF50184819581860D971D95838483E1
:104D4000D2016D917C91C7010E94A22FEC010097C6
:104D500071F6C601B7010E94732F64C07B01EC0C91
:104D6000FD1CC60DD71DC701B1010E94A22FBC01B9
:104D70000097A1F7C017D10709F454C0F50182814B
:104D800093818C179D0708F044C0C501BE010E94A5
:104D900006268823F1F546C0C501B201A9010E948B
:104DA0001324EC0197FD3EC0D5016D917C911197C4
:104DB000F201848195818C0F9D1F680F791F1496D5
:104DC0004D915C911597481B590BCB01860D971D92
:104DD0000E944D2FD50114968D919C911597860DAB
:104DE000971D15969C938E931497ED91FC911197B6
:104DF000E80FF91F10822D913C912C0F3D1FF401FB
:104E00006081718144815581C9010E94442F9E01B6
:104E100005C0D50114962D913C9115972150304035
:104E200037FFBACFDF91CF911F910F91FF90EF9095
:104E3000DF90CF90BF90AF909F908F907F906F90BA
:104E40005F904F903F902F900895CF93DF93EC01A8
:104E500088819981892B29F08A819B818617970700
:104E600060F4CE010E940626882341F08C819D814A
:104E7000892B19F4E881F981108281E0DF91CF91CB
:104E80000895EF92FF920F931F93CF93DF93EC015E
:104E90007B016C817D81E114F104C1F04115510564
:104EA00099F08A01060F171FB8010E942527882351
:104EB00069F0888199812C813D81820F931FB70110
:104EC0000E94732F1D830C8381E001C080E0DF917D
:104ED000CF911F910F91FF90EF900895EF92FF9265
:104EE0000F931F93DF93CF93CDB7DEB72B970FB6FA
:104EF000F894DEBF0FBECDBF7C01CB01BA018E019D
:104F00000F5F1F4FA8012AE030E00E942630F80111
:104F100001900020E9F73197E01BF10BC701B801C0
:104F2000AF010E9441272B960FB6F894DEBF0FBE4B
:104F3000CDBFCF91DF911F910F91FF90EF9008951A
:104F4000EF92FF920F931F93DF93CF93CDB7DEB70E
:104F50002C970FB6F894DEBF0FBECDBF7C01CB01FE
:104F6000BA018E010F5F1F4FA8012AE030E00E94B6
:104F7000DD2FF80101900020E9F73197E01BF10BDC
:104F8000C701B801AF010E9441272C960FB6F894D3
:104F9000DEBF0FBECDBFCF91DF911F910F91FF906C
:104FA000EF900895EF92FF920F931F93DF93CF93AB
:104FB00000D000D0CDB7DEB77C01CB018E010F5FF2
:104FC0001F4FB8014AE050E00E944B30F8010190B9
:104FD0000020E9F73197E01BF10BC701B801AF01E1
:104FE0000E94412726960FB6F894DEBF0FBECDBFB4
:104FF000CF91DF911F910F91FF90EF900895EF9265
:10500000FF920F931F93DF93CF93CDB7DEB7279710
:105010000FB6F894DEBF0FBECDBF7C01CB018E0171
:105020000F5F1F4FB8014AE050E00E94BC2FF8010B
:1050300001900020E9F73197E01BF10BC701B8019F
:10504000AF010E94412727960FB6F894DEBF0FBE2E
:10505000CDBFCF91DF911F910F91FF90EF900895F9
:10506000EF92FF920F931F93DF93CF9300D00F9295
:10507000CDB7DEB77C01862F90E08E010F5F1F4F0A
:10508000B8014AE050E00E94BC2FF80101900020D6
:10509000E9F73197E01BF10BC701B801AF010E949E
:1050A00041270F900F900F900F90CF91DF911F919C
:1050B0000F91FF90EF900895DF93CF930F920F928F
:1050C000CDB7DEB769831A82BE016F5F7F4F41E0C3
:1050D00050E00E9441270F900F90CF91DF910895EB
:1050E0006115710511F480E00895DB010D90002039
:1050F000E9F71197A61BB70BAD010E944127089550
:10510000FB0160817181448155810E94412708958E
:10511000CF93DF93EC0188819981009711F00E9471
:10512000ED2C198218821D821C821B821A82DF914B
:10513000CF9108950F931F93182F092F0E946E2768
:10514000882321F4812F902F0E948828812F902F6F
:105150001F910F9108950F931F93182F092F0E94ED
:10516000A027882321F4812F902F0E948828812F47
:10517000902F1F910F9108950F931F93182F092FB0
:105180000E94D227882321F4812F902F0E94882803
:10519000812F902F1F910F9108950F931F93182F18
:1051A000092F0E94FF27882321F4812F902F0E942E
:1051B0008828812F902F1F910F9108950F931F938F
:1051C000182F092F0E943028882321F4812F902F37
:1051D0000E948828812F902F1F910F9108950F937F
:1051E0001F93182F092F0E945C28882321F4812FF8
:1051F000902F0E948828812F902F1F910F91089542
:105200000F931F93182F092F6115710561F0DB01B2
:105210000D900020E9F71197A61BB70BAD010E9476
:105220004127882321F4812F902F0E948828812FE5
:10523000902F1F910F9108950F931F93182F092FEF
:10524000FB0160817181448155810E94412788233F
:1052500021F4812F902F0E948828812F902F1F9159
:105260000F910895EF92FF920F931F93CF93DF93C7
:10527000EC017B018A01BA010E942527882321F4D1
:10528000CE010E94882807C01D830C8388819981E4
:10529000B7010E94732FCE01DF91CF911F910F9123
:1052A000FF90EF900895CF93DF93EC01198218825D
:1052B0001B821A821D821C821E826115710551F0AB
:1052C000DB010D900020E9F71197A61BB70BAD018C
:1052D0000E943229DF91CF910895CF93DF93EC01A3
:1052E000198218821B821A821D821C821E826115FD
:1052F000710551F0DB010D900020E9F71197A61B15
:10530000B70BAD010E943229DF91CF9108950F9321
:105310001F93182F092F6115710559F0DB010D90AE
:105320000020E9F71197A61BB70BAD010E943229A7
:1053300002C00E948828812F902F1F910F910895FD
:10534000EF92FF920F931F93DF93CF93CDB7DEB70A
:10535000A1970FB6F894DEBF0FBECDBF8C01FC0144
:105360001182108213821282158214821682CB015E
:10537000BA017E010894E11CF11CA70130E00E94F3
:105380002630C801B7010E948729A1960FB6F8946C
:10539000DEBF0FBECDBFCF91DF911F910F91FF9068
:1053A000EF900895EF92FF920F931F93DF93CF93A7
:1053B000CDB7DEB7A1970FB6F894DEBF0FBECDBF55
:1053C0008C01FC01118210821382128215821482D8
:1053D0001682CB01BA017E010894E11CF11CA701E1
:1053E00030E00E942630C801B7010E948729A196AB
:1053F0000FB6F894DEBF0FBECDBFCF91DF911F91E6
:105400000F91FF90EF900895EF92FF920F931F93EB
:10541000DF93CF93CDB7DEB7A2970FB6F894DEBF78
:105420000FBECDBF8C01FC0111821082138212824B
:10543000158214821682CB01BA017E010894E11C08
:10544000F11CA70130E00E94DD2FC801B7010E94C6
:105450008729A2960FB6F894DEBF0FBECDBFCF91BD
:10546000DF911F910F91FF90EF900895EF92FF92BF
:105470000F931F93DF93CF93CDB7DEB7A2970FB6ED
:10548000F894DEBF0FBECDBF8C01FC0111821082EB
:1054900013821282158214821682CB01BA017E0118
:1054A0000894E11CF11CA70130E00E94DD2FC80127
:1054B000B7010E948729A2960FB6F894DEBF0FBEEF
:1054C000CDBFCF91DF911F910F91FF90EF90089585
:1054D000EF92FF920F931F93DF93CF93CDB7DEB779
:1054E00061970FB6F894DEBF0FBECDBF8C01CB0124
:1054F000F8011182108213821282158214821682A0
:105500007E010894E11CF11CB70150E00E944B3071
:10551000C801B7010E94872961960FB6F894DEBFD3
:105520000FBECDBFCF91DF911F910F91FF90EF90F4
:105530000895EF92FF920F931F93DF93CF93CDB710
:10554000DEB761970FB6F894DEBF0FBECDBF8C01FA
:10555000CB01F8011182108213821282158214820B
:1055600016827E010894E11CF11CB70150E00E94F4
:105570004B30C801B7010E94872961960FB6F89495
:10558000DEBF0FBECDBFCF91DF911F910F91FF9076
:10559000EF900895EF92FF920F931F93DF93CF93B5
:1055A000CDB7DEB762970FB6F894DEBF0FBECDBFA2
:1055B0008C01CB01F80111821082138212821582B4
:1055C000148216827E010894E11CF11CB70150E0A0
:1055D0000E94BC2FC801B7010E94872962960FB6AE
:1055E000F894DEBF0FBECDBFCF91DF911F910F9119
:1055F000FF90EF900895EF92FF920F931F93DF9328
:10560000CF93CDB7DEB762970FB6F894DEBF0FBE6B
:10561000CDBF8C01CB01F80111821082138212825E
:105620001582148216827E010894E11CF11CB701D8
:1056300050E00E94BC2FC801B7010E9487296296E2
:105640000FB6F894DEBF0FBECDBFCF91DF911F9193
:105650000F91FF90EF900895EF92FF920F931F9399
:10566000DF93CF93CDB7DEB729970FB6F894DEBF9F
:105670000FBECDBF8C01862FF801118210821382DC
:10568000128215821482168290E07E010894E11C39
:10569000F11CB70150E00E944B30C801B7010E94D5
:1056A000872929960FB6F894DEBF0FBECDBFCF91E4
:1056B000DF911F910F91FF90EF900895EF92FF926D
:1056C0000F931F93DF93CF93CDB7DEB729970FB614
:1056D000F894DEBF0FBECDBF8C01862FF80111827A
:1056E00010821382128215821482168290E07E014B
:1056F0000894E11CF11CB70150E00E944B30C80136
:10570000B7010E94872929960FB6F894DEBF0FBE15
:10571000CDBFCF91DF911F910F91FF90EF90089532
:10572000DF93CF930F920F92CDB7DEB7FC011182BA
:1057300010821382128215821482168269831A8261
:10574000BE016F5F7F4F0E9487290F900F90CF910E
:10575000DF910895DF93CF930F920F92CDB7DEB70D
:10576000FC01118210821382128215821482168229
:1057700069831A82BE016F5F7F4F0E9487290F9055
:105780000F90CF91DF910895BF92CF92DF92EF9269
:10579000FF920F931F93CF93DF93082FB92E6B01C6
:1057A0007A01E9012417350710F4EA017901802F05
:1057B0009B2D60E472E00E945329D60114968D91CE
:1057C0009C9115978E159F05D0F08C179D0708F4B6
:1057D000EC01D601ED91FC911197EC0FFD1F1081AA
:1057E00010826D917C916E0D7F1D802F9B2D0E94EC
:1057F0008729D601ED91FC91EC0FFD1F1083802FBE
:105800009B2DDF91CF911F910F91FF90EF90DF9033
:10581000CF90BF9008950F931F938C01FB012481BB
:1058200035810E94C42BC8011F910F910895CF9319
:10583000DF93EC01FB018617970761F060817181AE
:105840006115710529F0448155810E94322902C0F9
:105850000E948828CE01DF91CF910895FC0111822A
:105860001082138212821582148216820E94172CD3
:105870000895FC0111821082138212821582148213
:1058800016820E94172C0895FC01808191810E944C
:10589000ED2C0895FC01808191810E94ED2C0895EA
:1058A0000F931F93CF93DF93BC018230910510F4C7
:1058B00062E070E0E0913109F091320940E050E09F
:1058C000A0E0B0E024C08081918186179707D0F0D6
:1058D0008617970771F482819381109729F01396A8
:1058E0009C938E9312972CC0909332098093310928
:1058F00027C04115510519F08417950718F48D013B
:10590000AC01EF01DF01828193819C01F9013097A5
:10591000D1F641155105F9F0CA01861B970B843069
:10592000910580F48A819B810115110521F0F80110
:105930009383828304C09093320980933109FE01DE
:10594000329645C0FE01E80FF91F619371930297EB
:10595000998388833CC080912F0990913009892BCD
:1059600041F480914C0390914D03909330098093C2
:105970002F0940914E0350914F034115510541F4B9
:105980004DB75EB780914A0390914B03481B590B6A
:1059900020912F093091300924173507B0F4CA013E
:1059A000821B930B8617970780F0AB014E5F5F4F0A
:1059B0008417950750F0420F531F509330094093BE
:1059C0002F09F9016193719302C0E0E0F0E0CF018B
:1059D000DF91CF911F910F910895CF93DF939C0199
:1059E000009709F48FC0EC0122971B821A82609104
:1059F0003109709132096115710581F488819981AD
:105A0000820F931F20912F093091300928173907F1
:105A100039F5D0933009C0932F0974C0DB0140E001
:105A200050E0AC17BD0708F1BB83AA83FE012191AA
:105A30003191E20FF31FAE17BF0779F48D919C915E
:105A40001197280F391F2E5F3F4F398328831296F5
:105A50008D919C9113979B838A834115510571F415
:105A6000D0933209C09331094DC012968D919C910B
:105A70001397AD01009711F0DC01D3CFDA01139633
:105A8000DC93CE931297FA0121913191E20FF31F2B
:105A9000CE17DF0769F488819981280F391F2E5F9F
:105AA0003F4FFA01318320838A819B8193838283D4
:105AB000E0E0F0E0DB0112968D919C911397009746
:105AC00019F0BC01FD01F6CFAB014E5F5F4FDB016A
:105AD0008D919C91840F951F20912F093091300951
