:100000000C9406010C94FD1C0C942E1D0C945F1D89
:100010000C94901D0C94C11D0C94F21D0C94231E85
:100020000C94541E0C9433010C9433010C94330142
:100030000C9433010C9433010C9433010C94330170
:100040000C9433010C94D1040C9433010C943301BF
:100050000C9433010C9433010C9433010C94851EE1
:100060000C9433010C9490220C94D8230C943301FB
:100070000C9433010C9433010C9433010C94330130
:100080000C94A3040C9433010C9433010C943301AD
:100090000C94D0220C9417240C9433010C94DE059C
:1000A0000C9433010C9433010C9475040C943301BB
:1000B0000C9433010C9433010C9433010C944704D9
:1000C0000C9433010C9433010C9433010C941023E1
:1000D0000C9456240C9433010C9450230C949524C6
:1000E0000C94330100002100240027002A002D0079
:1000F0003000330001010000040107010A01000083
:100100002200250028002B002E00310034000201BF
:100110000000050108010B0100002000230026005B
:1001200029002C002F00320000010000030106010D
:10013000090105050505070508080808020202026D
:100140000A0A080804040404010101010101010173
:100150000303030303030303040707070C0C0C0C3E
:100160000C0C0C0C02020202060606060606060627
:100170000B0B0B0B0B0B0B0B0102102020080810B4
:100180002040102040800201020108040201010207
:1001900004081020408080402010080402018004E0
:1001A000020180402010080402010804020101023B
:1001B0000408102040800102040810204080000044
:1001C000090A02080B0C0D070603040100000000D9
:1001D000000000000000000000000000000000001F
:1001E0000000000000000000000011100F000000DF
:1001F00000000000000000000000000000000000FF
:100200000000000030080E098127CF2811241FBEEE
:10021000CFEFD1E2DEBFCDBF00E00CBF13E0A0E026
:10022000B2E0E8E9F4E700E00BBF02C007900D92EE
:10023000A838B107D9F71BBE19E0A8E8B3E001C0A0
:100240001D92A03DB107E1F712E0CCE0D2E004C07E
:100250002297FE010E942B3AC430D107C9F70E94B1
:10026000BB120C944A3A0C940000FC018091880364
:10027000803390F480838F5F80938803815090E077
:10028000FC01EE0FFF1FE80FF91FE757FC4F88EB4B
:100290009BE09283818308958FEF80830895FC0112
:1002A00080918803803390F480838F5F80938803EC
:1002B000815090E0FC01EE0FFF1FE80FF91FE75798
:1002C000FC4F88EB9BE09283818308958FEF8083BE
:1002D0000895DC018C9190E0FC01EE0FFF1FE80F08
:1002E000F91FE757FC4F80818F7B80838C916CE0F6
:1002F0000E94823990E0AC01440F551F480F591FEE
:10030000440F551F440F551F20E030E0C901840FF2
:10031000951FFC01EE0FFF1FE80FF91FE757FC4F79
:10032000808186FD05C02F5F3F4F2C30310571F76E
:100330000895FC012081203308F041C08181992774
:1003400087FD909548E850E0481B590B440F551F16
:10035000440F551F6417750784F08281992787FD24
:10036000909548E552E0481B590B440F551F440F28
:10037000551F641775070CF4AB0142505040CA0179
:10038000AA2797FDA095BA2F74E0880F991FAA1F7E
:10039000BB1F7A95D1F763E0B695A795979587959A
:1003A0006A95D1F74FB7F89430E0F901EE0FFF1FCF
:1003B000E20FF31FE757FC4F928381834FBF0895ED
:1003C000FC0180818F3F19F420E030E016C090E0FE
:1003D000FC01EE0FFF1FE80FF91FE757FC4F2181CB
:1003E000328183E0220F331F8A95E1F7B4E036951E
:1003F0002795BA95E1F72E5F3F4FC9010895FC019B
:10040000808190E0FC01EE0FFF1FE80FF91FE75716
:10041000FC4F8081829586958695817009F081E0F8
:100420000895AF92BF92CF92DF92EF92FF920F9317
:100430001F938C010E94E00100D00F920196AA2721
:1004400097FDA095BA2FF8016181772767FD709518
:1004500028E830E0261B370B220F331F220F331FF3
:10046000442737FD4095542F6281772767FD7095AB
:10047000E8E5EE2EE2E0FE2EE61AF70AEE0CFF1C8F
:10048000EE0CFF1C0027F7FC0095102F64EBA62E46
:10049000B12CC12CD12CEDB7FEB7A182B282C382A0
:1004A000D482BC01CD01AA24BB2465010E94542D35
:1004B0000F900F900F900F90CB011F910F91FF9015
:1004C000EF90DF90CF90BF90AF900895AF92BF9222
:1004D000CF92DF92EF92FF920F931F93CF93DF9310
:1004E000EC019B0182E0603278070CF048C077FF96
:1004F00003C020E030E005C0653B710514F024EB3B
:1005000030E000D00F92B901882777FD8095982FB1
:100510002981332727FD3095E8E8AE2EB12CA21AA9
:10052000B30AAA0CBB1CAA0CBB1CCC24B7FCC094FD
:10053000DC2CEA81FF27E7FDF09528E532E02E1B51
:100540003F0B220F331F220F331F442737FD4095E7
:10055000542FEDB7FEB7218332834383548320E0C9
:1005600030E040E050E004EBE02EF12C012D112DA5
:100570000E94542D9B010F900F900F900F90CE0171
:10058000B9010E949901DF91CF911F910F91FF90C6
:10059000EF90DF90CF90BF90AF900895CF92DF9211
:1005A000EF92FF921F93CF93DF93EC01162F7A0106
:1005B00069018881803308F093C0862F61E00E9432
:1005C000DD20888190E0FC01EE0FFF1FE80FF91F8E
:1005D000E757FC4F1F738081807C812B808380E2F2
:1005E00092E08E199F0964E070E00E94A23969834D
:1005F00080E699E08C199D0964E070E00E94A239C0
:100600006A83A8818A2F6CE00E948239682F70E08B
:10061000AB01440F551F460F571F440F551F440F82
:10062000551F20E030E0C901840F951FFC01EE0F3B
:10063000FF1FE80FF91FE757FC4F808186FD44C07C
:100640002F5F3F4F2C30310571F753C0109280005F
:1006500082E0809381001092850010928400B19A0C
:1006600080916F00826080936F002EC062307105B0
:1006700069F41092900082E08093910010929500AE
:100680001092940088BB809371001EC06330710586
:1006900069F41092A00082E08093A1001092A5005E
:1006A0001092A40089BB809372000EC0672B61F486
:1006B0001092200182E08093210110922501109276
:1006C00024018ABB809373008A2F90E0FC01EE0F17
:1006D000FF1FE80FF91FE757FC4F8081806480837C
:1006E0008881DF91CF911F91FF90EF90DF90CF90A5
:1006F00008956130710509F0B9CFA8CF40E252E00A
:1007000020E639E00E94CE020895EF92FF920F9307
:100710001F93CF93DF938B017A01EC01DC01A75E7D
:10072000BB4F8C9187FF04C0FB011182108237C040
:10073000AE01440F551F4C0F5D1F440F551F440F52
:10074000551F2C91332727FD3095240F351F80919D
:10075000880390E02817390714F58C91992787FDB5
:100760009095840F951FFC01EE0FFF1FE80FF91FF6
:10077000E757FC4F808186FF12C08C91992787FD37
:100780009095840F951FFC01EE0FFF1FE80FF91FD6
:10079000E757FC4F80818F7360E00E949021DE015B
:1007A000A75EBB4F8C918F5F8C93AE01440F551F9A
:1007B0004C0F5D1F440F551F440F551F2C913327BD
:1007C00027FD3095240F351F8091880390E028176E
:1007D00039070CF04DC08C918C300CF049C0F801F9
:1007E000208131818C91992787FD9095840F951FE9
:1007F000FC01EE0FFF1FE80FF91FE757FC4F818147
:100800009281280F391FF701318320838C9199271A
:1008100087FD9095840F951FFC01EE0FFF1FE80FD9
:10082000F91FE757FC4F808186FF2AC08C919927DA
:1008300087FD9095840F951FFC01EE0FFF1FE80FB9
:10084000F91FE757FC4F80818F7361E00E94902170
:1008500017C080E49CE904C0F8018081918104966E
:10086000F70191838083C75EDB4F8FEF888308C0D9
:10087000F80180819181049680549C4950F3ECCF1B
:10088000DF91CF911F910F91FF90EF9008951F92EC
:100890000F920FB60F920BB60F9211242F933F9326
:1008A0004F935F936F937F938F939F93AF93BF9378
:1008B000EF93FF9380E090E064E271E048E251E062
:1008C0000E948503FF91EF91BF91AF919F918F910E
:1008D0007F916F915F914F913F912F910F900BBE40
:1008E0000F900FBE0F901F9018951F920F920FB68A
:1008F0000F920BB60F9211242F933F934F935F9358
:100900006F937F938F939F93AF93BF93EF93FF93D7
:1009100083E090E064EA70E048EA50E00E948503DA
:10092000FF91EF91BF91AF919F918F917F916F91C7
:100930005F914F913F912F910F900BBE0F900FBE83
:100940000F901F9018951F920F920FB60F920BB633
:100950000F9211242F933F934F935F936F937F9345
:100960008F939F93AF93BF93EF93FF9382E090E0B9
:1009700064E970E048E950E00E948503FF91EF913F
:10098000BF91AF919F918F917F916F915F914F91A7
:100990003F912F910F900BBE0F900FBE0F901F90A5
:1009A00018951F920F920FB60F920BB60F9211244B
:1009B0002F933F934F935F936F937F938F939F9367
:1009C000AF93BF93EF93FF9381E090E064E870E012
:1009D00048E850E00E948503FF91EF91BF91AF91ED
:1009E0009F918F917F916F915F914F913F912F9147
:1009F0000F900BBE0F900FBE0F901F901895880F91
:100A00008093BA000895382F413210F040E042C080
:100A100080911D048823E1F791E090931D042093B9
:100A20001F048FEF80938A04109245044150409335
:100A300046044F5F90931E0480911E04330F832B56
:100A400080931E0480912004813041F41092200490
:100A500080911E048093BB0085EC01C085EE8093DD
:100A6000BC0080911D048130E1F38091450484171E
:100A700010F44091450420E030E00AC0FB01E20F91
:100A8000F31FD901AB5DBB4F8C9180832F5F3F4F2C
:100A90002417A0F3842F08950F931F93582F122F1C
:100AA000413210F081E04AC080911D048823E1F7B3
:100AB00082E080931D0400931F048FEF80938A04CB
:100AC0001092450440934604A5E2B4E0FB0102C045
:100AD00081918D938E2F861B8417D0F310921E0464
:100AE00080911E04550F852B80931E048091200455
:100AF000813041F41092200480911E048093BB0049
:100B000085EC01C085EE8093BC00112321F080911B
:100B10001D048230E1F380918A048F3F11F480E05C
:100B20000DC080918A04803211F482E007C0809168
:100B30008A04803311F084E001C083E01F910F919B
:100B40000895482F613210F081E0089580911D04CE
:100B5000843011F082E0089560936804A7E4B4E063
:100B6000842F9C01F90102C081918D938E2F841BEB
:100B70008617D0F380E00895909324048093230493
:100B8000089590932204809321040895882311F0FE
:100B900085EC01C085E88093BC00089585ED8093C5
:100BA000BC008091BC0084FDFCCF10921D04089510
:100BB00085EC8093BC0010921D0408951F920F9243
:100BC0000FB60F920BB60F9211242F933F934F93B2
:100BD0005F936F937F938F939F93AF93BF93EF93A5
:100BE000FF938091B90090E0887F907080369105E6
:100BF00009F4F2C081369105CCF58832910509F4EB
:100C00007BC089329105B4F48031910509F46FC03D
:100C1000813191053CF4009709F447C1089709F028
:100C20004FC165C08831910509F466C0809709F00D
:100C300047C182C08034910509F4A4C08134910574
:100C400044F48033910509F482C0C89709F038C193
:100C500089C08035910509F489C08835910509F46A
:100C600096C08834910509F02BC1AEC08839910532
:100C700009F413C189399105ECF48837910509F419
:100C8000ABC0893791054CF48836910509F4A4C0AE
:100C90008037910509F014C19FC08838910509F487
:100CA000FCC08039910509F49DC08038910509F098
:100CB00007C198C0803B910509F4C6C0813B9105EE
:100CC0004CF4803A910509F49FC0883A910509F0E7
:100CD000F7C0BAC0803C910509F4E3C0883C910597
:100CE00009F4DFC0883B910509F0EAC0C2C08091D9
:100CF0001E048093BB00CFC09091450480914604B0
:100D0000981768F490914504E92FF0E0EB5DFB4FF4
:100D100080818093BB009F5F90934504BCC080910D
:100D20001F04882309F44BC085ED8093BC0080919B
:100D3000BC0084FDFCCFC2C080E280938A0485EDB4
:100D40008093BC008091BC0084FDFCCFB7C080E3E1
:100D500080938A0485ED8093BC008091BC0084FD63
:100D6000FCCFACC088E380938A049BC0809145048B
:100D70009091BB00E82FF0E0EB5DFB4F90838F5F1D
:100D800080934504909145048091460482C08091EF
:100D900045049091BB00E82FF0E0EB5DFB4F9083A2
:100DA0008F5F8093450480911F04882341F085ED77
:100DB0008093BC008091BC0084FDFCCF7FC081E0AB
:100DC0008093200484EA6EC085ED8093BC008091FE
:100DD000BC0084FDFCCF72C083E080931D041092A0
:100DE000890459C080918904803208F056C08091EE
:100DF00089049091BB00E82FF0E0E759FB4F908306
:100E00008F5F8093890447C080918904803230F4D9
:100E1000E0918904F0E0E759FB4F108285ED809363
:100E2000BC008091BC0084FDFCCF10921D04609139
:100E30008904E0912304F091240489E694E070E0B1
:100E40001995109289042DC084E080931D0410929E
:100E5000670410926804E0912104F091220419952E
:100E600080916804882329F481E0809368041092BB
:100E7000470490916704E92FF0E0E95BFB4F808124
:100E80008093BB009F5F909367049091670480916B
:100E90006804981710F485EC01C085E88093BC00C5
:100EA0000FC085EC8093BC0009C010928A0485EDC8
:100EB0008093BC008091BC0084FDFCCF10921D0487
:100EC000FF91EF91BF91AF919F918F917F916F9122
:100ED0005F914F913F912F910F900BBE0F900FBEDE
:100EE0000F901F90189510921D0481E080931F04AD
:100EF0001092200484E161E00E94902185E161E08C
:100F00000E949021E9EBF0E080818E7F80838081D8
:100F10008D7F808388E48093B80085E48093BC0053
:100F20000895FC011382128288EE93E0A0E0B0E005
:100F300084839583A683B78384E092E09183808342
:100F40000895FC011382128288EE93E0A0E0B0E0E5
:100F500084839583A683B78384E092E09183808322
:100F6000089581E08093D0046093AD041092CE0484
:100F70001092CF04089581E08093D0046093AD0473
:100F80001092CE041092CF0408952091AC0430E06A
:100F90008091AB04281B3109C90108954091AB042D
:100FA0008091AC04481718F02FEF3FEF0AC0E42FF0
:100FB000F0E0E557FB4F8081282F30E04F5F4093F2
:100FC000AB04C9010895E091AB048091AC04E8172B
:100FD00018F0EFEFFFEF06C0F0E0E557FB4F808120
:100FE000E82FF0E0CF0108950895AC012091D304DB
:100FF0003091D40421153105E1F09091AB0480913A
:10100000AC049817B0F090E008C0FA01EA0FFB1F9B
:101010008081A557BB4F8C939F5FA92FB0E0A61787
:10102000B7079CF31092AB046093AC04CB01F901B9
:1010300019950895E091D104F091D204309729F0E8
:101040001092CE041092CF04199508957093D40491
:101050006093D30408957093D2046093D1040895EB
:101060001092D8041092D70488EE93E0A0E0B0E08C
:101070008093D9049093DA04A093DB04B093DC044A
:1010800084E092E09093D6048093D5040895CF92A3
:10109000DF92EF92FF920F931F93CF93DF937C0128
:1010A0006B018A018091D0048823A1F0C0E0D0E0D8
:1010B0000DC0D701ED91FC91D601AC0FBD1F019081
:1010C000F081E02DC7016C9119952196C017D107C9
:1010D00080F304C0CB01642F0E94A105C801DF91F9
:1010E000CF911F910F91FF90EF90DF90CF900895D7
:1010F000DF93CF930F92CDB7DEB7FC016983809168
:10110000D0048823C9F08091CF04803238F081E088
:1011100090E09383828320E030E015C08091CE047C
:10112000E82FF0E0E255FB4F998190838F5F809329
:10113000CE048093CF0405C0CE01019661E00E94E9
:10114000A10521E030E0C9010F90CF91DF91089512
:101150000F93062F8091AD046EEA74E04091CF04A6
:1011600021E00E944C051092CE041092CF04109200
:10117000D0040F91089561E00E94A80808954132BB
:1011800008F040E2862F6BE874E00E94030510929D
:10119000AB048093AC0408950E94BF08089521E039
:1011A0000E94BF08089521E00E94BF080895109290
:1011B000AB041092AC041092CE041092CF040E94A3
:1011C000730708950F931F938C01862F0E94FF04CD
:1011D0008AE198E00E94C10585EF97E00E94BC0576
:1011E000C8010E94D7081F910F9108950E94E2083C
:1011F000089508958091E5049091E60401969093F6
:10120000E6048093E50408958091E7049091E80452
:1012100001969093E8048093E70408950F938EEF6E
:1012200096E060E040E020E000E00E94C3288BEF01
:1012300096E00E944F010F910895EF92FF920F9355
:101240001F93DF93CF9300D000D0CDB7DEB78C01D2
:101250007B0185ED94E0B8010E94BB0785ED94E029
:1012600062E30E94780885ED94E00E94BB0885ED5A
:1012700094E0B8010E94BB0785ED94E0B80146E018
:1012800050E00E94CF088E010F5F1F4F07C085ED11
:1012900094E00E94CE07F80181938F0185ED94E0E0
:1012A0000E94C507892B99F785ED94E00E94BB0841
:1012B0009A8180E0298130E0822B932BF701918382
:1012C00080839C8180E02B8130E0822B932B938361
:1012D00082839E8180E02D8130E0822B932B958349
:1012E000848326960FB6F894DEBF0FBECDBFCF9194
:1012F000DF911F910F91FF90EF900895FF920F9350
:101300001F939C01F62E05ED14E0C801B9010E945F
:10131000BB07C8016DE20E947808C8016F2D0E94CA
:101320007808C8010E94BB081F910F91FF90089593
:101330000F931F938DE399E040E855E260E070E081
:101340000E945C2585ED94E00E94D7080BEF16E023
:10135000C80169E070E00E947E03C80164E170E0AA
:101360000E94660284E061E00E94DD2085E061E089
:101370000E94DD2086E061E00E94DD2087E061E0E0
:101380000E94DD2088E260E00E94DD2087E261E0CB
:101390000E94DD2086E260E00E94DD2085E261E0BF
:1013A0000E94DD208DE061E00E94DD2086E160E0AA
:1013B0000E94DD2087E160E00E94DD2088E160E09E
:1013C0000E94DD2089E160E00E94DD208AE162E088
:1013D0000E94DD208BE162E00E94DD208CE162E072
:1013E0000E94DD2085E06AEF78E042E050E00E9454
:1013F000551C84E064E079E042E050E00E94551C16
:1014000083E590E060E00E947E0983E590E060E182
:101410000E947E0983E590E068E00E947E0983E5F2
:1014200090E061EF76E00E941D091F910F910895F1
:1014300085E30E94C321892BD1F086E10E94C3215C
:10144000892BA9F087E10E94C321892B81F088E1D3
:101450000E94C321892B59F089E10E94C321892B65
:1014600031F084E30E94C32120E0892B09F421E0BC
:10147000822F089585E30E94C321892B21F186E103
:101480000E94C321892BF9F087E10E94C321892B97
:10149000D1F088E10E94C321892BA9F089E10E9443
:1014A000C321892B81F084E30E94C321892B59F049
:1014B0008AE10E94C321892B31F08BE10E94C32174
:1014C00020E0892B09F421E0822F0895CF93DF9348
:1014D000EC01009739F487E00E94902186E060E0FB
:1014E00070E007C087E00E949021C556DF4F86E07C
:1014F000BE010E94FD1FDF91CF910895CF93DF932E
:10150000EC01009739F485E00E94902184E060E0CE
:1015100070E007C085E00E949021C556DF4F84E04F
:10152000BE010E94FD1FDF91CF9108951F93CF93BD
:10153000DF93EB01142F009771F08130910529F4AE
:10154000CB01642F0E947E0A0AC0029741F4CB01AE
:10155000642F0E947E0ACE01612F0E94660ADF91ED
:10156000CF911F910895CF92DF92EF92FF920F9348
:101570001F93CF93DF93EC01062F122F662757FDA1
:101580006095762FCB01BA010E944F1721E230EB14
:101590004AE250E40E94BE140E94AD176B01112371
:1015A00001F1E090E504F090E60411E0102780914D
:1015B000E5049091E6048E199F098C159D056CF544
:1015C0000E943A0A882349F581E090E0BE01412F4C
:1015D0000E94960A80E090E0BE01402F0E94960A89
:1015E000E6CFE090E504F090E60411E010270CC08F
:1015F00081E090E0BE01412F0E94960A80E090E0D9
:10160000BE01402F0E94960A8091E5049091E60465
:101610008E199F098C159D055CF3DF91CF911F9169
:101620000F91FF90EF90DF90CF900895AF92BF920F
:10163000CF92DF92EF92FF920F931F93CF93DF939E
:101640005C016B01142F442737FD4095542FCA01CC
:10165000B9010E944F1720E030E048E451E40E94B5
:10166000BE140E94AD177B010023B9F0C091E504C0
:10167000D091E6048091E5049091E6048C1B9D0BCB
:101680008E159F05ECF40E943A0A8823C9F4C5011F
:10169000B601412F0E94960AEDCFC091E504D0918A
:1016A000E60405C0C501B601412F0E94960A80914B
:1016B000E5049091E6048C1B9D0B8E159F0594F319
:1016C000DF91CF911F910F91FF90EF90DF90CF901E
:1016D000BF90AF9008950F938AE10E94C321892B98
:1016E00031F08BE10E94C321892B09F00CC18AE102
:1016F0000E94C321892B09F0F3C08BE10E94C32112
:10170000892B09F0EDC082E090E060E070E041E0FC
:101710000E94960A82E090E06BE470E040E02AE0EC
:1017200030E000E00E94160B8BE490E060E04AE5B8
:1017300050E020E00E94B30A82E090E06BE470E0A9
:1017400041E029E130E00E94160B8BE490E061E07B
:101750004AE550E020E00E94B30A82E090E06BE4AA
:1017600070E041E028E230E00E94160B8BE490E04C
:1017700061E040E550E020E00E94B30A07C082E04B
:1017800090E062E370E041E00E94960A0E94180A2D
:101790008823A9F388E10E94C321892B59F089E1AC
:1017A0000E94C321892B31F084E30E94C321892B3D
:1017B00009F09CC082E090E062E370E041E02AE042
:1017C00030E000E00E94160B8BE490E060E04AE518
:1017D00050E020E00E94B30A82E090E060E070E018
:1017E00040E00E94960A8BE490E061E044E650E01D
:1017F00021E00E94B30A82E090E060E070E040E007
:101800000E94960A80C086E10E94C321892B31F094
:1018100087E10E94C321892B09F075C08BE490E019
:1018200060E04CE350E020E00E94B30A6CC08BE122
:101830000E94C321892B09F460C00E94180A8823E2
:1018400009F45BC0809120029091210281309105C2
:1018500009F453C0892B09F450C082E090E062E3A0
:1018600070E040E024E030E000E00E94160B84E6E7
:1018700090E061E045E050E020E00E94B30A81E0A2
:1018800090E026C08BE10E94C321892BE1F50E94E4
:10189000180A8823C1F180912002909121028130A1
:1018A000910589F1892B79F182E090E062E370E0A3
:1018B00040E024E030E000E00E94160B84E690E077
:1018C00060E045E050E020E00E94B30A80E090E054
:1018D00062E370E041E026E030E00E94160B13C0A6
:1018E0008AE10E94C321892B41F4A1CF85E30E94A4
:1018F000C321892B09F492CF86CF8AE10E94C321AC
:10190000892B09F0BFCF0F9108958F929F92AF92CC
:10191000BF92CF92DF92EF92FF920F93CF93DF931C
:101920004C015B016A0179010023D9F0C091E50403
:10193000D091E6048091E5049091E6048C1B9D0B08
:101940008E159F052CF50E943A0A882309F540E080
:10195000C114D10409F041E0C401B5010E94960A06
:10196000E9CFC091E504D091E60409C040E0C1147C
:10197000D10409F041E0C401B5010E94960A8091AA
:10198000E5049091E6048C1B9D0B8E159F0574F366
:10199000DF91CF910F91FF90EF90DF90CF90BF90AC
:1019A000AF909F908F9008958130910511F484E459
:1019B0000AC0009711F485E406C0029719F020E0F0
:1019C00030E004C083E40E94C91F9C01C90108954E
:1019D0000F93CF93DF9381E08093FA068AE10E9410
:1019E000C321892B31F48BE10E94C321892B09F497
:1019F0003EC182E090E064E670E041E00E94960A19
:101A0000EDCF80E090E063E270E041E00E94960A52
:101A100081E090E061E470E041E00E94960A8AE192
:101A20000E94C321892B09F03FC08BE10E94C32192
:101A3000892BD1F582E090E062E370E040E025E0A0
:101A400030E000E00E94160B82E390E06091FA061D
:101A50004AE550E020E00E94B30A82E090E062E3B1
:101A600070E041E02AE030E00E94160B6091FA0637
:101A700081E0682782E390E04CE350E020E00E94A0
:101A8000B30A8AE10E94C321892B31F48BE10E94C1
:101A9000C321892B09F40BC182E090E062E370E07E
:101AA00041E00E94960AEDCF8091FA0690E00E94F4
:101AB000D40C8C5291400CF4A4CF6091FA0681E0D2
:101AC000682782E390E04CE350E020E00E94B30AF4
:101AD000C0E0D0E009C082E390E060E041E050E087
:101AE00020E00E94B30A219682E090E00E94D40C8C
:101AF0008C52914084F382E090E062E370E040E039
:101B000027E030E000E00E94160B8BEF96E060EAE1
:101B100070E00E94660260ED77E080E090E00E9455
:101B2000011F48E750E04C1B5D0B82E390E060E052
:101B300020E00E94B30A8AE10E94C321892B31F47C
:101B40008BE10E94C321892B09F4D8C082E090E088
:101B500062E370E041E00E94960AEDCF82E090E0FF
:101B600062E370E041E00E94960A8AE10E94C3218C
:101B7000892BB9F48BE10E94C321892B91F482E077
:101B800090E062E370E040E024E030E000E00E949A
:101B9000160B82E390E061E04AE550E020E00E940D
:101BA000B30A0E94180A8823C9F207C081E090E0B6
:101BB00062E370E041E00E94960A85E30E94C3213F
:101BC000892BA1F782E090E062E370E040E02AE038
:101BD00030E000E00E94160B82E390E060E044EB0E
:101BE00050E020E00E94B30A82E090E060E070E004
:101BF00040E00E94960A8BEF96E064E170E00E945C
:101C0000660260ED77E080E090E00E94011F82E0D4
:101C100090E062E370E040E029E130E00E94160BC2
:101C200082E090E062E370E041E02AE030E00E9470
:101C3000160B82E090E060E070E040E00E94960ABF
:101C400060E47FE180E090E00E94011F82E090E08C
:101C500060E070E040E00E94960A68E273E280E093
:101C600090E00E94011FDF91CF910F91089582E0D3
:101C700090E062E370E040E025E030E000E00E94A8
:101C8000160B82E390E061E04AE550E020E00E941C
:101C9000B30A82E090E062E370E040E00E94960ABE
:101CA00060ED77E080E090E00E94011FFDCE82E0D1
:101CB00090E062E370E040E025E030E000E00E9468
:101CC000160B82E390E06091FA0644EB50E020E0CE
:101CD0000E94B30A82E090E062E370E040E00E947C
:101CE000960A68EB7BE080E090E00E94011F809103
:101CF000FA0691E089278093FA06D6CE82E090E03A
:101D000062E370E040E024E030E000E00E94160B67
:101D100082E390E061E046E550E040CFCF92DF9271
:101D2000FF920F931F93CF93DF93609120027091E6
:101D300021028DE399E04AE050E00E94CB2B6091B4
:101D4000E5047091E6048091F8069091F906681B0D
:101D5000790B8DE399E04AE050E00E94DE2B86E1AA
:101D60000E94C321892B81F087E10E94C321892B26
:101D700059F088E10E94C321892B31F089E10E944A
:101D8000C321892B09F03BC282E090E090932102AD
:101D9000809320022DC086E10E94C321892B41F14E
:101DA00087E10E94C321892B19F188E10E94C32198
:101DB000892BF1F089E10E94C321892BC9F084E3CA
:101DC0000E94C321892BA1F08091200290912102D1
:101DD000029771F483E090E09093210280932002B7
:101DE0008091E5049091E6049093F9068093F806BB
:101DF00040912002509121024330510509F006C262
:101E00008091E5049091E6042091F8063091F9065E
:101E1000821B930B895E93400CF4F8C10E94E80C7E
:101E2000BEC08091E5049091E6042091F8063091BF
:101E3000F906821B930B4A970CF4B1C0413051054F
:101E400009F052C083E090E0909321028093200239
:101E50008091E5049091E6049093F9068093F8064A
:101E60000E94180A8093F7068091E5049091E60499
:101E70002091F8063091F906821B930B8639910563
:101E80000CF0C9C18091F706882309F0C4C182E330
:101E900090E060E00E947E0A82E390E061E00E94B0
:101EA000660ADECF8091E5049091E6042091F80661
:101EB0003091F906821B930B863991050CF067C0AF
:101EC0008091F706882309F062C082E390E061E028
:101ED0000E947E0A82E390E060E00E94660A0E940F
:101EE000180A8093F706DECF452B09F050C083E037
:101EF00090E090932102809320028091E5049091DC
:101F0000E6049093F9068093F8060E94180A8093DD
:101F1000F7068091E5049091E6042091F80630914F
:101F2000F906821B930B863991050CF07DC18091D7
:101F3000F706882309F078C182E390E061E00E940F
:101F40007E0A82E390E060E00E94660ADECF809124
:101F5000E5049091E6042091F8063091F906821B81
:101F6000930B863991059CF48091F706882379F4C8
:101F700082E390E060E00E947E0A82E390E061E00C
:101F80000E94660A0E94180A8093F706E0CF8091AB
:101F9000E5049091E6049093F9068093F80684E3B3
:101FA0000E94C321892B21F585E30E94C321892B3F
:101FB00031F086E10E94C321892B09F03EC185E002
:101FC00060E00E94902184E06BE970E00E94FD1FB8
:101FD00087E061E00E94902186E06FEF70E00E9450
:101FE000FD1F81E090E090932102809320021BC0AE
:101FF00085E30E94C321892BF9F485E061E00E940A
:10200000902184E06FEF70E00E94FD1F87E060E0A8
:102010000E94902186E06FEF70E00E94FD1F1092F9
:102020002102109220028091E5049091E6049093A1
:10203000F9068093F80609C11092E2041092E104B7
:102040001092E4041092E304C2E2D2E086E1F82E9A
:10205000C090E104D090E204088119818F2D0E9484
:10206000C32120E030E0892B11F421E030E0209FF3
:10207000C001219F900D309F900D11248C0D9D1D4E
:102080009093E2048093E104C090E304D090E404D0
:10209000088519858F2D0E94C32120E030E0892B0F
:1020A00011F421E030E0209FA001219F500D309FCE
:1020B000500D11244C0D5D1D5093E4044093E30436
:1020C0002296F3948AE1F81619F68091E104909132
:1020D000E204853691051CF084E690E005C08C5939
:1020E0009F4F34F48CE99FEF9093E2048093E104D6
:1020F000453651051CF084E690E005C04C595F4F11
:1021000034F48CE99FEF9093E4048093E30480918E
:10211000E1049091E2042091E3043091E4048217F9
:10212000930789F485E061E00E94902184E06BE9E7
:1021300070E00E94FD1F87E061E00E94902186E030
:102140006BE970E059C0181619065CF485E061E08F
:102150000E9490216091E1047091E20465567F4FE6
:102160000EC0892B71F085E060E00E9490216BE940
:1021700070E08091E1049091E204681B790B84E0A7
:102180000AC0632F661F6627661F85E00E949021A4
:1021900084E06AE070E00E94FD1F8091E30490916A
:1021A000E404181619065CF487E061E00E949021AF
:1021B0006091E3047091E40465567F4F0EC0892B53
:1021C00071F087E060E00E9490216BE970E08091FF
:1021D000E3049091E404681B790B86E00DC060E095
:1021E0008091E1049091E20497FD61E087E00E9414
:1021F000902186E06AE070E00E94FD1F26C085E322
:102200000E94C321892B09F4F3CDC5CD423051057D
:1022100008F0C5CE06CE8091E5049091E604909337
:10222000F9068093F8063ECE8091E5049091E6048D
:102230009093F9068093F8068ACE85E060E00E94CC
:10224000902184E06FEF70E0C1CEDF91CF911F91BC
:102250000F91FF90DF90CF900895FF920F931F93FF
:10226000CF93DF93182F062FEA01F22E60E00E9431
:102270009021812F61E00E949021802F60E020E476
:1022800032E44FE050E00E94F32181E0888383EC48
:102290006135780708F01882FF2029F4CB0162E34A
:1022A00070E00E948E39CB01DF91CF911F910F9189
:1022B000FF900895AF92BF92DF92EF92FF920F933B
:1022C0001F93DF93CF930F920F92CDB7DEB78AE1C2
:1022D0000E94C321892B31F08BE10E94C321892BFD
:1022E00009F03DC182E090E062E370E041E00E94CD
:1022F000960A66E970E080E090E00E94011F8AE1A2
:102300000E94C321892B09F005C18BE10E94C321E2
:10231000892B09F4FFC082E090E062E370E040E0C6
:102320002AE030E000E00E94160B82E390E060E0DB
:1023300013C08BE10E94C321892B09F0F1C082E018
:1023400090E062E370E040E02AE030E000E00E94CC
:10235000160B82E390E061E044E150E021E00E944E
:10236000B30A8091F8069091F90688509D4F90939A
:10237000F9068093F806F3C08BE10E94C321892BF4
:1023800009F0EDC082E090E060E070E040E00E9483
:10239000960A4091E9045091EA0487E268E221E05C
:1023A0000E942D119A8389834091E9045091EA0497
:1023B00085E266E221E00E942D1110E029813A8138
:1023C0008217930708F411E082E090E062E370E086
:1023D00040E024E030E000E00E94160B82E390E051
:1023E000612F47E350E020E00E94B30AE090E5044B
:1023F000F090E604A090E704B090E804DD24D394C4
:10240000D1266BC08BE10E94C321892BB9F582E0F4
:1024100090E062E370E040E022E030E000E00E9403
:10242000160B82E390E0612F47E050E020E00E942D
:10243000B30A112369F080EA90E0E80EF91E80915A
:10244000E5049091E6048E199F0997FF17C00DC00F
:10245000E0EAF0E0AE0EBF1E8091E7049091E80440
:102460008A199B0997FF0AC005C0E090E504F09027
:10247000E60404C0A090E704B090E8048D2D90E03D
:102480000E94D40C8C52914071F48D2D90E06BE43D
:1024900070E040E00E94960A812F90E064E670E0D0
:1024A00041E00E94960A8D2D90E00E94D40C8C523F
:1024B00091402CF482E090E062E370E00BC08D2D3F
:1024C00090E062E370E040E00E94960A812F90E085
:1024D00064E670E041E00E94960A112339F0809191
:1024E000E5049091E6048E199F0906C08091E704E7
:1024F0009091E8048A199B09843B910524F00E947D
:10250000180A882399F48AE10E94C321892B09F4CF
:102510007ECF78CF8AE10E94C321892B09F009CFB1
:102520008AE10E94C321892BD1F426CF82E090E07A
:1025300060E070E040E00E94960A82E090E062E392
:1025400070E041E02AE030E000E00E94160B82E3F8
:1025500090E0612F4EE150E020E00E94B30A0F901E
:102560000F90CF91DF911F910F91FF90EF90DF902F
:10257000BF90AF9008950E94641F0E9498098DE358
:1025800099E061E070E04AE050E00E94CB2B0E94AD
:102590008E0E0E945A11FBCFEF92FF920F931F9362
:1025A0008C012DE3E22E29E0F22E612F772767FDC3
:1025B0007A95C7010E943F27C701602F0E943F27DD
:1025C000C7010E94102A1F910F91FF90EF9008956C
:1025D000EF92FF920F931F937B018C0120E030E07C
:1025E00040E05FE40E94941688238CF0C801B70194
:1025F00020E030E040E05FE40E9460140E94AD17EC
:102600009B01AC01205030404040504806C0C801FA
:10261000B7010E94AD179B01AC01B901CA011F911E
:102620000F91FF90EF900895A0E0B0E0EAE1F3E1B0
:102630000C94F239DC012B01FA019C91923008F4E0
:1026400039C1EB018881823008F433C1943069F4D8
:10265000843009F02FC111969C91119789819817A8
:1026600009F428C1A1E4B2E025C1843009F421C1F4
:102670008230A9F4923009F01DC19A01AD0188E0C1
:10268000EA010990AE01E90109929E018150C1F76A
:10269000E201898111969C918923818308C192303E
:1026A00009F407C112962D903C901397EB018A8193
:1026B0009B811496AD90BD90CD90DC901797EC80E7
:1026C000FD800E811F819101281B390BB90137FF55
:1026D00004C066277727621B730B603271050CF00C
:1026E00061C0121613066CF537014801062E04C0AE
:1026F00096948794779467940A94D2F721E030E017
:1027000040E050E004C0220F331F441F551F6A955C
:10271000D2F721503040404050402E213F214023ED
:102720005123211531054105510521F021E030E00B
:1027300040E050E079018A01E628F72808291929A4
:102740003CC0232BD1F1260E371E35014601062E43
:1027500004C096948794779467940A94D2F721E002
:1027600030E040E050E004C0220F331F441F551FEB
:102770006A95D2F721503040404050402A213B21F9
:102780004C215D21211531054105510521F021E044
:1027900030E040E050E059016A01A628B728C82877
:1027A000D9280BC0821593052CF01C01AA24BB2448
:1027B000650103C0EE24FF24870111969C91D2018C
:1027C00011968C91981709F445C0992339F0A80106
:1027D00097012A193B094C095D0906C0A60195011C
:1027E0002E193F09400B510B57FD08C0118233824F
:1027F000228224833583468357831DC081E08183F1
:102800003382228288279927DC01821B930BA40B39
:10281000B50B84839583A683B7830DC0220F331F26
:10282000441F551F248335834683578382819381B8
:102830000197938382832481358146815781DA0110
:10284000C9010197A109B1098F5F9F4FAF4FBF43E6
:1028500028F30BC0918333822282EA0CFB1C0C1DEF
:102860001D1DE482F5820683178383E08083248123
:1028700035814681578157FF1AC0C901AA2797FDA4
:10288000A095BA2F81709070A070B0705695479542
:1028900037952795822B932BA42BB52B8483958377
:1028A000A683B78382819381019693838283DF011C
:1028B00001C0D201CD01CDB7DEB7E2E10C940E3AF2
:1028C000A0E2B0E0E6E6F4E10C94FE3969837A8395
:1028D0008B839C832D833E834F835887E9E0EE2EC4
:1028E000F12CEC0EFD1ECE010196B7010E949E193F
:1028F0008E010F5E1F4FCE010596B8010E949E19F2
:102900008A8991E089278A8BC701B801AE01475EA9
:102910005F4F0E9414130E94C918A096E6E00C9421
:102920001A3AA0E2B0E0E7E9F4E10C94FE396983D9
:102930007A838B839C832D833E834F835887F9E072
:10294000EF2EF12CEC0EFD1ECE010196B7010E9478
:102950009E198E010F5E1F4FCE010596B8010E9491
:102960009E19C701B801AE01475E5F4F0E94141364
:102970000E94C918A096E6E00C941A3AA0E2B0E0D2
:10298000E4ECF4E10C94F23969837A838B839C83C1
:102990002D833E834F835887CE010196BE01675F2A
:1029A0007F4F0E949E19CE010596BE016F5E7F4F3C
:1029B0000E949E199985923088F089898230C8F0EA
:1029C000943019F4823051F404C0843029F49230E8
:1029D00081F481E492E0C6C0923049F420E09A8507
:1029E0008A89981321E02A87CE010996BBC08230DC
:1029F00049F420E09A858A89981321E02A8BCE0138
:102A00004196B0C02D843E844F8458886D887E885E
:102A10008F88988CEE24FF248701AA24BB246501AB
:102A200040E050E060E070E0E0E0F0E0C101817083
:102A30009070892BE9F0E60CF71C081D191D9A010E
:102A4000AB012A0D3B1D4C1D5D1D80E090E0A0E018
:102A5000B0E0E614F7040805190520F481E090E0E1
:102A6000A0E0B0E0BA01A901480F591F6A1F7B1FFF
:102A7000AA0CBB1CCC1CDD1C97FE08C081E090E0BA
:102A8000A0E0B0E0A82AB92ACA2ADB2A3196E032AF
:102A9000F10549F0660C771C881C991C56944794E4
:102AA00037942794C3CFFA85EA892B893C898B8593
:102AB0009C85280F391F2E5F3F4F17C0CA018170B8
:102AC0009070892B61F016950795F794E79480E054
:102AD00090E0A0E0B0E8E82AF92A0A2B1B2B7695B3
:102AE0006795579547952F5F3F4F77FDE7CF0CC010
:102AF000440F551F661F771F17FD4160EE0CFF1C2A
:102B0000001F111F21503040403090E0590790E0E5
:102B1000690790E4790760F32B8F3C8FDB01CA01D2
:102B20008F779070A070B07080349105A105B105C9
:102B300061F447FD0AC0E114F1040105110529F013
:102B4000405C5F4F6F4F7F4F40781A8EFE1711F039
:102B500081E08A8F4D8F5E8F6F8F78A383E0898F9E
:102B6000CE0149960E94C918A096E2E10C940E3A53
:102B7000A8E1B0E0EEEBF5E10C94FA3969837A83D1
:102B80008B839C832D833E834F835887B9E0EB2E44
:102B9000F12CEC0EFD1ECE010196B7010E949E198C
:102BA0008E010F5E1F4FCE010596B8010E949E193F
:102BB0002985223008F47EC03989323010F4B801FA
:102BC0007CC08A859A8989278A87243011F022302F
:102BD00031F4231709F06EC061E472E06EC0343046
:102BE00039F41D861E861F86188A1C861B8604C023
:102BF000323021F484E08987B7015FC02B853C85A2
:102C00008B899C89281B390B3C872B87ED84FE849C
:102C10000F851889AD88BE88CF88D88CEA14FB044C
:102C20000C051D0540F4EE0CFF1C001F111F215068
:102C300030403C872B8720E030E040E050E080E0EF
:102C400090E0A0E0B0E460E070E0EA14FB040C0562
:102C50001D0540F0282B392B4A2B5B2BEA18FB086B
:102C60000C091D09B695A79597958795EE0CFF1C45
:102C7000001F111F6F5F7F4F6F31710531F7DA0150
:102C8000C9018F779070A070B07080349105A10554
:102C9000B10561F427FD0AC0E114F1040105110535
:102CA00029F0205C3F4F4F4F5F4F20782D873E87A4
:102CB0004F87588BBE01675F7F4FCB010E94C918B9
:102CC0006896EAE00C94163AA8E1B0E0EAE6F6E18C
:102CD0000C94FE3969837A838B839C832D833E8396
:102CE0004F83588789E0E82EF12CEC0EFD1ECE01B3
:102CF0000196B7010E949E198E010F5E1F4FCE01F3
:102D00000596B8010E949E198985823040F0898914
:102D1000823028F0C701B8010E94161A01C08FEF57
:102D20006896E6E00C941A3AA8E1B0E0EAE9F6E128
:102D30000C94FE3969837A838B839C832D833E8335
:102D40004F83588789E0E82EF12CEC0EFD1ECE0152
:102D50000196B7010E949E198E010F5E1F4FCE0192
:102D60000596B8010E949E198985823040F08989B4
:102D7000823028F0C701B8010E94161A01C08FEFF7
:102D80006896E6E00C941A3AA8E1B0E0EAECF6E1C5
:102D90000C94FE3969837A838B839C832D833E83D5
:102DA0004F83588789E0E82EF12CEC0EFD1ECE01F2
:102DB0000196B7010E949E198E010F5E1F4FCE0132
:102DC0000596B8010E949E198985823040F0898954
:102DD000823028F0C701B8010E94161A01C081E0B4
:102DE0006896E6E00C941A3AA8E1B0E0EAEFF6E162
:102DF0000C94FE3969837A838B839C832D833E8375
:102E00004F83588789E0E82EF12CEC0EFD1ECE0191
:102E10000196B7010E949E198E010F5E1F4FCE01D1
:102E20000596B8010E949E198985823040F08989F3
:102E3000823028F0C701B8010E94161A01C081E053
:102E40006896E6E00C941A3AA8E1B0E0EAE2F7E10D
:102E50000C94023A69837A838B839C832D833E830F
:102E60004F835887CE010196BE01675F7F4F0E9456
:102E70009E19CE010596BE016F5E7F4F0E949E197E
:102E80008985823028F020E030E08989823010F492
:102E900021E030E0822F6896E2E00C941E3AA8E030
:102EA000B0E0E5E5F7E10C94FB399B01AC0183E070
:102EB0008983DA01C9018827B7FD83959927AA2755
:102EC000BB27B82E211531054105510519F482E0C3
:102ED00089833AC08823A9F0203080E0380780E059
:102EE000480780E8580729F460E070E080E09FEC34
:102EF00030C0EE24FF248701E21AF30A040B150BFD
:102F000002C079018A018EE1C82ED12CDC82CB82ED
:102F1000ED82FE820F831887C801B7010E947A18DC
:102F200001971816190684F4082E04C0EE0CFF1C35
:102F3000001F111F0A94D2F7ED82FE820F831887BB
:102F4000C81AD90ADC82CB82BA82CE0101960E94CD
:102F5000C9182896E9E00C94173AACE0B0E0E3EB2E
:102F6000F7E10C94023A69837A838B839C83CE01C8
:102F70000196BE016B5F7F4F0E949E198D8182304A
:102F800061F1823050F1843021F48E81882351F137
:102F90002EC02F81388537FD20C06E812F3131053D
:102FA0001CF06623F9F023C08EE190E0821B930BA6
:102FB00029853A854B855C8504C05695479537959C
:102FC00027958A95D2F76623B1F0509540953095B4
:102FD00021953F4F4F4F5F4F0EC020E030E040E063
:102FE00050E009C02FEF3FEF4FEF5FE704C020E054
:102FF00030E040E050E8B901CA012C96E2E00C94C0
:103000001E3AA8E0B0E0E7E0F8E10C94FA397B0161
:103010008C01611571058105910519F482E08983A0
:1030200060C083E089838EE1C82ED12CDC82CB8204
:10303000ED82FE820F831887C801B7010E947A18BB
:10304000FC013197F7FF3BC0222733272E1B3F0B94
:1030500057016801022E04C0D694C794B794A79470
:103060000A94D2F740E050E060E070E081E090E048
:10307000A0E0B0E004C0880F991FAA1FBB1F2A95CB
:10308000D2F70197A109B1098E219F21A023B12375
:103090000097A105B10521F041E050E060E070E04B
:1030A0004A295B296C297D294D835E836F8378874C
:1030B0008EE190E08E1B9F0B9C838B8312C0309718
:1030C00081F00E2E04C0EE0CFF1C001F111F0A948D
:1030D000D2F7ED82FE820F831887CE1ADF0ADC82D8
:1030E000CB821A82CE0101960E94C9182896EAE086
:1030F0000C94163AEF92FF920F931F937B018C0171
:1031000080E0E81680E0F80681E0080780E0180714
:1031100088F48FEFE816F1040105110531F028F06D
:1031200088E090E0A0E0B0E017C080E090E0A0E090
:10313000B0E012C080E0E81680E0F80680E0080702
:1031400081E0180728F088E190E0A0E0B0E004C03A
:1031500080E190E0A0E0B0E020E230E040E050E02C
:10316000281B390B4A0B5B0B04C016950795F79487
:10317000E7948A95D2F7F701E75BFD4F8081281B22
:10318000310941095109C9011F910F91FF90EF9039
:103190000895DF92EF92FF920F931F93FC01E4805A
:1031A000F58006811781D1808081823048F480E0EB
:1031B00090E0A0E1B0E0E82AF92A0A2B1B2BA5C079
:1031C000843009F49FC0823021F4EE24FF2487016B
:1031D00005C0E114F1040105110519F4E0E0F0E087
:1031E00096C0628173819FEF623879070CF05BC0F3
:1031F00022E83FEF261B370B2A3131052CF020E067
:1032000030E040E050E02AC0B801A701022E04C01F
:1032100076956795579547950A94D2F781E090E0A7
:10322000A0E0B0E004C0880F991FAA1FBB1F2A9519
:10323000D2F70197A109B1098E219F21A023B123C3
:103240000097A105B10521F081E090E0A0E0B0E099
:103250009A01AB01282B392B4A2B5B2BDA01C901D0
:103260008F779070A070B07080349105A105B10582
:1032700039F427FF09C0205C3F4F4F4F5F4F04C018
:10328000215C3F4F4F4F5F4FE0E0F0E02030A0E087
:103290003A07A0E04A07A0E45A0710F0E1E0F0E0A6
:1032A00079018A0127C06038710564F5FB01E15896
:1032B000FF4FD801C7018F779070A070B070803435
:1032C0009105A105B10539F4E7FE0DC080E490E059
:1032D000A0E0B0E004C08FE390E0A0E0B0E0E80E32
:1032E000F91E0A1F1B1F17FF05C016950795F794B7
:1032F000E794319687E016950795F794E7948A95B9
:10330000D1F705C0EE24FF248701EFEFF0E06E2F28
:10331000679566276795902F9F77D794DD24D7947C
:103320008E2F8695492F462B582F5D29B701CA014C
:103330001F910F91FF90EF90DF900895FC01DB014A
:10334000408151812281622F6F7770E0221F2227F6
:10335000221F9381892F880F822B282F30E0991FFD
:103360009927991F11969C93119721153105A9F55D
:10337000411551056105710511F482E037C082E8FD
:103380009FEF13969C938E9312979A01AB0167E07F
:10339000220F331F441F551F6A95D1F783E08C938A
:1033A0000DC0220F331F441F551F12968D919C9103
:1033B0001397019713969C938E931297203080E079
:1033C000380780E0480780E4580758F314962D9397
:1033D0003D934D935C93179708952F3F310579F4F2
:1033E000411551056105710519F484E08C93089528
:1033F00064FF03C081E08C9312C01C9210C02F5751
:10340000304013963C932E93129783E08C9387E081
:10341000440F551F661F771F8A95D1F77064149665
:103420004D935D936D937C93179708951F93DC01E3
:10343000FB019C91923008F447C08081823008F4EF
:1034400043C0943051F411961C91843099F58181D8
:10345000682F70E0611B71093FC0843021F0923009
:1034600031F48230B9F18181882389F12DC0119620
:103470001C9111978230F1F081811817D9F41296BE
:103480002D913C911397828193818217930794F039
:1034900028173907BCF014968D919D910D90BC9121
:1034A000A02D2481358146815781281739074A0785
:1034B0005B0718F4112341F00AC082179307A40791
:1034C000B50740F4112319F061E070E005C06FEF1B
:1034D0007FEF02C060E070E0CB011F910895A0E093
:1034E000B0E0E4E7FAE186CFC82FD92FA880B980F1
:1034F000CA80DB80A114B104C104D10441F484E288
:10350000A82E89EDB82E8BE5C82E87E0D82E9D2DEC
:103510008C2D7B2D6A2D2DE133EF41E050E047DF0C
:1035200027EA31E440E050E0CEDEE62EF72E082F09
:10353000192F9D2D8C2D7B2D6A2D2DE133EF41E030
:1035400050E035DF952F842F732F622F2CEE34EF50
:103550004FEF5FEFB8DE6E0D7F1D801F911F97FF4D
:1035600004C06150704080409048688379838A83AA
:103570009B83262F372F482F592F5F77622F732F6A
:10358000842F952FCDB7DEB7EAE050CFA8DF08959E
:1035900089E493E0A4DF08956093490370934A039C
:1035A00080934B0390934C0308951F93E82FF92FBA
:1035B00099278827682F792FE89411911032E9F321
:1035C000193010F01E30C8F31B3249F01D3241F49F
:1035D000689405C005D1610F711D811D911D119168
:1035E00010531A30B8F33EF490958095709561951C
:1035F0007F4F8F4F9F4F1F910895E62FF72FA82FD2
:10360000B92F04C08D910190801921F44150504090
:10361000C8F7881B990B0895E62FF72FA82FB92F0D
:1036200002C001900D9241505040D8F7089568179C
:10363000790778F4E62FF72FA82FB92FE40FF51F9D
:10364000A40FB51F02C002900E9241505040D8F70F
:103650000895E2CFE82FF92F8191861721F0882372
:10366000D9F79927089531978E2F9F2F0895E62F28
:10367000F72FA82FB92F8D91019080190110D9F340
:10368000990B0895E62FF72FA82FB92F01900D92CF
:103690000020E1F70895E62FF72FA82FB92F41500A
:1036A000504030F08D910190801919F40020B9F745
:1036B000881B990B0895E62FF72FA82FB92F41509B
:1036C000504048F001900D920020C9F701C01D92B2
:1036D00041505040E0F70895E82FF92F81E090E045
:1036E0000190061611F48E2F9F2F0020C9F7019725
:1036F0000895E62FF72F51915523C9F06E2F7F2F94
:10370000A82FB92F4D9145174111E1F769F48A2F80
:103710009B2F0190002051F04D9140154111C9F3AC
:10372000E62FF72F4111ECCF81E090E0019708954B
:10373000E62FF72F2E2F3F2FE8944230C4F045326A
:10374000B4F44A3029F497FB1EF4909581959F4F6D
:10375000642F7727E3DD805D8A330CF0895D8193E8
:10376000862F972F0097A1F716F45DE251931082F0
:10377000822F932F88C0E42FF52FCF93FF93EF93E1
:1037800022304CF125323CF5C22FE894CA3049F47E
:1037900097FB3EF490958095709561957F4F8F4F84
:1037A0009F4F2C2F332744275527FF93EF93DDDDC1
:1037B000EF91FF91605D6A330CF0695D6193622F58
:1037C000732F842F952F605070408040904049F7B0
:1037D00016F4CDE2C19310828F919F91CF9153C087
:1037E000592F482F372F262F660F771F881F991FB5
:1037F000660F771F881F991F620F731F841F951F05
:10380000660F771F881F991F0895E42FF52FCF9318
:10381000FF93EF932230D4F02532C4F4C22F2C2F23
:10382000332744275527FF93EF939FDDEF91FF91B7
:10383000605D6A330CF0695D6193622F732F842F92
:10384000952F605070408040904049F710828F91D2
:103850009F91CF9118C0E62FF72F2E2F3F2F423088
:1038600074F0453264F4642F772758DD805D8A3325
:103870000CF0895D8193862F972F0097A1F7108216
:10388000822F932F00C0A82FB92FE82FF92F672F71
:1038900071917723E1F7329704C07C916D93708327
:1038A0006291AE17BF07C8F30895883008F078C05A
:1038B000E82FF0E0EE0FFF1FEC5FF84F718360839D
:1038C0008330D9F0843030F4813009F444C0823040
:1038D00060F439C0853051F18530D8F0863009F474
:1038E00046C0873009F05CC04FC0809169008C7F72
:1038F000842B80936900E89A089580916900440FB1
:10390000551F440F551F837F842B80936900E99ACC
:1039100008958091690074E0440F551F7A95E1F78E
:103920008F7C842B80936900EA9A089580916900C6
:1039300066E0440F551F6A95E1F78F73842B8093DF
:103940006900EB9A089580916A008C7F842B8093A4
:103950006A00EC9A089580916A00440F551F440F45
:10396000551F837F842B80936A00ED9A0895809180
:103970006A0024E0440F551F2A95E1F78F7C842BC1
:1039800080936A00EE9A089580916A0096E0440F51
:10399000551F9A95E1F78F73842B80936A00EF9AF5
:1039A0000895883048F5833091F0843028F48130D0
:1039B000B1F0823050F411C0853069F0853048F0A4
:1039C000863079F0873081F40EC0E8980DC0E99810
:1039D0000BC0EA9809C0EB9807C0EC9805C0ED98B9
:1039E00003C0EE9801C0EF98E82FF0E0EE0FFF1F44
:1039F000EC5FF84F1182108208951F920F920FB65C
:103A00000F920BB60F9211242F933F934F935F9316
:103A10006F937F938F939F93AF93BF93EF93FF9396
:103A20008091080790910907892B29F0E0910807F8
:103A3000F09109071995FF91EF91BF91AF919F9177
:103A40008F917F916F915F914F913F912F910F9047
:103A50000BBE0F900FBE0F901F9018951F920F92E4
:103A60000FB60F920BB60F9211242F933F934F93E3
:103A70005F936F937F938F939F93AF93BF93EF93D6
:103A8000FF9380910A0790910B07892B29F0E09111
:103A90000A07F0910B071995FF91EF91BF91AF9134
:103AA0009F918F917F916F915F914F913F912F9156
:103AB0000F900BBE0F900FBE0F901F9018951F9286
:103AC0000F920FB60F920BB60F9211242F933F93C4
:103AD0004F935F936F937F938F939F93AF93BF9316
:103AE000EF93FF9380910C0790910D07892B29F09C
:103AF000E0910C07F0910D071995FF91EF91BF919F
:103B0000AF919F918F917F916F915F914F913F9175
:103B10002F910F900BBE0F900FBE0F901F90189516
:103B20001F920F920FB60F920BB60F9211242F9384
:103B30003F934F935F936F937F938F939F93AF9335
:103B4000BF93EF93FF9380910E0790910F07892BFE
:103B500029F0E0910E07F0910F071995FF91EF9171
:103B6000BF91AF919F918F917F916F915F914F9195
:103B70003F912F910F900BBE0F900FBE0F901F9093
:103B800018951F920F920FB60F920BB60F92112439
:103B90002F933F934F935F936F937F938F939F9355
:103BA000AF93BF93EF93FF93809104079091050724
:103BB000892B29F0E0910407F09105071995FF91F1
:103BC000EF91BF91AF919F918F917F916F915F9195
:103BD0004F913F912F910F900BBE0F900FBE0F9002
:103BE0001F9018951F920F920FB60F920BB60F925F
:103BF00011242F933F934F935F936F937F938F93F2
:103C00009F93AF93BF93EF93FF938091060790919B
:103C10000707892B29F0E0910607F091070719950E
:103C2000FF91EF91BF91AF919F918F917F916F9194
:103C30005F914F913F912F910F900BBE0F900FBE50
:103C40000F901F9018951F920F920FB60F920BB600
:103C50000F9211242F933F934F935F936F937F9312
:103C60008F939F93AF93BF93EF93FF938091100730
:103C700090911107892B29F0E0911007F09111071D
:103C80001995FF91EF91BF91AF919F918F917F9186
:103C90006F915F914F913F912F910F900BBE0F90BD
:103CA0000FBE0F901F9018951F920F920FB60F9294
:103CB0000BB60F9211242F933F934F935F936F9303
:103CC0007F938F939F93AF93BF93EF93FF938091D5
:103CD000120790911307892B29F0E0911207F091B8
:103CE00013071995FF91EF91BF91AF919F918F911C
:103CF0007F916F915F914F913F912F910F900BBEEC
:103D00000F900FBE0F901F9018951F920F920FB635
:103D10000F9211242F933F938F939F93AF93BF9351
:103D20008091180790911907A0911A07B0911B076D
:103D300030911C070196A11DB11D232F2D5F2D373A
:103D400020F02D570196A11DB11D20931C078093D3
:103D5000180790931907A0931A07B0931B07809137
:103D6000140790911507A0911607B09117070196B7
:103D7000A11DB11D8093140790931507A0931607FA
:103D8000B0931707BF91AF919F918F913F912F9162
:103D90000F900FBE0F901F9018958FB7F894209139
:103DA00018073091190740911A0750911B078FBFD0
:103DB000B901CA0108959FB7F89420911407309172
:103DC0001507409116075091170786B5A89B06C0A6
:103DD0008F3F21F02F5F3F4F4F4F5F4F9FBF542FBB
:103DE000432F322F2227280F311D411D511D82E004
:103DF000220F331F441F551F8A95D1F7B901CA01FD
:103E000008959B01AC017FB7F894809114079091BD
:103E10001507A0911607B091170766B5A89B05C0B6
:103E20006F3F19F00196A11DB11D7FBFBA2FA92FB9
:103E3000982F8827860F911DA11DB11D62E0880F64
:103E4000991FAA1FBB1F6A95D1F7BC012DC0FFB7F0
:103E5000F8948091140790911507A0911607B091DE
:103E60001707E6B5A89B05C0EF3F19F00196A11D05
:103E7000B11DFFBFBA2FA92F982F88278E0F911D34
:103E8000A11DB11DE2E0880F991FAA1FBB1FEA9573
:103E9000D1F7861B970B885E9340C8F221503040C3
:103EA0004040504068517C4F211531054105510576
:103EB00071F60895019739F0880F991F880F991F9F
:103EC00002970197F1F70895789484B5826084BDD4
:103ED00084B5816084BD85B5826085BD85B581600E
:103EE00085BDEEE6F0E0808181608083E1E8F0E06E
:103EF0001082808182608083808181608083E0E89D
:103F0000F0E0808181608083E1EBF0E0808184607B
:103F10008083E0EBF0E0808181608083E1E9F0E084
:103F2000808182608083808181608083E0E9F0E02D
:103F3000808181608083E1EAF0E08081826080831B
:103F4000808181608083E0EAF0E08081816080830D
:103F5000E1E2F1E080818260808380818160808302
:103F6000E0E2F1E0808181608083EAE7F0E0808137
:103F7000846080838081826080838081816080838F
:103F80008081806880831092C100089580934D03E2
:103F90000895382F863308F0365320917B00832F05
:103FA00086958695869590E08170907043E0880FA5
:103FB000991F4A95E1F7277F282B20937B003770C4
:103FC00080914D038295880F880F807C832B80938E
:103FD0007C0080917A00806480937A0080917A00DE
:103FE00086FDFCCF2091780040917900942F80E0ED
:103FF00030E0282B392BC90108951F93CF93DF930D
:10400000182FEB0161E00E94DD20209709F4CAC05F
:10401000CF3FD10509F4C9C0E12FF0E0E254FE4FD3
:104020008491893009F466C08A30B0F48430F1F1AB
:10403000853040F4823059F1833070F5813009F0D9
:10404000AEC020C0873009F443C0883008F048C0B3
:10405000863009F0A4C034C08D3009F478C08E30A9
:1040600038F48B3009F45AC08C3008F066C04CC06C
:10407000803109F480C0813109F487C08F3009F0A4
:104080008EC06FC084B5806884BDC7BD92C084B542
:10409000806284BDC8BD8DC080918000806880939F
:1040A0008000D0938900C093880083C080918000F5
:1040B000806280938000D0938B00C0938A0079C087
:1040C0008091B00080688093B000C093B30071C04D
:1040D0008091B00080628093B000C093B40069C04A
:1040E00080919000806880939000D0939900C09355
:1040F00098005FC080919000806280939000D09380
:104100009B00C0939A0055C0809190008860809376
:104110009000D0939D00C0939C004BC08091A00064
:1041200080688093A0008091A0008F7B8093A00086
:10413000D093A900C093A8003CC08091A0008062E9
:104140008093A000D093AB00C093AA0032C08091AE
:10415000A00088608093A000D093AD00C093AC0015
:1041600028C080912001806880932001D09329018C
:10417000C09328011EC0809120018062809320019D
:10418000D0932B01C0932A0114C080912001886034
:1041900080932001D0932D01C0932C010AC0C03818
:1041A000D1051CF4812F60E002C0812F61E00E94E4
:1041B0009021DF91CF911F910895CF93DF93482FE6
:1041C00050E0CA0188589E4FFC0134914E5C5E4F0E
:1041D000FA018491882369F190E0880F991FFC010E
:1041E000EC51FF4FA591B491FC01E250FF4FC591F6
:1041F000D491662351F42FB7F8948C91932F909516
:1042000089238C93888189230BC0623061F42FB796
:10421000F8948C91932F909589238C938881832B8C
:1042200088832FBF06C09FB7F8948C91832B8C9303
:104230009FBFDF91CF910895893009F449C08A303A
:10424000A0F4843051F1853040F4823079F183302C
:1042500000F5813009F063C026C0873079F18830DD
:1042600098F5863009F05BC025C08D3009F442C056
:104270008E3028F48B30B1F18C30C0F52DC08031F8
:1042800009F442C0813109F445C08F3009F047C0BC
:1042900037C0809180008F7703C0809180008F7D30
:1042A00080938000089584B58F7702C084B58F7D98
:1042B00084BD08958091B0008F7703C08091B000D5
:1042C0008F7D8093B0000895809190008F7707C014
:1042D000809190008F7D03C080919000877F8093B4
:1042E000900008958091A0008F7707C08091A00072
:1042F0008F7D03C08091A000877F8093A0000895E8
:10430000809120018F7703C0809120018F7D809361
:104310002001089580912001877F809320010895D6
:10432000FF920F931F93F62E482F50E0CA0182543C
:104330009E4FFC012491CA0188589E4FFC011491A4
:104340004E5C5E4FFA0104910023C9F0222319F05C
:10435000822F0E941C21E02FF0E0EE0FFF1FE250A1
:10436000FF4FA591B4919FB7F894FF2021F48C9151
:104370001095812302C08C91812B8C939FBF1F913C
:104380000F91FF9008950F931F93482F50E0CA019B
:1043900082549E4FFC012491CA0188589E4FFC0113
:1043A00004914E5C5E4FFA011491112319F420E040
:1043B00030E015C0222319F0822F0E941C21812F8A
:1043C00090E0880F991F885E9E4FFC01A591B491E3
:1043D0008C9120E030E0802311F021E030E0C90131
:1043E0001F910F9108958F929F92AF92BF92CF929B
:1043F000DF92EF92FF920F931F93CF93DF93A82F3B
:10440000B0E0CD0188589E4FFC018490AE5CBE4F59
:10441000FD018491662311F4992401C0982C6FEF5B
:10442000A62E6FEFB62E6FEFC62E6FE0D62EA2220D
:10443000B322C422D522682F70E0660F771F685E12
:104440007E4FEE24FF248701FB01A591B4910BC0A0
:10445000EA14FB040C051D0509F44EC00894E11C88
:10446000F11C011D111D8C918821891589F30CC047
:10447000EA14FB040C051D0509F43EC00894E11C78
:10448000F11C011D111D03C0FB01A591B4918C917C
:104490008821891569F720E030E040E050E0FB0119
:1044A000C591D4910FC0DA01C9018E0D9F1DA01FC7
:1044B000B11F8A159B05AC05BD05F1F02F5F3F4F7D
:1044C0004F4F5F4F88818821891569F3CA01B9016F
:1044D00025E130E040E050E00E9463399B01AC01EF
:1044E000205F3F4F4F4F5F4F84E05695479537957C
:1044F00027958A95D1F704C020E030E040E050E0F5
:10450000B901CA01DF91CF911F910F91FF90EF90F8
:10451000DF90CF90BF90AF909F908F9008950895B7
:104520001F920F920FB60F920BB60F9211242F937A
:104530003F934F938F939F93EF93FF938091C0008E
:1045400082FD1DC04091C60020915D0730915E073D
:104550002F5F3F4F2F73307080915F0790916007FE
:104560002817390771F0E0915D07F0915E07E35E6F
:10457000F84F408330935E0720935D0702C080911F
:10458000C600FF91EF919F918F914F913F912F9195
:104590000F900BBE0F900FBE0F901F9018950895AF
:1045A0001F920F920FB60F920BB60F9211242F93FA
:1045B0003F934F938F939F93EF93FF938091C80006
:1045C00082FD1DC04091CE002091E5073091E607A5
:1045D0002F5F3F4F2F7330708091E7079091E8076E
:1045E0002817390771F0E091E507F091E607EB55E0
:1045F000F84F40833093E6072093E50702C080918F
:10460000CE00FF91EF919F918F914F913F912F910C
:104610000F900BBE0F900FBE0F901F90189508952E
:104620001F920F920FB60F920BB60F9211242F9379
:104630003F934F938F939F93EF93FF938091D0007D
:1046400082FD1DC04091D60020916D0830916E080A
:104650002F5F3F4F2F73307080916F0890917008DB
:104660002817390771F0E0916D08F0916E08E35D4D
:10467000F74F408330936E0820936D0802C08091FD
:10468000D600FF91EF919F918F914F913F912F9184
:104690000F900BBE0F900FBE0F901F9018950895AE
:1046A0001F920F920FB60F920BB60F9211242F93F9
:1046B0003F934F938F939F93EF93FF93809130019C
:1046C00082FD1DC0409136012091F5083091F60819
:1046D0002F5F3F4F2F7330708091F7089091F8084B
:1046E0002817390771F0E091F508F091F608EB54BE
:1046F000F74F40833093F6082093F50802C080916D
:104700003601FF91EF919F918F914F913F912F91A2
:104710000F900BBE0F900FBE0F901F901895E09159
:104720004909F0914A09E05CFF4F81919191208104
:104730003181821B930B8F739070892B11F00E9433
:104740008F22E0916B09F0916C09E05CFF4F819141
:10475000919120813181821B930B8F739070892BF3
:1047600011F00E94CF22E0918D09F0918E09E05C5A
:10477000FF4F8191919120813181821B930B8F7327
:104780009070892B11F00E940F23E091AF09F091F6
:10479000B009E05CFF4F8191919120813181821BB2
:1047A000930B8F739070892B11F00E944F23089503
:1047B0001F920F920FB60F920BB60F9211242F93E8
:1047C0003F938F939F93EF93FF932091A107309195
:1047D000A2078091A3079091A4072817390731F405
:1047E0008091C1008F7D8093C10014C0E091A30728
:1047F000F091A407EF59F84F20818091A307909181
:10480000A40701968F7390709093A4078093A307D9
:104810002093C600FF91EF919F918F913F912F912F
:104820000F900BBE0F900FBE0F901F9018951F9208
:104830000F920FB60F920BB60F9211242F933F9346
:104840008F939F93EF93FF932091290830912A082B
:1048500080912B0890912C082817390731F480910A
:10486000C9008F7D8093C90014C0E0912B08F0919E
:104870002C08E751F84F208180912B0890912C084B
:1048800001968F73907090932C0880932B0820933F
:10489000CE00FF91EF919F918F913F912F910F90BB
:1048A0000BBE0F900FBE0F901F9018951F920F9286
:1048B0000FB60F920BB60F9211242F933F938F9345
:1048C0009F93EF93FF932091B1083091B2088091AC
:1048D000B3089091B4082817390731F48091D100BA
:1048E0008F7D8093D10014C0E091B308F091B4089B
:1048F000EF58F74F20818091B3089091B40801964A
:104900008F7390709093B4088093B3082093D6006F
:10491000FF91EF919F918F913F912F910F900BBE3F
:104920000F900FBE0F901F9018951F920F920FB609
:104930000F920BB60F9211242F933F938F939F9357
:10494000EF93FF932091390930913A0980913B0907
:1049500090913C092817390731F4809131018F7DFE
:104960008093310114C0E0913B09F0913C09E7507C
:10497000F74F208180913B0990913C0901968F73FC
:10498000907090933C0980933B0920933601FF91EE
:10499000EF919F918F913F912F910F900BBE0F90B0
:1049A0000FBE0F901F9018958F929F92AF92BF925B
:1049B000CF92DF92EF92FF920F931F93DF93CF93EB
:1049C000CDB7DEB7FC011382128288EE93E0A0E03F
:1049D000B0E084839583A683B78388E593E09183D1
:1049E00080837587648757874687318B208B138B2D
:1049F000028BF58AE48AD78AC68AB18EA08E938EFE
:104A0000828E8889848F8989858F8A89868F8B8910
:104A1000878F8C8980A3CF91DF911F910F91FF9099
:104A2000EF90DF90CF90BF90AF909F908F900895C0
:104A30008F929F92AF92BF92CF92DF92EF92FF92AE
:104A40000F931F93DF93CF93CDB7DEB7FC01138293
:104A5000128288EE93E0A0E0B0E084839583A68381
:104A6000B78388E593E09183808375876487578750
:104A70004687318B208B138B028BF58AE48AD78A89
:104A8000C68AB18EA08E938E828E8889848F898902
:104A9000858F8A89868F8B89878F8C8980A3CF9118
:104AA000DF911F910F91FF90EF90DF90CF90BF901B
:104AB000AF909F908F900895AF92BF92DF92EF9248
:104AC000FF920F931F93CF93DF93EC017A018B0139
:104AD000DD24403081EE580780E0680780E07807E9
:104AE00011F0DD24D39491E0A92EB12CEC89FD893D
:104AF000DD2069F0C50108A002C0880F991F0A9443
:104B0000E2F7808360E079E08DE390E005C01082F9
:104B100060E874E88EE190E0A80197010E94B53941
:104B20002150304040405040569547953795279545
:104B300080E12030380720F0DD2011F0DD24D6CFD1
:104B4000E889F9893083EA89FB89208319A2EE89F3
:104B5000FF89408121E030E0C9010C8C02C0880F40
:104B6000991F0A94E2F7482B4083EE89FF89408120
:104B7000C9010D8C02C0880F991F0A94E2F7482BD7
:104B80004083EE89FF894081C9010E8C02C0880FE5
:104B9000991F0A94E2F7482B4083EE89FF898081B0
:104BA0000F8C02C0220F331F0A94E2F720952823AE
:104BB0002083DF91CF911F910F91FF90EF90DF90B5
:104BC000BF90AF900895AF92BF92CF92DF92EF92D5
:104BD000FF920F931F93CF93DF93EC017A018B0128
:104BE000C22EDD24403081EE580780E0680780E067
:104BF000780711F0DD24D39471E0A72EB12CEC8955
:104C0000FD89DD2069F0C50108A002C0880F991F49
:104C10000A94E2F7808360E079E08DE390E005C0DC
:104C2000108260E874E88EE190E0A80197010E948C
:104C3000B539215030404040504056954795379502
:104C4000279580E12030380720F0DD2011F0DD24A9
:104C5000D6CFE889F9893083EA89FB892083E88DFA
:104C6000F98DC082EE89FF89408121E030E0C901E1
:104C70000C8C02C0880F991F0A94E2F7482B4083DE
:104C8000EE89FF894081C9010D8C02C0880F991FF0
:104C90000A94E2F7482B4083EE89FF894081C901DD
:104CA0000E8C02C0880F991F0A94E2F7482B4083AC
:104CB000EE89FF8980810F8C02C0220F331F0A9476
:104CC000E2F7209528232083DF91CF911F910F9148
:104CD000FF90EF90DF90CF90BF90AF900895CF936B
:104CE000DF93DC011E968D919C911F97EC01C05CB7
:104CF000DF4FFC01EE5BFF4F28813981808191817C
:104D000028173907C9F75696ED91FC9157974081BE
:104D100021E030E0C9015C960C905C9702C0880FDE
:104D2000991F0A94E2F78095842380835696ED912B
:104D3000FC9157974081C9015D960C905D9702C028
:104D4000880F991F0A94E2F78095842380835696F2
:104D5000ED91FC9157974081C9015E960C905E974A
:104D600002C0880F991F0A94E2F7809584238083FC
:104D70005696ED91FC91579780815F960C905F97C6
:104D800002C0220F331F0A94E2F7209528232083C4
:104D90001C96ED91FC911D97EE5BFF4F80819181F8
:104DA00092938293DF91CF910895DC011C96ED914F
:104DB000FC911D97E05CFF4F2191319180819181A1
:104DC000281B390B2F733070C9010895DC011C9624
:104DD000ED91FC911D97E05CFF4F20813181E05403
:104DE000F040DF01AE5BBF4F8D919C91119728176A
:104DF000390719F42FEF3FEF07C08D919C91E80F11
:104E0000F91F8081282F30E0C9010895DC011C962C
:104E1000ED91FC911D97E05CFF4F20813181E054C2
:104E2000F040DF01AE5BBF4F8D919C911197281729
:104E3000390719F42FEF3FEF10C08D919C91119716
:104E4000E80FF91F20818D919C91119701968F7326
:104E5000907011969C938E9330E0C9010895DC0107
:104E600091968C919197882339F05496ED91FC910D
:104E70005597808186FFF9CF91961C920895CF9324
:104E8000DF93EC01EE85FF85E05CFF4F20813181EF
:104E9000E054F0402F5F3F4F2F733070DF01AE5B67
:104EA000BF4F8D919C91119728173907D1F3E05C82
:104EB000FF4F80819181E054F040E80FF91F60833B
:104EC000EE85FF85E05CFF4F31832083EE89FF890B
:104ED000208181E090E00F8C02C0880F991F0A9416
:104EE000E2F7282B208381E089A3EC89FD8980816A
:104EF0008064808381E090E0DF91CF91089581E02C
:104F000008951F931092400910923F0928EE33E054
:104F100040E050E020934109309342094093430917
:104F20005093440968E573E070933E0960933D092E
:104F30008DE197E090934A098093490981E697E0D3
:104F400090934C0980934B0985EC90E090934E0927
:104F500080934D0984EC90E09093500980934F0921
:104F600080EC90E0909352098093510981EC90E09D
:104F7000909354098093530982EC90E090935609E2
:104F80008093550986EC90E09093580980935709D7
:104F900014E010935909B3E0B0935A09A7E0A09325
:104FA0005B09F5E0F0935C09E1E0E0935D091092A4
:104FB0006209109261092093630930936409409358
:104FC0006509509366097093600960935F0985EAEB
:104FD00097E090936C0980936B0989EE97E090932A
:104FE0006E0980936D098DEC90E090937009809329
:104FF0006F098CEC90E0909372098093710988ECB2
:1050000090E0909374098093730989EC90E09093F9
:105010007609809375098AEC90E0909378098093E3
:1050200077098EEC90E090937A0980937909109338
:105030007B09B0937C09A0937D09F0937E09E093EE
:105040007F09109284091092830920938509309377
:105050008609409387095093880970938209609369
:1050600081098DE298E090938E0980938D0981E704
:1050700098E09093900980938F0985ED90E090934C
:1050800092098093910984ED90E090939409809324
:10509000930980ED90E0909396098093950981EDB6
:1050A00090E0909398098093970982ED90E0909317
:1050B0009A098093990986ED90E090939C098093DA
:1050C0009B0910939D09B0939E09A0939F09F093AB
:1050D000A009E093A1091092A6091092A5092093B6
:1050E000A7093093A8094093A9095093AA0970937E
:1050F000A4096093A30985EB98E09093B00980938D
:10510000AF0989EF98E09093B2098093B10985E3E4
:1051100091E09093B4098093B30984E391E0909374
:10512000B6098093B50980E391E09093B809809324
:10513000B70981E391E09093BA098093B90982E3BA
:1051400091E09093BC098093BB0986E391E0909332
:10515000BE098093BD091093BF09B093C009A09305
:10516000C109F093C209E093C3091F9108950F93F9
:10517000FC0188E793E091838083628343832483E7
:1051800005830F9108950F93FC0188E793E09183C5
:10519000808362834383248305830F91089588E786
:1051A00093E09093C6098093C5091092C7091092A5
:1051B000C8091092C9091092CA0908958F929F9246
:1051C000AF92BF92CF92DF92EF92FF920F931F9315
:1051D000CF93DF934C016B017C01AA24BB24C0E078
:1051E000D0E0C601F70162814AE050E00E94472BFF
:1051F0008C01C6016EE20E94FD29080F191FA00E46
:10520000B11E21960894E11CF11CC330D10549F769
:10521000C601F40165814AE050E00E94472B9501E8
:10522000280F391FC901DF91CF911F910F91FF9076
:10523000EF90DF90CF90BF90AF909F908F900895A8
:105240009C012E5F3F4FCB01B90144E050E00E942A
:10525000FD1A9C0180E0232B09F481E00895DF937F
:10526000CF9300D00F92CDB7DEB7FC0142835383BA
:10527000648375830F900F900F900F90CF91DF9103
:1052800008959C01FB0180819181A281B381F90184
:1052900082839383A483B583C90108959C01FB0194
:1052A00088E793E0D9018D939C9380819181A281BD
:1052B000B381F90182839383A483B58308959C010C
:1052C000FB0188E793E0D9018D939C9380819181C4
:1052D000A281B381F90182839383A483B583089566
:1052E000DF93CF9300D00F92CDB7DEB7FC0188E7F4
:1052F00093E09183808342835383648375830F900B
:105300000F900F900F90CF91DF910895DF93CF937F
:1053100000D00F92CDB7DEB7FC0188E793E0918310
:10532000808342835383648375830F900F900F9023
:105330000F90CF91DF910895FC0188E793E091836E
:10534000808312821382148215820895FC0188E7FB
:1053500093E09183808312821382148215820895D0
:10536000CF92DF92EF92FF920F931F93CF93DF9331
:105370007C016B018A01C0E0D0E00FC0D6016D91C5
:105380006D01D701ED91FC910190F081E02DC701F5
:105390001995C80FD91F015010400115110571F75B
:1053A000CE01DF91CF911F910F91FF90EF90DF9091
:1053B000CF900895EF92FF920F931F93CF93DF93B7
:1053C0007C018B01C0E0D0E0F8010F5F1F4F6491BA
:1053D000662359F0D701ED91FC910190F081E02D09
:1053E000C7011995C80FD91FEFCFCE01DF91CF911B
:1053F0001F910F91FF90EF900895DC01ED91FC91CA
:105400000190F081E02D199508959C01DB01ED914B
:10541000FC910190F081E02DCB01B901199508951F
:10542000EF92FF920F931F938C01DC01ED91FC91A1
:105430000190F081E02D6DE019957C01D801ED918E
:10544000FC910190F081E02DC8016AE019959C0162
:105450002E0D3F1DC9011F910F91FF90EF900895F0
:10546000EF92FF920F931F937C010E94DA298C0127
:10547000C7010E94102A9C01200F311FC9011F91F2
:105480000F91FF90EF900895EF92FF920F931F936B
:105490007C01DC01ED91FC910190F081E02D1995EA
:1054A0008C01C7010E94102A080F191FC8011F9103
:1054B0000F91FF90EF900895EF92FF920F931F933B
:1054C0007C01DB01ED91FC910190F081E02DCB019D
:1054D000B70119958C01C7010E94102A080F191FE6
:1054E000C8011F910F91FF90EF900895CF93DF9324
:1054F000EC016115710519F420E030E00FC0DB010B
:105500000D900020E9F71197A61BB70BE881F981F0
:105510000280F381E02DAD0119959C01C901DF9155
:10552000CF9108954F925F927F928F929F92AF9208
:10553000BF92CF92DF92EF92FF920F931F93DF9370
:10554000CF93CDB7DEB7A1970FB6F894DEBF0FBEED
:10555000CDBF2C01742ECB01223008F42AE019A211
:1055600031E2C32ED12CCC0EDD1E822E9924AA242A
:10557000BB24672D752FA50194010E94B5397901CF
:105580008A01C801B701A50194010E946339472D22
:10559000461B0894C108D1084A3014F4405D01C08C
:1055A000495CF6014083E114F1040105110521F085
:1055B0007E2C5F2DC801DDCFC201B6010E94762A84
:1055C000A1960FB6F894DEBF0FBECDBFCF91DF918D
:1055D0001F910F91FF90EF90DF90CF90BF90AF9011
:1055E0009F908F907F905F904F900895DC012115E0
:1055F000310541F4ED91FC910190F081E02D642F93
:10560000199508950E94922A0895EF92FF920F93A0
:105610001F937C010E94F62A8C01C7010E94102A68
:105620009C01200F311FC9011F910F91FF90EF9036
:105630000895EF92FF920F931F939A017B0100E070
:1056400010E0B801A7010E94F62A1F910F91FF9068
:10565000EF900895CF92DF92EF92FF920F931F93F6
:105660006C017B019A0100E010E0B801A7010E94E3
:10567000F62A8C01C6010E94102A080F191FC801C2
:105680001F910F91FF90EF90DF90CF900895EF92D0
:10569000FF920F931F939A01E62EFF2400E010E083
:1056A000B801A7010E94F62A1F910F91FF90EF9079
:1056B0000895CF92DF92EF92FF920F931F936C01A8
:1056C000E62E9A01FF2400E010E0B801A7010E9435
:1056D000F62A8C01C6010E94102A080F191FC80162
:1056E0001F910F91FF90EF90DF90CF900895CF9290
:1056F000DF92EF92FF920F931F93CF93DF93EC0112
:105700006A017B012115310541F4E881F98101909D
:10571000F081E02D642F19951FC02A303105D1F496
:1057200077FF17C0E881F9810190F081E02D6DE2EB
:1057300019958C0144275527BA014C195D096E094A
:105740007F09CE012AE00E94922A9801280F391F72
:1057500004C02AE00E94922A9C01C901DF91CF91E6
:105760001F910F91FF90EF90DF90CF900895EF92EF
:10577000FF920F931F937C010E94772B8C01C7012E
:105780000E94102A9C01200F311FC9011F910F9107
:10579000FF90EF900895EF92FF920F931F937B017C
:1057A0009A010027F7FC0095102FB801A7010E946D
:1057B000772B1F910F91FF90EF900895CF92DF927A
:1057C000EF92FF920F931F936C017B019A010027C8
:1057D000F7FC0095102FB801A7010E94772B8C01D0
:1057E000C6010E94102A080F191FC8011F910F91AE
:1057F000FF90EF90DF90CF9008950E94762A089551
:105800007F928F929F92AF92BF92CF92DF92EF9250
:10581000FF920F931F93CF93DF934C017A018B017B
:10582000722ECB01BA01A80197010E942417882388
:1058300021F0C40162E372E021C0C0E0D0E0570172
:105840006801E894D7F8C601B5012FEF3FEF4FE7A5
:105850005FE70E942417882351F4C601B5012FEF9A
:105860003FEF4FE75FE70E94F416181614F0C1E00F
:10587000D0E0219739F0C40166E372E00E94762AF5
:10588000EC0193C0C801B7012FEF3FEF4FE75FE492
:105890000E946416181654F0C801B7012FEF3FEFAD
:1058A0004FE75FEC0E94C416882324F4C4016AE326
:1058B00072E0E4CFC801B70120E030E040E050E002
:1058C0000E94C41687FD03C0C0E0D0E00EC0D40122
:1058D000ED91FC910190F081E02DC4016DE21995EC
:1058E000EC0117FB109517F9109520E030E040E02F
:1058F0005FE3DD240BC0CA01B90120E030E040E2E3
:1059000051E40E94B8159B01AC01D394D71498F3CD
:10591000C801B7010E9491145B016C010E94E8125A
:105920007B018C01C401B801A7012AE030E00E948C
:10593000F62AC80FD91F772039F0C4016EE372E050
:105940000E94762AC80FD91FC801B7010E9401180A
:105950009B01AC01C601B5010E94601424C020E087
:1059600030E040E251E40E94BE147B018C010E94B1
:10597000AD175B016C01CC24B7FCC094DC2CC401D6
:10598000B601A5012AE030E00E94772BC80FD91F8D
:10599000C601B5010E944F179B01AC01C801B701B8
:1059A0000E9460147A947720D1F6CE01DF91CF91D6
:1059B0001F910F91FF90EF90DF90CF90BF90AF902D
:1059C0009F908F907F9008950E94002C0895EF92F1
:1059D000FF920F931F937C010E94002C8C01C70142
:1059E0000E94102A080F191FC8011F910F91FF90E4
:1059F000EF900895EF92FF920F931F937C010E9406
:105A0000762A8C01C7010E94102A080F191FC801AD
:105A10001F910F91FF90EF900895AF92BF92CF9298
:105A2000DF92EF92FF920F931F93CF93DF935C016E
:105A30006B01EE24FF24C0E0D0E010C0D501ED9151
:105A4000FC9100811181C601BE010E94202E682FA9
:105A5000C501F8011995E80EF91E2196F601848119
:105A60009581C817D90750F3C701DF91CF911F91D6
:105A70000F91FF90EF90DF90CF90BF90AF9008957F
:105A8000EF92FF920F931F937C010E940D2D8C01CA
:105A9000C7010E94102A9C01200F311FC9011F91CC
:105AA0000F91FF90EF9008952F923F924F925F9247
:105AB0006F927F928F929F92AF92BF92CF92DF921E
:105AC000EF92FF920F931F93DF93CF93CDB7DEB783
:105AD0003B014C0119012A016E897F89888D998DBE
