:100000000C9406010C945D160C948E160C94BF167D
:100010000C94F0160C9421170C9452170C9483171F
:100020000C94B4170C9432010C9432010C943201EC
:100030000C9432010C9432010C9432010C94320174
:100040000C9432010C9432010C9432010C94320164
:100050000C9432010C9432010C9432010C94E5178B
:100060000C9432010C94F01B0C94381D0C9432014A
:100070000C9432010C9432010C9432010C94320134
:100080000C9432010C9432010C9432010C94320124
:100090000C94301C0C94771D0C9432010C941203B8
:1000A0000C9432010C9432010C9432010C94320104
:1000B0000C9432010C9432010C9432010C943201F4
:1000C0000C9432010C9432010C9432010C94701C8B
:1000D0000C94B61D0C9432010C94B01C0C94F51DBC
:1000E0000C94320100002100240027002A002D007A
:1000F0003000330001010000040107010A01000083
:100100002200250028002B002E00310034000201BF
:100110000000050108010B0100002000230026005B
:1001200029002C002F00320000010000030106010D
:10013000090105050505070508080808020202026D
:100140000A0A080804040404010101010101010173
:100150000303030303030303040707070C0C0C0C3E
:100160000C0C0C0C02020202060606060606060627
:100170000B0B0B0B0B0B0B0B0102102020080810B4
:100180002040102040800201020108040201010207
:1001900004081020408080402010080402018004E0
:1001A000020180402010080402010804020101023B
:1001B0000408102040800102040810204080000044
:1001C000090A02080B0C0D070603040100000000D9
:1001D000000000000000000000000000000000001F
:1001E0000000000000000000000011100F000000DF
:1001F00000000000000000000000000000000000FF
:1002000000000000F406DE08E1202F2211241FBEAA
:10021000CFEFD1E2DEBFCDBF00E00CBF13E0A0E026
:10022000B2E0E4E7F8E600E00BBF02C007900D92F1
:10023000A83AB107D9F719E0A8EAB3E001C01D92C6
:10024000A735B107E1F712E0CCE0D2E004C0229775
:10025000FE010E94B832C430D107C9F70E94F90DDF
:100260000C9438340C940000DF93CF93CDB7DEB7F5
:100270001092A80381E08093AA031092AB038091AF
:10028000040261E00E94F01A8091050261E00E9480
:10029000F01AA9EBB0E0E9EBF0E080818E7F8C935F
:1002A000A9EBB0E0E9EBF0E080818D7F8C93E8EB87
:1002B000F0E088E48083ECEBF0E085E48083CF918C
:1002C000DF910895DF93CF930F92CDB7DEB7898387
:1002D000EAEBF0E08981880F80830F90CF91DF9166
:1002E0000895DF93CF93CDB7DEB727970FB6F89475
:1002F000DEBF0FBECDBF8A837C836B834D832E838D
:100300008D81813210F01F825CC08091A803882308
:10031000E1F781E08093A8038E818093AA038FEF99
:10032000809315041092D0038D8181508093D10366
:1003300081E08093A9038A81882F90E0880F991F1C
:10034000982F8091A903892B8093A9038091AB03F7
:10035000813061F41092AB03EBEBF0E08091A903E4
:100360008083ECEBF0E085EC808304C0ECEBF0E004
:1003700085EE80838091A8038130E1F39091D003D2
:100380008D81981718F48091D0038D83198213C042
:100390008981282F30E08B819C81DC01A20FB31F63
:1003A0008981882F90E0FC01E055FC4F80818C937F
:1003B00089818F5F898399818D81981748F38D8119
:1003C0008F838F8127960FB6F894DEBF0FBECDBF07
:1003D000CF91DF9108950F93DF93CF93CDB7DEB721
:1003E00028970FB6F894DEBF0FBECDBF8A837C83FB
:1003F0006B834D832E830F838D81813218F081E0D2
:10040000888769C08091A8038823E1F782E0809300
:10041000A8038F818093AA038FEF80931504109215
:10042000D0038D818093D103198213C08981482F15
:1004300050E08981282F30E08B819C81FC01E20F04
:10044000F31F8081FA01E055FC4F808389818F5F23
:10045000898399818D81981748F31092A9038A8125
:10046000882F90E0880F991F982F8091A903892BDE
:100470008093A9038091AB03813061F41092AB03A8
:10048000EBEBF0E08091A9038083ECEBF0E085ECEE
:10049000808304C0ECEBF0E085EE80838E818823BE
:1004A00021F08091A8038230C9F3809115048F3F19
:1004B00011F4188610C080911504803219F482E07E
:1004C000888709C080911504803319F483E08887F8
:1004D00002C084E08887888528960FB6F894DEBF2E
:1004E0000FBECDBFCF91DF910F910895DF93CF93D2
:1004F00000D00F920F92CDB7DEB79B838A836C83B7
:100500008C81813218F081E08D8324C08091A80312
:10051000843019F082E08D831DC08C818093F303B9
:10052000198213C08981482F50E08981282F30E03B
:100530008A819B81FC01E20FF31F8081FA01EE5258
:10054000FC4F808389818F5F898399818C81981783
:1005500048F31D828D810F900F900F900F900F9098
:10056000CF91DF910895DF93CF930F920F92CDB784
:10057000DEB79A83898389819A819093AF038093B0
:10058000AE030F900F90CF91DF910895DF93CF933B
:100590000F920F92CDB7DEB79A83898389819A81B2
:1005A0009093AD038093AC030F900F90CF91DF91A8
:1005B0000895DF93CF930F92CDB7DEB789838981FA
:1005C000882329F0ECEBF0E085EC808304C0ECEBB1
:1005D000F0E085E880830F90CF91DF910895DF935D
:1005E000CF93CDB7DEB7ECEBF0E085ED8083ECEB9D
:1005F000F0E08081882F90E0807190700097B9F7CB
:100600001092A803CF91DF910895DF93CF93CDB7D8
:10061000DEB7ECEBF0E085EC80831092A803CF917D
:10062000DF9108951F920F920FB60F9200905B001A
:100630000F9211242F933F934F935F936F937F9368
:100640008F939F93AF93BF93EF93FF93DF93CF93DA
:100650000F920F92CDB7DEB7E9EBF0E08081882FE3
:1006600090E09C01287F30703A83298389819A81A8
:100670008836910509F44CC129813A812936310522
:100680000CF060C089819A818033910509F4F4C02F
:1006900029813A812133310554F589819A8180314C
:1006A000910509F4B0C029813A812131310564F402
:1006B00089819A81009709F4AAC129813A81283059
:1006C000310509F4A0C0A7C189819A8180329105C2
:1006D00009F4CCC029813A812832310509F49CC043
:1006E00089819A818831910509F496C094C1298144
:1006F0003A812834310509F408C189819A81893405
:1007000091056CF429813A812833310509F4BAC086
:1007100089819A818034910509F4C9C07CC12981FD
:100720003A812835310509F4D0C089819A81803613
:10073000910509F4EDC029813A812035310509F48C
:10074000A7C069C189819A81803A910509F404C1E1
:1007500029813A81213A31055CF589819A81803875
:10076000910509F4DEC029813A81213831056CF404
:1007700089819A818037910509F4CAC029813A811B
:100780002837310509F4C4C046C189819A8180396E
:10079000910509F4C6C029813A812839310509F447
:1007A000FAC089819A818838910509F4F4C033C16F
:1007B00029813A81283B310509F406C189819A8152
:1007C000893B91056CF429813A81283A310509F475
:1007D000E6C089819A81803B910509F4E0C01BC184
:1007E00029813A81283C310509F40BC189819A811C
:1007F000883F910509F40FC129813A81203C3105D8
:1008000009F4FFC008C1EBEBF0E08091A9038083FD
:1008100081E00E94D902FFC09091D0038091D10362
:10082000981798F4ABEBB0E02091D003822F90E0C2
:10083000FC01E055FC4F80818C93822F8F5F809369
:10084000D00381E00E94D902E6C08091AA038823E8
:1008500019F00E94EF02DFC081E08093AB03ECEB64
:10086000F0E084EA80831092A803D5C080E28093F0
:1008700015040E94EF02CFC080E3809315040E940C
:10088000EF02C9C088E3809315040E940503C3C02A
:100890003091D003832F90E0EBEBF0E02081FC015E
:1008A000E055FC4F2083832F8F5F8093D00390917E
:1008B000D0038091D103981720F481E00E94D902DF
:1008C000AAC080E00E94D902A6C03091D003832F35
:1008D00090E0EBEBF0E02081FC01E055FC4F208341
:1008E000832F8F5F8093D0038091AA03882319F010
:1008F0000E94EF0290C081E08093AB03ECEBF0E04C
:1009000084EA80831092A80386C00E94EF0283C00D
:1009100083E08093A8031092140481E00E94D9021E
:100920007AC080911404803298F430911404832F9B
:1009300090E0EBEBF0E02081FC01EC50FC4F2083D9
:10094000832F8F5F8093140481E00E94D90263C0DB
:1009500080E00E94D9025FC080911404803240F48C
:1009600080911404882F90E0FC01EC50FC4F108221
:100970000E94EF02E091AE03F091AF038091140466
:10098000282F30E084EF93E0B901199510921404F8
:100990000E94050340C080E00E94D9023CC084E070
:1009A0008093A8031092F2031092F303E091AC033A
:1009B000F091AD0319958091F303882329F481E028
:1009C0008093F3031092D203ABEBB0E02091F203DB
:1009D000822F90E0FC01EE52FC4F80818C93822F9D
:1009E0008F5F8093F2039091F2038091F303981745
:1009F00020F481E00E94D9020EC080E00E94D9025A
:100A00000AC081E00E94D9021092A80304C010928B
:100A100015040E94EF020F900F90CF91DF91FF918C
:100A2000EF91BF91AF919F918F917F916F915F9166
:100A30004F913F912F910F9000925B000F900FBE4E
:100A40000F901F901895DF93CF9300D00F92CDB7E2
:100A5000DEB79A8389837C836B83E981FA818B81FA
:100A60009C81938382830F900F900F900F90CF9172
:100A7000DF910895DF93CF930F920F92CDB7DEB73A
:100A80009A838983E981FA8184EA93E09183808360
:100A9000E981FA81138212820F900F90CF91DF913A
:100AA0000895DF93CF930F920F92CDB7DEB79A835D
:100AB000898389819A810E943A05E981FA818BE2D2
:100AC00092E091838083E981FA8188EE93E0A0E04F
:100AD000B0E084839583A683B7830F900F90CF9166
:100AE000DF910895DF93CF930F920F92CDB7DEB7CA
:100AF0009A83898389819A810E945105E981FA81CB
:100B00008BE192E0918380830F900F90CF91DF91E2
:100B10000895DF93CF930F920F92CDB7DEB79A83EC
:100B2000898389819A810E945105E981FA818BE14B
:100B300092E0918380830F900F90CF91DF91089581
:100B4000DF93CF9300D0CDB7DEB79A8389836B83D1
:100B500081E080935B048B81809338041092590468
:100B600010925A040F900F900F90CF91DF9108953B
:100B7000DF93CF9300D00F92CDB7DEB79A838983EE
:100B80007C836B832B8189819A81622F0E94A005CF
:100B90000F900F900F900F90CF91DF910895DF93FA
:100BA000CF930F920F92CDB7DEB79A83898380914E
:100BB0003704282F30E080913604882F90E0A90177
:100BC000481B590BCA010F900F90CF91DF910895E8
:100BD000DF93CF9300D00F92CDB7DEB79C838B838A
:100BE0008FEF9FEF9A838983909136048091370429
:100BF000981788F480913604882F90E0FC01EA5E13
:100C0000FB4F8081882F90E09A83898380913604FE
:100C10008F5F8093360489819A810F900F900F9097
:100C20000F90CF91DF910895DF93CF9300D00F9273
:100C3000CDB7DEB79C838B838FEF9FEF9A83898339
:100C40009091360480913704981760F480913604AF
:100C5000882F90E0FC01EA5EFB4F8081882F90E0B6
:100C60009A83898389819A810F900F900F900F90BA
:100C7000CF91DF910895DF93CF930F920F92CDB76D
:100C8000DEB79A8389830F900F90CF91DF910895FB
:100C9000DF93CF9300D00F920F92CDB7DEB79B8337
:100CA0008A837D836C8380915E0490915F040097BA
:100CB00079F19091360480913704981748F11982A0
:100CC00013C08981482F50E08981282F30E08A8124
:100CD0009B81FC01E20FF31F8081FA01EA5EFB4F6A
:100CE000808389818F5F89838981282F30E08C817F
:100CF0009D81281739072CF3109236048C8180933C
:100D00003704E0915E04F0915F048C819D81199518
:100D10000F900F900F900F900F90CF91DF9108954B
:100D2000DF93CF93CDB7DEB780915C0490915D04E3
:100D3000009749F01092590410925A04E0915C0413
:100D4000F0915D041995CF91DF910895DF93CF93D2
:100D500000D00F92CDB7DEB79A8389837C836B83F3
:100D60008B819C8190935F0480935E040F900F9021
:100D70000F900F90CF91DF910895DF93CF9300D024
:100D80000F92CDB7DEB79A8389837C836B838B8187
:100D90009C8190935D0480935C040F900F900F9062
:100DA0000F90CF91DF910895DF93CF9300D00F92F2
:100DB000CDB7DEB79A8389837C836B8389819A81DF
:100DC0008130910551F48B819C812FEF8F3F9207E9
:100DD00021F480E694E00E9489050F900F900F9017
:100DE0000F90CF91DF910895DF93CF93CDB7DEB70A
:100DF00081E090E06FEF7FEF0E94D406CF91DF910A
:100E00000895DF93CF93CDB7DEB728970FB6F89448
:100E1000DEBF0FBECDBF9C838B837E836D835887DF
:100E20004F8380915B04882321F11A82198219C0B3
:100E3000EB81FC810190F081E02D408151812D8179
:100E40003E8189819A81F901E80FF91F20818B8108
:100E50009C81622FFA01199589819A8101969A8362
:100E6000898329813A818F8198852817390700F372
:100E700006C02F818D819E81622F0E9476028F8114
:100E8000988528960FB6F894DEBF0FBECDBFCF91E0
:100E9000DF910895DF93CF9300D00F920F92CDB7DB
:100EA000DEB79A8389836B8380915B04882301F189
:100EB00080915A04803248F089819A8161E070E023
:100EC0000E9423051D821C821CC080915904882F1A
:100ED00090E02B81FC01E75CFB4F2083809159045B
:100EE0008F5F809359048091590480935A0405C000
:100EF000CE01039661E00E94760281E090E09D833E
:100F00008C838C819D810F900F900F900F900F908C
:100F1000CF91DF9108950F93DF93CF9300D00F927D
:100F2000CDB7DEB79B838A836C8380913804909120
:100F30005A0429E334E0B901492F21E00C810E94D1
:100F4000EB0189831092590410925A0410925B04A9
:100F500089810F900F900F900F90CF91DF910F919B
:100F60000895DF93CF930F920F92CDB7DEB79A8398
:100F7000898389819A8161E00E948B070F900F908D
:100F8000CF91DF910895DF93CF9300D000D0CDB7FC
:100F9000DEB79B838A836C834D832E838D81813260
:100FA00010F080E28D8326E134E08C81B9014D811F
:100FB0002E810E9471018983109236048981809369
:100FC0003704898126960FB6F894DEBF0FBECDBFD9
:100FD000CF91DF910895DF93CF93CDB7DEB72897F8
:100FE0000FB6F894DEBF0FBECDBF9A8389837C8392
:100FF0006B835E834D8338872F832B813D815F8197
:1010000089819A81622F432F252F0E94C30728963A
:101010000FB6F894DEBF0FBECDBFCF91DF9108951C
:10102000DF93CF9300D000D0CDB7DEB79A8389830A
:101030007C836B835E834D832B813D8189819A8183
:10104000622F432F21E00E94C30726960FB6F89423
:10105000DEBF0FBECDBFCF91DF910895DF93CF9359
:1010600000D00F92CDB7DEB79A8389836B834C8310
:1010700089819A816B814C8121E00E94C3070F9086
:101080000F900F900F90CF91DF910895DF93CF9342
:101090000F920F92CDB7DEB79A83898310923604F0
:1010A000109237041092590410925A040E9434018D
:1010B0000F900F90CF91DF910895DF93CF9300D0E1
:1010C000CDB7DEB79A8389836B838B810E946201DF
:1010D00080E996E00E94C60288E496E00E94B3028E
:1010E00089819A810E9446080F900F900F90CF91AE
:1010F000DF910895DF93CF9300D00F92CDB7DEB785
:101100009A8389837C836B832B8189819A81622F67
:101110000E945D080F900F900F900F90CF91DF917C
:101120000895DF93CF93CDB7DEB7CF91DF910895C8
:10113000DF93CF93CDB7DEB78091700490917104A7
:1011400001969093710480937004CF91DF9108957C
:10115000DF93CF93CDB7DEB7809172049091730483
:1011600001969093730480937204CF91DF91089558
:101170000F93DF93CF9300D00F92CDB7DEB79A8352
:1011800089837C836B8389819A818130910571F495
:101190008B819C812FEF8F3F920741F485E896E089
:1011A00060E040E020E000E00E9423220F900F90DA
:1011B0000F900F90CF91DF910F910895DF93CF9310
:1011C000CDB7DEB781E090E06FEF7FEF0E94B80807
:1011D000CF91DF910895DF93CF93CDB7DEB784EC45
:1011E00098E040E855E260E070E00E94BC1E84E0B8
:1011F00061E00E943D1A85E061E00E943D1A86E0B0
:1012000061E00E943D1A87E061E00E943D1A86E29B
:1012100060E00E943D1A85E261E00E943D1A88E28A
:1012200060E00E943D1A87E261E00E943D1A8DE075
:1012300061E00E943D1A86E160E00E943D1A87E16C
:1012400060E00E943D1A88E160E00E943D1A89E159
:1012500060E00E943D1A8AE162E00E943D1A8BE143
:1012600062E00E943D1A28E938E085E0B90142E0D9
:1012700050E00E94B51528EA38E084E0B90142E068
:1012800050E00E94B515CF91DF910895DF93CF9381
:10129000CDB7DEB729970FB6F894DEBF0FBECDBF2E
:1012A0008B836C835E834D832F831A8219828B819B
:1012B00060E00E94F01A8B8161E00E94F01A8C813C
:1012C00060E020E432E44FE050E00E94531BDC0178
:1012D000CB019A838983ED81FE8181E080838981BE
:1012E0009A8123EC8135920718F0ED81FE811082FE
:1012F0008F81882329F089819A81998788870AC0FC
:1013000089819A8122E330E0B9010E944932CB0100
:10131000998788878885998529960FB6F894DEBFC6
:101320000FBECDBFCF91DF910895DF93CF930F9282
:101330000F92CDB7DEB785E30E94231B009719F10A
:1013400086E10E94231B0097F1F087E10E94231B96
:101350000097C9F088E10E94231B0097A1F089E162
:101360000E94231B009779F084E30E94231B0097BF
:1013700051F08AE10E94231B009729F08BE10E9423
:10138000231B009719F481E08A8301C01A828A81A5
:10139000882319F081E0898301C0198289810F9027
:1013A0000F90CF91DF910895DF93CF9300D0CDB709
:1013B000DEB79A8389836B8389819A81009759F478
:1013C0009B8187E0692F0E94F01A86E060E070E060
:1013D0000E945D190EC09B8187E0692F0E94F01A60
:1013E00089819A819C0125563F4F86E0B9010E9470
:1013F0005D190F900F900F90CF91DF910895DF93BB
:10140000CF9300D0CDB7DEB79A8389836B83898170
:101410009A81009759F49B8185E0692F0E94F01A08
:1014200084E060E070E00E945D190EC09B8185E061
:10143000692F0E94F01A89819A819C0125563F4F9D
:1014400084E0B9010E945D190F900F900F90CF9129
:10145000DF910895DF93CF930F92CDB7DEB70AC027
:1014600084E690E060E00E94FF0989EC9FEF61E074
:101470000E94D4098BE10E94231B1982009711F46A
:1014800081E089838981882359F784E690E061E0CF
:101490000E94FF0989EC9FEF60E00E94D4090F9041
:1014A000CF91DF910895DF93CF9300D000D0CDB7D7
:1014B000DEB789E10E94231B1E82009711F481E0B0
:1014C0008E838E81882359F080E090E060E00E9456
:1014D000FF0984E690E061E00E94D40982C085E3C0
:1014E0000E94231B0097B9F086E10E94231B0097FE
:1014F00091F087E10E94231B009769F088E10E9428
:10150000231B009741F089E10E94231B009719F0EB
:1015100081E08D8301C01D828D81882359F084E68E
:1015200090E061E00E94FF0984E690E061E00E94A3
:10153000D40957C088E10E94231B1C82009711F434
:1015400081E08C838C81882359F084E690E060E010
:101550000E94FF0984E690E061E00E94D40941C046
:1015600085E30E94231B1B82009711F481E08B838B
:101570008B81882359F084E690E061E00E94FF09A6
:1015800084E690E060E00E94D4092BC087E10E94CD
:10159000231B1A82009711F481E08A838A818823B1
:1015A00059F080E090E060E00E94FF0984E690E05E
:1015B00061E00E94D40915C086E10E94231B1982B4
:1015C000009711F481E089838981882351F084E6B2
:1015D00090E061E00E94FF0980E090E060E00E94FE
:1015E000D40926960FB6F894DEBF0FBECDBFCF91BB
:1015F000DF910895DF93CF93CDB7DEB765970FB630
:10160000F894DEBF0FBECDBF809144029091450299
:101610008330910581F08091700490917104209144
:10162000830630918406821B930B8C3491051CF049
:1016300021E02D8B01C01D8A8D89882309F4EFC01C
:1016400084EC98E027E332E0B9010E945A268091A9
:101650004402909145028130910509F06DC083E00C
:1016600090E09093450280934402809170049091A1
:10167000710490938406809383060EC082E390E009
:1016800060E00E94FF0982E390E061E00E94D409DB
:101690000E94950980938206809170049091710454
:1016A0002091830630918406821B930B8639910525
:1016B0005CF49091820681E0982781E08927882355
:1016C00019F441E04C8B01C01C8A8C898823B1F647
:1016D00080917004909171049093840680938306A6
:1016E0000EC082E390E061E00E94FF0982E390E097
:1016F00060E00E94D4090E9495098093820680913F
:101700007004909171042091830630918406821BAD
:10171000930B863991055CF49091820681E09827BD
:1017200081E08927882319F451E05B8B01C01B8A73
:101730008B898823B1F673C0809144029091450251
:10174000009709F06CC083E090E09093450280938D
:101750004402809170049091710490938406809368
:1017600083060EC082E390E061E00E94FF0982E3FD
:1017700090E060E00E94D4090E949509809382065F
:1017800080917004909171042091830630918406B9
:10179000821B930B863991055CF49091820681E05F
:1017A000982781E08927882319F481E08A8B01C07A
:1017B0001A8A8A898823B1F6809170049091710405
:1017C00090938406809383060EC082E390E060E0ED
:1017D0000E94FF0982E390E061E00E94D4090E9428
:1017E00095098093820680917004909171042091F4
:1017F000830630918406821B930B863991055CF435
:101800009091820681E0982781E08927882319F446
:1018100091E0998B01C0198A89898823B1F684E304
:101820000E94231B188A009711F421E0288B488915
:10183000442309F445C085E30E94231B009729F047
:1018400086E10E94231B009719F451E05F8701C0D5
:101850001F868F85882399F085E060E00E94F01A4A
:1018600084E06BE970E00E945D1987E061E00E940E
:10187000F01A86E06FEF70E00E945D1912C085E0FB
:1018800060E00E94F01A84E06FEF70E00E945D1942
:1018900087E061E00E94F01A86E06FEF70E00E943E
:1018A0005D1981E090E0909345028093440280911D
:1018B000700490917104909384068093830690C184
:1018C00085E30E94231B1E86009711F481E08E871A
:1018D0009E859923F9F085E061E00E94F01A84E08A
:1018E0006FEF70E00E945D1987E060E00E94F01ADF
:1018F00086E06FEF70E00E945D1910924502109231
:1019000044028091700490917104909384068093B6
:10191000830666C186E10E94231B009779F087E168
:101920000E94231B009751F088E10E94231B00971F
:1019300029F089E10E94231B009719F421E02D87EB
:1019400001C01D868D85882331F083E090E090935F
:1019500045028093440210926D0410926C04109220
:101960006F0410926E041A8219825EC089819A8176
:10197000880F991FFC01EA5BFD4F408151815C8714
:101980004B8789818A5E0E94231B1A8619860097DD
:1019900021F481E090E09A8789874B855C85898571
:1019A0009A85489F9001499F300D589F300D112412
:1019B00080916C0490916D04820F931F90936D043D
:1019C00080936C0489819A810496880F991FFC0189
:1019D000EA5BFD4F4081518158874F8389818A5E40
:1019E0000E94231B1E821D82009721F481E090E05B
:1019F0009E838D834F8158858D819E81489F900164
:101A0000499F300D589F300D112480916E049091A4
:101A10006F04820F931F90936F0480936E048981EB
:101A20009A8101969A83898389819A81843091056C
:101A30000CF49CCF80916C0490916D0485369105D7
:101A40003CF084E690E090936D0480936C040EC0AB
:101A500080916C0490916D042FEF8C39920734F4CF
:101A60008CE99FEF90936D0480936C0480916E04D9
:101A700090916F04853691053CF084E690E0909358
:101A80006F0480936E040EC080916E0490916F0479
:101A90004FEF8C39940734F48CE99FEF90936F04E7
:101AA00080936E0420916C0430916D0480916E04DB
:101AB00090916F042817390799F485E061E00E943E
:101AC000F01A84E06BE970E00E945D1987E061E044
:101AD0000E94F01A86E06BE970E00E945D1980C0F8
:101AE00080916C0490916D041816190684F485E0B9
:101AF00061E00E94F01A80916C0490916D049C0149
:101B000025563F4F84E0B9010E945D1929C080919C
:101B10006C0490916D0499238CF485E060E00E9440
:101B2000F01A80916C0490916D042BE930E0281B31
:101B3000390B84E0B9010E945D1912C080916E04D6
:101B400090916F041C82992314F451E05C8385E02A
:101B50006C810E94F01A84E06AE070E00E945D19D6
:101B600080916E0490916F041816190684F487E032
:101B700061E00E94F01A80916E0490916F049C01C4
:101B800025563F4F86E0B9010E945D1929C080911A
:101B90006E0490916F0499238CF487E060E00E94BA
:101BA000F01A80916E0490916F042BE930E0281BAD
:101BB000390B86E0B9010E945D1912C080916C0456
:101BC00090916D041B82992314F481E08B8387E04C
:101BD0006B810E94F01A86E06AE070E00E945D1955
:101BE00065960FB6F894DEBF0FBECDBFCF91DF91E3
:101BF0000895DF93CF93CDB7DEB70E94C4180E943B
:101C0000EB0884EC98E061E070E04AE050E00E946C
:101C10002B250E94FA0AFDCFDF93CF930F920F92EC
:101C2000CDB7DEB79A83898389819A81892F990FED
:101C3000990B282F84EC98E0622F0E949F20298125
:101C400084EC98E0622F0E949F2084EC98E00E9430
:101C500070230F900F90CF91DF910895EF92FF9234
:101C60000F931F937B018C0120E030E040E05FE4A4
:101C70000E94DA1188238CF0C801B70120E030E01F
:101C800040E05FE40E94A60F0E94F3129B01AC01AA
:101C9000205030404040504806C0C801B7010E9463
:101CA000F3129B01AC01B901CA011F910F91FF9082
:101CB000EF900895A0E0B0E0E0E6FEE00C947F3203
:101CC000DC012B01FA019C91923008F439C1EB013F
:101CD0008881823008F433C1943069F4843009F08B
:101CE0002FC111969C9111978981981709F428C1E9
:101CF000A5E6B2E025C1843009F421C18230A9F4FF
:101D0000923009F01DC19A01AD0188E0EA01099005
:101D1000AE01E90109929E018150C1F7E20189817A
:101D200011969C918923818308C1923009F407C1DF
:101D300012962D903C901397EB018A819B8114960B
:101D4000AD90BD90CD90DC901797EC80FD800E811A
:101D50001F819101281B390BB90137FF04C0662789
:101D60007727621B730B603271050CF061C012168D
:101D700013066CF537014801062E04C0969487942B
:101D8000779467940A94D2F721E030E040E050E085
:101D900004C0220F331F441F551F6A95D2F72150EC
:101DA0003040404050402E213F21402351232115F7
:101DB00031054105510521F021E030E040E050E0DF
:101DC00079018A01E628F728082919293CC0232B24
:101DD000D1F1260E371E35014601062E04C0969419
:101DE0008794779467940A94D2F721E030E040E03A
:101DF00050E004C0220F331F441F551F6A95D2F7CD
:101E000021503040404050402A213B214C215D214F
:101E1000211531054105510521F021E030E040E078
:101E200050E059016A01A628B728C828D9280BC054
:101E3000821593052CF01C01AA24BB24650103C064
:101E4000EE24FF24870111969C91D20111968C916A
:101E5000981709F445C0992339F0A80197012A1968
:101E60003B094C095D0906C0A60195012E193F09E1
:101E7000400B510B57FD08C011823382228224830C
:101E80003583468357831DC081E08183338222825C
:101E900088279927DC01821B930BA40BB50B848345
:101EA0009583A683B7830DC0220F331F441F551F90
:101EB000248335834683578382819381019793835B
:101EC00082832481358146815781DA01C9010197D6
:101ED000A109B1098F5F9F4FAF4FBF4328F30BC0DC
:101EE000918333822282EA0CFB1C0C1D1D1DE482AF
:101EF000F5820683178383E08083248135814681C0
:101F0000578157FF1AC0C901AA2797FDA095BA2F7C
:101F100081709070A070B070569547953795279551
:101F2000822B932BA42BB52B84839583A683B78315
:101F300082819381019693838283DF0101C0D20164
:101F4000CD01CDB7DEB7E2E10C949B32A0E2B0E068
:101F5000ECEAFFE00C948B3269837A838B839C8359
:101F60002D833E834F835887E9E0EE2EF12CEC0E53
:101F7000FD1ECE010196B7010E94E4148E010F5E92
:101F80001F4FCE010596B8010E94E4148A8991E0A2
:101F900089278A8BC701B801AE01475E5F4F0E9457
:101FA0005A0E0E940F14A096E6E00C94A732A0E20D
:101FB000B0E0EDEDFFE00C948B3269837A838B8384
:101FC0009C832D833E834F835887F9E0EF2EF12CBD
:101FD000EC0EFD1ECE010196B7010E94E4148E01A5
:101FE0000F5E1F4FCE010596B8010E94E414C70191
:101FF000B801AE01475E5F4F0E945A0E0E940F1457
:10200000A096E6E00C94A732A0E2B0E0EAE0F0E1AE
:102010000C947F3269837A838B839C832D833E83E8
:102020004F835887CE010196BE01675F7F4F0E94A4
:10203000E414CE010596BE016F5E7F4F0E94E4144A
:102040009985923088F089898230C8F0943019F4EB
:10205000823051F404C0843029F4923081F485E652
:1020600092E0C6C0923049F420E09A858A8998139C
:1020700021E02A87CE010996BBC0823049F420E0D6
:102080009A858A89981321E02A8BCE014196B0C0A7
:102090002D843E844F8458886D887E888F88988CE4
:1020A000EE24FF248701AA24BB24650140E050E010
:1020B00060E070E0E0E0F0E0C10181709070892B99
:1020C000E9F0E60CF71C081D191D9A01AB012A0D59
:1020D0003B1D4C1D5D1D80E090E0A0E0B0E0E614EB
:1020E000F7040805190520F481E090E0A0E0B0E0D5
:1020F000BA01A901480F591F6A1F7B1FAA0CBB1CFC
:10210000CC1CDD1C97FE08C081E090E0A0E0B0E0B0
:10211000A82AB92ACA2ADB2A3196E032F10549F009
:10212000660C771C881C991C569447943794279406
:10213000C3CFFA85EA892B893C898B859C85280F3A
:10214000391F2E5F3F4F17C0CA0181709070892BD5
:1021500061F016950795F794E79480E090E0A0E091
:10216000B0E8E82AF92A0A2B1B2B76956795579534
:1021700047952F5F3F4F77FDE7CF0CC0440F551FAA
:10218000661F771F17FD4160EE0CFF1C001F111F1B
:1021900021503040403090E0590790E0690790E4CA
:1021A000790760F32B8F3C8FDB01CA018F7790702A
:1021B000A070B07080349105A105B10561F447FDB0
:1021C0000AC0E114F1040105110529F0405C5F4FDC
:1021D0006F4F7F4F40781A8EFE1711F081E08A8F83
:1021E0004D8F5E8F6F8F78A383E0898FCE014996E4
:1021F0000E940F14A096E2E10C949B32A8E1B0E09B
:10220000E4E0F1E10C94873269837A838B839C83C9
:102210002D833E834F835887B9E0EB2EF12CEC0ED3
:10222000FD1ECE010196B7010E94E4148E010F5EDF
:102230001F4FCE010596B8010E94E4142985223073
:1022400008F47EC03989323010F4B8017CC08A8528
:102250009A8989278A87243011F0223031F4231794
:1022600009F06EC065E672E06EC0343039F41D8648
:102270001E861F86188A1C861B8604C0323021F4F5
:1022800084E08987B7015FC02B853C858B899C8959
:10229000281B390B3C872B87ED84FE840F8518891A
:1022A000AD88BE88CF88D88CEA14FB040C051D05C8
:1022B00040F4EE0CFF1C001F111F215030403C87E2
:1022C0002B8720E030E040E050E080E090E0A0E0AC
:1022D000B0E460E070E0EA14FB040C051D0540F07A
:1022E000282B392B4A2B5B2BEA18FB080C091D09FC
:1022F000B695A79597958795EE0CFF1C001F111FAB
:102300006F5F7F4F6F31710531F7DA01C9018F7748
:102310009070A070B07080349105A105B10561F492
:1023200027FD0AC0E114F1040105110529F0205C24
:102330003F4F4F4F5F4F20782D873E874F87588BF9
:10234000BE01675F7F4FCB010E940F146896EAE0E1
:102350000C94A332A8E1B0E0E0EBF1E10C948B32F5
:1023600069837A838B839C832D833E834F83588735
:1023700089E0E82EF12CEC0EFD1ECE010196B7018E
:102380000E94E4148E010F5E1F4FCE010596B80126
:102390000E94E4148985823040F08989823028F0D7
:1023A000C701B8010E945C1501C08FEF6896E6E096
:1023B0000C94A732A8E1B0E0E0EEF1E10C948B328E
:1023C00069837A838B839C832D833E834F835887D5
:1023D00089E0E82EF12CEC0EFD1ECE010196B7012E
:1023E0000E94E4148E010F5E1F4FCE010596B801C6
:1023F0000E94E4148985823040F08989823028F077
:10240000C701B8010E945C1501C08FEF6896E6E035
:102410000C94A732A8E1B0E0E0E1F2E10C948B3239
:1024200069837A838B839C832D833E834F83588774
:1024300089E0E82EF12CEC0EFD1ECE010196B701CD
:102440000E94E4148E010F5E1F4FCE010596B80165
:102450000E94E4148985823040F08989823028F016
:10246000C701B8010E945C1501C081E06896E6E0F2
:102470000C94A732A8E1B0E0E0E4F2E10C948B32D6
:1024800069837A838B839C832D833E834F83588714
:1024900089E0E82EF12CEC0EFD1ECE010196B7016D
:1024A0000E94E4148E010F5E1F4FCE010596B80105
:1024B0000E94E4148985823040F08989823028F0B6
:1024C000C701B8010E945C1501C081E06896E6E092
:1024D0000C94A732A8E1B0E0E0E7F2E10C948F326F
:1024E00069837A838B839C832D833E834F835887B4
:1024F000CE010196BE01675F7F4F0E94E414CE01BA
:102500000596BE016F5E7F4F0E94E414898582307C
:1025100028F020E030E08989823010F421E030E0BA
:10252000822F6896E2E00C94AB32A8E0B0E0EBE9D1
:10253000F2E10C9488329B01AC0183E08983DA01DB
:10254000C9018827B7FD83959927AA27BB27B82EED
:10255000211531054105510519F482E089833AC0FE
:102560008823A9F0203080E0380780E0480780E821
:10257000580729F460E070E080E09FEC30C0EE2462
:10258000FF248701E21AF30A040B150B02C079013C
:102590008A018EE1C82ED12CDC82CB82ED82FE82B4
:1025A0000F831887C801B7010E94C013019718163E
:1025B000190684F4082E04C0EE0CFF1C001F111F26
:1025C0000A94D2F7ED82FE820F831887C81AD90ABF
:1025D000DC82CB82BA82CE0101960E940F1428962B
:1025E000E9E00C94A432ACE0B0E0E9EFF2E10C9445
:1025F0008F3269837A838B839C83CE010196BE01DF
:102600006B5F7F4F0E94E4148D81823061F18230D4
:1026100050F1843021F48E81882351F12EC02F8116
:10262000388537FD20C06E812F3131051CF06623BF
:10263000F9F023C08EE190E0821B930B29853A8547
:102640004B855C8504C056954795379527958A95A7
:10265000D2F76623B1F050954095309521953F4FC4
:102660004F4F5F4F0EC020E030E040E050E009C027
:102670002FEF3FEF4FEF5FE704C020E030E040E096
:1026800050E8B901CA012C96E2E00C94AB32A8E004
:10269000B0E0EDE4F3E10C9487327B018C0161152D
:1026A00071058105910519F482E0898360C083E09A
:1026B00089838EE1C82ED12CDC82CB82ED82FE8212
:1026C0000F831887C801B7010E94C013FC0131971E
:1026D000F7FF3BC0222733272E1B3F0B5701680112
:1026E000022E04C0D694C794B794A7940A94D2F744
:1026F00040E050E060E070E081E090E0A0E0B0E019
:1027000004C0880F991FAA1FBB1F2A95D2F70197F3
:10271000A109B1098E219F21A023B1230097A10512
:10272000B10521F041E050E060E070E04A295B290A
:102730006C297D294D835E836F8378878EE190E0DD
:102740008E1B9F0B9C838B8312C0309781F00E2EC3
:1027500004C0EE0CFF1C001F111F0A94D2F7ED827B
:10276000FE820F831887CE1ADF0ADC82CB821A82A0
:10277000CE0101960E940F142896EAE00C94A33231
:10278000EF92FF920F931F937B018C0180E0E8167C
:1027900080E0F80681E0080780E0180788F48FEFF2
:1027A000E816F1040105110531F028F088E090E009
:1027B000A0E0B0E017C080E090E0A0E0B0E012C080
:1027C00080E0E81680E0F80680E0080781E018075E
:1027D00028F088E190E0A0E0B0E004C080E190E063
:1027E000A0E0B0E020E230E040E050E0281B390BF0
:1027F0004A0B5B0B04C016950795F794E7948A95EE
:10280000D2F7F701E359FD4F8081281B31094109B7
:102810005109C9011F910F91FF90EF900895DF9228
:10282000EF92FF920F931F93FC01E480F5800681E5
:102830001781D1808081823048F480E090E0A0E16F
:10284000B0E0E82AF92A0A2B1B2BA5C0843009F432
:102850009FC0823021F4EE24FF24870105C0E114DB
:10286000F1040105110519F4E0E0F0E096C0628181
:1028700073819FEF623879070CF05BC022E83FEF6D
:10288000261B370B2A3131052CF020E030E040E0E8
:1028900050E02AC0B801A701022E04C076956795C2
:1028A000579547950A94D2F781E090E0A0E0B0E018
:1028B00004C0880F991FAA1FBB1F2A95D2F7019742
:1028C000A109B1098E219F21A023B1230097A10561
:1028D000B10521F081E090E0A0E0B0E09A01AB0109
:1028E000282B392B4A2B5B2BDA01C9018F7790708B
:1028F000A070B07080349105A105B10539F427FFAF
:1029000009C0205C3F4F4F4F5F4F04C0215C3F4FD9
:102910004F4F5F4FE0E0F0E02030A0E03A07A0E04A
:102920004A07A0E45A0710F0E1E0F0E079018A01DB
:1029300027C06038710564F5FB01E158FF4FD801ED
:10294000C7018F779070A070B07080349105A10599
:10295000B10539F4E7FE0DC080E490E0A0E0B0E0FE
:1029600004C08FE390E0A0E0B0E0E80EF91E0A1F7B
:102970001B1F17FF05C016950795F794E79431962E
:1029800087E016950795F794E7948A95D1F705C0E7
:10299000EE24FF248701EFEFF0E06E2F67956627A6
:1029A0006795902F9F77D794DD24D7948E2F8695A7
:1029B000492F462B582F5D29B701CA011F910F914E
:1029C000FF90EF90DF900895FC01DB014081518181
:1029D0002281622F6F7770E0221F2227221F9381AE
:1029E000892F880F822B282F30E0991F9927991F54
:1029F00011969C93119721153105A9F541155105A3
:102A00006105710511F482E037C082E89FEF1396EB
:102A10009C938E9312979A01AB0167E0220F331FAC
:102A2000441F551F6A95D1F783E08C930DC0220F88
:102A3000331F441F551F12968D919C911397019738
:102A400013969C938E931297203080E0380780E095
:102A5000480780E4580758F314962D933D934D93FF
:102A60005C93179708952F3F310579F4411551056F
:102A70006105710519F484E08C93089564FF03C027
:102A800081E08C9312C01C9210C02F5730401396D7
:102A90003C932E93129783E08C9387E0440F551F4D
:102AA000661F771F8A95D1F7706414964D935D93D6
:102AB0006D937C93179708951F93DC01FB019C9104
:102AC000923008F447C08081823008F443C09430CB
:102AD00051F411961C91843099F58181682F70E032
:102AE000611B71093FC0843021F0923031F4823093
:102AF000B9F18181882389F12DC011961C9111971C
:102B00008230F1F081811817D9F412962D913C9101
:102B10001397828193818217930794F028173907BE
:102B2000BCF014968D919D910D90BC91A02D2481A7
:102B3000358146815781281739074A075B0718F402
:102B4000112341F00AC082179307A407B50740F488
:102B5000112319F061E070E005C06FEF7FEF02C054
:102B600060E070E0CB011F910895883008F078C0D4
:102B7000E82FF0E0EE0FFF1FE557F94F71836083F8
:102B80008330D9F0843030F4813009F444C082308D
:102B900060F439C0853051F18530D8F0863009F4C1
:102BA00046C0873009F05CC04FC0809169008C7FBF
:102BB000842B80936900E89A089580916900440FFE
:102BC000551F440F551F837F842B80936900E99A1A
:102BD00008958091690074E0440F551F7A95E1F7DC
:102BE0008F7C842B80936900EA9A08958091690014
:102BF00066E0440F551F6A95E1F78F73842B80932D
:102C00006900EB9A089580916A008C7F842B8093F1
:102C10006A00EC9A089580916A00440F551F440F92
:102C2000551F837F842B80936A00ED9A08958091CD
:102C30006A0024E0440F551F2A95E1F78F7C842B0E
:102C400080936A00EE9A089580916A0096E0440F9E
:102C5000551F9A95E1F78F73842B80936A00EF9A42
:102C60000895883048F5833091F0843028F481301D
:102C7000B1F0823050F411C0853069F0853048F0F1
:102C8000863079F0873081F40EC0E8980DC0E9985D
:102C90000BC0EA9809C0EB9807C0EC9805C0ED9806
:102CA00003C0EE9801C0EF98E82FF0E0EE0FFF1F91
:102CB000E557F94F1182108208951F920F920FB6B7
:102CC0000F920BB60F9211242F933F934F935F9364
:102CD0006F937F938F939F93AF93BF93EF93FF93E4
:102CE00080918F0690919006892B29F0E0918F06B4
:102CF000F09190061995FF91EF91BF91AF919F913F
:102D00008F917F916F915F914F913F912F910F9094
:102D10000BBE0F900FBE0F901F9018951F920F9231
:102D20000FB60F920BB60F9211242F933F934F9330
:102D30005F936F937F938F939F93AF93BF93EF9323
:102D4000FF938091910690919206892B29F0E09152
:102D50009106F09192061995FF91EF91BF91AF9175
:102D60009F918F917F916F915F914F913F912F91A3
:102D70000F900BBE0F900FBE0F901F9018951F92D3
:102D80000F920FB60F920BB60F9211242F933F9311
:102D90004F935F936F937F938F939F93AF93BF9363
:102DA000EF93FF938091930690919406892B29F0DD
:102DB000E0919306F09194061995FF91EF91BF91E0
:102DC000AF919F918F917F916F915F914F913F91C3
:102DD0002F910F900BBE0F900FBE0F901F90189564
:102DE0001F920F920FB60F920BB60F9211242F93D2
:102DF0003F934F935F936F937F938F939F93AF9383
:102E0000BF93EF93FF938091950690919606892B3F
:102E100029F0E0919506F09196061995FF91EF91B2
:102E2000BF91AF919F918F917F916F915F914F91E2
:102E30003F912F910F900BBE0F900FBE0F901F90E0
:102E400018951F920F920FB60F920BB60F92112486
:102E50002F933F934F935F936F937F938F939F93A2
:102E6000AF93BF93EF93FF9380918B0690918C0665
:102E7000892B29F0E0918B06F0918C061995FF9132
:102E8000EF91BF91AF919F918F917F916F915F91E2
:102E90004F913F912F910F900BBE0F900FBE0F904F
:102EA0001F9018951F920F920FB60F920BB60F92AC
:102EB00011242F933F934F935F936F937F938F933F
:102EC0009F93AF93BF93EF93FF9380918D06909163
:102ED0008E06892B29F0E0918D06F0918E061995CA
:102EE000FF91EF91BF91AF919F918F917F916F91E2
:102EF0005F914F913F912F910F900BBE0F900FBE9E
:102F00000F901F9018951F920F920FB60F920BB64D
:102F10000F9211242F933F934F935F936F937F935F
:102F20008F939F93AF93BF93EF93FF9380919706F7
:102F300090919806892B29F0E0919706F0919806D8
:102F40001995FF91EF91BF91AF919F918F917F91D3
:102F50006F915F914F913F912F910F900BBE0F900A
:102F60000FBE0F901F9018951F920F920FB60F92E1
:102F70000BB60F9211242F933F934F935F936F9350
:102F80007F938F939F93AF93BF93EF93FF93809122
:102F9000990690919A06892B29F0E0919906F09173
:102FA0009A061995FF91EF91BF91AF919F918F91E3
:102FB0007F916F915F914F913F912F910F900BBE39
:102FC0000F900FBE0F901F9018951F920F920FB683
:102FD0000F9211242F933F938F939F93AF93BF939F
:102FE00080919F069091A006A091A106B091A206A3
:102FF0003091A3060196A11DB11D232F2D5F2D3702
:1030000020F02D570196A11DB11D2093A30680939A
:103010009F069093A006A093A106B093A20680916C
:103020009B0690919C06A0919D06B0919E060196EC
:10303000A11DB11D80939B0690939C06A0939D06B5
:10304000B0939E06BF91AF919F918F913F912F9129
:103050000F900FBE0F901F9018958FB7F894209186
:103060009F063091A0064091A1065091A2068FBF05
:10307000B901CA0108959FB7F89420919B06309139
:103080009C0640919D0650919E0686B5A89B06C061
:103090008F3F21F02F5F3F4F4F4F5F4F9FBF542F08
:1030A000432F322F2227280F311D411D511D82E051
:1030B000220F331F441F551F8A95D1F7B901CA014A
:1030C00008959B01AC017FB7F89480919B06909185
:1030D0009C06A0919D06B0919E0666B5A89B05C072
:1030E0006F3F19F00196A11DB11D7FBFBA2FA92F07
:1030F000982F8827860F911DA11DB11D62E0880FB2
:10310000991FAA1FBB1F6A95D1F7BC012DC0FFB73D
:10311000F89480919B0690919C06A0919D06B09199
:103120009E06E6B5A89B05C0EF3F19F00196A11DCC
:10313000B11DFFBFBA2FA92F982F88278E0F911D81
:10314000A11DB11DE2E0880F991FAA1FBB1FEA95C0
:10315000D1F7861B970B885E9340C8F22150304010
:103160004040504068517C4F2115310541055105C3
:1031700071F60895019739F0880F991F880F991FEC
:1031800002970197F1F70895789484B5826084BD21
:1031900084B5816084BD85B5826085BD85B581605B
:1031A00085BDEEE6F0E0808181608083E1E8F0E0BB
:1031B0001082808182608083808181608083E0E8EA
:1031C000F0E0808181608083E1EBF0E080818460C9
:1031D0008083E0EBF0E0808181608083E1E9F0E0D2
:1031E000808182608083808181608083E0E9F0E07B
:1031F000808181608083E1EAF0E080818260808369
:10320000808181608083E0EAF0E08081816080835A
:10321000E1E2F1E08081826080838081816080834F
:10322000E0E2F1E0808181608083EAE7F0E0808184
:1032300084608083808182608083808181608083DC
:103240008081806880831092C100089580936D030F
:103250000895382F863308F0365320917B00832F52
:1032600086958695869590E08170907043E0880FF2
:10327000991F4A95E1F7277F282B20937B00377011
:1032800080916D038295880F880F807C832B8093BB
:103290007C0080917A00806480937A0080917A002B
:1032A00086FDFCCF2091780040917900942F80E03A
:1032B00030E0282B392BC90108951F93CF93DF935A
:1032C000182FEB0161E00E943D1A209709F4CAC053
:1032D000CF3FD10509F4C9C0E12FF0E0E254FE4F21
:1032E0008491893009F466C08A30B0F48430F1F1F9
:1032F000853040F4823059F1833070F5813009F027
:10330000AEC020C0873009F443C0883008F048C000
:10331000863009F0A4C034C08D3009F478C08E30F6
:1033200038F48B3009F45AC08C3008F066C04CC0B9
:10333000803109F480C0813109F487C08F3009F0F1
:103340008EC06FC084B5806884BDC7BD92C084B58F
:10335000806284BDC8BD8DC08091800080688093EC
:103360008000D0938900C093880083C08091800042
:10337000806280938000D0938B00C0938A0079C0D4
:103380008091B00080688093B000C093B30071C09A
:103390008091B00080628093B000C093B40069C097
:1033A00080919000806880939000D0939900C093A2
:1033B00098005FC080919000806280939000D093CD
:1033C0009B00C0939A0055C08091900088608093C4
:1033D0009000D0939D00C0939C004BC08091A000B2
:1033E00080688093A0008091A0008F7B8093A000D4
:1033F000D093A900C093A8003CC08091A000806237
:103400008093A000D093AB00C093AA0032C08091FB
:10341000A00088608093A000D093AD00C093AC0062
:1034200028C080912001806880932001D0932901D9
:10343000C09328011EC080912001806280932001EA
:10344000D0932B01C0932A0114C080912001886081
:1034500080932001D0932D01C0932C010AC0C03865
:10346000D1051CF4812F60E002C0812F61E00E9431
:10347000F01ADF91CF911F910895CF93DF93482FDA
:1034800050E0CA0188589E4FFC0134914E5C5E4F5B
:10349000FA018491882369F190E0880F991FFC015B
:1034A000EC51FF4FA591B491FC01E250FF4FC59143
:1034B000D491662351F42FB7F8948C91932F909563
:1034C00089238C93888189230BC0623061F42FB7E4
:1034D000F8948C91932F909589238C938881832BDA
:1034E00088832FBF06C09FB7F8948C91832B8C9351
:1034F0009FBFDF91CF910895893009F449C08A3088
:10350000A0F4843051F1853040F4823079F1833079
:1035100000F5813009F063C026C0873079F188302A
:1035200098F5863009F05BC025C08D3009F442C0A3
:103530008E3028F48B30B1F18C30C0F52DC0803145
:1035400009F442C0813109F445C08F3009F047C009
:1035500037C0809180008F7703C0809180008F7D7D
:1035600080938000089584B58F7702C084B58F7DE5
:1035700084BD08958091B0008F7703C08091B00022
:103580008F7D8093B0000895809190008F7707C061
:10359000809190008F7D03C080919000877F809301
:1035A000900008958091A0008F7707C08091A000BF
:1035B0008F7D03C08091A000877F8093A000089535
:1035C000809120018F7703C0809120018F7D8093AF
:1035D0002001089580912001877F80932001089524
:1035E000FF920F931F93F62E482F50E0CA0182548A
:1035F0009E4FFC012491CA0188589E4FFC011491F2
:103600004E5C5E4FFA0104910023C9F0222319F0A9
:10361000822F0E947C1AE02FF0E0EE0FFF1FE25095
:10362000FF4FA591B4919FB7F894FF2021F48C919E
:103630001095812302C08C91812B8C939FBF1F9189
:103640000F91FF9008950F931F93482F50E0CA01E8
:1036500082549E4FFC012491CA0188589E4FFC0160
:1036600004914E5C5E4FFA011491112319F420E08D
:1036700030E015C0222319F0822F0E947C1A812F7E
:1036800090E0880F991F885E9E4FFC01A591B49130
:103690008C9120E030E0802311F021E030E0C9017E
:1036A0001F910F9108958F929F92AF92BF92CF92E8
:1036B000DF92EF92FF920F931F93CF93DF93A82F88
:1036C000B0E0CD0188589E4FFC018490AE5CBE4FA7
:1036D000FD018491662311F4992401C0982C6FEFA9
:1036E000A62E6FEFB62E6FEFC62E6FE0D62EA2225B
:1036F000B322C422D522682F70E0660F771F685E60
:103700007E4FEE24FF248701FB01A591B4910BC0ED
:10371000EA14FB040C051D0509F44EC00894E11CD5
:10372000F11C011D111D8C918821891589F30CC094
:10373000EA14FB040C051D0509F43EC00894E11CC5
:10374000F11C011D111D03C0FB01A591B4918C91C9
:103750008821891569F720E030E040E050E0FB0166
:10376000C591D4910FC0DA01C9018E0D9F1DA01F14
:10377000B11F8A159B05AC05BD05F1F02F5F3F4FCA
:103780004F4F5F4F88818821891569F3CA01B901BC
:1037900025E130E040E050E00E942A329B01AC017C
:1037A000205F3F4F4F4F5F4F84E0569547953795C9
:1037B00027958A95D1F704C020E030E040E050E042
:1037C000B901CA01DF91CF911F910F91FF90EF9046
:1037D000DF90CF90BF90AF909F908F900895089505
:1037E0001F920F920FB60F920BB60F9211242F93C8
:1037F0003F934F938F939F93EF93FF938091C000DC
:1038000082FD1DC04091C6002091E4063091E5067E
:103810002F5F3F4F2F7330708091E6069091E7063F
:103820002817390771F0E091E406F091E506EC55B0
:10383000F94F40833093E5062093E40602C080915F
:10384000C600FF91EF919F918F914F913F912F91E2
:103850000F900BBE0F900FBE0F901F9018950895FC
:103860001F920F920FB60F920BB60F9211242F9347
:103870003F934F938F939F93EF93FF938091C80053
:1038800082FD1DC04091CE0020916C0730916D07E4
:103890002F5F3F4F2F73307080916E0790916F07AD
:1038A0002817390771F0E0916C07F0916D07E45D1E
:1038B000F84F408330936D0720936C0702C08091CE
:1038C000CE00FF91EF919F918F914F913F912F915A
:1038D0000F900BBE0F900FBE0F901F90189508957C
:1038E0001F920F920FB60F920BB60F9211242F93C7
:1038F0003F934F938F939F93EF93FF938091D000CB
:1039000082FD1DC04091D6002091F4073091F5074B
:103910002F5F3F4F2F7330708091F6079091F7071C
:103920002817390771F0E091F407F091F507EC548E
:10393000F84F40833093F5072093F40702C080913D
:10394000D600FF91EF919F918F914F913F912F91D1
:103950000F900BBE0F900FBE0F901F9018950895FB
:103960001F920F920FB60F920BB60F9211242F9346
:103970003F934F938F939F93EF93FF9380913001E9
:1039800082FD1DC04091360120917C0830917D0858
:103990002F5F3F4F2F73307080917E0890917F088A
:1039A0002817390771F0E0917C08F0917D08E45CFC
:1039B000F74F408330937D0820937C0802C08091AC
:1039C0003601FF91EF919F918F914F913F912F91F0
:1039D0000F900BBE0F900FBE0F901F901895E091A7
:1039E000D008F091D108E05CFF4F81919191208146
:1039F0003181821B930B8F739070892B11F00E9481
:103A0000EF1BE091F208F091F308E05CFF4F819129
:103A1000919120813181821B930B8F739070892B40
:103A200011F00E942F1CE0911409F0911509E05C3F
:103A3000FF4F8191919120813181821B930B8F7374
:103A40009070892B11F00E946F1CE0913609F09163
:103A50003709E05CFF4F8191919120813181821B78
:103A6000930B8F739070892B11F00E94AF1C0895F7
:103A70001F920F920FB60F920BB60F9211242F9335
:103A80003F938F939F93EF93FF932091280730915B
:103A9000290780912A0790912B072817390731F4BD
:103AA0008091C1008F7D8093C10014C0E0912A07EE
:103AB000F0912B07E851F94F208180912A079091CE
:103AC0002B0701968F73907090932B0780932A0792
:103AD0002093C600FF91EF919F918F913F912F917D
:103AE0000F900BBE0F900FBE0F901F9018951F9256
:103AF0000F920FB60F920BB60F9211242F933F9394
:103B00008F939F93EF93FF932091B0073091B1076C
:103B10008091B2079091B3072817390731F480914B
:103B2000C9008F7D8093C90014C0E091B207F09165
:103B3000B307E059F84F20818091B2079091B30705
:103B400001968F7390709093B3078093B207209380
:103B5000CE00FF91EF919F918F913F912F910F9008
:103B60000BBE0F900FBE0F901F9018951F920F92D3
:103B70000FB60F920BB60F9211242F933F938F9392
:103B80009F93EF93FF9320913808309139088091EB
:103B90003A0890913B082817390731F48091D100F9
:103BA0008F7D8093D10014C0E0913A08F0913B08DA
:103BB000E850F84F208180913A0890913B08019697
:103BC0008F73907090933B0880933A082093D600AF
:103BD000FF91EF919F918F913F912F910F900BBE8D
:103BE0000F900FBE0F901F9018951F920F920FB657
:103BF0000F920BB60F9211242F933F938F939F93A5
:103C0000EF93FF932091C0083091C1088091C208C2
:103C10009091C3082817390731F4809131018F7DC5
:103C20008093310114C0E091C208F091C308E058BC
:103C3000F74F20818091C2089091C30801968F733D
:103C400090709093C3088093C20820933601FF912F
:103C5000EF919F918F913F912F910F900BBE0F90FD
:103C60000FBE0F901F9018958F929F92AF92BF92A8
:103C7000CF92DF92EF92FF920F931F93DF93CF9338
:103C8000CDB7DEB7FC011382128288EE93E0A0E08C
:103C9000B0E084839583A683B78388E793E091831C
:103CA00080837587648757874687318B208B138B7A
:103CB000028BF58AE48AD78AC68AB18EA08E938E4B
:103CC000828E8889848F8989858F8A89868F8B895E
:103CD000878F8C8980A3CF91DF911F910F91FF90E7
:103CE000EF90DF90CF90BF90AF909F908F9008950E
:103CF0008F929F92AF92BF92CF92DF92EF92FF92FC
:103D00000F931F93DF93CF93CDB7DEB7FC011382E0
:103D1000128288EE93E0A0E0B0E084839583A683CE
:103D2000B78388E793E0918380837587648757879B
:103D30004687318B208B138B028BF58AE48AD78AD6
:103D4000C68AB18EA08E938E828E8889848F89894F
:103D5000858F8A89868F8B89878F8C8980A3CF9165
:103D6000DF911F910F91FF90EF90DF90CF90BF9068
:103D7000AF909F908F900895AF92BF92DF92EF9295
:103D8000FF920F931F93CF93DF93EC017A018B0186
:103D9000DD24403081EE580780E0680780E0780736
:103DA00011F0DD24D39491E0A92EB12CEC89FD898A
:103DB000DD2069F0C50108A002C0880F991F0A9490
:103DC000E2F7808360E079E08DE390E005C0108247
:103DD00060E874E88EE190E0A80197010E945D32EE
:103DE0002150304040405040569547953795279593
:103DF00080E12030380720F0DD2011F0DD24D6CF1F
:103E0000E889F9893083EA89FB89208319A2EE8940
:103E1000FF89408121E030E0C9010C8C02C0880F8D
:103E2000991F0A94E2F7482B4083EE89FF8940816D
:103E3000C9010D8C02C0880F991F0A94E2F7482B24
:103E40004083EE89FF894081C9010E8C02C0880F32
:103E5000991F0A94E2F7482B4083EE89FF898081FD
:103E60000F8C02C0220F331F0A94E2F720952823FB
:103E70002083DF91CF911F910F91FF90EF90DF9002
:103E8000BF90AF900895AF92BF92CF92DF92EF9222
:103E9000FF920F931F93CF93DF93EC017A018B0175
:103EA000C22EDD24403081EE580780E0680780E0B4
:103EB000780711F0DD24D39471E0A72EB12CEC89A2
:103EC000FD89DD2069F0C50108A002C0880F991F97
:103ED0000A94E2F7808360E079E08DE390E005C02A
:103EE000108260E874E88EE190E0A80197010E94DA
:103EF0005D322150304040405040569547953795AF
:103F0000279580E12030380720F0DD2011F0DD24F6
:103F1000D6CFE889F9893083EA89FB892083E88D47
:103F2000F98DC082EE89FF89408121E030E0C9012E
:103F30000C8C02C0880F991F0A94E2F7482B40832B
:103F4000EE89FF894081C9010D8C02C0880F991F3D
:103F50000A94E2F7482B4083EE89FF894081C9012A
:103F60000E8C02C0880F991F0A94E2F7482B4083F9
:103F7000EE89FF8980810F8C02C0220F331F0A94C3
:103F8000E2F7209528232083DF91CF911F910F9195
:103F9000FF90EF90DF90CF90BF90AF900895CF93B8
:103FA000DF93DC011E968D919C911F97EC01C05C04
:103FB000DF4FFC01EE5BFF4F2881398180819181C9
:103FC00028173907C9F75696ED91FC91579740810C
:103FD00021E030E0C9015C960C905C9702C0880F2C
:103FE000991F0A94E2F78095842380835696ED9179
:103FF000FC9157974081C9015D960C905D9702C076
:10400000880F991F0A94E2F780958423808356963F
:10401000ED91FC9157974081C9015E960C905E9797
:1040200002C0880F991F0A94E2F780958423808349
:104030005696ED91FC91579780815F960C905F9713
:1040400002C0220F331F0A94E2F720952823208311
:104050001C96ED91FC911D97EE5BFF4F8081918145
:1040600092938293DF91CF910895DC011C96ED919C
:10407000FC911D97E05CFF4F2191319180819181EE
:10408000281B390B2F733070C9010895DC011C9671
:10409000ED91FC911D97E05CFF4F20813181E05450
:1040A000F040DF01AE5BBF4F8D919C9111972817B7
:1040B000390719F42FEF3FEF07C08D919C91E80F5E
:1040C000F91F8081282F30E0C9010895DC011C967A
:1040D000ED91FC911D97E05CFF4F20813181E05410
:1040E000F040DF01AE5BBF4F8D919C911197281777
:1040F000390719F42FEF3FEF10C08D919C91119764
:10410000E80FF91F20818D919C91119701968F7373
:10411000907011969C938E9330E0C9010895DC0154
:1041200091968C919197882339F05496ED91FC915A
:104130005597808186FFF9CF91961C920895CF9371
:10414000DF93EC01EE85FF85E05CFF4F208131813C
:10415000E054F0402F5F3F4F2F733070DF01AE5BB4
:10416000BF4F8D919C91119728173907D1F3E05CCF
:10417000FF4F80819181E054F040E80FF91F608388
:10418000EE85FF85E05CFF4F31832083EE89FF8958
:10419000208181E090E00F8C02C0880F991F0A9463
:1041A000E2F7282B208381E089A3EC89FD898081B7
:1041B0008064808381E090E0DF91CF91089581E079
:1041C00008951F931092C7081092C60828EE33E096
:1041D00040E050E02093C8083093C9084093CA08D3
:1041E0005093CB0868E773E07093C5086093C408E8
:1041F00084EA96E09093D1088093D00888EE96E008
:104200009093D3088093D20885EC90E09093D508E2
:104210008093D40884EC90E09093D7088093D608DC
:1042200080EC90E09093D9088093D80881EC90E0DE
:104230009093DB088093DA0882EC90E09093DD089D
:104240008093DC0886EC90E09093DF088093DE0892
:1042500014E01093E008B3E0B093E108A7E0A09366
:10426000E208F5E0F093E308E1E0E093E40810925F
:10427000E9081092E8082093EA083093EB0840938D
:10428000EC085093ED087093E7086093E6088CE221
:1042900097E09093F3088093F20880E797E090937B
:1042A000F5088093F4088DEC90E09093F7088093E4
:1042B000F6088CEC90E09093F9088093F80888EC6D
:1042C00090E09093FB088093FA0889EC90E090933B
:1042D000FD088093FC088AEC90E09093FF0880939F
:1042E000FE088EEC90E090930109809300091093F2
:1042F0000209B0930309A0930409F0930509E09320
:10430000060910920B0910920A0920930C093093A8
:104310000D0940930E0950930F097093090960939A
:10432000080984EB97E0909315098093140988EFAE
:1043300097E0909317098093160985ED90E090938C
:1043400019098093180984ED90E090931B098093DC
:104350001A0980ED90E090931D0980931C0981ED6E
:1043600090E090931F0980931E0982ED90E0909356
:1043700021098093200986ED90E090932309809392
:10438000220910932409B0932509A0932609F093DC
:104390002709E093280910922D0910922C092093E7
:1043A0002E0930932F0940933009509331097093AF
:1043B0002B0960932A098CE398E090933709809346
:1043C000360980E898E0909339098093380985E3AD
:1043D00091E090933B0980933A0984E391E09093B4
:1043E0003D0980933C0980E391E090933F098093DD
:1043F0003E0981E391E0909341098093400982E373
:1044000091E0909343098093420986E391E0909371
:1044100045098093440910934609B0934709A09336
:104420004809F0934909E0934A091F9108950F93B1
:10443000FC0188E993E09183808362834383248332
:1044400005830F9108950F93FC0188E993E0918310
:10445000808362834383248305830F91089588E9D1
:1044600093E090934D0980934C0910924E0910925D
:104470004F09109250091092510908958F929F92FE
:10448000AF92BF92CF92DF92EF92FF920F931F9362
:10449000CF93DF934C016B017C01AA24BB24C0E0C5
:1044A000D0E0C601F70162814AE050E00E94A724F3
:1044B0008C01C6016EE20E945D23080F191FA00E39
:1044C000B11E21960894E11CF11CC330D10549F7B7
:1044D000C601F40165814AE050E00E94A7249501DD
:1044E000280F391FC901DF91CF911F910F91FF90C4
:1044F000EF90DF90CF90BF90AF909F908F900895F6
:104500009C012E5F3F4FCB01B90144E050E00E9477
:10451000FB329C0180E0232B09F481E00895DF93B6
:10452000CF9300D00F92CDB7DEB7FC014283538307
:10453000648375830F900F900F900F90CF91DF9150
:1045400008959C01FB0180819181A281B381F901D1
:1045500082839383A483B583C90108959C01FB01E1
:1045600088E993E0D9018D939C9380819181A28108
:10457000B381F90182839383A483B58308959C0159
:10458000FB0188E993E0D9018D939C93808191810F
:10459000A281B381F90182839383A483B5830895B3
:1045A000DF93CF9300D00F92CDB7DEB7FC0188E93F
:1045B00093E09183808342835383648375830F9058
:1045C0000F900F900F90CF91DF910895DF93CF93CD
:1045D00000D00F92CDB7DEB7FC0188E993E091835C
:1045E000808342835383648375830F900F900F9071
:1045F0000F90CF91DF910895FC0188E993E09183BA
:10460000808312821382148215820895FC0188E946
:1046100093E091838083128213821482158208951D
:10462000CF92DF92EF92FF920F931F93CF93DF937E
:104630007C016B018A01C0E0D0E00FC0D6016D9112
:104640006D01D701ED91FC910190F081E02DC70142
:104650001995C80FD91F015010400115110571F7A8
:10466000CE01DF91CF911F910F91FF90EF90DF90DE
:10467000CF900895EF92FF920F931F93CF93DF9304
:104680007C018B01C0E0D0E0F8010F5F1F4F649107
:10469000662359F0D701ED91FC910190F081E02D56
:1046A000C7011995C80FD91FEFCFCE01DF91CF9168
:1046B0001F910F91FF90EF900895DC01ED91FC9117
:1046C0000190F081E02D199508959C01DB01ED9199
:1046D000FC910190F081E02DCB01B901199508956D
:1046E000EF92FF920F931F938C01DC01ED91FC91EF
:1046F0000190F081E02D6DE019957C01D801ED91DC
:10470000FC910190F081E02DC8016AE019959C01AF
:104710002E0D3F1DC9011F910F91FF90EF9008953D
:10472000EF92FF920F931F937C010E943A238C011A
:10473000C7010E9470239C01200F311FC9011F91E6
:104740000F91FF90EF900895EF92FF920F931F93B8
:104750007C01DC01ED91FC910190F081E02D199537
:104760008C01C7010E947023080F191FC8011F91F7
:104770000F91FF90EF900895EF92FF920F931F9388
:104780007C01DB01ED91FC910190F081E02DCB01EA
:10479000B70119958C01C7010E947023080F191FDA
:1047A000C8011F910F91FF90EF900895CF93DF9371
:1047B000EC016115710519F420E030E00FC0DB0158
:1047C0000D900020E9F71197A61BB70BE881F9813E
:1047D0000280F381E02DAD0119959C01C901DF91A3
:1047E000CF9108954F925F927F928F929F92AF9256
:1047F000BF92CF92DF92EF92FF920F931F93DF93BE
:10480000CF93CDB7DEB7A1970FB6F894DEBF0FBE3A
:10481000CDBF2C01742ECB01223008F42AE019A25E
:1048200031E2C32ED12CCC0EDD1E822E9924AA2477
:10483000BB24672D752FA50194010E945D3279017B
:104840008A01C801B701A50194010E942A32472DAF
:10485000461B0894C108D1084A3014F4405D01C0D9
:10486000495CF6014083E114F1040105110521F0D2
:104870007E2C5F2DC801DDCFC201B6010E94D62378
:10488000A1960FB6F894DEBF0FBECDBFCF91DF91DA
:104890001F910F91FF90EF90DF90CF90BF90AF905E
:1048A0009F908F907F905F904F900895DC0121152D
:1048B000310541F4ED91FC910190F081E02D642FE0
:1048C000199508950E94F2230895EF92FF920F9395
:1048D0001F937C010E9456248C01C7010E94702303
:1048E0009C01200F311FC9011F910F91FF90EF9084
:1048F0000895EF92FF920F931F939A017B0100E0BE
:1049000010E0B801A7010E9456241F910F91FF905B
:10491000EF900895CF92DF92EF92FF920F931F9343
:104920006C017B019A0100E010E0B801A7010E9430
:1049300056248C01C6010E947023080F191FC8015C
:104940001F910F91FF90EF90DF90CF900895EF921D
:10495000FF920F931F939A01E62EFF2400E010E0D0
:10496000B801A7010E9456241F910F91FF90EF906C
:104970000895CF92DF92EF92FF920F931F936C01F5
:10498000E62E9A01FF2400E010E0B801A7010E9482
:1049900056248C01C6010E947023080F191FC801FC
:1049A0001F910F91FF90EF90DF90CF900895CF92DD
:1049B000DF92EF92FF920F931F93CF93DF93EC015F
:1049C0006A017B012115310541F4E881F9810190EB
:1049D000F081E02D642F19951FC02A303105D1F4E4
:1049E00077FF17C0E881F9810190F081E02D6DE239
:1049F00019958C0144275527BA014C195D096E0998
:104A00007F09CE012AE00E94F2239801280F391F66
:104A100004C02AE00E94F2239C01C901DF91CF91DA
:104A20001F910F91FF90EF90DF90CF900895EF923C
:104A3000FF920F931F937C010E94D7248C01C70122
:104A40000E9470239C01200F311FC9011F910F91FB
:104A5000FF90EF900895EF92FF920F931F937B01C9
:104A60009A010027F7FC0095102FB801A7010E94BA
:104A7000D7241F910F91FF90EF900895CF92DF926E
:104A8000EF92FF920F931F936C017B019A01002715
:104A9000F7FC0095102FB801A7010E94D7248C01C4
:104AA000C6010E947023080F191FC8011F910F91A2
:104AB000FF90EF90DF90CF9008950E94D623089545
:104AC0007F928F929F92AF92BF92CF92DF92EF929E
:104AD000FF920F931F93CF93DF934C017A018B01C9
:104AE000722ECB01BA01A80197010E946A12882395
:104AF00021F0C40166E572E021C0C0E0D0E05701BA
:104B00006801E894D7F8C601B5012FEF3FEF4FE7F2
:104B10005FE70E946A12882351F4C601B5012FEFA6
:104B20003FEF4FE75FE70E943A12181614F0C1E01A
:104B3000D0E0219739F0C4016AE572E00E94D623E3
:104B4000EC0193C0C801B7012FEF3FEF4FE75FE4DF
:104B50000E94AA11181654F0C801B7012FEF3FEFB9
:104B60004FE75FEC0E940A12882324F4C4016EE52B
:104B700072E0E4CFC801B70120E030E040E050E04F
:104B80000E940A1287FD03C0C0E0D0E00EC0D4012D
:104B9000ED91FC910190F081E02DC4016DE2199539
:104BA000EC0117FB109517F9109520E030E040E07C
:104BB0005FE3DD240BC0CA01B90120E030E040E230
:104BC00051E40E94FE109B01AC01D394D71498F3DA
:104BD000C801B7010E94D70F5B016C010E942E0E25
:104BE0007B018C01C401B801A7012AE030E00E94DA
:104BF0005624C80FD91F772039F0C40162E672E04D
:104C00000E94D623C80FD91FC801B7010E944713BD
:104C10009B01AC01C601B5010E94A60F24C020E093
:104C200030E040E251E40E9404107B018C010E94BC
:104C3000F3125B016C01CC24B7FCC094DC2CC401E2
:104C4000B601A5012AE030E00E94D724C80FD91F81
:104C5000C601B5010E9495129B01AC01C801B701C4
:104C60000E94A60F7A947720D1F6CE01DF91CF91E2
:104C70001F910F91FF90EF90DF90CF90BF90AF907A
:104C80009F908F907F9008950E9460250895EF92E5
:104C9000FF920F931F937C010E9460258C01C70136
:104CA0000E947023080F191FC8011F910F91FF90D8
:104CB000EF900895EF92FF920F931F937C010E9453
:104CC000D6238C01C7010E947023080F191FC80149
:104CD0001F910F91FF90EF900895AF92BF92CF92E6
:104CE000DF92EF92FF920F931F93CF93DF935C01BC
:104CF0006B01EE24FF24C0E0D0E010C0D501ED919F
:104D0000FC9100811181C601BE010E94E726682F37
:104D1000C501F8011995E80EF91E2196F601848166
:104D20009581C817D90750F3C701DF91CF911F9123
:104D30000F91FF90EF90DF90CF90BF90AF900895CC
:104D4000EF92FF920F931F937C010E946D268C01BE
:104D5000C7010E9470239C01200F311FC9011F91C0
:104D60000F91FF90EF900895FC0184819581681761
:104D7000790748F40190F081E02D309721F0E60F9B
:104D8000F71F8081089580E00895FC01848195815A
:104D90006817790730F40190F081E02DE60FF71FD6
:104DA00040830895FC019B018481958168177907F0
:104DB00028F4608171816115710529F410925209FE
:104DC00062E579E002C0620F731FCB010895FC0118
:104DD000848195816817790748F40190F081E02D6E
:104DE000309721F0E60FF71F8081089580E0089545
:104DF000FC010190F081E02D309729F40895861789
:104E000009F44083319680818823C9F70895FC0115
:104E100080819181009729F420E030E040E050E06B
:104E200004C00E94BC329B01AC01B901CA010895C3
:104E3000CF92DF92EF92FF920F931F93CF93DF9366
:104E40006C01DC01ED90FC901197E114F10409F480
:104E500041C01496CD91DC9115972097D9F1870127
:104E600002C00F5F1F4FF8018081992787FD909541
:104E70000E94E332892BA9F72197CE0DDF1D01C0D7
:104E800021978881992787FD90950E94E332892B8D
:104E900019F0C017D107A0F7FE013196E01BF10B06
:104EA000D6011596FC93EE9314972D913C91201703
:104EB000310728F4C901B801AF010E940833D601B7
:104EC000ED91FC91119714968D919C911597E80F97
:104ED000F91F1082DF91CF911F910F91FF90EF90FA
:104EE000DF90CF900895CF93DF93FC01C081D181F3
:104EF000209739F409C0992787FD90950E94F332D5
:104F0000899388818823B9F7DF91CF910895CF9352
:104F1000DF93FC01C081D181209739F409C0992722
:104F200087FD90950E94EB32899388818823B9F799
:104F3000DF91CF910895EF92FF920F931F93CF933C
:104F4000DF93FC01DB018617970739F12481358156
:104F500014968D919C9115972817390701F5232BED
:104F6000E1F0E080F180CD91DC9113C0992787FDBD
:104F700090950E94EB328C018881992787FD90954E
:104F80000E94EB320817190751F40894E11CF11C38
:104F90002196F7018081882349F781E001C080E0F4
:104FA000DF91CF911F910F91FF90EF900895AF92F5
:104FB000BF92CF92DF92EF92FF920F931F93CF9306
:104FC000DF93FC015B017A01DB0114962D913C918A
:104FD00015972115310559F184819581009739F193
:104FE0008217930720F14817590720F07C01089495
:104FF000E108F10800811181C801CFEFDFEF6801FE
:10500000CE0CDF1C10C0F501608171810E946633F7
:105010009C01009771F0801B910BE816F90608F0CF
:10502000EC01C9010196C816D90668F702C0CFEF96
:10503000DFEFCE01DF91CF911F910F91FF90EF90A5
:10504000DF90CF90BF90AF900895FC01DB014481C9
:10505000558114968D919C911597481B590BCF0142
:105060000E94D7270895CF93DF93FC01DB01848151
:1050700095814817590760F4C081D1816D917C9169
:10508000CE01840F951F0E9466339C01009719F48E
:105090002FEF3FEF02C02C1B3D0BC901DF91CF91D9
:1050A000089540E050E00E9433280895DF92EF9287
:1050B000FF920F931F93CF93DF93EC018C819D811F
:1050C00048175907C8F47A010894E11CF11CE881DB
:1050D000F981EE0DFF1DD08010820881198177279C
:1050E00067FD7095C8010E945B339C010E0D1F1D6A
:1050F000F801D082009719F4EFEFFFEF05C0888127
:105100009981F901E81BF90BCF01DF91CF911F9134
:105110000F91FF90EF90DF900895FC01448155813D
:10512000415050400E9456280895CF93DF93FC01D0
:10513000848195814817590768F4C081D181772708
:1051400067FD7095CE01840F951F0E9423339C014B
:10515000009719F42FEF3FEF02C02C1B3D0BC90144
:10516000DF91CF91089540E050E00E949528089586
:105170000F931F93CF93DF93FC018B0141155105D2
:10518000F9F061157105E1F08481958128173907DF
:1051900018F0FB01108214C041505040EC01C21BBA
:1051A000D30B4C175D0708F4EA0160817181620F2F
:1051B000731FC801AE010E944C33C00FD11F18826B
:1051C000DF91CF911F910F910895FC01DB012481A4
:1051D000358114964D915C91159724173507A8F0E9
:1051E00080819181009789F06D917C9161157105A5
:1051F00061F0241B350B820F931F0E942E339C01FC
:1052000080E0232B19F481E0089580E00895DC010B
:10521000FB0114968D919C911597892B31F46115A2
:105220007105A9F090E0808108C00D90BC91A02D7F
:105230006115710529F490E08C91882349F407C029
:10524000CD010E942E339C0190E0232B09F491E0C4
:10525000892F0895CF93DF939C01FB01EC01A88176
:10526000B981109729F06081718161157105D1F4C0
:10527000C081D181209759F084819581892B39F0A3
:10528000888190E022273327281B390B12C0109702
:1052900071F0F90184819581892B49F08C91282F37
:1052A00030E007C0CD010E942E339C0102C020E0F7
:1052B00030E0C901DF91CF9108950E942A29892FFA
:1052C0008095881F8827881F08950E942A2920E03A
:1052D000181619060CF021E0822F08950E942A2941
:1052E00020E0181619060CF421E0822F08950E9480
:1052F0002A29892F881F8827881F0895FC01DB0130
:105300002481358114968D919C9115972817390722
:1053100011F020E007C0CF010E942A2920E0892B4C
:1053200009F421E0822F0895FC01DB0114962D91F0
:105330003C91159784819581821B930B8417950767
:10534000A0F080819181009781F06D917C91611531
:10535000710559F0840F951FA9010E943E339C01ED
:1053600080E0232B19F481E0089580E00895FC018A
:10537000DB012481358114968D919C911597281716
:10538000390710F480E00895CF0140E050E00E941A
:10539000942908950F931F93CF93DF93EC018B0112
:1053A0006F5F7F4F888199810E944931009711F486
:1053B00080E005C0998388831B830A8381E0DF91A5
:1053C000CF911F910F9108952F923F924F925F922C
:1053D0006F927F928F929F92AF92BF92CF92DF9205
:1053E000EF92FF920F931F93CF93DF935C012B01FA
:1053F0004A01DC0114960D911C91159701151105B8
:1054000009F4D4C0FB01C480D580C114D10409F4CF
:10541000CDC0DA0114966D907C9015976C187D08BC
:10542000FC01E080F1806114710491F01BC0D40193
:105430006C9111967C91119714964D915C911597F2
:105440008C2F0E940833F401E480F580EC0EFD1EE1
:10545000D2016D917C91C7010E946633EC010097E7
:1054600031F7A4C077FE02C067012EC0FB01208087
:105470003180E8013CC08E010E191F09C601B70139
:10548000A8010E9408330C0D1D1DD4016C911196CA
:105490007C91119714964D915C911597C8010E94CB
:1054A0000833F401C480D580C00ED11ED2011496F9
:1054B000ED90FC901597EC0EFD1EF5018481958111
:1054C000860D971D95838483D2016D917C91C701D0
:1054D0000E946633EC01009771F6C601B7010E9485
:1054E000373364C07B01EC0CFD1CC60DD71DC70112
:1054F000B1010E946633BC010097A1F7C017D10724
:1055000009F454C0F501828193818C179D0708F03E
:1055100044C0C501BE010E94CA298823F1F546C0D6
:10552000C501B201A9010E94D727EC0197FD3EC039
:10553000D5016D917C911197F201848195818C0F39
:105540009D1F680F791F14964D915C911597481B0C
:10555000590BCB01860D971D0E941133D50114966E
:105560008D919C911597860D971D15969C938E9302
:105570001497ED91FC911197E80FF91F10822D916E
:105580003C912C0F3D1FF401608171814481558154
:10559000C9010E9408339E0105C0D50114962D91C2
:1055A0003C9115972150304037FFBACFDF91CF9112
:1055B0001F910F91FF90EF90DF90CF90BF90AF9031
:1055C0009F908F907F906F905F904F903F902F9023
:1055D0000895CF93DF93EC0188819981892B29F07D
:1055E0008A819B818617970760F4CE010E94CA29A1
:1055F000882341F08C819D81892B19F4E881F98100
:10560000108281E0DF91CF910895EF92FF920F9386
:105610001F93CF93DF93EC017B016C817D81E114BB
:10562000F104C1F04115510599F08A01060F171FC9
:10563000B8010E94E92A882369F0888199812C8128
:105640003D81820F931FB7010E9437331D830C8366
:1056500081E001C080E0DF91CF911F910F91FF9019
:10566000EF900895EF92FF920F931F93DF93CF93E4
:10567000CDB7DEB72B970FB6F894DEBF0FBECDBF08
:105680007C01CB01BA018E010F5F1F4FA8012AE0F8
:1056900030E00E94EA33F80101900020E9F73197E9
:1056A000E01BF10BC701B801AF010E94052B2B963F
:1056B0000FB6F894DEBF0FBECDBFCF91DF911F9123
:1056C0000F91FF90EF900895EF92FF920F931F9329
:1056D000DF93CF93CDB7DEB72C970FB6F894DEBF2C
:1056E0000FBECDBF7C01CB01BA018E010F5F1F4FF2
:1056F000A8012AE030E00E94A133F80101900020C7
:10570000E9F73197E01BF10BC701B801AF010E9427
:10571000052B2C960FB6F894DEBF0FBECDBFCF91F0
:10572000DF911F910F91FF90EF900895EF92FF92FC
:105730000F931F93DF93CF9300D000D0CDB7DEB788
:105740007C01CB018E010F5F1F4FB8014AE050E092
:105750000E940F34F80101900020E9F73197E01B17
:10576000F10BC701B801AF010E94052B26960FB6B9
:10577000F894DEBF0FBECDBFCF91DF911F910F9187
:10578000FF90EF900895EF92FF920F931F93DF9396
:10579000CF93CDB7DEB727970FB6F894DEBF0FBE15
:1057A000CDBF7C01CB018E010F5F1F4FB8014AE0D6
:1057B00050E00E948033F80101900020E9F7319712
:1057C000E01BF10BC701B801AF010E94052B279622
:1057D0000FB6F894DEBF0FBECDBFCF91DF911F9102
:1057E0000F91FF90EF900895EF92FF920F931F9308
:1057F000DF93CF9300D00F92CDB7DEB77C01862F19
:1058000090E08E010F5F1F4FB8014AE050E00E9408
:105810008033F80101900020E9F73197E01BF10B8C
:10582000C701B801AF010E94052B0F900F900F9098
:105830000F90CF91DF911F910F91FF90EF900895FE
:10584000DF93CF930F920F92CDB7DEB769831A82A1
:10585000BE016F5F7F4F41E050E00E94052B0F902B
:105860000F90CF91DF9108956115710511F480E0DB
:105870000895DB010D900020E9F71197A61BB70BE7
:10588000AD010E94052B0895FB0160817181448167
:1058900055810E94052B0895CF93DF93EC018881F9
:1058A0009981009711F00E94B130198218821D82EF
:1058B0001C821B821A82DF91CF9108950F931F9350
:1058C000182F092F0E94322B882321F4812F902F2B
:1058D0000E944C2C812F902F1F910F9108950F93B0
:1058E0001F93182F092F0E94642B882321F4812FE6
:1058F000902F0E944C2C812F902F1F910F91089573
:105900000F931F93182F092F0E94962B882321F4A1
:10591000812F902F0E944C2C812F902F1F910F913F
:1059200008950F931F93182F092F0E94C32B8823CC
:1059300021F4812F902F0E944C2C812F902F1F91AA
:105940000F9108950F931F93182F092F0E94F42B86
:10595000882321F4812F902F0E944C2C812F902F8F
:105960001F910F9108950F931F93182F092F0E94D5
:10597000202C882321F4812F902F0E944C2C812FE2
:10598000902F1F910F9108950F931F93182F092F98
:105990006115710561F0DB010D900020E9F71197A9
:1059A000A61BB70BAD010E94052B882321F4812F84
:1059B000902F0E944C2C812F902F1F910F910895B2
:1059C0000F931F93182F092FFB0160817181448170
:1059D00055810E94052B882321F4812F902F0E944E
:1059E0004C2C812F902F1F910F910895EF92FF92D1
:1059F0000F931F93CF93DF93EC017B018A01BA01D0
:105A00000E94E92A882321F4CE010E944C2C07C071
:105A10001D830C8388819981B7010E943733CE01A1
:105A2000DF91CF911F910F91FF90EF900895CF9349
:105A3000DF93EC01198218821B821A821D821C825C
:105A40001E826115710551F0DB010D900020E9F710
:105A50001197A61BB70BAD010E94F62CDF91CF91D9
:105A60000895CF93DF93EC01198218821B821A826A
:105A70001D821C821E826115710551F0DB010D90A3
:105A80000020E9F71197A61BB70BAD010E94F62C79
:105A9000DF91CF9108950F931F93182F092F611550
:105AA000710559F0DB010D900020E9F71197A61B55
:105AB000B70BAD010E94F62C02C00E944C2C812F26
:105AC000902F1F910F910895EF92FF920F931F93C4
:105AD000DF93CF93CDB7DEB7A1970FB6F894DEBFB3
