:100000000C9406010C9414290C9445290C9476291F
:100010000C94A7290C94D8290C94092A0C943A2AF8
:100020000C946B2A0C9433010C9433010C9433011F
:100030000C9433010C9433010C9433010C94330170
:100040000C9433010C9462070C9433010C9433012B
:100050000C9433010C9433010C9433010C949C2ABE
:100060000C9433010C94A72E0C94EF2F0C943301B5
:100070000C9433010C9433010C9433010C94330130
:100080000C942C070C9433010C9433010C94330121
:100090000C94E72E0C942E300C9433010C947609BA
:1000A0000C9433010C9433010C94F6060C94330138
:1000B0000C9433010C9433010C9433010C94C0065E
:1000C0000C9433010C9433010C9433010C94272FBE
:1000D0000C946D300C9433010C94672F0C94AC305D
:1000E0000C94330100002100240027002A002D0079
:1000F0003000330001010000040107010A01000083
:100100002200250028002B002E00310034000201BF
:100110000000050108010B0100002000230026005B
:1001200029002C002F00320000010000030106010D
:10013000090105050505070508080808020202026D
:100140000A0A080804040404010101010101010173
:100150000303030303030303040707070C0C0C0C3E
:100160000C0C0C0C02020202060606060606060627
:100170000B0B0B0B0B0B0B0B0102102020080810B4
:100180002040102040800201020108040201010207
:1001900004081020408080402010080402018004E0
:1001A000020180402010080402010804020101023B
:1001B0000408102040800102040810204080000044
:1001C000090A02080B0C0D070603040100000000D9
:1001D000000000000000000000000000000000001F
:1001E0000000000000000000000011100F000000DF
:1001F00000000000000000000000000000000000FF
:1002000000000000580D820F9833E63411241FBE01
:10021000CFEFD1E2DEBFCDBF00E00CBF13E0A0E026
:10022000B2E0E0EAFCE800E00BBF02C007900D92EC
:10023000A03AB107D9F71BBE19E0A0EAB3E001C0AC
:100240001D92A03FB107E1F712E0CCE0D2E004C07C
:100250002297FE010E942F46C430D107C9F70E94A1
:10026000CE1E0C944E460C940000DF93CF930F9259
:100270000F92CDB7DEB79A83898389819A818130C5
:100280009105C9F4E0E8F0E01082E1E8F0E082E0F6
:100290008083E4E8F0E011821082A6E3B0E0E6E3B8
:1002A000F0E0808182608C93AFE6B0E0EFE6F0E0B2
:1002B000808182608C9389819A818230910599F442
:1002C000E0E9F0E01082E1E9F0E082E08083E4E937
:1002D000F0E011821082E8E3F0E082E08083E1E761
:1002E000F0E082E0808389819A818330910599F4DE
:1002F000E0EAF0E01082E1EAF0E082E08083E4EA04
:10030000F0E011821082E9E3F0E082E08083E2E72E
:10031000F0E082E0808389819A81009799F4E0E29D
:10032000F1E01082E1E2F1E082E08083E4E2F1E0DA
:1003300011821082EAE3F0E082E08083E3E7F0E0FC
:1003400082E080830F900F90CF91DF910895DF932B
:10035000CF930F920F92CDB7DEB79A8389830F9018
:100360000F90CF91DF910895DF93CF9300D00F923C
:10037000CDB7DEB79B838A83198227C02A813B8150
:10038000C901880F991F820F931F880F991F880F2B
:10039000991F9C018981882F90E0280F391FC9017E
:1003A000880F991F820F931FFC01EF55FC4F80812E
:1003B00082958695869583708170813019F481E0ED
:1003C0008C8307C089818F5F898389818C30B0F2EB
:1003D0001C828C810F900F900F900F90CF91DF9126
:1003E0000895DF93CF930F920F92CDB7DEB79A8324
:1003F00089838091A0038033D0F48091A003E981A8
:10040000FA8180838F5F8093A003E981FA818081E4
:10041000282F30E0C901880F991F820F931FFC011C
:10042000EE55FC4F88EB9BE09183808304C0E9810B
:10043000FA818FEF80830F900F90CF91DF91089515
:10044000DF93CF930F920F92CDB7DEB79A83898354
:100450008091A0038033D0F48091A003E981FA81D8
:1004600080838F5F8093A003E981FA818081282FA8
:1004700030E0C901880F991F820F931FFC01EE55D0
:10048000FC4F88EB9BE09183808304C0E981FA8173
:100490008FEF80830F900F90CF91DF910895DF93BE
:1004A000CF9300D00F920F92CDB7DEB79C838B8392
:1004B000EB81FC818081282F30E0C901880F991FD2
:1004C000820F931FFC01EF55FC4F80818F7B80834F
:1004D000EB81FC8180819CE0692F0E949945882FE7
:1004E00090E09A83898389819A810E94B4011D8258
:1004F000882311F481E08D838D81882321F0898107
:100500009A810E94A7010F900F900F900F900F906B
:10051000CF91DF910895DF93CF9300D000D0CDB776
:10052000DEB79C838B837E836D83EB81FC8180812E
:100530008A838A81803308F08AC0EB81FC818181C3
:10054000282F332727FD309588E890E0821B930BF6
:100550009C01220F331F220F331F8D819E81821732
:10056000930794F4EB81FC818181282F332727FDA9
:10057000309588E890E0821B930B880F991F880FB5
:10058000991F9E838D8326C0EB81FC818281282F59
:10059000332727FD309588E592E0821B930B9C0161
:1005A000220F331F220F331F8D819E812817390799
:1005B0008CF4EB81FC818281282F332727FD309535
:1005C00088E592E0821B930B880F991F880F991F73
:1005D0009E838D838D819E8102979E838D838D81E5
:1005E0009E81AA2797FDA095BA2F880F991FAA1F51
:1005F000BB1F880F991FAA1FBB1F880F991FAA1F17
:10060000BB1F880F991FAA1FBB1F689412F8B695CD
:10061000A795979587951694D1F79E838D83EFE5DF
:10062000F0E080818983F8948A81282F30E04D8121
:100630005E81C901880F991F820F931FFC01EE553F
:10064000FC4F51834083EFE5F0E08981808326965B
:100650000FB6F894DEBF0FBECDBFCF91DF910895E6
:10066000DF93CF9300D00F92CDB7DEB79C838B83FF
:10067000EB81FC8180818F3FF9F0EB81FC818081EF
:10068000282F30E0C901880F991F820F931FFC01AA
:10069000EE55FC4F80819181880F991F880F991F1B
:1006A000880F991F929582958F7089279F7089274F
:1006B00002969A83898302C01A82198289819A815B
:1006C0000F900F900F900F90CF91DF910895DF93CF
:1006D000CF9300D0CDB7DEB79A838983E981FA81C1
:1006E0008081282F30E0C901880F991F820F931F46
:1006F000FC01EF55FC4F808182958695869583702D
:1007000081708B838B81882311F081E08B838B81B7
:100710000F900F900F90CF91DF910895AF92BF92FD
:10072000CF92DF92EF92FF920F931F93DF93CF93BD
:100730000F920F92CDB7DEB79A83898389819A8110
:100740000E9430030196AC01662757FD6095762F15
:10075000E981FA818181282F332727FD309588E8A8
:1007600090E0821B930B880F991F880F991F5C01E3
:10077000CC24B7FCC094DC2CE981FA818281282F3B
:10078000332727FD309588E592E0821B930B880F75
:10079000991F880F991F7C010027F7FC0095102FE7
:1007A00000D00F92EDB7FEB7319684EB90E0A0E059
:1007B000B0E080839183A283B383CB01BA01A60109
:1007C0009501AA24BB2465010E946B390F900F90FC
:1007D0000F900F90DC01CB010F900F90CF91DF9124
:1007E0001F910F91FF90EF90DF90CF90BF90AF904F
:1007F0000895AF92BF92CF92DF92EF92FF920F9344
:100800001F93DF93CF9300D00F92CDB7DEB79A83BB
:1008100089837C836B838B819C8122E08032920769
:100820000CF060C08B819C81992314F41C821B8284
:100830008B819C81853B910524F084EB90E09C8327
:100840008B838B819C81AC01662757FD6095762F49
:10085000E981FA818181282F332727FD309588E8A7
:1008600090E0821B930B880F991F880F991F5C01E2
:10087000CC24B7FCC094DC2CE981FA818281282F3A
:10088000332727FD309588E592E0821B930B880F74
:10089000991F880F991FAA2797FDA095BA2F00D0FE
:1008A0000F92EDB7FEB7319680839183A283B38315
:1008B000CB01BA0120E030E040E050E00F2EF4EB35
:1008C000EF2EF0E0FF2EF0E00F2FF0E01F2FF02DC5
:1008D0000E946B390F900F900F900F90DC01CB01AD
:1008E0009C838B8389819A812B813C81B9010E94F1
:1008F0008B020F900F900F900F90CF91DF911F916F
:100900000F91FF90EF90DF90CF90BF90AF90089540
:10091000DF93CF93CDB7DEB72F970FB6F894DEBF36
:100920000FBECDBF9C838B837E836D8358874F839F
:100930003A872987EB81FC818081803308F07FC072
:100940008D8161E00E94F42CEB81FC818081282F55
:1009500030E08D81482F4F73C901880F991F820F96
:10096000931FFC01EF55FC4F942F9F738081807C77
:10097000892B808320E232E08F819885A901481B72
:10098000590BCA019D878C878C859D85992334F4EA
:100990004C855D854D5F5F4F5D874C878C859D8560
:1009A0009595879595958795EB81FC81818320E6C8
:1009B00039E089859A85A901481B590BCA019F878F
:1009C0008E878E859F85992334F44E855F854D5F94
:1009D0005F4F5F874E878E859F8595958795959507
:1009E0008795EB81FC818283EB81FC8180819CE097
:1009F000692F0E949945882F90E09A838983898185
:100A00009A810E94B4011B86882311F451E05B8710
:100A10008B85882321F089819A810E943501EB81A1
:100A2000FC818081282F30E0C901880F991F820F37
:100A3000931FFC01EF55FC4F808180648083EB8124
:100A4000FC8180812F960FB6F894DEBF0FBECDBF1C
:100A5000CF91DF910895DF93CF9300D00F92CDB760
:100A6000DEB79A8389837C836B8389819A812B810A
:100A70003C81B90140E252E020E639E00E9488045E
:100A80000F900F900F900F90CF91DF910895DF930B
:100A9000CF93CDB7DEB72B970FB6F894DEBF0FBE5E
:100AA000CDBF9A8389837C836B835E834D838981E9
:100AB0009A81FC01EF5CFB4F80811B86882314F434
:100AC00021E02B878B85882329F0EB81FC81118223
:100AD000108270C029813A81C901880F991F820F45
:100AE000931F880F991F880F991F9C0189819A81F4
:100AF000FC01EF5CFB4F8081992787FD9095280FC3
:100B0000391F8091A003882F90E02817390754F5EA
:100B100029813A81C901880F991F820F931F880F7D
:100B2000991F880F991F9C0189819A81FC01EF5CB4
:100B3000FB4F8081992787FD9095280F391FC901A8
:100B4000880F991F820F931FFC01EF55FC4F808186
:100B500082958695869583708170813019F421E0A5
:100B60002A8701C01A868A85882321F129813A8142
:100B7000C901880F991F820F931F880F991F880F33
:100B8000991F9C0189819A81FC01EF5CFB4F808158
:100B9000992787FD9095280F391FC901880F991F44
:100BA000820F931FFC01EF55FC4F80818F7360E033
:100BB0000E94A72D29813A81F901EF5CFB4F8081CA
:100BC0008F5FF901EF5CFB4F808329813A81C90176
:100BD000880F991F820F931F880F991F880F991FE5
:100BE0009C0189819A81FC01EF5CFB4F80819927F0
:100BF00087FD9095280F391F8091A003882F90E0E2
:100C0000281739075CF489819A81FC01EF5CFB4F5E
:100C100080818C301CF481E0898701C01986898528
:100C2000882309F47EC0EB81FC81408151812981B8
:100C30003A81C901880F991F820F931F880F991F4E
:100C4000880F991F9C0189819A81FC01EF5CFB4F01
:100C50008081992787FD9095280F391FC901880F3A
:100C6000991F820F931FFC01EE55FC4F80819181EB
:100C7000840F951FED81FE819183808329813A81C4
:100C8000C901880F991F820F931F880F991F880F22
:100C9000991F9C0189819A81FC01EF5CFB4F808147
:100CA000992787FD9095280F391FC901880F991F33
:100CB000820F931FFC01EF55FC4F80818295869532
:100CC0008695837081701886813011F421E0288721
:100CD0008885882309F44BC029813A81C901880F8E
:100CE000991F820F931F880F991F880F991F9C01CE
:100CF00089819A81FC01EF5CFB4F8081992787FDF8
:100D00009095280F391FC901880F991F820F931FD3
:100D1000FC01EF55FC4F80818F7361E00E94A72D8D
:100D200026C0EB81FC818081918104961F822CE991
:100D30008034920710F481E08F832F81222339F0D1
:100D4000ED81FE8180E49CE99183808309C0EB8181
:100D5000FC81808191810496ED81FE819183808365
:100D600089819A81FC01EF5CFB4F8FEF80832B968A
:100D70000FB6F894DEBF0FBECDBFCF91DF910895BF
:100D80001F920F920FB60F9200905B000F921124EA
:100D90002F933F934F935F936F937F938F939F9383
:100DA000AF93BF93EF93FF93DF93CF93CDB7DEB7AE
:100DB00080E090E064E271E048E251E00E94470583
:100DC000CF91DF91FF91EF91BF91AF919F918F9163
:100DD0007F916F915F914F913F912F910F90009272
:100DE0005B000F900FBE0F901F9018951F920F92EF
:100DF0000FB60F9200905B000F9211242F933F9338
:100E00004F935F936F937F938F939F93AF93BF9312
:100E1000EF93FF93DF93CF93CDB7DEB783E090E0FE
:100E200064EA70E048EA50E00E944705CF91DF9104
:100E3000FF91EF91BF91AF919F918F917F916F91B2
:100E40005F914F913F912F910F9000925B000F9017
:100E50000FBE0F901F9018951F920F920FB60F9212
:100E600000905B000F9211242F933F934F935F9359
:100E70006F937F938F939F93AF93BF93EF93FF9362
:100E8000DF93CF93CDB7DEB782E090E064E970E006
:100E900048E950E00E944705CF91DF91FF91EF9123
:100EA000BF91AF919F918F917F916F915F914F9182
:100EB0003F912F910F9000925B000F900FBE0F900B
:100EC0001F9018951F920F920FB60F9200905B0023
:100ED0000F9211242F933F934F935F936F937F93C0
:100EE0008F939F93AF93BF93EF93FF93DF93CF9332
:100EF000CDB7DEB781E090E064E870E048E850E00C
:100F00000E944705CF91DF91FF91EF91BF91AF9183
:100F10009F918F917F916F915F914F913F912F9111
:100F20000F9000925B000F900FBE0F901F901895CE
:100F3000DF93CF93CDB7DEB71092350481E0809375
:100F40003704109238048091040261E00E94A72DBA
:100F50008091050261E00E94A72DA9EBB0E0E9EBCA
:100F6000F0E080818E7F8C93A9EBB0E0E9EBF0E0BC
:100F700080818D7F8C93E8EBF0E088E48083ECEB5C
:100F8000F0E085E48083CF91DF910895DF93CF93E4
:100F90000F92CDB7DEB78983EAEBF0E08981880F45
:100FA00080830F90CF91DF910895DF93CF93CDB7DA
:100FB000DEB727970FB6F894DEBF0FBECDBF8A838A
:100FC0007C836B834D832E838D81813210F01F8251
:100FD0005CC0809135048823E1F781E0809335047B
:100FE0008E81809337048FEF8093A20410925D046A
:100FF0008D81815080935E0481E0809336048A81E4
:10100000882F90E0880F991F982F80913604892BA4
:101010008093360480913804813061F41092380452
:10102000EBEBF0E0809136048083ECEBF0E085ECB4
:10103000808304C0ECEBF0E085EE80838091350482
:101040008130E1F390915D048D81981718F48091BF
:101050005D048D83198213C08981282F30E08B8134
:101060009C81DC01A20FB31F8981882F90E0FC01D5
:10107000E35CFB4F80818C9389818F5F89839981A9
:101080008D81981748F38D818F838F8127960FB6B6
:10109000F894DEBF0FBECDBFCF91DF9108950F93BF
:1010A000DF93CF93CDB7DEB728970FB6F894DEBFA6
:1010B0000FBECDBF8A837C836B834D832E830F83CA
:1010C0008D81813218F081E0888769C08091350474
:1010D0008823E1F782E0809335048F818093370481
:1010E0008FEF8093A20410925D048D8180935E0443
:1010F000198213C08981482F50E08981282F30E060
:101100008B819C81FC01E20FF31F8081FA01E35C7B
:10111000FB4F808389818F5F898399818D819817A7
:1011200048F3109236048A81882F90E0880F991F27
:10113000982F80913604892B80933604809138044F
:10114000813061F410923804EBEBF0E080913604CA
:101150008083ECEBF0E085EC808304C0ECEBF0E006
:1011600085EE80838E81882321F080913504823042
:10117000C9F38091A2048F3F11F4188610C08091AA
:10118000A204803219F482E0888709C08091A20409
:10119000803319F483E0888702C084E088878885DB
:1011A00028960FB6F894DEBF0FBECDBFCF91DF916A
:1011B0000F910895DF93CF9300D00F920F92CDB788
:1011C000DEB79B838A836C838C81813218F081E047
:1011D0008D8324C080913504843019F082E08D83A2
:1011E0001DC08C8180938004198213C08981482F8F
:1011F00050E08981282F30E08A819B81FC01E20F39
:10120000F31F8081FA01E15AFB4F808389818F5F50
:10121000898399818C81981748F31D828D810F9065
:101220000F900F900F900F90CF91DF910895DF9363
:10123000CF930F920F92CDB7DEB79A8389838981BE
:101240009A8190933C0480933B040F900F90CF9130
:10125000DF910895DF93CF930F920F92CDB7DEB752
:101260009A83898389819A8190933A04809339047F
:101270000F900F90CF91DF910895DF93CF930F924E
:10128000CDB7DEB789838981882329F0ECEBF0E0C4
:1012900085EC808304C0ECEBF0E085E880830F9060
:1012A000CF91DF910895DF93CF93CDB7DEB7ECEB0D
:1012B000F0E085ED8083ECEBF0E08081882F90E01A
:1012C000807190700097B9F710923504CF91DF913B
:1012D0000895DF93CF93CDB7DEB7ECEBF0E085EC6C
:1012E000808310923504CF91DF9108951F920F9261
:1012F0000FB60F9200905B000F9211242F933F9333
:101300004F935F936F937F938F939F93AF93BF930D
:10131000EF93FF93DF93CF930F920F92CDB7DEB78A
:10132000E9EBF0E08081882F90E09C01287F30700D
:101330003A83298389819A818836910509F44CC1C1
:1013400029813A81293631050CF060C089819A8162
:101350008033910509F4F4C029813A8121333105A4
:1013600054F589819A818031910509F4B0C02981B1
:101370003A812131310564F489819A81009709F419
:10138000AAC129813A812830310509F4A0C0A7C13A
:1013900089819A818032910509F4CCC029813A81F2
:1013A0002832310509F49CC089819A8188319105E0
:1013B00009F496C094C129813A812834310509F491
:1013C00008C189819A81893491056CF429813A8117
:1013D0002833310509F4BAC089819A818034910596
:1013E00009F4C9C07CC129813A812835310509F445
:1013F000D0C089819A818036910509F4EDC0298198
:101400003A812035310509F4A7C069C189819A81E3
:10141000803A910509F404C129813A81213A3105C4
:101420005CF589819A818038910509F4DEC02981B3
:101430003A81213831056CF489819A818037910590
:1014400009F4CAC029813A812837310509F4C4C09A
:1014500046C189819A818039910509F4C6C02981E4
:101460003A812839310509F4FAC089819A8188388E
:10147000910509F4F4C033C129813A81283B310533
:1014800009F406C189819A81893B91056CF429810F
:101490003A81283A310509F4E6C089819A81803B76
:1014A000910509F4E0C01BC129813A81283C31052E
:1014B00009F40BC189819A81883F910509F40FC114
:1014C00029813A81203C310509F4FFC008C1EBEBCA
:1014D000F0E080913604808381E00E943D09FFC0E6
:1014E00090915D0480915E04981798F4ABEBB0E0A6
:1014F00020915D04822F90E0FC01E35CFB4F808132
:101500008C93822F8F5F80935D0481E00E943D0960
:10151000E6C080913704882319F00E945309DFC088
:1015200081E080933804ECEBF0E084EA8083109251
:101530003504D5C080E28093A2040E945309CFC035
:1015400080E38093A2040E945309C9C088E380937A
:10155000A2040E946909C3C030915D04832F90E00A
:10156000EBEBF0E02081FC01E35CFB4F2083832F59
:101570008F5F80935D0490915D0480915E04981765
:1015800020F481E00E943D09AAC080E00E943D094C
:10159000A6C030915D04832F90E0EBEBF0E020815A
:1015A000FC01E35CFB4F2083832F8F5F80935D04FE
:1015B00080913704882319F00E94530990C081E07C
:1015C00080933804ECEBF0E084EA808310923504D9
:1015D00086C00E94530983C083E080933504109233
:1015E000A10481E00E943D097AC08091A10480326B
:1015F00098F43091A104832F90E0EBEBF0E0208190
:10160000FC01EF57FB4F2083832F8F5F8093A10452
:1016100081E00E943D0963C080E00E943D095FC0F7
:101620008091A104803240F48091A104882F90E041
:10163000FC01EF57FB4F10820E945309E0913B04DD
:10164000F0913C048091A104282F30E081E894E0DF
:10165000B90119951092A1040E94690940C080E067
:101660000E943D093CC084E08093350410927F04C1
:1016700010928004E0913904F0913A041995809118
:101680008004882329F481E08093800410925F0411
:10169000ABEBB0E020917F04822F90E0FC01E15A97
:1016A000FB4F80818C93822F8F5F80937F0490917A
:1016B0007F0480918004981720F481E00E943D0906
:1016C0000EC080E00E943D090AC081E00E943D09F1
:1016D0001092350404C01092A2040E9453090F9086
:1016E0000F90CF91DF91FF91EF91BF91AF919F91BB
:1016F0008F917F916F915F914F913F912F910F90BB
:1017000000925B000F900FBE0F901F901895DF9313
:10171000CF9300D00F92CDB7DEB79A8389837C83B5
:101720006B83E981FA818B819C81938382830F9003
:101730000F900F900F90CF91DF910895DF93CF938B
:101740000F920F92CDB7DEB79A838983E981FA8130
:101750008BE993E091838083E981FA81138212827D
:101760000F900F90CF91DF910895DF93CF930F9259
:101770000F92CDB7DEB79A83898389819A810E94BF
:101780009E0BE981FA818BE292E091838083E9816B
:10179000FA8188EE93E0A0E0B0E084839583A6838D
:1017A000B7830F900F90CF91DF910895DF93CF9380
:1017B0000F920F92CDB7DEB79A83898389819A8180
:1017C0000E94B50BE981FA818BE192E091838083DD
:1017D0000F900F90CF91DF910895DF93CF930F92E9
:1017E0000F92CDB7DEB79A83898389819A810E944F
:1017F000B50BE981FA818BE192E0918380830F90B0
:101800000F90CF91DF910895DF93CF9300D0CDB7A4
:10181000DEB79A8389836B8381E08093E8048B81B0
:101820008093C5041092E6041092E7040F900F9085
:101830000F90CF91DF910895DF93CF9300D00F9257
:10184000CDB7DEB79A8389837C836B832B818981B3
:101850009A81622F0E94040C0F900F900F900F90AE
:10186000CF91DF910895DF93CF930F920F92CDB771
:10187000DEB79A8389838091C404282F30E0809159
:10188000C304882F90E0A901481B590BCA010F908F
:101890000F90CF91DF910895DF93CF9300D00F92F7
:1018A000CDB7DEB79C838B838FEF9FEF9A838983BD
:1018B0009091C3048091C404981788F48091C30464
:1018C000882F90E0FC01ED55FB4F8081882F90E040
:1018D0009A8389838091C3048F5F8093C304898135
:1018E0009A810F900F900F900F90CF91DF910895F4
:1018F000DF93CF9300D00F92CDB7DEB79C838B835D
:101900008FEF9FEF9A8389839091C3048091C404E1
:10191000981760F48091C304882F90E0FC01ED5586
:10192000FB4F8081882F90E09A83898389819A81F7
:101930000F900F900F900F90CF91DF910895DF934C
:10194000CF930F920F92CDB7DEB79A8389830F9012
:101950000F90CF91DF910895DF93CF9300D00F9236
:101960000F92CDB7DEB79B838A837D836C83809192
:10197000EB049091EC04009779F19091C30480916D
:10198000C404981748F1198213C08981482F50E088
:101990008981282F30E08A819B81FC01E20FF31FAF
:1019A0008081FA01ED55FB4F808389818F5F8983A8
:1019B0008981282F30E08C819D81281739072CF3ED
:1019C0001092C3048C818093C404E091EB04F091E5
:1019D000EC048C819D8119950F900F900F900F90C2
:1019E0000F90CF91DF910895DF93CF93CDB7DEB7FE
:1019F0008091E9049091EA04009749F01092E6047E
:101A00001092E704E091E904F091EA041995CF916E
:101A1000DF910895DF93CF9300D00F92CDB7DEB75B
:101A20009A8389837C836B838B819C819093EC0464
:101A30008093EB040F900F900F900F90CF91DF9158
:101A40000895DF93CF9300D00F92CDB7DEB79A837E
:101A500089837C836B838B819C819093EA04809340
:101A6000E9040F900F900F900F90CF91DF910895A0
:101A7000DF93CF9300D00F92CDB7DEB79A838983DF
:101A80007C836B8389819A818130910551F48B81AC
:101A90009C812FEF8F3F920721F48DEE94E00E94FE
:101AA000ED0B0F900F900F900F90CF91DF91089555
:101AB000DF93CF93CDB7DEB781E090E06FEF7FEF9C
:101AC0000E94380DCF91DF910895DF93CF93CDB76A
:101AD000DEB728970FB6F894DEBF0FBECDBF9C834C
:101AE0008B837E836D8358874F838091E80488239E
:101AF00021F11A82198219C0EB81FC810190F081D9
:101B0000E02D408151812D813E8189819A81F901A9
:101B1000E80FF91F20818B819C81622FFA011995B2
:101B200089819A8101969A83898329813A818F815B
:101B300098852817390700F306C02F818D819E8173
:101B4000622F0E94DA088F81988528960FB6F89444
:101B5000DEBF0FBECDBFCF91DF910895DF93CF934E
:101B600000D00F920F92CDB7DEB79A8389836B8333
:101B70008091E804882301F18091E704803248F0E5
:101B800089819A8161E070E00E94870B1D821C822E
:101B90001CC08091E604882F90E02B81FC01EA5361
:101BA000FB4F20838091E6048F5F8093E604809151
:101BB000E6048093E70405C0CE01039661E00E942D
:101BC000DA0881E090E09D838C838C819D810F9069
:101BD0000F900F900F900F90CF91DF9108950F937A
:101BE000DF93CF9300D00F92CDB7DEB79B838A836C
:101BF0006C838091C5049091E70426EC34E0B90130
:101C0000492F21E00C810E944F0889831092E6043D
:101C10001092E7041092E80489810F900F900F90C2
:101C20000F90CF91DF910F910895DF93CF930F9293
:101C30000F92CDB7DEB79A83898389819A8161E05B
:101C40000E94EF0D0F900F90CF91DF910895DF93D9
:101C5000CF9300D000D0CDB7DEB79B838A836C834F
:101C60004D832E838D81813210F080E28D8323EAB3
:101C700034E08C81B9014D812E810E94D507898382
:101C80001092C30489818093C404898126960FB67B
:101C9000F894DEBF0FBECDBFCF91DF910895DF93E3
:101CA000CF93CDB7DEB728970FB6F894DEBF0FBE3F
:101CB000CDBF9A8389837C836B835E834D83388712
:101CC0002F832B813D815F8189819A81622F432FF0
:101CD000252F0E94270E28960FB6F894DEBF0FBE60
:101CE000CDBFCF91DF910895DF93CF9300D000D087
:101CF000CDB7DEB79A8389837C836B835E834D8304
:101D00002B813D8189819A81622F432F21E00E949E
:101D1000270E26960FB6F894DEBF0FBECDBFCF912B
:101D2000DF910895DF93CF9300D00F92CDB7DEB748
:101D30009A8389836B834C8389819A816B814C81DF
:101D400021E00E94270E0F900F900F900F90CF91DF
:101D5000DF910895DF93CF930F920F92CDB7DEB747
:101D60009A8389831092C3041092C4041092E604EB
:101D70001092E7040E9498070F900F90CF91DF9187
:101D80000895DF93CF9300D0CDB7DEB79A838983D0
:101D90006B838B810E94C60784EF9CE00E942A0916
:101DA0008CEA9CE00E94170989819A810E94AA0E00
:101DB0000F900F900F90CF91DF910895DF93CF9305
:101DC00000D00F92CDB7DEB79A8389837C836B8373
:101DD0002B8189819A81622F0E94C10E0F900F90F2
:101DE0000F900F90CF91DF910895DF93CF93CDB7F0
:101DF000DEB7CF91DF910895DF93CF9300D00F929C
:101E0000CDB7DEB79A8389837C836B83E981FA81BE
:101E10000190F081E02D0190F081E02D2B818981EE
:101E20009A81622F19950F900F900F900F90CF917C
:101E3000DF910895DF93CF9300D00F92CDB7DEB737
:101E40009A8389837C836B83E981FA810190F08195
:101E5000E02D0190F081E02D2B8189819A81622F04
:101E600019950F900F900F900F90CF91DF910895DB
:101E7000DF93CF93CDB7DEB78091FD049091FE0440
:101E800001969093FE048093FD04CF91DF91089515
:101E9000DF93CF93CDB7DEB78091FF04909100051B
:101EA0000196909300058093FF04CF91DF910895F0
:101EB0000F93DF93CF9300D00F92CDB7DEB79A8305
:101EC00089837C836B8389819A818130910591F428
:101ED0008B819C812FEF8F3F920761F48EE197E019
:101EE00060E040E020E000E00E94DA348BE197E01F
:101EF0000E9420020F900F900F900F90CF91DF91D2
:101F00000F910895DF93CF93CDB7DEB781E090E0D6
:101F10006FEF7FEF0E94580FCF91DF910895DF930D
:101F2000CF930F920F92CDB7DEB785E30E94DA2DE3
:101F30000097A1F086E10E94DA2D009779F087E101
:101F40000E94DA2D009751F088E10E94DA2D009767
:101F500029F089E10E94DA2D009719F481E08A8343
:101F600001C01A828A81882319F081E0898301C027
:101F7000198289810F900F90CF91DF910895DF939F
:101F8000CF930F920F92CDB7DEB785E30E94DA2D83
:101F90000097C9F086E10E94DA2D0097A1F087E151
:101FA0000E94DA2D009779F088E10E94DA2D0097DF
:101FB00051F089E10E94DA2D009729F084E30E9414
:101FC000DA2D009719F481E08A8301C01A828A8190
:101FD000882319F081E0898301C0198289810F90DB
:101FE0000F90CF91DF910895DF93CF930F920F92CF
:101FF000CDB7DEB785E30E94DA2D009719F186E1AF
:102000000E94DA2D0097F1F087E10E94DA2D009707
:10201000C9F088E10E94DA2D0097A1F089E10E94C1
:10202000DA2D009779F084E30E94DA2D009751F0C1
:102030008AE10E94DA2D009729F08BE10E94DA2DC7
:10204000009719F481E08A8301C01A828A8188236B
:1020500019F081E0898301C0198289810F900F9066
:10206000CF91DF910895DF93CF9300D0CDB7DEB746
:102070009A8389836B8389819A81009759F49B8124
:1020800087E0692F0E94A72D86E060E070E00E9443
:10209000142C0EC09B8187E0692F0E94A72D898197
:1020A0009A819C0125563F4F86E0B9010E94142C6D
:1020B0000F900F900F90CF91DF910895DF93CF9302
:1020C00000D0CDB7DEB79A8389836B8389819A81EB
:1020D000009759F49B8185E0692F0E94A72D84E029
:1020E00060E070E00E94142C0EC09B8185E0692F97
:1020F0000E94A72D89819A819C0125563F4F84E03B
:10210000B9010E94142C0F900F900F90CF91DF9186
:102110000895DF93CF9300D00F920F92CDB7DEB723
:102120009A8389837C836B834D8389819A8100970D
:1021300031F48B819C816D810E9433101AC089819A
:102140009A818130910531F48B819C816D810E944F
:102150005E100FC089819A818230910551F48B8184
:102160009C816D810E945E108B819C816D810E949B
:1021700033100F900F900F900F900F90CF91DF9131
:102180000895DF93CF93CDB7DEB766970FB6F89477
:10219000DEBF0FBECDBF98878F8369875B874A8775
:1021A0002C878A859B85AA2797FDA095BA2FBC010D
:1021B000CD010E946623DC01CB01BC01CD012EE4E0
:1021C00032E640E450E40E94D520DC01CB01BC01A2
:1021D000CD010E94C423DC01CB019E838D838C85BD
:1021E000882309F484C08091FD049091FE049C83AF
:1021F0008B838091FF04909100059A8389834BC063
:102200002091FD043091FE048B819C81281B390BA9
:102210001D8A1C8A8D819E812817390724F441E08C
:1022200050E05D8B4C8B8F8198854C895D89489FF0
:102230009001499F300D589F300D1124998581E000
:10224000492F482781E090E0B9010E948910209130
:10225000FF043091000589819A81281B390B1B8A64
:102260001A8A8D819E812817390724F481E090E035
:102270009B8B8A8B8F8198854A895B89489F9001C7
:10228000499F300D589F300D112480E090E0B90136
:1022900049850E9489102091FD043091FE048B81B4
:1022A0009C81281B390B8D819E81281739076CF082
:1022B0002091FF043091000589819A81281B390BF8
:1022C0008D819E812817390764F40E94F40F982F9E
:1022D00081E0982781E08927882319F451E05E8BFB
:1022E00001C01E8A8E89882309F08ACF80C08C8520
:1022F00091E08927882309F47AC08091FD049091A8
:10230000FE049C838B838091FF04909100059A8347
:1023100089834BC02091FD043091FE048B819C8108
:10232000281B390B188A1F868D819E812817390733
:1023300024F481E090E0988B8F878F8198854F857A
:102340005889489F9001499F300D589F300D1124A6
:10235000998581E0492F482781E090E0B9010E94EA
:1023600089102091FF043091000589819A81281BF2
:10237000390B1E861D868D819E812817390724F40E
:1023800081E090E09E878D878F8198854D855E8561
:10239000489F9001499F300D589F300D112480E0D7
:1023A00090E0B90149850E9489102091FD04309187
:1023B000FE048B819C81281B390B8D819E812817FF
:1023C00039076CF02091FF043091000589819A81D2
:1023D000281B390B8D819E81281739071CF451E089
:1023E000598B01C0198A8989882309F093CF669691
:1023F0000FB6F894DEBF0FBECDBFCF91DF91089529
:102400000F93DF93CF93CDB7DEB72E970FB6F89427
:10241000DEBF0FBECDBF9E838D8378876F834987D4
:102420003B872A870C878A859B85AA2797FDA095DD
:10243000BA2FBC01CD010E946623DC01CB01BC0197
:10244000CD0120E030E048E451E40E94D520DC01D9
:10245000CB01BC01CD010E94C423DC01CB019C83D4
:102460008B838C85882369F18091FD049091FE0413
:102470009A83898308C08D819E812F813885B90117
:1024800049850E9489102091FD043091FE048981C4
:102490009A81281B390B8B819C812817390764F49A
:1024A0000E94F40F982F81E0982781E089278823E4
:1024B00019F481E08E8701C01E868E858823D9F6A7
:1024C00027C08C8591E08927882311F18091FD0434
:1024D0009091FE049A83898308C08D819E812F810B
:1024E0003885B90149850E9489102091FD043091F9
:1024F000FE0489819A81281B390B1D868B819C8162
:102500002817390714F481E08D878D85882329F7F2
:102510002E960FB6F894DEBF0FBECDBFCF91DF91E0
:102520000F9108950F93DF93CF930F92CDB7DEB73E
:1025300085E10E94DA2D1982009711F481E08983E8
:102540008981882381F082E090E069E170E041E0D8
:1025500026E030E000E00E94001283E090E09093DB
:102560003802809337020F90CF91DF910F91089539
:102570000F93DF93CF93CDB7DEB729970FB6F894BB
:10258000DEBF0FBECDBF8AE10E94DA2D009729F091
:102590008BE10E94DA2D009719F481E0898701C050
:1025A00019868985882309F4BEC18AE10E94DA2D43
:1025B000009741F48BE10E94DA2D009719F481E035
:1025C000888701C018868885882309F42BC1198261
:1025D00082E090E060E070E041E00E94891082E0DB
:1025E00090E06BE470E040E02AE030E000E00E9420
:1025F00000128BE490E069814AE550E020E00E94FF
:10260000C11082E090E06BE470E041E029E130E04D
:1026100000E00E940012998181E0292F28278BE495
:1026200090E0622F4AE550E020E00E94C11082E075
:1026300090E06BE470E041E028E230E000E00E94CE
:102640000012998181E0292F28278BE490E0622FE6
:1026500040E550E020E00E94C1108981882309F400
:1026600078C007C082E090E062E370E041E00E9441
:1026700089100E94BF0F91E08927882399F785E38D
:102680000E94DA2D009751F086E10E94DA2D009722
:1026900029F087E10E94DA2D009719F481E08F83F9
:1026A00001C01F828F81882369F182E090E062E39C
:1026B00070E041E02AE030E000E00E9400128BE48C
:1026C00090E069814AE550E020E00E94C11082E07C
:1026D00090E060E070E040E00E948910898191E024
:1026E000282F29278BE490E0622F44E650E021E078
:1026F0000E94C11082E090E060E070E040E00E9443
:10270000891011C188E10E94DA2D009751F089E10A
:102710000E94DA2D009729F084E30E94DA2D0097B9
:1027200019F481E08E8301C01E828E81882309F412
:10273000FAC08BE490E069814CE350E020E00E9415
:10274000C110F1C082E090E062E370E041E00E94DD
:1027500089100E94BF0F91E08927882399F788E1AB
:102760000E94DA2D009751F089E10E94DA2D00973E
:1027700029F084E30E94DA2D009719F481E08D831B
:1027800001C01D828D81882369F182E090E062E3BF
:1027900070E041E02AE030E000E00E9400128BE4AB
:1027A00090E069814AE550E020E00E94C11082E09B
:1027B00090E060E070E040E00E948910898191E043
:1027C000282F29278BE490E0622F44E650E021E097
:1027D0000E94C11082E090E060E070E040E00E9462
:1027E0008910A1C085E30E94DA2D009751F086E19F
:1027F0000E94DA2D009729F087E10E94DA2D0097D8
:1028000019F481E08C8301C01C828C81882309F437
:102810008AC08BE490E069814CE350E020E00E94A4
:10282000C11081C08AE10E94DA2D0097D9F48BE1B2
:102830000E94DA2D0097B1F00E94BF0F91E0892726
:10284000882381F48091370290913802813091057C
:1028500049F08091370290913802009719F081E099
:102860008B8301C01B828B818823E9F082E090E09A
:1028700062E370E040E024E030E000E00E940012FB
:1028800084E690E061E045E050E020E00E94C11065
:1028900081E090E062E370E041E026E030E000E0BB
:1028A0000E94001240C08AE10E94DA2D0097D9F000
:1028B0008BE10E94DA2D0097B1F40E94BF0F91E0E6
:1028C0008927882381F480913702909138028130E2
:1028D000910549F08091370290913802009719F0E4
:1028E00081E08A8301C01A828A818823E1F082E034
:1028F00090E062E370E040E024E030E000E00E941D
:10290000001284E690E060E045E050E020E00E94A4
:10291000C11080E090E062E370E041E026E030E04A
:1029200000E00E94001229960FB6F894DEBF0FBE99
:10293000CDBFCF91DF910F9108950F93DF93CF9388
:10294000CDB7DEB72F970FB6F894DEBF0FBECDBF61
:102950009C838B837E836D8358874F833A87298737
:102960000B878B858823A1F18091FD049091FE0453
:102970009A8389830FC01E868F819885009711F0F6
:1029800081E08E878B819C812D813E81B9014E85AE
:102990000E9489102091FD043091FE0489819A8162
:1029A000281B390B89859A852817390764F40E94FA
:1029B000F40F982F81E0982781E08927882319F464
:1029C00081E08F8701C01F868F858823A1F62EC0E6
:1029D0008B8591E08927882349F18091FD049091AE
:1029E000FE049A8389830FC01C868F819885009787
:1029F00011F081E08C878B819C812D813E81B90112
:102A00004C850E9489102091FD043091FE0489813B
:102A10009A81281B390B1D8689859A8528173907C5
:102A200014F481E08D878D858823F1F62F960FB6FB
:102A3000F894DEBF0FBECDBFCF91DF910F91089507
:102A4000DF93CF9300D000D0CDB7DEB79C838B83CC
:102A50001A8219828B819C818130910551F484E422
:102A60000E94E02B9A83898389819A819E838D833A
:102A700021C08B819C81009751F485E40E94E02B5A
:102A80009A83898389819A819E838D8313C08B81E8
:102A90009C818230910551F483E40E94E02B9A835B
:102AA000898389819A819E838D8304C089819A81DB
:102AB0009E838D838D819E8126960FB6F894DEBF0E
:102AC0000FBECDBFCF91DF9108950F93DF93CF93CA
:102AD000CDB7DEB72F970FB6F894DEBF0FBECDBFD0
:102AE0008AE10E94DA2D009729F08BE10E94DA2D0D
:102AF000009719F421E02F8701C01F868F85882356
:102B000009F495C182E090E062E370E041E00E9448
:102B1000891066E970E080E090E00E94182B8AE15D
:102B20000E94DA2D009741F48BE10E94DA2D009784
:102B300019F081E08E8701C01E868E858823E9F01A
:102B400082E090E062E370E040E02AE030E000E004
:102B50000E94001282E390E060E044E150E021E056
:102B60000E94C110809110079091110788509D4FCD
:102B700090931107809310075AC18AE10E94DA2DC1
:102B8000009741F08BE10E94DA2D009719F421E0C3
:102B90002D8701C01D868D858823E9F082E090E0B5
:102BA00062E370E040E02AE030E000E00E940012C2
:102BB00082E390E061E044E150E021E00E94C11036
:102BC000809110079091110788509D4F90931107A5
:102BD000809310072CC18AE10E94DA2D009741F4FE
:102BE0008BE10E94DA2D009719F481E08C8701C0F7
:102BF0001C868C85882309F41AC182E090E060E08D
:102C000070E040E00E94891081E08F8382E090E0D4
:102C100062E370E040E024E030E000E00E94001257
:102C200082E390E06F8147E350E020E00E94C11012
:102C30008091FD049091FE049C838B838091FF041E
:102C4000909100059A838983B1C08AE10E94DA2DB0
:102C5000009729F08BE10E94DA2D009719F421E00A
:102C60002A8701C01A868A85882309F453C082E026
:102C700090E062E370E040E022E030E000E00E949B
:102C8000001282E390E06F8147E050E020E00E9474
:102C9000C1108F81882339F08B819C8180569F4F92
:102CA0009C838B8306C089819A8180569F4F9A832B
:102CB00089838F81882371F08091FD049091FE04B7
:102CC0002B813C81821B930B1986992384F481E02C
:102CD00089870DC08091FF049091000529813A8178
:102CE000821B930B1986992314F421E02987898587
:102CF000882381F08F81882339F08091FD049091A1
:102D0000FE049C838B8306C08091FF049091000594
:102D10009A8389839F8181E08927882F90E00E9490
:102D200020159E838D838D819E8121E08C329207B8
:102D300091F49F8181E08927882F90E06BE470E017
:102D400040E00E9489108F81882F90E064E670E057
:102D500041E00E9489109F8181E08927882F90E0BF
:102D60000E942015188621E08C32920714F481E02D
:102D700088872885222341F082E090E062E370E0BA
:102D800041E00E94891012C09F8181E08927882F2D
:102D900090E064E670E040E00E9489108F81882F07
:102DA00090E060E070E041E00E9489108F8188230C
:102DB00061F08091FD049091FE042B813C81821B87
:102DC000930B843B910594F00BC08091FF0490918C
:102DD000000529813A81821B930B843B910534F0D5
:102DE0000E948F0F91E08927882319F081E08B875B
:102DF00001C01B868B85882309F027CF82E090E0F5
:102E000060E070E040E00E94891082E090E062E3C0
:102E100070E041E02AE030E000E00E94001282E32E
:102E200090E06F814EE150E020E00E94C1102F96AB
:102E30000FB6F894DEBF0FBECDBFCF91DF910F91DB
:102E400008950F93DF93CF93CDB7DEB72A970FB6D0
:102E5000F894DEBF0FBECDBF81E080931207809152
:102E60001207898307C082E090E069E170E041E0E9
:102E70000E9489108AE10E94DA2D009729F48BE1E3
:102E80000E94DA2D009719F021E02A8701C01A86E6
:102E90008A85882341F782E090E062E370E040E0B9
:102EA00025E030E000E00E9400122091120782E34A
:102EB00090E0622F4AE550E020E00E94C11082E0DD
:102EC00090E062E370E040E00E94891068E873E1FE
:102ED00080E090E00E94182B8BC080E090E063E2DD
:102EE00070E041E00E94891081E090E061E470E0D0
:102EF00041E00E9489108AE10E94DA2D009741F496
:102F00008BE10E94DA2D009719F481E0888701C0D7
:102F100018868885882309F46BC082E090E062E31C
:102F200070E040E026E030E000E00E9400122091D6
:102F3000120782E390E0622F4AE550E020E00E9411
:102F4000C11082E090E062E370E041E02FE030E009
:102F500000E00E9400129091120781E0292F28279B
:102F600082E390E0622F4AE550E020E00E94C11029
:102F700007C082E090E062E370E041E00E948910C7
:102F80008AE10E94DA2D009729F48BE10E94DA2D64
:102F9000009719F021E02F8301C01F828F818823C1
:102FA00041F782E090E062E370E040E026E030E04C
:102FB00000E00E9400122091120782E390E0622F4D
:102FC00044EB50E020E00E94C11082E090E062E318
:102FD00070E040E00E94891068EB7BE080E090E0C8
:102FE0000E94182B9091120781E089278093120785
:102FF00080911207882F90E00E942015198621E009
:103000008C32920714F481E089872985222309F004
:1030100064CF82E090E062E370E040E023E030E0E3
:1030200000E00E9400128091120791E0282F2927CA
:1030300082E390E0622F4CE350E020E00E94C11058
:1030400082E090E060E070E041E00E94891014C0EE
:103050009091120781E08927882F90E061E070E06D
:1030600040E00E94891080911207882F90E061E073
:1030700070E041E00E94891082E090E00E942015FB
:103080001E8221E08C32920714F481E08E832E811F
:103090002223F1F682E090E062E370E040E02AE073
:1030A00030E000E00E94001214C09091120781E00D
:1030B0008927882F90E061E070E040E00E9489104D
:1030C00080911207882F90E061E070E041E00E945B
:1030D000891082E090E00E9420151D8221E08C3250
:1030E000920714F481E08D832D812223F1F682E092
:1030F00090E062E370E040E02AE030E000E00E940F
:10310000001214C09091120781E08927882F90E067
:1031100061E070E040E00E94891080911207882FE2
:1031200090E061E070E041E00E94891082E090E070
:103130000E9420151C8221E08C32920714F481E059
:103140008C832C812223F1F682E090E060E070E035
:1031500040E00E9489108BE197E060EA70E00E94F5
:10316000F90360ED77E080E090E00E94182B07C043
:1031700082E090E062E370E041E00E9489108AE121
:103180000E94DA2D009729F48BE10E94DA2D009736
:1031900019F081E08B8301C01B828B81882341F76A
:1031A00082E090E062E370E040E026E030E000E0A2
:1031B0000E94001282E390E0698146E550E020E041
:1031C0000E94C1102AC082E090E062E370E041E01A
:1031D0000E9489108AE10E94DA2D009741F48BE168
:1031E0000E94DA2D009719F421E02A8301C01A8287
:1031F0008A81882391F082E090E062E370E040E011
:1032000026E030E000E00E94001282E390E0698155
:103210004AE550E020E00E94C1100E94BF0F91E0FB
:103220008927882381F6998181E0292F282782E345
:1032300090E0622F4CE350E020E00E94C11082E059
:1032400090E062E370E040E023E030E000E00E94C4
:10325000001282E090E062E370E040E02AE030E0BB
:1032600000E00E940012998181E0292F282782E343
:1032700090E0622F44EB50E020E00E94C11082E019
:1032800090E060E070E040E00E9489108BE197E000
:1032900064E170E00E94F90360ED77E080E090E087
:1032A0000E94182B82E090E062E370E040E02EE1A3
:1032B00030E000E00E94001282E090E062E370E003
:1032C00041E024E130E000E00E94001282E090E062
:1032D00060E070E040E00E94891060E47FE180E0FF
:1032E00090E00E94182B82E090E060E070E040E007
:1032F0000E94891068E273E280E090E00E94182B3F
:103300002A960FB6F894DEBF0FBECDBFCF91DF91E6
:103310000F910895DF93CF93CDB7DEB768970FB6BF
:10332000F894DEBF0FBECDBF86E10E94DA2D009774
:1033300079F087E10E94DA2D009751F088E10E9430
:10334000DA2D009729F089E10E94DA2D009719F40F
:1033500021E0288F01C0188E888D882339F082E003
:1033600090E090933802809337023AC085E30E9440
:10337000DA2D009719F186E10E94DA2D0097F1F01D
:1033800087E10E94DA2D0097C9F088E10E94DA2DCA
:103390000097A1F089E10E94DA2D009779F084E38B
:1033A0000E94DA2D009751F08091370290913802F7
:1033B0008230910519F441E04F8B01C01F8A8F893B
:1033C000882371F083E090E0909338028093370275
:1033D0008091FD049091FE04909311078093100753
:1033E00080913702909138028330910589F4809161
:1033F000FD049091FE042091100730911107821B6B
:10340000930B53E08A3395071CF081E08E8B01C04B
:103410001E8A8E89882339F08DE061E00E94A72DF5
:103420000E9421172AC18091370290913802813081
:10343000910531F08091370290913802009781F424
:103440008091FD049091FE042091100730911107A6
:10345000821B930B8B3091051CF091E09D8B01C07A
:103460001D8A8D89882309F408C1809137029091C3
:1034700038028130910509F079C083E090E09093A3
:103480003802809337028091FF0490910005909359
:103490001107809310070E94BF0F80930F0712C07F
:1034A00081E090E062E370E040E00E94891080E0FB
:1034B00090E062E370E041E00E9489100E94BF0F3B
:1034C00080930F078091FF049091000520911007D1
:1034D00030911107821B930B863991055CF4909112
:1034E0000F0781E0982781E08927882319F421E0DC
:1034F0002C8B01C01C8A8C89882391F68091FF0453
:1035000090910005909311078093100712C081E0FD
:1035100090E062E370E041E00E94891080E090E07A
:1035200062E370E040E00E9489100E94BF0F809328
:103530000F078091FF0490910005209110073091B2
:103540001107821B930B863991055CF490910F074C
:1035500081E0982781E08927882319F441E04B8B8B
:1035600001C01B8A8B89882391F67FC08091370226
:1035700090913802009709F078C083E090E0909332
:103580003802809337028091FD049091FE0490935D
:103590001107809310070E94BF0F80930F0712C07E
:1035A00081E090E062E370E041E00E94891080E0F9
:1035B00090E062E370E040E00E9489100E94BF0F3B
:1035C00080930F078091FD049091FE0420911007D5
:1035D00030911107821B930B863991055CF4909111
:1035E0000F0781E0982781E08927882319F451E0AB
:1035F0005A8B01C01A8A8A89882391F68091FD042A
:103600009091FE04909311078093100712C081E0FF
:1036100090E062E370E040E00E94891080E090E07A
:1036200062E370E041E00E9489100E94BF0F809326
:103630000F078091FD049091FE04209110073091B6
:103640001107821B930B863991055CF490910F074B
:1036500081E0982781E08927882319F481E0898B0C
:1036600001C0198A8989882391F68091FD0490917F
:10367000FE04909311078093100784E30E94DA2DD3
:10368000188A009711F491E0988B2889222309F475
:1036900045C085E30E94DA2D009729F086E10E945B
:1036A000DA2D009719F441E04F8701C01F868F85FE
:1036B000882399F085E060E00E94A72D84E06BE903
:1036C00070E00E94142C87E061E00E94A72D86E044
:1036D0006FEF70E00E94142C12C085E060E00E9441
:1036E000A72D84E06FEF70E00E94142C87E061E06A
:1036F0000E94A72D86E06FEF70E00E94142C81E0FD
:1037000090E090933802809337028091FD0490916D
:10371000FE0490931107809310078DC185E30E94EA
:10372000DA2D1E86009711F451E05E878E8588237E
:10373000E9F189E10E94DA2D1D86009711F491E0EC
:103740009D872D85222399F085E061E00E94A72DB9
:1037500084E06FEF70E00E94142C87E060E00E942C
:10376000A72D86E06BE970E00E94142C12C085E062
:1037700061E00E94A72D84E06FEF70E00E94142C9E
:1037800087E060E00E94A72D86E06FEF70E00E9466
:10379000142C10923802109237028091FD049091FF
:1037A000FE04909311078093100745C11092FA040C
:1037B0001092F9041092FC041092FB041A821982F0
:1037C0005EC089819A81880F991FFC01E75CFD4FDB
:1037D000408151815C874B8789818A5E0E94DA2D06
:1037E0001A861986009721F481E090E09A878987EC
:1037F0004B855C8589859A85489F9001499F300D4E
:10380000589F300D11248091F9049091FA04820F91
:10381000931F9093FA048093F90489819A81049606
:10382000880F991FFC01E75CFD4F4081518158874B
:103830004F8389818A5E0E94DA2D1E821D82009745
:1038400021F481E090E09E838D834F8158858D81A6
:103850009E81489F9001499F300D589F300D112443
:103860008091FB049091FC04820F931F9093FC04C1
:103870008093FB0489819A8101969A838983898147
:103880009A81843091050CF49CCF8091F904909139
:10389000FA04853691053CF084E690E09093FA04B2
:1038A0008093F9040EC08091F9049091FA042FEFEF
:1038B0008C39920734F48CE99FEF9093FA0480934B
:1038C000F9048091FB049091FC04853691053CF04D
:1038D00084E690E09093FC048093FB040EC08091FA
:1038E000FB049091FC044FEF8C39940734F48CE97D
:1038F0009FEF9093FC048093FB042091F904309196
:10390000FA048091FB049091FC042817390799F47C
:1039100085E061E00E94A72D84E064EB70E00E94E6
:10392000142C87E061E00E94A72D86E064EB70E034
:103930000E94142C80C08091F9049091FA0418160A
:10394000190684F485E061E00E94A72D8091F904B6
:103950009091FA049C0125563F4F84E0B9010E94E2
:10396000142C29C08091F9049091FA0499238CF4C5
:1039700085E060E00E94A72D8091F9049091FA04FF
:103980002BE930E0281B390B84E0B9010E94142C8C
:1039900012C08091FB049091FC041C82992314F4C2
:1039A00051E05C8385E06C810E94A72D84E06AE091
:1039B00070E00E94142C8091FB049091FC04181676
:1039C000190684F487E061E00E94A72D8091FB0432
:1039D0009091FC049C0125563F4F86E0B9010E945E
:1039E000142C29C08091FB049091FC0499238CF441
:1039F00087E060E00E94A72D8091FB049091FC0479
:103A00002BE930E0281B390B86E0B9010E94142C09
:103A100012C08091F9049091FA041B82992314F446
:103A200081E08B8387E06B810E94A72D86E06AE0AE
:103A300070E00E94142C68960FB6F894DEBF0FBE9B
:103A4000CDBFCF91DF910895DF93CF93CDB7DEB790
:103A500029970FB6F894DEBF0FBECDBF8B836C8362
:103A60005E834D832F831A8219828B8160E00E94CE
:103A7000A72D8B8161E00E94A72D8C8160E020E45E
:103A800032E44FE050E00E940A2EDC01CB019A8321
:103A90008983ED81FE8181E0808389819A8123EC95
:103AA0008135920718F0ED81FE8110828F81882385
:103AB00029F089819A81998788870AC089819A81AA
:103AC00022E330E0B9010E94A545CB0199878887A0
:103AD0008885998529960FB6F894DEBF0FBECDBFB5
:103AE000CF91DF910895DF93CF930F920F92CDB7CF
:103AF000DEB79A83898389819A81892F990F990BDF
:103B0000282F8DE599E0622F0E9456338DE599E0CC
:103B100029813A81B9010E94FC0E8DE599E00E944D
:103B200027360F900F90CF91DF9108950F931F9339
:103B3000DF93CF93CDB7DEB72D970FB6F894DEBFE6
:103B40000FBECDBF9A8789877C876B878DEE94E007
:103B500029853A85B9010E941C0C8DEE94E062E340
:103B600070E00E941A0F8DEE94E00E94150E8DEE0B
:103B700094E029853A85B9010E941C0C8DEE94E0F1
:103B800029853A85B90146E050E00E94740E1A82F8
:103B9000198212C009811A818DEE94E00E944C0CAA
:103BA000282FCE010396FC01E00FF11F20838981AD
:103BB0009A8101969A8389838DEE94E00E94330C5A
:103BC0001D86009711F081E08D878D85882311F780
:103BD0008DEE94E00E94150E8C81882F90E0382F96
:103BE00022278B81882F90E0822B932BEB85FC85FD
:103BF000918380838B859C85FC0132968E81882FF2
:103C000090E0382F22278D81882F90E0822B932BF4
:103C1000918380838B859C85FC0134968885882FD1
:103C200090E0382F22278F81882F90E0822B932BD2
:103C3000918380832D960FB6F894DEBF0FBECDBF63
:103C4000CF91DF911F910F910895DF93CF9300D013
:103C5000CDB7DEB79A8389836B838DEE94E029819B
:103C60003A81B9010E941C0C8DEE94E06DE270E087
:103C70000E941A0F8DEE94E06B810E94AE0D8DEEC6
:103C800094E00E94150E0F900F900F90CF91DF914E
:103C90000895DF93CF93CDB7DEB78DE599E040E887
:103CA00055E260E070E00E9473318DEE94E00E9476
:103CB000AA0E8BE197E069E070E00E942B058BE192
:103CC00097E064E170E00E94F90384E061E00E9403
:103CD000F42C85E061E00E94F42C86E061E00E9413
:103CE000F42C87E061E00E94F42C88E260E00E94FE
:103CF000F42C87E261E00E94F42C86E260E00E94EE
:103D0000F42C85E261E00E94F42C8DE061E00E94D9
:103D1000F42C86E160E00E94F42C87E160E00E94D0
:103D2000F42C88E160E00E94F42C89E160E00E94BC
:103D3000F42C8AE162E00E94F42C8BE162E00E94A4
:103D4000F42C8CE162E00E94F42C28E33FE085E053
:103D5000B90142E050E00E946C2828E43FE084E092
:103D6000B90142E050E00E946C2883E590E060E0F9
:103D70000E94251E83E590E060E10E94251E83E5F8
:103D800090E068E00E94251E29E037E083E590E09E
:103D9000B9010E94961DCF91DF910895DF93CF93D3
:103DA000CDB7DEB70E947B2B0E94491E82E090E0D7
:103DB00064E670E041E00E9489100E94E42ADC0180
:103DC000CB0190931607809315078091FD04909185
:103DD000FE0490931A07809319078091FF04909135
:103DE0000005909318078093170781E080931307CD
:103DF0000E948A190E9465150E949212F9CFEF92D3
:103E0000FF920F931F937B018C0120E030E040E094
:103E10005FE40E94AB2288238CF0C801B70120E048
:103E200030E040E05FE40E9477200E94C4239B01C1
:103E3000AC01205030404040504806C0C801B70196
:103E40000E94C4239B01AC01B901CA011F910F91CB
:103E5000FF90EF900895A0E0B0E0E1E3FFE10C9463
:103E6000F645DC012B01FA019C91923008F439C12E
:103E7000EB018881823008F433C1943069F48430D6
:103E800009F02FC111969C9111978981981709F417
:103E900028C1A8E5B2E025C1843009F421C18230EF
:103EA000A9F4923009F01DC19A01AD0188E0EA0140
:103EB0000990AE01E90109929E018150C1F7E2012A
:103EC000898111969C918923818308C1923009F4DC
:103ED00007C112962D903C901397EB018A819B812C
:103EE0001496AD90BD90CD90DC901797EC80FD803E
:103EF0000E811F819101281B390BB90137FF04C0C6
:103F000066277727621B730B603271050CF061C066
:103F1000121613066CF537014801062E04C096945C
:103F20008794779467940A94D2F721E030E040E0D8
:103F300050E004C0220F331F441F551F6A95D2F76B
:103F400021503040404050402E213F2140235123FA
:103F5000211531054105510521F021E030E040E017
:103F600050E079018A01E628F728082919293CC080
:103F7000232BD1F1260E371E35014601062E04C033
:103F800096948794779467940A94D2F721E030E06E
:103F900040E050E004C0220F331F441F551F6A95B4
:103FA000D2F721503040404050402A213B214C2143
:103FB0005D21211531054105510521F021E030E059
:103FC00040E050E059016A01A628B728C828D9283E
:103FD0000BC0821593052CF01C01AA24BB2465019B
:103FE00003C0EE24FF24870111969C91D201119603
:103FF0008C91981709F445C0992339F0A8019701CD
:104000002A193B094C095D0906C0A60195012E1924
:104010003F09400B510B57FD08C0118233822282A9
:1040200024833583468357831DC081E08183338297
:10403000228288279927DC01821B930BA40BB50BE6
:1040400084839583A683B7830DC0220F331F441F3B
:10405000551F24833583468357838281938101973B
:10406000938382832481358146815781DA01C90196
:104070000197A109B1098F5F9F4FAF4FBF4328F34D
:104080000BC0918333822282EA0CFB1C0C1D1D1D88
:10409000E482F5820683178383E08083248135815F
:1040A0004681578157FF1AC0C901AA2797FDA095DD
:1040B000BA2F81709070A070B07056954795379563
:1040C0002795822B932BA42BB52B84839583A683D2
:1040D000B78382819381019693838283DF0101C03C
:1040E000D201CD01CDB7DEB7E2E10C941246A0E2D9
:1040F000B0E0EDE7F0E20C94024669837A838B83AB
:104100009C832D833E834F835887E9E0EE2EF12C6C
:10411000EC0EFD1ECE010196B7010E94B5258E0161
:104120000F5E1F4FCE010596B8010E94B5258A8902
:1041300091E089278A8BC701B801AE01475E5F4FC6
:104140000E942B1F0E94E024A096E6E00C941E46DD
:10415000A0E2B0E0EEEAF0E20C94024669837A83D2
:104160008B839C832D833E834F835887F9E0EF2E0A
:10417000F12CEC0EFD1ECE010196B7010E94B52573
:104180008E010F5E1F4FCE010596B8010E94B52526
:10419000C701B801AE01475E5F4F0E942B1F0E940E
:1041A000E024A096E6E00C941E46A0E2B0E0EBED21
:1041B000F0E20C94F64569837A838B839C832D838C
:1041C0003E834F835887CE010196BE01675F7F4FC4
:1041D0000E94B525CE010596BE016F5E7F4F0E94FD
:1041E000B5259985923088F089898230C8F094305D
:1041F00019F4823051F404C0843029F4923081F4EF
:1042000088E592E0C6C0923049F420E09A858A8918
:10421000981321E02A87CE010996BBC0823049F469
:1042200020E09A858A89981321E02A8BCE01419655
:10423000B0C02D843E844F8458886D887E888F88D6
:10424000988CEE24FF248701AA24BB24650140E05A
:1042500050E060E070E0E0E0F0E0C101817090705B
:10426000892BE9F0E60CF71C081D191D9A01AB011A
:104270002A0D3B1D4C1D5D1D80E090E0A0E0B0E0EC
:10428000E614F7040805190520F481E090E0A0E0A9
:10429000B0E0BA01A901480F591F6A1F7B1FAA0C81
:1042A000BB1CCC1CDD1C97FE08C081E090E0A0E0A8
:1042B000B0E0A82AB92ACA2ADB2A3196E032F105F1
:1042C00049F0660C771C881C991C569447943794C7
:1042D0002794C3CFFA85EA892B893C898B859C85F5
:1042E000280F391F2E5F3F4F17C0CA018170907091
:1042F000892B61F016950795F794E79480E090E09C
:10430000A0E0B0E8E82AF92A0A2B1B2B76956795DE
:10431000579547952F5F3F4F77FDE7CF0CC0440F70
:10432000551F661F771F17FD4160EE0CFF1C001F15
:10433000111F21503040403090E0590790E069074C
:1043400090E4790760F32B8F3C8FDB01CA018F77F4
:104350009070A070B07080349105A105B10561F432
:1043600047FD0AC0E114F1040105110529F0405C84
:104370005F4F6F4F7F4F40781A8EFE1711F081E02C
:104380008A8F4D8F5E8F6F8F78A383E0898FCE01E8
:1043900049960E94E024A096E2E10C941246A8E11E
:1043A000B0E0E5EDF1E20C94FE4569837A838B83FE
:1043B0009C832D833E834F835887B9E0EB2EF12CED
:1043C000EC0EFD1ECE010196B7010E94B5258E01AF
:1043D0000F5E1F4FCE010596B8010E94B5252985B5
:1043E000223008F47EC03989323010F4B8017CC024
:1043F0008A859A8989278A87243011F0223031F4FE
:10440000231709F06EC068E572E06EC0343039F4ED
:104410001D861E861F86188A1C861B8604C03230A5
:1044200021F484E08987B7015FC02B853C858B89A7
:104430009C89281B390B3C872B87ED84FE840F85D4
:104440001889AD88BE88CF88D88CEA14FB040C0587
:104450001D0540F4EE0CFF1C001F111F21503040C1
:104460003C872B8720E030E040E050E080E090E0A7
:10447000A0E0B0E460E070E0EA14FB040C051D0568
:1044800040F0282B392B4A2B5B2BEA18FB080C0930
:104490001D09B695A79597958795EE0CFF1C001FF3
:1044A000111F6F5F7F4F6F31710531F7DA01C9015D
:1044B0008F779070A070B07080349105A105B10520
:1044C00061F427FD0AC0E114F1040105110529F08A
:1044D000205C3F4F4F4F5F4F20782D873E874F879F
:1044E000588BBE01675F7F4FCB010E94E024689626
:1044F000EAE00C941A46A8E1B0E0E1E8F2E20C949C
:10450000024669837A838B839C832D833E834F830A
:10451000588789E0E82EF12CEC0EFD1ECE010196A5
:10452000B7010E94B5258E010F5E1F4FCE01059683
:10453000B8010E94B5258985823040F08989823092
:1045400028F0C701B8010E942D2601C08FEF6896A0
:10455000E6E00C941E46A8E1B0E0E1EBF2E20C9438
:10456000024669837A838B839C832D833E834F83AA
:10457000588789E0E82EF12CEC0EFD1ECE01019645
:10458000B7010E94B5258E010F5E1F4FCE01059623
:10459000B8010E94B5258985823040F08989823032
:1045A00028F0C701B8010E942D2601C08FEF689640
:1045B000E6E00C941E46A8E1B0E0E1EEF2E20C94D5
:1045C000024669837A838B839C832D833E834F834A
:1045D000588789E0E82EF12CEC0EFD1ECE010196E5
:1045E000B7010E94B5258E010F5E1F4FCE010596C3
:1045F000B8010E94B5258985823040F089898230D2
:1046000028F0C701B8010E942D2601C081E06896FC
:10461000E6E00C941E46A8E1B0E0E1E1F3E20C9480
:10462000024669837A838B839C832D833E834F83E9
:10463000588789E0E82EF12CEC0EFD1ECE01019684
:10464000B7010E94B5258E010F5E1F4FCE01059662
:10465000B8010E94B5258985823040F08989823071
:1046600028F0C701B8010E942D2601C081E068969C
:10467000E6E00C941E46A8E1B0E0E1E4F3E20C941D
:10468000064669837A838B839C832D833E834F8385
:104690005887CE010196BE01675F7F4F0E94B52506
:1046A000CE010596BE016F5E7F4F0E94B5258985BC
:1046B000823028F020E030E08989823010F421E057
:1046C00030E0822F6896E2E00C942246A8E0B0E049
:1046D000ECE6F3E20C94FF459B01AC0183E0898397
:1046E000DA01C9018827B7FD83959927AA27BB2737
:1046F000B82E211531054105510519F482E0898351
:104700003AC08823A9F0203080E0380780E04807CD
:1047100080E8580729F460E070E080E09FEC30C04A
:10472000EE24FF248701E21AF30A040B150B02C0E2
:1047300079018A018EE1C82ED12CDC82CB82ED82F8
:10474000FE820F831887C801B7010E949124019748
:104750001816190684F4082E04C0EE0CFF1C001F66
:10476000111F0A94D2F7ED82FE820F831887C81AB0
:10477000D90ADC82CB82BA82CE0101960E94E02463
:104780002896E9E00C941B46ACE0B0E0EAECF3E2DA
:104790000C94064669837A838B839C83CE010196B1
:1047A000BE016B5F7F4F0E94B5258D81823061F124
:1047B000823050F1843021F48E81882351F12EC053
:1047C0002F81388537FD20C06E812F3131051CF0D7
:1047D0006623F9F023C08EE190E0821B930B2985BC
:1047E0003A854B855C8504C0569547953795279546
:1047F0008A95D2F76623B1F0509540953095219572
:104800003F4F4F4F5F4F0EC020E030E040E050E0A0
:1048100009C02FEF3FEF4FEF5FE704C020E030E02B
:1048200040E050E8B901CA012C96E2E00C9422461F
:10483000A8E0B0E0EEE1F4E20C94FE457B018C01CF
:10484000611571058105910519F482E0898360C0C5
:1048500083E089838EE1C82ED12CDC82CB82ED826D
:10486000FE820F831887C801B7010E949124FC01C2
:104870003197F7FF3BC0222733272E1B3F0B5701F1
:104880006801022E04C0D694C794B794A7940A94E2
:10489000D2F740E050E060E070E081E090E0A0E01E
:1048A000B0E004C0880F991FAA1FBB1F2A95D2F73A
:1048B0000197A109B1098E219F21A023B12300975F
:1048C000A105B10521F041E050E060E070E04A2927
:1048D0005B296C297D294D835E836F8378878EE108
:1048E00090E08E1B9F0B9C838B8312C0309781F0CE
:1048F0000E2E04C0EE0CFF1C001F111F0A94D2F7ED
:10490000ED82FE820F831887CE1ADF0ADC82CB820B
:104910001A82CE0101960E94E0242896EAE00C94C7
:104920001A46EF92FF920F931F937B018C0180E058
:10493000E81680E0F80681E0080780E0180788F4B0
:104940008FEFE816F1040105110531F028F088E039
:1049500090E0A0E0B0E017C080E090E0A0E0B0E020
:1049600012C080E0E81680E0F80680E0080781E0E9
:10497000180728F088E190E0A0E0B0E004C080E1F2
:1049800090E0A0E0B0E020E230E040E050E0281B02
:10499000390B4A0B5B0B04C016950795F794E79407
:1049A0008A95D2F7F701E05AFD4F8081281B310923
:1049B00041095109C9011F910F91FF90EF9008958E
:1049C000DF92EF92FF920F931F93FC01E480F5803A
:1049D00006811781D1808081823048F480E090E0A8
:1049E000A0E1B0E0E82AF92A0A2B1B2BA5C08430ED
:1049F00009F49FC0823021F4EE24FF24870105C012
:104A0000E114F1040105110519F4E0E0F0E096C0AD
:104A1000628173819FEF623879070CF05BC022E8F6
:104A20003FEF261B370B2A3131052CF020E030E018
:104A300040E050E02AC0B801A701022E04C07695DC
:104A40006795579547950A94D2F781E090E0A0E0EA
:104A5000B0E004C0880F991FAA1FBB1F2A95D2F788
:104A60000197A109B1098E219F21A023B1230097AD
:104A7000A105B10521F081E090E0A0E0B0E09A014D
:104A8000AB01282B392B4A2B5B2BDA01C9018F771D
:104A90009070A070B07080349105A105B10539F413
:104AA00027FF09C0205C3F4F4F4F5F4F04C0215C80
:104AB0003F4F4F4F5F4FE0E0F0E02030A0E03A077B
:104AC000A0E04A07A0E45A0710F0E1E0F0E0790125
:104AD0008A0127C06038710564F5FB01E158FF4F7A
:104AE000D801C7018F779070A070B07080349105A5
:104AF000A105B10539F4E7FE0DC080E490E0A0E027
:104B0000B0E004C08FE390E0A0E0B0E0E80EF91E52
:104B10000A1F1B1F17FF05C016950795F794E7940A
:104B2000319687E016950795F794E7948A95D1F723
:104B300005C0EE24FF248701EFEFF0E06E2F6795AC
:104B400066276795902F9F77D794DD24D7948E2F73
:104B50008695492F462B582F5D29B701CA011F9111
:104B60000F91FF90EF90DF900895FC01DB014081F1
:104B700051812281622F6F7770E0221F2227221F2E
:104B80009381892F880F822B282F30E0991F992736
:104B9000991F11969C93119721153105A9F541157F
:104BA00051056105710511F482E037C082E89FEF7D
:104BB00013969C938E9312979A01AB0167E0220F94
:104BC000331F441F551F6A95D1F783E08C930DC0A6
:104BD000220F331F441F551F12968D919C911397DE
:104BE000019713969C938E931297203080E038079C
:104BF00080E0480780E4580758F314962D933D93BE
:104C00004D935C93179708952F3F310579F4411523
:104C100051056105710519F484E08C93089564FFD2
:104C200003C081E08C9312C01C9210C02F573040FB
:104C300013963C932E93129783E08C9387E0440F56
:104C4000551F661F771F8A95D1F7706414964D9390
:104C50005D936D937C93179708951F93DC01FB017F
:104C60009C91923008F447C08081823008F443C0A0
:104C7000943051F411961C91843099F58181682FFC
:104C800070E0611B71093FC0843021F0923031F433
:104C90008230B9F18181882389F12DC011961C9150
:104CA00011978230F1F081811817D9F412962D9165
:104CB0003C911397828193818217930794F0281770
:104CC0003907BCF014968D919D910D90BC91A02D4B
:104CD0002481358146815781281739074A075B07A8
:104CE00018F4112341F00AC082179307A407B507EF
:104CF00040F4112319F061E070E005C06FEF7FEF21
:104D000002C060E070E0CB011F910895A0E0B0E028
:104D1000EBE8F6E273CFC82FD92FA880B980CA80FC
:104D2000DB80A114B104C104D10441F484E2A82EB3
:104D300089EDB82E8BE5C82E87E0D82E9D2D8C2DC1
:104D40007B2D6A2D2DE133EF41E050E034DF27EA7F
:104D500031E440E050E0CEDEE62EF72E082F192F8A
:104D60009D2D8C2D7B2D6A2D2DE133EF41E050E000
:104D700022DF952F842F732F622F2CEE34EF4FEF0D
:104D80005FEFB8DE6E0D7F1D801F911F97FF04C07F
:104D90006150704080409048688379838A839B8308
:104DA000262F372F482F592F5F77622F732F842F8D
:104DB000952FCDB7DEB7EAE03DCFA8DF089580E6B6
:104DC00093E0A4DF08956093600370936103809380
:104DD00062039093630308951F93E82FF92F992797
:104DE0008827682F792FE89411911032E9F3193050
:104DF00010F01E30C8F31B3249F01D3241F46894A4
:104E000005C005D1610F711D811D911D11911053B8
:104E10001A30B8F33EF490958095709561957F4F68
:104E20008F4F9F4F1F910895E62FF72FA82FB92F6F
:104E300004C08D910190801921F441505040C8F771
:104E4000881B990B0895E62FF72FA82FB92F02C0C2
:104E500001900D9241505040D8F708956817790796
:104E600078F4E62FF72FA82FB92FE40FF51FA40F22
:104E7000B51F02C002900E9241505040D8F70895DD
:104E8000E2CFE82FF92F8191861721F08823D9F7F7
:104E90009927089531978E2F9F2F0895E62FF72F8A
:104EA000A82FB92F8D91019080190110D9F3990B7A
:104EB0000895E62FF72FA82FB92F01900D9200200B
:104EC000E1F70895E62FF72FA82FB92F4150504052
:104ED00030F08D910190801919F40020B9F7881BEA
:104EE000990B0895E62FF72FA82FB92F4150504066
:104EF00048F001900D920020C9F701C01D92415069
:104F00005040E0F70895E82FF92F81E090E00190FC
:104F1000061611F48E2F9F2F0020C9F701970895D0
:104F2000E62FF72F51915523C9F06E2F7F2FA82F11
:104F3000B92F4D9145174111E1F769F48A2F9B2F45
:104F40000190002051F04D9140154111C9F3E62F19
:104F5000F72F4111ECCF81E090E001970895E62F03
:104F6000F72F2E2F3F2FE8944230C4F04532B4F48F
:104F70004A3029F497FB1EF4909581959F4F642F3A
:104F80007727E3DD805D8A330CF0895D8193862F7E
:104F9000972F0097A1F716F45DE251931082822FAC
:104FA000932F88C0E42FF52FCF93FF93EF932230F8
:104FB0004CF125323CF5C22FE894CA3049F497FBF6
:104FC0003EF490958095709561957F4F8F4F9F4FE0
:104FD0002C2F332744275527FF93EF93CADDEF91FA
:104FE000FF91605D6A330CF0695D6193622F732FEE
:104FF000842F952F605070408040904049F716F400
:10500000CDE2C19310828F919F91CF9153C0592FC0
:10501000482F372F262F660F771F881F991F660F7F
:10502000771F881F991F620F731F841F951F660FBC
:10503000771F881F991F0895E42FF52FCF93FF93B3
:10504000EF932230D4F02532C4F4C22F2C2F332713
:1050500044275527FF93EF938CDDEF91FF91605D1F
:105060006A330CF0695D6193622F732F842F952F43
:10507000605070408040904049F710828F919F911E
:10508000CF9118C0E62FF72F2E2F3F2F423074F00C
:10509000453264F4642F772758DD805D8A330CF045
:1050A000895D8193862F972F0097A1F71082822F19
:1050B000932F00C0A82FB92FE82FF92F672F7191D8
:1050C0007723E1F7329704C07C916D9370836291EE
:1050D000AE17BF07C8F30895883008F078C0E82FEE
:1050E000F0E0EE0FFF1FEC5DF84F718360838330BB
:1050F000D9F0843030F4813009F444C0823060F457
:1051000039C0853051F18530D8F0863009F446C079
:10511000873009F05CC04FC0809169008C7F842B80
:1051200080936900E89A089580916900440F551FA3
:10513000440F551F837F842B80936900E99A08955B
:105140008091690074E0440F551F7A95E1F78F7CD8
:10515000842B80936900EA9A08958091690066E043
:10516000440F551F6A95E1F78F73842B8093690074
:10517000EB9A089580916A008C7F842B80936A005B
:10518000EC9A089580916A00440F551F440F551FF3
:10519000837F842B80936A00ED9A089580916A0042
:1051A00024E0440F551F2A95E1F78F7C842B8093D0
:1051B0006A00EE9A089580916A0096E0440F551FA8
:1051C0009A95E1F78F73842B80936A00EF9A089584
:1051D000883048F5833091F0843028F48130B1F084
:1051E000823050F411C0853069F0853048F0863047
:1051F00079F0873081F40EC0E8980DC0E9980BC0B3
:10520000EA9809C0EB9807C0EC9805C0ED9803C078
:10521000EE9801C0EF98E82FF0E0EE0FFF1FEC5D75
:10522000F84F1182108208951F920F920FB60F92BD
:105230000BB60F9211242F933F934F935F936F936D
:105240007F938F939F93AF93BF93EF93FF9380913F
:10525000280790912907892B29F0E0912807F091E0
:1052600029071995FF91EF91BF91AF919F918F9170
:105270007F916F915F914F913F912F910F900BBE56
:105280000F900FBE0F901F9018951F920F920FB6A0
:105290000F920BB60F9211242F933F934F935F936E
:1052A0006F937F938F939F93AF93BF93EF93FF93EE
:1052B00080912A0790912B07892B29F0E0912A07EA
:1052C000F0912B071995FF91EF91BF91AF919F91AD
:1052D0008F917F916F915F914F913F912F910F909F
:1052E0000BBE0F900FBE0F901F9018951F920F923C
:1052F0000FB60F920BB60F9211242F933F934F933B
:105300005F936F937F938F939F93AF93BF93EF932D
:10531000FF9380912C0790912D07892B29F0E09124
:105320002C07F0912D071995FF91EF91BF91AF9147
:105330009F918F917F916F915F914F913F912F91AD
:105340000F900BBE0F900FBE0F901F9018951F92DD
:105350000F920FB60F920BB60F9211242F933F931B
:105360004F935F936F937F938F939F93AF93BF936D
:10537000EF93FF9380912E0790912F07892B29F0AF
:10538000E0912E07F0912F071995FF91EF91BF91B2
:10539000AF919F918F917F916F915F914F913F91CD
:1053A0002F910F900BBE0F900FBE0F901F9018956E
:1053B0001F920F920FB60F920BB60F9211242F93DC
:1053C0003F934F935F936F937F938F939F93AF938D
:1053D000BF93EF93FF938091240790912507892B2A
:1053E00029F0E0912407F09125071995FF91EF919D
:1053F000BF91AF919F918F917F916F915F914F91ED
:105400003F912F910F900BBE0F900FBE0F901F90EA
:1054100018951F920F920FB60F920BB60F92112490
:105420002F933F934F935F936F937F938F939F93AC
:10543000AF93BF93EF93FF93809126079091270737
:10544000892B29F0E0912607F09127071995FF9104
:10545000EF91BF91AF919F918F917F916F915F91EC
:105460004F913F912F910F900BBE0F900FBE0F9059
:105470001F9018951F920F920FB60F920BB60F92B6
:1054800011242F933F934F935F936F937F938F9349
:105490009F93AF93BF93EF93FF93809130079091C9
:1054A0003107892B29F0E0913007F09131071995E8
:1054B000FF91EF91BF91AF919F918F917F916F91EC
:1054C0005F914F913F912F910F900BBE0F900FBEA8
:1054D0000F901F9018951F920F920FB60F920BB658
:1054E0000F9211242F933F934F935F936F937F936A
:1054F0008F939F93AF93BF93EF93FF938091320766
:1055000090913307892B29F0E0913207F09133070E
:105510001995FF91EF91BF91AF919F918F917F91DD
:105520006F915F914F913F912F910F900BBE0F9014
:105530000FBE0F901F9018951F920F920FB60F92EB
:1055400011242F933F938F939F93AF93BF93809199
:10555000380790913907A0913A07B0913B073091F5
:105560003C070196A11DB11D232F2D5F2D3720F083
:105570002D570196A11DB11D20933C07809338073C
:1055800090933907A0933A07B0933B078091340773
:1055900090913507A0913607B09137070196A11D6C
:1055A000B11D8093340790933507A0933607B093CD
:1055B0003707BF91AF919F918F913F912F910F909E
:1055C0000FBE0F901F9018958FB7F8942091380751
:1055D0003091390740913A0750913B078FBFB9018D
:1055E000CA0108959FB7F894209134073091350788
:1055F000409136075091370786B5A89B06C08F3F6C
:1056000021F02F5F3F4F4F4F5F4F9FBF542F432FCE
:10561000322F2227280F311D411D511D82E0220FFC
:10562000331F441F551F8A95D1F7B901CA01089548
:105630009B01AC017FB7F8948091340790913507B6
:10564000A0913607B091370766B5A89B05C06F3F9C
:1056500019F00196A11DB11D7FBFBA2FA92F982F58
:105660008827860F911DA11DB11D62E0880F991F2B
:10567000AA1FBB1F6A95D1F7BC012DC0FFB7F894D4
:105680008091340790913507A0913607B091370784
:10569000E6B5A89B05C0EF3F19F00196A11DB11D0D
:1056A000FFBFBA2FA92F982F88278E0F911DA11DFC
:1056B000B11DE2E0880F991FAA1FBB1FEA95D1F721
:1056C000861B970B885E9340C8F2215030404040C3
:1056D000504068517C4F211531054105510571F647
:1056E0000895019739F0880F991F880F991F029725
:1056F0000197F1F70895789484B5826084BD84B5EC
:10570000816084BD85B5826085BD85B5816085BDBC
:10571000EEE6F0E0808181608083E1E8F0E01082D5
:10572000808182608083808181608083E0E8F0E016
:10573000808181608083E1EBF0E080818460808300
:10574000E0EBF0E0808181608083E1E9F0E080813E
:1057500082608083808181608083E0E9F0E08081E5
:1057600081608083E1EAF0E08081826080838081D3
:1057700081608083E0EAF0E0808181608083E1E203
:10578000F1E0808182608083808181608083E0E2BB
:10579000F1E0808181608083EAE7F0E080818460CD
:1057A000808380818260808380818160808380812A
:1057B000806880831092C1000895809364030895E7
:1057C000382F863308F0365320917B00832F86953F
:1057D0008695869590E08170907043E0880F991FC0
:1057E0004A95E1F7277F282B20937B003770809123
:1057F00064038295880F880F807C832B80937C00C4
:1058000080917A00806480937A0080917A0086FD8E
:10581000FCCF2091780040917900942F80E030E017
:10582000282B392BC90108951F93CF93DF93182F8D
:10583000EB0161E00E94F42C209709F4CAC0CF3F2D
:10584000D10509F4C9C0E12FF0E0E254FE4F849184
:10585000893009F466C08A30B0F48430F1F18530C3
:1058600040F4823059F1833070F5813009F0AEC0D8
:1058700020C0873009F443C0883008F048C0863023
:1058800009F0A4C034C08D3009F478C08E3038F4EB
:105890008B3009F45AC08C3008F066C04CC080319F
:1058A00009F480C0813109F487C08F3009F08EC0BF
:1058B0006FC084B5806884BDC7BD92C084B5806266
:1058C00084BDC8BD8DC080918000806880938000B9
:1058D000D0938900C093880083C08091800080624B
:1058E00080938000D0938B00C0938A0079C0809110
:1058F000B00080688093B000C093B30071C0809105
:10590000B00080628093B000C093B40069C0809101
:105910009000806880939000D0939900C093980085
:105920005FC080919000806280939000D0939B0034
:10593000C0939A0055C08091900088608093900039
:10594000D0939D00C0939C004BC08091A0008068C4
:105950008093A0008091A0008F7B8093A000D093C3
:10596000A900C093A8003CC08091A00080628093F1
:10597000A000D093AB00C093AA0032C08091A000D9
:1059800088608093A000D093AD00C093AC0028C085
:1059900080912001806880932001D0932901C093D9
:1059A00028011EC080912001806280932001D09345
:1059B0002B01C0932A0114C080912001886080933C
:1059C0002001D0932D01C0932C010AC0C038D1050D
:1059D0001CF4812F60E002C0812F61E00E94A72D9E
:1059E000DF91CF911F910895CF93DF93482F50E01F
:1059F000CA0188589E4FFC0134914E5C5E4FFA01FB
:105A00008491882369F190E0880F991FFC01EC5183
:105A1000FF4FA591B491FC01E250FF4FC591D49185
:105A2000662351F42FB7F8948C91932F9095892386
:105A30008C93888189230BC0623061F42FB7F8946E
:105A40008C91932F909589238C938881832B8883C5
:105A50002FBF06C09FB7F8948C91832B8C939FBF68
:105A6000DF91CF910895893009F449C08A30A0F4BC
:105A7000843051F1853040F4823079F1833000F583
:105A8000813009F063C026C0873079F1883098F5FD
:105A9000863009F05BC025C08D3009F442C08E30DD
:105AA00028F48B30B1F18C30C0F52DC0803109F471
:105AB00042C0813109F445C08F3009F047C037C07A
:105AC000809180008F7703C0809180008F7D8093CC
:105AD0008000089584B58F7702C084B58F7D84BD22
