:100000000C9405010C9432010C9432010C943201D1
:100010000C9432010C9432010C9432010C94320194
:100020000C9432010C9432010C9432010C94320184
:100030000C9432010C9432010C9432010C94320174
:100040000C9432010C9432010C9432010C94320164
:100050000C9432010C9432010C9432010C941E0D5C
:100060000C9432010C948D100C94D5110C94320127
:100070000C9432010C9432010C9432010C94320134
:100080000C9432010C9432010C9432010C94320124
:100090000C94CD100C9414120C9432010C94320177
:1000A0000C9432010C9432010C9432010C94320104
:1000B0000C9432010C9432010C9432010C943201F4
:1000C0000C9432010C9432010C9432010C940D11F9
:1000D0000C9453120C9432010C944D110C94921206
:1000E0000C94320100002100240027002A002D007A
:1000F0003000330001010000040107010A01000083
:100100002200250028002B002E00310034000201BF
:100110000000050108010B0100002000230026005B
:1001200029002C002F00320000010000030106010D
:10013000090105050505070508080808020202026D
:100140000A0A080804040404010101010101010173
:100150000303030303030303040707070C0C0C0C3E
:100160000C0C0C0C02020202060606060606060627
:100170000B0B0B0B0B0B0B0B0102102020080810B4
:100180002040102040800201020108040201010207
:1001900004081020408080402010080402018004E0
:1001A000020180402010080402010804020101023B
:1001B0000408102040800102040810204080000044
:1001C000090A02080B0C0D070603040100000000D9
:1001D000000000000000000000000000000000001F
:1001E0000000000000000000000011100F000000DF
:1001F00000000000000000000000000000000000FF
:100200000000000061017E15CC1611241FBECFEF47
:10021000D1E2DEBFCDBF00E00CBF13E0A0E0B2E052
:10022000ECEEFEE400E00BBF02C007900D92A03898
:10023000B107D9F71BBE16E0A0E8B3E001C01D92DC
:10024000AF34B107E1F712E0CAE0D2E004C0229770
:10025000FE010E944127C430D107C9F70E942B0438
:100260000C9474270C940000DF93CF93CDB7DEB7C6
:10027000CF91DF9108950F93DF93CF9300D00F922A
:10028000CDB7DEB79A8389837C836B8389819A811A
:100290008130910571F48B819C812FEF8F3F920704
:1002A00041F48DE893E060E040E020E000E00E944F
:1002B000C0160F900F900F900F90CF91DF910F917C
:1002C0000895DF93CF93CDB7DEB781E090E06FEF75
:1002D0007FEF0E943B01CF91DF910895DF93CF9391
:1002E000CDB7DEB78CEB95E040E855E260E070E01A
:1002F0000E94591384E061E00E94760F85E061E07E
:100300000E94760F86E061E00E94760F87E061E050
:100310000E94760F8DE061E00E94760F86E160E03A
:100320000E94760F87E160E00E94760F88E160E02E
:100330000E94760F89E160E00E94760FCF91DF91F5
:100340000895DF93CF93CDB7DEB72B970FB6F89410
:10035000DEBF0FBECDBF10928103109280031092BA
:100360008303109282031A8219825EC089819A8166
:10037000880F991FFC01E25EFD4F408151815B8730
:100380004A8789818A5E0E945C10198618860097C8
:1003900021F481E090E0998788874A855B8588858C
:1003A0009985489F9001499F300D589F300D112429
:1003B0008091800390918103820F931F909381031A
:1003C0008093800389819A810496880F991FFC018C
:1003D000E25EFD4F408151815F834E8389818A5E59
:1003E0000E945C101D821C82009721F481E090E045
:1003F0009D838C834E815F818C819D81489F90017C
:10040000499F300D589F300D1124809182039091A7
:100410008303820F931F90938303809382038981C8
:100420009A8101969A83898389819A818430910582
:100430000CF49CCF86E10E945C10009729F089E1C2
:100440000E945C10009719F491E09B8301C01B820D
:100450008B81882361F080E090E0A0E0B0E08093A1
:10046000880390938903A0938A03B0938B03209110
:1004700080033091810380918203909183038217DE
:1004800093070CF053C080918C03882371F0109275
:100490008C0380E090E0A0E0B0E08093880390932C
:1004A0008903A0938A03B0938B038091800390917A
:1004B0008103AA2797FDA095BA2FBC01CD010E9408
:1004C0009D08DC01CB012091880330918903409184
:1004D0008A0350918B03BC01CD010E94DF05DC0132
:1004E000CB01BC01CD010E94FB08DC01CB01909344
:1004F0008103809380038091880390918903A09168
:100500008A03B0918B03BC01CD0120E030E040E8CC
:100510005FE30E94DF05DC01CB01809388039093A9
:100520008903A0938A03B0938B0361C02091820357
:100530003091830380918003909181038217930708
:100540000CF055C080918C0391E08927882379F0C5
:1005500081E080938C0380E090E0A0E0B0E08093A5
:10056000880390938903A0938A03B0938B038091AF
:10057000820390918303AA2797FDA095BA2FBC010F
:10058000CD010E949D08DC01CB01209188033091B0
:10059000890340918A0350918B03BC01CD010E94D5
:1005A000AE05DC01CB01BC01CD010E94FB08DC01E2
:1005B000CB01909383038093820380918803909171
:1005C0008903A0918A03B0918B03BC01CD0120E087
:1005D00030E040E85FE30E94AE05DC01CB01809390
:1005E000880390938903A0938A03B0938B0380912F
:1005F000880390918903A0918A03B0918B03BC0179
:10060000CD0120E030E046EC52E40E94B20718161B
:100610006CF480E090E0A6ECB2E4809388039093C1
:100620008903A0938A03B0938B031EC08091880333
:1006300090918903A0918A03B0918B03BC01CD01F5
:1006400020E030E046EC52EC0E941208882364F46B
:1006500080E090E0A6ECB2EC80938803909389034D
:10066000A0938A03B0938B038091800390918103C0
:10067000853691053CF084E690E090938103809369
:1006800080030EC080918003909181032FEF8C39FD
:10069000920734F48CE99FEF909381038093800359
:1006A0008091820390918303853691053CF084E626
:1006B00090E090938303809382030EC08091820325
:1006C000909183034FEF8C39940734F48CE99FEFBA
:1006D000909383038093820380918203909183039C
:1006E00099230CF041C0809180039091810399235C
:1006F000DCF58CEB95E020E032E0B9010E94FA19BC
:1007000020918003309181038CEB95E0B9014AE0A0
:1007100050E00E94DB198CEB95E029E032E0B90152
:100720000E94FA1920918203309183038CEB95E0AB
:10073000B9014AE050E00E94DB198CEB95E022E120
:1007400032E0B9010E94FA1920918803309189039F
:1007500040918A0350918B038CEB95E0BA01A9017B
:1007600022E030E00E94E41A80918003909181039E
:100770001816190684F485E061E00E942910809122
:100780008003909181039C0125563F4F84E0B9017D
:100790000E94960E20C0809180039091810399233E
:1007A0008CF485E060E00E94291080918003909194
:1007B00081032BE930E0281B390B84E0B9010E944A
:1007C000960E09C085E061E00E94291084E06BE983
:1007D00070E00E94960E8091820390918303181618
:1007E000190684F487E061E00E9429108091820359
:1007F000909183039C0125563F4F86E0B9010E94EA
:10080000960E20C0809182039091830399238CF4EB
:1008100087E060E00E942910809182039091830319
:100820002BE930E0281B390B86E0B9010E94960EB7
:1008300009C087E061E00E94291086E06BE970E062
:100840000E94960E2B960FB6F894DEBF0FBECDBF5A
:10085000CF91DF910895DF93CF93CDB7DEB70E949C
:10086000FD0D0E946E010E94A101FDCFEF92FF924B
:100870000F931F937B018C0120E030E040E05FE4A8
:100880000E94E20788238CF0C801B70120E030E025
:1008900040E05FE40E94AE050E94FB089B01AC01B2
:1008A000205030404040504806C0C801B7010E9467
:1008B000FB089B01AC01B901CA011F910F91FF9088
:1008C000EF900895A0E0B0E0E8E6F4E00C9408278B
:1008D000DC012B01FA019C91923008F439C1EB0143
:1008E0008881823008F433C1943069F4843009F08F
:1008F0002FC111969C9111978981981709F428C1ED
:10090000ADE3B2E025C1843009F421C18230A9F4FD
:10091000923009F01DC19A01AD0188E0EA01099009
:10092000AE01E90109929E018150C1F7E20189817E
:1009300011969C918923818308C1923009F407C1E3
:1009400012962D903C901397EB018A819B8114960F
:10095000AD90BD90CD90DC901797EC80FD800E811E
:100960001F819101281B390BB90137FF04C066278D
:100970007727621B730B603271050CF061C0121691
:1009800013066CF537014801062E04C0969487942F
:10099000779467940A94D2F721E030E040E050E089
:1009A00004C0220F331F441F551F6A95D2F72150F0
:1009B0003040404050402E213F21402351232115FB
:1009C00031054105510521F021E030E040E050E0E3
:1009D00079018A01E628F728082919293CC0232B28
:1009E000D1F1260E371E35014601062E04C096941D
:1009F0008794779467940A94D2F721E030E040E03E
:100A000050E004C0220F331F441F551F6A95D2F7D0
:100A100021503040404050402A213B214C215D2153
:100A2000211531054105510521F021E030E040E07C
:100A300050E059016A01A628B728C828D9280BC058
:100A4000821593052CF01C01AA24BB24650103C068
:100A5000EE24FF24870111969C91D20111968C916E
:100A6000981709F445C0992339F0A80197012A196C
:100A70003B094C095D0906C0A60195012E193F09E5
:100A8000400B510B57FD08C0118233822282248310
:100A90003583468357831DC081E081833382228260
:100AA00088279927DC01821B930BA40BB50B848349
:100AB0009583A683B7830DC0220F331F441F551F94
:100AC000248335834683578382819381019793835F
:100AD00082832481358146815781DA01C9010197DA
:100AE000A109B1098F5F9F4FAF4FBF4328F30BC0E0
:100AF000918333822282EA0CFB1C0C1D1D1DE482B3
:100B0000F5820683178383E08083248135814681C3
:100B1000578157FF1AC0C901AA2797FDA095BA2F80
:100B200081709070A070B070569547953795279555
:100B3000822B932BA42BB52B84839583A683B78319
:100B400082819381019693838283DF0101C0D20168
:100B5000CD01CDB7DEB7E2E10C942427A0E2B0E0EE
:100B6000E4EBF5E00C94142769837A838B839C83F0
:100B70002D833E834F835887E9E0EE2EF12CEC0E57
:100B8000FD1ECE010196B7010E94EC0A8E010F5E98
:100B90001F4FCE010596B8010E94EC0A8A8991E0A8
:100BA00089278A8BC701B801AE01475E5F4F0E945B
:100BB00062040E94170AA096E6E00C943027A0E297
:100BC000B0E0E5EEF5E00C94142769837A838B831B
:100BD0009C832D833E834F835887F9E0EF2EF12CC1
:100BE000EC0EFD1ECE010196B7010E94EC0A8E01AB
:100BF0000F5E1F4FCE010596B8010E94EC0AC70197
:100C0000B801AE01475E5F4F0E9462040E94170A5E
:100C1000A096E6E00C943027A0E2B0E0E2E1F6E036
:100C20000C94082769837A838B839C832D833E836E
:100C30004F835887CE010196BE01675F7F4F0E94A8
:100C4000EC0ACE010596BE016F5E7F4F0E94EC0A52
:100C50009985923088F089898230C8F0943019F4EF
:100C6000823051F404C0843029F4923081F48DE351
:100C700092E0C6C0923049F420E09A858A899813A0
:100C800021E02A87CE010996BBC0823049F420E0DA
:100C90009A858A89981321E02A8BCE014196B0C0AB
:100CA0002D843E844F8458886D887E888F88988CE8
:100CB000EE24FF248701AA24BB24650140E050E014
:100CC00060E070E0E0E0F0E0C10181709070892B9D
:100CD000E9F0E60CF71C081D191D9A01AB012A0D5D
:100CE0003B1D4C1D5D1D80E090E0A0E0B0E0E614EF
:100CF000F7040805190520F481E090E0A0E0B0E0D9
:100D0000BA01A901480F591F6A1F7B1FAA0CBB1CFF
:100D1000CC1CDD1C97FE08C081E090E0A0E0B0E0B4
:100D2000A82AB92ACA2ADB2A3196E032F10549F00D
:100D3000660C771C881C991C56944794379427940A
:100D4000C3CFFA85EA892B893C898B859C85280F3E
:100D5000391F2E5F3F4F17C0CA0181709070892BD9
:100D600061F016950795F794E79480E090E0A0E095
:100D7000B0E8E82AF92A0A2B1B2B76956795579538
:100D800047952F5F3F4F77FDE7CF0CC0440F551FAE
:100D9000661F771F17FD4160EE0CFF1C001F111F1F
:100DA00021503040403090E0590790E0690790E4CE
:100DB000790760F32B8F3C8FDB01CA018F7790702E
:100DC000A070B07080349105A105B10561F447FDB4
:100DD0000AC0E114F1040105110529F0405C5F4FE0
:100DE0006F4F7F4F40781A8EFE1711F081E08A8F87
:100DF0004D8F5E8F6F8F78A383E0898FCE014996E8
:100E00000E94170AA096E2E10C942427A8E1B0E022
:100E1000ECE0F7E00C94102769837A838B839C8342
:100E20002D833E834F835887B9E0EB2EF12CEC0ED7
:100E3000FD1ECE010196B7010E94EC0A8E010F5EE5
:100E40001F4FCE010596B8010E94EC0A2985223079
:100E500008F47EC03989323010F4B8017CC08A852C
:100E60009A8989278A87243011F0223031F4231798
:100E700009F06EC06DE372E06EC0343039F41D8647
:100E80001E861F86188A1C861B8604C0323021F4F9
:100E900084E08987B7015FC02B853C858B899C895D
:100EA000281B390B3C872B87ED84FE840F8518891E
:100EB000AD88BE88CF88D88CEA14FB040C051D05CC
:100EC00040F4EE0CFF1C001F111F215030403C87E6
:100ED0002B8720E030E040E050E080E090E0A0E0B0
:100EE000B0E460E070E0EA14FB040C051D0540F07E
:100EF000282B392B4A2B5B2BEA18FB080C091D0900
:100F0000B695A79597958795EE0CFF1C001F111FAE
:100F10006F5F7F4F6F31710531F7DA01C9018F774C
:100F20009070A070B07080349105A105B10561F496
:100F300027FD0AC0E114F1040105110529F0205C28
:100F40003F4F4F4F5F4F20782D873E874F87588BFD
:100F5000BE01675F7F4FCB010E94170A6896EAE0E7
:100F60000C942C27A8E1B0E0E8EBF7E00C941427F0
:100F700069837A838B839C832D833E834F83588739
:100F800089E0E82EF12CEC0EFD1ECE010196B70192
:100F90000E94EC0A8E010F5E1F4FCE010596B8012C
:100FA0000E94EC0A8985823040F08989823028F0DD
:100FB000C701B8010E94640B01C08FEF6896E6E09C
:100FC0000C943027A8E1B0E0E8EEF7E00C94142789
:100FD00069837A838B839C832D833E834F835887D9
:100FE00089E0E82EF12CEC0EFD1ECE010196B70132
:100FF0000E94EC0A8E010F5E1F4FCE010596B801CC
:101000000E94EC0A8985823040F08989823028F07C
:10101000C701B8010E94640B01C08FEF6896E6E03B
:101020000C943027A8E1B0E0E8E1F8E00C94142734
:1010300069837A838B839C832D833E834F83588778
:1010400089E0E82EF12CEC0EFD1ECE010196B701D1
:101050000E94EC0A8E010F5E1F4FCE010596B8016B
:101060000E94EC0A8985823040F08989823028F01C
:10107000C701B8010E94640B01C081E06896E6E0F8
:101080000C943027A8E1B0E0E8E4F8E00C941427D1
:1010900069837A838B839C832D833E834F83588718
:1010A00089E0E82EF12CEC0EFD1ECE010196B70171
:1010B0000E94EC0A8E010F5E1F4FCE010596B8010B
:1010C0000E94EC0A8985823040F08989823028F0BC
:1010D000C701B8010E94640B01C081E06896E6E098
:1010E0000C943027A8E1B0E0E8E7F8E00C9418276A
:1010F00069837A838B839C832D833E834F835887B8
:10110000CE010196BE01675F7F4F0E94EC0ACE01BF
:101110000596BE016F5E7F4F0E94EC0A8985823082
:1011200028F020E030E08989823010F421E030E0BE
:10113000822F6896E2E00C943427A8E0B0E0E3EA5E
:10114000F8E00C9411279B01AC0183E08983DA015C
:10115000C9018827B7FD83959927AA27BB27B82EF1
:10116000211531054105510519F482E089833AC002
:101170008823A9F0203080E0380780E0480780E825
:10118000580729F460E070E080E09FEC30C0EE2466
:10119000FF248701E21AF30A040B150B02C0790140
:1011A0008A018EE1C82ED12CDC82CB82ED82FE82B8
:1011B0000F831887C801B7010E94C8090197181644
:1011C000190684F4082E04C0EE0CFF1C001F111F2A
:1011D0000A94D2F7ED82FE820F831887C81AD90AC3
:1011E000DC82CB82BA82CE0101960E94170A289631
:1011F000E9E00C942D27ACE0B0E0E1E0F9E00C94DC
:10120000182769837A838B839C83CE010196BE0164
:101210006B5F7F4F0E94EC0A8D81823061F18230DA
:1012200050F1843021F48E81882351F12EC02F811A
:10123000388537FD20C06E812F3131051CF06623C3
:10124000F9F023C08EE190E0821B930B29853A854B
:101250004B855C8504C056954795379527958A95AB
:10126000D2F76623B1F050954095309521953F4FC8
:101270004F4F5F4F0EC020E030E040E050E009C02B
:101280002FEF3FEF4FEF5FE704C020E030E040E09A
:1012900050E8B901CA012C96E2E00C943427A8E08A
:1012A000B0E0E5E5F9E00C9410277B018C016115B5
:1012B00071058105910519F482E0898360C083E09E
:1012C00089838EE1C82ED12CDC82CB82ED82FE8216
:1012D0000F831887C801B7010E94C809FC01319724
:1012E000F7FF3BC0222733272E1B3F0B5701680116
:1012F000022E04C0D694C794B794A7940A94D2F748
:1013000040E050E060E070E081E090E0A0E0B0E01C
:1013100004C0880F991FAA1FBB1F2A95D2F70197F7
:10132000A109B1098E219F21A023B1230097A10516
:10133000B10521F041E050E060E070E04A295B290E
:101340006C297D294D835E836F8378878EE190E0E1
:101350008E1B9F0B9C838B8312C0309781F00E2EC7
:1013600004C0EE0CFF1C001F111F0A94D2F7ED827F
:10137000FE820F831887CE1ADF0ADC82CB821A82A4
:10138000CE0101960E94170A2896EAE00C942C27B9
:10139000EF92FF920F931F937B018C0180E0E81680
:1013A00080E0F80681E0080780E0180788F48FEFF6
:1013B000E816F1040105110531F028F088E090E00D
:1013C000A0E0B0E017C080E090E0A0E0B0E012C084
:1013D00080E0E81680E0F80680E0080781E0180762
:1013E00028F088E190E0A0E0B0E004C080E190E067
:1013F000A0E0B0E020E230E040E050E0281B390BF4
:101400004A0B5B0B04C016950795F794E7948A95F1
:10141000D2F7F701EB5BFD4F8081281B31094109B1
:101420005109C9011F910F91FF90EF900895DF922C
:10143000EF92FF920F931F93FC01E480F5800681E9
:101440001781D1808081823048F480E090E0A0E173
:10145000B0E0E82AF92A0A2B1B2BA5C0843009F436
:101460009FC0823021F4EE24FF24870105C0E114DF
:10147000F1040105110519F4E0E0F0E096C0628185
:1014800073819FEF623879070CF05BC022E83FEF71
:10149000261B370B2A3131052CF020E030E040E0EC
:1014A00050E02AC0B801A701022E04C076956795C6
:1014B000579547950A94D2F781E090E0A0E0B0E01C
:1014C00004C0880F991FAA1FBB1F2A95D2F7019746
:1014D000A109B1098E219F21A023B1230097A10565
:1014E000B10521F081E090E0A0E0B0E09A01AB010D
:1014F000282B392B4A2B5B2BDA01C9018F7790708F
:10150000A070B07080349105A105B10539F427FFB2
:1015100009C0205C3F4F4F4F5F4F04C0215C3F4FDD
:101520004F4F5F4FE0E0F0E02030A0E03A07A0E04E
:101530004A07A0E45A0710F0E1E0F0E079018A01DF
:1015400027C06038710564F5FB01E158FF4FD801F1
:10155000C7018F779070A070B07080349105A1059D
:10156000B10539F4E7FE0DC080E490E0A0E0B0E002
:1015700004C08FE390E0A0E0B0E0E80EF91E0A1F7F
:101580001B1F17FF05C016950795F794E794319632
:1015900087E016950795F794E7948A95D1F705C0EB
:1015A000EE24FF248701EFEFF0E06E2F67956627AA
:1015B0006795902F9F77D794DD24D7948E2F8695AB
:1015C000492F462B582F5D29B701CA011F910F9152
:1015D000FF90EF90DF900895FC01DB014081518185
:1015E0002281622F6F7770E0221F2227221F9381B2
:1015F000892F880F822B282F30E0991F9927991F58
:1016000011969C93119721153105A9F541155105A6
:101610006105710511F482E037C082E89FEF1396EF
:101620009C938E9312979A01AB0167E0220F331FB0
:10163000441F551F6A95D1F783E08C930DC0220F8C
:10164000331F441F551F12968D919C91139701973C
:1016500013969C938E931297203080E0380780E099
:10166000480780E4580758F314962D933D934D9303
:101670005C93179708952F3F310579F44115510573
:101680006105710519F484E08C93089564FF03C02B
:1016900081E08C9312C01C9210C02F5730401396DB
:1016A0003C932E93129783E08C9387E0440F551F51
:1016B000661F771F8A95D1F7706414964D935D93DA
:1016C0006D937C93179708951F93DC01FB019C9108
:1016D000923008F447C08081823008F443C09430CF
:1016E00051F411961C91843099F58181682F70E036
:1016F000611B71093FC0843021F0923031F4823097
:10170000B9F18181882389F12DC011961C9111971F
:101710008230F1F081811817D9F412962D913C9105
:101720001397828193818217930794F028173907C2
:10173000BCF014968D919D910D90BC91A02D2481AB
:10174000358146815781281739074A075B0718F406
:10175000112341F00AC082179307A407B50740F48C
:10176000112319F061E070E005C06FEF7FEF02C058
:1017700060E070E0CB011F9108951F93FC01992751
:101780008827BC01E89411911032E9F3193010F068
:101790001E30C8F31B3251F01D3249F4689406C064
:1017A0000E94BE0C610F711D811D911D119110537E
:1017B0001A30B0F33EF490958095709561957F4F07
:1017C0008F4F9F4F1F910895FB01DC0104C08D9145
:1017D0000190801921F441505040C8F7881B990BA3
:1017E0000895FB01DC0102C001900D924150504070
:1017F000D8F708956817790768F4FB01DC01E40F56
:10180000F51FA40FB51F02C002900E924150504028
:10181000D8F708950C94F10BFC018191861721F003
:101820008823D9F7992708953197CF010895FB01AF
:10183000DC018D91019080190110D9F3990B089565
:10184000FB01DC0101900D920020E1F70895FB01FE
:10185000DC014150504030F08D910190801919F415
:101860000020B9F7881B990B0895FB01DC0141505A
:10187000504048F001900D920020C9F701C01D9220
:1018800041505040E0F70895FC0181E090E0019064
:10189000061609F4CF010020D1F701970895FB0146
:1018A00051915523A9F0BF01DC014D91451741111C
:1018B000E1F759F4CD010190002049F04D91401518
:1018C0004111C9F3FB014111EFCF81E090E0019795
:1018D0000895FB019F01E8944230C4F04532B4F40E
:1018E0004A3029F497FB1EF4909581959F4F642F01
:1018F00077270E946027805D8A330CF0895D819391
:10190000CB010097A1F716F45DE251931082C90153
:101910000C940E0DFA01CF93FF93EF93223044F114
:10192000253234F5C22FE894CA3049F497FB3EF4CF
:1019300090958095709561957F4F8F4F9F4F2C2F7D
:10194000332744275527FF93EF930E94E626EF9114
:10195000FF91605D6A330CF0695D6193B901CA0162
:10196000605070408040904051F716F4CDE2C19332
:1019700010828F919F91CF910C940E0D592F482F6B
:10198000372F262F660F771F881F991F660F771F27
:10199000881F991F620F731F841F951F660F771F83
:1019A000881F991F0895FA01CF93FF93EF93223078
:1019B000CCF02532BCF4C22F2C2F332744275527D7
:1019C000FF93EF930E94E626EF91FF91605D6A33EB
:1019D0000CF0695D6193B901CA01605070408040AC
:1019E000904051F710828F919F91CF910C940E0DE2
:1019F000FB019F01423074F0453264F4642F772775
:101A00000E946027805D8A330CF0895D8193CB0151
:101A10000097A1F71082C9010C940E0DDC01FC01A6
:101A2000672F71917723E1F7329704C07C916D9312
:101A300070836291AE17BF07C8F308951F920F928B
:101A40000FB60F9211242F933F938F939F93AF93D1
:101A5000BF938091970390919803A0919903B091BF
:101A60009A0330919B030196A11DB11D232F2D5F79
:101A70002D3720F02D570196A11DB11D20939B03FA
:101A80008093970390939803A0939903B0939A033C
:101A90008091930390919403A0919503B091960344
:101AA0000196A11DB11D8093930390939403A0937D
:101AB0009503B0939603BF91AF919F918F913F9102
:101AC0002F910F900FBE0F901F9018958FB7F8941D
:101AD00020919703309198034091990350919A0374
:101AE0008FBFB901CA0108959FB7F894209193035D
:101AF00030919403409195035091960386B5A89B2D
:101B000006C08F3F21F02F5F3F4F4F4F5F4F9FBF6A
:101B1000542F432F322F2227280F311D411D511DD5
:101B200082E0220F331F441F551F8A95D1F7B90158
:101B3000CA0108959B01AC017FB7F894809193038B
:101B400090919403A0919503B091960366B5A89BDC
:101B500005C06F3F19F00196A11DB11D7FBFBA2FBF
:101B6000A92F982F8827860F911DA11DB11D62E016
:101B7000880F991FAA1FBB1F6A95D1F7BC012DC002
:101B8000FFB7F8948091930390919403A0919503EB
:101B9000B0919603E6B5A89B05C0EF3F19F00196FA
:101BA000A11DB11DFFBFBA2FA92F982F88278E0F17
:101BB000911DA11DB11DE2E0880F991FAA1FBB1F37
:101BC000EA95D1F7861B970B885E9340C8F22150A7
:101BD00030404040504068517C4F2115310541054F
:101BE000510571F60895019739F0880F991F880FF4
:101BF000991F02970197F1F70895789484B5826050
:101C000084BD84B5816084BD85B5826085BD85B5A0
:101C1000816085BDEEE6F0E0808181608083E1E84F
:101C2000F0E0108280818260808380818160808387
:101C3000E0E8F0E0808181608083E1EBF0E080818A
:101C400084608083E0EBF0E0808181608083E1E963
:101C5000F0E0808182608083808181608083E0E920
:101C6000F0E0808181608083E1EAF0E08081826041
:101C70008083808181608083E0EAF0E08081816000
:101C80008083E1E2F1E080818260808380818160F5
:101C90008083E0E2F1E0808181608083EAE7F0E028
:101CA0008081846080838081826080838081816084
:101CB00080838081806880831092C1000895809322
:101CC00045030895382F863308F0365320917B0062
:101CD000832F86958695869590E08170907043E07D
:101CE000880F991F4A95E1F7277F282B20937B00C7
:101CF0003770809145038295880F880F807C832BF5
:101D000080937C0080917A00806480937A00809137
:101D10007A0086FDFCCF2091780040917900942FC5
:101D200080E030E0282B392BC90108951F93CF9311
:101D3000DF93182FEB0161E00E94760F209709F4E2
:101D4000CAC0CF3FD10509F4C9C0E12FF0E0E25489
:101D5000FE4F8491893009F466C08A30B0F4843033
:101D6000F1F1853040F4823059F1833070F58130E3
:101D700009F0AEC020C0873009F443C0883008F0B5
:101D800048C0863009F0A4C034C08D3009F478C052
:101D90008E3038F48B3009F45AC08C3008F066C0AD
:101DA0004CC0803109F480C0813109F487C08F3084
:101DB00009F08EC06FC084B5806884BDC7BD92C075
:101DC00084B5806284BDC8BD8DC08091800080686C
:101DD00080938000D0938900C093880083C0809155
:101DE0008000806280938000D0938B00C0938A0033
:101DF00079C08091B00080688093B000C093B30038
:101E000071C08091B00080628093B000C093B40034
:101E100069C080919000806880939000D093990071
:101E2000C09398005FC08091900080628093900082
:101E3000D0939B00C0939A0055C080919000886019
:101E400080939000D0939D00C0939C004BC08091E4
:101E5000A00080688093A0008091A0008F7B809379
:101E6000A000D093A900C093A8003CC08091A0001E
:101E700080628093A000D093AB00C093AA0032C0D0
:101E80008091A00088608093A000D093AD00C093A3
:101E9000AC0028C080912001806880932001D093FD
:101EA0002901C09328011EC0809120018062809387
:101EB0002001D0932B01C0932A0114C080912001EE
:101EC000886080932001D0932D01C0932C010AC01B
:101ED000C038D1051CF4812F60E002C0812F61E081
:101EE0000E942910DF91CF911F910895CF93DF9326
:101EF000482F50E0CA0188589E4FFC0134914E5C37
:101F00005E4FFA018491882369F190E0880F991F50
:101F1000FC01EC51FF4FA591B491FC01E250FF4F41
:101F2000C591D491662351F42FB7F8948C91932FD7
:101F3000909589238C93888189230BC0623061F44A
:101F40002FB7F8948C91932F909589238C93888147
:101F5000832B88832FBF06C09FB7F8948C91832B67
:101F60008C939FBFDF91CF910895893009F449C0C8
:101F70008A30A0F4843051F1853040F4823079F118
:101F8000833000F5813009F063C026C0873079F1D5
:101F9000883098F5863009F05BC025C08D3009F493
:101FA00042C08E3028F48B30B1F18C30C0F52DC09A
:101FB000803109F442C0813109F445C08F3009F005
:101FC00047C037C0809180008F7703C08091800028
:101FD0008F7D80938000089584B58F7702C084B58B
:101FE0008F7D84BD08958091B0008F7703C080916C
:101FF000B0008F7D8093B0000895809190008F771E
:1020000007C0809190008F7D03C080919000877FF2
:102010008093900008958091A0008F7707C08091F1
:10202000A0008F7D03C08091A000877F8093A000D7
:102030000895809120018F7703C0809120018F7DCA
:1020400080932001089580912001877F8093200153
:102050000895FF920F931F93F62E482F50E0CA0168
:1020600082549E4FFC012491CA0188589E4FFC0166
:1020700014914E5C5E4FFA0104910023C9F02223B3
:1020800019F0822F0E94B50FE02FF0E0EE0FFF1F36
:10209000E250FF4FA591B4919FB7F894FF2021F42F
:1020A0008C911095812302C08C91812B8C939FBFC2
:1020B0001F910F91FF9008950F931F93482F50E0A9
:1020C000CA0182549E4FFC012491CA0188589E4F38
:1020D000FC0104914E5C5E4FFA011491112319F436
:1020E00020E030E015C0222319F0822F0E94B50FA6
:1020F000812F90E0880F991F885E9E4FFC01A5916B
:10210000B4918C9120E030E0802311F021E030E0A8
:10211000C9011F910F91089508951F920F920FB654
:102120000F920BB60F9211242F933F934F938F93DF
:102130009F93EF93FF938091C00082FD1DC040915B
:10214000C6002091DC033091DD032F5F3F4F2F73DA
:1021500030708091DE039091DF032817390771F00A
:10216000E091DC03F091DD03E456FC4F40833093B3
:10217000DD032093DC0302C08091C600FF91EF9144
:102180009F918F914F913F912F910F900BBE0F9088
:102190000FBE0F901F90189508951F920F920FB6C3
:1021A0000F920BB60F9211242F933F934F938F935F
:1021B0009F93EF93FF938091C80082FD1DC04091D3
:1021C000CE0020916404309165042F5F3F4F2F7340
:1021D000307080916604909167042817390771F078
:1021E000E0916404F0916504EC5DFB4F4083309313
:1021F00065042093640402C08091CE00FF91EF91AA
:102200009F918F914F913F912F910F900BBE0F9007
:102210000FBE0F901F90189508951F920F920FB642
:102220000F920BB60F9211242F933F934F938F93DE
:102230009F93EF93FF938091D00082FD1DC040914A
:10224000D6002091EC043091ED042F5F3F4F2F73A7
:1022500030708091EE049091EF042817390771F0E7
:10226000E091EC04F091ED04E455FB4F4083309392
:10227000ED042093EC0402C08091D600FF91EF9111
:102280009F918F914F913F912F910F900BBE0F9087
:102290000FBE0F901F90189508951F920F920FB6C2
:1022A0000F920BB60F9211242F933F934F938F935E
:1022B0009F93EF93FF938091300182FD1DC0409169
:1022C000360120917405309175052F5F3F4F2F73B4
:1022D000307080917605909177052817390771F055
:1022E000E0917405F0917505EC5CFA4F40833093F2
:1022F00075052093740502C080913601FF91EF911E
:102300009F918F914F913F912F910F900BBE0F9006
:102310000FBE0F901F901895E091C805F091C90568
:10232000E05CFF4F8191919120813181821B930B61
:102330008F739070892B11F00E948C10E091EA0548
:10234000F091EB05E05CFF4F81919191208131810B
:10235000821B930B8F739070892B11F00E94CC100D
:10236000E0910C06F0910D06E05CFF4F8191919198
:1023700020813181821B930B8F739070892B11F018
:102380000E940C11E0912E06F0912F06E05CFF4FA9
:102390008191919120813181821B930B8F73907079
:1023A000892B11F00E944C1108951F920F920FB6C5
:1023B0000F920BB60F9211242F933F938F939F93FD
:1023C000EF93FF9320912004309121048091220407
:1023D000909123042817390731F48091C1008F7D33
:1023E0008093C10014C0E0912204F0912304E052D4
:1023F000FC4F2081809122049091230401968F73D9
:10240000907090932304809322042093C600FF9140
:10241000EF919F918F913F912F910F900BBE0F9055
:102420000FBE0F901F9018951F920F920FB60F922C
:102430000BB60F9211242F933F938F939F93EF939B
:10244000FF932091A8043091A9048091AA0490914F
:10245000AB042817390731F48091C9008F7D809330
:10246000C90014C0E091AA04F091AB04E859FB4FF5
:1024700020818091AA049091AB0401968F73907093
:102480009093AB048093AA042093CE00FF91EF9128
:102490009F918F913F912F910F900BBE0F900FBE88
:1024A0000F901F9018951F920F920FB60F920BB6B8
:1024B0000F9211242F933F938F939F93EF93FF934A
:1024C000209130053091310580913205909133058E
:1024D0002817390731F48091D1008F7D8093D10086
:1024E00014C0E0913205F0913305E051FB4F20819B
:1024F000809132059091330501968F73907090937F
:102500003305809332052093D600FF91EF919F9180
:102510008F913F912F910F900BBE0F900FBE0F9098
:102520001F9018951F920F920FB60F920BB60F9235
:1025300011242F933F938F939F93EF93FF932091B9
:10254000B8053091B9058091BA059091BB0528175F
:10255000390731F4809131018F7D8093310114C0AE
:10256000E091BA05F091BB05E858FA4F20818091BF
:10257000BA059091BB0501968F7390709093BB053F
:102580008093BA0520933601FF91EF919F918F912F
:102590003F912F910F900BBE0F900FBE0F901F9089
:1025A00018958F929F92AF92BF92CF92DF92EF9247
:1025B000FF920F931F93DF93CF93CDB7DEB7FC014C
:1025C0001382128288EE93E0A0E0B0E084839583CA
:1025D000A683B78380E593E09183808375876487C2
:1025E00057874687318B208B138B028BF58AE48AC1
:1025F000D78AC68AB18EA08E938E828E8889848F68
:102600008989858F8A89868F8B89878F8C8980A31A
:10261000CF91DF911F910F91FF90EF90DF90CF90BE
:10262000BF90AF909F908F9008958F929F92AF929E
:10263000BF92CF92DF92EF92FF920F931F93DF939F
:10264000CF93CDB7DEB7FC011382128288EE93E000
:10265000A0E0B0E084839583A683B78380E593E010
:10266000918380837587648757874687318B208B5A
:10267000138B028BF58AE48AD78AC68AB18EA08E24
:10268000938E828E8889848F8989858F8A89868FA7
:102690008B89878F8C8980A3CF91DF911F910F91B8
:1026A000FF90EF90DF90CF90BF90AF909F908F9072
:1026B0000895AF92BF92DF92EF92FF920F931F9314
:1026C000CF93DF93EC017A018B01DD24403081EE62
:1026D000580780E0680780E0780711F0DD24D39484
:1026E00091E0A92EB12CEC89FD89DD2069F0C501AE
:1026F00008A002C0880F991F0A94E2F7808360E067
:1027000079E08DE390E005C0108260E874E88EE126
:1027100090E0A80197010E94E626215030404040F9
:102720005040569547953795279580E120303807DA
:1027300020F0DD2011F0DD24D6CFE889F98930833F
:10274000EA89FB89208319A2EE89FF89408121E073
:1027500030E0C9010C8C02C0880F991F0A94E2F77F
:10276000482B4083EE89FF894081C9010D8C02C04E
:10277000880F991F0A94E2F7482B4083EE89FF895E
:102780004081C9010E8C02C0880F991F0A94E2F79C
:10279000482B4083EE89FF8980810F8C02C0220F75
:1027A000331F0A94E2F7209528232083DF91CF91ED
:1027B0001F910F91FF90EF90DF90BF90AF90089521
:1027C000AF92BF92CF92DF92EF92FF920F931F933F
:1027D000CF93DF93EC017A018B01C22EDD244030D0
:1027E00081EE580780E0680780E0780711F0DD246B
:1027F000D39471E0A72EB12CEC89FD89DD2069F01E
:10280000C50108A002C0880F991F0A94E2F78083CF
:1028100060E079E08DE390E005C0108260E874E844
:102820008EE190E0A80197010E94E62621503040F9
:1028300040405040569547953795279580E1203088
:10284000380720F0DD2011F0DD24D6CFE889F989A2
:102850003083EA89FB892083E88DF98DC082EE8977
:10286000FF89408121E030E0C9010C8C02C0880F53
:10287000991F0A94E2F7482B4083EE89FF89408133
:10288000C9010D8C02C0880F991F0A94E2F7482BEA
:102890004083EE89FF894081C9010E8C02C0880FF8
:1028A000991F0A94E2F7482B4083EE89FF898081C3
:1028B0000F8C02C0220F331F0A94E2F720952823C1
:1028C0002083DF91CF911F910F91FF90EF90DF90C8
:1028D000CF90BF90AF900895CF93DF93DC011E9609
:1028E0008D919C911F97EC01C05CDF4FFC01EE5B6A
:1028F000FF4F288139818081918128173907C9F7D5
:102900005696ED91FC915797408121E030E0C90146
:102910005C960C905C9702C0880F991F0A94E2F7AE
:102920008095842380835696ED91FC915797408142
:10293000C9015D960C905D9702C0880F991F0A949B
:10294000E2F78095842380835696ED91FC9157970A
:102950004081C9015E960C905E9702C0880F991F56
:102960000A94E2F78095842380835696ED91FC913A
:10297000579780815F960C905F9702C0220F331F9C
:102980000A94E2F72095282320831C96ED91FC9170
:102990001D97EE5BFF4F8081918192938293DF912F
:1029A000CF910895DC011C96ED91FC911D97E05CA0
:1029B000FF4F2191319180819181281B390B2F7319
:1029C0003070C9010895DC011C96ED91FC911D97B2
:1029D000E05CFF4F20813181E054F040DF01AE5BCD
:1029E000BF4F8D919C9111972817390719F42FEF3C
:1029F0003FEF07C08D919C91E80FF91F8081282F30
:102A000030E0C9010895DC011C96ED91FC911D9701
:102A1000E05CFF4F20813181E054F040DF01AE5B8C
:102A2000BF4F8D919C9111972817390719F42FEFFB
:102A30003FEF10C08D919C911197E80FF91F2081F5
:102A40008D919C91119701968F73907011969C9324
:102A50008E9330E0C9010895DC0191968C91919795
:102A6000882339F05496ED91FC915597808186FF2B
:102A7000F9CF91961C920895CF93DF93EC01EE85E8
:102A8000FF85E05CFF4F20813181E054F0402F5FF3
:102A90003F4F2F733070DF01AE5BBF4F8D919C9124
:102AA000119728173907D1F3E05CFF4F808191819E
:102AB000E054F040E80FF91F6083EE85FF85E05C8D
:102AC000FF4F31832083EE89FF89208181E090E0F0
:102AD0000F8C02C0880F991F0A94E2F7282B2083DD
:102AE00081E089A3EC89FD8980818064808381E015
:102AF00090E0DF91CF91089581E008951F931092A7
:102B0000BF051092BE0528EE33E040E050E0209370
:102B1000C0053093C1054093C2055093C30560E5DD
:102B200073E07093BD056093BC058CE993E09093CE
:102B3000C9058093C80580EE93E09093CB05809300
:102B4000CA0585EC90E09093CD058093CC0584EC8C
:102B500090E09093CF058093CE0580EC90E0909329
:102B6000D1058093D00581EC90E09093D3058093BC
:102B7000D20582EC90E09093D5058093D40586EC45
:102B800090E09093D7058093D60514E01093D80574
:102B9000B3E0B093D905A7E0A093DA05F5E0F09390
:102BA000DB05E1E0E093DC051092E1051092E00521
:102BB0002093E2053093E3054093E4055093E50547
:102BC0007093DF056093DE0584E294E09093EB055B
:102BD0008093EA0588E694E09093ED058093EC05F8
:102BE0008DEC90E09093EF058093EE058CEC90E0F7
:102BF0009093F1058093F00588EC90E09093F305B5
:102C00008093F20589EC90E09093F5058093F405AC
:102C10008AEC90E09093F7058093F6058EEC90E0B7
:102C20009093F9058093F8051093FA05B093FB058E
:102C3000A093FC05F093FD05E093FE0510920306BA
:102C40001092020620930406309305064093060670
:102C50005093070670930106609300068CEA94E097
:102C600090930D0680930C0680EF94E090930F06EE
:102C700080930E0685ED90E09093110680931006E8
:102C800084ED90E0909313068093120680ED90E01F
:102C9000909315068093140681ED90E090931706AB
:102CA0008093160682ED90E09093190680931806A3
:102CB00086ED90E090931B0680931A0610931C06F5
:102CC000B0931D06A0931E06F0931F06E093200606
:102CD000109225061092240620932606309327068C
:102CE000409328065093290670932306609322068A
:102CF00084E395E090932F0680932E0688E795E075
:102D0000909331068093300685E391E090933306EB
:102D10008093320684E391E09093350680933406E5
:102D200080E391E0909337068093360681E391E04B
:102D3000909339068093380682E391E090933B06A6
:102D400080933A0686E391E090933D0680933C069B
:102D500010933E06B0933F06A0934006F0934106C1
:102D6000E09342061F9108950F93FC0180E793E0E2
:102D70009183808362834383248305830F91089525
:102D80000F93FC0180E793E0918380836283438308
:102D9000248305830F91089580E793E0909345067F
:102DA00080934406109246061092470610924806F9
:102DB0001092490608958F929F92AF92BF92CF9240
:102DC000DF92EF92FF920F931F93CF93DF934C010B
:102DD0006B017C01AA24BB24C0E0D0E0C601F7014E
:102DE00062814AE050E00E9444198C01C6016EE203
:102DF0000E94FA17080F191FA00EB11E2196089401
:102E0000E11CF11CC330D10549F7C601F40165810D
:102E10004AE050E00E9444199501280F391FC9016A
:102E2000DF91CF911F910F91FF90EF90DF90CF90A6
:102E3000BF90AF909F908F9008959C012E5F3F4F61
:102E4000CB01B90144E050E00E94E40B9C0180E01A
:102E5000232B09F481E00895DF93CF9300D00F92E4
:102E6000CDB7DEB7FC0142835383648375830F9033
:102E70000F900F900F90CF91DF9108959C01FB016F
:102E800080819181A281B381F90182839383A4839C
:102E9000B583C90108959C01FB0180E793E0D90146
:102EA0008D939C9380819181A281B381F90182836A
:102EB0009383A483B58308959C01FB0180E793E08D
:102EC000D9018D939C9380819181A281B381F90175
:102ED00082839383A483B5830895DF93CF9300D037
:102EE0000F92CDB7DEB7FC0180E793E0918380833A
:102EF00042835383648375830F900F900F900F90DC
:102F0000CF91DF910895DF93CF9300D00F92CDB78B
:102F1000DEB7FC0180E793E0918380834283538393
:102F2000648375830F900F900F900F90CF91DF9176
:102F30000895FC0180E793E09183808312821382DD
:102F4000148215820895FC0180E793E091838083C9
:102F500012821382148215820895CF92DF92EF922B
:102F6000FF920F931F93CF93DF937C016B018A0134
:102F7000C0E0D0E00FC0D6016D916D01D701ED9199
:102F8000FC910190F081E02DC7011995C80FD91F60
:102F9000015010400115110571F7CE01DF91CF915D
:102FA0001F910F91FF90EF90DF90CF900895EF92D7
:102FB000FF920F931F93CF93DF937C018B01C0E0AF
:102FC000D0E0F8010F5F1F4F6491662359F0D701DD
:102FD000ED91FC910190F081E02DC7011995C80F8A
:102FE000D91FEFCFCE01DF91CF911F910F91FF90AD
:102FF000EF900895DC01ED91FC910190F081E02DBE
:10300000199508959C01DB01ED91FC910190F081EF
:10301000E02DCB01B90119950895EF92FF920F931E
:103020001F938C01DC01ED91FC910190F081E02D6A
:103030006DE019957C01D801ED91FC910190F08132
:10304000E02DC8016AE019959C012E0D3F1DC901B4
:103050001F910F91FF90EF900895EF92FF920F93C1
:103060001F937C010E94D7178C01C7010E940D1885
:103070009C01200F311FC9011F910F91FF90EF900C
:103080000895EF92FF920F931F937C01DC01ED9165
:10309000FC910190F081E02D19958C01C7010E94EF
:1030A0000D18080F191FC8011F910F91FF90EF9085
:1030B0000895EF92FF920F931F937C01DB01ED9136
:1030C000FC910190F081E02DCB01B70119958C01A5
:1030D000C7010E940D18080F191FC8011F910F91F9
:1030E000FF90EF900895CF93DF93EC016115710588
:1030F00019F420E030E00FC0DB010D900020E9F76B
:103100001197A61BB70BE881F9810280F381E02DAE
:10311000AD0119959C01C901DF91CF9108954F929E
:103120005F927F928F929F92AF92BF92CF92DF92E7
:10313000EF92FF920F931F93DF93CF93CDB7DEB73C
:10314000A1970FB6F894DEBF0FBECDBF2C01742E31
:10315000CB01223008F42AE019A231E2C32ED12C8F
:10316000CC0EDD1E822E9924AA24BB24672D752F38
:10317000A50194010E94E62679018A01C801B701E0
:10318000A50194010E94C726472D461B0894C1083B
:10319000D1084A3014F4405D01C0495CF601408317
:1031A000E114F1040105110521F07E2C5F2DC80109
:1031B000DDCFC201B6010E947318A1960FB6F89434
:1031C000DEBF0FBECDBFCF91DF911F910F91FF905A
:1031D000EF90DF90CF90BF90AF909F908F907F90B7
:1031E0005F904F900895DC012115310541F4ED9178
:1031F000FC910190F081E02D642F199508950E94B3
:103200008F180895EF92FF920F931F937C010E94F5
:10321000F3188C01C7010E940D189C01200F311F6B
:10322000C9011F910F91FF90EF900895EF92FF92C7
:103230000F931F939A017B0100E010E0B801A701F2
:103240000E94F3181F910F91FF90EF900895CF9275
:10325000DF92EF92FF920F931F936C017B019A0113
:1032600000E010E0B801A7010E94F3188C01C6012C
:103270000E940D18080F191FC8011F910F91FF9090
:10328000EF90DF90CF900895EF92FF920F931F93EE
:103290009A01E62EFF2400E010E0B801A7010E9489
:1032A000F3181F910F91FF90EF900895CF92DF9246
:1032B000EF92FF920F931F936C01E62E9A01FF2469
:1032C00000E010E0B801A7010E94F3188C01C601CC
:1032D0000E940D18080F191FC8011F910F91FF9030
:1032E000EF90DF90CF900895CF92DF92EF92FF9210
:1032F0000F931F93CF93DF93EC016A017B0121159C
:10330000310541F4E881F9810190F081E02D642FCD
:1033100019951FC02A303105D1F477FF17C0E88115
:10332000F9810190F081E02D6DE219958C0144271F
:103330005527BA014C195D096E097F09CE012AE0B3
:103340000E948F189801280F391F04C02AE00E949C
:103350008F189C01C901DF91CF911F910F91FF90B0
:10336000EF90DF90CF900895EF92FF920F931F930D
:103370007C010E9474198C01C7010E940D189C01E8
:10338000200F311FC9011F910F91FF90EF900895F9
:10339000EF92FF920F931F937B019A010027F7FC96
:1033A0000095102FB801A7010E9474191F910F9169
:1033B000FF90EF900895CF92DF92EF92FF920F93DC
:1033C0001F936C017B019A010027F7FC0095102FD9
:1033D000B801A7010E9474198C01C6010E940D1842
:1033E000080F191FC8011F910F91FF90EF90DF90F8
:1033F000CF9008950E94731808957F928F929F92A4
:10340000AF92BF92CF92DF92EF92FF920F931F93F2
:10341000CF93DF934C017A018B01722ECB01BA015D
:10342000A80197010E947208882321F0C4016EE26E
:1034300072E021C0C0E0D0E057016801E894D7F8FD
:10344000C601B5012FEF3FEF4FE75FE70E9472081B
:10345000882351F4C601B5012FEF3FEF4FE75FE737
:103460000E944208181614F0C1E0D0E0219739F00C
:10347000C40162E372E00E947318EC0193C0C801BA
:10348000B7012FEF3FEF4FE75FE40E94B207181636
:1034900054F0C801B7012FEF3FEF4FE75FEC0E94F8
:1034A0001208882324F4C40166E372E0E4CFC80163
:1034B000B70120E030E040E050E00E94120887FDB4
:1034C00003C0C0E0D0E00EC0D401ED91FC910190AA
:1034D000F081E02DC4016DE21995EC0117FB109508
:1034E00017F9109520E030E040E05FE3DD240BC0E9
:1034F000CA01B90120E030E040E251E40E94060731
:103500009B01AC01D394D71498F3C801B7010E9472
:10351000DF055B016C010E9436047B018C01C40154
:10352000B801A7012AE030E00E94F318C80FD91FA4
:10353000772039F0C4016AE372E00E947318C80F63
:10354000D91FC801B7010E944F099B01AC01C601F8
:10355000B5010E94AE0524C020E030E040E251E415
:103560000E940C067B018C010E94FB085B016C0130
:10357000CC24B7FCC094DC2CC401B601A5012AE020
:1035800030E00E947419C80FD91FC601B5010E940E
:103590009D089B01AC01C801B7010E94AE057A9459
:1035A0007720D1F6CE01DF91CF911F910F91FF903F
:1035B000EF90DF90CF90BF90AF909F908F907F90D3
:1035C00008950E94FD190895EF92FF920F931F93A3
:1035D0007C010E94FD198C01C7010E940D18080F83
:1035E000191FC8011F910F91FF90EF900895EF925E
:1035F000FF920F931F937C010E9473188C01C701E7
:103600000E940D18080F191FC8011F910F91FF90FC
:10361000EF900895AF92BF92CF92DF92EF92FF9218
:103620000F931F93CF93DF935C016B01EE24FF2474
:10363000C0E0D0E010C0D501ED91FC910081118176
:10364000C601BE010E94841B682FC501F8011995AF
:10365000E80EF91E2196F60184819581C817D907D5
:1036600050F3C701DF91CF911F910F91FF90EF9021
:10367000DF90CF90BF90AF900895EF92FF920F939D
:103680001F937C010E940A1B8C01C7010E940D1828
:103690009C01200F311FC9011F910F91FF90EF90E6
:1036A0000895FC01848195816817790748F4019099
:1036B000F081E02D309721F0E60FF71F808108950B
:1036C00080E00895FC01848195816817790730F4C2
:1036D0000190F081E02DE60FF71F40830895FC0173
:1036E0009B01848195816817790728F46081718135
:1036F0006115710529F410924A066AE476E002C069
:10370000620F731FCB010895FC01848195816817B6
:10371000790748F40190F081E02D309721F0E60F11
:10372000F71F8081089580E00895FC010190F081E9
:10373000E02D309729F40895861709F440833196D7
:1037400080818823C9F70895FC01808191810097C9
:1037500029F420E030E040E050E004C00E94BD0BBE
:103760009B01AC01B901CA010895CF92DF92EF929B
:10377000FF920F931F93CF93DF936C01DC01ED90C9
:10378000FC901197E114F10409F441C01496CD9115
:10379000DC9115972097D9F1870102C00F5F1F4F69
:1037A000F8018081992787FD90950E944527892BF4
:1037B000A9F72197CE0DDF1D01C021978881992798
:1037C00087FD90950E944527892B19F0C017D107D6
:1037D000A0F7FE013196E01BF10BD6011596FC9384
:1037E000EE9314972D913C912017310728F4C901CD
:1037F000B801AF010E94F10BD601ED91FC91119738
:1038000014968D919C911597E80FF91F1082DF9106
:10381000CF911F910F91FF90EF90DF90CF9008957F
:10382000CF93DF93FC01C081D181209739F409C087
:10383000992787FD90950E94552789938881882331
:10384000B9F7DF91CF910895CF93DF93FC01C08149
:10385000D181209739F409C0992787FD90950E945E
:103860004D27899388818823B9F7DF91CF910895F7
:10387000EF92FF920F931F93CF93DF93FC01DB0135
:103880008617970739F12481358114968D919C9183
:1038900015972817390701F5232BE1F0E080F18017
:1038A000CD91DC9113C0992787FD90950E944D27FB
:1038B0008C018881992787FD90950E944D270817D4
:1038C000190751F40894E11CF11C2196F70180813D
:1038D000882349F781E001C080E0DF91CF911F91FB
:1038E0000F91FF90EF900895AF92BF92CF92DF9229
:1038F000EF92FF920F931F93CF93DF93FC015B0135
:103900007A01DB0114962D913C9115972115310513
:1039100059F184819581009739F18217930720F13D
:103920004817590720F07C010894E108F10800814C
:103930001181C801CFEFDFEF6801CE0CDF1C10C092
:10394000F501608171810E944F0C9C01009771F01C
:10395000801B910BE816F90608F0EC01C9010196ED
:10396000C816D90668F702C0CFEFDFEFCE01DF91AE
:10397000CF911F910F91FF90EF90DF90CF90BF906C
:10398000AF900895FC01DB014481558114968D911F
:103990009C911597481B590BCF010E94741C0895E8
:1039A000CF93DF93FC01DB01848195814817590790
:1039B00060F4C081D1816D917C91CE01840F951FFF
:1039C0000E944F0C9C01009719F42FEF3FEF02C0AB
:1039D0002C1B3D0BC901DF91CF91089540E050E0D1
:1039E0000E94D01C0895DF92EF92FF920F931F93D5
:1039F000CF93DF93EC018C819D8148175907C8F460
:103A00007A010894E11CF11CE881F981EE0DFF1D9B
:103A1000D080108208811981772767FD7095C801D1
:103A20000E94440C9C010E0D1F1DF801D0820097CE
:103A300019F4EFEFFFEF05C088819981F901E81BC8
:103A4000F90BCF01DF91CF911F910F91FF90EF9074
:103A5000DF900895FC0144815581415050400E94FF
:103A6000F31C0895CF93DF93FC018481958148175F
:103A7000590768F4C081D181772767FD7095CE0121
:103A8000840F951F0E940C0C9C01009719F42FEFD6
:103A90003FEF02C02C1B3D0BC901DF91CF91089570
:103AA00040E050E00E94321D08950F931F93CF9382
:103AB000DF93FC018B0141155105F9F0611571058A
:103AC000E1F0848195812817390718F0FB011082F5
:103AD00014C041505040EC01C21BD30B4C175D0782
:103AE00008F4EA0160817181620F731FC801AE01A1
:103AF0000E94350CC00FD11F1882DF91CF911F910A
:103B00000F910895FC01DB012481358114964D91BC
:103B10005C91159724173507A8F080819181009753
:103B200089F06D917C916115710561F0241B350B55
:103B3000820F931F0E94170C9C0180E0232B19F425
:103B400081E0089580E00895DC01FB0114968D91D9
:103B50009C911597892B31F461157105A9F090E0BE
:103B6000808108C00D90BC91A02D6115710529F4CC
:103B700090E08C91882349F407C0CD010E94170C76
:103B80009C0190E0232B09F491E0892F0895CF93B5
:103B9000DF939C01FB01EC01A881B981109729F00A
:103BA0006081718161157105D1F4C081D181209747
:103BB00059F084819581892B39F0888190E0222702
:103BC0003327281B390B12C0109771F0F90184813B
:103BD0009581892B49F08C91282F30E007C0CD01C9
:103BE0000E94170C9C0102C020E030E0C901DF9167
:103BF000CF9108950E94C71D892F8095881F88271F
:103C0000881F08950E94C71D20E0181619060CF0A1
:103C100021E0822F08950E94C71D20E01816190682
:103C20000CF421E0822F08950E94C71D892F881F60
:103C30008827881F0895FC01DB01248135811496B3
:103C40008D919C9115972817390711F020E007C036
:103C5000CF010E94C71D20E0892B09F421E0822FAB
:103C60000895FC01DB0114962D913C9115978481F8
:103C70009581821B930B84179507A0F08081918119
:103C8000009781F06D917C916115710559F0840F59
:103C9000951FA9010E94270C9C0180E0232B19F499
:103CA00081E0089580E00895FC01DB0124813581E5
:103CB00014968D919C9115972817390710F480E080
:103CC0000895CF0140E050E00E94311E08950F9307
:103CD0001F93CF93DF93EC018B016F5F7F4F888140
:103CE00099810E94E625009711F480E005C0998330
:103CF00088831B830A8381E0DF91CF911F910F910D
:103D000008952F923F924F925F926F927F928F927F
:103D10009F92AF92BF92CF92DF92EF92FF920F935A
:103D20001F93CF93DF935C012B014A01DC011496B2
:103D30000D911C9115970115110509F4D4C0FB01D3
:103D4000C480D580C114D10409F4CDC0DA01149621
:103D50006D907C9015976C187D08FC01E080F180D7
:103D60006114710491F01BC0D4016C9111967C9187
:103D7000119714964D915C9115978C2F0E94F10B21
:103D8000F401E480F580EC0EFD1ED2016D917C9172
:103D9000C7010E944F0CEC01009731F7A4C077FED9
:103DA00002C067012EC0FB0120803180E8013CC0C9
:103DB0008E010E191F09C601B701A8010E94F10B5F
:103DC0000C0D1D1DD4016C9111967C9111971496C8
:103DD0004D915C911597C8010E94F10BF401C480CC
:103DE000D580C00ED11ED2011496ED90FC9015978F
:103DF000EC0EFD1EF50184819581860D971D95833E
:103E00008483D2016D917C91C7010E944F0CEC011B
:103E1000009771F6C601B7010E94200C64C07B01B7
:103E2000EC0CFD1CC60DD71DC701B1010E944F0C43
:103E3000BC010097A1F7C017D10709F454C0F501E0
:103E4000828193818C179D0708F044C0C501BE0193
:103E50000E94671E8823F1F546C0C501B201A90181
:103E60000E94741CEC0197FD3EC0D5016D917C91C0
:103E70001197F201848195818C0F9D1F680F791F26
:103E800014964D915C911597481B590BCB01860DEB
:103E9000971D0E94FA0BD50114968D919C91159750
:103EA000860D971D15969C938E931497ED91FC911A
:103EB0001197E80FF91F10822D913C912C0F3D1F97
:103EC000F4016081718144815581C9010E94F10B27
:103ED0009E0105C0D50114962D913C911597215056
:103EE000304037FFBACFDF91CF911F910F91FF90F4
:103EF000EF90DF90CF90BF90AF909F908F907F908A
:103F00006F905F904F903F902F900895CF93DF93E5
:103F1000EC0188819981892B29F08A819B81861700
:103F2000970760F4CE010E94671E882341F08C81C0
:103F30009D81892B19F4E881F981108281E0DF915C
:103F4000CF910895EF92FF920F931F93CF93DF933A
:103F5000EC017B016C817D81E114F104C1F041151C
:103F6000510599F08A01060F171FB8010E94861F9C
:103F7000882369F0888199812C813D81820F931F6C
:103F8000B7010E94200C1D830C8381E001C080E0FA
:103F9000DF91CF911F910F91FF90EF900895EF92D5
:103FA000FF920F931F93DF93CF93CDB7DEB72B977D
:103FB0000FB6F894DEBF0FBECDBF7C01CB01BA01B6
:103FC0008E010F5F1F4FA8012AE030E00E94D30C42
:103FD000F80101900020E9F73197E01BF10BC701D0
:103FE000B801AF010E94A21F2B960FB6F894DEBF56
:103FF0000FBECDBFCF91DF911F910F91FF90EF903A
:104000000895EF92FF920F931F93DF93CF93CDB755
:10401000DEB72C970FB6F894DEBF0FBECDBF7C0184
:10402000CB01BA018E010F5F1F4FA8012AE030E0DB
:104030000E948A0CF80101900020E9F73197E01BFB
:10404000F10BC701B801AF010E94A21F2C960FB659
:10405000F894DEBF0FBECDBFCF91DF911F910F91BE
:10406000FF90EF900895EF92FF920F931F93DF93CD
:10407000CF9300D000D0CDB7DEB77C01CB018E014D
:104080000F5F1F4FB8014AE050E00E94F80CF801A2
:1040900001900020E9F73197E01BF10BC701B8014F
:1040A000AF010E94A21F26960FB6F894DEBF0FBE86
:1040B000CDBFCF91DF911F910F91FF90EF900895A9
:1040C000EF92FF920F931F93DF93CF93CDB7DEB79D
:1040D00027970FB6F894DEBF0FBECDBF7C01CB0192
:1040E0008E010F5F1F4FB8014AE050E00E94690C3B
:1040F000F80101900020E9F73197E01BF10BC701AF
:10410000B801AF010E94A21F27960FB6F894DEBF38
:104110000FBECDBFCF91DF911F910F91FF90EF9018
:104120000895EF92FF920F931F93DF93CF9300D0E8
:104130000F92CDB7DEB77C01862F90E08E010F5F26
:104140001F4FB8014AE050E00E94690CF80101904D
:104150000020E9F73197E01BF10BC701B801AF016F
:104160000E94A21F0F900F900F900F90CF91DF91A0
:104170001F910F91FF90EF900895DF93CF930F92CF
:104180000F92CDB7DEB769831A82BE016F5F7F4F92
:1041900041E050E00E94A21F0F900F90CF91DF915D
:1041A00008956115710511F480E00895DB010D900B
:1041B0000020E9F71197A61BB70BAD010E94A21FC3
:1041C0000895FB0160817181448155810E94A21F85
:1041D0000895CF93DF93EC0188819981009711F0C6
:1041E0000E944E25198218821D821C821B821A820F
:1041F000DF91CF9108950F931F93182F092F0E94DD
:10420000CF1F882321F4812F902F0E94E920812F36
:10421000902F1F910F9108950F931F93182F092F1F
:104220000E940120882321F4812F902F0E94E920F1
:10423000812F902F1F910F9108950F931F93182F87
:10424000092F0E943320882321F4812F902F0E9470
:10425000E920812F902F1F910F9108950F931F93A5
:10426000182F092F0E946020882321F4812F902F7E
:104270000E94E920812F902F1F910F9108950F9395
:104280001F93182F092F0E949120882321F4812F3A
:10429000902F0E94E920812F902F1F910F91089558
:1042A0000F931F93182F092F0E94BD20882321F4FC
:1042B000812F902F0E94E920812F902F1F910F9125
:1042C00008950F931F93182F092F6115710561F041
:1042D000DB010D900020E9F71197A61BB70BAD018C
:1042E0000E94A21F882321F4812F902F0E94E92091
:1042F000812F902F1F910F9108950F931F93182FC7
:10430000092FFB0160817181448155810E94A21FA8
:10431000882321F4812F902F0E94E920812F902F54
:104320001F910F910895EF92FF920F931F93CF93D8
:10433000DF93EC017B018A01BA010E94861F88236A
:1043400021F4CE010E94E92007C01D830C838881DF
:104350009981B7010E94200CCE01DF91CF911F916E
:104360000F91FF90EF900895CF93DF93EC011982A6
:1043700018821B821A821D821C821E8261157105A1
:1043800051F0DB010D900020E9F71197A61BB70B48
:10439000AD010E949321DF91CF910895CF93DF93D8
:1043A000EC01198218821B821A821D821C821E82D5
:1043B0006115710551F0DB010D900020E9F71197AF
:1043C000A61BB70BAD010E949321DF91CF910895F9
:1043D0000F931F93182F092F6115710559F0DB01F9
:1043E0000D900020E9F71197A61BB70BAD010E94B5
:1043F000932102C00E94E920812F902F1F910F91DD
:104400000895EF92FF920F931F93DF93CF93CDB751
:10441000DEB7A1970FB6F894DEBF0FBECDBF8C01FB
:10442000FC0111821082138212821582148216827C
:10443000CB01BA017E010894E11CF11CA70130E018
:104440000E94D30CC801B7010E94E821A1960FB6C3
:10445000F894DEBF0FBECDBFCF91DF911F910F91BA
:10446000FF90EF900895EF92FF920F931F93DF93C9
:10447000CF93CDB7DEB7A1970FB6F894DEBF0FBECE
:10448000CDBF8C01FC011182108213821282158231
:1044900014821682CB01BA017E010894E11CF11C42
:1044A000A70130E00E94D30CC801B7010E94E821A7
:1044B000A1960FB6F894DEBF0FBECDBFCF91DF91AE
:1044C0001F910F91FF90EF900895EF92FF920F933D
:1044D0001F93DF93CF93CDB7DEB7A2970FB6F894B3
:1044E000DEBF0FBECDBF8C01FC0111821082138292
:1044F0001282158214821682CB01BA017E010894C1
:10450000E11CF11CA70130E00E948A0CC801B70130
:104510000E94E821A2960FB6F894DEBF0FBECDBF71
:10452000CF91DF911F910F91FF90EF900895EF923F
:10453000FF920F931F93DF93CF93CDB7DEB7A29770
:104540000FB6F894DEBF0FBECDBF8C01FC01118207
:10455000108213821282158214821682CB01BA0154
:104560007E010894E11CF11CA70130E00E948A0C36
:10457000C801B7010E94E821A2960FB6F894DEBFE9
:104580000FBECDBFCF91DF911F910F91FF90EF90A4
:104590000895EF92FF920F931F93DF93CF93CDB7C0
:1045A000DEB761970FB6F894DEBF0FBECDBF8C01AA
:1045B000CB01F801118210821382128215821482BB
:1045C00016827E010894E11CF11CB70150E00E94A4
:1045D000F80CC801B7010E94E82161960FB6F89463
:1045E000DEBF0FBECDBFCF91DF911F910F91FF9026
:1045F000EF900895EF92FF920F931F93DF93CF9365
:10460000CDB7DEB761970FB6F894DEBF0FBECDBF52
:104610008C01CB01F8011182108213821282158263
:10462000148216827E010894E11CF11CB70150E04F
:104630000E94F80CC801B7010E94E82161960FB6EC
:10464000F894DEBF0FBECDBFCF91DF911F910F91C8
:10465000FF90EF900895EF92FF920F931F93DF93D7
:10466000CF93CDB7DEB762970FB6F894DEBF0FBE1B
:10467000CDBF8C01CB01F80111821082138212820E
:104680001582148216827E010894E11CF11CB70188
:1046900050E00E94690CC801B7010E94E8216296AF
:1046A0000FB6F894DEBF0FBECDBFCF91DF911F9143
:1046B0000F91FF90EF900895EF92FF920F931F9349
:1046C000DF93CF93CDB7DEB762970FB6F894DEBF16
:1046D0000FBECDBF8C01CB01F80111821082138275
:1046E00012821582148216827E010894E11CF11C4C
:1046F000B70150E00E94690CC801B7010E94E8218F
:1047000062960FB6F894DEBF0FBECDBFCF91DF919A
:104710001F910F91FF90EF900895EF92FF920F93EA
:104720001F93DF93CF93CDB7DEB729970FB6F894D9
:10473000DEBF0FBECDBF8C01862FF8011182108223
:104740001382128215821482168290E07E010894F0
:10475000E11CF11CB70150E00E94F80CC801B70140
:104760000E94E82129960FB6F894DEBF0FBECDBF98
:10477000CF91DF911F910F91FF90EF900895EF92ED
:10478000FF920F931F93DF93CF93CDB7DEB7299797
:104790000FB6F894DEBF0FBECDBF8C01862FF80197
:1047A000118210821382128215821482168290E086
:1047B0007E010894E11CF11CB70150E00E94F80C46
:1047C000C801B7010E94E82129960FB6F894DEBF10
:1047D0000FBECDBFCF91DF911F910F91FF90EF9052
:1047E0000895DF93CF930F920F92CDB7DEB7FC0100
:1047F00011821082138212821582148216826983BA
:104800001A82BE016F5F7F4F0E94E8210F900F90C8
:10481000CF91DF910895DF93CF930F920F92CDB791
:10482000DEB7FC011182108213821282158214827B
:10483000168269831A82BE016F5F7F4F0E94E82152
:104840000F900F90CF91DF910895BF92CF92DF929A
:10485000EF92FF920F931F93CF93DF93082FB92E00
:104860006B017A01E9012417350710F4EA01790197
:10487000802F9B2D6CE372E00E94B421D601149628
:104880008D919C9115978E159F05D0F08C179D07E3
:1048900008F4EC01D601ED91FC911197EC0FFD1F8E
:1048A000108110826D917C916E0D7F1D802F9B2D4C
:1048B0000E94E821D601ED91FC91EC0FFD1F1083C1
:1048C000802F9B2DDF91CF911F910F91FF90EF9043
:1048D000DF90CF90BF9008950F931F938C01FB0141
:1048E000248135810E942524C8011F910F910895CC
:1048F000CF93DF93EC01FB018617970761F060818E
:1049000071816115710529F0448155810E949321BF
:1049100002C00E94E920CE01DF91CF910895FC01F1
:1049200011821082138212821582148216820E94D2
:1049300078240895FC01118210821382128215825C
:10494000148216820E9478240895FC01808191814E
:104950000E944E250895FC01808191810E944E2580
:1049600008950F931F93CF93DF93BC01823091057D
:1049700010F462E070E0E0914D06F0914E0640E0E8
:1049800050E0A0E0B0E024C08081918186179707B5
:10499000D0F08617970771F482819381109729F0E0
:1049A00013969C938E9312972CC090934E068093EF
:1049B0004D0627C04115510519F08417950718F4C5
:1049C0008D01AC01EF01DF01828193819C01F9012E
:1049D0003097D1F641155105F9F0CA01861B970BA6
:1049E0008430910580F48A819B810115110521F0A5
:1049F000F8019383828304C090934E0680934D0602
:104A0000FE01329645C0FE01E80FF91F61937193D4
:104A10000297998388833CC080914B0690914C0605
:104A2000892B41F4809148039091490390934C065F
:104A300080934B0640914A0350914B034115510519
:104A400041F44DB75EB78091460390914703481BF0
:104A5000590B20914B0630914C0624173507B0F4C2
:104A6000CA01821B930B8617970780F0AB014E5F3C
:104A70005F4F8417950750F0420F531F50934C0619
:104A800040934B06F9016193719302C0E0E0F0E0BE
:104A9000CF01DF91CF911F910F910895CF93DF93B5
:104AA0009C01009709F48FC0EC0122971B821A82A7
:104AB00060914D0670914E066115710581F48881F3
:104AC0009981820F931F20914B0630914C06281735
:104AD000390739F5D0934C06C0934B0674C0DB01FF
:104AE00040E050E0AC17BD0708F1BB83AA83FE018C
:104AF00021913191E20FF31FAE17BF0779F48D9129
:104B00009C911197280F391F2E5F3F4F39832883BF
:104B100012968D919C9113979B838A834115510521
:104B200071F4D0934E06C0934D064DC012968D91F0
:104B30009C911397AD01009711F0DC01D3CFDA01FE
:104B40001396DC93CE931297FA0121913191E20FE3
:104B5000F31FCE17DF0769F488819981280F391F69
:104B60002E5F3F4FFA01318320838A819B8193839B
:104B70008283E0E0F0E0DB0112968D919C91139727
:104B8000009719F0BC01FD01F6CFAB014E5F5F4FFE
:104B9000DB018D919C91840F951F20914B063091E4
:104BA0004C062817390779F4309729F410924E06ED
:104BB00010924D0602C01382128242505040509310
:104BC0004C0640934B06DF91CF9108956F927F92F0
:104BD0008F929F92AF92BF92CF92DF92EF92FF920D
:104BE0000F931F93CF93DF938C01009729F4CB0190
:104BF0000E94B1248C01BBC08EEFE82E8FEFF82EFF
:104C0000E00EF11E4801860E971E8E149F0408F4D4
:104C1000ACC0D7014D915C91119746175707B8F07A
:104C20004530510508F4A3C0CA01049786179707B9
:104C300008F49DC042505040461B570BF40141936D
:104C400051936D937C93CF010E944E2590C05B01E0
:104C5000A41AB50A3801640E751EA0914D06B091D4
:104C60004E06E0E0F0E0CC24DD2447C0A615B705F1
:104C7000A9F5CD91DC911197CE0102968A159B057D
:104C800068F1CE018A199B09029612962C9112970F
:104C900013963C91059758F0F40122833383CA1987
:104CA000DB09D183C083D7016D937C9309C04E5F2C
:104CB0005F4F4C0F5D1FF70151834083C901FC0119
:104CC000C114D10431F0D6011396FC93EE931297E0
:104CD0004EC0F0934E06E0934D0649C08D919C91D5
:104CE0001197E817F90708F4FC016D0112968C91F1
:104CF000129713969C919C01D901109709F0B6CF99
:104D000080914B0690914C0686159705E9F4E617BD
:104D1000F707D0F420914A0330914B032115310558
:104D200041F42DB73EB78091460390914703281B6D
:104D3000390B82169306C8F490924C0680924B066B
:104D4000F7017183608313C0CB010E94B124EC0191
:104D5000009759F0D7014D915C91B8010E94F10B79
:104D6000C8010E944E258E0102C000E010E0C8017B
:104D7000DF91CF911F910F91FF90EF90DF90CF9037
:104D8000BF90AF909F908F907F906F900895629F9B
:104D9000D001739FF001829FE00DF11D649FE00D33
:104DA000F11D929FF00D839FF00D749FF00D659F94
:104DB000F00D9927729FB00DE11DF91F639FB00D93
:104DC000E11DF91FBD01CF0111240895A1E21A2EA2
:104DD000AA1BBB1BFD010DC0AA1FBB1FEE1FFF1F9F
:104DE000A217B307E407F50720F0A21BB30BE40BEF
:104DF000F50B661F771F881F991F1A9469F7609536
:104E00007095809590959B01AC01BD01CF010895EF
:104E10002F923F924F925F926F927F928F929F92CA
:104E2000AF92BF92CF92DF92EF92FF920F931F93B8
:104E3000CF93DF93CDB7DEB7CA1BDB0B0FB6F89469
:104E4000DEBF0FBECDBF19942A88398848885F8499
:104E50006E847D848C849B84AA84B984C884DF801A
:104E6000EE80FD800C811B81AA81B981CE0FD11DFE
:104E70000FB6F894DEBF0FBECDBFED010895EE0F63
:104E8000FF1F0590F491E02D1994911116C0803206
:104E900019F089508550D0F70895911108958154E3
:104EA0008A5108F4805E855A0895911108958156BB
:104EB0008A5108F4805285580895992788270895C3
:104EC000AA1BBB1B51E107C0AA1FBB1FA617B70730
:104ED00010F0A61BB70B881F991F5A95A9F780954C
:0C4EE0009095BC01CD010895F894FFCF1F
:104EEC005370656564523A200053706565644C3AA2
:104EFC0020006472696C6C506C75733A200064000D
:104F0C00320000009CFF9CFF0000320064006E61C8
:104F1C006E00696E66006F7666002E000000000061
:104F2C000000000000000102020303030304040458
:104F3C00040404040405050505050505050505051A
:104F4C0005050505050606060606060606060606FA
:104F5C0006060606060606060606060606060606E5
:104F6C0006060606060707070707070707070707CA
:104F7C0007070707070707070707070707070707B5
:104F8C0007070707070707070707070707070707A5
:104F9C000707070707070707070707070707070795
:104FAC00070707070708080808080808080808087A
:104FBC000808080808080808080808080808080865
:104FCC000808080808080808080808080808080855
:104FDC000808080808080808080808080808080845
:104FEC000808080808080808080808080808080835
:104FFC000808080808080808080808080808080825
:10500C000808080808080808080808080808080814
:10501C000808080808080808080808080808080804
:10502C0008080808080180004F0600000000000076
:10503C003C15AD17D2140315E3142C150000000019
:10504C003401AD1734013401340134010000000087
:10505C00DB16000000003401000000003401AD1725
:00000001FF
