:100000000C9406010C94B5250C94E6250C94172647
:100010000C9448260C9479260C94AA260C94DB2682
:100020000C940C270C9432010C9432010C94320184
:100030000C9432010C9432010C9432010C94320174
:100040000C9432010C9461070C9432010C9432012F
:100050000C9432010C9432010C9432010C943D2723
:100060000C9432010C94482B0C94902C0C9432017B
:100070000C9432010C9432010C9432010C94320134
:100080000C942B070C9432010C9432010C94320125
:100090000C94882B0C94CF2C0C9432010C94750981
:1000A0000C9432010C9432010C94F5060C9432013C
:1000B0000C9432010C9432010C9432010C94BF0662
:1000C0000C9432010C9432010C9432010C94C82B24
:1000D0000C940E2D0C9432010C94082C0C944D2D84
:1000E0000C94320100002100240027002A002D007A
:1000F0003000330001010000040107010A01000083
:100100002200250028002B002E00310034000201BF
:100110000000050108010B0100002000230026005B
:1001200029002C002F00320000010000030106010D
:10013000090105050505070508080808020202026D
:100140000A0A080804040404010101010101010173
:100150000303030303030303040707070C0C0C0C3E
:100160000C0C0C0C02020202060606060606060627
:100170000B0B0B0B0B0B0B0B0102102020080810B4
:100180002040102040800201020108040201010207
:1001900004081020408080402010080402018004E0
:1001A000020180402010080402010804020101023B
:1001B0000408102040800102040810204080000044
:1001C000090A02080B0C0D070603040100000000D9
:1001D000000000000000000000000000000000001F
:1001E0000000000000000000000011100F000000DF
:1001F00000000000000000000000000000000000FF
:1002000000000000570D630F3930873111241FBEE5
:10021000CFEFD1E2DEBFCDBF00E00CBF13E0A0E026
:10022000B2E0EAE7F9E800E00BBF02C007900D92E8
:10023000A03AB107D9F719E0A0EAB3E001C01D92D6
:10024000A83EB107E1F712E0CCE0D2E004C022976B
:10025000FE010E94D042C430D107C9F70E945C1D44
:100260000C94BB440C940000DF93CF930F920F9239
:10027000CDB7DEB79A83898389819A8181309105D0
:10028000C9F4E0E8F0E01082E1E8F0E082E0808389
:10029000E4E8F0E011821082A6E3B0E0E6E3F0E0EB
:1002A000808182608C93AFE6B0E0EFE6F0E0808181
:1002B00082608C9389819A818230910599F4E0E97A
:1002C000F0E01082E1E9F0E082E08083E4E9F0E030
:1002D00011821082E8E3F0E082E08083E1E7F0E061
:1002E00082E0808389819A818330910599F4E0EAE4
:1002F000F0E01082E1EAF0E082E08083E4EAF0E0FE
:1003000011821082E9E3F0E082E08083E2E7F0E02E
:1003100082E0808389819A81009799F4E0E2F1E09C
:100320001082E1E2F1E082E08083E4E2F1E0118218
:100330001082EAE3F0E082E08083E3E7F0E082E02D
:1003400080830F900F90CF91DF910895DF93CF932B
:100350000F920F92CDB7DEB79A8389830F900F90DB
:10036000CF91DF910895DF93CF9300D00F92CDB757
:10037000DEB79B838A83198227C02A813B81C9010A
:10038000880F991F820F931F880F991F880F991F3D
:100390009C018981882F90E0280F391FC901880F9F
:1003A000991F820F931FFC01EF55FC4F80818295AE
:1003B0008695869583708170813019F481E08C83F5
:1003C00007C089818F5F898389818C30B0F21C825C
:1003D0008C810F900F900F900F90CF91DF91089527
:1003E000DF93CF930F920F92CDB7DEB79A838983B5
:1003F0008091A0038033D0F48091A003E981FA8139
:1004000080838F5F8093A003E981FA818081282F08
:1004100030E0C901880F991F820F931FFC01EE5530
:10042000FC4F88EB9BE09183808304C0E981FA81D3
:100430008FEF80830F900F90CF91DF910895DF931E
:10044000CF930F920F92CDB7DEB79A8389838091B5
:10045000A0038033D0F48091A003E981FA818083E6
:100460008F5F8093A003E981FA818081282F30E09B
:10047000C901880F991F820F931FFC01EE55FC4F95
:1004800088EB9BE09183808304C0E981FA818FEF40
:1004900080830F900F90CF91DF910895DF93CF93DA
:1004A00000D00F920F92CDB7DEB79C838B83EB8188
:1004B000FC818081282F30E0C901880F991F820FAD
:1004C000931FFC01EF55FC4F80818F7B8083EB8174
:1004D000FC8180819CE0692F0E943A42882F90E045
:1004E0009A83898389819A810E94B3011D8288231E
:1004F00011F481E08D838D81882321F089819A8197
:100500000E94A6010F900F900F900F900F90CF9127
:10051000DF910895DF93CF9300D000D0CDB7DEB741
:100520009C838B837E836D83EB81FC8180818A83B6
:100530008A81803308F08AC0EB81FC818181282F79
:10054000332727FD309588E890E0821B930B9C01B0
:10055000220F331F220F331F8D819E818217930735
:1005600094F4EB81FC818181282F332727FD30957E
:1005700088E890E0821B930B880F991F880F991FC2
:100580009E838D8326C0EB81FC818281282F3327B7
:1005900027FD309588E592E0821B930B9C01220F8A
:1005A000331F220F331F8D819E81281739078CF44A
:1005B000EB81FC818281282F332727FD309588E548
:1005C00092E0821B930B880F991F880F991F9E83BF
:1005D0008D838D819E8102979E838D838D819E81E7
:1005E000AA2797FDA095BA2F880F991FAA1FBB1F96
:1005F000880F991FAA1FBB1F880F991FAA1FBB1F17
:10060000880F991FAA1FBB1F689412F8B695A7956B
:10061000979587951694D1F79E838D83EFE5F0E04B
:1006200080818983F8948A81282F30E04D815E8112
:10063000C901880F991F820F931FFC01EE55FC4FD3
:1006400051834083EFE5F0E08981808326960FB6E1
:10065000F894DEBF0FBECDBFCF91DF910895DF9339
:10066000CF9300D00F92CDB7DEB79C838B83EB8105
:10067000FC8180818F3FF9F0EB81FC818081282F04
:1006800030E0C901880F991F820F931FFC01EE55BE
:10069000FC4F80819181880F991F880F991F880FC7
:1006A000991F929582958F7089279F70892702964E
:1006B0009A83898302C01A82198289819A810F9054
:1006C0000F900F900F90CF91DF910895DF93CF930C
:1006D00000D0CDB7DEB79A838983E981FA81808122
:1006E000282F30E0C901880F991F820F931FFC014A
:1006F000EF55FC4F80818295869586958370817039
:100700008B838B81882311F081E08B838B810F9009
:100710000F900F90CF91DF910895AF92BF92CF923B
:10072000DF92EF92FF920F931F93DF93CF930F927D
:100730000F92CDB7DEB79A83898389819A810E940F
:100740002F030196AC01662757FD6095762FE9814E
:10075000FA818181282F332727FD309588E890E0A2
:10076000821B930B880F991F880F991F5C01CC2463
:10077000B7FCC094DC2CE981FA818281282F3327D1
:1007800027FD309588E592E0821B930B880F991F17
:10079000880F991F7C010027F7FC0095102F00D0CF
:1007A0000F92EDB7FEB7319684EB90E0A0E0B0E099
:1007B00080839183A283B383CB01BA01A601950103
:1007C000AA24BB2465010E940C360F900F900F9055
:1007D0000F90DC01CB010F900F90CF91DF911F9113
:1007E0000F91FF90EF90DF90CF90BF90AF90089562
:1007F000AF92BF92CF92DF92EF92FF920F931F932F
:10080000DF93CF9300D00F92CDB7DEB79A83898361
:100810007C836B838B819C8122E0803292070CF079
:1008200060C08B819C81992314F41C821B828B8174
:100830009C81853B910524F084EB90E09C838B8325
:100840008B819C81AC01662757FD6095762FE981ED
:10085000FA818181282F332727FD309588E890E0A1
:10086000821B930B880F991F880F991F5C01CC2462
:10087000B7FCC094DC2CE981FA818281282F3327D0
:1008800027FD309588E592E0821B930B880F991F16
:10089000880F991FAA2797FDA095BA2F00D00F9215
:1008A000EDB7FEB7319680839183A283B383CB01EA
:1008B000BA0120E030E040E050E00F2EF4EBEF2EE4
:1008C000F0E0FF2EF0E00F2FF0E01F2FF02D0E9440
:1008D0000C360F900F900F900F90DC01CB019C8392
:1008E0008B8389819A812B813C81B9010E948A0284
:1008F0000F900F900F900F90CF91DF911F910F915C
:10090000FF90EF90DF90CF90BF90AF900895DF936E
:10091000CF93CDB7DEB72F970FB6F894DEBF0FBEDB
:10092000CDBF9C838B837E836D8358874F833A87AB
:100930002987EB81FC818081803308F07FC08D8125
:1009400061E00E949529EB81FC818081282F30E0B5
:100950008D81482F4F73C901880F991F820F931FF4
:10096000FC01EF55FC4F942F9F738081807C892B75
:10097000808320E232E08F819885A901481B590BC2
:10098000CA019D878C878C859D85992334F44C857D
:100990005D854D5F5F4F5D874C878C859D85959507
:1009A000879595958795EB81FC81818320E639E0D9
:1009B00089859A85A901481B590BCA019F878E8793
:1009C0008E859F85992334F44E855F854D5F5F4FFB
:1009D0005F874E878E859F85959587959595879599
:1009E000EB81FC818283EB81FC8180819CE0692F1B
:1009F0000E943A42882F90E09A83898389819A8164
:100A00000E94B3011B86882311F451E05B878B851C
:100A1000882321F089819A810E943401EB81FC8135
:100A20008081282F30E0C901880F991F820F931F02
:100A3000FC01EF55FC4F808180648083EB81FC8159
:100A400080812F960FB6F894DEBF0FBECDBFCF9139
:100A5000DF910895DF93CF9300D00F92CDB7DEB72B
:100A60009A8389837C836B8389819A812B813C81E2
:100A7000B90140E252E020E639E00E9487040F907D
:100A80000F900F900F90CF91DF910895DF93CF9348
:100A9000CDB7DEB72B970FB6F894DEBF0FBECDBF34
:100AA0009A8389837C836B835E834D8389819A815A
:100AB000FC01EF5CFB4F80811B86882314F421E04E
:100AC0002B878B85882329F0EB81FC811182108292
:100AD00070C029813A81C901880F991F820F931F25
:100AE000880F991F880F991F9C0189819A81FC01A9
:100AF000EF5CFB4F8081992787FD9095280F391F68
:100B00008091A003882F90E02817390754F5298198
:100B10003A81C901880F991F820F931F880F991F6F
:100B2000880F991F9C0189819A81FC01EF5CFB4F22
:100B30008081992787FD9095280F391FC901880F5B
:100B4000991F820F931FFC01EF55FC4F8081829506
:100B50008695869583708170813019F421E02A870B
:100B600001C01A868A85882321F129813A81C90129
:100B7000880F991F820F931F880F991F880F991F45
:100B80009C0189819A81FC01EF5CFB4F8081992750
:100B900087FD9095280F391FC901880F991F820F73
:100BA000931FFC01EF55FC4F80818F7360E00E9422
:100BB000482A29813A81F901EF5CFB4F80818F5FE0
:100BC000F901EF5CFB4F808329813A81C901880FCD
:100BD000991F820F931F880F991F880F991F9C01DF
:100BE00089819A81FC01EF5CFB4F8081992787FD09
:100BF0009095280F391F8091A003882F90E0281727
:100C000039075CF489819A81FC01EF5CFB4F80819C
:100C10008C301CF481E0898701C01986898588237E
:100C200009F47EC0EB81FC814081518129813A81A8
:100C3000C901880F991F820F931F880F991F880F72
:100C4000991F9C0189819A81FC01EF5CFB4F808197
:100C5000992787FD9095280F391FC901880F991F83
:100C6000820F931FFC01EE55FC4F80819181840F10
:100C7000951FED81FE819183808329813A81C9018D
:100C8000880F991F820F931F880F991F880F991F34
:100C90009C0189819A81FC01EF5CFB4F808199273F
:100CA00087FD9095280F391FC901880F991F820F62
:100CB000931FFC01EF55FC4F8081829586958695A8
:100CC000837081701886813011F421E0288788852F
:100CD000882309F44BC029813A81C901880F991FE3
:100CE000820F931F880F991F880F991F9C0189817C
:100CF0009A81FC01EF5CFB4F8081992787FD9095DD
:100D0000280F391FC901880F991F820F931FFC01FB
:100D1000EF55FC4F80818F7361E00E94482A26C006
:100D2000EB81FC818081918104961F822CE98034C3
:100D3000920710F481E08F832F81222339F0ED8117
:100D4000FE8180E49CE99183808309C0EB81FC8172
:100D5000808191810496ED81FE81918380838981D8
:100D60009A81FC01EF5CFB4F8FEF80832B960FB6CF
:100D7000F894DEBF0FBECDBFCF91DF9108951F92D3
:100D80000F920FB60F9200905B000F9211242F93D9
:100D90003F934F935F936F937F938F939F93AF9303
:100DA000BF93EF93FF93DF93CF93CDB7DEB780E090
:100DB00090E064E271E048E251E00E944605CF9184
:100DC000DF91FF91EF91BF91AF919F918F917F91B3
:100DD0006F915F914F913F912F910F9000925B0027
:100DE0000F900FBE0F901F9018951F920F920FB685
:100DF0000F9200905B000F9211242F933F934F931B
:100E00005F936F937F938F939F93AF93BF93EF9372
:100E1000FF93DF93CF93CDB7DEB783E090E064EA32
:100E200070E048EA50E00E944605CF91DF91FF91C3
:100E3000EF91BF91AF919F918F917F916F915F9152
:100E40004F913F912F910F9000925B000F900FBE3A
:100E50000F901F9018951F920F920FB60F9200904F
:100E60005B000F9211242F933F934F935F936F93E7
:100E70007F938F939F93AF93BF93EF93FF93DF93F2
:100E8000CF93CDB7DEB782E090E064E970E048E947
:100E900050E00E944605CF91DF91FF91EF91BF9105
:100EA000AF919F918F917F916F915F914F913F9102
:100EB0002F910F9000925B000F900FBE0F901F902C
:100EC00018951F920F920FB60F9200905B000F9231
:100ED00011242F933F934F935F936F937F938F933F
:100EE0009F93AF93BF93EF93FF93DF93CF93CDB7D0
:100EF000DEB781E090E064E870E048E850E00E94EE
:100F00004605CF91DF91FF91EF91BF91AF919F91F6
:100F10008F917F916F915F914F913F912F910F90A2
:100F200000925B000F900FBE0F901F901895DF93FB
:100F3000CF93CDB7DEB71092350481E080933704AC
:100F4000109238048091040261E00E94482A809146
:100F5000050261E00E94482AA9EBB0E0E9EBF0E06D
:100F600080818E7F8C93A9EBB0E0E9EBF0E080818B
:100F70008D7F8C93E8EBF0E088E48083ECEBF0E08D
:100F800085E48083CF91DF910895DF93CF930F9213
:100F9000CDB7DEB78983EAEBF0E08981880F8083E3
:100FA0000F90CF91DF910895DF93CF93CDB7DEB748
:100FB00027970FB6F894DEBF0FBECDBF8A837C8320
:100FC0006B834D832E838D81813210F01F825CC034
:100FD000809135048823E1F781E0809335048E8188
:100FE000809337048FEF8093A20410925D048D816B
:100FF000815080935E0481E0809336048A81882F3B
:1010000090E0880F991F982F80913604892B809348
:10101000360480913804813061F410923804EBEB8F
:10102000F0E0809136048083ECEBF0E085EC808387
:1010300004C0ECEBF0E085EE8083809135048130D4
:10104000E1F390915D048D81981718F480915D040F
:101050008D83198213C08981282F30E08B819C8178
:10106000DC01A20FB31F8981882F90E0FC01E35CB3
:10107000FB4F80818C9389818F5F898399818D81DA
:10108000981748F38D818F838F8127960FB6F89438
:10109000DEBF0FBECDBFCF91DF9108950F93DF93D9
:1010A000CF93CDB7DEB728970FB6F894DEBF0FBE4B
:1010B000CDBF8A837C836B834D832E830F838D8189
:1010C000813218F081E0888769C0809135048823D7
:1010D000E1F782E0809335048F81809337048FEFAE
:1010E0008093A20410925D048D8180935E04198226
:1010F00013C08981482F50E08981282F30E08B81EF
:101100009C81FC01E20FF31F8081FA01E35CFB4F3D
:10111000808389818F5F898399818D81981748F3B6
:10112000109236048A81882F90E0880F991F982F9B
:1011300080913604892B8093360480913804813065
:1011400061F410923804EBEBF0E080913604808378
:10115000ECEBF0E085EC808304C0ECEBF0E085EE96
:1011600080838E81882321F0809135048230C9F3F9
:101170008091A2048F3F11F4188610C08091A204C0
:10118000803219F482E0888709C08091A2048033FC
:1011900019F483E0888702C084E0888788852896D0
:1011A0000FB6F894DEBF0FBECDBFCF91DF910F9188
:1011B0000895DF93CF9300D00F920F92CDB7DEB793
:1011C0009B838A836C838C81813218F081E08D83CC
:1011D00024C080913504843019F082E08D831DC0D5
:1011E0008C8180938004198213C08981482F50E03C
:1011F0008981282F30E08A819B81FC01E20FF31F57
:101200008081FA01E15AFB4F808389818F5F898356
:1012100099818C81981748F31D828D810F900F90D2
:101220000F900F900F90CF91DF910895DF93CF93A0
:101230000F920F92CDB7DEB79A83898389819A8105
:1012400090933C0480933B040F900F90CF91DF91DB
:101250000895DF93CF930F920F92CDB7DEB79A83A5
:10126000898389819A8190933A04809339040F90FD
:101270000F90CF91DF910895DF93CF930F92CDB769
:10128000DEB789838981882329F0ECEBF0E085ECD7
:10129000808304C0ECEBF0E085E880830F90CF9171
:1012A000DF910895DF93CF93CDB7DEB7ECEBF0E09D
:1012B00085ED8083ECEBF0E08081882F90E08071F9
:1012C00090700097B9F710923504CF91DF9108958F
:1012D000DF93CF93CDB7DEB7ECEBF0E085EC808306
:1012E00010923504CF91DF9108951F920F920FB69F
:1012F0000F9200905B000F9211242F933F934F9316
:101300005F936F937F938F939F93AF93BF93EF936D
:10131000FF93DF93CF930F920F92CDB7DEB7E9EB38
:10132000F0E08081882F90E09C01287F30703A8324
:10133000298389819A818836910509F44CC12981D4
:101340003A81293631050CF060C089819A81803359
:10135000910509F4F4C029813A812133310554F50E
:1013600089819A818031910509F4B0C029813A813F
:101370002131310564F489819A81009709F4AAC169
:1013800029813A812830310509F4A0C0A7C189819B
:101390009A818032910509F4CCC029813A812832A2
:1013A000310509F49CC089819A818831910509F43D
:1013B00096C094C129813A812834310509F408C1C5
:1013C00089819A81893491056CF429813A81283385
:1013D000310509F4BAC089819A818034910509F4F4
:1013E000C9C07CC129813A812835310509F4D0C0B2
:1013F00089819A818036910509F4EDC029813A816D
:101400002035310509F4A7C069C189819A81803AE4
:10141000910509F404C129813A81213A31055CF52D
:1014200089819A818038910509F4DEC029813A8149
:10143000213831056CF489819A818037910509F44E
:10144000CAC029813A812837310509F4C4C046C190
:1014500089819A818039910509F4C6C029813A8130
:101460002839310509F4FAC089819A8188389105B3
:1014700009F4F4C033C129813A81283B310509F4CC
:1014800006C189819A81893B91056CF429813A8151
:10149000283A310509F4E6C089819A81803B91059B
:1014A00009F4E0C01BC129813A81283C310509F4C7
:1014B0000BC189819A81883F910509F40FC1298167
:1014C0003A81203C310509F4FFC008C1EBEBF0E0A4
:1014D00080913604808381E00E943C09FFC0909196
:1014E0005D0480915E04981798F4ABEBB0E0209116
:1014F0005D04822F90E0FC01E35CFB4F80818C93C4
:10150000822F8F5F80935D0481E00E943C09E6C0DA
:1015100080913704882319F00E945209DFC081E0CE
:1015200080933804ECEBF0E084EA80831092350479
:10153000D5C080E28093A2040E945209CFC080E30C
:101540008093A2040E945209C9C088E38093A20438
:101550000E946809C3C030915D04832F90E0EBEBDB
:10156000F0E02081FC01E35CFB4F2083832F8F5F41
:1015700080935D0490915D0480915E04981720F43F
:1015800081E00E943C09AAC080E00E943C09A6C0FC
:1015900030915D04832F90E0EBEBF0E02081FC01C3
:1015A000E35CFB4F2083832F8F5F80935D048091EA
:1015B0003704882319F00E94520990C081E080937B
:1015C0003804ECEBF0E084EA80831092350486C0A6
:1015D0000E94520983C083E0809335041092A104D5
:1015E00081E00E943C097AC08091A104803298F485
:1015F0003091A104832F90E0EBEBF0E02081FC011F
:10160000EF57FB4F2083832F8F5F8093A10481E0EE
:101610000E943C0963C080E00E943C095FC0809149
:10162000A104803240F48091A104882F90E0FC0155
:10163000EF57FB4F10820E945209E0913B04F0915A
:101640003C048091A104282F30E081E894E0B901A6
:1016500019951092A1040E94680940C080E00E9480
:101660003C093CC084E08093350410927F041092C2
:101670008004E0913904F0913A0419958091800436
:10168000882329F481E08093800410925F04ABEBFF
:10169000B0E020917F04822F90E0FC01E15AFB4FE3
:1016A00080818C93822F8F5F80937F0490917F0441
:1016B00080918004981720F481E00E943C090EC0BC
:1016C00080E00E943C090AC081E00E943C0910921F
:1016D000350404C01092A2040E9452090F900F908A
:1016E000CF91DF91FF91EF91BF91AF919F918F913A
:1016F0007F916F915F914F913F912F910F90009249
:101700005B000F900FBE0F901F901895DF93CF9343
:1017100000D00F92CDB7DEB79A8389837C836B8329
:10172000E981FA818B819C81938382830F900F9052
:101730000F900F90CF91DF910895DF93CF930F9289
:101740000F92CDB7DEB79A838983E981FA818BE95D
:1017500093E091838083E981FA81138212820F9052
:101760000F90CF91DF910895DF93CF930F920F9257
:10177000CDB7DEB79A83898389819A810E949D0BB8
:10178000E981FA818BE292E091838083E981FA8199
:1017900088EE93E0A0E0B0E084839583A683B783CE
:1017A0000F900F90CF91DF910895DF93CF930F9219
:1017B0000F92CDB7DEB79A83898389819A810E947F
:1017C000B40BE981FA818BE192E0918380830F90E1
:1017D0000F90CF91DF910895DF93CF930F920F92E7
:1017E000CDB7DEB79A83898389819A810E94B40B31
:1017F000E981FA818BE192E0918380830F900F90D1
:10180000CF91DF910895DF93CF9300D0CDB7DEB7AE
:101810009A8389836B8381E08093E8048B81809332
:10182000C5041092E6041092E7040F900F900F90F9
:10183000CF91DF910895DF93CF9300D00F92CDB772
:10184000DEB79A8389837C836B832B8189819A811C
:10185000622F0E94030C0F900F900F900F90CF916A
:10186000DF910895DF93CF930F920F92CDB7DEB73C
:101870009A8389838091C404282F30E08091C30427
:10188000882F90E0A901481B590BCA010F900F90B7
:10189000CF91DF910895DF93CF9300D00F92CDB712
:1018A000DEB79C838B838FEF9FEF9A838983909120
:1018B000C3048091C404981788F48091C304882FCE
:1018C00090E0FC01ED55FB4F8081882F90E09A83DA
:1018D00089838091C3048F5F8093C30489819A8137
:1018E0000F900F900F900F90CF91DF910895DF939D
:1018F000CF9300D00F92CDB7DEB79C838B838FEF51
:101900009FEF9A8389839091C3048091C4049817B0
:1019100060F48091C304882F90E0FC01ED55FB4FEB
:101920008081882F90E09A83898389819A810F90A2
:101930000F900F900F90CF91DF910895DF93CF9389
:101940000F920F92CDB7DEB79A8389830F900F90D5
:10195000CF91DF910895DF93CF9300D00F920F9234
:10196000CDB7DEB79B838A837D836C838091EB0444
:101970009091EC04009779F19091C3048091C40494
:10198000981748F1198213C08981482F50E0898146
:10199000282F30E08A819B81FC01E20FF31F8081B8
:1019A000FA01ED55FB4F808389818F5F898389819F
:1019B000282F30E08C819D81281739072CF3109255
:1019C000C3048C818093C404E091EB04F091EC0497
:1019D0008C819D8119950F900F900F900F900F9013
:1019E000CF91DF910895DF93CF93CDB7DEB780918C
:1019F000E9049091EA04009749F01092E6041092ED
:101A0000E704E091E904F091EA041995CF91DF91A0
:101A10000895DF93CF9300D00F92CDB7DEB79A83AE
:101A200089837C836B838B819C819093EC0480936E
:101A3000EB040F900F900F900F90CF91DF910895CE
:101A4000DF93CF9300D00F92CDB7DEB79A8389830F
:101A50007C836B838B819C819093EA048093E9045F
:101A60000F900F900F900F90CF91DF910895DF931B
:101A7000CF9300D00F92CDB7DEB79A8389837C8352
:101A80006B8389819A818130910551F48B819C818E
:101A90002FEF8F3F920721F48DEE94E00E94EC0B24
:101AA0000F900F900F900F90CF91DF910895DF93DB
:101AB000CF93CDB7DEB781E090E06FEF7FEF0E946C
:101AC000370DCF91DF910895DF93CF93CDB7DEB778
:101AD00028970FB6F894DEBF0FBECDBF9C838B83D3
:101AE0007E836D8358874F838091E804882321F19A
:101AF0001A82198219C0EB81FC810190F081E02DDE
:101B0000408151812D813E8189819A81F901E80FBF
:101B1000F91F20818B819C81622FFA01199589819F
:101B20009A8101969A83898329813A818F81988548
:101B30002817390700F306C02F818D819E81622FFF
:101B40000E94D9088F81988528960FB6F894DEBF39
:101B50000FBECDBFCF91DF910895DF93CF9300D01B
:101B60000F920F92CDB7DEB79A8389836B838091F2
:101B7000E804882301F18091E704803248F08981EC
:101B80009A8161E070E00E94860B1D821C821CC05D
:101B90008091E604882F90E02B81FC01EA53FB4FF3
:101BA00020838091E6048F5F8093E6048091E604B1
:101BB0008093E70405C0CE01039661E00E94D90836
:101BC00081E090E09D838C838C819D810F900F90AC
:101BD0000F900F900F90CF91DF9108950F93DF93A7
:101BE000CF9300D00F92CDB7DEB79B838A836C83EF
:101BF0008091C5049091E70426EC34E0B901492FA7
:101C000021E00C810E944E0889831092E604109214
:101C1000E7041092E80489810F900F900F900F90C5
:101C2000CF91DF910F910895DF93CF930F920F9291
:101C3000CDB7DEB79A83898389819A8161E00E945A
:101C4000EE0D0F900F90CF91DF910895DF93CF931A
:101C500000D000D0CDB7DEB79B838A836C834D83E1
:101C60002E838D81813210F080E28D8323EA34E06F
:101C70008C81B9014D812E810E94D40789831092F5
:101C8000C30489818093C404898126960FB6F89491
:101C9000DEBF0FBECDBFCF91DF910895DF93CF930D
:101CA000CDB7DEB728970FB6F894DEBF0FBECDBF15
:101CB0009A8389837C836B835E834D8338872F83EC
:101CC0002B813D815F8189819A81622F432F252F4E
:101CD0000E94260E28960FB6F894DEBF0FBECDBF29
:101CE000CF91DF910895DF93CF9300D000D0CDB78F
:101CF000DEB79A8389837C836B835E834D832B81DC
:101D00003D8189819A81622F432F21E00E94260E16
:101D100026960FB6F894DEBF0FBECDBFCF91DF91F0
:101D20000895DF93CF9300D00F92CDB7DEB79A839B
:101D300089836B834C8389819A816B814C8121E0FB
:101D40000E94260E0F900F900F900F90CF91DF9171
:101D50000895DF93CF930F920F92CDB7DEB79A839A
:101D600089831092C3041092C4041092E604109266
:101D7000E7040E9497070F900F90CF91DF9108958D
:101D8000DF93CF9300D0CDB7DEB79A8389836B837F
:101D90008B810E94C50783EF9CE00E9429098BEA92
:101DA0009CE00E94160989819A810E94A90E0F90D9
:101DB0000F900F90CF91DF910895DF93CF9300D0D4
:101DC0000F92CDB7DEB79A8389837C836B832B8197
:101DD00089819A81622F0E94C00E0F900F900F9000
:101DE0000F90CF91DF910895DF93CF93CDB7DEB7FA
:101DF000CF91DF910895DF93CF9300D00F92CDB7AD
:101E0000DEB79A8389837C836B83E981FA810190B1
:101E1000F081E02D0190F081E02D2B8189819A8164
:101E2000622F19950F900F900F900F90CF91DF9127
:101E30000895DF93CF93CDB7DEB78091FD049091E5
:101E4000FE0401969093FE048093FD04CF91DF91F0
:101E50000895DF93CF93CDB7DEB78091FF049091C3
:101E600000050196909300058093FF04CF91DF91C8
:101E700008950F93DF93CF9300D00F92CDB7DEB7C5
:101E80009A8389837C836B8389819A8181309105D0
:101E900091F48B819C812FEF8F3F920761F486E153
:101EA00097E060E040E020E000E00E947B3183E1C9
:101EB00097E00E941F020F900F900F900F90CF910C
:101EC000DF910F910895DF93CF93CDB7DEB781E017
:101ED00090E06FEF7FEF0E94390FCF91DF9108956F
:101EE0000F931F93DF93CF93CDB7DEB72D970FB628
:101EF000F894DEBF0FBECDBF9A8789877C876B873A
:101F00008DEE94E029853A85B9010E941B0C8DEE77
:101F100094E062E370E00E94FB0E8DEE94E00E947C
:101F2000140E8DEE94E029853A85B9010E941B0CB0
:101F30008DEE94E029853A85B90146E050E00E9493
:101F4000730E1A82198212C009811A818DEE94E0F3
:101F50000E944B0C282FCE010396FC01E00FF11FCD
:101F6000208389819A8101969A8389838DEE94E0FA
:101F70000E94320C1D86009711F081E08D878D85BF
:101F8000882311F78DEE94E00E94140E8C81882F27
:101F900090E0382F22278B81882F90E0822B932B83
:101FA000EB85FC85918380838B859C85FC01329633
:101FB0008E81882F90E0382F22278D81882F90E006
:101FC000822B932B918380838B859C85FC01349697
:101FD0008885882F90E0382F22278F81882F90E0E6
:101FE000822B932B918380832D960FB6F894DEBFBE
:101FF0000FBECDBFCF91DF911F910F910895DF9359
:10200000CF9300D0CDB7DEB79A8389836B838DEEF3
:1020100094E029813A81B9010E941B0C8DEE94E075
:102020006DE270E00E94FB0E8DEE94E06B810E94E9
:10203000AD0D8DEE94E00E94140E0F900F900F9056
:10204000CF91DF910895DF93CF93CDB7DEB785E5CC
:1020500099E040E855E260E070E00E94142E8DEEB9
:1020600094E00E94A90E83E197E069E070E00E948D
:102070002A0583E197E064E170E00E94F80384E0C0
:1020800061E00E94952985E061E00E94952986E043
:1020900061E00E94952987E061E00E94952988E22D
:1020A00060E00E94952987E261E00E94952986E21E
:1020B00060E00E94952985E261E00E9495298DE00B
:1020C00061E00E94952986E160E00E94952987E100
:1020D00060E00E94952988E160E00E94952989E1ED
:1020E00060E00E9495298AE162E00E9495298BE1D7
:1020F00062E00E9495298CE162E00E94952929E125
:102100003FE085E0B90142E050E00E940D2529E260
:102110003FE084E0B90142E050E00E940D2583E5F4
:1021200090E060E00E94FF0F83E590E060E10E9494
:10213000FF0F83E590E068E00E94FF0F29E037E0A1
:1021400083E590E0B9010E94700FCF91DF9108956F
:10215000DF93CF930F920F92CDB7DEB785E30E9446
:102160007B2A0097C9F086E10E947B2A0097A1F0A4
:1021700087E10E947B2A009779F088E10E947B2A00
:10218000009751F089E10E947B2A009729F084E3AF
:102190000E947B2A009719F481E08A8301C01A8289
:1021A0008A81882319F081E0898301C0198289819D
:1021B0000F900F90CF91DF910895DF93CF930F92FF
:1021C0000F92CDB7DEB785E30E947B2A009719F105
:1021D00086E10E947B2A0097F1F087E10E947B2A2A
:1021E0000097C9F088E10E947B2A0097A1F089E15D
:1021F0000E947B2A009779F084E30E947B2A009753
:1022000051F08AE10E947B2A009729F08BE10E941D
:102210007B2A009719F481E08A8301C01A828A819F
:10222000882319F081E0898301C0198289810F9088
:102230000F90CF91DF910895DF93CF9300D0CDB76A
:10224000DEB79A8389836B8389819A81009759F4D9
:102250009B8187E0692F0E94482A86E060E070E059
:102260000E94B5280EC09B8187E0692F0E94482AF2
:1022700089819A819C0125563F4F86E0B9010E94D1
:10228000B5280F900F900F90CF91DF910895DF93B5
:10229000CF9300D0CDB7DEB79A8389836B838981D2
:1022A0009A81009759F49B8185E0692F0E94482A02
:1022B00084E060E070E00E94B5280EC09B8185E05C
:1022C000692F0E94482A89819A819C0125563F4F97
:1022D00084E0B9010E94B5280F900F900F90CF9124
:1022E000DF910895DF93CF9300D00F920F92CDB777
:1022F000DEB79A8389837C836B834D8389819A813E
:10230000009731F48B819C816D810E941C111AC051
:1023100089819A818130910531F48B819C816D8115
:102320000E9447110FC089819A818230910551F432
:102330008B819C816D810E9447118B819C816D8175
:102340000E941C110F900F900F900F900F90CF9143
:10235000DF910895DF93CF93CDB7DEB72C970FB6FB
:10236000F894DEBF0FBECDBF9E838D836F835987E8
:1023700048872A8788859985AA2797FDA095BA2F2F
:10238000BC01CD010E94ED21DC01CB01BC01CD01DE
:1023900021E230EB4AE250E40E945C1FDC01CB01F9
:1023A000BC01CD010E944B22DC01CB019C838B83BD
:1023B0008A858823C1F18091FD049091FE049A835F
:1023C000898313C09F8181E0492F48272D813E8159
:1023D00081E090E0B9010E9472112D813E8180E080
:1023E00090E0B9014F810E9472112091FD0430915B
:1023F000FE0489819A81281B390B8B819C812817C7
:10240000390764F40E94DD10982F81E0982781E05D
:102410008927882319F481E08C8701C01C868C856C
:10242000882381F632C08A8591E08927882369F163
:102430008091FD049091FE049A83898313C09F814B
:1024400081E0492F48272D813E8181E090E0B9014C
:102450000E9472112D813E8180E090E0B9014F8190
:102460000E9472112091FD043091FE0489819A81AD
:10247000281B390B1B868B819C812817390714F484
:1024800081E08B878B858823D1F62C960FB6F89444
:10249000DEBF0FBECDBFCF91DF9108950F93DF93C5
:1024A000CF93CDB7DEB72E970FB6F894DEBF0FBE31
:1024B000CDBF9E838D8378876F8349873B872A872B
:1024C0000C878A859B85AA2797FDA095BA2FBC010A
:1024D000CD010E94ED21DC01CB01BC01CD0120E04A
:1024E00030E048E451E40E945C1FDC01CB01BC01F8
:1024F000CD010E944B22DC01CB019C838B838C8518
:10250000882369F18091FD049091FE049A83898368
:1025100008C08D819E812F813885B90149850E942F
:1025200072112091FD043091FE0489819A81281B4B
:10253000390B8B819C812817390764F40E94DD10C8
:10254000982F81E0982781E08927882319F481E07A
:102550008E8701C01E868E858823D9F627C08C857C
:1025600091E08927882311F18091FD049091FE0468
:102570009A83898308C08D819E812F813885B90116
:1025800049850E9472112091FD043091FE048981D9
:102590009A81281B390B1D868B819C81281739074E
:1025A00014F481E08D878D85882329F72E960FB648
:1025B000F894DEBF0FBECDBFCF91DF910F9108958C
:1025C0000F93DF93CF93CDB7DEB729970FB6F8946B
:1025D000DEBF0FBECDBF8AE10E947B2A009729F0A3
:1025E0008BE10E947B2A009719F481E0898701C062
:1025F00019868985882309F4BEC18AE10E947B2A55
:10260000009741F48BE10E947B2A009719F481E046
:10261000888701C018868885882309F42BC1198210
:1026200082E090E060E070E041E00E94721182E0A0
:1026300090E06BE470E040E02AE030E000E00E94CF
:102640004E128BE490E069814AE550E020E00E9460
:10265000AA1182E090E06BE470E041E029E130E013
:1026600000E00E944E12998181E0292F28278BE4F7
:1026700090E0622F4AE550E020E00E94AA1182E03B
:1026800090E06BE470E041E028E230E000E00E947E
:102690004E12998181E0292F28278BE490E0622F48
:1026A00040E550E020E00E94AA118981882309F4C6
:1026B00078C007C082E090E062E370E041E00E94F1
:1026C00072110E94A81091E08927882399F785E369
:1026D0000E947B2A009751F086E10E947B2A009796
:1026E00029F087E10E947B2A009719F481E08F830B
:1026F00001C01F828F81882369F182E090E062E34C
:1027000070E041E02AE030E000E00E944E128BE4ED
:1027100090E069814AE550E020E00E94AA1182E041
:1027200090E060E070E040E00E947211898191E0E9
:10273000282F29278BE490E0622F44E650E021E027
:102740000E94AA1182E090E060E070E040E00E9408
:10275000721111C188E10E947B2A009751F089E132
:102760000E947B2A009729F084E30E947B2A00972D
:1027700019F481E08E8301C01E828E81882309F4C2
:10278000FAC08BE490E069814CE350E020E00E94C5
:10279000AA11F1C082E090E062E370E041E00E94A3
:1027A00072110E94A81091E08927882399F788E187
:1027B0000E947B2A009751F089E10E947B2A0097B2
:1027C00029F084E30E947B2A009719F481E08D832D
:1027D00001C01D828D81882369F182E090E062E36F
:1027E00070E041E02AE030E000E00E944E128BE40D
:1027F00090E069814AE550E020E00E94AA1182E061
:1028000090E060E070E040E00E947211898191E008
:10281000282F29278BE490E0622F44E650E021E046
:102820000E94AA1182E090E060E070E040E00E9427
:102830007211A1C085E30E947B2A009751F086E1C6
:102840000E947B2A009729F087E10E947B2A00974B
:1028500019F481E08C8301C01C828C81882309F4E7
:102860008AC08BE490E069814CE350E020E00E9454
:10287000AA1181C08AE10E947B2A0097D9F48BE1DA
:102880000E947B2A0097B1F00E94A81091E089274E
:10289000882381F48091370290913802813091052C
:1028A00049F08091370290913802009719F081E049
:1028B0008B8301C01B828B818823E9F082E090E04A
:1028C00062E370E040E024E030E000E00E944E125D
:1028D00084E690E061E045E050E020E00E94AA112B
:1028E00081E090E062E370E041E026E030E000E06B
:1028F0000E944E1240C08AE10E947B2A0097D9F0C4
:102900008BE10E947B2A0097B1F40E94A81091E00D
:102910008927882381F48091370290913802813091
:10292000910549F08091370290913802009719F093
:1029300081E08A8301C01A828A818823E1F082E0E3
:1029400090E062E370E040E024E030E000E00E94CC
:102950004E1284E690E060E045E050E020E00E9406
:10296000AA1180E090E062E370E041E026E030E010
:1029700000E00E944E1229960FB6F894DEBF0FBEFB
:10298000CDBFCF91DF910F9108950F93DF93CF9338
:10299000CDB7DEB72F970FB6F894DEBF0FBECDBF11
:1029A0009C838B837E836D8358874F833A872987E7
:1029B0000B878B858823A1F18091FD049091FE0403
:1029C0009A8389830FC01E868F819885009711F0A6
:1029D00081E08E878B819C812D813E81B9014E855E
:1029E0000E9472112091FD043091FE0489819A8128
:1029F000281B390B89859A852817390764F40E94AA
:102A0000DD10982F81E0982781E08927882319F429
:102A100081E08F8701C01F868F858823A1F62EC095
:102A20008B8591E08927882349F18091FD0490915D
:102A3000FE049A8389830FC01C868F819885009736
:102A400011F081E08C878B819C812D813E81B901C1
:102A50004C850E9472112091FD043091FE04898101
:102A60009A81281B390B1D8689859A852817390775
:102A700014F481E08D878D858823F1F62F960FB6AB
:102A8000F894DEBF0FBECDBFCF91DF910F910895B7
:102A9000DF93CF9300D000D0CDB7DEB79C838B837C
:102AA0001A8219828B819C818130910551F484E4D2
:102AB0000E9481289A83898389819A819E838D834C
:102AC00021C08B819C81009751F485E40E9481286C
:102AD0009A83898389819A819E838D8313C08B8198
:102AE0009C818230910551F483E40E9481289A836D
:102AF000898389819A819E838D8304C089819A818B
:102B00009E838D838D819E8126960FB6F894DEBFBD
:102B10000FBECDBFCF91DF9108950F93DF93CF9379
:102B2000CDB7DEB72A970FB6F894DEBF0FBECDBF84
:102B300081E08093120707C082E090E064E670E0D5
:102B400041E00E9472118AE10E947B2A009729F4D9
:102B50008BE10E947B2A009719F021E02A8701C0AF
:102B60001A868A85882341F782E090E062E370E06C
:102B700040E025E030E000E00E944E1282E390E069
:102B800061E04AE550E020E00E94AA1182E090E076
:102B900062E370E040E00E94721160ED77E080E057
:102BA00090E00E94B9278BC080E090E063E270E083
:102BB00041E00E94721181E090E061E470E041E048
:102BC0000E9472118AE10E947B2A009741F48BE1F6
:102BD0000E947B2A009719F481E0888701C018863B
:102BE0008885882309F46BC082E090E062E370E09E
:102BF00040E025E030E000E00E944E1220911207F4
:102C000082E390E0622F4AE550E020E00E94AA11A2
:102C100082E090E062E370E041E02AE030E000E032
:102C20000E944E129091120781E0292F282782E3FB
:102C300090E0622F4CE350E020E00E94AA1107C010
:102C400082E090E062E370E041E00E9472118AE16C
:102C50000E947B2A009729F48BE10E947B2A00972F
:102C600019F021E02F8301C01F828F81882341F753
:102C700082E090E062E370E040E025E030E000E0D8
:102C80000E944E122091120782E390E0622F44EBE3
:102C900050E020E00E94AA1182E090E062E370E040
:102CA00040E00E94721168EB7BE080E090E00E94BF
:102CB000B9279091120781E08927809312078091AC
:102CC0001207882F90E00E944815198621E08C3267
:102CD000920714F481E089872985222309F064CFC3
:102CE0008091120791E0282F292782E390E0622F3C
:102CF0004CE350E020E00E94AA111A8219820DC014
:102D000082E390E060E041E050E020E00E94AA1100
:102D100089819A8101969A83898382E090E00E945A
:102D200048151E8221E08C32920714F481E08E83D4
:102D30002E81222329F782E090E062E370E040E0F8
:102D400027E030E000E00E944E1283E197E060EA65
:102D500070E00E94F80360ED77E080E090E00E9470
:102D6000B92728E730E089819A81281B390B82E353
:102D700090E060E0A90120E00E94AA1107C082E073
:102D800090E062E370E041E00E9472118AE10E94EB
:102D90007B2A009729F48BE10E947B2A009719F087
:102DA00081E08D8301C01D828D81882341F782E0FF
:102DB00090E062E370E040E024E030E000E00E9458
:102DC0004E1282E390E061E046E550E020E00E9490
:102DD000AA112AC082E090E062E370E041E00E9424
:102DE00072118AE10E947B2A009741F48BE10E94D4
:102DF0007B2A009719F421E02C8301C01C828C816E
:102E0000882391F082E090E062E370E040E024E00B
:102E100030E000E00E944E1282E390E061E04AE57B
:102E200050E020E00E94AA110E94A81091E089279A
:102E3000882381F607C081E090E062E370E041E022
:102E40000E94721185E30E947B2A1B82009711F079
:102E500081E08B832B81222371F782E090E062E393
:102E600070E040E02AE030E000E00E944E1282E391
:102E700090E060E044EB50E020E00E94AA1182E084
:102E800090E060E070E040E00E94721183E197E022
:102E900064E170E00E94F80360ED77E080E090E08C
:102EA0000E94B92782E090E062E370E040E029E10F
:102EB00030E000E00E944E1282E090E062E370E0B9
:102EC00041E02AE030E000E00E944E1282E090E013
:102ED00060E070E040E00E94721160E47FE180E019
:102EE00090E00E94B92782E090E060E070E040E06E
:102EF0000E94721168E273E280E090E00E94B927BC
:102F00002A960FB6F894DEBF0FBECDBFCF91DF91EA
:102F10000F910895DF93CF93CDB7DEB767970FB6C4
:102F2000F894DEBF0FBECDBF20913702309138023A
:102F300085E599E0B9014AE050E00E948334209190
:102F4000FD043091FE048091100790911107281B19
:102F5000390B85E599E0B9014AE050E00E949634CA
:102F600086E10E947B2A009779F087E10E947B2A04
:102F7000009751F088E10E947B2A009729F089E1AF
:102F80000E947B2A009719F421E02F8B01C01F8A31
:102F90008F89882339F082E090E090933802809303
:102FA00037023AC085E30E947B2A009719F186E137
:102FB0000E947B2A0097F1F087E10E947B2A00970C
:102FC000C9F088E10E947B2A0097A1F089E10E9464
:102FD0007B2A009779F084E30E947B2A009751F0C6
:102FE00080913702909138028230910519F441E0C6
:102FF0004E8B01C01E8A8E89882371F083E090E099
:1030000090933802809337028091FD049091FE04E2
:1030100090931107809310078091370290913802A6
:103020008330910589F48091FD049091FE042091F4
:10303000100730911107821B930B53E0893E9507CF
:103040001CF081E08D8B01C01D8A8D89882319F0C9
:103050000E948D151AC180913702909138028130FB
:10306000910531F08091370290913802009781F4F8
:103070008091FD049091FE0420911007309111077A
:10308000821B930B8A3191051CF091E09C8B01C04F
:103090001C8A8C89882309F4F8C0809137029091AA
:1030A00038028130910509F071C083E090E090937F
:1030B0003802809337028091FD049091FE04909332
:1030C0001107809310070E94A81080930F070EC06D
:1030D00082E390E060E00E94471182E390E061E0CB
:1030E0000E941C110E94A81080930F078091FD047C
:1030F0009091FE042091100730911107821B930BD1
:10310000863991055CF490910F0781E0982781E062
:103110008927882319F421E02B8B01C01B8A8B8916
:103120008823B1F68091FD049091FE0490931107DD
:10313000809310070EC082E390E061E00E94471187
:1031400082E390E060E00E941C110E94A81080932E
:103150000F078091FD049091FE042091100730919B
:103160001107821B930B863991055CF490910F0730
:1031700081E0982781E08927882319F441E04A8B70
:1031800001C01A8A8A898823B1F677C080913702F4
:1031900090913802009709F070C083E090E090931E
:1031A0003802809337028091FD049091FE04909341
:1031B0001107809310070E94A81080930F070EC07C
:1031C00082E390E061E00E94471182E390E060E0DA
:1031D0000E941C110E94A81080930F078091FD048B
:1031E0009091FE042091100730911107821B930BE0
:1031F000863991055CF490910F0781E0982781E072
:103200008927882319F451E0598B01C0198A8989CB
:103210008823B1F68091FD049091FE0490931107EC
:10322000809310070EC082E390E060E00E94471197
:1032300082E390E061E00E941C110E94A81080933C
:103240000F078091FD049091FE04209110073091AA
:103250001107821B930B863991055CF490910F073F
:1032600081E0982781E08927882319F481E0888B01
:1032700001C0188A88898823B1F68091FD04909155
:10328000FE04909311078093100784E30E947B2A29
:103290001F86009711F491E09F872F85222309F460
:1032A00045C085E30E947B2A009729F086E10E94B1
:1032B0007B2A009719F441E04E8701C01E868E8557
:1032C000882399F085E060E00E94482A84E06BE959
:1032D00070E00E94B52887E061E00E94482A86E0FD
:1032E0006FEF70E00E94B52812C085E060E00E9498
:1032F000482A84E06FEF70E00E94B52887E061E023
:103300000E94482A86E06FEF70E00E94B52881E0B5
:1033100090E090933802809337028091FD04909161
:10332000FE0490931107809310076FC185E30E94FC
:103330007B2A1D86009711F451E05D878D858823D7
:10334000F9F085E061E00E94482A84E06FEF70E0C8
:103350000E94B52887E060E00E94482A86E06FEF6F
:1033600070E00E94B52810923802109237028091C6
:10337000FD049091FE04909311078093100745C1BE
:103380001092FA041092F9041092FC041092FB04BB
:103390001A8219825EC089819A81880F991FFC0167
:1033A000E75CFD4F408151815C874B8789818A5E54
:1033B0000E947B2A1A861986009721F481E090E00A
:1033C0009A8789874B855C8589859A85489F900176
:1033D000499F300D589F300D11248091F904909130
:1033E000FA04820F931F9093FA048093F904898161
:1033F0009A810496880F991FFC01E75CFD4F40817C
:10340000518158874F8389818A5E0E947B2A1E8260
:103410001D82009721F481E090E09E838D834F818F
:1034200058858D819E81489F9001499F300D589FFE
:10343000300D11248091FB049091FC04820F931FA6
:103440009093FC048093FB0489819A8101969A836E
:10345000898389819A81843091050CF49CCF809175
:10346000F9049091FA04853691053CF084E690E0E9
:103470009093FA048093F9040EC08091F90490911E
:10348000FA042FEF8C39920734F48CE99FEF909374
:10349000FA048093F9048091FB049091FC04853632
:1034A00091053CF084E690E09093FC048093FB044B
:1034B0000EC08091FB049091FC044FEF8C3994076F
:1034C00034F48CE99FEF9093FC048093FB042091EB
:1034D000F9043091FA048091FB049091FC042817C0
:1034E000390799F485E061E00E94482A84E06BE99D
:1034F00070E00E94B52887E061E00E94482A86E0DB
:103500006BE970E00E94B52880C08091F904909129
:10351000FA041816190684F485E061E00E94482A2E
:103520008091F9049091FA049C0125563F4F84E064
:10353000B9010E94B52829C08091F9049091FA043C
:1035400099238CF485E060E00E94482A8091F90478
:103550009091FA042BE930E0281B390B84E0B90183
:103560000E94B52812C08091FB049091FC041C823B
:10357000992314F451E05C8385E06C810E94482A11
:1035800084E06AE070E00E94B5288091FB0490918D
:10359000FC041816190684F487E061E00E94482AAA
:1035A0008091FB049091FC049C0125563F4F86E0DE
:1035B000B9010E94B52829C08091FB049091FC04B8
:1035C00099238CF487E060E00E94482A8091FB04F4
:1035D0009091FC042BE930E0281B390B86E0B901FF
:1035E0000E94B52812C08091F9049091FA041B82C0
:1035F000992314F481E08B8387E06B810E94482A31
:1036000086E06AE070E00E94B52867960FB6F894ED
:10361000DEBF0FBECDBFCF91DF910895DF93CF9373
:10362000CDB7DEB729970FB6F894DEBF0FBECDBF7A
:103630008B836C835E834D832F831A8219828B81E7
:1036400060E00E94482A8B8161E00E94482A8C81B8
:1036500060E020E432E44FE050E00E94AB2ADC015D
:10366000CB019A838983ED81FE8181E0808389810A
:103670009A8123EC8135920718F0ED81FE8110824A
:103680008F81882329F089819A81998788870AC048
:1036900089819A8122E330E0B9010E944642CB0140
:1036A000998788878885998529960FB6F894DEBF13
:1036B0000FBECDBFCF91DF9108950F931F93DF937E
:1036C000CF93CDB7DEB760970FB6F894DEBF0FBECD
:1036D000CDBF8AE10E947B2A009729F08BE10E94EE
:1036E0007B2A009719F421E0288B01C0188A888969
:1036F000882309F4B4C182E090E062E370E041E025
:103700000E94721166E970E080E090E00E94B927A3
:103710008AE10E947B2A009741F48BE10E947B2A78
:10372000009719F081E08F8701C01F868F8588235D
:10373000E9F082E090E062E370E040E02AE030E00F
:1037400000E00E944E1282E390E060E044E150E02D
:1037500021E00E94AA1180911007909111078850D2
:103760009D4F909311078093100779C18AE10E94C1
:103770007B2A009741F08BE10E947B2A009719F485
:1037800021E02E8701C01E868E858823E9F082E025
:1037900090E062E370E040E02AE030E000E00E9468
:1037A0004E1282E390E061E044E150E021E00E94AB
:1037B000AA11809110079091110788509D4F909306
:1037C0001107809310074BC18AE10E947B2A009762
:1037D00041F48BE10E947B2A009719F481E08D87E8
:1037E00001C01D868D85882309F439C182E090E0EF
:1037F00060E070E040E00E9472111F82209101059C
:103800003091020587E268E2A90121E00E940E1BC7
:103810008C01209101053091020585E266E2A90143
:1038200021E00E940E1B1C868017910710F421E0F6
:103830002C878C85882311F081E08F8382E090E0D3
:1038400062E370E040E024E030E000E00E944E12CD
:1038500082E390E06F8147E350E020E00E94AA11EC
:103860008091FD049091FE049C838B838091FF04E2
:10387000909100059A838983B1C08AE10E947B2AD6
:10388000009729F08BE10E947B2A009719F421E030
:103890002A8701C01A868A85882309F453C082E0EA
:1038A00090E062E370E040E022E030E000E00E945F
:1038B0004E1282E390E06F8147E050E020E00E94EA
:1038C000AA118F81882339F08B819C8180569F4F6C
:1038D0009C838B8306C089819A8180569F4F9A83EF
:1038E00089838F81882371F08091FD049091FE047B
:1038F0002B813C81821B930B1986992384F481E0F0
:1039000089870DC08091FF049091000529813A813B
:10391000821B930B1986992314F421E0298789854A
:10392000882381F08F81882339F08091FD04909164
:10393000FE049C838B8306C08091FF049091000558
:103940009A8389839F8181E08927882F90E00E9454
:1039500048159E838D838D819E8121E08C32920754
:1039600091F49F8181E08927882F90E06BE470E0DB
:1039700040E00E9472118F81882F90E064E670E031
:1039800041E00E9472119F8181E08927882F90E099
:103990000E944815188621E08C32920714F481E0C9
:1039A00088872885222341F082E090E062E370E07E
:1039B00041E00E94721112C09F8181E08927882F07
:1039C00090E062E370E040E00E9472118F81882FE6
:1039D00090E064E670E041E00E9472118F818823DC
:1039E00061F08091FD049091FE042B813C81821B4B
:1039F000930B843B910594F00BC08091FF04909150
:103A0000000529813A81821B930B843B910534F098
:103A10000E94A81091E08927882319F081E08B8704
:103A200001C01B868B85882309F027CF82E090E0B8
:103A300060E070E040E00E94721182E090E062E39A
:103A400070E041E02AE030E000E00E944E1282E3A4
:103A500090E06F814EE150E020E00E94AA11609654
:103A60000FB6F894DEBF0FBECDBFCF91DF911F918F
:103A70000F910895DF93CF930F920F92CDB7DEB7DA
:103A80009A83898389819A81892F990F990B282F8D
:103A900085E599E0622F0E94F72F298185E599E05D
:103AA000622F0E94F72F85E599E00E94C8320F909F
:103AB0000F90CF91DF910895DF93CF93CDB7DEB70D
:103AC0000E941C280E94231085E599E061E070E0C7
:103AD0004AE050E00E94833423E037E083E590E041
:103AE000B9010E94700F80910507909106070E940E
:103AF0003A1D80910707909108070E943A1D809116
:103B0000090790910A070E943A1DE6CFEF92FF92B3
:103B10000F931F937B018C0120E030E040E05FE4D5
:103B20000E94322188238CF0C801B70120E030E0E8
:103B300040E05FE40E94FE1E0E944B229B01AC010C
:103B4000205030404040504806C0C801B7010E9494
:103B50004B229B01AC01B901CA011F910F91FF904B
:103B6000EF900895A0E0B0E0E8EBFDE10C949742FF
:103B7000DC012B01FA019C91923008F439C1EB0170
:103B80008881823008F433C1943069F4843009F0BC
:103B90002FC111969C9111978981981709F428C11A
:103BA000A8E5B2E025C1843009F421C18230A9F42E
:103BB000923009F01DC19A01AD0188E0EA01099037
:103BC000AE01E90109929E018150C1F7E2018981AC
:103BD00011969C918923818308C1923009F407C111
:103BE00012962D903C901397EB018A819B8114963D
:103BF000AD90BD90CD90DC901797EC80FD800E814C
:103C00001F819101281B390BB90137FF04C06627BA
:103C10007727621B730B603271050CF061C01216BE
:103C200013066CF537014801062E04C0969487945C
:103C3000779467940A94D2F721E030E040E050E0B6
:103C400004C0220F331F441F551F6A95D2F721501D
:103C50003040404050402E213F2140235123211528
:103C600031054105510521F021E030E040E050E010
:103C700079018A01E628F728082919293CC0232B55
:103C8000D1F1260E371E35014601062E04C096944A
:103C90008794779467940A94D2F721E030E040E06B
:103CA00050E004C0220F331F441F551F6A95D2F7FE
:103CB00021503040404050402A213B214C215D2181
:103CC000211531054105510521F021E030E040E0AA
:103CD00050E059016A01A628B728C828D9280BC086
:103CE000821593052CF01C01AA24BB24650103C096
:103CF000EE24FF24870111969C91D20111968C919C
:103D0000981709F445C0992339F0A80197012A1999
:103D10003B094C095D0906C0A60195012E193F0912
:103D2000400B510B57FD08C011823382228224833D
:103D30003583468357831DC081E08183338222828D
:103D400088279927DC01821B930BA40BB50B848376
:103D50009583A683B7830DC0220F331F441F551FC1
:103D6000248335834683578382819381019793838C
:103D700082832481358146815781DA01C901019707
:103D8000A109B1098F5F9F4FAF4FBF4328F30BC00D
:103D9000918333822282EA0CFB1C0C1D1D1DE482E0
:103DA000F5820683178383E08083248135814681F1
:103DB000578157FF1AC0C901AA2797FDA095BA2FAE
:103DC00081709070A070B070569547953795279583
:103DD000822B932BA42BB52B84839583A683B78347
:103DE00082819381019693838283DF0101C0D20196
:103DF000CD01CDB7DEB7E2E10C94B342A0E2B0E072
:103E0000E4E0FFE10C94A34269837A838B839C8373
:103E10002D833E834F835887E9E0EE2EF12CEC0E84
:103E2000FD1ECE010196B7010E943C248E010F5E5B
:103E30001F4FCE010596B8010E943C248A8991E06B
:103E400089278A8BC701B801AE01475E5F4F0E9488
:103E5000B21D0E946723A096E6E00C94BF42A0E248
:103E6000B0E0E5E3FFE10C94A34269837A838B839E
:103E70009C832D833E834F835887F9E0EF2EF12CEE
:103E8000EC0EFD1ECE010196B7010E943C248E016E
:103E90000F5E1F4FCE010596B8010E943C24C7015A
:103EA000B801AE01475E5F4F0E94B21D0E946723BA
:103EB000A096E6E00C94BF42A0E2B0E0E2E6FFE1AB
:103EC0000C94974269837A838B839C832D833E83F2
:103ED0004F835887CE010196BE01675F7F4F0E94D6
:103EE0003C24CE010596BE016F5E7F4F0E943C24AC
:103EF0009985923088F089898230C8F0943019F41D
:103F0000823051F404C0843029F4923081F488E581
:103F100092E0C6C0923049F420E09A858A899813CD
:103F200021E02A87CE010996BBC0823049F420E007
:103F30009A858A89981321E02A8BCE014196B0C0D8
:103F40002D843E844F8458886D887E888F88988C15
:103F5000EE24FF248701AA24BB24650140E050E041
:103F600060E070E0E0E0F0E0C10181709070892BCA
:103F7000E9F0E60CF71C081D191D9A01AB012A0D8A
:103F80003B1D4C1D5D1D80E090E0A0E0B0E0E6141C
:103F9000F7040805190520F481E090E0A0E0B0E006
:103FA000BA01A901480F591F6A1F7B1FAA0CBB1C2D
:103FB000CC1CDD1C97FE08C081E090E0A0E0B0E0E2
:103FC000A82AB92ACA2ADB2A3196E032F10549F03B
:103FD000660C771C881C991C569447943794279438
:103FE000C3CFFA85EA892B893C898B859C85280F6C
:103FF000391F2E5F3F4F17C0CA0181709070892B07
:1040000061F016950795F794E79480E090E0A0E0C2
:10401000B0E8E82AF92A0A2B1B2B76956795579565
:1040200047952F5F3F4F77FDE7CF0CC0440F551FDB
:10403000661F771F17FD4160EE0CFF1C001F111F4C
:1040400021503040403090E0590790E0690790E4FB
:10405000790760F32B8F3C8FDB01CA018F7790705B
:10406000A070B07080349105A105B10561F447FDE1
:104070000AC0E114F1040105110529F0405C5F4F0D
:104080006F4F7F4F40781A8EFE1711F081E08A8FB4
:104090004D8F5E8F6F8F78A383E0898FCE01499615
:1040A0000E946723A096E2E10C94B342A8E1B0E03D
:1040B000ECE5F0E20C949F4269837A838B839C83C6
:1040C0002D833E834F835887B9E0EB2EF12CEC0E05
:1040D000FD1ECE010196B7010E943C248E010F5EA9
:1040E0001F4FCE010596B8010E943C24298522303D
:1040F00008F47EC03989323010F4B8017CC08A855A
:104100009A8989278A87243011F0223031F42317C5
:1041100009F06EC068E572E06EC0343039F41D8677
:104120001E861F86188A1C861B8604C0323021F426
:1041300084E08987B7015FC02B853C858B899C898A
:10414000281B390B3C872B87ED84FE840F8518894B
:10415000AD88BE88CF88D88CEA14FB040C051D05F9
:1041600040F4EE0CFF1C001F111F215030403C8713
:104170002B8720E030E040E050E080E090E0A0E0DD
:10418000B0E460E070E0EA14FB040C051D0540F0AB
:10419000282B392B4A2B5B2BEA18FB080C091D092D
:1041A000B695A79597958795EE0CFF1C001F111FDC
:1041B0006F5F7F4F6F31710531F7DA01C9018F777A
:1041C0009070A070B07080349105A105B10561F4C4
:1041D00027FD0AC0E114F1040105110529F0205C56
:1041E0003F4F4F4F5F4F20782D873E874F87588B2B
:1041F000BE01675F7F4FCB010E9467236896EAE0AC
:104200000C94BB42A8E1B0E0E8E0F1E20C94A342D8
:1042100069837A838B839C832D833E834F83588766
:1042200089E0E82EF12CEC0EFD1ECE010196B701BF
:104230000E943C248E010F5E1F4FCE010596B801EF
:104240000E943C248985823040F08989823028F0A0
:10425000C701B8010E94B42401C08FEF6896E6E060
:104260000C94BF42A8E1B0E0E8E3F1E20C94A34271
:1042700069837A838B839C832D833E834F83588706
:1042800089E0E82EF12CEC0EFD1ECE010196B7015F
:104290000E943C248E010F5E1F4FCE010596B8018F
:1042A0000E943C248985823040F08989823028F040
:1042B000C701B8010E94B42401C08FEF6896E6E000
:1042C0000C94BF42A8E1B0E0E8E6F1E20C94A3420E
:1042D00069837A838B839C832D833E834F835887A6
:1042E00089E0E82EF12CEC0EFD1ECE010196B701FF
:1042F0000E943C248E010F5E1F4FCE010596B8012F
:104300000E943C248985823040F08989823028F0DF
:10431000C701B8010E94B42401C081E06896E6E0BC
:104320000C94BF42A8E1B0E0E8E9F1E20C94A342AA
:1043300069837A838B839C832D833E834F83588745
:1043400089E0E82EF12CEC0EFD1ECE010196B7019E
:104350000E943C248E010F5E1F4FCE010596B801CE
:104360000E943C248985823040F08989823028F07F
:10437000C701B8010E94B42401C081E06896E6E05C
:104380000C94BF42A8E1B0E0E8ECF1E20C94A74243
:1043900069837A838B839C832D833E834F835887E5
:1043A000CE010196BE01675F7F4F0E943C24CE0183
:1043B0000596BE016F5E7F4F0E943C248985823046
:1043C00028F020E030E08989823010F421E030E0EC
:1043D000822F6896E2E00C94C342A8E0B0E0E3EFDD
:1043E000F1E20C94A0429B01AC0183E08983DA01E5
:1043F000C9018827B7FD83959927AA27BB27B82E1F
:10440000211531054105510519F482E089833AC02F
:104410008823A9F0203080E0380780E0480780E852
:10442000580729F460E070E080E09FEC30C0EE2493
:10443000FF248701E21AF30A040B150B02C079016D
:104440008A018EE1C82ED12CDC82CB82ED82FE82E5
:104450000F831887C801B7010E9418230197181607
:10446000190684F4082E04C0EE0CFF1C001F111F57
:104470000A94D2F7ED82FE820F831887C81AD90AF0
:10448000DC82CB82BA82CE0101960E9467232896F5
:10449000E9E00C94BC42ACE0B0E0E1E5F2E20C945F
:1044A000A74269837A838B839C83CE010196BE01E8
:1044B0006B5F7F4F0E943C248D81823061F182309E
:1044C00050F1843021F48E81882351F12EC02F8148
:1044D000388537FD20C06E812F3131051CF06623F1
:1044E000F9F023C08EE190E0821B930B29853A8579
:1044F0004B855C8504C056954795379527958A95D9
:10450000D2F76623B1F050954095309521953F4FF5
:104510004F4F5F4F0EC020E030E040E050E009C058
:104520002FEF3FEF4FEF5FE704C020E030E040E0C7
:1045300050E8B901CA012C96E2E00C94C342A8E00D
:10454000B0E0E5EAF2E20C949F427B018C01611538
:1045500071058105910519F482E0898360C083E0CB
:1045600089838EE1C82ED12CDC82CB82ED82FE8243
:104570000F831887C801B7010E941823FC013197E7
:10458000F7FF3BC0222733272E1B3F0B5701680143
:10459000022E04C0D694C794B794A7940A94D2F775
:1045A00040E050E060E070E081E090E0A0E0B0E04A
:1045B00004C0880F991FAA1FBB1F2A95D2F7019725
:1045C000A109B1098E219F21A023B1230097A10544
:1045D000B10521F041E050E060E070E04A295B293C
:1045E0006C297D294D835E836F8378878EE190E00F
:1045F0008E1B9F0B9C838B8312C0309781F00E2EF5
:1046000004C0EE0CFF1C001F111F0A94D2F7ED82AC
:10461000FE820F831887CE1ADF0ADC82CB821A82D1
:10462000CE0101960E9467232896EAE00C94BB42D3
:10463000EF92FF920F931F937B018C0180E0E816AD
:1046400080E0F80681E0080780E0180788F48FEF23
:10465000E816F1040105110531F028F088E090E03A
:10466000A0E0B0E017C080E090E0A0E0B0E012C0B1
:1046700080E0E81680E0F80680E0080781E018078F
:1046800028F088E190E0A0E0B0E004C080E190E094
:10469000A0E0B0E020E230E040E050E0281B390B21
:1046A0004A0B5B0B04C016950795F794E7948A951F
:1046B000D2F7F701E05AFD4F8081281B31094109EB
:1046C0005109C9011F910F91FF90EF900895DF925A
:1046D000EF92FF920F931F93FC01E480F580068117
:1046E0001781D1808081823048F480E090E0A0E1A1
:1046F000B0E0E82AF92A0A2B1B2BA5C0843009F464
:104700009FC0823021F4EE24FF24870105C0E1140C
:10471000F1040105110519F4E0E0F0E096C06281B2
:1047200073819FEF623879070CF05BC022E83FEF9E
:10473000261B370B2A3131052CF020E030E040E019
:1047400050E02AC0B801A701022E04C076956795F3
:10475000579547950A94D2F781E090E0A0E0B0E049
:1047600004C0880F991FAA1FBB1F2A95D2F7019773
:10477000A109B1098E219F21A023B1230097A10592
:10478000B10521F081E090E0A0E0B0E09A01AB013A
:10479000282B392B4A2B5B2BDA01C9018F779070BC
:1047A000A070B07080349105A105B10539F427FFE0
:1047B00009C0205C3F4F4F4F5F4F04C0215C3F4F0B
:1047C0004F4F5F4FE0E0F0E02030A0E03A07A0E07C
:1047D0004A07A0E45A0710F0E1E0F0E079018A010D
:1047E00027C06038710564F5FB01E158FF4FD8011F
:1047F000C7018F779070A070B07080349105A105CB
:10480000B10539F4E7FE0DC080E490E0A0E0B0E02F
:1048100004C08FE390E0A0E0B0E0E80EF91E0A1FAC
:104820001B1F17FF05C016950795F794E79431965F
:1048300087E016950795F794E7948A95D1F705C018
:10484000EE24FF248701EFEFF0E06E2F67956627D7
:104850006795902F9F77D794DD24D7948E2F8695D8
:10486000492F462B582F5D29B701CA011F910F917F
:10487000FF90EF90DF900895FC01DB0140815181B2
:104880002281622F6F7770E0221F2227221F9381DF
:10489000892F880F822B282F30E0991F9927991F85
:1048A00011969C93119721153105A9F541155105D4
:1048B0006105710511F482E037C082E89FEF13961D
:1048C0009C938E9312979A01AB0167E0220F331FDE
:1048D000441F551F6A95D1F783E08C930DC0220FBA
:1048E000331F441F551F12968D919C91139701976A
:1048F00013969C938E931297203080E0380780E0C7
:10490000480780E4580758F314962D933D934D9330
:104910005C93179708952F3F310579F441155105A0
:104920006105710519F484E08C93089564FF03C058
:1049300081E08C9312C01C9210C02F573040139608
:104940003C932E93129783E08C9387E0440F551F7E
:10495000661F771F8A95D1F7706414964D935D9307
:104960006D937C93179708951F93DC01FB019C9135
:10497000923008F447C08081823008F443C09430FC
:1049800051F411961C91843099F58181682F70E063
:10499000611B71093FC0843021F0923031F48230C4
:1049A000B9F18181882389F12DC011961C9111974D
:1049B0008230F1F081811817D9F412962D913C9133
:1049C0001397828193818217930794F028173907F0
:1049D000BCF014968D919D910D90BC91A02D2481D9
:1049E000358146815781281739074A075B0718F434
:1049F000112341F00AC082179307A407B50740F4BA
:104A0000112319F061E070E005C06FEF7FEF02C085
:104A100060E070E0CB011F910895883008F078C005
:104A2000E82FF0E0EE0FFF1FE45EF84F7183608324
:104A30008330D9F0843030F4813009F444C08230BE
:104A400060F439C0853051F18530D8F0863009F4F2
:104A500046C0873009F05CC04FC0809169008C7FF0
:104A6000842B80936900E89A089580916900440F2F
:104A7000551F440F551F837F842B80936900E99A4B
:104A800008958091690074E0440F551F7A95E1F70D
:104A90008F7C842B80936900EA9A08958091690045
:104AA00066E0440F551F6A95E1F78F73842B80935E
:104AB0006900EB9A089580916A008C7F842B809323
:104AC0006A00EC9A089580916A00440F551F440FC4
:104AD000551F837F842B80936A00ED9A08958091FF
:104AE0006A0024E0440F551F2A95E1F78F7C842B40
:104AF00080936A00EE9A089580916A0096E0440FD0
:104B0000551F9A95E1F78F73842B80936A00EF9A73
:104B10000895883048F5833091F0843028F481304E
:104B2000B1F0823050F411C0853069F0853048F022
:104B3000863079F0873081F40EC0E8980DC0E9988E
:104B40000BC0EA9809C0EB9807C0EC9805C0ED9837
:104B500003C0EE9801C0EF98E82FF0E0EE0FFF1FC2
:104B6000E45EF84F1182108208951F920F920FB6E3
:104B70000F920BB60F9211242F933F934F935F9395
:104B80006F937F938F939F93AF93BF93EF93FF9315
:104B90008091200790912107892B29F0E09120072F
:104BA000F09121071995FF91EF91BF91AF919F91DE
:104BB0008F917F916F915F914F913F912F910F90C6
:104BC0000BBE0F900FBE0F901F9018951F920F9263
:104BD0000FB60F920BB60F9211242F933F934F9362
:104BE0005F936F937F938F939F93AF93BF93EF9355
:104BF000FF938091220790912307892B29F0E09160
:104C00002207F09123071995FF91EF91BF91AF9182
:104C10009F918F917F916F915F914F913F912F91D4
:104C20000F900BBE0F900FBE0F901F9018951F9204
:104C30000F920FB60F920BB60F9211242F933F9342
:104C40004F935F936F937F938F939F93AF93BF9394
:104C5000EF93FF938091240790912507892B29F0EA
:104C6000E0912407F09125071995FF91EF91BF91ED
:104C7000AF919F918F917F916F915F914F913F91F4
:104C80002F910F900BBE0F900FBE0F901F90189595
:104C90001F920F920FB60F920BB60F9211242F9303
:104CA0003F934F935F936F937F938F939F93AF93B4
:104CB000BF93EF93FF938091260790912707892B4D
:104CC00029F0E0912607F09127071995FF91EF91C0
:104CD000BF91AF919F918F917F916F915F914F9114
:104CE0003F912F910F900BBE0F900FBE0F901F9012
:104CF00018951F920F920FB60F920BB60F921124B8
:104D00002F933F934F935F936F937F938F939F93D3
:104D1000AF93BF93EF93FF9380911C0790911D0772
:104D2000892B29F0E0911C07F0911D071995FF913F
:104D3000EF91BF91AF919F918F917F916F915F9113
:104D40004F913F912F910F900BBE0F900FBE0F9080
:104D50001F9018951F920F920FB60F920BB60F92DD
:104D600011242F933F934F935F936F937F938F9370
:104D70009F93AF93BF93EF93FF9380911E07909102
:104D80001F07892B29F0E0911E07F0911F07199545
:104D9000FF91EF91BF91AF919F918F917F916F9113
:104DA0005F914F913F912F910F900BBE0F900FBECF
:104DB0000F901F9018951F920F920FB60F920BB67F
:104DC0000F9211242F933F934F935F936F937F9391
:104DD0008F939F93AF93BF93EF93FF938091280797
:104DE00090912907892B29F0E0912807F091290754
:104DF0001995FF91EF91BF91AF919F918F917F9105
:104E00006F915F914F913F912F910F900BBE0F903B
:104E10000FBE0F901F9018951F920F920FB60F9212
:104E20000BB60F9211242F933F934F935F936F9381
:104E30007F938F939F93AF93BF93EF93FF93809153
:104E40002A0790912B07892B29F0E0912A07F091EE
:104E50002B071995FF91EF91BF91AF919F918F9182
:104E60007F916F915F914F913F912F910F900BBE6A
:104E70000F900FBE0F901F9018951F920F920FB6B4
:104E80000F9211242F933F938F939F93AF93BF93D0
:104E90008091300790913107A0913207B09133078C
:104EA000309134070196A11DB11D232F2D5F2D37A1
:104EB00020F02D570196A11DB11D2093340780933A
:104EC000300790933107A0933207B0933307809156
:104ED0002C0790912D07A0912E07B0912F070196D6
:104EE000A11DB11D80932C0790932D07A0932E0731
:104EF000B0932F07BF91AF919F918F913F912F91C9
:104F00000F900FBE0F901F9018958FB7F8942091B7
:104F100030073091310740913207509133078FBFEE
:104F2000B901CA0108959FB7F89420912C073091D8
:104F30002D0740912E0750912F0786B5A89B06C0DC
:104F40008F3F21F02F5F3F4F4F4F5F4F9FBF542F39
:104F5000432F322F2227280F311D411D511D82E082
:104F6000220F331F441F551F8A95D1F7B901CA017B
:104F700008959B01AC017FB7F89480912C07909124
:104F80002D07A0912E07B0912F0766B5A89B05C0ED
:104F90006F3F19F00196A11DB11D7FBFBA2FA92F38
:104FA000982F8827860F911DA11DB11D62E0880FE3
:104FB000991FAA1FBB1F6A95D1F7BC012DC0FFB76F
:104FC000F89480912C0790912D07A0912E07B09115
:104FD0002F07E6B5A89B05C0EF3F19F00196A11D6C
:104FE000B11DFFBFBA2FA92F982F88278E0F911DB3
:104FF000A11DB11DE2E0880F991FAA1FBB1FEA95F2
:10500000D1F7861B970B885E9340C8F22150304041
:105010004040504068517C4F2115310541055105F4
:1050200071F60895019739F0880F991F880F991F1D
:1050300002970197F1F70895789484B5826084BD52
:1050400084B5816084BD85B5826085BD85B581608C
:1050500085BDEEE6F0E0808181608083E1E8F0E0EC
:105060001082808182608083808181608083E0E81B
:10507000F0E0808181608083E1EBF0E080818460FA
:105080008083E0EBF0E0808181608083E1E9F0E003
:10509000808182608083808181608083E0E9F0E0AC
:1050A000808181608083E1EAF0E08081826080839A
:1050B000808181608083E0EAF0E08081816080838C
:1050C000E1E2F1E080818260808380818160808381
:1050D000E0E2F1E0808181608083EAE7F0E08081B6
:1050E000846080838081826080838081816080830E
:1050F0008081806880831092C1000895809364034A
:105100000895382F863308F0365320917B00832F83
:1051100086958695869590E08170907043E0880F23
:10512000991F4A95E1F7277F282B20937B00377042
:10513000809164038295880F880F807C832B8093F5
:105140007C0080917A00806480937A0080917A005C
:1051500086FDFCCF2091780040917900942F80E06B
:1051600030E0282B392BC90108951F93CF93DF938B
:10517000182FEB0161E00E949529209709F4CAC01D
:10518000CF3FD10509F4C9C0E12FF0E0E254FE4F52
:105190008491893009F466C08A30B0F48430F1F12A
:1051A000853040F4823059F1833070F5813009F058
:1051B000AEC020C0873009F443C0883008F048C032
:1051C000863009F0A4C034C08D3009F478C08E3028
:1051D00038F48B3009F45AC08C3008F066C04CC0EB
:1051E000803109F480C0813109F487C08F3009F023
:1051F0008EC06FC084B5806884BDC7BD92C084B5C1
:10520000806284BDC8BD8DC080918000806880931D
:105210008000D0938900C093880083C08091800073
:10522000806280938000D0938B00C0938A0079C005
:105230008091B00080688093B000C093B30071C0CB
:105240008091B00080628093B000C093B40069C0C8
:1052500080919000806880939000D0939900C093D3
:1052600098005FC080919000806280939000D093FE
:105270009B00C0939A0055C08091900088608093F5
:105280009000D0939D00C0939C004BC08091A000E3
:1052900080688093A0008091A0008F7B8093A00005
:1052A000D093A900C093A8003CC08091A000806268
:1052B0008093A000D093AB00C093AA0032C080912D
:1052C000A00088608093A000D093AD00C093AC0094
:1052D00028C080912001806880932001D09329010B
:1052E000C09328011EC0809120018062809320011C
:1052F000D0932B01C0932A0114C0809120018860B3
:1053000080932001D0932D01C0932C010AC0C03896
:10531000D1051CF4812F60E002C0812F61E00E9462
:10532000482ADF91CF911F910895CF93DF93482FA3
:1053300050E0CA0188589E4FFC0134914E5C5E4F8C
:10534000FA018491882369F190E0880F991FFC018C
:10535000EC51FF4FA591B491FC01E250FF4FC59174
:10536000D491662351F42FB7F8948C91932F909594
:1053700089238C93888189230BC0623061F42FB715
:10538000F8948C91932F909589238C938881832B0B
:1053900088832FBF06C09FB7F8948C91832B8C9382
:1053A0009FBFDF91CF910895893009F449C08A30B9
:1053B000A0F4843051F1853040F4823079F18330AB
:1053C00000F5813009F063C026C0873079F188305C
:1053D00098F5863009F05BC025C08D3009F442C0D5
:1053E0008E3028F48B30B1F18C30C0F52DC0803177
:1053F00009F442C0813109F445C08F3009F047C03B
:1054000037C0809180008F7703C0809180008F7DAE
:1054100080938000089584B58F7702C084B58F7D16
:1054200084BD08958091B0008F7703C08091B00053
:105430008F7D8093B0000895809190008F7707C092
:10544000809190008F7D03C080919000877F809332
:10545000900008958091A0008F7707C08091A000F0
:105460008F7D03C08091A000877F8093A000089566
:10547000809120018F7703C0809120018F7D8093E0
:105480002001089580912001877F80932001089555
:10549000FF920F931F93F62E482F50E0CA018254BB
:1054A0009E4FFC012491CA0188589E4FFC01149123
:1054B0004E5C5E4FFA0104910023C9F0222319F0DB
:1054C000822F0E94D429E02FF0E0EE0FFF1FE25060
:1054D000FF4FA591B4919FB7F894FF2021F48C91D0
:1054E0001095812302C08C91812B8C939FBF1F91BB
:1054F0000F91FF9008950F931F93482F50E0CA011A
:1055000082549E4FFC012491CA0188589E4FFC0191
:1055100004914E5C5E4FFA011491112319F420E0BE
:1055200030E015C0222319F0822F0E94D429812F48
:1055300090E0880F991F885E9E4FFC01A591B49161
:105540008C9120E030E0802311F021E030E0C901AF
:105550001F910F9108958F929F92AF92BF92CF9219
:10556000DF92EF92FF920F931F93CF93DF93A82FB9
:10557000B0E0CD0188589E4FFC018490AE5CBE4FD8
:10558000FD018491662311F4992401C0982C6FEFDA
:10559000A62E6FEFB62E6FEFC62E6FE0D62EA2228C
:1055A000B322C422D522682F70E0660F771F685E91
:1055B0007E4FEE24FF248701FB01A591B4910BC01F
:1055C000EA14FB040C051D0509F44EC00894E11C07
:1055D000F11C011D111D8C918821891589F30CC0C6
:1055E000EA14FB040C051D0509F43EC00894E11CF7
:1055F000F11C011D111D03C0FB01A591B4918C91FB
:105600008821891569F720E030E040E050E0FB0197
:10561000C591D4910FC0DA01C9018E0D9F1DA01F45
:10562000B11F8A159B05AC05BD05F1F02F5F3F4FFB
:105630004F4F5F4F88818821891569F3CA01B901ED
:1056400025E130E040E050E00E941B429B01AC01AC
:10565000205F3F4F4F4F5F4F84E0569547953795FA
:1056600027958A95D1F704C020E030E040E050E073
:10567000B901CA01DF91CF911F910F91FF90EF9077
:10568000DF90CF90BF90AF909F908F900895089536
:105690001F920F920FB60F920BB60F9211242F93F9
:1056A0003F934F938F939F93EF93FF938091C0000D
:1056B00082FD1DC04091C60020917507309176078C
:1056C0002F5F3F4F2F73307080917707909178074D
:1056D0002817390771F0E0917507F0917607EB5CB8
:1056E000F84F4083309376072093750702C080916E
:1056F000C600FF91EF919F918F914F913F912F9114
:105700000F900BBE0F900FBE0F901F90189508952D
:105710001F920F920FB60F920BB60F9211242F9378
:105720003F934F938F939F93EF93FF938091C80084
:1057300082FD1DC04091CE002091FD073091FE07F3
:105740002F5F3F4F2F7330708091FF0790910008BB
:105750002817390771F0E091FD07F091FE07E35437
:10576000F84F40833093FE072093FD0702C08091DD
:10577000CE00FF91EF919F918F914F913F912F918B
:105780000F900BBE0F900FBE0F901F9018950895AD
:105790001F920F920FB60F920BB60F9211242F93F8
:1057A0003F934F938F939F93EF93FF938091D000FC
:1057B00082FD1DC04091D600209185083091860859
:1057C0002F5F3F4F2F73307080918708909188082A
:1057D0002817390771F0E0918508F0918608EB5B96
:1057E000F74F4083309386082093850802C080914C
:1057F000D600FF91EF919F918F914F913F912F9103
:105800000F900BBE0F900FBE0F901F90189508952C
:105810001F920F920FB60F920BB60F9211242F9377
:105820003F934F938F939F93EF93FF93809130011A
:1058300082FD1DC04091360120910D0930910E0965
:105840002F5F3F4F2F73307080910F099091100997
:105850002817390771F0E0910D09F0910E09E35313
:10586000F74F408330930E0920930D0902C08091B9
:105870003601FF91EF919F918F914F913F912F9121
:105880000F900BBE0F900FBE0F901F901895E091D8
:105890006109F0916209E05CFF4F81919191208153
:1058A0003181821B930B8F739070892B11F00E94B2
:1058B000472BE0918309F0918409E05CFF4F8191CF
:1058C000919120813181821B930B8F739070892B72
:1058D00011F00E94872BE091A509F091A609E05CE8
:1058E000FF4F8191919120813181821B930B8F73A6
:1058F0009070892B11F00E94C72BE091C709F0919D
:10590000C809E05CFF4F8191919120813181821B18
:10591000930B8F739070892B11F00E94072C0895C0
:105920001F920F920FB60F920BB60F9211242F9366
:105930003F938F939F93EF93FF932091B9073091FB
:10594000BA078091BB079091BC072817390731F43B
:105950008091C1008F7D8093C10014C0E091BB078E
:10596000F091BC07E758F84F20818091BB079091D8
:10597000BC0701968F7390709093BC078093BB0710
:105980002093C600FF91EF919F918F913F912F91AE
:105990000F900BBE0F900FBE0F901F9018951F9287
:1059A0000F920FB60F920BB60F9211242F933F93C5
:1059B0008F939F93EF93FF9320914108309142087A
:1059C00080914308909144082817390731F4809159
:1059D000C9008F7D8093C90014C0E0914308F09105
:1059E0004408EF5FF74F208180914308909144086D
:1059F00001968F739070909344088093430820938E
:105A0000CE00FF91EF919F918F913F912F910F9039
:105A10000BBE0F900FBE0F901F9018951F920F9204
:105A20000FB60F920BB60F9211242F933F938F93C3
:105A30009F93EF93FF932091C9083091CA088091FA
:105A4000CB089091CC082817390731F48091D10008
:105A50008F7D8093D10014C0E091CB08F091CC08E9
:105A6000E757F74F20818091CB089091CC080196A1
:105A70008F7390709093CC088093CB082093D600BE
:105A8000FF91EF919F918F913F912F910F900BBEBE
:105A90000F900FBE0F901F9018951F920F920FB688
:105AA0000F920BB60F9211242F933F938F939F93D6
:105AB000EF93FF932091510930915209809153093E
:105AC000909154092817390731F4809131018F7D65
:105AD0008093310114C0E0915309F0915409EF5EB5
