:100000000C9406010C94541A0C94851A0C94B61A8C
:100010000C94E71A0C94181B0C94491B0C947A1B33
:100020000C94AB1B0C9432010C9432010C943201F1
:100030000C9432010C9432010C9432010C94320174
:100040000C9432010C9432010C9432010C94320164
:100050000C9432010C9432010C9432010C94DC1B90
:100060000C9432010C94E71F0C942F210C94320154
:100070000C9432010C9432010C9432010C94320134
:100080000C9432010C9432010C9432010C94320124
:100090000C9427200C946E210C9432010C941203C2
:1000A0000C9432010C9432010C9432010C94320104
:1000B0000C9432010C9432010C9432010C943201F4
:1000C0000C9432010C9432010C9432010C94672090
:1000D0000C94AD210C9432010C94A7200C94EC21CB
:1000E0000C94320100002100240027002A002D007A
:1000F0003000330001010000040107010A01000083
:100100002200250028002B002E00310034000201BF
:100110000000050108010B0100002000230026005B
:1001200029002C002F00320000010000030106010D
:10013000090105050505070508080808020202026D
:100140000A0A080804040404010101010101010173
:100150000303030303030303040707070C0C0C0C3E
:100160000C0C0C0C02020202060606060606060627
:100170000B0B0B0B0B0B0B0B0102102020080810B4
:100180002040102040800201020108040201010207
:1001900004081020408080402010080402018004E0
:1001A000020180402010080402010804020101023B
:1001B0000408102040800102040810204080000044
:1001C000090A02080B0C0D070603040100000000D9
:1001D000000000000000000000000000000000001F
:1001E0000000000000000000000011100F000000DF
:1001F00000000000000000000000000000000000FF
:1002000000000000F406FC08D824262611241FBE96
:10021000CFEFD1E2DEBFCDBF00E00CBF13E0A0E026
:10022000B2E0E2E6F0E700E00BBF02C007900D92FB
:10023000AC39B107D9F719E0ACE9B3E001C01D92C0
:10024000AB34B107E1F712E0CCE0D2E004C0229772
:10025000FE010E94AF36C430D107C9F70E945F107B
:100260000C942F380C940000DF93CF93CDB7DEB7FA
:1002700010929C0381E080939E0310929F038091D3
:10028000040261E00E94E71E8091050261E00E9485
:10029000E71EA9EBB0E0E9EBF0E080818E7F8C9364
:1002A000A9EBB0E0E9EBF0E080818D7F8C93E8EB87
:1002B000F0E088E48083ECEBF0E085E48083CF918C
:1002C000DF910895DF93CF930F92CDB7DEB7898387
:1002D000EAEBF0E08981880F80830F90CF91DF9166
:1002E0000895DF93CF93CDB7DEB727970FB6F89475
:1002F000DEBF0FBECDBF8A837C836B834D832E838D
:100300008D81813210F01F825CC080919C03882314
:10031000E1F781E080939C038E8180939E038FEFB1
:10032000809309041092C4038D8181508093C5038A
:1003300081E080939D038A81882F90E0880F991F28
:10034000982F80919D03892B80939D0380919F031B
:10035000813061F410929F03EBEBF0E080919D03FC
:100360008083ECEBF0E085EC808304C0ECEBF0E004
:1003700085EE808380919C038130E1F39091C403EA
:100380008D81981718F48091C4038D83198213C04E
:100390008981282F30E08B819C81DC01A20FB31F63
:1003A0008981882F90E0FC01EC55FC4F80818C9373
:1003B00089818F5F898399818D81981748F38D8119
:1003C0008F838F8127960FB6F894DEBF0FBECDBF07
:1003D000CF91DF9108950F93DF93CF93CDB7DEB721
:1003E00028970FB6F894DEBF0FBECDBF8A837C83FB
:1003F0006B834D832E830F838D81813218F081E0D2
:10040000888769C080919C038823E1F782E080930C
:100410009C038F8180939E038FEF80930904109239
:10042000C4038D818093C503198213C08981482F2D
:1004300050E08981282F30E08B819C81FC01E20F04
:10044000F31F8081FA01EC55FC4F808389818F5F17
:10045000898399818D81981748F310929D038A8131
:10046000882F90E0880F991F982F80919D03892BEA
:1004700080939D0380919F03813061F410929F03CC
:10048000EBEBF0E080919D038083ECEBF0E085ECFA
:10049000808304C0ECEBF0E085EE80838E818823BE
:1004A00021F080919C038230C9F3809109048F3F31
:1004B00011F4188610C080910904803219F482E08A
:1004C000888709C080910904803319F483E0888704
:1004D00002C084E08887888528960FB6F894DEBF2E
:1004E0000FBECDBFCF91DF910F910895DF93CF93D2
:1004F00000D00F920F92CDB7DEB79B838A836C83B7
:100500008C81813218F081E08D8324C080919C031E
:10051000843019F082E08D831DC08C818093E703C5
:10052000198213C08981482F50E08981282F30E03B
:100530008A819B81FC01E20FF31F8081FA01EA535B
:10054000FC4F808389818F5F898399818C81981783
:1005500048F31D828D810F900F900F900F900F9098
:10056000CF91DF910895DF93CF930F920F92CDB784
:10057000DEB79A83898389819A819093A3038093BC
:10058000A2030F900F90CF91DF910895DF93CF9347
:100590000F920F92CDB7DEB79A83898389819A81B2
:1005A0009093A1038093A0030F900F90CF91DF91C0
:1005B0000895DF93CF930F92CDB7DEB789838981FA
:1005C000882329F0ECEBF0E085EC808304C0ECEBB1
:1005D000F0E085E880830F90CF91DF910895DF935D
:1005E000CF93CDB7DEB7ECEBF0E085ED8083ECEB9D
:1005F000F0E08081882F90E0807190700097B9F7CB
:1006000010929C03CF91DF910895DF93CF93CDB7E4
:10061000DEB7ECEBF0E085EC808310929C03CF9189
:10062000DF9108951F920F920FB60F9200905B001A
:100630000F9211242F933F934F935F936F937F9368
:100640008F939F93AF93BF93EF93FF93DF93CF93DA
:100650000F920F92CDB7DEB7E9EBF0E08081882FE3
:1006600090E09C01287F30703A83298389819A81A8
:100670008836910509F44CC129813A812936310522
:100680000CF060C089819A818033910509F4F4C02F
:1006900029813A812133310554F589819A8180314C
:1006A000910509F4B0C029813A812131310564F402
:1006B00089819A81009709F4AAC129813A81283059
:1006C000310509F4A0C0A7C189819A8180329105C2
:1006D00009F4CCC029813A812832310509F49CC043
:1006E00089819A818831910509F496C094C1298144
:1006F0003A812834310509F408C189819A81893405
:1007000091056CF429813A812833310509F4BAC086
:1007100089819A818034910509F4C9C07CC12981FD
:100720003A812835310509F4D0C089819A81803613
:10073000910509F4EDC029813A812035310509F48C
:10074000A7C069C189819A81803A910509F404C1E1
:1007500029813A81213A31055CF589819A81803875
:10076000910509F4DEC029813A81213831056CF404
:1007700089819A818037910509F4CAC029813A811B
:100780002837310509F4C4C046C189819A8180396E
:10079000910509F4C6C029813A812839310509F447
:1007A000FAC089819A818838910509F4F4C033C16F
:1007B00029813A81283B310509F406C189819A8152
:1007C000893B91056CF429813A81283A310509F475
:1007D000E6C089819A81803B910509F4E0C01BC184
:1007E00029813A81283C310509F40BC189819A811C
:1007F000883F910509F40FC129813A81203C3105D8
:1008000009F4FFC008C1EBEBF0E080919D03808309
:1008100081E00E94D902FFC09091C4038091C5037A
:10082000981798F4ABEBB0E02091C403822F90E0CE
:10083000FC01EC55FC4F80818C93822F8F5F80935D
:10084000C40381E00E94D902E6C080919E03882300
:1008500019F00E94EF02DFC081E080939F03ECEB70
:10086000F0E084EA808310929C03D5C080E28093FC
:1008700009040E94EF02CFC080E3809309040E9424
:10088000EF02C9C088E3809309040E940503C3C036
:100890003091C403832F90E0EBEBF0E02081FC016A
:1008A000EC55FC4F2083832F8F5F8093C40390917E
:1008B000C4038091C503981720F481E00E94D902F7
:1008C000AAC080E00E94D902A6C03091C403832F41
:1008D00090E0EBEBF0E02081FC01EC55FC4F208335
:1008E000832F8F5F8093C40380919E03882319F028
:1008F0000E94EF0290C081E080939F03ECEBF0E058
:1009000084EA808310929C0386C00E94EF0283C019
:1009100083E080939C031092080481E00E94D90236
:100920007AC080910804803298F430910804832FB3
:1009300090E0EBEBF0E02081FC01E851FC4F2083DC
:10094000832F8F5F8093080481E00E94D90263C0E7
:1009500080E00E94D9025FC080910804803240F498
:1009600080910804882F90E0FC01E851FC4F108230
:100970000E94EF02E091A203F091A303809108048A
:10098000282F30E088EE93E0B90119951092080401
:100990000E94050340C080E00E94D9023CC084E070
:1009A00080939C031092E6031092E703E091A0036A
:1009B000F091A10319958091E703882329F481E040
:1009C0008093E7031092C603ABEBB0E02091E603FF
:1009D000822F90E0FC01EA53FC4F80818C93822FA0
:1009E0008F5F8093E6039091E6038091E703981769
:1009F00020F481E00E94D9020EC080E00E94D9025A
:100A00000AC081E00E94D90210929C0304C0109297
:100A100009040E94EF020F900F90CF91DF91FF9198
:100A2000EF91BF91AF919F918F917F916F915F9166
:100A30004F913F912F910F9000925B000F900FBE4E
:100A40000F901F901895DF93CF9300D00F92CDB7E2
:100A5000DEB79A8389837C836B83E981FA818B81FA
:100A60009C81938382830F900F900F900F90CF9172
:100A7000DF910895DF93CF930F920F92CDB7DEB73A
:100A80009A838983E981FA8187E993E0918380835E
:100A9000E981FA81138212820F900F90CF91DF913A
:100AA0000895DF93CF930F920F92CDB7DEB79A835D
:100AB000898389819A810E943A05E981FA818BE2D2
:100AC00092E091838083E981FA8188EE93E0A0E04F
:100AD000B0E084839583A683B7830F900F90CF9166
:100AE000DF910895DF93CF930F920F92CDB7DEB7CA
:100AF0009A83898389819A810E945105E981FA81CB
:100B00008BE192E0918380830F900F90CF91DF91E2
:100B10000895DF93CF930F920F92CDB7DEB79A83EC
:100B2000898389819A810E945105E981FA818BE14B
:100B300092E0918380830F900F90CF91DF91089581
:100B4000DF93CF9300D0CDB7DEB79A8389836B83D1
:100B500081E080934F048B8180932C0410924D048C
:100B600010924E040F900F900F90CF91DF91089547
:100B7000DF93CF9300D00F92CDB7DEB79A838983EE
:100B80007C836B832B8189819A81622F0E94A005CF
:100B90000F900F900F900F90CF91DF910895DF93FA
:100BA000CF930F920F92CDB7DEB79A83898380914E
:100BB0002B04282F30E080912A04882F90E0A9018F
:100BC000481B590BCA010F900F90CF91DF910895E8
:100BD000DF93CF9300D00F92CDB7DEB79C838B838A
:100BE0008FEF9FEF9A83898390912A0480912B0441
:100BF000981788F480912A04882F90E0FC01E65F22
:100C0000FB4F8081882F90E09A83898380912A040A
:100C10008F5F80932A0489819A810F900F900F90A3
:100C20000F90CF91DF910895DF93CF9300D00F9273
:100C3000CDB7DEB79C838B838FEF9FEF9A83898339
:100C400090912A0480912B04981760F480912A04D3
:100C5000882F90E0FC01E65FFB4F8081882F90E0B9
:100C60009A83898389819A810F900F900F900F90BA
:100C7000CF91DF910895DF93CF930F920F92CDB76D
:100C8000DEB79A8389830F900F90CF91DF910895FB
:100C9000DF93CF9300D00F920F92CDB7DEB79B8337
:100CA0008A837D836C8380915204909153040097D2
:100CB00079F190912A0480912B04981748F11982B8
:100CC00013C08981482F50E08981282F30E08A8124
:100CD0009B81FC01E20FF31F8081FA01E65FFB4F6D
:100CE000808389818F5F89838981282F30E08C817F
:100CF0009D81281739072CF310922A048C81809348
:100D00002B04E0915204F09153048C819D8119953C
:100D10000F900F900F900F900F90CF91DF9108954B
:100D2000DF93CF93CDB7DEB78091500490915104FB
:100D3000009749F010924D0410924E04E091500437
:100D4000F09151041995CF91DF910895DF93CF93DE
:100D500000D00F92CDB7DEB79A8389837C836B83F3
:100D60008B819C8190935304809352040F900F9039
:100D70000F900F90CF91DF910895DF93CF9300D024
:100D80000F92CDB7DEB79A8389837C836B838B8187
:100D90009C8190935104809350040F900F900F907A
:100DA0000F90CF91DF910895DF93CF9300D00F92F2
:100DB000CDB7DEB79A8389837C836B8389819A81DF
:100DC0008130910551F48B819C812FEF8F3F9207E9
:100DD00021F484E594E00E9489050F900F900F9014
:100DE0000F90CF91DF910895DF93CF93CDB7DEB70A
:100DF00081E090E06FEF7FEF0E94D406CF91DF910A
:100E00000895DF93CF93CDB7DEB728970FB6F89448
:100E1000DEBF0FBECDBF9C838B837E836D835887DF
:100E20004F8380914F04882321F11A82198219C0BF
:100E3000EB81FC810190F081E02D408151812D8179
:100E40003E8189819A81F901E80FF91F20818B8108
:100E50009C81622FFA01199589819A8101969A8362
:100E6000898329813A818F8198852817390700F372
:100E700006C02F818D819E81622F0E9476028F8114
:100E8000988528960FB6F894DEBF0FBECDBFCF91E0
:100E9000DF910895DF93CF9300D00F920F92CDB7DB
:100EA000DEB79A8389836B8380914F04882301F195
:100EB00080914E04803248F089819A8161E070E02F
:100EC0000E9423051D821C821CC080914D04882F26
:100ED00090E02B81FC01E35DFB4F208380914D046A
:100EE0008F5F80934D0480914D0480934E0405C024
:100EF000CE01039661E00E94760281E090E09D833E
:100F00008C838C819D810F900F900F900F900F908C
:100F1000CF91DF9108950F93DF93CF9300D00F927D
:100F2000CDB7DEB79B838A836C8380912C0490912C
:100F30004E042DE234E0B901492F21E00C810E94DA
:100F4000EB01898310924D0410924E0410924F04CD
:100F500089810F900F900F900F90CF91DF910F919B
:100F60000895DF93CF930F920F92CDB7DEB79A8398
:100F7000898389819A8161E00E948B070F900F908D
:100F8000CF91DF910895DF93CF9300D000D0CDB7FC
:100F9000DEB79B838A836C834D832E838D81813260
:100FA00010F080E28D832AE034E08C81B9014D811C
:100FB0002E810E947101898310922A048981809375
:100FC0002B04898126960FB6F894DEBF0FBECDBFE5
:100FD000CF91DF910895DF93CF93CDB7DEB72897F8
:100FE0000FB6F894DEBF0FBECDBF9A8389837C8392
:100FF0006B835E834D8338872F832B813D815F8197
:1010000089819A81622F432F252F0E94C30728963A
:101010000FB6F894DEBF0FBECDBFCF91DF9108951C
:10102000DF93CF9300D000D0CDB7DEB79A8389830A
:101030007C836B835E834D832B813D8189819A8183
:10104000622F432F21E00E94C30726960FB6F89423
:10105000DEBF0FBECDBFCF91DF910895DF93CF9359
:1010600000D00F92CDB7DEB79A8389836B834C8310
:1010700089819A816B814C8121E00E94C3070F9086
:101080000F900F900F90CF91DF910895DF93CF9342
:101090000F920F92CDB7DEB79A83898310922A04FC
:1010A00010922B0410924D0410924E040E943401B1
:1010B0000F900F90CF91DF910895DF93CF9300D0E1
:1010C000CDB7DEB79A8389836B838B810E946201DF
:1010D00080E996E00E94C60288E496E00E94B3028E
:1010E00089819A810E9446080F900F900F90CF91AE
:1010F000DF910895DF93CF9300D00F92CDB7DEB785
:101100009A8389837C836B832B8189819A81622F67
:101110000E945D080F900F900F900F90CF91DF917C
:101120000895DF93CF93CDB7DEB7CF91DF910895C8
:10113000DF93CF9300D00F92CDB7DEB79A83898328
:101140007C836B83E981FA810190F081E02D01902D
:10115000F081E02D2B8189819A81622F19950F9062
:101160000F900F900F90CF91DF910895DF93CF9361
:10117000CDB7DEB780916404909165040196909399
:10118000650480936404CF91DF910895DF93CF933A
:10119000CDB7DEB780916604909167040196909375
:1011A000670480936604CF91DF9108950F93DF93D6
:1011B000CF9300D00F92CDB7DEB79A8389837C831B
:1011C0006B8389819A818130910571F48B819C8137
:1011D0002FEF8F3F920741F489E796E060E040E00F
:1011E00020E000E00E941A260F900F900F900F90C1
:1011F000CF91DF910F910895DF93CF93CDB7DEB7F5
:1012000081E090E06FEF7FEF0E94D608CF91DF91F1
:1012100008950F931F93DF93CF93CDB7DEB72D972C
:101220000FB6F894DEBF0FBECDBF9A8789877C8743
:101230006B8784E594E029853A85B9010E94B80559
:1012400084E594E062E370E00E94980884E594E00D
:101250000E94B10784E594E029853A85B9010E948E
:10126000B80584E594E029853A85B90146E050E067
:101270000E9410081A82198212C009811A8184E51D
:1012800094E00E94E805282FCE010396FC01E00FB0
:10129000F11F208389819A8101969A83898384E54D
:1012A00094E00E94CF051D86009711F081E08D87A4
:1012B0008D85882311F784E594E00E94B1078C8125
:1012C000882F90E0382F22278B81882F90E0822B67
:1012D000932BEB85FC85918380838B859C85FC011A
:1012E00032968E81882F90E0382F22278D81882F8B
:1012F00090E0822B932B918380838B859C85FC01CE
:1013000034968885882F90E0382F22278F81882F68
:1013100090E0822B932B918380832D960FB6F894C7
:10132000DEBF0FBECDBFCF91DF911F910F9108950A
:10133000DF93CF9300D0CDB7DEB79A8389836B83D9
:1013400084E594E029813A81B9010E94B80584E5D9
:1013500094E06DE270E00E94980884E594E06B816F
:101360000E944A0784E594E00E94B1070F900F9015
:101370000F90CF91DF910895DF93CF93CDB7DEB774
:1013800088EB98E040E855E260E070E00E94B3220C
:1013900084E594E00E94460884E061E00E94341EE7
:1013A00085E061E00E94341E86E061E00E94341E08
:1013B00087E061E00E94341E86E260E00E94341EF5
:1013C00085E261E00E94341E88E260E00E94341EE3
:1013D00087E261E00E94341E8DE061E00E94341ECD
:1013E00086E160E00E94341E87E160E00E94341EC6
:1013F00088E160E00E94341E89E160E00E94341EB2
:101400008AE162E00E94341E8BE162E00E94341E99
:101410008CE162E00E94341E26EB38E085E0B901E1
:1014200042E050E00E94AC1926EC38E084E0B901BB
:1014300042E050E00E94AC1983E590E060E00E9439
:10144000980983E590E060E10E94980983E590E0C7
:1014500068E00E94980920E736E083E590E0B90152
:101460000E940909CF91DF910895DF93CF930F92E6
:101470000F92CDB7DEB785E30E941A1F0097C9F01F
:1014800086E10E941A1F0097A1F087E10E941A1FAF
:10149000009779F088E10E941A1F009751F089E1C6
:1014A0000E941A1F009729F084E30E941A1F0097D8
:1014B00019F481E08A8301C01A828A81882319F095
:1014C00081E0898301C0198289810F900F90CF91AB
:1014D000DF910895DF93CF930F920F92CDB7DEB7D0
:1014E00085E30E941A1F009719F186E10E941A1FD6
:1014F0000097F1F087E10E941A1F0097C9F088E178
:101500000E941A1F0097A1F089E10E941A1F0097FC
:1015100079F084E30E941A1F009751F08AE10E943B
:101520001A1F009729F08BE10E941A1F009719F4E7
:1015300081E08A8301C01A828A81882319F081E0C0
:10154000898301C0198289810F900F90CF91DF911B
:101550000895DF93CF9300D0CDB7DEB79A83898308
:101560006B8389819A81009759F49B8187E0692F69
:101570000E94E71E86E060E070E00E94541D0EC0ED
:101580009B8187E0692F0E94E71E89819A819C01D7
:1015900025563F4F86E0B9010E94541D0F900F90D1
:1015A0000F90CF91DF910895DF93CF9300D0CDB707
:1015B000DEB79A8389836B8389819A81009759F476
:1015C0009B8185E0692F0E94E71E84E060E070E067
:1015D0000E94541D0EC09B8185E0692F0E94E71E6A
:1015E00089819A819C0125563F4F84E0B9010E9470
:1015F000541D0F900F900F90CF91DF910895DF93BE
:10160000CF9300D00F920F92CDB7DEB79A83898324
:101610007C836B834D8389819A81009731F48B8120
:101620009C816D810E94A90A1AC089819A818130AA
:10163000910531F48B819C816D810E94D40A0FC089
:1016400089819A818230910551F48B819C816D81D1
:101650000E94D40A8B819C816D810E94A90A0F90FF
:101660000F900F900F900F90CF91DF910895DF931F
:10167000CF93CDB7DEB72C970FB6F894DEBF0FBE71
:10168000CDBF9E838D836F83598748872A8788853E
:101690009985AA2797FDA095BA2FBC01CD010E947C
:1016A0008C16DC01CB01BC01CD0121E230EB4AE21A
:1016B00050E40E94FB13DC01CB01BC01CD010E9470
:1016C000EA16DC01CB019C838B838A858823C1F1D8
:1016D00080916404909165049A83898313C09F81EB
:1016E00081E0492F48272D813E8181E090E0B901BA
:1016F0000E94FF0A2D813E8180E090E0B9014F8178
:101700000E94FF0A209164043091650489819A81C6
:10171000281B390B8B819C812817390764F40E94A0
:101720006A0A982F81E0982781E08927882319F495
:1017300081E08C8701C01C868C85882381F632C0AD
:101740008A8591E08927882369F1809164049091CA
:1017500065049A83898313C09F8181E0492F4827BC
:101760002D813E8181E090E0B9010E94FF0A2D8128
:101770003E8180E090E0B9014F810E94FF0A2091F4
:1017800064043091650489819A81281B390B1B867A
:101790008B819C812817390714F481E08B878B8516
:1017A0008823D1F62C960FB6F894DEBF0FBECDBFBE
:1017B000CF91DF9108950F93DF93CF93CDB7DEB72D
:1017C0002E970FB6F894DEBF0FBECDBF9E838D83DC
:1017D00078876F8349873B872A870C878A859B8513
:1017E000AA2797FDA095BA2FBC01CD010E948C16A7
:1017F000DC01CB01BC01CD0120E030E048E451E444
:101800000E94FB13DC01CB01BC01CD010E94EA1652
:10181000DC01CB019C838B838C85882369F18091CB
:101820006404909165049A83898308C08D819E81A8
:101830002F813885B90149850E94FF0A20916404EF
:101840003091650489819A81281B390B8B819C8199
:101850002817390764F40E946A0A982F81E09827B4
:1018600081E08927882319F481E08E8701C01E86D4
:101870008E858823D9F627C08C8591E08927882317
:1018800011F180916404909165049A83898308C062
:101890008D819E812F813885B90149850E94FF0A7B
:1018A000209164043091650489819A81281B390B49
:1018B0001D868B819C812817390714F481E08D8760
:1018C0008D85882329F72E960FB6F894DEBF0FBEBC
:1018D000CDBFCF91DF910F9108950F93DF93CF93F9
:1018E00000D0CDB7DEB78AE10E941A1F009729F019
:1018F0008BE10E941A1F009719F481E08B8301C0CD
:101900001B828B81882309F450C082E090E062E35F
:1019100070E040E024E030E000E00E94DB0B80E576
:1019200090E060E04DE250E020E00E94370B82E062
:1019300090E06BE470E041E026E030E000E00E94DF
:10194000DB0B2DC08CE10E941A1F1A82009711F048
:1019500081E08A838A81882379F081E090E06EE7D4
:101960007FEF40E00E94FF0A80E090E062E370E0D9
:1019700041E00E94FF0A13C08CE10E941A1F1982E5
:10198000009711F481E089838981882341F082E303
:1019900090E060E045E050E020E00E94370B0E94BC
:1019A000350A91E08927882369F60F900F900F90F0
:1019B000CF91DF910F9108950F93DF93CF93CDB720
:1019C000DEB72F970FB6F894DEBF0FBECDBF9C8356
:1019D0008B837E836D8358874F833A8729870B8754
:1019E0008B858823A1F180916404909165049A838A
:1019F00089830FC01E868F819885009711F081E042
:101A00008E878B819C812D813E81B9014E850E94FC
:101A1000FF0A209164043091650489819A81281B12
:101A2000390B89859A852817390764F40E946A0A58
:101A3000982F81E0982781E08927882319F481E095
:101A40008F8701C01F868F858823A1F62EC08B85C6
:101A500091E08927882349F180916404909165047D
:101A60009A8389830FC01C868F819885009711F017
:101A700081E08C878B819C812D813E81B9014C85D1
:101A80000E94FF0A209164043091650489819A8143
:101A9000281B390B1D8689859A852817390714F468
:101AA00081E08D878D858823F1F62F960FB6F89407
:101AB000DEBF0FBECDBFCF91DF910F910895DF93B1
:101AC000CF93CDB7DEB765970FB6F894DEBF0FBEE4
:101AD000CDBF86E10E941A1F009779F087E10E942E
:101AE0001A1F009751F088E10E941A1F009729F0F1
:101AF00089E10E941A1F009719F421E02D8B01C083
:101B00001D8A8D89882331F082E090E0909338021D
:101B1000809337028091370290913802823091058C
:101B200081F0809164049091650420917706309152
:101B30007806821B930B8A3191051CF041E04C8B97
:101B400001C01C8A8C89882309F4F0C08091370277
:101B5000909138028130910509F071C082E090E0E7
:101B600090933802809337028091640490916504C9
:101B700090937806809377060E946A0A809376068F
:101B80000EC082E390E060E00E94D40A82E390E01D
:101B900061E00E94A90A0E946A0A809376068091F9
:101BA0006404909165042091770630917806821B39
:101BB000930B863991055CF49091760681E0982725
:101BC00081E08927882319F451E05B8B01C01B8ACF
:101BD0008B898823B1F68091640490916504909379
:101BE0007806809377060EC082E390E061E00E9461
:101BF000D40A82E390E060E00E94A90A0E946A0A87
:101C00008093760680916404909165042091770614
:101C100030917806821B930B863991055CF4909184
:101C2000760681E0982781E08927882319F481E0EE
:101C30008A8B01C01A8A8A898823B1F677C080917D
:101C4000370290913802009709F070C082E090E06E
:101C500090933802809337028091640490916504D8
:101C600090937806809377060E946A0A809376069E
:101C70000EC082E390E061E00E94D40A82E390E02B
:101C800060E00E94A90A0E946A0A80937606809109
:101C90006404909165042091770630917806821B48
:101CA000930B863991055CF49091760681E0982734
:101CB00081E08927882319F491E0998B01C0198A62
:101CC00089898823B1F6809164049091650490938A
:101CD0007806809377060EC082E390E060E00E9471
:101CE000D40A82E390E061E00E94A90A0E946A0A95
:101CF0008093760680916404909165042091770624
:101D000030917806821B930B863991055CF4909193
:101D1000760681E0982781E08927882319F421E05D
:101D2000288B01C0188A88898823B1F684E30E9431
:101D30001A1F1F86009711F441E04F875F855523D6
:101D400009F445C085E30E941A1F009729F086E137
:101D50000E941A1F009719F481E08E8701C01E8629
:101D60008E85882399F085E060E00E94E71E84E07C
:101D70006BE970E00E94541D87E061E00E94E71E5D
:101D800086E06FEF70E00E94541D12C085E060E0B5
:101D90000E94E71E84E06FEF70E00E94541D87E010
:101DA00061E00E94E71E86E06FEF70E00E94541D24
:101DB00081E090E090933802809337028091640430
:101DC0009091650490937806809377066FC185E3C0
:101DD0000E941A1F1D86009711F491E09D872D85A2
:101DE0002223F9F085E061E00E94E71E84E06FEFB6
:101DF00070E00E94541D87E060E00E94E71E86E0CC
:101E00006FEF70E00E94541D10923802109237025A
:101E1000809164049091650490937806809377068E
:101E200045C11092610410926004109263041092F4
:101E300062041A8219825EC089819A81880F991F73
:101E4000FC01E75CFD4F408151815C874B878981B4
:101E50008A5E0E941A1F1A861986009721F481E073
:101E600090E09A8789874B855C8589859A85489F0C
:101E70009001499F300D589F300D112480916004CE
:101E800090916104820F931F90936104809360048A
:101E900089819A810496880F991FFC01E75CFD4FA8
:101EA0004081518158874F8389818A5E0E941A1F21
:101EB0001E821D82009721F481E090E09E838D8335
:101EC0004F8158858D819E81489F9001499F300D9B
:101ED000589F300D11248091620490916304820F09
:101EE000931F909363048093620489819A81019681
:101EF0009A83898389819A81843091050CF49CCFDF
:101F00008091600490916104853691053CF084E6EF
:101F100090E090936104809360040EC0809160040F
:101F2000909161042FEF8C39920734F48CE99FEF84
:101F300090936104809360048091620490916304A3
:101F4000853691053CF084E690E09093630480939D
:101F500062040EC080916204909163044FEF8C394B
:101F6000940734F48CE99FEF9093630480936204A8
:101F70002091600430916104809162049091630427
:101F80002817390799F485E061E00E94E71E84E094
:101F90006BE970E00E94541D87E061E00E94E71E3B
:101FA00086E06BE970E00E94541D80C0809160045F
:101FB000909161041816190684F485E061E00E948E
:101FC000E71E80916004909161049C0125563F4F6B
:101FD00084E0B9010E94541D29C080916004909151
:101FE000610499238CF485E060E00E94E71E8091F3
:101FF0006004909161042BE930E0281B390B84E0E8
:10200000B9010E94541D12C0809162049091630432
:102010001C82992314F451E05C8385E06C810E945A
:10202000E71E84E06AE070E00E94541D8091620423
:10203000909163041816190684F487E061E00E9409
:10204000E71E80916204909163049C0125563F4FE6
:1020500086E0B9010E94541D29C0809162049091CC
:10206000630499238CF487E060E00E94E71E80916E
:102070006204909163042BE930E0281B390B86E061
:10208000B9010E94541D12C08091600490916104B6
:102090001B82992314F481E08B8387E06B810E947B
:1020A000E71E86E06AE070E00E94541D65960FB658
:1020B000F894DEBF0FBECDBFCF91DF910895DF93BF
:1020C000CF93CDB7DEB70E94BB1C0E94BC0988EB42
:1020D00098E061E070E04AE050E00E9422290E940E
:1020E0005F0D0E946D0CFBCFDF93CF93CDB7DEB7B2
:1020F00029970FB6F894DEBF0FBECDBF8B836C83DC
:102100005E834D832F831A8219828B8160E00E9447
:10211000E71E8B8161E00E94E71E8C8160E020E475
:1021200032E44FE050E00E944A1FDC01CB019A8369
:102130008983ED81FE8181E0808389819A8123EC0E
:102140008135920718F0ED81FE8110828F818823FE
:1021500029F089819A81998788870AC089819A8123
:1021600022E330E0B9010E944036CB01998788878D
:102170008885998529960FB6F894DEBF0FBECDBF2E
:10218000CF91DF9108950F93DF93CF93CDB7DEB753
:1021900027970FB6F894DEBF0FBECDBF8AE10E942D
:1021A0001A1F009729F08BE10E941A1F009719F45B
:1021B00081E08F8301C01F828F81882309F419C1B8
:1021C00082E090E060E070E041E00E94FF0A209130
:1021D00068043091690485E266E2A90120E00E946A
:1021E00074108A31910580F020916804309169045F
:1021F00087E268E2A90120E00E9474108A3191050B
:1022000018F081E08E8301C01E828E81882319F030
:1022100081E0898301C0198282E090E06BE470E084
:1022200040E02AE030E000E00E94DB0B8BE490E02D
:1022300069814AE550E020E00E94370B82E090E09F
:102240006BE470E041E024E130E000E00E94DB0B51
:10225000998181E0292F28278BE490E0622F4AE5BD
:1022600050E020E00E94370B82E090E06BE470E0E9
:1022700041E028E230E000E00E94DB0B998181E040
:10228000292F28278BE490E0622F40E550E020E0E2
:102290000E94370B8981882309F45EC007C082E061
:1022A00090E062E370E041E00E94FF0A0E94350A7C
:1022B00091E08927882399F785E30E941A1F0097E8
:1022C00051F086E10E941A1F009729F087E10E94D1
:1022D0001A1F009719F481E08D8301C01D828D8142
:1022E000882399F082E090E062E370E041E025E02D
:1022F00030E000E00E94DB0B8BE490E0698144E178
:1023000050E020E00E94370B74C088E10E941A1F41
:10231000009751F089E10E941A1F009729F084E389
:102320000E941A1F009719F481E08C8301C01C825F
:102330008C81882309F45DC08BE490E0698144E1DD
:1023400050E020E00E94370B54C082E090E062E34E
:1023500070E041E00E94FF0A0E94350A91E089275F
:10236000882399F788E10E941A1F009751F089E1AC
:102370000E941A1F009729F084E30E941A1F0097F9
:1023800019F481E08B8301C01B828B81882399F033
:1023900082E090E062E370E041E025E030E000E0C0
:1023A0000E94DB0B8BE490E0698144E150E020E087
:1023B0000E94370B1EC085E30E941A1F009751F040
:1023C00086E10E941A1F009729F087E10E941A1FD8
:1023D000009719F481E08A8301C01A828A818823D8
:1023E00041F08BE490E0698144E150E020E00E94FC
:1023F000370B27960FB6F894DEBF0FBECDBFCF9137
:10240000DF910F910895DF93CF930F920F92CDB785
:10241000DEB79A83898389819A81892F990F990BD5
:10242000282F88EB98E0622F0E949624298188EB60
:1024300098E0622F0E94962488EB98E00E9467271C
:102440000F900F90CF91DF910895EF92FF920F932D
:102450001F937B018C0120E030E040E05FE40E94AC
:10246000D11588238CF0C801B70120E030E040E0AE
:102470005FE40E949D130E94EA169B01AC0120506C
:1024800030404040504806C0C801B7010E94EA16DB
:102490009B01AC01B901CA011F910F91FF90EF9010
:1024A0000895A0E0B0E0E7E5F2E10C947636DC01B7
:1024B0002B01FA019C91923008F439C1EB0188811B
:1024C000823008F433C1943069F4843009F02FC1AC
:1024D00011969C9111978981981709F428C1A8E554
:1024E000B2E025C1843009F421C18230A9F49230D0
:1024F00009F01DC19A01AD0188E0EA010990AE0121
:10250000E90109929E018150C1F7E201898111968A
:102510009C918923818308C1923009F407C11296E6
:102520002D903C901397EB018A819B811496AD907E
:10253000BD90CD90DC901797EC80FD800E811F81BF
:102540009101281B390BB90137FF04C06627772793
:10255000621B730B603271050CF061C0121613061A
:102560006CF537014801062E04C096948794779441
:1025700067940A94D2F721E030E040E050E004C0D4
:10258000220F331F441F551F6A95D2F72150304048
:10259000404050402E213F21402351232115310539
:1025A0004105510521F021E030E040E050E07901A3
:1025B0008A01E628F728082919293CC0232BD1F1E4
:1025C000260E371E35014601062E04C096948794C8
:1025D000779467940A94D2F721E030E040E050E02D
:1025E00004C0220F331F441F551F6A95D2F7215094
:1025F0003040404050402A213B214C215D21211593
:1026000031054105510521F021E030E040E050E086
:1026100059016A01A628B728C828D9280BC08215F5
:1026200093052CF01C01AA24BB24650103C0EE24F1
:10263000FF24870111969C91D20111968C919817D5
:1026400009F445C0992339F0A80197012A193B09DB
:102650004C095D0906C0A60195012E193F09400BE2
:10266000510B57FD08C011823382228224833583A7
:10267000468357831DC081E081833382228288276D
:102680009927DC01821B930BA40BB50B84839583E4
:10269000A683B7830DC0220F331F441F551F248309
:1026A0003583468357838281938101979383828305
:1026B0002481358146815781DA01C9010197A10939
:1026C000B1098F5F9F4FAF4FBF4328F30BC091837A
:1026D00033822282EA0CFB1C0C1D1D1DE482F58254
:1026E0000683178383E08083248135814681578167
:1026F00057FF1AC0C901AA2797FDA095BA2F81706C
:102700009070A070B0705695479537952795822B9D
:10271000932BA42BB52B84839583A683B7838281C7
:102720009381019693838283DF0101C0D201CD01A1
:10273000CDB7DEB7E2E10C949236A0E2B0E0E3EA76
:10274000F3E10C94823669837A838B839C832D8397
:102750003E834F835887E9E0EE2EF12CEC0EFD1EF0
:10276000CE010196B7010E94DB188E010F5E1F4F4C
:10277000CE010596B8010E94DB188A8991E089276D
:102780008A8BC701B801AE01475E5F4F0E945112AC
:102790000E940618A096E6E00C949E36A0E2B0E0F7
:1027A000E4EDF3E10C94823669837A838B839C8316
:1027B0002D833E834F835887F9E0EF2EF12CEC0EEA
:1027C000FD1ECE010196B7010E94DB188E010F5E3F
:1027D0001F4FCE010596B8010E94DB18C701B80152
:1027E000AE01475E5F4F0E9451120E940618A096EC
:1027F000E6E00C949E36A0E2B0E0E1E0F4E10C9457
:10280000763669837A838B839C832D833E834F83C3
:102810005887CE010196BE01675F7F4F0E94DB188B
:10282000CE010596BE016F5E7F4F0E94DB18998531
:10283000923088F089898230C8F0943019F482305F
:1028400051F404C0843029F4923081F488E592E098
:10285000C6C0923049F420E09A858A89981321E015
:102860002A87CE010996BBC0823049F420E09A85C0
:102870008A89981321E02A8BCE014196B0C02D841D
:102880003E844F8458886D887E888F88988CEE248B
:10289000FF248701AA24BB24650140E050E060E0EA
:1028A00070E0E0E0F0E0C10181709070892BE9F008
:1028B000E60CF71C081D191D9A01AB012A0D3B1DE2
:1028C0004C1D5D1D80E090E0A0E0B0E0E614F70450
:1028D0000805190520F481E090E0A0E0B0E0BA011D
:1028E000A901480F591F6A1F7B1FAA0CBB1CCC1CD7
:1028F000DD1C97FE08C081E090E0A0E0B0E0A82ACF
:10290000B92ACA2ADB2A3196E032F10549F0660C71
:10291000771C881C991C5694479437942794C3CFEE
:10292000FA85EA892B893C898B859C85280F391F7C
:102930002E5F3F4F17C0CA0181709070892B61F0E4
:1029400016950795F794E79480E090E0A0E0B0E852
:10295000E82AF92A0A2B1B2B7695679557954795F8
:102960002F5F3F4F77FDE7CF0CC0440F551F661F09
:10297000771F17FD4160EE0CFF1C001F111F215037
:102980003040403090E0590790E0690790E47907C3
:1029900060F32B8F3C8FDB01CA018F779070A070A2
:1029A000B07080349105A105B10561F447FD0AC0FE
:1029B000E114F1040105110529F0405C5F4F6F4FF0
:1029C0007F4F40781A8EFE1711F081E08A8F4D8F6D
:1029D0005E8F6F8F78A383E0898FCE0149960E9426
:1029E0000618A096E2E10C949236A8E1B0E0EBEF75
:1029F000F4E10C947E3669837A838B839C832D83E8
:102A00003E834F835887B9E0EB2EF12CEC0EFD1E70
:102A1000CE010196B7010E94DB188E010F5E1F4F99
:102A2000CE010596B8010E94DB182985223008F4F2
:102A30007EC03989323010F4B8017CC08A859A8909
:102A400089278A87243011F0223031F4231709F0C6
:102A50006EC068E572E06EC0343039F41D861E86A3
:102A60001F86188A1C861B8604C0323021F484E03D
:102A70008987B7015FC02B853C858B899C89281B82
:102A8000390B3C872B87ED84FE840F851889AD8830
:102A9000BE88CF88D88CEA14FB040C051D0540F4D1
:102AA000EE0CFF1C001F111F215030403C872B876C
:102AB00020E030E040E050E080E090E0A0E0B0E4D2
:102AC00060E070E0EA14FB040C051D0540F0282BC3
:102AD000392B4A2B5B2BEA18FB080C091D09B6950C
:102AE000A79597958795EE0CFF1C001F111F6F5F30
:102AF0007F4F6F31710531F7DA01C9018F7790701F
:102B0000A070B07080349105A105B10561F427FD76
:102B10000AC0E114F1040105110529F0205C3F4FC2
:102B20004F4F5F4F20782D873E874F87588BBE01D0
:102B3000675F7F4FCB010E9406186896EAE00C940D
:102B40009A36A8E1B0E0E7EAF5E10C9482366983B1
:102B50007A838B839C832D833E834F83588789E0C0
:102B6000E82EF12CEC0EFD1ECE010196B7010E945D
:102B7000DB188E010F5E1F4FCE010596B8010E9433
:102B8000DB188985823040F08989823028F0C701BE
:102B9000B8010E94531901C08FEF6896E6E00C94CB
:102BA0009E36A8E1B0E0E7EDF5E10C94823669834A
:102BB0007A838B839C832D833E834F83588789E060
:102BC000E82EF12CEC0EFD1ECE010196B7010E94FD
:102BD000DB188E010F5E1F4FCE010596B8010E94D3
:102BE000DB188985823040F08989823028F0C7015E
:102BF000B8010E94531901C08FEF6896E6E00C946B
:102C00009E36A8E1B0E0E7E0F6E10C9482366983F5
:102C10007A838B839C832D833E834F83588789E0FF
:102C2000E82EF12CEC0EFD1ECE010196B7010E949C
:102C3000DB188E010F5E1F4FCE010596B8010E9472
:102C4000DB188985823040F08989823028F0C701FD
:102C5000B8010E94531901C081E06896E6E00C9427
:102C60009E36A8E1B0E0E7E3F6E10C948236698392
:102C70007A838B839C832D833E834F83588789E09F
:102C8000E82EF12CEC0EFD1ECE010196B7010E943C
:102C9000DB188E010F5E1F4FCE010596B8010E9412
:102CA000DB188985823040F08989823028F0C7019D
:102CB000B8010E94531901C081E06896E6E00C94C7
:102CC0009E36A8E1B0E0E7E6F6E10C94863669832B
:102CD0007A838B839C832D833E834F835887CE01D9
:102CE0000196BE01675F7F4F0E94DB18CE010596FB
:102CF000BE016F5E7F4F0E94DB188985823028F00D
:102D000020E030E08989823010F421E030E0822F29
:102D10006896E2E00C94A236A8E0B0E0E2E9F6E1C1
:102D20000C947F369B01AC0183E08983DA01C901F1
:102D30008827B7FD83959927AA27BB27B82E211589
:102D400031054105510519F482E089833AC0882391
:102D5000A9F0203080E0380780E0480780E8580775
:102D600029F460E070E080E09FEC30C0EE24FF24A6
:102D70008701E21AF30A040B150B02C079018A01DC
:102D80008EE1C82ED12CDC82CB82ED82FE820F83B5
:102D90001887C801B7010E94B717019718161906BE
:102DA00084F4082E04C0EE0CFF1C001F111F0A94AF
:102DB000D2F7ED82FE820F831887C81AD90ADC8207
:102DC000CB82BA82CE0101960E9406182896E9E0CD
:102DD0000C949B36ACE0B0E0E0EFF6E10C94863664
:102DE00069837A838B839C83CE010196BE016B5FDE
:102DF0007F4F0E94DB188D81823061F1823050F16B
:102E0000843021F48E81882351F12EC02F813885A2
:102E100037FD20C06E812F3131051CF06623F9F09B
:102E200023C08EE190E0821B930B29853A854B8568
:102E30005C8504C056954795379527958A95D2F7B6
:102E40006623B1F050954095309521953F4F4F4FF7
:102E50005F4F0EC020E030E040E050E009C02FEFAF
:102E60003FEF4FEF5FE704C020E030E040E050E884
:102E7000B901CA012C96E2E00C94A236A8E0B0E0B9
:102E8000E4E4F7E10C947E367B018C016115710559
:102E90008105910519F482E0898360C083E089830C
:102EA0008EE1C82ED12CDC82CB82ED82FE820F8394
:102EB0001887C801B7010E94B717FC013197F7FFC7
:102EC0003BC0222733272E1B3F0B57016801022EE0
:102ED00004C0D694C794B794A7940A94D2F740E05C
:102EE00050E060E070E081E090E0A0E0B0E004C07D
:102EF000880F991FAA1FBB1F2A95D2F70197A10916
:102F0000B1098E219F21A023B1230097A105B1050E
:102F100021F041E050E060E070E04A295B296C2933
:102F20007D294D835E836F8378878EE190E08E1BD1
:102F30009F0B9C838B8312C0309781F00E2E04C0B0
:102F4000EE0CFF1C001F111F0A94D2F7ED82FE82C7
:102F50000F831887CE1ADF0ADC82CB821A82CE0159
:102F600001960E9406182896EAE00C949A36EF9291
:102F7000FF920F931F937B018C0180E0E81680E0A5
:102F8000F80681E0080780E0180788F48FEFE8165C
:102F9000F1040105110531F028F088E090E0A0E08F
:102FA000B0E017C080E090E0A0E0B0E012C080E0A8
:102FB000E81680E0F80680E0080781E0180728F0AE
:102FC00088E190E0A0E0B0E004C080E190E0A0E003
:102FD000B0E020E230E040E050E0281B390B4A0B23
:102FE0005B0B04C016950795F794E7948A95D2F782
:102FF000F701E05AFD4F8081281B31094109510931
:10300000C9011F910F91FF90EF900895DF92EF9209
:10301000FF920F931F93FC01E480F58006811781D6
:10302000D1808081823048F480E090E0A0E1B0E07F
:10303000E82AF92A0A2B1B2BA5C0843009F49FC06B
:10304000823021F4EE24FF24870105C0E114F1044D
:103050000105110519F4E0E0F0E096C0628173818A
:103060009FEF623879070CF05BC022E83FEF261B28
:10307000370B2A3131052CF020E030E040E050E001
:103080002AC0B801A701022E04C07695679557950E
:1030900047950A94D2F781E090E0A0E0B0E004C048
:1030A000880F991FAA1FBB1F2A95D2F70197A10964
:1030B000B1098E219F21A023B1230097A105B1055D
:1030C00021F081E090E0A0E0B0E09A01AB01282B74
:1030D000392B4A2B5B2BDA01C9018F779070A070D6
:1030E000B07080349105A105B10539F427FF09C0FE
:1030F000205C3F4F4F4F5F4F04C0215C3F4F4F4F0D
:103100005F4FE0E0F0E02030A0E03A07A0E04A079F
:10311000A0E45A0710F0E1E0F0E079018A0127C04D
:103120006038710564F5FB01E158FF4FD801C70114
:103130008F779070A070B07080349105A105B105B3
:1031400039F4E7FE0DC080E490E0A0E0B0E004C0F8
:103150008FE390E0A0E0B0E0E80EF91E0A1F1B1F0D
:1031600017FF05C016950795F794E794319687E009
:1031700016950795F794E7948A95D1F705C0EE2444
:10318000FF248701EFEFF0E06E2F679566276795C4
:10319000902F9F77D794DD24D7948E2F8695492F33
:1031A000462B582F5D29B701CA011F910F91FF903F
:1031B000EF90DF900895FC01DB0140815181228175
:1031C000622F6F7770E0221F2227221F9381892FA1
:1031D000880F822B282F30E0991F9927991F11966D
:1031E0009C93119721153105A9F5411551056105EC
:1031F000710511F482E037C082E89FEF13969C932B
:103200008E9312979A01AB0167E0220F331F441F80
:10321000551F6A95D1F783E08C930DC0220F331FA1
:10322000441F551F12968D919C91139701971396E9
:103230009C938E931297203080E0380780E04807F7
:1032400080E4580758F314962D933D934D935C9367
:10325000179708952F3F310579F441155105610500
:10326000710519F484E08C93089564FF03C081E034
:103270008C9312C01C9210C02F57304013963C9371
:103280002E93129783E08C9387E0440F551F661F9F
:10329000771F8A95D1F7706414964D935D936D9363
:1032A0007C93179708951F93DC01FB019C9192304A
:1032B00008F447C08081823008F443C0943051F450
:1032C00011961C91843099F58181682F70E0611B03
:1032D00071093FC0843021F0923031F48230B9F16D
:1032E0008181882389F12DC011961C91119782301C
:1032F000F1F081811817D9F412962D913C91139712
:10330000828193818217930794F028173907BCF0C4
:1033100014968D919D910D90BC91A02D24813581A5
:1033200046815781281739074A075B0718F411238C
:1033300041F00AC082179307A407B50740F4112390
:1033400019F061E070E005C06FEF7FEF02C060E050
:1033500070E0CB011F910895883008F078C0E82F05
:10336000F0E0EE0FFF1FE158F94F71836083833067
:10337000D9F0843030F4813009F444C0823060F4F4
:1033800039C0853051F18530D8F0863009F446C017
:10339000873009F05CC04FC0809169008C7F842B1E
:1033A00080936900E89A089580916900440F551F41
:1033B000440F551F837F842B80936900E99A0895F9
:1033C0008091690074E0440F551F7A95E1F78F7C76
:1033D000842B80936900EA9A08958091690066E0E1
:1033E000440F551F6A95E1F78F73842B8093690012
:1033F000EB9A089580916A008C7F842B80936A00F9
:10340000EC9A089580916A00440F551F440F551F90
:10341000837F842B80936A00ED9A089580916A00DF
:1034200024E0440F551F2A95E1F78F7C842B80936D
:103430006A00EE9A089580916A0096E0440F551F45
:103440009A95E1F78F73842B80936A00EF9A089521
:10345000883048F5833091F0843028F48130B1F021
:10346000823050F411C0853069F0853048F08630E4
:1034700079F0873081F40EC0E8980DC0E9980BC050
:10348000EA9809C0EB9807C0EC9805C0ED9803C016
:10349000EE9801C0EF98E82FF0E0EE0FFF1FE15823
:1034A000F94F1182108208951F920F920FB60F925A
:1034B0000BB60F9211242F933F934F935F936F930B
:1034C0007F938F939F93AF93BF93EF93FF938091DD
:1034D000830690918406892B29F0E0918306F09170
:1034E00084061995FF91EF91BF91AF919F918F91B4
:1034F0007F916F915F914F913F912F910F900BBEF4
:103500000F900FBE0F901F9018951F920F920FB63D
:103510000F920BB60F9211242F933F934F935F930B
:103520006F937F938F939F93AF93BF93EF93FF938B
:103530008091850690918606892B29F0E091850679
:10354000F09186061995FF91EF91BF91AF919F91F0
:103550008F917F916F915F914F913F912F910F903C
:103560000BBE0F900FBE0F901F9018951F920F92D9
:103570000FB60F920BB60F9211242F933F934F93D8
:103580005F936F937F938F939F93AF93BF93EF93CB
:10359000FF938091870690918806892B29F0E0910E
:1035A0008706F09188061995FF91EF91BF91AF9131
:1035B0009F918F917F916F915F914F913F912F914B
:1035C0000F900BBE0F900FBE0F901F9018951F927B
:1035D0000F920FB60F920BB60F9211242F933F93B9
:1035E0004F935F936F937F938F939F93AF93BF930B
:1035F000EF93FF938091890690918A06892B29F099
:10360000E0918906F0918A061995FF91EF91BF919B
:10361000AF919F918F917F916F915F914F913F916A
:103620002F910F900BBE0F900FBE0F901F9018950B
:103630001F920F920FB60F920BB60F9211242F9379
:103640003F934F935F936F937F938F939F93AF932A
:10365000BF93EF93FF9380917F0690918006892B13
:1036600029F0E0917F06F09180061995FF91EF9186
:10367000BF91AF919F918F917F916F915F914F918A
:103680003F912F910F900BBE0F900FBE0F901F9088
:1036900018951F920F920FB60F920BB60F9211242E
:1036A0002F933F934F935F936F937F938F939F934A
:1036B000AF93BF93EF93FF93809181069091820621
:1036C000892B29F0E0918106F09182061995FF91EE
:1036D000EF91BF91AF919F918F917F916F915F918A
:1036E0004F913F912F910F900BBE0F900FBE0F90F7
:1036F0001F9018951F920F920FB60F920BB60F9254
:1037000011242F933F934F935F936F937F938F93E6
:103710009F93AF93BF93EF93FF9380918B0690910C
:103720008C06892B29F0E0918B06F0918C06199577
:10373000FF91EF91BF91AF919F918F917F916F9189
:103740005F914F913F912F910F900BBE0F900FBE45
:103750000F901F9018951F920F920FB60F920BB6F5
:103760000F9211242F933F934F935F936F937F9307
:103770008F939F93AF93BF93EF93FF9380918D06A9
:1037800090918E06892B29F0E0918D06F0918E069E
:103790001995FF91EF91BF91AF919F918F917F917B
:1037A0006F915F914F913F912F910F900BBE0F90B2
:1037B0000FBE0F901F9018951F920F920FB60F9289
:1037C00011242F933F938F939F93AF93BF93809137
:1037D000930690919406A0919506B091960630912B
:1037E00097060196A11DB11D232F2D5F2D3720F0C7
:1037F0002D570196A11DB11D209397068093930626
:1038000090939406A0939506B093960680918F06A8
:1038100090919006A0919106B09192060196A11DFB
:10382000B11D80938F0690939006A0939106B0935C
:103830009206BF91AF919F918F913F912F910F90E1
:103840000FBE0F901F9018958FB7F8942091930694
:103850003091940640919506509196068FBFB9011C
:10386000CA0108959FB7F89420918F063091900671
:10387000409191065091920686B5A89B06C08F3F55
:1038800021F02F5F3F4F4F4F5F4F9FBF542F432F6C
:10389000322F2227280F311D411D511D82E0220F9A
:1038A000331F441F551F8A95D1F7B901CA010895E6
:1038B0009B01AC017FB7F89480918F0690919006A0
:1038C000A0919106B091920666B5A89B05C06F3F86
:1038D00019F00196A11DB11D7FBFBA2FA92F982FF6
:1038E0008827860F911DA11DB11D62E0880F991FC9
:1038F000AA1FBB1F6A95D1F7BC012DC0FFB7F89472
:1039000080918F0690919006A0919106B0919206B9
:10391000E6B5A89B05C0EF3F19F00196A11DB11DAA
:10392000FFBFBA2FA92F982F88278E0F911DA11D99
:10393000B11DE2E0880F991FAA1FBB1FEA95D1F7BE
:10394000861B970B885E9340C8F221503040404060
:10395000504068517C4F211531054105510571F6E4
:103960000895019739F0880F991F880F991F0297C2
:103970000197F1F70895789484B5826084BD84B589
:10398000816084BD85B5826085BD85B5816085BD5A
:10399000EEE6F0E0808181608083E1E8F0E0108273
:1039A000808182608083808181608083E0E8F0E0B4
:1039B000808181608083E1EBF0E08081846080839E
:1039C000E0EBF0E0808181608083E1E9F0E08081DC
:1039D00082608083808181608083E0E9F0E0808183
:1039E00081608083E1EAF0E0808182608083808171
:1039F00081608083E0EAF0E0808181608083E1E2A1
:103A0000F1E0808182608083808181608083E0E258
:103A1000F1E0808181608083EAE7F0E0808184606A
:103A200080838081826080838081816080838081C7
:103A3000806880831092C100089580936003089588
:103A4000382F863308F0365320917B00832F8695DC
:103A50008695869590E08170907043E0880F991F5D
:103A60004A95E1F7277F282B20937B0037708091C0
:103A700060038295880F880F807C832B80937C0065
:103A800080917A00806480937A0080917A0086FD2C
:103A9000FCCF2091780040917900942F80E030E0B5
:103AA000282B392BC90108951F93CF93DF93182F2B
:103AB000EB0161E00E94341E209709F4CAC0CF3F99
:103AC000D10509F4C9C0E12FF0E0E254FE4F849122
:103AD000893009F466C08A30B0F48430F1F1853061
:103AE00040F4823059F1833070F5813009F0AEC076
:103AF00020C0873009F443C0883008F048C08630C1
:103B000009F0A4C034C08D3009F478C08E3038F488
:103B10008B3009F45AC08C3008F066C04CC080313C
:103B200009F480C0813109F487C08F3009F08EC05C
:103B30006FC084B5806884BDC7BD92C084B5806203
:103B400084BDC8BD8DC08091800080688093800056
:103B5000D0938900C093880083C0809180008062E8
:103B600080938000D0938B00C0938A0079C08091AD
:103B7000B00080688093B000C093B30071C08091A2
:103B8000B00080628093B000C093B40069C080919F
:103B90009000806880939000D0939900C093980023
:103BA0005FC080919000806280939000D0939B00D2
:103BB000C0939A0055C080919000886080939000D7
:103BC000D0939D00C0939C004BC08091A000806862
:103BD0008093A0008091A0008F7B8093A000D09361
:103BE000A900C093A8003CC08091A000806280938F
:103BF000A000D093AB00C093AA0032C08091A00077
:103C000088608093A000D093AD00C093AC0028C022
:103C100080912001806880932001D0932901C09376
:103C200028011EC080912001806280932001D093E2
:103C30002B01C0932A0114C08091200188608093D9
:103C40002001D0932D01C0932C010AC0C038D105AA
:103C50001CF4812F60E002C0812F61E00E94E71E0A
:103C6000DF91CF911F910895CF93DF93482F50E0BC
:103C7000CA0188589E4FFC0134914E5C5E4FFA0198
:103C80008491882369F190E0880F991FFC01EC5121
:103C9000FF4FA591B491FC01E250FF4FC591D49123
:103CA000662351F42FB7F8948C91932F9095892324
:103CB0008C93888189230BC0623061F42FB7F8940C
:103CC0008C91932F909589238C938881832B888363
:103CD0002FBF06C09FB7F8948C91832B8C939FBF06
:103CE000DF91CF910895893009F449C08A30A0F45A
:103CF000843051F1853040F4823079F1833000F521
:103D0000813009F063C026C0873079F1883098F59A
:103D1000863009F05BC025C08D3009F442C08E307A
:103D200028F48B30B1F18C30C0F52DC0803109F40E
:103D300042C0813109F445C08F3009F047C037C017
:103D4000809180008F7703C0809180008F7D809369
:103D50008000089584B58F7702C084B58F7D84BDBF
:103D600008958091B0008F7703C08091B0008F7D5F
:103D70008093B0000895809190008F7707C0809164
:103D800090008F7D03C080919000877F809390008A
:103D900008958091A0008F7707C08091A0008F7D4B
:103DA00003C08091A000877F8093A0000895809138
:103DB00020018F7703C0809120018F7D80932001A7
:103DC000089580912001877F809320010895FF92BC
:103DD0000F931F93F62E482F50E0CA0182549E4F36
:103DE000FC012491CA0188589E4FFC0114914E5C3D
:103DF0005E4FFA0104910023C9F0222319F0822FAB
:103E00000E94731EE02FF0E0EE0FFF1FE250FF4F05
:103E1000A591B4919FB7F894FF2021F48C9110954F
:103E2000812302C08C91812B8C939FBF1F910F9196
:103E3000FF9008950F931F93482F50E0CA018254BA
:103E40009E4FFC012491CA0188589E4FFC010491A9
:103E50004E5C5E4FFA011491112319F420E030E01A
:103E600015C0222319F0822F0E94731E812F90E02B
:103E7000880F991F885E9E4FFC01A591B4918C918B
:103E800020E030E0802311F021E030E0C9011F91F3
:103E90000F9108958F929F92AF92BF92CF92DF922F
:103EA000EF92FF920F931F93CF93DF93A82FB0E071
:103EB000CD0188589E4FFC018490AE5CBE4FFD0141
:103EC0008491662311F4992401C0982C6FEFA62EDB
:103ED0006FEFB62E6FEFC62E6FE0D62EA222B32262
:103EE000C422D522682F70E0660F771F685E7E4F70
:103EF000EE24FF248701FB01A591B4910BC0EA14C5
:103F0000FB040C051D0509F44EC00894E11CF11CCE
:103F1000011D111D8C918821891589F30CC0EA14AB
:103F2000FB040C051D0509F43EC00894E11CF11CBE
:103F3000011D111D03C0FB01A591B4918C91882135
:103F4000891569F720E030E040E050E0FB01C591C1
:103F5000D4910FC0DA01C9018E0D9F1DA01FB11FA2
:103F60008A159B05AC05BD05F1F02F5F3F4F4F4F04
:103F70005F4F88818821891569F3CA01B90125E15C
:103F800030E040E050E00E9421369B01AC01205F10
:103F90003F4F4F4F5F4F84E0569547953795279594
:103FA0008A95D1F704C020E030E040E050E0B9014C
:103FB000CA01DF91CF911F910F91FF90EF90DF9099
:103FC000CF90BF90AF909F908F90089508951F92CB
:103FD0000F920FB60F920BB60F9211242F933F93AF
:103FE0004F938F939F93EF93FF938091C00082FD37
:103FF0001DC04091C6002091D8063091D9062F5F90
:104000003F4F2F7330708091DA069091DB062817AE
:10401000390771F0E091D806F091D906E856F94FCA
:1040200040833093D9062093D80602C08091C60001
:10403000FF91EF919F918F914F913F912F910F9011
:104040000BBE0F900FBE0F901F90189508951F92F2
:104050000F920FB60F920BB60F9211242F933F932E
:104060004F938F939F93EF93FF938091C80082FDAE
:104070001DC04091CE0020916007309161072F5FF5
:104080003F4F2F733070809162079091630728171C
:10409000390771F0E0916007F0916107E05EF84F39
:1040A0004083309361072093600702C08091CE0067
:1040B000FF91EF919F918F914F913F912F910F9091
:1040C0000BBE0F900FBE0F901F90189508951F9272
:1040D0000F920FB60F920BB60F9211242F933F93AE
:1040E0004F938F939F93EF93FF938091D00082FD26
:1040F0001DC04091D6002091E8073091E9072F5F5D
:104100003F4F2F7330708091EA079091EB0728178B
:10411000390771F0E091E807F091E907E855F84FA9
:1041200040833093E9072093E80702C08091D600CE
:10413000FF91EF919F918F914F913F912F910F9010
:104140000BBE0F900FBE0F901F90189508951F92F1
:104150000F920FB60F920BB60F9211242F933F932D
:104160004F938F939F93EF93FF938091300182FD44
:104170001DC04091360120917008309171082F5F69
:104180003F4F2F73307080917208909173082817F9
:10419000390771F0E0917008F0917108E05DF74F18
:1041A0004083309371082093700802C080913601DB
:1041B000FF91EF919F918F914F913F912F910F9090
:1041C0000BBE0F900FBE0F901F901895E091C40882
:1041D000F091C508E05CFF4F819191912081318180
:1041E000821B930B8F739070892B11F00E94E61F36
:1041F000E091E608F091E708E05CFF4F8191919132
:1042000020813181821B930B8F739070892B11F069
:104210000E942620E0910809F0910909E05CFF4F17
:104220008191919120813181821B930B8F739070CA
:10423000892B11F00E946620E0912A09F0912B0948
:10424000E05CFF4F8191919120813181821B930B22
:104250008F739070892B11F00E94A62008951F92F1
:104260000F920FB60F920BB60F9211242F933F931C
:104270008F939F93EF93FF9320911C0730911D071D
:1042800080911E0790911F072817390731F48091FC
:10429000C1008F7D8093C10014C0E0911E07F09192
:1042A0001F07E452F94F208180911E0790911F074C
:1042B00001968F73907090931F0780931E07209331
:1042C000C600FF91EF919F918F913F912F910F9099
:1042D0000BBE0F900FBE0F901F9018951F920F925C
:1042E0000FB60F920BB60F9211242F933F938F931B
:1042F0009F93EF93FF932091A4073091A50780919E
:10430000A6079091A7072817390731F48091C900B3
:104310008F7D8093C90014C0E091A607F091A70794
:10432000EC59F84F20818091A6079091A70701963C
:104330008F7390709093A7078093A6072093CE0069
:10434000FF91EF919F918F913F912F910F900BBE15
:104350000F900FBE0F901F9018951F920F920FB6DF
:104360000F920BB60F9211242F933F938F939F932D
:10437000EF93FF9320912C0830912D0880912E0807
:1043800090912F082817390731F48091D1008F7D43
:104390008093D10014C0E0912E08F0912F08E451D1
:1043A000F84F208180912E0890912F0801968F73ED
:1043B000907090932F0880932E082093D600FF9141
:1043C000EF919F918F913F912F910F900BBE0F9086
:1043D0000FBE0F901F9018951F920F920FB60F925D
:1043E0000BB60F9211242F933F938F939F93EF93CC
:1043F000FF932091B4083091B5088091B608909150
:10440000B7082817390731F4809131018F7D8093E7
:10441000310114C0E091B608F091B708EC58F74F9D
:1044200020818091B6089091B70801968F739070A3
:104430009093B7088093B60820933601FF91EF91CF
:104440009F918F913F912F910F900BBE0F900FBEB8
:104450000F901F9018958F929F92AF92BF92CF921C
:10446000DF92EF92FF920F931F93DF93CF93CDB71D
:10447000DEB7FC011382128288EE93E0A0E0B0E088
:1044800084839583A683B7838BE693E091838083AF
:104490007587648757874687318B208B138B028BF8
:1044A000F58AE48AD78AC68AB18EA08E938E828ED0
:1044B0008889848F8989858F8A89868F8B89878F60
:1044C0008C8980A3CF91DF911F910F91FF90EF9086
:1044D000DF90CF90BF90AF909F908F9008958F9274
:1044E0009F92AF92BF92CF92DF92EF92FF920F9383
:1044F0001F93DF93CF93CDB7DEB7FC0113821282F7
:1045000088EE93E0A0E0B0E084839583A683B78330
:104510008BE693E09183808375876487578746870E
:10452000318B208B138B028BF58AE48AD78AC68A5B
:10453000B18EA08E938E828E8889848F8989858F93
:104540008A89868F8B89878F8C8980A3CF91DF9111
:104550001F910F91FF90EF90DF90CF90BF90AF90A1
:104560009F908F900895AF92BF92DF92EF92FF924B
:104570000F931F93CF93DF93EC017A018B01DD241E
:10458000403081EE580780E0680780E0780711F03E
:10459000DD24D39491E0A92EB12CEC89FD89DD2096
:1045A00069F0C50108A002C0880F991F0A94E2F7BC
:1045B000808360E079E08DE390E005C0108260E8E0
:1045C00074E88EE190E0A80197010E9454362150D2
:1045D000304040405040569547953795279580E1AB
:1045E0002030380720F0DD2011F0DD24D6CFE88917
:1045F000F9893083EA89FB89208319A2EE89FF8932
:10460000408121E030E0C9010C8C02C0880F991F65
:104610000A94E2F7482B4083EE89FF894081C90163
:104620000D8C02C0880F991F0A94E2F7482B408333
:10463000EE89FF894081C9010E8C02C0880F991F45
:104640000A94E2F7482B4083EE89FF8980810F8C22
:1046500002C0220F331F0A94E2F7209528232083FB
:10466000DF91CF911F910F91FF90EF90DF90BF905E
:10467000AF900895AF92BF92CF92DF92EF92FF92E8
:104680000F931F93CF93DF93EC017A018B01C22E1E
:10469000DD24403081EE580780E0680780E078072D
:1046A00011F0DD24D39471E0A72EB12CEC89FD89A3
:1046B000DD2069F0C50108A002C0880F991F0A9487
:1046C000E2F7808360E079E08DE390E005C010823E
:1046D00060E874E88EE190E0A80197010E945436EA
:1046E000215030404040504056954795379527958A
:1046F00080E12030380720F0DD2011F0DD24D6CF16
:10470000E889F9893083EA89FB892083E88DF98D6E
:10471000C082EE89FF89408121E030E0C9010C8C24
:1047200002C0880F991F0A94E2F7482B4083EE8954
:10473000FF894081C9010D8C02C0880F991F0A941E
:10474000E2F7482B4083EE89FF894081C9010E8C36
:1047500002C0880F991F0A94E2F7482B4083EE8924
:10476000FF8980810F8C02C0220F331F0A94E2F769
:10477000209528232083DF91CF911F910F91FF90E7
:10478000EF90DF90CF90BF90AF900895CF93DF93DD
:10479000DC011E968D919C911F97EC01C05CDF4F50
:1047A000FC01EE5BFF4F28813981808191812817C0
:1047B0003907C9F75696ED91FC915797408121E052
:1047C00030E0C9015C960C905C9702C0880F991F7D
:1047D0000A94E2F78095842380835696ED91FC91AC
:1047E00057974081C9015D960C905D9702C0880F74
:1047F000991F0A94E2F78095842380835696ED9161
:10480000FC9157974081C9015E960C905E9702C05B
:10481000880F991F0A94E2F7809584238083569627
:10482000ED91FC91579780815F960C905F9702C045
:10483000220F331F0A94E2F72095282320831C9629
:10484000ED91FC911D97EE5BFF4F808191819293DA
:104850008293DF91CF910895DC011C96ED91FC913C
:104860001D97E05CFF4F2191319180819181281B40
:10487000390B2F733070C9010895DC011C96ED913E
:10488000FC911D97E05CFF4F20813181E054F040A6
:10489000DF01AE5BBF4F8D919C91119728173907AF
:1048A00019F42FEF3FEF07C08D919C91E80FF91F8E
:1048B0008081282F30E0C9010895DC011C96ED911C
:1048C000FC911D97E05CFF4F20813181E054F04066
:1048D000DF01AE5BBF4F8D919C911197281739076F
:1048E00019F42FEF3FEF10C08D919C911197E80FB5
:1048F000F91F20818D919C91119701968F73907073
:1049000011969C938E9330E0C9010895DC01919635
:104910008C919197882339F05496ED91FC9155979D
:10492000808186FFF9CF91961C920895CF93DF93F3
:10493000EC01EE85FF85E05CFF4F20813181E05482
:10494000F0402F5F3F4F2F733070DF01AE5BBF4FE2
:104950008D919C91119728173907D1F3E05CFF4F97
:1049600080819181E054F040E80FF91F6083EE856B
:10497000FF85E05CFF4F31832083EE89FF89208132
:1049800081E090E00F8C02C0880F991F0A94E2F733
:10499000282B208381E089A3EC89FD8980818064B4
:1049A000808381E090E0DF91CF91089581E00895C8
:1049B0001F931092BB081092BA0828EE33E040E033
:1049C00050E02093BC083093BD084093BE0850933C
:1049D000BF086BE673E07093B9086093B80888E984
:1049E00096E09093C5088093C4088CED96E0909370
:1049F000C7088093C60885EC90E09093C90880931F
:104A0000C80884EC90E09093CB088093CA0880ECAF
:104A100090E09093CD088093CC0881EC90E0909347
:104A2000CF088093CE0882EC90E09093D1088093D9
:104A3000D00886EC90E09093D3088093D20814E0DD
:104A40001093D408B3E0B093D508A7E0A093D6089C
:104A5000F5E0F093D708E1E0E093D8081092DD0884
:104A60001092DC082093DE083093DF084093E008C2
:104A70005093E1087093DB086093DA0880E297E0D6
:104A80009093E7088093E60884E697E09093E9081E
:104A90008093E8088DEC90E09093EB088093EA080F
:104AA0008CEC90E09093ED088093EC0888EC90E01B
:104AB0009093EF088093EE0889EC90E09093F108D2
:104AC0008093F0088AEC90E09093F3088093F208CA
:104AD0008EEC90E09093F5088093F4081093F6081C
:104AE000B093F708A093F808F093F908E093FA0858
:104AF0001092FF081092FE082093000930930109DC
:104B000040930209509303097093FD086093FC08D9
:104B100088EA97E090930909809308098CEE97E062
:104B200090930B0980930A0985ED90E090930D090D
:104B300080930C0984ED90E090930F0980930E0907
:104B400080ED90E0909311098093100981ED90E041
:104B5000909313098093120982ED90E090931509C8
:104B60008093140986ED90E09093170980931609BD
:104B700010931809B0931909A0931A09F0931B090F
:104B8000E0931C0910922109109220092093220918
:104B900030932309409324095093250970931F09EA
:104BA00060931E0980E398E090932B0980932A0973
:104BB00084E798E090932D0980932C0985E391E098
:104BC00090932F0980932E0984E391E0909331090B
:104BD0008093300980E391E0909333098093320908
:104BE00081E391E0909335098093340982E391E069
:104BF000909337098093360986E391E090933909C1
:104C00008093380910933A09B0933B09A0933C096B
:104C1000F0933D09E0933E091F9108950F93FC0125
:104C20008BE893E0918380836283438324830583AD
:104C30000F9108950F93FC018BE893E0918380839B
:104C400062834383248305830F9108958BE893E067
:104C500090934109809340091092420910924309B0
:104C6000109244091092450908958F929F92AF9235
:104C7000BF92CF92DF92EF92FF920F931F93CF9349
:104C8000DF934C016B017C01AA24BB24C0E0D0E07F
:104C9000C601F70162814AE050E00E949E288C0123
:104CA000C6016EE20E945427080F191FA00EB11E04
:104CB00021960894E11CF11CC330D10549F7C601C7
:104CC000F40165814AE050E00E949E289501280F7A
:104CD000391FC901DF91CF911F910F91FF90EF9084
:104CE000DF90CF90BF90AF909F908F9008959C01E0
:104CF0002E5F3F4FCB01B90144E050E00E94F236F5
:104D00009C0180E0232B09F481E00895DF93CF9389
:104D100000D00F92CDB7DEB7FC014283538364838A
:104D200075830F900F900F900F90CF91DF910895A2
:104D30009C01FB0180819181A281B381F901828371
:104D40009383A483B583C90108959C01FB018BE87B
:104D500093E0D9018D939C9380819181A281B3814D
:104D6000F90182839383A483B58308959C01FB0199
:104D70008BE893E0D9018D939C9380819181A281EE
:104D8000B381F90182839383A483B5830895DF936C
:104D9000CF9300D00F92CDB7DEB7FC018BE893E044
:104DA0009183808342835383648375830F900F9034
:104DB0000F900F90CF91DF910895DF93CF9300D0A4
:104DC0000F92CDB7DEB7FC018BE893E0918380832F
:104DD00042835383648375830F900F900F900F90DD
:104DE000CF91DF910895FC018BE893E0918380835C
:104DF00012821382148215820895FC018BE893E0DD
:104E00009183808312821382148215820895CF9237
:104E1000DF92EF92FF920F931F93CF93DF937C016A
:104E20006B018A01C0E0D0E00FC0D6016D916D0129
:104E3000D701ED91FC910190F081E02DC70119950A
:104E4000C80FD91F015010400115110571F7CE018F
:104E5000DF91CF911F910F91FF90EF90DF90CF9056
:104E60000895EF92FF920F931F93CF93DF937C01EE
:104E70008B01C0E0D0E0F8010F5F1F4F6491662303
:104E800059F0D701ED91FC910190F081E02DC7011F
:104E90001995C80FD91FEFCFCE01DF91CF911F9188
:104EA0000F91FF90EF900895DC01ED91FC9101903E
:104EB000F081E02D199508959C01DB01ED91FC91A5
:104EC0000190F081E02DCB01B90119950895EF9281
:104ED000FF920F931F938C01DC01ED91FC910190E7
:104EE000F081E02D6DE019957C01D801ED91FC91E8
:104EF0000190F081E02DC8016AE019959C012E0D0A
:104F00003F1DC9011F910F91FF90EF900895EF92FF
:104F1000FF920F931F937C010E9431278C01C701E0
:104F20000E9467279C01200F311FC9011F910F911B
:104F3000FF90EF900895EF92FF920F931F937C01E3
:104F4000DC01ED91FC910190F081E02D19958C012F
:104F5000C7010E946727080F191FC8011F910F91F1
:104F6000FF90EF900895EF92FF920F931F937C01B3
:104F7000DB01ED91FC910190F081E02DCB01B701B7
:104F800019958C01C7010E946727080F191FC801D6
:104F90001F910F91FF90EF900895CF93DF93EC0155
:104FA0006115710519F420E030E00FC0DB010D90B0
:104FB0000020E9F71197A61BB70BE881F981028061
:104FC000F381E02DAD0119959C01C901DF91CF91CD
:104FD00008954F925F927F928F929F92AF92BF926D
:104FE000CF92DF92EF92FF920F931F93DF93CF93B5
:104FF000CDB7DEB7A1970FB6F894DEBF0FBECDBF19
:105000002C01742ECB01223008F42AE019A231E2DF
:10501000C32ED12CCC0EDD1E822E9924AA24BB24B3
:10502000672D752FA50194010E94543679018A01DC
:10503000C801B701A50194010E942136472D461BE6
:105040000894C108D1084A3014F4405D01C0495C9D
:10505000F6014083E114F1040105110521F07E2CD5
:105060005F2DC801DDCFC201B6010E94CD27A196F8
:105070000FB6F894DEBF0FBECDBFCF91DF911F9169
:105080000F91FF90EF90DF90CF90BF90AF909F90E7
:105090008F907F905F904F900895DC01211531052E
:1050A00041F4ED91FC910190F081E02D642F199570
:1050B00008950E94E9270895EF92FF920F931F939E
:1050C0007C010E944D288C01C7010E9467279C012A
:1050D000200F311FC9011F910F91FF90EF9008958C
:1050E000EF92FF920F931F939A017B0100E010E073
:1050F000B801A7010E944D281F910F91FF90EF90DA
:105100000895CF92DF92EF92FF920F931F936C015D
:105110007B019A0100E010E0B801A7010E944D2830
:105120008C01C6010E946727080F191FC8011F9133
:105130000F91FF90EF90DF90CF900895EF92FF9244
:105140000F931F939A01E62EFF2400E010E0B801B0
:10515000A7010E944D281F910F91FF90EF90089595
:10516000CF92DF92EF92FF920F931F936C01E62E86
:105170009A01FF2400E010E0B801A7010E944D2829
:105180008C01C6010E946727080F191FC8011F91D3
:105190000F91FF90EF90DF90CF900895CF92DF9224
:1051A000EF92FF920F931F93CF93DF93EC016A016D
:1051B0007B012115310541F4E881F9810190F081ED
:1051C000E02D642F19951FC02A303105D1F477FFE7
:1051D00017C0E881F9810190F081E02D6DE2199509
:1051E0008C0144275527BA014C195D096E097F09C6
:1051F000CE012AE00E94E9279801280F391F04C038
:105200002AE00E94E9279C01C901DF91CF911F91FB
:105210000F91FF90EF90DF90CF900895EF92FF9263
:105220000F931F937C010E94CE288C01C7010E941E
:1052300067279C01200F311FC9011F910F91FF901B
:10524000EF900895EF92FF920F931F937B019A01C5
:105250000027F7FC0095102FB801A7010E94CE2867
:105260001F910F91FF90EF900895CF92DF92EF92F0
:10527000FF920F931F936C017B019A010027F7FCAB
:105280000095102FB801A7010E94CE288C01C601FD
:105290000E946727080F191FC8011F910F91FF90E7
:1052A000EF90DF90CF9008950E94CD2708957F92D0
:1052B0008F929F92AF92BF92CF92DF92EF92FF9226
:1052C0000F931F93CF93DF934C017A018B01722EC2
:1052D000CB01BA01A80197010E946116882321F031
:1052E000C40169E472E021C0C0E0D0E05701680168
:1052F000E894D7F8C601B5012FEF3FEF4FE75FE71E
:105300000E946116882351F4C601B5012FEF3FEFCB
:105310004FE75FE70E943116181614F0C1E0D0E0A5
:10532000219739F0C4016DE472E00E94CD27EC01B1
:1053300093C0C801B7012FEF3FEF4FE75FE40E9432
:10534000A115181654F0C801B7012FEF3FEF4FE732
:105350005FEC0E940116882324F4C40161E572E029
:10536000E4CFC801B70120E030E040E050E00E9407
:10537000011687FD03C0C0E0D0E00EC0D401ED915E
:10538000FC910190F081E02DC4016DE21995EC01D2
:1053900017FB109517F9109520E030E040E05FE32F
:1053A000DD240BC0CA01B90120E030E040E251E445
:1053B0000E94F5149B01AC01D394D71498F3C80153
:1053C000B7010E94CE135B016C010E9425127B0184
:1053D0008C01C401B801A7012AE030E00E944D28E9
:1053E000C80FD91F772039F0C40165E572E00E942B
:1053F000CD27C80FD91FC801B7010E943E179B01D6
:10540000AC01C601B5010E949D1324C020E030E02C
:1054100040E251E40E94FB137B018C010E94EA16DA
:105420005B016C01CC24B7FCC094DC2CC401B60138
:10543000A5012AE030E00E94CE28C80FD91FC6017E
:10544000B5010E948C169B01AC01C801B7010E94F6
:105450009D137A947720D1F6CE01DF91CF911F91E1
:105460000F91FF90EF90DF90CF90BF90AF909F9003
:105470008F907F9008950E9457290895EF92FF9290
:105480000F931F937C010E9457298C01C7010E9432
:105490006727080F191FC8011F910F91FF90EF9008
:1054A0000895EF92FF920F931F937C010E94CD27E6
:1054B0008C01C7010E946727080F191FC8011F919F
:1054C0000F91FF90EF900895AF92BF92CF92DF922D
:1054D000EF92FF920F931F93CF93DF935C016B01C9
:1054E000EE24FF24C0E0D0E010C0D501ED91FC9186
:1054F00000811181C601BE010E94DE2A682FC5010C
:10550000F8011995E80EF91E2196F601848195811E
:10551000C817D90750F3C701DF91CF911F910F91A1
:10552000FF90EF90DF90CF90BF90AF900895EF92F3
:10553000FF920F931F937C010E94642A8C01C70184
:105540000E9467279C01200F311FC9011F910F91F5
:10555000FF90EF900895FC01848195816817790789
:1055600048F40190F081E02D309721F0E60FF71F0D
:105570008081089580E00895FC01848195816817F9
:10558000790730F40190F081E02DE60FF71F40839A
:105590000895FC019B01848195816817790728F49F
:1055A000608171816115710529F41092460966E4E4
:1055B00079E002C0620F731FCB010895FC01848162
:1055C00095816817790748F40190F081E02D3097B4
:1055D00021F0E60FF71F8081089580E00895FC0117
:1055E0000190F081E02D309729F40895861709F491
:1055F0004083319680818823C9F70895FC0180811A
:105600009181009729F420E030E040E050E004C0B0
:105610000E94B3369B01AC01B901CA010895CF9233
:10562000DF92EF92FF920F931F93CF93DF936C0162
:10563000DC01ED90FC901197E114F10409F441C0F4
:105640001496CD91DC9115972097D9F1870102C06E
:105650000F5F1F4FF8018081992787FD90950E9469
:10566000DA36892BA9F72197CE0DDF1D01C02197CE
:105670008881992787FD90950E94DA36892B19F049
:10568000C017D107A0F7FE013196E01BF10BD60140
:105690001596FC93EE9314972D913C9120173107AA
:1056A00028F4C901B801AF010E94FF36D601ED917F
:1056B000FC91119714968D919C911597E80FF91F05
:1056C0001082DF91CF911F910F91FF90EF90DF90AB
:1056D000CF900895CF93DF93FC01C081D1812097B3
:1056E00039F409C0992787FD90950E94EA3689937D
:1056F00088818823B9F7DF91CF910895CF93DF9305
:10570000FC01C081D181209739F409C0992787FD18
:1057100090950E94E236899388818823B9F7DF91BA
:10572000CF910895EF92FF920F931F93CF93DF9342
:10573000FC01DB018617970739F124813581149626
:105740008D919C9115972817390701F5232BE1F0CE
:10575000E080F180CD91DC9113C0992787FD909571
:105760000E94E2368C018881992787FD90950E94DE
:10577000E2360817190751F40894E11CF11C219630
:10578000F7018081882349F781E001C080E0DF9143
:10579000CF911F910F91FF90EF900895AF92BF921C
:1057A000CF92DF92EF92FF920F931F93CF93DF93ED
:1057B000FC015B017A01DB0114962D913C91159758
:1057C0002115310559F184819581009739F18217AE
:1057D000930720F14817590720F07C010894E1084D
:1057E000F10800811181C801CFEFDFEF6801CE0C15
:1057F000DF1C10C0F501608171810E945D379C0142
:10580000009771F0801B910BE816F90608F0EC0187
:10581000C9010196C816D90668F702C0CFEFDFEFBD
:10582000CE01DF91CF911F910F91FF90EF90DF900C
:10583000CF90BF90AF900895FC01DB01448155816A
:1058400014968D919C911597481B590BCF010E947E
:10585000CE2B0895CF93DF93FC01DB0184819581EA
:105860004817590760F4C081D1816D917C91CE01B8
:10587000840F951F0E945D379C01009719F42FEF4C
:105880003FEF02C02C1B3D0BC901DF91CF91089562
:1058900040E050E00E942A2C0895DF92EF92FF92A0
:1058A0000F931F93CF93DF93EC018C819D81481759
:1058B0005907C8F47A010894E11CF11CE881F981C8
:1058C000EE0DFF1DD080108208811981772767FDBA
:1058D0007095C8010E9452379C010E0D1F1DF801E2
:1058E000D082009719F4EFEFFFEF05C0888199810E
:1058F000F901E81BF90BCF01DF91CF911F910F91B7
:10590000FF90EF90DF900895FC0144815581415054
:1059100050400E944D2C0895CF93DF93FC01848169
:1059200095814817590768F4C081D181772767FDB1
:105930007095CE01840F951F0E941A379C01009725
:1059400019F42FEF3FEF02C02C1B3D0BC901DF9173
:10595000CF91089540E050E00E948C2C08950F9361
:105960001F93CF93DF93FC018B0141155105F9F093
:1059700061157105E1F0848195812817390718F0C8
:10598000FB01108214C041505040EC01C21BD30BEC
:105990004C175D0708F4EA0160817181620F731F83
:1059A000C801AE010E944337C00FD11F1882DF919A
:1059B000CF911F910F910895FC01DB012481358166
:1059C00014964D915C91159724173507A8F08081A6
:1059D0009181009789F06D917C916115710561F05D
:1059E000241B350B820F931F0E9425379C0180E0FA
:1059F000232B19F481E0089580E00895DC01FB0178
:105A000014968D919C911597892B31F46115710530
:105A1000A9F090E0808108C00D90BC91A02D611587
:105A2000710529F490E08C91882349F407C0CD01D9
:105A30000E9425379C0190E0232B09F491E0892FE7
:105A40000895CF93DF939C01FB01EC01A881B981FC
:105A5000109729F06081718161157105D1F4C081C1
:105A6000D181209759F084819581892B39F08881E3
:105A700090E022273327281B390B12C0109771F0B2
:105A8000F90184819581892B49F08C91282F30E090
:105A900007C0CD010E9425379C0102C020E030E004
:105AA000C901DF91CF9108950E94212D892F809502
:105AB000881F8827881F08950E94212D20E018162E
:105AC00019060CF021E0822F08950E94212D20E07C
:105AD000181619060CF421E0822F08950E94212D3A
